{"contracts/Reputation.sol":{"Reputation":{"abi":[{"inputs":[],"stateMutability":"nonpayable","type":"constructor"},{"inputs":[],"name":"AccessControlBadConfirmation","type":"error"},{"inputs":[{"internalType":"address","name":"account","type":"address"},{"internalType":"bytes32","name":"neededRole","type":"bytes32"}],"name":"AccessControlUnauthorizedAccount","type":"error"},{"inputs":[],"name":"EnforcedPause","type":"error"},{"inputs":[],"name":"ExpectedPause","type":"error"},{"inputs":[],"name":"ReentrancyGuardReentrantCall","type":"error"},{"anonymous":false,"inputs":[{"indexed":false,"internalType":"address","name":"account","type":"address"}],"name":"Paused","type":"event"},{"anonymous":false,"inputs":[{"indexed":true,"internalType":"address","name":"user","type":"address"},{"indexed":false,"internalType":"uint256","name":"newReputationScore","type":"uint256"},{"indexed":false,"internalType":"uint256","name":"totalReviews","type":"uint256"}],"name":"ReputationUpdated","type":"event"},{"anonymous":false,"inputs":[{"indexed":true,"internalType":"uint256","name":"reviewId","type":"uint256"},{"indexed":true,"internalType":"address","name":"reviewer","type":"address"},{"indexed":true,"internalType":"address","name":"reviewee","type":"address"},{"indexed":false,"internalType":"uint256","name":"rating","type":"uint256"},{"indexed":false,"internalType":"string","name":"review","type":"string"},{"indexed":false,"internalType":"string","name":"ipfsHash","type":"string"},{"indexed":false,"internalType":"uint256","name":"rentalId","type":"uint256"}],"name":"ReviewCreated","type":"event"},{"anonymous":false,"inputs":[{"indexed":true,"internalType":"uint256","name":"reviewId","type":"uint256"},{"indexed":true,"internalType":"address","name":"reviewer","type":"address"},{"indexed":true,"internalType":"address","name":"reviewee","type":"address"}],"name":"ReviewDeleted","type":"event"},{"anonymous":false,"inputs":[{"indexed":true,"internalType":"uint256","name":"reviewId","type":"uint256"},{"indexed":false,"internalType":"uint256","name":"newRating","type":"uint256"},{"indexed":false,"internalType":"string","name":"newReview","type":"string"}],"name":"ReviewUpdated","type":"event"},{"anonymous":false,"inputs":[{"indexed":true,"internalType":"bytes32","name":"role","type":"bytes32"},{"indexed":true,"internalType":"bytes32","name":"previousAdminRole","type":"bytes32"},{"indexed":true,"internalType":"bytes32","name":"newAdminRole","type":"bytes32"}],"name":"RoleAdminChanged","type":"event"},{"anonymous":false,"inputs":[{"indexed":true,"internalType":"bytes32","name":"role","type":"bytes32"},{"indexed":true,"internalType":"address","name":"account","type":"address"},{"indexed":true,"internalType":"address","name":"sender","type":"address"}],"name":"RoleGranted","type":"event"},{"anonymous":false,"inputs":[{"indexed":true,"internalType":"bytes32","name":"role","type":"bytes32"},{"indexed":true,"internalType":"address","name":"account","type":"address"},{"indexed":true,"internalType":"address","name":"sender","type":"address"}],"name":"RoleRevoked","type":"event"},{"anonymous":false,"inputs":[{"indexed":false,"internalType":"address","name":"account","type":"address"}],"name":"Unpaused","type":"event"},{"inputs":[],"name":"ADMIN_ROLE","outputs":[{"internalType":"bytes32","name":"","type":"bytes32"}],"stateMutability":"view","type":"function"},{"inputs":[],"name":"ARBITRATOR_ROLE","outputs":[{"internalType":"bytes32","name":"","type":"bytes32"}],"stateMutability":"view","type":"function"},{"inputs":[],"name":"DEFAULT_ADMIN_ROLE","outputs":[{"internalType":"bytes32","name":"","type":"bytes32"}],"stateMutability":"view","type":"function"},{"inputs":[],"name":"EXCELLENT_THRESHOLD","outputs":[{"internalType":"uint256","name":"","type":"uint256"}],"stateMutability":"view","type":"function"},{"inputs":[],"name":"FAIR_THRESHOLD","outputs":[{"internalType":"uint256","name":"","type":"uint256"}],"stateMutability":"view","type":"function"},{"inputs":[],"name":"GOOD_THRESHOLD","outputs":[{"internalType":"uint256","name":"","type":"uint256"}],"stateMutability":"view","type":"function"},{"inputs":[],"name":"MAX_RATING","outputs":[{"internalType":"uint256","name":"","type":"uint256"}],"stateMutability":"view","type":"function"},{"inputs":[],"name":"MIN_RATING","outputs":[{"internalType":"uint256","name":"","type":"uint256"}],"stateMutability":"view","type":"function"},{"inputs":[],"name":"RATING_DECIMALS","outputs":[{"internalType":"uint256","name":"","type":"uint256"}],"stateMutability":"view","type":"function"},{"inputs":[{"internalType":"address","name":"reviewer","type":"address"},{"internalType":"address","name":"reviewee","type":"address"},{"internalType":"uint256","name":"rentalId","type":"uint256"}],"name":"canReview","outputs":[{"internalType":"bool","name":"","type":"bool"}],"stateMutability":"view","type":"function"},{"inputs":[{"internalType":"address","name":"reviewee","type":"address"},{"internalType":"uint256","name":"rating","type":"uint256"},{"internalType":"string","name":"review","type":"string"},{"internalType":"string","name":"ipfsHash","type":"string"},{"internalType":"uint256","name":"rentalId","type":"uint256"},{"internalType":"enum Reputation.ReviewType","name":"reviewType","type":"uint8"}],"name":"createReview","outputs":[],"stateMutability":"nonpayable","type":"function"},{"inputs":[{"internalType":"uint256","name":"reviewId","type":"uint256"}],"name":"deleteReview","outputs":[],"stateMutability":"nonpayable","type":"function"},{"inputs":[{"internalType":"uint256","name":"score","type":"uint256"}],"name":"getReputationLevel","outputs":[{"internalType":"string","name":"","type":"string"}],"stateMutability":"pure","type":"function"},{"inputs":[{"internalType":"uint256","name":"reviewId","type":"uint256"}],"name":"getReview","outputs":[{"components":[{"internalType":"uint256","name":"reviewId","type":"uint256"},{"internalType":"address","name":"reviewer","type":"address"},{"internalType":"address","name":"reviewee","type":"address"},{"internalType":"uint256","name":"rating","type":"uint256"},{"internalType":"string","name":"review","type":"string"},{"internalType":"string","name":"ipfsHash","type":"string"},{"internalType":"uint256","name":"rentalId","type":"uint256"},{"internalType":"enum Reputation.ReviewType","name":"reviewType","type":"uint8"},{"internalType":"uint256","name":"createdAt","type":"uint256"},{"internalType":"uint256","name":"updatedAt","type":"uint256"},{"internalType":"bool","name":"isDeleted","type":"bool"}],"internalType":"struct Reputation.Review","name":"","type":"tuple"}],"stateMutability":"view","type":"function"},{"inputs":[{"internalType":"bytes32","name":"role","type":"bytes32"}],"name":"getRoleAdmin","outputs":[{"internalType":"bytes32","name":"","type":"bytes32"}],"stateMutability":"view","type":"function"},{"inputs":[{"internalType":"address","name":"user","type":"address"}],"name":"getUserReceivedReviews","outputs":[{"internalType":"uint256[]","name":"","type":"uint256[]"}],"stateMutability":"view","type":"function"},{"inputs":[{"internalType":"address","name":"user","type":"address"}],"name":"getUserReputation","outputs":[{"components":[{"internalType":"address","name":"user","type":"address"},{"internalType":"uint256","name":"totalReviews","type":"uint256"},{"internalType":"uint256","name":"totalRatingSum","type":"uint256"},{"internalType":"uint256","name":"reputationScore","type":"uint256"},{"internalType":"uint256","name":"completedRentals","type":"uint256"},{"internalType":"uint256","name":"cancelledRentals","type":"uint256"},{"internalType":"uint256","name":"disputeCount","type":"uint256"},{"internalType":"bool","name":"isVerified","type":"bool"},{"internalType":"uint256","name":"lastUpdated","type":"uint256"}],"internalType":"struct Reputation.UserReputation","name":"","type":"tuple"}],"stateMutability":"view","type":"function"},{"inputs":[{"internalType":"address","name":"user","type":"address"}],"name":"getUserReviews","outputs":[{"internalType":"uint256[]","name":"","type":"uint256[]"}],"stateMutability":"view","type":"function"},{"inputs":[{"internalType":"bytes32","name":"role","type":"bytes32"},{"internalType":"address","name":"account","type":"address"}],"name":"grantRole","outputs":[],"stateMutability":"nonpayable","type":"function"},{"inputs":[{"internalType":"bytes32","name":"role","type":"bytes32"},{"internalType":"address","name":"account","type":"address"}],"name":"hasRole","outputs":[{"internalType":"bool","name":"","type":"bool"}],"stateMutability":"view","type":"function"},{"inputs":[],"name":"pause","outputs":[],"stateMutability":"nonpayable","type":"function"},{"inputs":[],"name":"paused","outputs":[{"internalType":"bool","name":"","type":"bool"}],"stateMutability":"view","type":"function"},{"inputs":[{"internalType":"bytes32","name":"role","type":"bytes32"},{"internalType":"address","name":"callerConfirmation","type":"address"}],"name":"renounceRole","outputs":[],"stateMutability":"nonpayable","type":"function"},{"inputs":[{"internalType":"uint256","name":"","type":"uint256"}],"name":"rentalReviews","outputs":[{"internalType":"uint256","name":"","type":"uint256"}],"stateMutability":"view","type":"function"},{"inputs":[{"internalType":"uint256","name":"","type":"uint256"}],"name":"reviews","outputs":[{"internalType":"uint256","name":"reviewId","type":"uint256"},{"internalType":"address","name":"reviewer","type":"address"},{"internalType":"address","name":"reviewee","type":"address"},{"internalType":"uint256","name":"rating","type":"uint256"},{"internalType":"string","name":"review","type":"string"},{"internalType":"string","name":"ipfsHash","type":"string"},{"internalType":"uint256","name":"rentalId","type":"uint256"},{"internalType":"enum Reputation.ReviewType","name":"reviewType","type":"uint8"},{"internalType":"uint256","name":"createdAt","type":"uint256"},{"internalType":"uint256","name":"updatedAt","type":"uint256"},{"internalType":"bool","name":"isDeleted","type":"bool"}],"stateMutability":"view","type":"function"},{"inputs":[{"internalType":"bytes32","name":"role","type":"bytes32"},{"internalType":"address","name":"account","type":"address"}],"name":"revokeRole","outputs":[],"stateMutability":"nonpayable","type":"function"},{"inputs":[{"internalType":"bytes4","name":"interfaceId","type":"bytes4"}],"name":"supportsInterface","outputs":[{"internalType":"bool","name":"","type":"bool"}],"stateMutability":"view","type":"function"},{"inputs":[],"name":"unpause","outputs":[],"stateMutability":"nonpayable","type":"function"},{"inputs":[{"internalType":"address","name":"user","type":"address"},{"internalType":"bool","name":"completed","type":"bool"},{"internalType":"bool","name":"cancelled","type":"bool"},{"internalType":"bool","name":"hadDispute","type":"bool"}],"name":"updateRentalStats","outputs":[],"stateMutability":"nonpayable","type":"function"},{"inputs":[{"internalType":"uint256","name":"reviewId","type":"uint256"},{"internalType":"uint256","name":"newRating","type":"uint256"},{"internalType":"string","name":"newReview","type":"string"}],"name":"updateReview","outputs":[],"stateMutability":"nonpayable","type":"function"},{"inputs":[{"internalType":"address","name":"","type":"address"},{"internalType":"uint256","name":"","type":"uint256"}],"name":"userReceivedReviews","outputs":[{"internalType":"uint256","name":"","type":"uint256"}],"stateMutability":"view","type":"function"},{"inputs":[{"internalType":"address","name":"","type":"address"}],"name":"userReputations","outputs":[{"internalType":"address","name":"user","type":"address"},{"internalType":"uint256","name":"totalReviews","type":"uint256"},{"internalType":"uint256","name":"totalRatingSum","type":"uint256"},{"internalType":"uint256","name":"reputationScore","type":"uint256"},{"internalType":"uint256","name":"completedRentals","type":"uint256"},{"internalType":"uint256","name":"cancelledRentals","type":"uint256"},{"internalType":"uint256","name":"disputeCount","type":"uint256"},{"internalType":"bool","name":"isVerified","type":"bool"},{"internalType":"uint256","name":"lastUpdated","type":"uint256"}],"stateMutability":"view","type":"function"},{"inputs":[{"internalType":"address","name":"","type":"address"},{"internalType":"uint256","name":"","type":"uint256"}],"name":"userReviews","outputs":[{"internalType":"uint256","name":"","type":"uint256"}],"stateMutability":"view","type":"function"},{"inputs":[{"internalType":"address","name":"","type":"address"},{"internalType":"address","name":"","type":"address"}],"name":"userToUserReviews","outputs":[{"internalType":"uint256","name":"","type":"uint256"}],"stateMutability":"view","type":"function"},{"inputs":[{"internalType":"address","name":"user","type":"address"}],"name":"verifyUser","outputs":[],"stateMutability":"nonpayable","type":"function"}],"evm":{"bytecode":{"linkReferences":{},"object":"608060405234610030576001805561001633610035565b50610020336100b1565b506040516121d2908161014a8239f35b600080fd5b6001600160a01b038116600090815260008051602061235c833981519152602052604090205460ff166100ab576001600160a01b0316600081815260008051602061235c83398151915260205260408120805460ff1916600117905533919060008051602061231c8339815191528180a4600190565b50600090565b6001600160a01b038116600090815260008051602061233c833981519152602052604090205460ff166100ab576001600160a01b0316600081815260008051602061233c83398151915260205260408120805460ff191660011790553391907fa49807205ce4d355092ef5a8a18f56e8913cf4a201fbe287825b095693c217759060008051602061231c8339815191529080a460019056fe608080604052600436101561001357600080fd5b60003560e01c90816301ffc9a71461185857508063096d085b14611807578063175a3b41146114da57806318d0e8b2146114635780631cc76632146113e05780631f4ac12914611396578063248a9ca3146113615780632f2ff15d1461132157806336568abe146112db5780633f4ba83a14611272578063402bda091461123b5780634d813120146111eb5780635c975abb146111c857806373a469c6146111ac57806375b238fc14611171578063799ead1a146111385780637d04470a14610afc5780637ffdecb214610ae05780638456cb5914610a8657806391d1485414610a3957806394e113ea14610a1d578063990581b6146108365780639cea0787146107fb578063a217fddf146107df578063baccbfdb146106b0578063bb0e4ea214610694578063cae7be331461063b578063cfdb38821461060f578063d547741f146105c8578063d71e489014610421578063e47aad6f14610369578063e83ddcea1461027e578063efd67e5314610261578063f8b11691146101c25763fb3b8bb6146101a057600080fd5b346101bd5760003660031901126101bd57602060405161015e8152f35b600080fd5b346101bd5760203660031901126101bd576001600160a01b036101e36118ab565b166000526005602052610120604060002060018060a01b0381541690600181015490600281015460038201546004830154600584015491600685015493600860ff60078801541696015496604051988952602089015260408801526060870152608086015260a085015260c0840152151560e0830152610100820152f35b346101bd5760003660031901126101bd5760206040516101c28152f35b346101bd5760203660031901126101bd5760043560005260046020526020604060002080549060018060a01b0360018201541660018060a01b03600283015416916003810154926103516102d460048401611a7a565b946103416102e460058601611a7a565b61033360068701549860ff6007890154169460088901549760ff600a60098c01549b0154169a6040519e8f9e8f908152015260408d015260608c015261016060808c01526101608b01906119f2565b9089820360a08b01526119f2565b9560c088015260e0870190611a33565b61010085015261012084015215156101408301520390f35b346101bd5760803660031901126101bd576103826118ab565b6024359081151582036101bd5760443580151581036101bd576064359182151583036101bd576103b0611fc5565b6001600160a01b031660009081526005602052604090209261040c575b6103f7575b6103e2575b600842910155600080f35b600681016103f08154611dc5565b90556103d7565b600582016104058154611dc5565b90556103d2565b6004830161041a8154611dc5565b90556103cd565b346101bd5760203660031901126101bd5760043580600052600460205261045960018060a01b03600160406000200154163314611b1e565b60008181526004602052604090206001015461047f906001600160a01b03161515611b78565b80600052600460205260ff600a604060002001541661058a5780600052600460205260086040600020015462093a8081018091116105745742116105255760008181526004602052604090206002810154600a8201805460ff19166001179055426009909201919091556001600160a01b0316906104fc82611dd4565b33907fcba1f68eabaac61fcaf42545ed99760691895ab3e492d427fbe2e9c4b8d4422e600080a4005b60405162461bcd60e51b815260206004820152602160248201527f43616e6e6f742064656c657465207265766965772061667465722037206461796044820152607360f81b6064820152608490fd5b634e487b7160e01b600052601160045260246000fd5b60405162461bcd60e51b815260206004820152601660248201527514995d9a595dc8185b1c9958591e4819195b195d195960521b6044820152606490fd5b346101bd5760403660031901126101bd5761060d6004356105e76118c1565b9061060861060382600052600060205260016040600020015490565b612037565b6120fd565b005b346101bd5760203660031901126101bd5760043560005260096020526020604060002054604051908152f35b346101bd5760403660031901126101bd576106546118ab565b6001600160a01b03166000908152600760205260409020805460243591908210156101bd57602091610685916119c4565b90549060031b1c604051908152f35b346101bd5760003660031901126101bd57602060405160018152f35b346101bd5760203660031901126101bd576106c96118ab565b60006101006040516106da816118f4565b8281528260208201528260408201528260608201528260808201528260a08201528260c08201528260e0820152015260018060a01b03166000526005602052610120604060002060405161072d816118f4565b60018060a01b03825416918282526001810154602083019081526002820154604084019081526003830154606085019081526004840154906080860191825260058501549260a0870193845260068601549460c08801958652610100600860ff60078a0154169860e08b019915158a52015498019788526040519889525160208901525160408801525160608701525160808601525160a08501525160c084015251151560e083015251610100820152f35b346101bd5760003660031901126101bd57602060405160008152f35b346101bd5760003660031901126101bd5760206040517f16ceee8289685dd2a02b9c8ae81d2df373176ce53519e6284e2a2950d6546ffa8152f35b346101bd5760203660031901126101bd57600435600061014060405161085b816118d7565b82815282602082015282604082015282606082015260606080820152606060a08201528260c08201528260e0820152826101008201528261012082015201528060005260046020526108be60018060a01b03600160406000200154161515611b78565b60005260046020526040806000208151906108d8826118d7565b8054825260018101546001600160a01b03908116602084019081526002830154909116848401908152600383015460608501908152919391928291610a02906109ef61092660048501611a7a565b608086019081526109dc61093c60058701611a7a565b9160a0880192835260068701549960c089019a8b5260ff6007890154169561096860e08b019788611d7f565b60ff600a60088b01549a6101008d019b8c5261012060098201549d019c8d520154169a61014081019b15158c528e519e8f9e8f926020845251602084015260018060a01b0390511691015260018060a01b0390511660608d01525160808c01525161016060a08c01526101808b01906119f2565b9051898203601f190160c08b01526119f2565b955160e088015251610100870190611a33565b51610120850152516101408401525115156101608301520390f35b346101bd5760003660031901126101bd57602060405160058152f35b346101bd5760403660031901126101bd57610a526118c1565b600435600052600060205260406000209060018060a01b0316600052602052602060ff604060002054166040519015158152f35b346101bd5760003660031901126101bd57610a9f611fc5565b610aa761217f565b600160ff1960025416176002557f62e78cea01bee320cd4e420270b5ea74000d11b0c9f74754ebdbfc544b05a2586020604051338152a1005b346101bd5760003660031901126101bd57602060405160fa8152f35b346101bd5760c03660031901126101bd57610b156118ab565b60243560443567ffffffffffffffff81116101bd57610b38903690600401611933565b9060643567ffffffffffffffff81116101bd57610b59903690600401611933565b9160843591600260a43510156101bd57600260015414611127576002600155610b8061217f565b60018110158061111c575b610b9490611bbc565b6001600160a01b038516933385146110de57610bb283511515611c08565b841561109957336000526008602052604060002085600052602052604060002054158015611064575b1561100c57600354926001840160035560405196610bf8886118d7565b848852846020890198338a526040810199898b52606082019a878c526080830186815260a0840188815260c08501918c835260e086019e8f60a435610c3c91611d7f565b426101008801818152610120890191825260006101408a018181529a815260046020819052604090912099518a55975160018a0180546001600160a01b03199081166001600160a01b0393841617909155975160028b018054909916911617909655905160038801559051805191958701919067ffffffffffffffff8211610f33578190610cca8454611a40565b601f8111610fb9575b50602090601f8311600114610f5457600092610f49575b50508160011b916000199060031b1c19161790555b518051600586019167ffffffffffffffff8211610f33578190610d228454611a40565b601f8111610ee0575b50602090601f8311600114610e7b57600092610e70575b50508160011b916000199060031b1c19161790555b516006840155600783019b519b60028d1015610e5a5760009c60ff198254169060ff16179055516008830155516009820155600a019051151560ff198254169060ff161790553388526006602052846040892090610db491611d8b565b8688526007602052846040892090610dcb91611d8b565b3388526008602052604088208789526020528460408920558588526009602052846040892055610dfa90611dd4565b604051928352602083016080905260808301610e15916119f2565b8281036040840152610e26916119f2565b926060820152803393037f9e76763611771f3afe7e3dd368fa69ffd4ca0e410affc556ce0d953ddf6ae4c791a46001805580f35b634e487b7160e01b600052602160045260246000fd5b015190503880610d42565b60008581528281209350601f198516905b818110610ec85750908460019594939210610eaf575b505050811b019055610d57565b015160001960f88460031b161c19169055388080610ea2565b92936020600181928786015181550195019301610e8c565b909150836000526020600020601f840160051c81019160208510610f29575b90601f859493920160051c01905b818110610f1a5750610d2b565b60008155849350600101610f0d565b9091508190610eff565b634e487b7160e01b600052604160045260246000fd5b015190503880610cea565b60008581528281209350601f198516905b818110610fa15750908460019594939210610f88575b505050811b019055610cff565b015160001960f88460031b161c19169055388080610f7b565b92936020600181928786015181550195019301610f65565b909150836000526020600020601f840160051c81019160208510611002575b90601f859493920160051c01905b818110610ff35750610cd3565b60008155849350600101610fe6565b9091508190610fd8565b60405162461bcd60e51b815260206004820152602a60248201527f416c72656164792072657669657765642074686973207573657220666f7220746044820152691a1a5cc81c995b9d185b60b21b6064820152608490fd5b503360005260086020526040600020856000526020526040600020546000526004602052836006604060002001541415610bdb565b60405162461bcd60e51b815260206004820152601860248201527f496e76616c6964207265766965776565206164647265737300000000000000006044820152606490fd5b60405162461bcd60e51b815260206004820152601660248201527521b0b73737ba103932bb34b2bb903cb7bab939b2b63360511b6044820152606490fd5b506005811115610b8b565b633ee5aeb560e01b60005260046000fd5b346101bd5760603660031901126101bd5760206111676111566118ab565b61115e6118c1565b60443591611cfc565b6040519015158152f35b346101bd5760003660031901126101bd5760206040517fa49807205ce4d355092ef5a8a18f56e8913cf4a201fbe287825b095693c217758152f35b346101bd5760003660031901126101bd57602060405160028152f35b346101bd5760003660031901126101bd57602060ff600254166040519015158152f35b346101bd5760203660031901126101bd576112046118ab565b61120c611fc5565b6001600160a01b0316600090815260056020526040902060078101805460ff1916600117905542600890910155005b346101bd5760203660031901126101bd5761126e61125a600435611c54565b6040519182916020835260208301906119f2565b0390f35b346101bd5760003660031901126101bd5761128b611fc5565b60025460ff8116156112ca5760ff19166002557f5db9ee0a495bf2e6ff9c91a7834c1ba4fdd244a5e8aa4e537bd38aeae4b073aa6020604051338152a1005b638dfc202b60e01b60005260046000fd5b346101bd5760403660031901126101bd576112f46118c1565b336001600160a01b038216036113105761060d906004356120fd565b63334bd91960e11b60005260046000fd5b346101bd5760403660031901126101bd5761060d6004356113406118c1565b9061135c61060382600052600060205260016040600020015490565b612072565b346101bd5760203660031901126101bd57602061138e600435600052600060205260016040600020015490565b604051908152f35b346101bd5760403660031901126101bd576113af6118ab565b6001600160a01b03166000908152600660205260409020805460243591908210156101bd57602091610685916119c4565b346101bd5760203660031901126101bd576001600160a01b036114016118ab565b166000526007602052604060002060405190816020825491828152019160005260206000209060005b81811061144d5761126e8561144181870382611911565b6040519182918261198a565b825484526020909301926001928301920161142a565b346101bd5760203660031901126101bd576001600160a01b036114846118ab565b166000526006602052604060002060405190816020825491828152019160005260206000209060005b8181106114c45761126e8561144181870382611911565b82548452602090930192600192830192016114ad565b346101bd5760603660031901126101bd5760243560043560443567ffffffffffffffff81116101bd57611511903690600401611933565b81600052600460205261153560018060a01b03600160406000200154163314611b1e565b60008281526004602052604090206001015461155b906001600160a01b03161515611b78565b6001831015806117fc575b61156f90611bbc565b81600052600460205260ff600a60406000200154166117c35761159481511515611c08565b81600052600460205260086040600020015462093a808101809111610574574211611774576000828152600460208190526040909120600281015460038201869055835195926001600160a01b03909116910167ffffffffffffffff8611610f33576116008154611a40565b601f811161172c575b50602095601f81116001146116a257908161167693927fe6bca0b1ae68aa3c3101325a30603b90848b1cb037d020c24548cc433db5e6619798600091611697575b508160011b916000199060031b1c19161790555b85600052600460205242600960406000200155611dd4565b61169260405192839283526040602084015260408301906119f2565b0390a2005b90508601518961164a565b601f19811682600052876000209060005b8181106117145750916001917fe6bca0b1ae68aa3c3101325a30603b90848b1cb037d020c24548cc433db5e661989982611676979695106116fb575b5050811b01905561165e565b88015160001960f88460031b161c1916905589806116ef565b878a015183556020998a0199600190930192016116b3565b816000526020600020601f880160051c8101916020891061176a575b601f0160051c01905b81811061175e5750611609565b60008155600101611751565b9091508190611748565b60405162461bcd60e51b815260206004820152602160248201527f43616e6e6f7420757064617465207265766965772061667465722037206461796044820152607360f81b6064820152608490fd5b60405162461bcd60e51b815260206004820152601160248201527014995d9a595dc81a5cc819195b195d1959607a1b6044820152606490fd5b506005831115611566565b346101bd5760403660031901126101bd576118206118ab565b6118286118c1565b6001600160a01b039182166000908152600860209081526040808320949093168252928352819020549051908152f35b346101bd5760203660031901126101bd576004359063ffffffff60e01b82168092036101bd57602091637965db0b60e01b811490811561189a575b5015158152f35b6301ffc9a760e01b14905083611893565b600435906001600160a01b03821682036101bd57565b602435906001600160a01b03821682036101bd57565b610160810190811067ffffffffffffffff821117610f3357604052565b610120810190811067ffffffffffffffff821117610f3357604052565b90601f8019910116810190811067ffffffffffffffff821117610f3357604052565b81601f820112156101bd5780359067ffffffffffffffff8211610f335760405192611968601f8401601f191660200185611911565b828452602083830101116101bd57816000926020809301838601378301015290565b602060408183019282815284518094520192019060005b8181106119ae5750505090565b82518452602093840193909201916001016119a1565b80548210156119dc5760005260206000200190600090565b634e487b7160e01b600052603260045260246000fd5b919082519283825260005b848110611a1e575050826000602080949584010152601f8019910116010190565b806020809284010151828286010152016119fd565b906002821015610e5a5752565b90600182811c92168015611a70575b6020831014611a5a57565b634e487b7160e01b600052602260045260246000fd5b91607f1691611a4f565b9060405191826000825492611a8e84611a40565b8084529360018116908115611afc5750600114611ab5575b50611ab392500383611911565b565b90506000929192526020600020906000915b818310611ae0575050906020611ab39282010138611aa6565b6020919350806001915483858901015201910190918492611ac7565b905060209250611ab394915060ff191682840152151560051b82010138611aa6565b15611b2557565b60405162461bcd60e51b815260206004820152602560248201527f4f6e6c792072657669657765722063616e20706572666f726d2074686973206160448201526431ba34b7b760d91b6064820152608490fd5b15611b7f57565b60405162461bcd60e51b815260206004820152601560248201527414995d9a595dc8191bd95cc81b9bdd08195e1a5cdd605a1b6044820152606490fd5b15611bc357565b60405162461bcd60e51b815260206004820152601e60248201527f526174696e67206d757374206265206265747765656e203120616e64203500006044820152606490fd5b15611c0f57565b60405162461bcd60e51b815260206004820152601b60248201527f52657669657720746578742063616e6e6f7420626520656d70747900000000006044820152606490fd5b6101c28110611c855750604051611c6c604082611911565b6009815268115e18d95b1b195b9d60ba1b602082015290565b61015e8110611cb15750604051611c9d604082611911565b600481526311dbdbd960e21b602082015290565b60fa11611cda57604051611cc6604082611911565b60048152632330b4b960e11b602082015290565b604051611ce8604082611911565b60048152632837b7b960e11b602082015290565b6001600160a01b039081169082168114611d7757806000526008602052604060002060018060a01b038316600052602052604060002054611d3f57505050600190565b600052600860205260406000209060018060a01b03166000526020526040600020546000526004602052600660406000200154141590565b505050600090565b6002821015610e5a5752565b805468010000000000000000811015610f3357611dad916001820181556119c4565b819291549060031b91821b91600019901b1916179055565b60001981146105745760010190565b6001600160a01b03166000818152600560205260408120909290918391825b826000526007602052604060002054811015611f0857826000526007602052611e208160406000206119c4565b90549060031b1c60005260046020526040600020604051611e40816118d7565b8154815260018201546001600160a01b03908116602083015260028301541660408201526003820154606082019081529160ff90600a90611e8360048201611a7a565b6080850152611e9460058201611a7a565b60a0850152600681015460c0850152611eb68360078301541660e08601611d7f565b6008810154610100850152600981015461012085015201541615906101408215910152611ee7575b50600101611df3565b9593909551810180911161057457611f0160019194611dc5565b9590611ede565b5093909290801580611f915783600284015581600184015560648402938085046064149015171561057457611f7b576003604092827f5b88a2e3fc1a53234357ab78c104df11c33ccfa79886793654565ad70b8afb6e9504828201555b42600882015501549082519182526020820152a2565b634e487b7160e01b600052601260045260246000fd5b507f5b88a2e3fc1a53234357ab78c104df11c33ccfa79886793654565ad70b8afb6e92506003826000826040950155611f65565b3360009081527f7d7ffb7a348e1c6a02869081a26547b49160dd3df72d1d75a570eb9b698292ec602052604090205460ff1615611ffe57565b63e2517d3f60e01b600052336004527fa49807205ce4d355092ef5a8a18f56e8913cf4a201fbe287825b095693c2177560245260446000fd5b60008181526020818152604080832033845290915290205460ff161561205a5750565b63e2517d3f60e01b6000523360045260245260446000fd5b6000818152602081815260408083206001600160a01b038616845290915290205460ff166120f6576000818152602081815260408083206001600160a01b0395909516808452949091528120805460ff19166001179055339291907f2f8788117e7eff1d82e926ec794901d17c78024a50270940304540a733656f0d9080a4600190565b5050600090565b6000818152602081815260408083206001600160a01b038616845290915290205460ff16156120f6576000818152602081815260408083206001600160a01b0395909516808452949091528120805460ff19169055339291907ff6391f5c32d9c69d2a47ea670b442974b53935d1edc7fd64eb21e047a839171b9080a4600190565b60ff6002541661218b57565b63d93c066560e01b60005260046000fdfea2646970667358221220534f586dc47dddbb21cc1d96a150ae766c9fbcf475c073adf5bfda6c3ac3e45d64736f6c634300081c00332f8788117e7eff1d82e926ec794901d17c78024a50270940304540a733656f0d7d7ffb7a348e1c6a02869081a26547b49160dd3df72d1d75a570eb9b698292ecad3228b676f7d3cd4284a5443f17f1962b36e491b30a40b2405849e597ba5fb5","opcodes":"PUSH1 0x80 PUSH1 0x40 MSTORE CALLVALUE PUSH2 0x30 JUMPI PUSH1 0x1 DUP1 SSTORE PUSH2 0x16 CALLER PUSH2 0x35 JUMP JUMPDEST POP PUSH2 0x20 CALLER PUSH2 0xB1 JUMP JUMPDEST POP PUSH1 0x40 MLOAD PUSH2 0x21D2 SWAP1 DUP2 PUSH2 0x14A DUP3 CODECOPY RETURN JUMPDEST PUSH1 0x0 DUP1 REVERT JUMPDEST PUSH1 0x1 PUSH1 0x1 PUSH1 0xA0 SHL SUB DUP2 AND PUSH1 0x0 SWAP1 DUP2 MSTORE PUSH1 0x0 DUP1 MLOAD PUSH1 0x20 PUSH2 0x235C DUP4 CODECOPY DUP2 MLOAD SWAP2 MSTORE PUSH1 0x20 MSTORE PUSH1 0x40 SWAP1 KECCAK256 SLOAD PUSH1 0xFF AND PUSH2 0xAB JUMPI PUSH1 0x1 PUSH1 0x1 PUSH1 0xA0 SHL SUB AND PUSH1 0x0 DUP2 DUP2 MSTORE PUSH1 0x0 DUP1 MLOAD PUSH1 0x20 PUSH2 0x235C DUP4 CODECOPY DUP2 MLOAD SWAP2 MSTORE PUSH1 0x20 MSTORE PUSH1 0x40 DUP2 KECCAK256 DUP1 SLOAD PUSH1 0xFF NOT AND PUSH1 0x1 OR SWAP1 SSTORE CALLER SWAP2 SWAP1 PUSH1 0x0 DUP1 MLOAD PUSH1 0x20 PUSH2 0x231C DUP4 CODECOPY DUP2 MLOAD SWAP2 MSTORE DUP2 DUP1 LOG4 PUSH1 0x1 SWAP1 JUMP JUMPDEST POP PUSH1 0x0 SWAP1 JUMP JUMPDEST PUSH1 0x1 PUSH1 0x1 PUSH1 0xA0 SHL SUB DUP2 AND PUSH1 0x0 SWAP1 DUP2 MSTORE PUSH1 0x0 DUP1 MLOAD PUSH1 0x20 PUSH2 0x233C DUP4 CODECOPY DUP2 MLOAD SWAP2 MSTORE PUSH1 0x20 MSTORE PUSH1 0x40 SWAP1 KECCAK256 SLOAD PUSH1 0xFF AND PUSH2 0xAB JUMPI PUSH1 0x1 PUSH1 0x1 PUSH1 0xA0 SHL SUB AND PUSH1 0x0 DUP2 DUP2 MSTORE PUSH1 0x0 DUP1 MLOAD PUSH1 0x20 PUSH2 0x233C DUP4 CODECOPY DUP2 MLOAD SWAP2 MSTORE PUSH1 0x20 MSTORE PUSH1 0x40 DUP2 KECCAK256 DUP1 SLOAD PUSH1 0xFF NOT AND PUSH1 0x1 OR SWAP1 SSTORE CALLER SWAP2 SWAP1 PUSH32 0xA49807205CE4D355092EF5A8A18F56E8913CF4A201FBE287825B095693C21775 SWAP1 PUSH1 0x0 DUP1 MLOAD PUSH1 0x20 PUSH2 0x231C DUP4 CODECOPY DUP2 MLOAD SWAP2 MSTORE SWAP1 DUP1 LOG4 PUSH1 0x1 SWAP1 JUMP INVALID PUSH1 0x80 DUP1 PUSH1 0x40 MSTORE PUSH1 0x4 CALLDATASIZE LT ISZERO PUSH2 0x13 JUMPI PUSH1 0x0 DUP1 REVERT JUMPDEST PUSH1 0x0 CALLDATALOAD PUSH1 0xE0 SHR SWAP1 DUP2 PUSH4 0x1FFC9A7 EQ PUSH2 0x1858 JUMPI POP DUP1 PUSH4 0x96D085B EQ PUSH2 0x1807 JUMPI DUP1 PUSH4 0x175A3B41 EQ PUSH2 0x14DA JUMPI DUP1 PUSH4 0x18D0E8B2 EQ PUSH2 0x1463 JUMPI DUP1 PUSH4 0x1CC76632 EQ PUSH2 0x13E0 JUMPI DUP1 PUSH4 0x1F4AC129 EQ PUSH2 0x1396 JUMPI DUP1 PUSH4 0x248A9CA3 EQ PUSH2 0x1361 JUMPI DUP1 PUSH4 0x2F2FF15D EQ PUSH2 0x1321 JUMPI DUP1 PUSH4 0x36568ABE EQ PUSH2 0x12DB JUMPI DUP1 PUSH4 0x3F4BA83A EQ PUSH2 0x1272 JUMPI DUP1 PUSH4 0x402BDA09 EQ PUSH2 0x123B JUMPI DUP1 PUSH4 0x4D813120 EQ PUSH2 0x11EB JUMPI DUP1 PUSH4 0x5C975ABB EQ PUSH2 0x11C8 JUMPI DUP1 PUSH4 0x73A469C6 EQ PUSH2 0x11AC JUMPI DUP1 PUSH4 0x75B238FC EQ PUSH2 0x1171 JUMPI DUP1 PUSH4 0x799EAD1A EQ PUSH2 0x1138 JUMPI DUP1 PUSH4 0x7D04470A EQ PUSH2 0xAFC JUMPI DUP1 PUSH4 0x7FFDECB2 EQ PUSH2 0xAE0 JUMPI DUP1 PUSH4 0x8456CB59 EQ PUSH2 0xA86 JUMPI DUP1 PUSH4 0x91D14854 EQ PUSH2 0xA39 JUMPI DUP1 PUSH4 0x94E113EA EQ PUSH2 0xA1D JUMPI DUP1 PUSH4 0x990581B6 EQ PUSH2 0x836 JUMPI DUP1 PUSH4 0x9CEA0787 EQ PUSH2 0x7FB JUMPI DUP1 PUSH4 0xA217FDDF EQ PUSH2 0x7DF JUMPI DUP1 PUSH4 0xBACCBFDB EQ PUSH2 0x6B0 JUMPI DUP1 PUSH4 0xBB0E4EA2 EQ PUSH2 0x694 JUMPI DUP1 PUSH4 0xCAE7BE33 EQ PUSH2 0x63B JUMPI DUP1 PUSH4 0xCFDB3882 EQ PUSH2 0x60F JUMPI DUP1 PUSH4 0xD547741F EQ PUSH2 0x5C8 JUMPI DUP1 PUSH4 0xD71E4890 EQ PUSH2 0x421 JUMPI DUP1 PUSH4 0xE47AAD6F EQ PUSH2 0x369 JUMPI DUP1 PUSH4 0xE83DDCEA EQ PUSH2 0x27E JUMPI DUP1 PUSH4 0xEFD67E53 EQ PUSH2 0x261 JUMPI DUP1 PUSH4 0xF8B11691 EQ PUSH2 0x1C2 JUMPI PUSH4 0xFB3B8BB6 EQ PUSH2 0x1A0 JUMPI PUSH1 0x0 DUP1 REVERT JUMPDEST CALLVALUE PUSH2 0x1BD JUMPI PUSH1 0x0 CALLDATASIZE PUSH1 0x3 NOT ADD SLT PUSH2 0x1BD JUMPI PUSH1 0x20 PUSH1 0x40 MLOAD PUSH2 0x15E DUP2 MSTORE RETURN JUMPDEST PUSH1 0x0 DUP1 REVERT JUMPDEST CALLVALUE PUSH2 0x1BD JUMPI PUSH1 0x20 CALLDATASIZE PUSH1 0x3 NOT ADD SLT PUSH2 0x1BD JUMPI PUSH1 0x1 PUSH1 0x1 PUSH1 0xA0 SHL SUB PUSH2 0x1E3 PUSH2 0x18AB JUMP JUMPDEST AND PUSH1 0x0 MSTORE PUSH1 0x5 PUSH1 0x20 MSTORE PUSH2 0x120 PUSH1 0x40 PUSH1 0x0 KECCAK256 PUSH1 0x1 DUP1 PUSH1 0xA0 SHL SUB DUP2 SLOAD AND SWAP1 PUSH1 0x1 DUP2 ADD SLOAD SWAP1 PUSH1 0x2 DUP2 ADD SLOAD PUSH1 0x3 DUP3 ADD SLOAD PUSH1 0x4 DUP4 ADD SLOAD PUSH1 0x5 DUP5 ADD SLOAD SWAP2 PUSH1 0x6 DUP6 ADD SLOAD SWAP4 PUSH1 0x8 PUSH1 0xFF PUSH1 0x7 DUP9 ADD SLOAD AND SWAP7 ADD SLOAD SWAP7 PUSH1 0x40 MLOAD SWAP9 DUP10 MSTORE PUSH1 0x20 DUP10 ADD MSTORE PUSH1 0x40 DUP9 ADD MSTORE PUSH1 0x60 DUP8 ADD MSTORE PUSH1 0x80 DUP7 ADD MSTORE PUSH1 0xA0 DUP6 ADD MSTORE PUSH1 0xC0 DUP5 ADD MSTORE ISZERO ISZERO PUSH1 0xE0 DUP4 ADD MSTORE PUSH2 0x100 DUP3 ADD MSTORE RETURN JUMPDEST CALLVALUE PUSH2 0x1BD JUMPI PUSH1 0x0 CALLDATASIZE PUSH1 0x3 NOT ADD SLT PUSH2 0x1BD JUMPI PUSH1 0x20 PUSH1 0x40 MLOAD PUSH2 0x1C2 DUP2 MSTORE RETURN JUMPDEST CALLVALUE PUSH2 0x1BD JUMPI PUSH1 0x20 CALLDATASIZE PUSH1 0x3 NOT ADD SLT PUSH2 0x1BD JUMPI PUSH1 0x4 CALLDATALOAD PUSH1 0x0 MSTORE PUSH1 0x4 PUSH1 0x20 MSTORE PUSH1 0x20 PUSH1 0x40 PUSH1 0x0 KECCAK256 DUP1 SLOAD SWAP1 PUSH1 0x1 DUP1 PUSH1 0xA0 SHL SUB PUSH1 0x1 DUP3 ADD SLOAD AND PUSH1 0x1 DUP1 PUSH1 0xA0 SHL SUB PUSH1 0x2 DUP4 ADD SLOAD AND SWAP2 PUSH1 0x3 DUP2 ADD SLOAD SWAP3 PUSH2 0x351 PUSH2 0x2D4 PUSH1 0x4 DUP5 ADD PUSH2 0x1A7A JUMP JUMPDEST SWAP5 PUSH2 0x341 PUSH2 0x2E4 PUSH1 0x5 DUP7 ADD PUSH2 0x1A7A JUMP JUMPDEST PUSH2 0x333 PUSH1 0x6 DUP8 ADD SLOAD SWAP9 PUSH1 0xFF PUSH1 0x7 DUP10 ADD SLOAD AND SWAP5 PUSH1 0x8 DUP10 ADD SLOAD SWAP8 PUSH1 0xFF PUSH1 0xA PUSH1 0x9 DUP13 ADD SLOAD SWAP12 ADD SLOAD AND SWAP11 PUSH1 0x40 MLOAD SWAP15 DUP16 SWAP15 DUP16 SWAP1 DUP2 MSTORE ADD MSTORE PUSH1 0x40 DUP14 ADD MSTORE PUSH1 0x60 DUP13 ADD MSTORE PUSH2 0x160 PUSH1 0x80 DUP13 ADD MSTORE PUSH2 0x160 DUP12 ADD SWAP1 PUSH2 0x19F2 JUMP JUMPDEST SWAP1 DUP10 DUP3 SUB PUSH1 0xA0 DUP12 ADD MSTORE PUSH2 0x19F2 JUMP JUMPDEST SWAP6 PUSH1 0xC0 DUP9 ADD MSTORE PUSH1 0xE0 DUP8 ADD SWAP1 PUSH2 0x1A33 JUMP JUMPDEST PUSH2 0x100 DUP6 ADD MSTORE PUSH2 0x120 DUP5 ADD MSTORE ISZERO ISZERO PUSH2 0x140 DUP4 ADD MSTORE SUB SWAP1 RETURN JUMPDEST CALLVALUE PUSH2 0x1BD JUMPI PUSH1 0x80 CALLDATASIZE PUSH1 0x3 NOT ADD SLT PUSH2 0x1BD JUMPI PUSH2 0x382 PUSH2 0x18AB JUMP JUMPDEST PUSH1 0x24 CALLDATALOAD SWAP1 DUP2 ISZERO ISZERO DUP3 SUB PUSH2 0x1BD JUMPI PUSH1 0x44 CALLDATALOAD DUP1 ISZERO ISZERO DUP2 SUB PUSH2 0x1BD JUMPI PUSH1 0x64 CALLDATALOAD SWAP2 DUP3 ISZERO ISZERO DUP4 SUB PUSH2 0x1BD JUMPI PUSH2 0x3B0 PUSH2 0x1FC5 JUMP JUMPDEST PUSH1 0x1 PUSH1 0x1 PUSH1 0xA0 SHL SUB AND PUSH1 0x0 SWAP1 DUP2 MSTORE PUSH1 0x5 PUSH1 0x20 MSTORE PUSH1 0x40 SWAP1 KECCAK256 SWAP3 PUSH2 0x40C JUMPI JUMPDEST PUSH2 0x3F7 JUMPI JUMPDEST PUSH2 0x3E2 JUMPI JUMPDEST PUSH1 0x8 TIMESTAMP SWAP2 ADD SSTORE PUSH1 0x0 DUP1 RETURN JUMPDEST PUSH1 0x6 DUP2 ADD PUSH2 0x3F0 DUP2 SLOAD PUSH2 0x1DC5 JUMP JUMPDEST SWAP1 SSTORE PUSH2 0x3D7 JUMP JUMPDEST PUSH1 0x5 DUP3 ADD PUSH2 0x405 DUP2 SLOAD PUSH2 0x1DC5 JUMP JUMPDEST SWAP1 SSTORE PUSH2 0x3D2 JUMP JUMPDEST PUSH1 0x4 DUP4 ADD PUSH2 0x41A DUP2 SLOAD PUSH2 0x1DC5 JUMP JUMPDEST SWAP1 SSTORE PUSH2 0x3CD JUMP JUMPDEST CALLVALUE PUSH2 0x1BD JUMPI PUSH1 0x20 CALLDATASIZE PUSH1 0x3 NOT ADD SLT PUSH2 0x1BD JUMPI PUSH1 0x4 CALLDATALOAD DUP1 PUSH1 0x0 MSTORE PUSH1 0x4 PUSH1 0x20 MSTORE PUSH2 0x459 PUSH1 0x1 DUP1 PUSH1 0xA0 SHL SUB PUSH1 0x1 PUSH1 0x40 PUSH1 0x0 KECCAK256 ADD SLOAD AND CALLER EQ PUSH2 0x1B1E JUMP JUMPDEST PUSH1 0x0 DUP2 DUP2 MSTORE PUSH1 0x4 PUSH1 0x20 MSTORE PUSH1 0x40 SWAP1 KECCAK256 PUSH1 0x1 ADD SLOAD PUSH2 0x47F SWAP1 PUSH1 0x1 PUSH1 0x1 PUSH1 0xA0 SHL SUB AND ISZERO ISZERO PUSH2 0x1B78 JUMP JUMPDEST DUP1 PUSH1 0x0 MSTORE PUSH1 0x4 PUSH1 0x20 MSTORE PUSH1 0xFF PUSH1 0xA PUSH1 0x40 PUSH1 0x0 KECCAK256 ADD SLOAD AND PUSH2 0x58A JUMPI DUP1 PUSH1 0x0 MSTORE PUSH1 0x4 PUSH1 0x20 MSTORE PUSH1 0x8 PUSH1 0x40 PUSH1 0x0 KECCAK256 ADD SLOAD PUSH3 0x93A80 DUP2 ADD DUP1 SWAP2 GT PUSH2 0x574 JUMPI TIMESTAMP GT PUSH2 0x525 JUMPI PUSH1 0x0 DUP2 DUP2 MSTORE PUSH1 0x4 PUSH1 0x20 MSTORE PUSH1 0x40 SWAP1 KECCAK256 PUSH1 0x2 DUP2 ADD SLOAD PUSH1 0xA DUP3 ADD DUP1 SLOAD PUSH1 0xFF NOT AND PUSH1 0x1 OR SWAP1 SSTORE TIMESTAMP PUSH1 0x9 SWAP1 SWAP3 ADD SWAP2 SWAP1 SWAP2 SSTORE PUSH1 0x1 PUSH1 0x1 PUSH1 0xA0 SHL SUB AND SWAP1 PUSH2 0x4FC DUP3 PUSH2 0x1DD4 JUMP JUMPDEST CALLER SWAP1 PUSH32 0xCBA1F68EABAAC61FCAF42545ED99760691895AB3E492D427FBE2E9C4B8D4422E PUSH1 0x0 DUP1 LOG4 STOP JUMPDEST PUSH1 0x40 MLOAD PUSH3 0x461BCD PUSH1 0xE5 SHL DUP2 MSTORE PUSH1 0x20 PUSH1 0x4 DUP3 ADD MSTORE PUSH1 0x21 PUSH1 0x24 DUP3 ADD MSTORE PUSH32 0x43616E6E6F742064656C65746520726576696577206166746572203720646179 PUSH1 0x44 DUP3 ADD MSTORE PUSH1 0x73 PUSH1 0xF8 SHL PUSH1 0x64 DUP3 ADD MSTORE PUSH1 0x84 SWAP1 REVERT JUMPDEST PUSH4 0x4E487B71 PUSH1 0xE0 SHL PUSH1 0x0 MSTORE PUSH1 0x11 PUSH1 0x4 MSTORE PUSH1 0x24 PUSH1 0x0 REVERT JUMPDEST PUSH1 0x40 MLOAD PUSH3 0x461BCD PUSH1 0xE5 SHL DUP2 MSTORE PUSH1 0x20 PUSH1 0x4 DUP3 ADD MSTORE PUSH1 0x16 PUSH1 0x24 DUP3 ADD MSTORE PUSH22 0x14995D9A595DC8185B1C9958591E4819195B195D1959 PUSH1 0x52 SHL PUSH1 0x44 DUP3 ADD MSTORE PUSH1 0x64 SWAP1 REVERT JUMPDEST CALLVALUE PUSH2 0x1BD JUMPI PUSH1 0x40 CALLDATASIZE PUSH1 0x3 NOT ADD SLT PUSH2 0x1BD JUMPI PUSH2 0x60D PUSH1 0x4 CALLDATALOAD PUSH2 0x5E7 PUSH2 0x18C1 JUMP JUMPDEST SWAP1 PUSH2 0x608 PUSH2 0x603 DUP3 PUSH1 0x0 MSTORE PUSH1 0x0 PUSH1 0x20 MSTORE PUSH1 0x1 PUSH1 0x40 PUSH1 0x0 KECCAK256 ADD SLOAD SWAP1 JUMP JUMPDEST PUSH2 0x2037 JUMP JUMPDEST PUSH2 0x20FD JUMP JUMPDEST STOP JUMPDEST CALLVALUE PUSH2 0x1BD JUMPI PUSH1 0x20 CALLDATASIZE PUSH1 0x3 NOT ADD SLT PUSH2 0x1BD JUMPI PUSH1 0x4 CALLDATALOAD PUSH1 0x0 MSTORE PUSH1 0x9 PUSH1 0x20 MSTORE PUSH1 0x20 PUSH1 0x40 PUSH1 0x0 KECCAK256 SLOAD PUSH1 0x40 MLOAD SWAP1 DUP2 MSTORE RETURN JUMPDEST CALLVALUE PUSH2 0x1BD JUMPI PUSH1 0x40 CALLDATASIZE PUSH1 0x3 NOT ADD SLT PUSH2 0x1BD JUMPI PUSH2 0x654 PUSH2 0x18AB JUMP JUMPDEST PUSH1 0x1 PUSH1 0x1 PUSH1 0xA0 SHL SUB AND PUSH1 0x0 SWAP1 DUP2 MSTORE PUSH1 0x7 PUSH1 0x20 MSTORE PUSH1 0x40 SWAP1 KECCAK256 DUP1 SLOAD PUSH1 0x24 CALLDATALOAD SWAP2 SWAP1 DUP3 LT ISZERO PUSH2 0x1BD JUMPI PUSH1 0x20 SWAP2 PUSH2 0x685 SWAP2 PUSH2 0x19C4 JUMP JUMPDEST SWAP1 SLOAD SWAP1 PUSH1 0x3 SHL SHR PUSH1 0x40 MLOAD SWAP1 DUP2 MSTORE RETURN JUMPDEST CALLVALUE PUSH2 0x1BD JUMPI PUSH1 0x0 CALLDATASIZE PUSH1 0x3 NOT ADD SLT PUSH2 0x1BD JUMPI PUSH1 0x20 PUSH1 0x40 MLOAD PUSH1 0x1 DUP2 MSTORE RETURN JUMPDEST CALLVALUE PUSH2 0x1BD JUMPI PUSH1 0x20 CALLDATASIZE PUSH1 0x3 NOT ADD SLT PUSH2 0x1BD JUMPI PUSH2 0x6C9 PUSH2 0x18AB JUMP JUMPDEST PUSH1 0x0 PUSH2 0x100 PUSH1 0x40 MLOAD PUSH2 0x6DA DUP2 PUSH2 0x18F4 JUMP JUMPDEST DUP3 DUP2 MSTORE DUP3 PUSH1 0x20 DUP3 ADD MSTORE DUP3 PUSH1 0x40 DUP3 ADD MSTORE DUP3 PUSH1 0x60 DUP3 ADD MSTORE DUP3 PUSH1 0x80 DUP3 ADD MSTORE DUP3 PUSH1 0xA0 DUP3 ADD MSTORE DUP3 PUSH1 0xC0 DUP3 ADD MSTORE DUP3 PUSH1 0xE0 DUP3 ADD MSTORE ADD MSTORE PUSH1 0x1 DUP1 PUSH1 0xA0 SHL SUB AND PUSH1 0x0 MSTORE PUSH1 0x5 PUSH1 0x20 MSTORE PUSH2 0x120 PUSH1 0x40 PUSH1 0x0 KECCAK256 PUSH1 0x40 MLOAD PUSH2 0x72D DUP2 PUSH2 0x18F4 JUMP JUMPDEST PUSH1 0x1 DUP1 PUSH1 0xA0 SHL SUB DUP3 SLOAD AND SWAP2 DUP3 DUP3 MSTORE PUSH1 0x1 DUP2 ADD SLOAD PUSH1 0x20 DUP4 ADD SWAP1 DUP2 MSTORE PUSH1 0x2 DUP3 ADD SLOAD PUSH1 0x40 DUP5 ADD SWAP1 DUP2 MSTORE PUSH1 0x3 DUP4 ADD SLOAD PUSH1 0x60 DUP6 ADD SWAP1 DUP2 MSTORE PUSH1 0x4 DUP5 ADD SLOAD SWAP1 PUSH1 0x80 DUP7 ADD SWAP2 DUP3 MSTORE PUSH1 0x5 DUP6 ADD SLOAD SWAP3 PUSH1 0xA0 DUP8 ADD SWAP4 DUP5 MSTORE PUSH1 0x6 DUP7 ADD SLOAD SWAP5 PUSH1 0xC0 DUP9 ADD SWAP6 DUP7 MSTORE PUSH2 0x100 PUSH1 0x8 PUSH1 0xFF PUSH1 0x7 DUP11 ADD SLOAD AND SWAP9 PUSH1 0xE0 DUP12 ADD SWAP10 ISZERO ISZERO DUP11 MSTORE ADD SLOAD SWAP9 ADD SWAP8 DUP9 MSTORE PUSH1 0x40 MLOAD SWAP9 DUP10 MSTORE MLOAD PUSH1 0x20 DUP10 ADD MSTORE MLOAD PUSH1 0x40 DUP9 ADD MSTORE MLOAD PUSH1 0x60 DUP8 ADD MSTORE MLOAD PUSH1 0x80 DUP7 ADD MSTORE MLOAD PUSH1 0xA0 DUP6 ADD MSTORE MLOAD PUSH1 0xC0 DUP5 ADD MSTORE MLOAD ISZERO ISZERO PUSH1 0xE0 DUP4 ADD MSTORE MLOAD PUSH2 0x100 DUP3 ADD MSTORE RETURN JUMPDEST CALLVALUE PUSH2 0x1BD JUMPI PUSH1 0x0 CALLDATASIZE PUSH1 0x3 NOT ADD SLT PUSH2 0x1BD JUMPI PUSH1 0x20 PUSH1 0x40 MLOAD PUSH1 0x0 DUP2 MSTORE RETURN JUMPDEST CALLVALUE PUSH2 0x1BD JUMPI PUSH1 0x0 CALLDATASIZE PUSH1 0x3 NOT ADD SLT PUSH2 0x1BD JUMPI PUSH1 0x20 PUSH1 0x40 MLOAD PUSH32 0x16CEEE8289685DD2A02B9C8AE81D2DF373176CE53519E6284E2A2950D6546FFA DUP2 MSTORE RETURN JUMPDEST CALLVALUE PUSH2 0x1BD JUMPI PUSH1 0x20 CALLDATASIZE PUSH1 0x3 NOT ADD SLT PUSH2 0x1BD JUMPI PUSH1 0x4 CALLDATALOAD PUSH1 0x0 PUSH2 0x140 PUSH1 0x40 MLOAD PUSH2 0x85B DUP2 PUSH2 0x18D7 JUMP JUMPDEST DUP3 DUP2 MSTORE DUP3 PUSH1 0x20 DUP3 ADD MSTORE DUP3 PUSH1 0x40 DUP3 ADD MSTORE DUP3 PUSH1 0x60 DUP3 ADD MSTORE PUSH1 0x60 PUSH1 0x80 DUP3 ADD MSTORE PUSH1 0x60 PUSH1 0xA0 DUP3 ADD MSTORE DUP3 PUSH1 0xC0 DUP3 ADD MSTORE DUP3 PUSH1 0xE0 DUP3 ADD MSTORE DUP3 PUSH2 0x100 DUP3 ADD MSTORE DUP3 PUSH2 0x120 DUP3 ADD MSTORE ADD MSTORE DUP1 PUSH1 0x0 MSTORE PUSH1 0x4 PUSH1 0x20 MSTORE PUSH2 0x8BE PUSH1 0x1 DUP1 PUSH1 0xA0 SHL SUB PUSH1 0x1 PUSH1 0x40 PUSH1 0x0 KECCAK256 ADD SLOAD AND ISZERO ISZERO PUSH2 0x1B78 JUMP JUMPDEST PUSH1 0x0 MSTORE PUSH1 0x4 PUSH1 0x20 MSTORE PUSH1 0x40 DUP1 PUSH1 0x0 KECCAK256 DUP2 MLOAD SWAP1 PUSH2 0x8D8 DUP3 PUSH2 0x18D7 JUMP JUMPDEST DUP1 SLOAD DUP3 MSTORE PUSH1 0x1 DUP2 ADD SLOAD PUSH1 0x1 PUSH1 0x1 PUSH1 0xA0 SHL SUB SWAP1 DUP2 AND PUSH1 0x20 DUP5 ADD SWAP1 DUP2 MSTORE PUSH1 0x2 DUP4 ADD SLOAD SWAP1 SWAP2 AND DUP5 DUP5 ADD SWAP1 DUP2 MSTORE PUSH1 0x3 DUP4 ADD SLOAD PUSH1 0x60 DUP6 ADD SWAP1 DUP2 MSTORE SWAP2 SWAP4 SWAP2 SWAP3 DUP3 SWAP2 PUSH2 0xA02 SWAP1 PUSH2 0x9EF PUSH2 0x926 PUSH1 0x4 DUP6 ADD PUSH2 0x1A7A JUMP JUMPDEST PUSH1 0x80 DUP7 ADD SWAP1 DUP2 MSTORE PUSH2 0x9DC PUSH2 0x93C PUSH1 0x5 DUP8 ADD PUSH2 0x1A7A JUMP JUMPDEST SWAP2 PUSH1 0xA0 DUP9 ADD SWAP3 DUP4 MSTORE PUSH1 0x6 DUP8 ADD SLOAD SWAP10 PUSH1 0xC0 DUP10 ADD SWAP11 DUP12 MSTORE PUSH1 0xFF PUSH1 0x7 DUP10 ADD SLOAD AND SWAP6 PUSH2 0x968 PUSH1 0xE0 DUP12 ADD SWAP8 DUP9 PUSH2 0x1D7F JUMP JUMPDEST PUSH1 0xFF PUSH1 0xA PUSH1 0x8 DUP12 ADD SLOAD SWAP11 PUSH2 0x100 DUP14 ADD SWAP12 DUP13 MSTORE PUSH2 0x120 PUSH1 0x9 DUP3 ADD SLOAD SWAP14 ADD SWAP13 DUP14 MSTORE ADD SLOAD AND SWAP11 PUSH2 0x140 DUP2 ADD SWAP12 ISZERO ISZERO DUP13 MSTORE DUP15 MLOAD SWAP15 DUP16 SWAP15 DUP16 SWAP3 PUSH1 0x20 DUP5 MSTORE MLOAD PUSH1 0x20 DUP5 ADD MSTORE PUSH1 0x1 DUP1 PUSH1 0xA0 SHL SUB SWAP1 MLOAD AND SWAP2 ADD MSTORE PUSH1 0x1 DUP1 PUSH1 0xA0 SHL SUB SWAP1 MLOAD AND PUSH1 0x60 DUP14 ADD MSTORE MLOAD PUSH1 0x80 DUP13 ADD MSTORE MLOAD PUSH2 0x160 PUSH1 0xA0 DUP13 ADD MSTORE PUSH2 0x180 DUP12 ADD SWAP1 PUSH2 0x19F2 JUMP JUMPDEST SWAP1 MLOAD DUP10 DUP3 SUB PUSH1 0x1F NOT ADD PUSH1 0xC0 DUP12 ADD MSTORE PUSH2 0x19F2 JUMP JUMPDEST SWAP6 MLOAD PUSH1 0xE0 DUP9 ADD MSTORE MLOAD PUSH2 0x100 DUP8 ADD SWAP1 PUSH2 0x1A33 JUMP JUMPDEST MLOAD PUSH2 0x120 DUP6 ADD MSTORE MLOAD PUSH2 0x140 DUP5 ADD MSTORE MLOAD ISZERO ISZERO PUSH2 0x160 DUP4 ADD MSTORE SUB SWAP1 RETURN JUMPDEST CALLVALUE PUSH2 0x1BD JUMPI PUSH1 0x0 CALLDATASIZE PUSH1 0x3 NOT ADD SLT PUSH2 0x1BD JUMPI PUSH1 0x20 PUSH1 0x40 MLOAD PUSH1 0x5 DUP2 MSTORE RETURN JUMPDEST CALLVALUE PUSH2 0x1BD JUMPI PUSH1 0x40 CALLDATASIZE PUSH1 0x3 NOT ADD SLT PUSH2 0x1BD JUMPI PUSH2 0xA52 PUSH2 0x18C1 JUMP JUMPDEST PUSH1 0x4 CALLDATALOAD PUSH1 0x0 MSTORE PUSH1 0x0 PUSH1 0x20 MSTORE PUSH1 0x40 PUSH1 0x0 KECCAK256 SWAP1 PUSH1 0x1 DUP1 PUSH1 0xA0 SHL SUB AND PUSH1 0x0 MSTORE PUSH1 0x20 MSTORE PUSH1 0x20 PUSH1 0xFF PUSH1 0x40 PUSH1 0x0 KECCAK256 SLOAD AND PUSH1 0x40 MLOAD SWAP1 ISZERO ISZERO DUP2 MSTORE RETURN JUMPDEST CALLVALUE PUSH2 0x1BD JUMPI PUSH1 0x0 CALLDATASIZE PUSH1 0x3 NOT ADD SLT PUSH2 0x1BD JUMPI PUSH2 0xA9F PUSH2 0x1FC5 JUMP JUMPDEST PUSH2 0xAA7 PUSH2 0x217F JUMP JUMPDEST PUSH1 0x1 PUSH1 0xFF NOT PUSH1 0x2 SLOAD AND OR PUSH1 0x2 SSTORE PUSH32 0x62E78CEA01BEE320CD4E420270B5EA74000D11B0C9F74754EBDBFC544B05A258 PUSH1 0x20 PUSH1 0x40 MLOAD CALLER DUP2 MSTORE LOG1 STOP JUMPDEST CALLVALUE PUSH2 0x1BD JUMPI PUSH1 0x0 CALLDATASIZE PUSH1 0x3 NOT ADD SLT PUSH2 0x1BD JUMPI PUSH1 0x20 PUSH1 0x40 MLOAD PUSH1 0xFA DUP2 MSTORE RETURN JUMPDEST CALLVALUE PUSH2 0x1BD JUMPI PUSH1 0xC0 CALLDATASIZE PUSH1 0x3 NOT ADD SLT PUSH2 0x1BD JUMPI PUSH2 0xB15 PUSH2 0x18AB JUMP JUMPDEST PUSH1 0x24 CALLDATALOAD PUSH1 0x44 CALLDATALOAD PUSH8 0xFFFFFFFFFFFFFFFF DUP2 GT PUSH2 0x1BD JUMPI PUSH2 0xB38 SWAP1 CALLDATASIZE SWAP1 PUSH1 0x4 ADD PUSH2 0x1933 JUMP JUMPDEST SWAP1 PUSH1 0x64 CALLDATALOAD PUSH8 0xFFFFFFFFFFFFFFFF DUP2 GT PUSH2 0x1BD JUMPI PUSH2 0xB59 SWAP1 CALLDATASIZE SWAP1 PUSH1 0x4 ADD PUSH2 0x1933 JUMP JUMPDEST SWAP2 PUSH1 0x84 CALLDATALOAD SWAP2 PUSH1 0x2 PUSH1 0xA4 CALLDATALOAD LT ISZERO PUSH2 0x1BD JUMPI PUSH1 0x2 PUSH1 0x1 SLOAD EQ PUSH2 0x1127 JUMPI PUSH1 0x2 PUSH1 0x1 SSTORE PUSH2 0xB80 PUSH2 0x217F JUMP JUMPDEST PUSH1 0x1 DUP2 LT ISZERO DUP1 PUSH2 0x111C JUMPI JUMPDEST PUSH2 0xB94 SWAP1 PUSH2 0x1BBC JUMP JUMPDEST PUSH1 0x1 PUSH1 0x1 PUSH1 0xA0 SHL SUB DUP6 AND SWAP4 CALLER DUP6 EQ PUSH2 0x10DE JUMPI PUSH2 0xBB2 DUP4 MLOAD ISZERO ISZERO PUSH2 0x1C08 JUMP JUMPDEST DUP5 ISZERO PUSH2 0x1099 JUMPI CALLER PUSH1 0x0 MSTORE PUSH1 0x8 PUSH1 0x20 MSTORE PUSH1 0x40 PUSH1 0x0 KECCAK256 DUP6 PUSH1 0x0 MSTORE PUSH1 0x20 MSTORE PUSH1 0x40 PUSH1 0x0 KECCAK256 SLOAD ISZERO DUP1 ISZERO PUSH2 0x1064 JUMPI JUMPDEST ISZERO PUSH2 0x100C JUMPI PUSH1 0x3 SLOAD SWAP3 PUSH1 0x1 DUP5 ADD PUSH1 0x3 SSTORE PUSH1 0x40 MLOAD SWAP7 PUSH2 0xBF8 DUP9 PUSH2 0x18D7 JUMP JUMPDEST DUP5 DUP9 MSTORE DUP5 PUSH1 0x20 DUP10 ADD SWAP9 CALLER DUP11 MSTORE PUSH1 0x40 DUP2 ADD SWAP10 DUP10 DUP12 MSTORE PUSH1 0x60 DUP3 ADD SWAP11 DUP8 DUP13 MSTORE PUSH1 0x80 DUP4 ADD DUP7 DUP2 MSTORE PUSH1 0xA0 DUP5 ADD DUP9 DUP2 MSTORE PUSH1 0xC0 DUP6 ADD SWAP2 DUP13 DUP4 MSTORE PUSH1 0xE0 DUP7 ADD SWAP15 DUP16 PUSH1 0xA4 CALLDATALOAD PUSH2 0xC3C SWAP2 PUSH2 0x1D7F JUMP JUMPDEST TIMESTAMP PUSH2 0x100 DUP9 ADD DUP2 DUP2 MSTORE PUSH2 0x120 DUP10 ADD SWAP2 DUP3 MSTORE PUSH1 0x0 PUSH2 0x140 DUP11 ADD DUP2 DUP2 MSTORE SWAP11 DUP2 MSTORE PUSH1 0x4 PUSH1 0x20 DUP2 SWAP1 MSTORE PUSH1 0x40 SWAP1 SWAP2 KECCAK256 SWAP10 MLOAD DUP11 SSTORE SWAP8 MLOAD PUSH1 0x1 DUP11 ADD DUP1 SLOAD PUSH1 0x1 PUSH1 0x1 PUSH1 0xA0 SHL SUB NOT SWAP1 DUP2 AND PUSH1 0x1 PUSH1 0x1 PUSH1 0xA0 SHL SUB SWAP4 DUP5 AND OR SWAP1 SWAP2 SSTORE SWAP8 MLOAD PUSH1 0x2 DUP12 ADD DUP1 SLOAD SWAP1 SWAP10 AND SWAP2 AND OR SWAP1 SWAP7 SSTORE SWAP1 MLOAD PUSH1 0x3 DUP9 ADD SSTORE SWAP1 MLOAD DUP1 MLOAD SWAP2 SWAP6 DUP8 ADD SWAP2 SWAP1 PUSH8 0xFFFFFFFFFFFFFFFF DUP3 GT PUSH2 0xF33 JUMPI DUP2 SWAP1 PUSH2 0xCCA DUP5 SLOAD PUSH2 0x1A40 JUMP JUMPDEST PUSH1 0x1F DUP2 GT PUSH2 0xFB9 JUMPI JUMPDEST POP PUSH1 0x20 SWAP1 PUSH1 0x1F DUP4 GT PUSH1 0x1 EQ PUSH2 0xF54 JUMPI PUSH1 0x0 SWAP3 PUSH2 0xF49 JUMPI JUMPDEST POP POP DUP2 PUSH1 0x1 SHL SWAP2 PUSH1 0x0 NOT SWAP1 PUSH1 0x3 SHL SHR NOT AND OR SWAP1 SSTORE JUMPDEST MLOAD DUP1 MLOAD PUSH1 0x5 DUP7 ADD SWAP2 PUSH8 0xFFFFFFFFFFFFFFFF DUP3 GT PUSH2 0xF33 JUMPI DUP2 SWAP1 PUSH2 0xD22 DUP5 SLOAD PUSH2 0x1A40 JUMP JUMPDEST PUSH1 0x1F DUP2 GT PUSH2 0xEE0 JUMPI JUMPDEST POP PUSH1 0x20 SWAP1 PUSH1 0x1F DUP4 GT PUSH1 0x1 EQ PUSH2 0xE7B JUMPI PUSH1 0x0 SWAP3 PUSH2 0xE70 JUMPI JUMPDEST POP POP DUP2 PUSH1 0x1 SHL SWAP2 PUSH1 0x0 NOT SWAP1 PUSH1 0x3 SHL SHR NOT AND OR SWAP1 SSTORE JUMPDEST MLOAD PUSH1 0x6 DUP5 ADD SSTORE PUSH1 0x7 DUP4 ADD SWAP12 MLOAD SWAP12 PUSH1 0x2 DUP14 LT ISZERO PUSH2 0xE5A JUMPI PUSH1 0x0 SWAP13 PUSH1 0xFF NOT DUP3 SLOAD AND SWAP1 PUSH1 0xFF AND OR SWAP1 SSTORE MLOAD PUSH1 0x8 DUP4 ADD SSTORE MLOAD PUSH1 0x9 DUP3 ADD SSTORE PUSH1 0xA ADD SWAP1 MLOAD ISZERO ISZERO PUSH1 0xFF NOT DUP3 SLOAD AND SWAP1 PUSH1 0xFF AND OR SWAP1 SSTORE CALLER DUP9 MSTORE PUSH1 0x6 PUSH1 0x20 MSTORE DUP5 PUSH1 0x40 DUP10 KECCAK256 SWAP1 PUSH2 0xDB4 SWAP2 PUSH2 0x1D8B JUMP JUMPDEST DUP7 DUP9 MSTORE PUSH1 0x7 PUSH1 0x20 MSTORE DUP5 PUSH1 0x40 DUP10 KECCAK256 SWAP1 PUSH2 0xDCB SWAP2 PUSH2 0x1D8B JUMP JUMPDEST CALLER DUP9 MSTORE PUSH1 0x8 PUSH1 0x20 MSTORE PUSH1 0x40 DUP9 KECCAK256 DUP8 DUP10 MSTORE PUSH1 0x20 MSTORE DUP5 PUSH1 0x40 DUP10 KECCAK256 SSTORE DUP6 DUP9 MSTORE PUSH1 0x9 PUSH1 0x20 MSTORE DUP5 PUSH1 0x40 DUP10 KECCAK256 SSTORE PUSH2 0xDFA SWAP1 PUSH2 0x1DD4 JUMP JUMPDEST PUSH1 0x40 MLOAD SWAP3 DUP4 MSTORE PUSH1 0x20 DUP4 ADD PUSH1 0x80 SWAP1 MSTORE PUSH1 0x80 DUP4 ADD PUSH2 0xE15 SWAP2 PUSH2 0x19F2 JUMP JUMPDEST DUP3 DUP2 SUB PUSH1 0x40 DUP5 ADD MSTORE PUSH2 0xE26 SWAP2 PUSH2 0x19F2 JUMP JUMPDEST SWAP3 PUSH1 0x60 DUP3 ADD MSTORE DUP1 CALLER SWAP4 SUB PUSH32 0x9E76763611771F3AFE7E3DD368FA69FFD4CA0E410AFFC556CE0D953DDF6AE4C7 SWAP2 LOG4 PUSH1 0x1 DUP1 SSTORE DUP1 RETURN JUMPDEST PUSH4 0x4E487B71 PUSH1 0xE0 SHL PUSH1 0x0 MSTORE PUSH1 0x21 PUSH1 0x4 MSTORE PUSH1 0x24 PUSH1 0x0 REVERT JUMPDEST ADD MLOAD SWAP1 POP CODESIZE DUP1 PUSH2 0xD42 JUMP JUMPDEST PUSH1 0x0 DUP6 DUP2 MSTORE DUP3 DUP2 KECCAK256 SWAP4 POP PUSH1 0x1F NOT DUP6 AND SWAP1 JUMPDEST DUP2 DUP2 LT PUSH2 0xEC8 JUMPI POP SWAP1 DUP5 PUSH1 0x1 SWAP6 SWAP5 SWAP4 SWAP3 LT PUSH2 0xEAF JUMPI JUMPDEST POP POP POP DUP2 SHL ADD SWAP1 SSTORE PUSH2 0xD57 JUMP JUMPDEST ADD MLOAD PUSH1 0x0 NOT PUSH1 0xF8 DUP5 PUSH1 0x3 SHL AND SHR NOT AND SWAP1 SSTORE CODESIZE DUP1 DUP1 PUSH2 0xEA2 JUMP JUMPDEST SWAP3 SWAP4 PUSH1 0x20 PUSH1 0x1 DUP2 SWAP3 DUP8 DUP7 ADD MLOAD DUP2 SSTORE ADD SWAP6 ADD SWAP4 ADD PUSH2 0xE8C JUMP JUMPDEST SWAP1 SWAP2 POP DUP4 PUSH1 0x0 MSTORE PUSH1 0x20 PUSH1 0x0 KECCAK256 PUSH1 0x1F DUP5 ADD PUSH1 0x5 SHR DUP2 ADD SWAP2 PUSH1 0x20 DUP6 LT PUSH2 0xF29 JUMPI JUMPDEST SWAP1 PUSH1 0x1F DUP6 SWAP5 SWAP4 SWAP3 ADD PUSH1 0x5 SHR ADD SWAP1 JUMPDEST DUP2 DUP2 LT PUSH2 0xF1A JUMPI POP PUSH2 0xD2B JUMP JUMPDEST PUSH1 0x0 DUP2 SSTORE DUP5 SWAP4 POP PUSH1 0x1 ADD PUSH2 0xF0D JUMP JUMPDEST SWAP1 SWAP2 POP DUP2 SWAP1 PUSH2 0xEFF JUMP JUMPDEST PUSH4 0x4E487B71 PUSH1 0xE0 SHL PUSH1 0x0 MSTORE PUSH1 0x41 PUSH1 0x4 MSTORE PUSH1 0x24 PUSH1 0x0 REVERT JUMPDEST ADD MLOAD SWAP1 POP CODESIZE DUP1 PUSH2 0xCEA JUMP JUMPDEST PUSH1 0x0 DUP6 DUP2 MSTORE DUP3 DUP2 KECCAK256 SWAP4 POP PUSH1 0x1F NOT DUP6 AND SWAP1 JUMPDEST DUP2 DUP2 LT PUSH2 0xFA1 JUMPI POP SWAP1 DUP5 PUSH1 0x1 SWAP6 SWAP5 SWAP4 SWAP3 LT PUSH2 0xF88 JUMPI JUMPDEST POP POP POP DUP2 SHL ADD SWAP1 SSTORE PUSH2 0xCFF JUMP JUMPDEST ADD MLOAD PUSH1 0x0 NOT PUSH1 0xF8 DUP5 PUSH1 0x3 SHL AND SHR NOT AND SWAP1 SSTORE CODESIZE DUP1 DUP1 PUSH2 0xF7B JUMP JUMPDEST SWAP3 SWAP4 PUSH1 0x20 PUSH1 0x1 DUP2 SWAP3 DUP8 DUP7 ADD MLOAD DUP2 SSTORE ADD SWAP6 ADD SWAP4 ADD PUSH2 0xF65 JUMP JUMPDEST SWAP1 SWAP2 POP DUP4 PUSH1 0x0 MSTORE PUSH1 0x20 PUSH1 0x0 KECCAK256 PUSH1 0x1F DUP5 ADD PUSH1 0x5 SHR DUP2 ADD SWAP2 PUSH1 0x20 DUP6 LT PUSH2 0x1002 JUMPI JUMPDEST SWAP1 PUSH1 0x1F DUP6 SWAP5 SWAP4 SWAP3 ADD PUSH1 0x5 SHR ADD SWAP1 JUMPDEST DUP2 DUP2 LT PUSH2 0xFF3 JUMPI POP PUSH2 0xCD3 JUMP JUMPDEST PUSH1 0x0 DUP2 SSTORE DUP5 SWAP4 POP PUSH1 0x1 ADD PUSH2 0xFE6 JUMP JUMPDEST SWAP1 SWAP2 POP DUP2 SWAP1 PUSH2 0xFD8 JUMP JUMPDEST PUSH1 0x40 MLOAD PUSH3 0x461BCD PUSH1 0xE5 SHL DUP2 MSTORE PUSH1 0x20 PUSH1 0x4 DUP3 ADD MSTORE PUSH1 0x2A PUSH1 0x24 DUP3 ADD MSTORE PUSH32 0x416C72656164792072657669657765642074686973207573657220666F722074 PUSH1 0x44 DUP3 ADD MSTORE PUSH10 0x1A1A5CC81C995B9D185B PUSH1 0xB2 SHL PUSH1 0x64 DUP3 ADD MSTORE PUSH1 0x84 SWAP1 REVERT JUMPDEST POP CALLER PUSH1 0x0 MSTORE PUSH1 0x8 PUSH1 0x20 MSTORE PUSH1 0x40 PUSH1 0x0 KECCAK256 DUP6 PUSH1 0x0 MSTORE PUSH1 0x20 MSTORE PUSH1 0x40 PUSH1 0x0 KECCAK256 SLOAD PUSH1 0x0 MSTORE PUSH1 0x4 PUSH1 0x20 MSTORE DUP4 PUSH1 0x6 PUSH1 0x40 PUSH1 0x0 KECCAK256 ADD SLOAD EQ ISZERO PUSH2 0xBDB JUMP JUMPDEST PUSH1 0x40 MLOAD PUSH3 0x461BCD PUSH1 0xE5 SHL DUP2 MSTORE PUSH1 0x20 PUSH1 0x4 DUP3 ADD MSTORE PUSH1 0x18 PUSH1 0x24 DUP3 ADD MSTORE PUSH32 0x496E76616C696420726576696577656520616464726573730000000000000000 PUSH1 0x44 DUP3 ADD MSTORE PUSH1 0x64 SWAP1 REVERT JUMPDEST PUSH1 0x40 MLOAD PUSH3 0x461BCD PUSH1 0xE5 SHL DUP2 MSTORE PUSH1 0x20 PUSH1 0x4 DUP3 ADD MSTORE PUSH1 0x16 PUSH1 0x24 DUP3 ADD MSTORE PUSH22 0x21B0B73737BA103932BB34B2BB903CB7BAB939B2B633 PUSH1 0x51 SHL PUSH1 0x44 DUP3 ADD MSTORE PUSH1 0x64 SWAP1 REVERT JUMPDEST POP PUSH1 0x5 DUP2 GT ISZERO PUSH2 0xB8B JUMP JUMPDEST PUSH4 0x3EE5AEB5 PUSH1 0xE0 SHL PUSH1 0x0 MSTORE PUSH1 0x4 PUSH1 0x0 REVERT JUMPDEST CALLVALUE PUSH2 0x1BD JUMPI PUSH1 0x60 CALLDATASIZE PUSH1 0x3 NOT ADD SLT PUSH2 0x1BD JUMPI PUSH1 0x20 PUSH2 0x1167 PUSH2 0x1156 PUSH2 0x18AB JUMP JUMPDEST PUSH2 0x115E PUSH2 0x18C1 JUMP JUMPDEST PUSH1 0x44 CALLDATALOAD SWAP2 PUSH2 0x1CFC JUMP JUMPDEST PUSH1 0x40 MLOAD SWAP1 ISZERO ISZERO DUP2 MSTORE RETURN JUMPDEST CALLVALUE PUSH2 0x1BD JUMPI PUSH1 0x0 CALLDATASIZE PUSH1 0x3 NOT ADD SLT PUSH2 0x1BD JUMPI PUSH1 0x20 PUSH1 0x40 MLOAD PUSH32 0xA49807205CE4D355092EF5A8A18F56E8913CF4A201FBE287825B095693C21775 DUP2 MSTORE RETURN JUMPDEST CALLVALUE PUSH2 0x1BD JUMPI PUSH1 0x0 CALLDATASIZE PUSH1 0x3 NOT ADD SLT PUSH2 0x1BD JUMPI PUSH1 0x20 PUSH1 0x40 MLOAD PUSH1 0x2 DUP2 MSTORE RETURN JUMPDEST CALLVALUE PUSH2 0x1BD JUMPI PUSH1 0x0 CALLDATASIZE PUSH1 0x3 NOT ADD SLT PUSH2 0x1BD JUMPI PUSH1 0x20 PUSH1 0xFF PUSH1 0x2 SLOAD AND PUSH1 0x40 MLOAD SWAP1 ISZERO ISZERO DUP2 MSTORE RETURN JUMPDEST CALLVALUE PUSH2 0x1BD JUMPI PUSH1 0x20 CALLDATASIZE PUSH1 0x3 NOT ADD SLT PUSH2 0x1BD JUMPI PUSH2 0x1204 PUSH2 0x18AB JUMP JUMPDEST PUSH2 0x120C PUSH2 0x1FC5 JUMP JUMPDEST PUSH1 0x1 PUSH1 0x1 PUSH1 0xA0 SHL SUB AND PUSH1 0x0 SWAP1 DUP2 MSTORE PUSH1 0x5 PUSH1 0x20 MSTORE PUSH1 0x40 SWAP1 KECCAK256 PUSH1 0x7 DUP2 ADD DUP1 SLOAD PUSH1 0xFF NOT AND PUSH1 0x1 OR SWAP1 SSTORE TIMESTAMP PUSH1 0x8 SWAP1 SWAP2 ADD SSTORE STOP JUMPDEST CALLVALUE PUSH2 0x1BD JUMPI PUSH1 0x20 CALLDATASIZE PUSH1 0x3 NOT ADD SLT PUSH2 0x1BD JUMPI PUSH2 0x126E PUSH2 0x125A PUSH1 0x4 CALLDATALOAD PUSH2 0x1C54 JUMP JUMPDEST PUSH1 0x40 MLOAD SWAP2 DUP3 SWAP2 PUSH1 0x20 DUP4 MSTORE PUSH1 0x20 DUP4 ADD SWAP1 PUSH2 0x19F2 JUMP JUMPDEST SUB SWAP1 RETURN JUMPDEST CALLVALUE PUSH2 0x1BD JUMPI PUSH1 0x0 CALLDATASIZE PUSH1 0x3 NOT ADD SLT PUSH2 0x1BD JUMPI PUSH2 0x128B PUSH2 0x1FC5 JUMP JUMPDEST PUSH1 0x2 SLOAD PUSH1 0xFF DUP2 AND ISZERO PUSH2 0x12CA JUMPI PUSH1 0xFF NOT AND PUSH1 0x2 SSTORE PUSH32 0x5DB9EE0A495BF2E6FF9C91A7834C1BA4FDD244A5E8AA4E537BD38AEAE4B073AA PUSH1 0x20 PUSH1 0x40 MLOAD CALLER DUP2 MSTORE LOG1 STOP JUMPDEST PUSH4 0x8DFC202B PUSH1 0xE0 SHL PUSH1 0x0 MSTORE PUSH1 0x4 PUSH1 0x0 REVERT JUMPDEST CALLVALUE PUSH2 0x1BD JUMPI PUSH1 0x40 CALLDATASIZE PUSH1 0x3 NOT ADD SLT PUSH2 0x1BD JUMPI PUSH2 0x12F4 PUSH2 0x18C1 JUMP JUMPDEST CALLER PUSH1 0x1 PUSH1 0x1 PUSH1 0xA0 SHL SUB DUP3 AND SUB PUSH2 0x1310 JUMPI PUSH2 0x60D SWAP1 PUSH1 0x4 CALLDATALOAD PUSH2 0x20FD JUMP JUMPDEST PUSH4 0x334BD919 PUSH1 0xE1 SHL PUSH1 0x0 MSTORE PUSH1 0x4 PUSH1 0x0 REVERT JUMPDEST CALLVALUE PUSH2 0x1BD JUMPI PUSH1 0x40 CALLDATASIZE PUSH1 0x3 NOT ADD SLT PUSH2 0x1BD JUMPI PUSH2 0x60D PUSH1 0x4 CALLDATALOAD PUSH2 0x1340 PUSH2 0x18C1 JUMP JUMPDEST SWAP1 PUSH2 0x135C PUSH2 0x603 DUP3 PUSH1 0x0 MSTORE PUSH1 0x0 PUSH1 0x20 MSTORE PUSH1 0x1 PUSH1 0x40 PUSH1 0x0 KECCAK256 ADD SLOAD SWAP1 JUMP JUMPDEST PUSH2 0x2072 JUMP JUMPDEST CALLVALUE PUSH2 0x1BD JUMPI PUSH1 0x20 CALLDATASIZE PUSH1 0x3 NOT ADD SLT PUSH2 0x1BD JUMPI PUSH1 0x20 PUSH2 0x138E PUSH1 0x4 CALLDATALOAD PUSH1 0x0 MSTORE PUSH1 0x0 PUSH1 0x20 MSTORE PUSH1 0x1 PUSH1 0x40 PUSH1 0x0 KECCAK256 ADD SLOAD SWAP1 JUMP JUMPDEST PUSH1 0x40 MLOAD SWAP1 DUP2 MSTORE RETURN JUMPDEST CALLVALUE PUSH2 0x1BD JUMPI PUSH1 0x40 CALLDATASIZE PUSH1 0x3 NOT ADD SLT PUSH2 0x1BD JUMPI PUSH2 0x13AF PUSH2 0x18AB JUMP JUMPDEST PUSH1 0x1 PUSH1 0x1 PUSH1 0xA0 SHL SUB AND PUSH1 0x0 SWAP1 DUP2 MSTORE PUSH1 0x6 PUSH1 0x20 MSTORE PUSH1 0x40 SWAP1 KECCAK256 DUP1 SLOAD PUSH1 0x24 CALLDATALOAD SWAP2 SWAP1 DUP3 LT ISZERO PUSH2 0x1BD JUMPI PUSH1 0x20 SWAP2 PUSH2 0x685 SWAP2 PUSH2 0x19C4 JUMP JUMPDEST CALLVALUE PUSH2 0x1BD JUMPI PUSH1 0x20 CALLDATASIZE PUSH1 0x3 NOT ADD SLT PUSH2 0x1BD JUMPI PUSH1 0x1 PUSH1 0x1 PUSH1 0xA0 SHL SUB PUSH2 0x1401 PUSH2 0x18AB JUMP JUMPDEST AND PUSH1 0x0 MSTORE PUSH1 0x7 PUSH1 0x20 MSTORE PUSH1 0x40 PUSH1 0x0 KECCAK256 PUSH1 0x40 MLOAD SWAP1 DUP2 PUSH1 0x20 DUP3 SLOAD SWAP2 DUP3 DUP2 MSTORE ADD SWAP2 PUSH1 0x0 MSTORE PUSH1 0x20 PUSH1 0x0 KECCAK256 SWAP1 PUSH1 0x0 JUMPDEST DUP2 DUP2 LT PUSH2 0x144D JUMPI PUSH2 0x126E DUP6 PUSH2 0x1441 DUP2 DUP8 SUB DUP3 PUSH2 0x1911 JUMP JUMPDEST PUSH1 0x40 MLOAD SWAP2 DUP3 SWAP2 DUP3 PUSH2 0x198A JUMP JUMPDEST DUP3 SLOAD DUP5 MSTORE PUSH1 0x20 SWAP1 SWAP4 ADD SWAP3 PUSH1 0x1 SWAP3 DUP4 ADD SWAP3 ADD PUSH2 0x142A JUMP JUMPDEST CALLVALUE PUSH2 0x1BD JUMPI PUSH1 0x20 CALLDATASIZE PUSH1 0x3 NOT ADD SLT PUSH2 0x1BD JUMPI PUSH1 0x1 PUSH1 0x1 PUSH1 0xA0 SHL SUB PUSH2 0x1484 PUSH2 0x18AB JUMP JUMPDEST AND PUSH1 0x0 MSTORE PUSH1 0x6 PUSH1 0x20 MSTORE PUSH1 0x40 PUSH1 0x0 KECCAK256 PUSH1 0x40 MLOAD SWAP1 DUP2 PUSH1 0x20 DUP3 SLOAD SWAP2 DUP3 DUP2 MSTORE ADD SWAP2 PUSH1 0x0 MSTORE PUSH1 0x20 PUSH1 0x0 KECCAK256 SWAP1 PUSH1 0x0 JUMPDEST DUP2 DUP2 LT PUSH2 0x14C4 JUMPI PUSH2 0x126E DUP6 PUSH2 0x1441 DUP2 DUP8 SUB DUP3 PUSH2 0x1911 JUMP JUMPDEST DUP3 SLOAD DUP5 MSTORE PUSH1 0x20 SWAP1 SWAP4 ADD SWAP3 PUSH1 0x1 SWAP3 DUP4 ADD SWAP3 ADD PUSH2 0x14AD JUMP JUMPDEST CALLVALUE PUSH2 0x1BD JUMPI PUSH1 0x60 CALLDATASIZE PUSH1 0x3 NOT ADD SLT PUSH2 0x1BD JUMPI PUSH1 0x24 CALLDATALOAD PUSH1 0x4 CALLDATALOAD PUSH1 0x44 CALLDATALOAD PUSH8 0xFFFFFFFFFFFFFFFF DUP2 GT PUSH2 0x1BD JUMPI PUSH2 0x1511 SWAP1 CALLDATASIZE SWAP1 PUSH1 0x4 ADD PUSH2 0x1933 JUMP JUMPDEST DUP2 PUSH1 0x0 MSTORE PUSH1 0x4 PUSH1 0x20 MSTORE PUSH2 0x1535 PUSH1 0x1 DUP1 PUSH1 0xA0 SHL SUB PUSH1 0x1 PUSH1 0x40 PUSH1 0x0 KECCAK256 ADD SLOAD AND CALLER EQ PUSH2 0x1B1E JUMP JUMPDEST PUSH1 0x0 DUP3 DUP2 MSTORE PUSH1 0x4 PUSH1 0x20 MSTORE PUSH1 0x40 SWAP1 KECCAK256 PUSH1 0x1 ADD SLOAD PUSH2 0x155B SWAP1 PUSH1 0x1 PUSH1 0x1 PUSH1 0xA0 SHL SUB AND ISZERO ISZERO PUSH2 0x1B78 JUMP JUMPDEST PUSH1 0x1 DUP4 LT ISZERO DUP1 PUSH2 0x17FC JUMPI JUMPDEST PUSH2 0x156F SWAP1 PUSH2 0x1BBC JUMP JUMPDEST DUP2 PUSH1 0x0 MSTORE PUSH1 0x4 PUSH1 0x20 MSTORE PUSH1 0xFF PUSH1 0xA PUSH1 0x40 PUSH1 0x0 KECCAK256 ADD SLOAD AND PUSH2 0x17C3 JUMPI PUSH2 0x1594 DUP2 MLOAD ISZERO ISZERO PUSH2 0x1C08 JUMP JUMPDEST DUP2 PUSH1 0x0 MSTORE PUSH1 0x4 PUSH1 0x20 MSTORE PUSH1 0x8 PUSH1 0x40 PUSH1 0x0 KECCAK256 ADD SLOAD PUSH3 0x93A80 DUP2 ADD DUP1 SWAP2 GT PUSH2 0x574 JUMPI TIMESTAMP GT PUSH2 0x1774 JUMPI PUSH1 0x0 DUP3 DUP2 MSTORE PUSH1 0x4 PUSH1 0x20 DUP2 SWAP1 MSTORE PUSH1 0x40 SWAP1 SWAP2 KECCAK256 PUSH1 0x2 DUP2 ADD SLOAD PUSH1 0x3 DUP3 ADD DUP7 SWAP1 SSTORE DUP4 MLOAD SWAP6 SWAP3 PUSH1 0x1 PUSH1 0x1 PUSH1 0xA0 SHL SUB SWAP1 SWAP2 AND SWAP2 ADD PUSH8 0xFFFFFFFFFFFFFFFF DUP7 GT PUSH2 0xF33 JUMPI PUSH2 0x1600 DUP2 SLOAD PUSH2 0x1A40 JUMP JUMPDEST PUSH1 0x1F DUP2 GT PUSH2 0x172C JUMPI JUMPDEST POP PUSH1 0x20 SWAP6 PUSH1 0x1F DUP2 GT PUSH1 0x1 EQ PUSH2 0x16A2 JUMPI SWAP1 DUP2 PUSH2 0x1676 SWAP4 SWAP3 PUSH32 0xE6BCA0B1AE68AA3C3101325A30603B90848B1CB037D020C24548CC433DB5E661 SWAP8 SWAP9 PUSH1 0x0 SWAP2 PUSH2 0x1697 JUMPI JUMPDEST POP DUP2 PUSH1 0x1 SHL SWAP2 PUSH1 0x0 NOT SWAP1 PUSH1 0x3 SHL SHR NOT AND OR SWAP1 SSTORE JUMPDEST DUP6 PUSH1 0x0 MSTORE PUSH1 0x4 PUSH1 0x20 MSTORE TIMESTAMP PUSH1 0x9 PUSH1 0x40 PUSH1 0x0 KECCAK256 ADD SSTORE PUSH2 0x1DD4 JUMP JUMPDEST PUSH2 0x1692 PUSH1 0x40 MLOAD SWAP3 DUP4 SWAP3 DUP4 MSTORE PUSH1 0x40 PUSH1 0x20 DUP5 ADD MSTORE PUSH1 0x40 DUP4 ADD SWAP1 PUSH2 0x19F2 JUMP JUMPDEST SUB SWAP1 LOG2 STOP JUMPDEST SWAP1 POP DUP7 ADD MLOAD DUP10 PUSH2 0x164A JUMP JUMPDEST PUSH1 0x1F NOT DUP2 AND DUP3 PUSH1 0x0 MSTORE DUP8 PUSH1 0x0 KECCAK256 SWAP1 PUSH1 0x0 JUMPDEST DUP2 DUP2 LT PUSH2 0x1714 JUMPI POP SWAP2 PUSH1 0x1 SWAP2 PUSH32 0xE6BCA0B1AE68AA3C3101325A30603B90848B1CB037D020C24548CC433DB5E661 SWAP9 SWAP10 DUP3 PUSH2 0x1676 SWAP8 SWAP7 SWAP6 LT PUSH2 0x16FB JUMPI JUMPDEST POP POP DUP2 SHL ADD SWAP1 SSTORE PUSH2 0x165E JUMP JUMPDEST DUP9 ADD MLOAD PUSH1 0x0 NOT PUSH1 0xF8 DUP5 PUSH1 0x3 SHL AND SHR NOT AND SWAP1 SSTORE DUP10 DUP1 PUSH2 0x16EF JUMP JUMPDEST DUP8 DUP11 ADD MLOAD DUP4 SSTORE PUSH1 0x20 SWAP10 DUP11 ADD SWAP10 PUSH1 0x1 SWAP1 SWAP4 ADD SWAP3 ADD PUSH2 0x16B3 JUMP JUMPDEST DUP2 PUSH1 0x0 MSTORE PUSH1 0x20 PUSH1 0x0 KECCAK256 PUSH1 0x1F DUP9 ADD PUSH1 0x5 SHR DUP2 ADD SWAP2 PUSH1 0x20 DUP10 LT PUSH2 0x176A JUMPI JUMPDEST PUSH1 0x1F ADD PUSH1 0x5 SHR ADD SWAP1 JUMPDEST DUP2 DUP2 LT PUSH2 0x175E JUMPI POP PUSH2 0x1609 JUMP JUMPDEST PUSH1 0x0 DUP2 SSTORE PUSH1 0x1 ADD PUSH2 0x1751 JUMP JUMPDEST SWAP1 SWAP2 POP DUP2 SWAP1 PUSH2 0x1748 JUMP JUMPDEST PUSH1 0x40 MLOAD PUSH3 0x461BCD PUSH1 0xE5 SHL DUP2 MSTORE PUSH1 0x20 PUSH1 0x4 DUP3 ADD MSTORE PUSH1 0x21 PUSH1 0x24 DUP3 ADD MSTORE PUSH32 0x43616E6E6F742075706461746520726576696577206166746572203720646179 PUSH1 0x44 DUP3 ADD MSTORE PUSH1 0x73 PUSH1 0xF8 SHL PUSH1 0x64 DUP3 ADD MSTORE PUSH1 0x84 SWAP1 REVERT JUMPDEST PUSH1 0x40 MLOAD PUSH3 0x461BCD PUSH1 0xE5 SHL DUP2 MSTORE PUSH1 0x20 PUSH1 0x4 DUP3 ADD MSTORE PUSH1 0x11 PUSH1 0x24 DUP3 ADD MSTORE PUSH17 0x14995D9A595DC81A5CC819195B195D1959 PUSH1 0x7A SHL PUSH1 0x44 DUP3 ADD MSTORE PUSH1 0x64 SWAP1 REVERT JUMPDEST POP PUSH1 0x5 DUP4 GT ISZERO PUSH2 0x1566 JUMP JUMPDEST CALLVALUE PUSH2 0x1BD JUMPI PUSH1 0x40 CALLDATASIZE PUSH1 0x3 NOT ADD SLT PUSH2 0x1BD JUMPI PUSH2 0x1820 PUSH2 0x18AB JUMP JUMPDEST PUSH2 0x1828 PUSH2 0x18C1 JUMP JUMPDEST PUSH1 0x1 PUSH1 0x1 PUSH1 0xA0 SHL SUB SWAP2 DUP3 AND PUSH1 0x0 SWAP1 DUP2 MSTORE PUSH1 0x8 PUSH1 0x20 SWAP1 DUP2 MSTORE PUSH1 0x40 DUP1 DUP4 KECCAK256 SWAP5 SWAP1 SWAP4 AND DUP3 MSTORE SWAP3 DUP4 MSTORE DUP2 SWAP1 KECCAK256 SLOAD SWAP1 MLOAD SWAP1 DUP2 MSTORE RETURN JUMPDEST CALLVALUE PUSH2 0x1BD JUMPI PUSH1 0x20 CALLDATASIZE PUSH1 0x3 NOT ADD SLT PUSH2 0x1BD JUMPI PUSH1 0x4 CALLDATALOAD SWAP1 PUSH4 0xFFFFFFFF PUSH1 0xE0 SHL DUP3 AND DUP1 SWAP3 SUB PUSH2 0x1BD JUMPI PUSH1 0x20 SWAP2 PUSH4 0x7965DB0B PUSH1 0xE0 SHL DUP2 EQ SWAP1 DUP2 ISZERO PUSH2 0x189A JUMPI JUMPDEST POP ISZERO ISZERO DUP2 MSTORE RETURN JUMPDEST PUSH4 0x1FFC9A7 PUSH1 0xE0 SHL EQ SWAP1 POP DUP4 PUSH2 0x1893 JUMP JUMPDEST PUSH1 0x4 CALLDATALOAD SWAP1 PUSH1 0x1 PUSH1 0x1 PUSH1 0xA0 SHL SUB DUP3 AND DUP3 SUB PUSH2 0x1BD JUMPI JUMP JUMPDEST PUSH1 0x24 CALLDATALOAD SWAP1 PUSH1 0x1 PUSH1 0x1 PUSH1 0xA0 SHL SUB DUP3 AND DUP3 SUB PUSH2 0x1BD JUMPI JUMP JUMPDEST PUSH2 0x160 DUP2 ADD SWAP1 DUP2 LT PUSH8 0xFFFFFFFFFFFFFFFF DUP3 GT OR PUSH2 0xF33 JUMPI PUSH1 0x40 MSTORE JUMP JUMPDEST PUSH2 0x120 DUP2 ADD SWAP1 DUP2 LT PUSH8 0xFFFFFFFFFFFFFFFF DUP3 GT OR PUSH2 0xF33 JUMPI PUSH1 0x40 MSTORE JUMP JUMPDEST SWAP1 PUSH1 0x1F DUP1 NOT SWAP2 ADD AND DUP2 ADD SWAP1 DUP2 LT PUSH8 0xFFFFFFFFFFFFFFFF DUP3 GT OR PUSH2 0xF33 JUMPI PUSH1 0x40 MSTORE JUMP JUMPDEST DUP2 PUSH1 0x1F DUP3 ADD SLT ISZERO PUSH2 0x1BD JUMPI DUP1 CALLDATALOAD SWAP1 PUSH8 0xFFFFFFFFFFFFFFFF DUP3 GT PUSH2 0xF33 JUMPI PUSH1 0x40 MLOAD SWAP3 PUSH2 0x1968 PUSH1 0x1F DUP5 ADD PUSH1 0x1F NOT AND PUSH1 0x20 ADD DUP6 PUSH2 0x1911 JUMP JUMPDEST DUP3 DUP5 MSTORE PUSH1 0x20 DUP4 DUP4 ADD ADD GT PUSH2 0x1BD JUMPI DUP2 PUSH1 0x0 SWAP3 PUSH1 0x20 DUP1 SWAP4 ADD DUP4 DUP7 ADD CALLDATACOPY DUP4 ADD ADD MSTORE SWAP1 JUMP JUMPDEST PUSH1 0x20 PUSH1 0x40 DUP2 DUP4 ADD SWAP3 DUP3 DUP2 MSTORE DUP5 MLOAD DUP1 SWAP5 MSTORE ADD SWAP3 ADD SWAP1 PUSH1 0x0 JUMPDEST DUP2 DUP2 LT PUSH2 0x19AE JUMPI POP POP POP SWAP1 JUMP JUMPDEST DUP3 MLOAD DUP5 MSTORE PUSH1 0x20 SWAP4 DUP5 ADD SWAP4 SWAP1 SWAP3 ADD SWAP2 PUSH1 0x1 ADD PUSH2 0x19A1 JUMP JUMPDEST DUP1 SLOAD DUP3 LT ISZERO PUSH2 0x19DC JUMPI PUSH1 0x0 MSTORE PUSH1 0x20 PUSH1 0x0 KECCAK256 ADD SWAP1 PUSH1 0x0 SWAP1 JUMP JUMPDEST PUSH4 0x4E487B71 PUSH1 0xE0 SHL PUSH1 0x0 MSTORE PUSH1 0x32 PUSH1 0x4 MSTORE PUSH1 0x24 PUSH1 0x0 REVERT JUMPDEST SWAP2 SWAP1 DUP3 MLOAD SWAP3 DUP4 DUP3 MSTORE PUSH1 0x0 JUMPDEST DUP5 DUP2 LT PUSH2 0x1A1E JUMPI POP POP DUP3 PUSH1 0x0 PUSH1 0x20 DUP1 SWAP5 SWAP6 DUP5 ADD ADD MSTORE PUSH1 0x1F DUP1 NOT SWAP2 ADD AND ADD ADD SWAP1 JUMP JUMPDEST DUP1 PUSH1 0x20 DUP1 SWAP3 DUP5 ADD ADD MLOAD DUP3 DUP3 DUP7 ADD ADD MSTORE ADD PUSH2 0x19FD JUMP JUMPDEST SWAP1 PUSH1 0x2 DUP3 LT ISZERO PUSH2 0xE5A JUMPI MSTORE JUMP JUMPDEST SWAP1 PUSH1 0x1 DUP3 DUP2 SHR SWAP3 AND DUP1 ISZERO PUSH2 0x1A70 JUMPI JUMPDEST PUSH1 0x20 DUP4 LT EQ PUSH2 0x1A5A JUMPI JUMP JUMPDEST PUSH4 0x4E487B71 PUSH1 0xE0 SHL PUSH1 0x0 MSTORE PUSH1 0x22 PUSH1 0x4 MSTORE PUSH1 0x24 PUSH1 0x0 REVERT JUMPDEST SWAP2 PUSH1 0x7F AND SWAP2 PUSH2 0x1A4F JUMP JUMPDEST SWAP1 PUSH1 0x40 MLOAD SWAP2 DUP3 PUSH1 0x0 DUP3 SLOAD SWAP3 PUSH2 0x1A8E DUP5 PUSH2 0x1A40 JUMP JUMPDEST DUP1 DUP5 MSTORE SWAP4 PUSH1 0x1 DUP2 AND SWAP1 DUP2 ISZERO PUSH2 0x1AFC JUMPI POP PUSH1 0x1 EQ PUSH2 0x1AB5 JUMPI JUMPDEST POP PUSH2 0x1AB3 SWAP3 POP SUB DUP4 PUSH2 0x1911 JUMP JUMPDEST JUMP JUMPDEST SWAP1 POP PUSH1 0x0 SWAP3 SWAP2 SWAP3 MSTORE PUSH1 0x20 PUSH1 0x0 KECCAK256 SWAP1 PUSH1 0x0 SWAP2 JUMPDEST DUP2 DUP4 LT PUSH2 0x1AE0 JUMPI POP POP SWAP1 PUSH1 0x20 PUSH2 0x1AB3 SWAP3 DUP3 ADD ADD CODESIZE PUSH2 0x1AA6 JUMP JUMPDEST PUSH1 0x20 SWAP2 SWAP4 POP DUP1 PUSH1 0x1 SWAP2 SLOAD DUP4 DUP6 DUP10 ADD ADD MSTORE ADD SWAP2 ADD SWAP1 SWAP2 DUP5 SWAP3 PUSH2 0x1AC7 JUMP JUMPDEST SWAP1 POP PUSH1 0x20 SWAP3 POP PUSH2 0x1AB3 SWAP5 SWAP2 POP PUSH1 0xFF NOT AND DUP3 DUP5 ADD MSTORE ISZERO ISZERO PUSH1 0x5 SHL DUP3 ADD ADD CODESIZE PUSH2 0x1AA6 JUMP JUMPDEST ISZERO PUSH2 0x1B25 JUMPI JUMP JUMPDEST PUSH1 0x40 MLOAD PUSH3 0x461BCD PUSH1 0xE5 SHL DUP2 MSTORE PUSH1 0x20 PUSH1 0x4 DUP3 ADD MSTORE PUSH1 0x25 PUSH1 0x24 DUP3 ADD MSTORE PUSH32 0x4F6E6C792072657669657765722063616E20706572666F726D20746869732061 PUSH1 0x44 DUP3 ADD MSTORE PUSH5 0x31BA34B7B7 PUSH1 0xD9 SHL PUSH1 0x64 DUP3 ADD MSTORE PUSH1 0x84 SWAP1 REVERT JUMPDEST ISZERO PUSH2 0x1B7F JUMPI JUMP JUMPDEST PUSH1 0x40 MLOAD PUSH3 0x461BCD PUSH1 0xE5 SHL DUP2 MSTORE PUSH1 0x20 PUSH1 0x4 DUP3 ADD MSTORE PUSH1 0x15 PUSH1 0x24 DUP3 ADD MSTORE PUSH21 0x14995D9A595DC8191BD95CC81B9BDD08195E1A5CDD PUSH1 0x5A SHL PUSH1 0x44 DUP3 ADD MSTORE PUSH1 0x64 SWAP1 REVERT JUMPDEST ISZERO PUSH2 0x1BC3 JUMPI JUMP JUMPDEST PUSH1 0x40 MLOAD PUSH3 0x461BCD PUSH1 0xE5 SHL DUP2 MSTORE PUSH1 0x20 PUSH1 0x4 DUP3 ADD MSTORE PUSH1 0x1E PUSH1 0x24 DUP3 ADD MSTORE PUSH32 0x526174696E67206D757374206265206265747765656E203120616E6420350000 PUSH1 0x44 DUP3 ADD MSTORE PUSH1 0x64 SWAP1 REVERT JUMPDEST ISZERO PUSH2 0x1C0F JUMPI JUMP JUMPDEST PUSH1 0x40 MLOAD PUSH3 0x461BCD PUSH1 0xE5 SHL DUP2 MSTORE PUSH1 0x20 PUSH1 0x4 DUP3 ADD MSTORE PUSH1 0x1B PUSH1 0x24 DUP3 ADD MSTORE PUSH32 0x52657669657720746578742063616E6E6F7420626520656D7074790000000000 PUSH1 0x44 DUP3 ADD MSTORE PUSH1 0x64 SWAP1 REVERT JUMPDEST PUSH2 0x1C2 DUP2 LT PUSH2 0x1C85 JUMPI POP PUSH1 0x40 MLOAD PUSH2 0x1C6C PUSH1 0x40 DUP3 PUSH2 0x1911 JUMP JUMPDEST PUSH1 0x9 DUP2 MSTORE PUSH9 0x115E18D95B1B195B9D PUSH1 0xBA SHL PUSH1 0x20 DUP3 ADD MSTORE SWAP1 JUMP JUMPDEST PUSH2 0x15E DUP2 LT PUSH2 0x1CB1 JUMPI POP PUSH1 0x40 MLOAD PUSH2 0x1C9D PUSH1 0x40 DUP3 PUSH2 0x1911 JUMP JUMPDEST PUSH1 0x4 DUP2 MSTORE PUSH4 0x11DBDBD9 PUSH1 0xE2 SHL PUSH1 0x20 DUP3 ADD MSTORE SWAP1 JUMP JUMPDEST PUSH1 0xFA GT PUSH2 0x1CDA JUMPI PUSH1 0x40 MLOAD PUSH2 0x1CC6 PUSH1 0x40 DUP3 PUSH2 0x1911 JUMP JUMPDEST PUSH1 0x4 DUP2 MSTORE PUSH4 0x2330B4B9 PUSH1 0xE1 SHL PUSH1 0x20 DUP3 ADD MSTORE SWAP1 JUMP JUMPDEST PUSH1 0x40 MLOAD PUSH2 0x1CE8 PUSH1 0x40 DUP3 PUSH2 0x1911 JUMP JUMPDEST PUSH1 0x4 DUP2 MSTORE PUSH4 0x2837B7B9 PUSH1 0xE1 SHL PUSH1 0x20 DUP3 ADD MSTORE SWAP1 JUMP JUMPDEST PUSH1 0x1 PUSH1 0x1 PUSH1 0xA0 SHL SUB SWAP1 DUP2 AND SWAP1 DUP3 AND DUP2 EQ PUSH2 0x1D77 JUMPI DUP1 PUSH1 0x0 MSTORE PUSH1 0x8 PUSH1 0x20 MSTORE PUSH1 0x40 PUSH1 0x0 KECCAK256 PUSH1 0x1 DUP1 PUSH1 0xA0 SHL SUB DUP4 AND PUSH1 0x0 MSTORE PUSH1 0x20 MSTORE PUSH1 0x40 PUSH1 0x0 KECCAK256 SLOAD PUSH2 0x1D3F JUMPI POP POP POP PUSH1 0x1 SWAP1 JUMP JUMPDEST PUSH1 0x0 MSTORE PUSH1 0x8 PUSH1 0x20 MSTORE PUSH1 0x40 PUSH1 0x0 KECCAK256 SWAP1 PUSH1 0x1 DUP1 PUSH1 0xA0 SHL SUB AND PUSH1 0x0 MSTORE PUSH1 0x20 MSTORE PUSH1 0x40 PUSH1 0x0 KECCAK256 SLOAD PUSH1 0x0 MSTORE PUSH1 0x4 PUSH1 0x20 MSTORE PUSH1 0x6 PUSH1 0x40 PUSH1 0x0 KECCAK256 ADD SLOAD EQ ISZERO SWAP1 JUMP JUMPDEST POP POP POP PUSH1 0x0 SWAP1 JUMP JUMPDEST PUSH1 0x2 DUP3 LT ISZERO PUSH2 0xE5A JUMPI MSTORE JUMP JUMPDEST DUP1 SLOAD PUSH9 0x10000000000000000 DUP2 LT ISZERO PUSH2 0xF33 JUMPI PUSH2 0x1DAD SWAP2 PUSH1 0x1 DUP3 ADD DUP2 SSTORE PUSH2 0x19C4 JUMP JUMPDEST DUP2 SWAP3 SWAP2 SLOAD SWAP1 PUSH1 0x3 SHL SWAP2 DUP3 SHL SWAP2 PUSH1 0x0 NOT SWAP1 SHL NOT AND OR SWAP1 SSTORE JUMP JUMPDEST PUSH1 0x0 NOT DUP2 EQ PUSH2 0x574 JUMPI PUSH1 0x1 ADD SWAP1 JUMP JUMPDEST PUSH1 0x1 PUSH1 0x1 PUSH1 0xA0 SHL SUB AND PUSH1 0x0 DUP2 DUP2 MSTORE PUSH1 0x5 PUSH1 0x20 MSTORE PUSH1 0x40 DUP2 KECCAK256 SWAP1 SWAP3 SWAP1 SWAP2 DUP4 SWAP2 DUP3 JUMPDEST DUP3 PUSH1 0x0 MSTORE PUSH1 0x7 PUSH1 0x20 MSTORE PUSH1 0x40 PUSH1 0x0 KECCAK256 SLOAD DUP2 LT ISZERO PUSH2 0x1F08 JUMPI DUP3 PUSH1 0x0 MSTORE PUSH1 0x7 PUSH1 0x20 MSTORE PUSH2 0x1E20 DUP2 PUSH1 0x40 PUSH1 0x0 KECCAK256 PUSH2 0x19C4 JUMP JUMPDEST SWAP1 SLOAD SWAP1 PUSH1 0x3 SHL SHR PUSH1 0x0 MSTORE PUSH1 0x4 PUSH1 0x20 MSTORE PUSH1 0x40 PUSH1 0x0 KECCAK256 PUSH1 0x40 MLOAD PUSH2 0x1E40 DUP2 PUSH2 0x18D7 JUMP JUMPDEST DUP2 SLOAD DUP2 MSTORE PUSH1 0x1 DUP3 ADD SLOAD PUSH1 0x1 PUSH1 0x1 PUSH1 0xA0 SHL SUB SWAP1 DUP2 AND PUSH1 0x20 DUP4 ADD MSTORE PUSH1 0x2 DUP4 ADD SLOAD AND PUSH1 0x40 DUP3 ADD MSTORE PUSH1 0x3 DUP3 ADD SLOAD PUSH1 0x60 DUP3 ADD SWAP1 DUP2 MSTORE SWAP2 PUSH1 0xFF SWAP1 PUSH1 0xA SWAP1 PUSH2 0x1E83 PUSH1 0x4 DUP3 ADD PUSH2 0x1A7A JUMP JUMPDEST PUSH1 0x80 DUP6 ADD MSTORE PUSH2 0x1E94 PUSH1 0x5 DUP3 ADD PUSH2 0x1A7A JUMP JUMPDEST PUSH1 0xA0 DUP6 ADD MSTORE PUSH1 0x6 DUP2 ADD SLOAD PUSH1 0xC0 DUP6 ADD MSTORE PUSH2 0x1EB6 DUP4 PUSH1 0x7 DUP4 ADD SLOAD AND PUSH1 0xE0 DUP7 ADD PUSH2 0x1D7F JUMP JUMPDEST PUSH1 0x8 DUP2 ADD SLOAD PUSH2 0x100 DUP6 ADD MSTORE PUSH1 0x9 DUP2 ADD SLOAD PUSH2 0x120 DUP6 ADD MSTORE ADD SLOAD AND ISZERO SWAP1 PUSH2 0x140 DUP3 ISZERO SWAP2 ADD MSTORE PUSH2 0x1EE7 JUMPI JUMPDEST POP PUSH1 0x1 ADD PUSH2 0x1DF3 JUMP JUMPDEST SWAP6 SWAP4 SWAP1 SWAP6 MLOAD DUP2 ADD DUP1 SWAP2 GT PUSH2 0x574 JUMPI PUSH2 0x1F01 PUSH1 0x1 SWAP2 SWAP5 PUSH2 0x1DC5 JUMP JUMPDEST SWAP6 SWAP1 PUSH2 0x1EDE JUMP JUMPDEST POP SWAP4 SWAP1 SWAP3 SWAP1 DUP1 ISZERO DUP1 PUSH2 0x1F91 JUMPI DUP4 PUSH1 0x2 DUP5 ADD SSTORE DUP2 PUSH1 0x1 DUP5 ADD SSTORE PUSH1 0x64 DUP5 MUL SWAP4 DUP1 DUP6 DIV PUSH1 0x64 EQ SWAP1 ISZERO OR ISZERO PUSH2 0x574 JUMPI PUSH2 0x1F7B JUMPI PUSH1 0x3 PUSH1 0x40 SWAP3 DUP3 PUSH32 0x5B88A2E3FC1A53234357AB78C104DF11C33CCFA79886793654565AD70B8AFB6E SWAP6 DIV DUP3 DUP3 ADD SSTORE JUMPDEST TIMESTAMP PUSH1 0x8 DUP3 ADD SSTORE ADD SLOAD SWAP1 DUP3 MLOAD SWAP2 DUP3 MSTORE PUSH1 0x20 DUP3 ADD MSTORE LOG2 JUMP JUMPDEST PUSH4 0x4E487B71 PUSH1 0xE0 SHL PUSH1 0x0 MSTORE PUSH1 0x12 PUSH1 0x4 MSTORE PUSH1 0x24 PUSH1 0x0 REVERT JUMPDEST POP PUSH32 0x5B88A2E3FC1A53234357AB78C104DF11C33CCFA79886793654565AD70B8AFB6E SWAP3 POP PUSH1 0x3 DUP3 PUSH1 0x0 DUP3 PUSH1 0x40 SWAP6 ADD SSTORE PUSH2 0x1F65 JUMP JUMPDEST CALLER PUSH1 0x0 SWAP1 DUP2 MSTORE PUSH32 0x7D7FFB7A348E1C6A02869081A26547B49160DD3DF72D1D75A570EB9B698292EC PUSH1 0x20 MSTORE PUSH1 0x40 SWAP1 KECCAK256 SLOAD PUSH1 0xFF AND ISZERO PUSH2 0x1FFE JUMPI JUMP JUMPDEST PUSH4 0xE2517D3F PUSH1 0xE0 SHL PUSH1 0x0 MSTORE CALLER PUSH1 0x4 MSTORE PUSH32 0xA49807205CE4D355092EF5A8A18F56E8913CF4A201FBE287825B095693C21775 PUSH1 0x24 MSTORE PUSH1 0x44 PUSH1 0x0 REVERT JUMPDEST PUSH1 0x0 DUP2 DUP2 MSTORE PUSH1 0x20 DUP2 DUP2 MSTORE PUSH1 0x40 DUP1 DUP4 KECCAK256 CALLER DUP5 MSTORE SWAP1 SWAP2 MSTORE SWAP1 KECCAK256 SLOAD PUSH1 0xFF AND ISZERO PUSH2 0x205A JUMPI POP JUMP JUMPDEST PUSH4 0xE2517D3F PUSH1 0xE0 SHL PUSH1 0x0 MSTORE CALLER PUSH1 0x4 MSTORE PUSH1 0x24 MSTORE PUSH1 0x44 PUSH1 0x0 REVERT JUMPDEST PUSH1 0x0 DUP2 DUP2 MSTORE PUSH1 0x20 DUP2 DUP2 MSTORE PUSH1 0x40 DUP1 DUP4 KECCAK256 PUSH1 0x1 PUSH1 0x1 PUSH1 0xA0 SHL SUB DUP7 AND DUP5 MSTORE SWAP1 SWAP2 MSTORE SWAP1 KECCAK256 SLOAD PUSH1 0xFF AND PUSH2 0x20F6 JUMPI PUSH1 0x0 DUP2 DUP2 MSTORE PUSH1 0x20 DUP2 DUP2 MSTORE PUSH1 0x40 DUP1 DUP4 KECCAK256 PUSH1 0x1 PUSH1 0x1 PUSH1 0xA0 SHL SUB SWAP6 SWAP1 SWAP6 AND DUP1 DUP5 MSTORE SWAP5 SWAP1 SWAP2 MSTORE DUP2 KECCAK256 DUP1 SLOAD PUSH1 0xFF NOT AND PUSH1 0x1 OR SWAP1 SSTORE CALLER SWAP3 SWAP2 SWAP1 PUSH32 0x2F8788117E7EFF1D82E926EC794901D17C78024A50270940304540A733656F0D SWAP1 DUP1 LOG4 PUSH1 0x1 SWAP1 JUMP JUMPDEST POP POP PUSH1 0x0 SWAP1 JUMP JUMPDEST PUSH1 0x0 DUP2 DUP2 MSTORE PUSH1 0x20 DUP2 DUP2 MSTORE PUSH1 0x40 DUP1 DUP4 KECCAK256 PUSH1 0x1 PUSH1 0x1 PUSH1 0xA0 SHL SUB DUP7 AND DUP5 MSTORE SWAP1 SWAP2 MSTORE SWAP1 KECCAK256 SLOAD PUSH1 0xFF AND ISZERO PUSH2 0x20F6 JUMPI PUSH1 0x0 DUP2 DUP2 MSTORE PUSH1 0x20 DUP2 DUP2 MSTORE PUSH1 0x40 DUP1 DUP4 KECCAK256 PUSH1 0x1 PUSH1 0x1 PUSH1 0xA0 SHL SUB SWAP6 SWAP1 SWAP6 AND DUP1 DUP5 MSTORE SWAP5 SWAP1 SWAP2 MSTORE DUP2 KECCAK256 DUP1 SLOAD PUSH1 0xFF NOT AND SWAP1 SSTORE CALLER SWAP3 SWAP2 SWAP1 PUSH32 0xF6391F5C32D9C69D2A47EA670B442974B53935D1EDC7FD64EB21E047A839171B SWAP1 DUP1 LOG4 PUSH1 0x1 SWAP1 JUMP JUMPDEST PUSH1 0xFF PUSH1 0x2 SLOAD AND PUSH2 0x218B JUMPI JUMP JUMPDEST PUSH4 0xD93C0665 PUSH1 0xE0 SHL PUSH1 0x0 MSTORE PUSH1 0x4 PUSH1 0x0 REVERT INVALID LOG2 PUSH5 0x6970667358 0x22 SLT KECCAK256 MSTORE8 0x4F PC PUSH14 0xC47DDDBB21CC1D96A150AE766C9F 0xBC DELEGATECALL PUSH22 0xC073ADF5BFDA6C3AC3E45D64736F6C634300081C0033 0x2F DUP8 DUP9 GT PUSH31 0x7EFF1D82E926EC794901D17C78024A50270940304540A733656F0D7D7FFB7A CALLVALUE DUP15 SHR PUSH11 0x2869081A26547B49160DD RETURNDATASIZE 0xF7 0x2D SAR PUSH22 0xA570EB9B698292ECAD3228B676F7D3CD4284A5443F17 CALL SWAP7 0x2B CALLDATASIZE 0xE4 SWAP2 0xB3 EXP BLOCKHASH 0xB2 BLOCKHASH PC BLOBHASH 0xE5 SWAP8 0xBA PUSH0 0xB5 "},"methodIdentifiers":{"ADMIN_ROLE()":"75b238fc","ARBITRATOR_ROLE()":"9cea0787","DEFAULT_ADMIN_ROLE()":"a217fddf","EXCELLENT_THRESHOLD()":"efd67e53","FAIR_THRESHOLD()":"7ffdecb2","GOOD_THRESHOLD()":"fb3b8bb6","MAX_RATING()":"94e113ea","MIN_RATING()":"bb0e4ea2","RATING_DECIMALS()":"73a469c6","canReview(address,address,uint256)":"799ead1a","createReview(address,uint256,string,string,uint256,uint8)":"7d04470a","deleteReview(uint256)":"d71e4890","getReputationLevel(uint256)":"402bda09","getReview(uint256)":"990581b6","getRoleAdmin(bytes32)":"248a9ca3","getUserReceivedReviews(address)":"1cc76632","getUserReputation(address)":"baccbfdb","getUserReviews(address)":"18d0e8b2","grantRole(bytes32,address)":"2f2ff15d","hasRole(bytes32,address)":"91d14854","pause()":"8456cb59","paused()":"5c975abb","renounceRole(bytes32,address)":"36568abe","rentalReviews(uint256)":"cfdb3882","reviews(uint256)":"e83ddcea","revokeRole(bytes32,address)":"d547741f","supportsInterface(bytes4)":"01ffc9a7","unpause()":"3f4ba83a","updateRentalStats(address,bool,bool,bool)":"e47aad6f","updateReview(uint256,uint256,string)":"175a3b41","userReceivedReviews(address,uint256)":"cae7be33","userReputations(address)":"f8b11691","userReviews(address,uint256)":"1f4ac129","userToUserReviews(address,address)":"096d085b","verifyUser(address)":"4d813120"}}}}}