{"contracts/SmartRent.sol":{"SmartRent":{"abi":[{"inputs":[],"stateMutability":"nonpayable","type":"constructor"},{"inputs":[],"name":"AccessControlBadConfirmation","type":"error"},{"inputs":[{"internalType":"address","name":"account","type":"address"},{"internalType":"bytes32","name":"neededRole","type":"bytes32"}],"name":"AccessControlUnauthorizedAccount","type":"error"},{"inputs":[],"name":"EnforcedPause","type":"error"},{"inputs":[],"name":"ExpectedPause","type":"error"},{"inputs":[],"name":"ReentrancyGuardReentrantCall","type":"error"},{"anonymous":false,"inputs":[{"indexed":true,"internalType":"uint256","name":"listingId","type":"uint256"},{"indexed":true,"internalType":"address","name":"landlord","type":"address"},{"indexed":false,"internalType":"string","name":"title","type":"string"},{"indexed":false,"internalType":"uint256","name":"pricePerDay","type":"uint256"},{"indexed":false,"internalType":"uint256","name":"deposit","type":"uint256"},{"indexed":false,"internalType":"string","name":"ipfsHash","type":"string"}],"name":"ListingCreated","type":"event"},{"anonymous":false,"inputs":[{"indexed":false,"internalType":"address","name":"account","type":"address"}],"name":"Paused","type":"event"},{"anonymous":false,"inputs":[{"indexed":false,"internalType":"address","name":"listingRegistry","type":"address"},{"indexed":false,"internalType":"address","name":"rentalEscrow","type":"address"},{"indexed":false,"internalType":"address","name":"arbitration","type":"address"},{"indexed":false,"internalType":"address","name":"subscriptionManager","type":"address"},{"indexed":false,"internalType":"address","name":"reputation","type":"address"}],"name":"PlatformInitialized","type":"event"},{"anonymous":false,"inputs":[{"indexed":true,"internalType":"bytes32","name":"role","type":"bytes32"},{"indexed":true,"internalType":"bytes32","name":"previousAdminRole","type":"bytes32"},{"indexed":true,"internalType":"bytes32","name":"newAdminRole","type":"bytes32"}],"name":"RoleAdminChanged","type":"event"},{"anonymous":false,"inputs":[{"indexed":true,"internalType":"bytes32","name":"role","type":"bytes32"},{"indexed":true,"internalType":"address","name":"account","type":"address"},{"indexed":true,"internalType":"address","name":"sender","type":"address"}],"name":"RoleGranted","type":"event"},{"anonymous":false,"inputs":[{"indexed":true,"internalType":"bytes32","name":"role","type":"bytes32"},{"indexed":true,"internalType":"address","name":"account","type":"address"},{"indexed":true,"internalType":"address","name":"sender","type":"address"}],"name":"RoleRevoked","type":"event"},{"anonymous":false,"inputs":[{"indexed":false,"internalType":"uint256","name":"totalListings","type":"uint256"},{"indexed":false,"internalType":"uint256","name":"totalRentals","type":"uint256"},{"indexed":false,"internalType":"uint256","name":"totalDisputes","type":"uint256"},{"indexed":false,"internalType":"uint256","name":"totalVolume","type":"uint256"}],"name":"StatisticsUpdated","type":"event"},{"anonymous":false,"inputs":[{"indexed":false,"internalType":"address","name":"account","type":"address"}],"name":"Unpaused","type":"event"},{"inputs":[],"name":"ADMIN_ROLE","outputs":[{"internalType":"bytes32","name":"","type":"bytes32"}],"stateMutability":"view","type":"function"},{"inputs":[],"name":"ARBITRATOR_ROLE","outputs":[{"internalType":"bytes32","name":"","type":"bytes32"}],"stateMutability":"view","type":"function"},{"inputs":[],"name":"DEFAULT_ADMIN_ROLE","outputs":[{"internalType":"bytes32","name":"","type":"bytes32"}],"stateMutability":"view","type":"function"},{"inputs":[{"internalType":"uint256","name":"rentalId","type":"uint256"}],"name":"agreeReturn","outputs":[],"stateMutability":"nonpayable","type":"function"},{"inputs":[],"name":"arbitration","outputs":[{"internalType":"contract Arbitration","name":"","type":"address"}],"stateMutability":"view","type":"function"},{"inputs":[{"internalType":"string","name":"title","type":"string"},{"internalType":"string","name":"description","type":"string"},{"internalType":"uint256","name":"pricePerDay","type":"uint256"},{"internalType":"uint256","name":"deposit","type":"uint256"},{"internalType":"string","name":"ipfsHash","type":"string"}],"name":"createListing","outputs":[],"stateMutability":"nonpayable","type":"function"},{"inputs":[{"internalType":"uint256","name":"listingId","type":"uint256"},{"internalType":"address","name":"landlord","type":"address"},{"internalType":"uint256","name":"deposit","type":"uint256"},{"internalType":"uint256","name":"totalRent","type":"uint256"},{"internalType":"uint256","name":"startDate","type":"uint256"},{"internalType":"uint256","name":"endDate","type":"uint256"}],"name":"createRental","outputs":[],"stateMutability":"nonpayable","type":"function"},{"inputs":[{"internalType":"address","name":"reviewee","type":"address"},{"internalType":"uint256","name":"rating","type":"uint256"},{"internalType":"string","name":"reviewText","type":"string"},{"internalType":"string","name":"ipfsHash","type":"string"},{"internalType":"uint256","name":"rentalId","type":"uint256"},{"internalType":"enum Reputation.ReviewType","name":"reviewType","type":"uint8"}],"name":"createReview","outputs":[],"stateMutability":"nonpayable","type":"function"},{"inputs":[{"internalType":"enum SubscriptionManager.SubscriptionPlan","name":"plan","type":"uint8"},{"internalType":"uint256","name":"duration","type":"uint256"},{"internalType":"bool","name":"autoRenew","type":"bool"}],"name":"createSubscription","outputs":[],"stateMutability":"payable","type":"function"},{"inputs":[],"name":"getContractBalance","outputs":[{"internalType":"uint256","name":"","type":"uint256"}],"stateMutability":"view","type":"function"},{"inputs":[{"internalType":"uint256","name":"listingId","type":"uint256"}],"name":"getListing","outputs":[{"components":[{"internalType":"uint256","name":"listingId","type":"uint256"},{"internalType":"address","name":"landlord","type":"address"},{"internalType":"string","name":"title","type":"string"},{"internalType":"string","name":"description","type":"string"},{"internalType":"uint256","name":"pricePerDay","type":"uint256"},{"internalType":"uint256","name":"deposit","type":"uint256"},{"internalType":"bool","name":"isActive","type":"bool"},{"internalType":"string","name":"ipfsHash","type":"string"},{"internalType":"uint256","name":"createdAt","type":"uint256"},{"internalType":"uint256","name":"updatedAt","type":"uint256"}],"internalType":"struct ListingRegistry.PropertyListing","name":"","type":"tuple"}],"stateMutability":"view","type":"function"},{"inputs":[],"name":"getPlatformStatistics","outputs":[{"internalType":"uint256","name":"","type":"uint256"},{"internalType":"uint256","name":"","type":"uint256"},{"internalType":"uint256","name":"","type":"uint256"},{"internalType":"uint256","name":"","type":"uint256"}],"stateMutability":"view","type":"function"},{"inputs":[{"internalType":"uint256","name":"rentalId","type":"uint256"}],"name":"getRental","outputs":[{"components":[{"internalType":"uint256","name":"rentalId","type":"uint256"},{"internalType":"uint256","name":"listingId","type":"uint256"},{"internalType":"address","name":"tenant","type":"address"},{"internalType":"address","name":"landlord","type":"address"},{"internalType":"uint256","name":"deposit","type":"uint256"},{"internalType":"uint256","name":"totalRent","type":"uint256"},{"internalType":"uint256","name":"startDate","type":"uint256"},{"internalType":"uint256","name":"endDate","type":"uint256"},{"internalType":"enum RentalEscrow.RentalStatus","name":"status","type":"uint8"},{"internalType":"uint256","name":"createdAt","type":"uint256"},{"internalType":"uint256","name":"updatedAt","type":"uint256"},{"internalType":"string","name":"contractIpfsHash","type":"string"},{"internalType":"bool","name":"tenantSigned","type":"bool"},{"internalType":"bool","name":"landlordSigned","type":"bool"},{"internalType":"address","name":"arbitrator","type":"address"},{"internalType":"uint256","name":"disputeOpenedAt","type":"uint256"},{"internalType":"string","name":"disputeReason","type":"string"},{"internalType":"string","name":"disputeIpfsHash","type":"string"}],"internalType":"struct RentalEscrow.Rental","name":"","type":"tuple"}],"stateMutability":"view","type":"function"},{"inputs":[{"internalType":"bytes32","name":"role","type":"bytes32"}],"name":"getRoleAdmin","outputs":[{"internalType":"bytes32","name":"","type":"bytes32"}],"stateMutability":"view","type":"function"},{"inputs":[],"name":"getTotalListings","outputs":[{"internalType":"uint256","name":"","type":"uint256"}],"stateMutability":"view","type":"function"},{"inputs":[{"internalType":"address","name":"user","type":"address"}],"name":"getUserListingHistory","outputs":[{"internalType":"uint256[]","name":"","type":"uint256[]"}],"stateMutability":"view","type":"function"},{"inputs":[{"internalType":"address","name":"user","type":"address"}],"name":"getUserRentalHistory","outputs":[{"internalType":"uint256[]","name":"","type":"uint256[]"}],"stateMutability":"view","type":"function"},{"inputs":[{"internalType":"address","name":"user","type":"address"}],"name":"getUserReputation","outputs":[{"components":[{"internalType":"address","name":"user","type":"address"},{"internalType":"uint256","name":"totalReviews","type":"uint256"},{"internalType":"uint256","name":"totalRatingSum","type":"uint256"},{"internalType":"uint256","name":"reputationScore","type":"uint256"},{"internalType":"uint256","name":"completedRentals","type":"uint256"},{"internalType":"uint256","name":"cancelledRentals","type":"uint256"},{"internalType":"uint256","name":"disputeCount","type":"uint256"},{"internalType":"bool","name":"isVerified","type":"bool"},{"internalType":"uint256","name":"lastUpdated","type":"uint256"}],"internalType":"struct Reputation.UserReputation","name":"","type":"tuple"}],"stateMutability":"view","type":"function"},{"inputs":[{"internalType":"bytes32","name":"role","type":"bytes32"},{"internalType":"address","name":"account","type":"address"}],"name":"grantRole","outputs":[],"stateMutability":"nonpayable","type":"function"},{"inputs":[{"internalType":"address","name":"user","type":"address"},{"internalType":"uint256","name":"feature","type":"uint256"}],"name":"hasPremiumFeature","outputs":[{"internalType":"bool","name":"","type":"bool"}],"stateMutability":"view","type":"function"},{"inputs":[{"internalType":"bytes32","name":"role","type":"bytes32"},{"internalType":"address","name":"account","type":"address"}],"name":"hasRole","outputs":[{"internalType":"bool","name":"","type":"bool"}],"stateMutability":"view","type":"function"},{"inputs":[{"internalType":"address","name":"_listingRegistry","type":"address"},{"internalType":"address payable","name":"_rentalEscrow","type":"address"},{"internalType":"address","name":"_arbitration","type":"address"},{"internalType":"address payable","name":"_subscriptionManager","type":"address"},{"internalType":"address","name":"_reputation","type":"address"}],"name":"initializePlatform","outputs":[],"stateMutability":"nonpayable","type":"function"},{"inputs":[],"name":"listingRegistry","outputs":[{"internalType":"contract ListingRegistry","name":"","type":"address"}],"stateMutability":"view","type":"function"},{"inputs":[{"internalType":"uint256","name":"rentalId","type":"uint256"}],"name":"makeDeposit","outputs":[],"stateMutability":"payable","type":"function"},{"inputs":[{"internalType":"uint256","name":"rentalId","type":"uint256"},{"internalType":"address","name":"token","type":"address"}],"name":"makeDepositWithToken","outputs":[],"stateMutability":"nonpayable","type":"function"},{"inputs":[{"internalType":"uint256","name":"rentalId","type":"uint256"},{"internalType":"string","name":"reason","type":"string"},{"internalType":"string","name":"disputeIpfsHash","type":"string"}],"name":"openDispute","outputs":[],"stateMutability":"nonpayable","type":"function"},{"inputs":[],"name":"pausePlatform","outputs":[],"stateMutability":"nonpayable","type":"function"},{"inputs":[],"name":"paused","outputs":[{"internalType":"bool","name":"","type":"bool"}],"stateMutability":"view","type":"function"},{"inputs":[{"internalType":"bytes32","name":"role","type":"bytes32"},{"internalType":"address","name":"callerConfirmation","type":"address"}],"name":"renounceRole","outputs":[],"stateMutability":"nonpayable","type":"function"},{"inputs":[],"name":"rentalEscrow","outputs":[{"internalType":"contract RentalEscrow","name":"","type":"address"}],"stateMutability":"view","type":"function"},{"inputs":[],"name":"reputation","outputs":[{"internalType":"contract Reputation","name":"","type":"address"}],"stateMutability":"view","type":"function"},{"inputs":[{"internalType":"bytes32","name":"role","type":"bytes32"},{"internalType":"address","name":"account","type":"address"}],"name":"revokeRole","outputs":[],"stateMutability":"nonpayable","type":"function"},{"inputs":[{"internalType":"uint256","name":"rentalId","type":"uint256"},{"internalType":"string","name":"contractIpfsHash","type":"string"}],"name":"signContract","outputs":[],"stateMutability":"nonpayable","type":"function"},{"inputs":[],"name":"subscriptionManager","outputs":[{"internalType":"contract SubscriptionManager","name":"","type":"address"}],"stateMutability":"view","type":"function"},{"inputs":[{"internalType":"bytes4","name":"interfaceId","type":"bytes4"}],"name":"supportsInterface","outputs":[{"internalType":"bool","name":"","type":"bool"}],"stateMutability":"view","type":"function"},{"inputs":[],"name":"totalDisputes","outputs":[{"internalType":"uint256","name":"","type":"uint256"}],"stateMutability":"view","type":"function"},{"inputs":[],"name":"totalListings","outputs":[{"internalType":"uint256","name":"","type":"uint256"}],"stateMutability":"view","type":"function"},{"inputs":[],"name":"totalRentals","outputs":[{"internalType":"uint256","name":"","type":"uint256"}],"stateMutability":"view","type":"function"},{"inputs":[],"name":"totalVolume","outputs":[{"internalType":"uint256","name":"","type":"uint256"}],"stateMutability":"view","type":"function"},{"inputs":[],"name":"unpausePlatform","outputs":[],"stateMutability":"nonpayable","type":"function"},{"inputs":[{"internalType":"uint256","name":"amount","type":"uint256"}],"name":"withdrawFees","outputs":[],"stateMutability":"nonpayable","type":"function"},{"stateMutability":"payable","type":"receive"}],"evm":{"bytecode":{"linkReferences":{},"object":"608060405234610030576001805561001633610035565b50610020336100b1565b50604051612248908161014a8239f35b600080fd5b6001600160a01b03811660009081526000805160206123d2833981519152602052604090205460ff166100ab576001600160a01b031660008181526000805160206123d283398151915260205260408120805460ff191660011790553391906000805160206123928339815191528180a4600190565b50600090565b6001600160a01b03811660009081526000805160206123b2833981519152602052604090205460ff166100ab576001600160a01b031660008181526000805160206123b283398151915260205260408120805460ff191660011790553391907fa49807205ce4d355092ef5a8a18f56e8913cf4a201fbe287825b095693c21775906000805160206123928339815191529080a460019056fe608080604052600436101561001d575b50361561001b57600080fd5b005b600090813560e01c90816301ffc9a714611cb457508063059a500c14611c4f5780630a396a4a14611bd25780630fc376a714611b6c578063107a274a1461190e5780631a9ba7eb1461178b578063248a9ca31461175557806324df1f70146117015780632f2ff15d146116c057806336568abe1461167b57806349041359146113c75780635603e8601461138d5780635c975abb1461136a5780635e318e07146112e95780635ebf3e9b146112bc5780635f81a57c1461129e578063652bd29e14610f115780636b78c29b14610d9b5780636f9fb98a14610d7f57806375b238fc14610d445780637d04470a14610c4857806391d1485414610bfd5780639492e30214610b695780639b73235014610b405780639cea078714610b05578063a217fddf14610ae9578063a4e18cd7146109b4578063ad36d666146108ff578063baccbfdb14610757578063bd55cc3a1461067c578063bf158fd214610653578063c52164c61461062a578063c5e4ccc41461060c578063c78b616c146105ee578063cc2ee0fc1461042b578063d547741f146103e1578063dd4b22d1146103c3578063e970a1201461039a578063fbf30c351461030d578063fc78aef1146102965763fea14f5e0361000f573461028357604036600319011261028357806024356001600160401b0381116102935761021a903690600401611e62565b6003546001600160a01b0316803b15610291576102618392918392604051948580948193637f50a7af60e11b83526004356004840152604060248401526044830190611d97565b03925af18015610286576102725750f35b8161027c91611e26565b6102835780f35b80fd5b6040513d84823e3d90fd5b505b50fd5b503461028357604036600319011261028357806102b1611d24565b6102b9611fef565b6003546001600160a01b031690813b156102915760405163fc78aef160e01b815260048035908201526001600160a01b0390911660248201529082908290604490829084905af18015610286576102725750f35b503461028357806003193601126102835760025460405163fbf30c3560e01b8152906020908290600490829060081c6001600160a01b03165afa908115610286578291610360575b602082604051908152f35b90506020813d602011610392575b8161037b60209383611e26565b8101031261038e57602091505138610355565b5080fd5b3d915061036e565b50346102835780600319360112610283576003546040516001600160a01b039091168152602090f35b50346102835780600319360112610283576020600854604051908152f35b503461028357604036600319011261028357610427600435610401611d24565b9061042261041d82600052600060205260016040600020015490565b61207e565b612144565b5080f35b50346102835760a0366003190112610283576004356001600160401b03811161038e5761045c903690600401611e62565b6024356001600160401b0381116105ea5761047b903690600401611e62565b9060643590604435846084356001600160401b03811161038e576104a3903690600401611e62565b946104ac611fef565b60025460081c6001600160a01b0316803b156105ea5761050c839161052a9383604051809681958294633158e5f360e01b845233600485015260c060248501526104fa8d60c4860190611d97565b84810360031901604486015290611d97565b8a60648401528c60848401526003198382030160a48401528d611d97565b03925af18015610286576105d1575b5050610546600754611fbd565b92836007556105536121c6565b60001984019384116105bd57916105b761059d927f4bac60dc51a3e92083b5ca70985d572a37b735058b5e86413c4f01c48b3339c594604051948594608086526080860190611d97565b916020850152604084015282810360608401523396611d97565b0390a380f35b634e487b7160e01b86526011600452602486fd5b816105db91611e26565b6105e6578438610539565b8480fd5b8280fd5b50346102835780600319360112610283576020600754604051908152f35b50346102835780600319360112610283576020600954604051908152f35b50346102835780600319360112610283576006546040516001600160a01b039091168152602090f35b50346102835780600319360112610283576005546040516001600160a01b039091168152602090f35b50346102835760c036600319011261028357610696611d24565b60443582606435926106a6611fef565b6003546001600160a01b031690813b156105ea57829160c483926040519485938492635eaae61d60e11b8452600435600485015260018060a01b03166024840152886044840152896064840152608435608484015260a43560a48401525af1801561028657610742575b5061073461072c8484610724600854611fbd565b600855611fe2565b600a54611fe2565b600a5561073f6121c6565b80f35b8161074c91611e26565b6105ea578238610710565b503461028357602036600319011261028357610771611d09565b8161010060405161078181611e0a565b8281528260208201528260408201528260608201528260808201528260a08201528260c08201528260e0820152015261012060018060a01b03600654169160246040518094819363baccbfdb60e01b835260018060a01b031660048301525afa908115610286578291610858575b610120826101006040519160018060a01b0381511683526020810151602084015260408101516040840152606081015160608401526080810151608084015260a081015160a084015260c081015160c084015260e0810151151560e08401520151610100820152f35b9050610120813d82116108f7575b816108746101209383611e26565b8101031261038e5761012091506101006040519161089183611e0a565b61089a81611f2c565b83526020810151602084015260408101516040840152606081015160608401526080810151608084015260a081015160a084015260c081015160c08401526108e460e08201611f85565b60e08401520151610100820152386107ef565b3d9150610866565b503461028357604036600319011261028357610919611d09565b600554604051638043834960e01b81526001600160a01b0392831660048201526024803590820152929160209184916044918391165afa9081156109a857809161096b575b6020826040519015158152f35b90506020823d6020116109a0575b8161098660209383611e26565b81010312610283575061099a602091611f85565b3861095e565b3d9150610979565b604051903d90823e3d90fd5b503461028357606036600319011261028357806004356024356001600160401b038111610291576109e9903690600401611e62565b906044356001600160401b038111610ad957610a09903690600401611e62565b6003546001600160a01b0316803b156105e65784604051809263a4e18cd760e01b8252818381610a3e888b8b60048501611f92565b03925af1908115610ade578591610ac4575b50506004546001600160a01b0316803b156105e657610a8993858094604051968795869485936338806e3160e11b855260048501611f92565b03925af1801561028657610aaf575b50610aa4600954611fbd565b60095561073f6121c6565b81610ab991611e26565b610283578038610a98565b81610ace91611e26565b610ad9578338610a50565b505050fd5b6040513d87823e3d90fd5b5034610283578060031936011261028357602090604051908152f35b503461028357806003193601126102835760206040517f16ceee8289685dd2a02b9c8ae81d2df373176ce53519e6284e2a2950d6546ffa8152f35b50346102835780600319360112610283576004546040516001600160a01b039091168152602090f35b503461028357602036600319011261028357610b83611d09565b600254604051636185fa0f60e01b81526001600160a01b0392831660048201529183918391602491839160089190911c165afa9081156102865782610bd69392610bda575b505060405191829182611d3a565b0390f35b610bf692503d8091833e610bee8183611e26565b810190611ea9565b3880610bc8565b5034610283576040366003190112610283576040610c19611d24565b91600435815280602052209060018060a01b0316600052602052602060ff604060002054166040519015158152f35b50346102835760c03660031901126102835780610c63611d09565b6044356001600160401b03811161029157610c82903690600401611e62565b6064356001600160401b038111610ad957610ca1903690600401611e62565b9160a4359160028310156105e657610cb7611fef565b6006546001600160a01b031690813b15610d405785610d0f938195610d2160405198899788968795633e82238560e11b875260018060a01b03166004870152602435602487015260c0604487015260c4860190611d97565b84810360031901606486015290611d97565b90608435608484015260a483015203925af18015610286576102725750f35b8580fd5b503461028357806003193601126102835760206040517fa49807205ce4d355092ef5a8a18f56e8913cf4a201fbe287825b095693c217758152f35b5034610283578060031936011261028357602047604051908152f35b5034610283578060031936011261028357610db461200c565b610dbc611fef565b600160ff1960025416176002557f62e78cea01bee320cd4e420270b5ea74000d11b0c9f74754ebdbfc544b05a2586020604051338152a160035481906001600160a01b0316803b1561029357818091600460405180948193638456cb5960e01b83525af1801561028657610efc575b506004546001600160a01b0316803b1561029357818091600460405180948193638456cb5960e01b83525af1801561028657610ee7575b506005546001600160a01b0316803b1561029357818091600460405180948193638456cb5960e01b83525af1801561028657610ed2575b506006546001600160a01b0316803b1561029357818091600460405180948193638456cb5960e01b83525af18015610286576102725750f35b81610edc91611e26565b610283578038610e99565b81610ef191611e26565b610283578038610e62565b81610f0691611e26565b610283578038610e2b565b5034610283576020366003190112610283576060610220604051610f3481611dee565b83815283602082015283604082015283838201528360808201528360a08201528360c08201528360e08201528361010082015283610120820152836101408201528261016082015283610180820152836101a0820152836101c0820152836101e082015282610200820152015260248160018060a01b036003541660405192838092633295e94f60e11b825260043560048301525afa908115610286578291611112575b506040519160208352815160208401526020820151604084015260018060a01b03604083015116606084015260018060a01b036060830151166080840152608082015160a084015260a082015160c084015260c082015160e084015260e08201516101008401526101008201519060058210156110fe57508291610bd6916101208401526101208101516101408401526101408101516101608401526102206110e9611097610160840151610240610180880152610260870190611d97565b61018084015115156101a08701526101a084015115156101c087015260018060a01b036101c0850151166101e08701526101e0840151610200870152610200840151601f198783030184880152611d97565b910151838203601f1901610240850152611d97565b634e487b7160e01b81526021600452602490fd5b90503d8083833e6111238183611e26565b8101906020818303126105ea578051906001600160401b03821161129a5701610240818303126105ea576040519161115a83611dee565b815183526020820151602084015261117460408301611f2c565b604084015261118560608301611f2c565b60608401526080820151608084015260a082015160a084015260c082015160c084015260e082015160e084015261010082015160058110156105e6576101008401526101208201516101208401526101408201516101408401526101608201516001600160401b0381116105e657816111ff918401611f40565b6101608401526112126101808301611f85565b6101808401526112256101a08301611f85565b6101a08401526112386101c08301611f2c565b6101c08401526101e08201516101e08401526102008201516001600160401b0381116105e6578161126a918401611f40565b6102008401526102208201516001600160401b0381116105e65761128e9201611f40565b61022082015238610fd8565b8380fd5b50346102835780600319360112610283576020600a54604051908152f35b503461028357806003193601126102835760025460405160089190911c6001600160a01b03168152602090f35b50346102835760203660031901126102835760043561130661200c565b47811161132e578180808093818115611325575b3390f1156109a85780f35b506108fc61131a565b60405162461bcd60e51b8152602060048201526014602482015273496e73756666696369656e742062616c616e636560601b6044820152606490fd5b5034610283578060031936011261028357602060ff600254166040519015158152f35b5034610283578060031936011261028357600754600854600954600a54604080519485526020850193909352918301526060820152608090f35b50346102835760a0366003190112610283576113e1611d09565b6113e9611d24565b6044356001600160a01b03811692919083900361129a576064356001600160a01b038116908190036105e6576084356001600160a01b0381169190829003610d405761143361200c565b6001600160a01b038416928315611637576001600160a01b03169485156115f25780156115ad57811561155c578215611517577f9328b8a339026c96335157e9360553f8b14d24d378543f549abc3f21e9b92c379560a09560025490610100600160a81b039060081b1690610100600160a81b03191617600255806001600160601b03871b6003541617600355816001600160601b03871b6004541617600455826001600160601b03871b6005541617600555836001600160601b03871b60065416176006556040519485526020850152604084015260608301526080820152a180f35b60405162461bcd60e51b815260206004820152601a60248201527f496e76616c69642072657075746174696f6e20616464726573730000000000006044820152606490fd5b60405162461bcd60e51b8152602060048201526024808201527f496e76616c696420737562736372697074696f6e206d616e61676572206164646044820152637265737360e01b6064820152608490fd5b60405162461bcd60e51b815260206004820152601b60248201527f496e76616c6964206172626974726174696f6e206164647265737300000000006044820152606490fd5b60405162461bcd60e51b815260206004820152601d60248201527f496e76616c69642072656e74616c20657363726f7720616464726573730000006044820152606490fd5b606460405162461bcd60e51b815260206004820152602060248201527f496e76616c6964206c697374696e6720726567697374727920616464726573736044820152fd5b503461028357604036600319011261028357611695611d24565b336001600160a01b038216036116b15761042790600435612144565b63334bd91960e11b8252600482fd5b5034610283576040366003190112610283576104276004356116e0611d24565b906116fc61041d82600052600060205260016040600020015490565b6120b9565b50346102835760203660031901126102835760035481906001600160a01b0316803b156102935781809160246040518094819363024df1f760e41b835260043560048401525af18015610286576102725750f35b5034610283576020366003190112610283576020611783600435600052600060205260016040600020015490565b604051908152f35b50346102835780600319360112610283576117a461200c565b60025460ff8116156118ff5760ff19166002557f5db9ee0a495bf2e6ff9c91a7834c1ba4fdd244a5e8aa4e537bd38aeae4b073aa6020604051338152a160035481906001600160a01b0316803b1561029357818091600460405180948193631fa5d41d60e11b83525af18015610286576118ea575b506004546001600160a01b0316803b1561029357818091600460405180948193631fa5d41d60e11b83525af18015610286576118d5575b506005546001600160a01b0316803b1561029357818091600460405180948193631fa5d41d60e11b83525af18015610286576118c0575b506006546001600160a01b0316803b1561029357818091600460405180948193631fa5d41d60e11b83525af18015610286576102725750f35b816118ca91611e26565b610283578038611887565b816118df91611e26565b610283578038611850565b816118f491611e26565b610283578038611819565b638dfc202b60e01b8252600482fd5b5034610283576020366003190112610283578060249161012060405161193381611dbc565b828152826020820152606060408201526060808201528260808201528260a08201528260c0820152606060e08201528261010082015201528060018060a01b0360025460081c166040519384809263083d13a560e11b825260043560048301525afa918215611b5f578192611a4e575b826040518091602082528051602083015260018060a01b036020820151166040830152610120611a37611a006119ea60408501516101406060880152610160870190611d97565b6060850151868203601f19016080880152611d97565b608084015160a086015260a084015160c086015260c0840151151560e086015260e0840151601f1986830301610100870152611d97565b916101008101518285015201516101408301520390f35b9091503d8083833e611a608183611e26565b8101906020818303126105ea578051906001600160401b03821161129a570190610140828203126105ea5760405192611a9884611dbc565b82518452611aa860208401611f2c565b602085015260408301516001600160401b03811161038e5782611acc918501611f40565b604085015260608301516001600160401b03811161038e5782611af0918501611f40565b60608501526080830151608085015260a083015160a0850152611b1560c08401611f85565b60c085015260e0830151906001600160401b03821161028357508291611b3f916101209401611f40565b60e0840152610100810151610100840152015161012082015238806119a3565b50604051903d90823e3d90fd5b503461028357602036600319011261028357611b86611d09565b60035460405163db8011ef60e01b81526001600160a01b03928316600482015291839183916024918391165afa9081156102865782610bd69392610bda57505060405191829182611d3a565b50606036600319011261028357806004356003811015610293576044359081151580920361029157611c02611fef565b6005546001600160a01b031691823b15610ad95760648492604051948593849263051cb52560e11b845260048401526024356024840152604483015234905af18015610286576102725750f35b50602036600319011261028357611c64611fef565b6003546001600160a01b031681813b15610283578060249260405193848092630166940360e21b8252600435600483015234905af18015611b5f57611ca65780f35b611caf91611e26565b388180f35b90503461038e57602036600319011261038e5760043563ffffffff60e01b81168091036105ea5760209250637965db0b60e01b8114908115611cf8575b5015158152f35b6301ffc9a760e01b14905038611cf1565b600435906001600160a01b0382168203611d1f57565b600080fd5b602435906001600160a01b0382168203611d1f57565b602060408183019282815284518094520192019060005b818110611d5e5750505090565b8251845260209384019390920191600101611d51565b60005b838110611d875750506000910152565b8181015183820152602001611d77565b90602091611db081518092818552858086019101611d74565b601f01601f1916010190565b61014081019081106001600160401b03821117611dd857604052565b634e487b7160e01b600052604160045260246000fd5b61024081019081106001600160401b03821117611dd857604052565b61012081019081106001600160401b03821117611dd857604052565b90601f801991011681019081106001600160401b03821117611dd857604052565b6001600160401b038111611dd857601f01601f191660200190565b81601f82011215611d1f57803590611e7982611e47565b92611e876040519485611e26565b82845260208383010111611d1f57816000926020809301838601378301015290565b602081830312611d1f578051906001600160401b038211611d1f57019080601f83011215611d1f578151916001600160401b038311611dd8578260051b9060405193611ef86020840186611e26565b8452602080850192820101928311611d1f57602001905b828210611f1c5750505090565b8151815260209182019101611f0f565b51906001600160a01b0382168203611d1f57565b81601f82011215611d1f578051611f5681611e47565b92611f646040519485611e26565b81845260208284010111611d1f57611f829160208085019101611d74565b90565b51908115158203611d1f57565b91611faf90611f8294928452606060208501526060840190611d97565b916040818403910152611d97565b6000198114611fcc5760010190565b634e487b7160e01b600052601160045260246000fd5b91908201809211611fcc57565b60ff60025416611ffb57565b63d93c066560e01b60005260046000fd5b3360009081527f7d7ffb7a348e1c6a02869081a26547b49160dd3df72d1d75a570eb9b698292ec602052604090205460ff161561204557565b63e2517d3f60e01b600052336004527fa49807205ce4d355092ef5a8a18f56e8913cf4a201fbe287825b095693c2177560245260446000fd5b60008181526020818152604080832033845290915290205460ff16156120a15750565b63e2517d3f60e01b6000523360045260245260446000fd5b6000818152602081815260408083206001600160a01b038616845290915290205460ff1661213d576000818152602081815260408083206001600160a01b0395909516808452949091528120805460ff19166001179055339291907f2f8788117e7eff1d82e926ec794901d17c78024a50270940304540a733656f0d9080a4600190565b5050600090565b6000818152602081815260408083206001600160a01b038616845290915290205460ff161561213d576000818152602081815260408083206001600160a01b0395909516808452949091528120805460ff19169055339291907ff6391f5c32d9c69d2a47ea670b442974b53935d1edc7fd64eb21e047a839171b9080a4600190565b600754600854600954600a546040805194855260208501939093529183015260608201527fb071b37babbcc9e46c3c9012509aede8ac4050fbebf8bc121816082742802cd990608090a156fea26469706673582212208331c95a3e022fce3ef214c9c1362a07a7f57bf717b7adaea99bdae03111479f64736f6c634300081c00332f8788117e7eff1d82e926ec794901d17c78024a50270940304540a733656f0d7d7ffb7a348e1c6a02869081a26547b49160dd3df72d1d75a570eb9b698292ecad3228b676f7d3cd4284a5443f17f1962b36e491b30a40b2405849e597ba5fb5","opcodes":"PUSH1 0x80 PUSH1 0x40 MSTORE CALLVALUE PUSH2 0x30 JUMPI PUSH1 0x1 DUP1 SSTORE PUSH2 0x16 CALLER PUSH2 0x35 JUMP JUMPDEST POP PUSH2 0x20 CALLER PUSH2 0xB1 JUMP JUMPDEST POP PUSH1 0x40 MLOAD PUSH2 0x2248 SWAP1 DUP2 PUSH2 0x14A DUP3 CODECOPY RETURN JUMPDEST PUSH1 0x0 DUP1 REVERT JUMPDEST PUSH1 0x1 PUSH1 0x1 PUSH1 0xA0 SHL SUB DUP2 AND PUSH1 0x0 SWAP1 DUP2 MSTORE PUSH1 0x0 DUP1 MLOAD PUSH1 0x20 PUSH2 0x23D2 DUP4 CODECOPY DUP2 MLOAD SWAP2 MSTORE PUSH1 0x20 MSTORE PUSH1 0x40 SWAP1 KECCAK256 SLOAD PUSH1 0xFF AND PUSH2 0xAB JUMPI PUSH1 0x1 PUSH1 0x1 PUSH1 0xA0 SHL SUB AND PUSH1 0x0 DUP2 DUP2 MSTORE PUSH1 0x0 DUP1 MLOAD PUSH1 0x20 PUSH2 0x23D2 DUP4 CODECOPY DUP2 MLOAD SWAP2 MSTORE PUSH1 0x20 MSTORE PUSH1 0x40 DUP2 KECCAK256 DUP1 SLOAD PUSH1 0xFF NOT AND PUSH1 0x1 OR SWAP1 SSTORE CALLER SWAP2 SWAP1 PUSH1 0x0 DUP1 MLOAD PUSH1 0x20 PUSH2 0x2392 DUP4 CODECOPY DUP2 MLOAD SWAP2 MSTORE DUP2 DUP1 LOG4 PUSH1 0x1 SWAP1 JUMP JUMPDEST POP PUSH1 0x0 SWAP1 JUMP JUMPDEST PUSH1 0x1 PUSH1 0x1 PUSH1 0xA0 SHL SUB DUP2 AND PUSH1 0x0 SWAP1 DUP2 MSTORE PUSH1 0x0 DUP1 MLOAD PUSH1 0x20 PUSH2 0x23B2 DUP4 CODECOPY DUP2 MLOAD SWAP2 MSTORE PUSH1 0x20 MSTORE PUSH1 0x40 SWAP1 KECCAK256 SLOAD PUSH1 0xFF AND PUSH2 0xAB JUMPI PUSH1 0x1 PUSH1 0x1 PUSH1 0xA0 SHL SUB AND PUSH1 0x0 DUP2 DUP2 MSTORE PUSH1 0x0 DUP1 MLOAD PUSH1 0x20 PUSH2 0x23B2 DUP4 CODECOPY DUP2 MLOAD SWAP2 MSTORE PUSH1 0x20 MSTORE PUSH1 0x40 DUP2 KECCAK256 DUP1 SLOAD PUSH1 0xFF NOT AND PUSH1 0x1 OR SWAP1 SSTORE CALLER SWAP2 SWAP1 PUSH32 0xA49807205CE4D355092EF5A8A18F56E8913CF4A201FBE287825B095693C21775 SWAP1 PUSH1 0x0 DUP1 MLOAD PUSH1 0x20 PUSH2 0x2392 DUP4 CODECOPY DUP2 MLOAD SWAP2 MSTORE SWAP1 DUP1 LOG4 PUSH1 0x1 SWAP1 JUMP INVALID PUSH1 0x80 DUP1 PUSH1 0x40 MSTORE PUSH1 0x4 CALLDATASIZE LT ISZERO PUSH2 0x1D JUMPI JUMPDEST POP CALLDATASIZE ISZERO PUSH2 0x1B JUMPI PUSH1 0x0 DUP1 REVERT JUMPDEST STOP JUMPDEST PUSH1 0x0 SWAP1 DUP2 CALLDATALOAD PUSH1 0xE0 SHR SWAP1 DUP2 PUSH4 0x1FFC9A7 EQ PUSH2 0x1CB4 JUMPI POP DUP1 PUSH4 0x59A500C EQ PUSH2 0x1C4F JUMPI DUP1 PUSH4 0xA396A4A EQ PUSH2 0x1BD2 JUMPI DUP1 PUSH4 0xFC376A7 EQ PUSH2 0x1B6C JUMPI DUP1 PUSH4 0x107A274A EQ PUSH2 0x190E JUMPI DUP1 PUSH4 0x1A9BA7EB EQ PUSH2 0x178B JUMPI DUP1 PUSH4 0x248A9CA3 EQ PUSH2 0x1755 JUMPI DUP1 PUSH4 0x24DF1F70 EQ PUSH2 0x1701 JUMPI DUP1 PUSH4 0x2F2FF15D EQ PUSH2 0x16C0 JUMPI DUP1 PUSH4 0x36568ABE EQ PUSH2 0x167B JUMPI DUP1 PUSH4 0x49041359 EQ PUSH2 0x13C7 JUMPI DUP1 PUSH4 0x5603E860 EQ PUSH2 0x138D JUMPI DUP1 PUSH4 0x5C975ABB EQ PUSH2 0x136A JUMPI DUP1 PUSH4 0x5E318E07 EQ PUSH2 0x12E9 JUMPI DUP1 PUSH4 0x5EBF3E9B EQ PUSH2 0x12BC JUMPI DUP1 PUSH4 0x5F81A57C EQ PUSH2 0x129E JUMPI DUP1 PUSH4 0x652BD29E EQ PUSH2 0xF11 JUMPI DUP1 PUSH4 0x6B78C29B EQ PUSH2 0xD9B JUMPI DUP1 PUSH4 0x6F9FB98A EQ PUSH2 0xD7F JUMPI DUP1 PUSH4 0x75B238FC EQ PUSH2 0xD44 JUMPI DUP1 PUSH4 0x7D04470A EQ PUSH2 0xC48 JUMPI DUP1 PUSH4 0x91D14854 EQ PUSH2 0xBFD JUMPI DUP1 PUSH4 0x9492E302 EQ PUSH2 0xB69 JUMPI DUP1 PUSH4 0x9B732350 EQ PUSH2 0xB40 JUMPI DUP1 PUSH4 0x9CEA0787 EQ PUSH2 0xB05 JUMPI DUP1 PUSH4 0xA217FDDF EQ PUSH2 0xAE9 JUMPI DUP1 PUSH4 0xA4E18CD7 EQ PUSH2 0x9B4 JUMPI DUP1 PUSH4 0xAD36D666 EQ PUSH2 0x8FF JUMPI DUP1 PUSH4 0xBACCBFDB EQ PUSH2 0x757 JUMPI DUP1 PUSH4 0xBD55CC3A EQ PUSH2 0x67C JUMPI DUP1 PUSH4 0xBF158FD2 EQ PUSH2 0x653 JUMPI DUP1 PUSH4 0xC52164C6 EQ PUSH2 0x62A JUMPI DUP1 PUSH4 0xC5E4CCC4 EQ PUSH2 0x60C JUMPI DUP1 PUSH4 0xC78B616C EQ PUSH2 0x5EE JUMPI DUP1 PUSH4 0xCC2EE0FC EQ PUSH2 0x42B JUMPI DUP1 PUSH4 0xD547741F EQ PUSH2 0x3E1 JUMPI DUP1 PUSH4 0xDD4B22D1 EQ PUSH2 0x3C3 JUMPI DUP1 PUSH4 0xE970A120 EQ PUSH2 0x39A JUMPI DUP1 PUSH4 0xFBF30C35 EQ PUSH2 0x30D JUMPI DUP1 PUSH4 0xFC78AEF1 EQ PUSH2 0x296 JUMPI PUSH4 0xFEA14F5E SUB PUSH2 0xF JUMPI CALLVALUE PUSH2 0x283 JUMPI PUSH1 0x40 CALLDATASIZE PUSH1 0x3 NOT ADD SLT PUSH2 0x283 JUMPI DUP1 PUSH1 0x24 CALLDATALOAD PUSH1 0x1 PUSH1 0x1 PUSH1 0x40 SHL SUB DUP2 GT PUSH2 0x293 JUMPI PUSH2 0x21A SWAP1 CALLDATASIZE SWAP1 PUSH1 0x4 ADD PUSH2 0x1E62 JUMP JUMPDEST PUSH1 0x3 SLOAD PUSH1 0x1 PUSH1 0x1 PUSH1 0xA0 SHL SUB AND DUP1 EXTCODESIZE ISZERO PUSH2 0x291 JUMPI PUSH2 0x261 DUP4 SWAP3 SWAP2 DUP4 SWAP3 PUSH1 0x40 MLOAD SWAP5 DUP6 DUP1 SWAP5 DUP2 SWAP4 PUSH4 0x7F50A7AF PUSH1 0xE1 SHL DUP4 MSTORE PUSH1 0x4 CALLDATALOAD PUSH1 0x4 DUP5 ADD MSTORE PUSH1 0x40 PUSH1 0x24 DUP5 ADD MSTORE PUSH1 0x44 DUP4 ADD SWAP1 PUSH2 0x1D97 JUMP JUMPDEST SUB SWAP3 GAS CALL DUP1 ISZERO PUSH2 0x286 JUMPI PUSH2 0x272 JUMPI POP RETURN JUMPDEST DUP2 PUSH2 0x27C SWAP2 PUSH2 0x1E26 JUMP JUMPDEST PUSH2 0x283 JUMPI DUP1 RETURN JUMPDEST DUP1 REVERT JUMPDEST PUSH1 0x40 MLOAD RETURNDATASIZE DUP5 DUP3 RETURNDATACOPY RETURNDATASIZE SWAP1 REVERT JUMPDEST POP JUMPDEST POP REVERT JUMPDEST POP CALLVALUE PUSH2 0x283 JUMPI PUSH1 0x40 CALLDATASIZE PUSH1 0x3 NOT ADD SLT PUSH2 0x283 JUMPI DUP1 PUSH2 0x2B1 PUSH2 0x1D24 JUMP JUMPDEST PUSH2 0x2B9 PUSH2 0x1FEF JUMP JUMPDEST PUSH1 0x3 SLOAD PUSH1 0x1 PUSH1 0x1 PUSH1 0xA0 SHL SUB AND SWAP1 DUP2 EXTCODESIZE ISZERO PUSH2 0x291 JUMPI PUSH1 0x40 MLOAD PUSH4 0xFC78AEF1 PUSH1 0xE0 SHL DUP2 MSTORE PUSH1 0x4 DUP1 CALLDATALOAD SWAP1 DUP3 ADD MSTORE PUSH1 0x1 PUSH1 0x1 PUSH1 0xA0 SHL SUB SWAP1 SWAP2 AND PUSH1 0x24 DUP3 ADD MSTORE SWAP1 DUP3 SWAP1 DUP3 SWAP1 PUSH1 0x44 SWAP1 DUP3 SWAP1 DUP5 SWAP1 GAS CALL DUP1 ISZERO PUSH2 0x286 JUMPI PUSH2 0x272 JUMPI POP RETURN JUMPDEST POP CALLVALUE PUSH2 0x283 JUMPI DUP1 PUSH1 0x3 NOT CALLDATASIZE ADD SLT PUSH2 0x283 JUMPI PUSH1 0x2 SLOAD PUSH1 0x40 MLOAD PUSH4 0xFBF30C35 PUSH1 0xE0 SHL DUP2 MSTORE SWAP1 PUSH1 0x20 SWAP1 DUP3 SWAP1 PUSH1 0x4 SWAP1 DUP3 SWAP1 PUSH1 0x8 SHR PUSH1 0x1 PUSH1 0x1 PUSH1 0xA0 SHL SUB AND GAS STATICCALL SWAP1 DUP2 ISZERO PUSH2 0x286 JUMPI DUP3 SWAP2 PUSH2 0x360 JUMPI JUMPDEST PUSH1 0x20 DUP3 PUSH1 0x40 MLOAD SWAP1 DUP2 MSTORE RETURN JUMPDEST SWAP1 POP PUSH1 0x20 DUP2 RETURNDATASIZE PUSH1 0x20 GT PUSH2 0x392 JUMPI JUMPDEST DUP2 PUSH2 0x37B PUSH1 0x20 SWAP4 DUP4 PUSH2 0x1E26 JUMP JUMPDEST DUP2 ADD SUB SLT PUSH2 0x38E JUMPI PUSH1 0x20 SWAP2 POP MLOAD CODESIZE PUSH2 0x355 JUMP JUMPDEST POP DUP1 REVERT JUMPDEST RETURNDATASIZE SWAP2 POP PUSH2 0x36E JUMP JUMPDEST POP CALLVALUE PUSH2 0x283 JUMPI DUP1 PUSH1 0x3 NOT CALLDATASIZE ADD SLT PUSH2 0x283 JUMPI PUSH1 0x3 SLOAD PUSH1 0x40 MLOAD PUSH1 0x1 PUSH1 0x1 PUSH1 0xA0 SHL SUB SWAP1 SWAP2 AND DUP2 MSTORE PUSH1 0x20 SWAP1 RETURN JUMPDEST POP CALLVALUE PUSH2 0x283 JUMPI DUP1 PUSH1 0x3 NOT CALLDATASIZE ADD SLT PUSH2 0x283 JUMPI PUSH1 0x20 PUSH1 0x8 SLOAD PUSH1 0x40 MLOAD SWAP1 DUP2 MSTORE RETURN JUMPDEST POP CALLVALUE PUSH2 0x283 JUMPI PUSH1 0x40 CALLDATASIZE PUSH1 0x3 NOT ADD SLT PUSH2 0x283 JUMPI PUSH2 0x427 PUSH1 0x4 CALLDATALOAD PUSH2 0x401 PUSH2 0x1D24 JUMP JUMPDEST SWAP1 PUSH2 0x422 PUSH2 0x41D DUP3 PUSH1 0x0 MSTORE PUSH1 0x0 PUSH1 0x20 MSTORE PUSH1 0x1 PUSH1 0x40 PUSH1 0x0 KECCAK256 ADD SLOAD SWAP1 JUMP JUMPDEST PUSH2 0x207E JUMP JUMPDEST PUSH2 0x2144 JUMP JUMPDEST POP DUP1 RETURN JUMPDEST POP CALLVALUE PUSH2 0x283 JUMPI PUSH1 0xA0 CALLDATASIZE PUSH1 0x3 NOT ADD SLT PUSH2 0x283 JUMPI PUSH1 0x4 CALLDATALOAD PUSH1 0x1 PUSH1 0x1 PUSH1 0x40 SHL SUB DUP2 GT PUSH2 0x38E JUMPI PUSH2 0x45C SWAP1 CALLDATASIZE SWAP1 PUSH1 0x4 ADD PUSH2 0x1E62 JUMP JUMPDEST PUSH1 0x24 CALLDATALOAD PUSH1 0x1 PUSH1 0x1 PUSH1 0x40 SHL SUB DUP2 GT PUSH2 0x5EA JUMPI PUSH2 0x47B SWAP1 CALLDATASIZE SWAP1 PUSH1 0x4 ADD PUSH2 0x1E62 JUMP JUMPDEST SWAP1 PUSH1 0x64 CALLDATALOAD SWAP1 PUSH1 0x44 CALLDATALOAD DUP5 PUSH1 0x84 CALLDATALOAD PUSH1 0x1 PUSH1 0x1 PUSH1 0x40 SHL SUB DUP2 GT PUSH2 0x38E JUMPI PUSH2 0x4A3 SWAP1 CALLDATASIZE SWAP1 PUSH1 0x4 ADD PUSH2 0x1E62 JUMP JUMPDEST SWAP5 PUSH2 0x4AC PUSH2 0x1FEF JUMP JUMPDEST PUSH1 0x2 SLOAD PUSH1 0x8 SHR PUSH1 0x1 PUSH1 0x1 PUSH1 0xA0 SHL SUB AND DUP1 EXTCODESIZE ISZERO PUSH2 0x5EA JUMPI PUSH2 0x50C DUP4 SWAP2 PUSH2 0x52A SWAP4 DUP4 PUSH1 0x40 MLOAD DUP1 SWAP7 DUP2 SWAP6 DUP3 SWAP5 PUSH4 0x3158E5F3 PUSH1 0xE0 SHL DUP5 MSTORE CALLER PUSH1 0x4 DUP6 ADD MSTORE PUSH1 0xC0 PUSH1 0x24 DUP6 ADD MSTORE PUSH2 0x4FA DUP14 PUSH1 0xC4 DUP7 ADD SWAP1 PUSH2 0x1D97 JUMP JUMPDEST DUP5 DUP2 SUB PUSH1 0x3 NOT ADD PUSH1 0x44 DUP7 ADD MSTORE SWAP1 PUSH2 0x1D97 JUMP JUMPDEST DUP11 PUSH1 0x64 DUP5 ADD MSTORE DUP13 PUSH1 0x84 DUP5 ADD MSTORE PUSH1 0x3 NOT DUP4 DUP3 SUB ADD PUSH1 0xA4 DUP5 ADD MSTORE DUP14 PUSH2 0x1D97 JUMP JUMPDEST SUB SWAP3 GAS CALL DUP1 ISZERO PUSH2 0x286 JUMPI PUSH2 0x5D1 JUMPI JUMPDEST POP POP PUSH2 0x546 PUSH1 0x7 SLOAD PUSH2 0x1FBD JUMP JUMPDEST SWAP3 DUP4 PUSH1 0x7 SSTORE PUSH2 0x553 PUSH2 0x21C6 JUMP JUMPDEST PUSH1 0x0 NOT DUP5 ADD SWAP4 DUP5 GT PUSH2 0x5BD JUMPI SWAP2 PUSH2 0x5B7 PUSH2 0x59D SWAP3 PUSH32 0x4BAC60DC51A3E92083B5CA70985D572A37B735058B5E86413C4F01C48B3339C5 SWAP5 PUSH1 0x40 MLOAD SWAP5 DUP6 SWAP5 PUSH1 0x80 DUP7 MSTORE PUSH1 0x80 DUP7 ADD SWAP1 PUSH2 0x1D97 JUMP JUMPDEST SWAP2 PUSH1 0x20 DUP6 ADD MSTORE PUSH1 0x40 DUP5 ADD MSTORE DUP3 DUP2 SUB PUSH1 0x60 DUP5 ADD MSTORE CALLER SWAP7 PUSH2 0x1D97 JUMP JUMPDEST SUB SWAP1 LOG3 DUP1 RETURN JUMPDEST PUSH4 0x4E487B71 PUSH1 0xE0 SHL DUP7 MSTORE PUSH1 0x11 PUSH1 0x4 MSTORE PUSH1 0x24 DUP7 REVERT JUMPDEST DUP2 PUSH2 0x5DB SWAP2 PUSH2 0x1E26 JUMP JUMPDEST PUSH2 0x5E6 JUMPI DUP5 CODESIZE PUSH2 0x539 JUMP JUMPDEST DUP5 DUP1 REVERT JUMPDEST DUP3 DUP1 REVERT JUMPDEST POP CALLVALUE PUSH2 0x283 JUMPI DUP1 PUSH1 0x3 NOT CALLDATASIZE ADD SLT PUSH2 0x283 JUMPI PUSH1 0x20 PUSH1 0x7 SLOAD PUSH1 0x40 MLOAD SWAP1 DUP2 MSTORE RETURN JUMPDEST POP CALLVALUE PUSH2 0x283 JUMPI DUP1 PUSH1 0x3 NOT CALLDATASIZE ADD SLT PUSH2 0x283 JUMPI PUSH1 0x20 PUSH1 0x9 SLOAD PUSH1 0x40 MLOAD SWAP1 DUP2 MSTORE RETURN JUMPDEST POP CALLVALUE PUSH2 0x283 JUMPI DUP1 PUSH1 0x3 NOT CALLDATASIZE ADD SLT PUSH2 0x283 JUMPI PUSH1 0x6 SLOAD PUSH1 0x40 MLOAD PUSH1 0x1 PUSH1 0x1 PUSH1 0xA0 SHL SUB SWAP1 SWAP2 AND DUP2 MSTORE PUSH1 0x20 SWAP1 RETURN JUMPDEST POP CALLVALUE PUSH2 0x283 JUMPI DUP1 PUSH1 0x3 NOT CALLDATASIZE ADD SLT PUSH2 0x283 JUMPI PUSH1 0x5 SLOAD PUSH1 0x40 MLOAD PUSH1 0x1 PUSH1 0x1 PUSH1 0xA0 SHL SUB SWAP1 SWAP2 AND DUP2 MSTORE PUSH1 0x20 SWAP1 RETURN JUMPDEST POP CALLVALUE PUSH2 0x283 JUMPI PUSH1 0xC0 CALLDATASIZE PUSH1 0x3 NOT ADD SLT PUSH2 0x283 JUMPI PUSH2 0x696 PUSH2 0x1D24 JUMP JUMPDEST PUSH1 0x44 CALLDATALOAD DUP3 PUSH1 0x64 CALLDATALOAD SWAP3 PUSH2 0x6A6 PUSH2 0x1FEF JUMP JUMPDEST PUSH1 0x3 SLOAD PUSH1 0x1 PUSH1 0x1 PUSH1 0xA0 SHL SUB AND SWAP1 DUP2 EXTCODESIZE ISZERO PUSH2 0x5EA JUMPI DUP3 SWAP2 PUSH1 0xC4 DUP4 SWAP3 PUSH1 0x40 MLOAD SWAP5 DUP6 SWAP4 DUP5 SWAP3 PUSH4 0x5EAAE61D PUSH1 0xE1 SHL DUP5 MSTORE PUSH1 0x4 CALLDATALOAD PUSH1 0x4 DUP6 ADD MSTORE PUSH1 0x1 DUP1 PUSH1 0xA0 SHL SUB AND PUSH1 0x24 DUP5 ADD MSTORE DUP9 PUSH1 0x44 DUP5 ADD MSTORE DUP10 PUSH1 0x64 DUP5 ADD MSTORE PUSH1 0x84 CALLDATALOAD PUSH1 0x84 DUP5 ADD MSTORE PUSH1 0xA4 CALLDATALOAD PUSH1 0xA4 DUP5 ADD MSTORE GAS CALL DUP1 ISZERO PUSH2 0x286 JUMPI PUSH2 0x742 JUMPI JUMPDEST POP PUSH2 0x734 PUSH2 0x72C DUP5 DUP5 PUSH2 0x724 PUSH1 0x8 SLOAD PUSH2 0x1FBD JUMP JUMPDEST PUSH1 0x8 SSTORE PUSH2 0x1FE2 JUMP JUMPDEST PUSH1 0xA SLOAD PUSH2 0x1FE2 JUMP JUMPDEST PUSH1 0xA SSTORE PUSH2 0x73F PUSH2 0x21C6 JUMP JUMPDEST DUP1 RETURN JUMPDEST DUP2 PUSH2 0x74C SWAP2 PUSH2 0x1E26 JUMP JUMPDEST PUSH2 0x5EA JUMPI DUP3 CODESIZE PUSH2 0x710 JUMP JUMPDEST POP CALLVALUE PUSH2 0x283 JUMPI PUSH1 0x20 CALLDATASIZE PUSH1 0x3 NOT ADD SLT PUSH2 0x283 JUMPI PUSH2 0x771 PUSH2 0x1D09 JUMP JUMPDEST DUP2 PUSH2 0x100 PUSH1 0x40 MLOAD PUSH2 0x781 DUP2 PUSH2 0x1E0A JUMP JUMPDEST DUP3 DUP2 MSTORE DUP3 PUSH1 0x20 DUP3 ADD MSTORE DUP3 PUSH1 0x40 DUP3 ADD MSTORE DUP3 PUSH1 0x60 DUP3 ADD MSTORE DUP3 PUSH1 0x80 DUP3 ADD MSTORE DUP3 PUSH1 0xA0 DUP3 ADD MSTORE DUP3 PUSH1 0xC0 DUP3 ADD MSTORE DUP3 PUSH1 0xE0 DUP3 ADD MSTORE ADD MSTORE PUSH2 0x120 PUSH1 0x1 DUP1 PUSH1 0xA0 SHL SUB PUSH1 0x6 SLOAD AND SWAP2 PUSH1 0x24 PUSH1 0x40 MLOAD DUP1 SWAP5 DUP2 SWAP4 PUSH4 0xBACCBFDB PUSH1 0xE0 SHL DUP4 MSTORE PUSH1 0x1 DUP1 PUSH1 0xA0 SHL SUB AND PUSH1 0x4 DUP4 ADD MSTORE GAS STATICCALL SWAP1 DUP2 ISZERO PUSH2 0x286 JUMPI DUP3 SWAP2 PUSH2 0x858 JUMPI JUMPDEST PUSH2 0x120 DUP3 PUSH2 0x100 PUSH1 0x40 MLOAD SWAP2 PUSH1 0x1 DUP1 PUSH1 0xA0 SHL SUB DUP2 MLOAD AND DUP4 MSTORE PUSH1 0x20 DUP2 ADD MLOAD PUSH1 0x20 DUP5 ADD MSTORE PUSH1 0x40 DUP2 ADD MLOAD PUSH1 0x40 DUP5 ADD MSTORE PUSH1 0x60 DUP2 ADD MLOAD PUSH1 0x60 DUP5 ADD MSTORE PUSH1 0x80 DUP2 ADD MLOAD PUSH1 0x80 DUP5 ADD MSTORE PUSH1 0xA0 DUP2 ADD MLOAD PUSH1 0xA0 DUP5 ADD MSTORE PUSH1 0xC0 DUP2 ADD MLOAD PUSH1 0xC0 DUP5 ADD MSTORE PUSH1 0xE0 DUP2 ADD MLOAD ISZERO ISZERO PUSH1 0xE0 DUP5 ADD MSTORE ADD MLOAD PUSH2 0x100 DUP3 ADD MSTORE RETURN JUMPDEST SWAP1 POP PUSH2 0x120 DUP2 RETURNDATASIZE DUP3 GT PUSH2 0x8F7 JUMPI JUMPDEST DUP2 PUSH2 0x874 PUSH2 0x120 SWAP4 DUP4 PUSH2 0x1E26 JUMP JUMPDEST DUP2 ADD SUB SLT PUSH2 0x38E JUMPI PUSH2 0x120 SWAP2 POP PUSH2 0x100 PUSH1 0x40 MLOAD SWAP2 PUSH2 0x891 DUP4 PUSH2 0x1E0A JUMP JUMPDEST PUSH2 0x89A DUP2 PUSH2 0x1F2C JUMP JUMPDEST DUP4 MSTORE PUSH1 0x20 DUP2 ADD MLOAD PUSH1 0x20 DUP5 ADD MSTORE PUSH1 0x40 DUP2 ADD MLOAD PUSH1 0x40 DUP5 ADD MSTORE PUSH1 0x60 DUP2 ADD MLOAD PUSH1 0x60 DUP5 ADD MSTORE PUSH1 0x80 DUP2 ADD MLOAD PUSH1 0x80 DUP5 ADD MSTORE PUSH1 0xA0 DUP2 ADD MLOAD PUSH1 0xA0 DUP5 ADD MSTORE PUSH1 0xC0 DUP2 ADD MLOAD PUSH1 0xC0 DUP5 ADD MSTORE PUSH2 0x8E4 PUSH1 0xE0 DUP3 ADD PUSH2 0x1F85 JUMP JUMPDEST PUSH1 0xE0 DUP5 ADD MSTORE ADD MLOAD PUSH2 0x100 DUP3 ADD MSTORE CODESIZE PUSH2 0x7EF JUMP JUMPDEST RETURNDATASIZE SWAP2 POP PUSH2 0x866 JUMP JUMPDEST POP CALLVALUE PUSH2 0x283 JUMPI PUSH1 0x40 CALLDATASIZE PUSH1 0x3 NOT ADD SLT PUSH2 0x283 JUMPI PUSH2 0x919 PUSH2 0x1D09 JUMP JUMPDEST PUSH1 0x5 SLOAD PUSH1 0x40 MLOAD PUSH4 0x80438349 PUSH1 0xE0 SHL DUP2 MSTORE PUSH1 0x1 PUSH1 0x1 PUSH1 0xA0 SHL SUB SWAP3 DUP4 AND PUSH1 0x4 DUP3 ADD MSTORE PUSH1 0x24 DUP1 CALLDATALOAD SWAP1 DUP3 ADD MSTORE SWAP3 SWAP2 PUSH1 0x20 SWAP2 DUP5 SWAP2 PUSH1 0x44 SWAP2 DUP4 SWAP2 AND GAS STATICCALL SWAP1 DUP2 ISZERO PUSH2 0x9A8 JUMPI DUP1 SWAP2 PUSH2 0x96B JUMPI JUMPDEST PUSH1 0x20 DUP3 PUSH1 0x40 MLOAD SWAP1 ISZERO ISZERO DUP2 MSTORE RETURN JUMPDEST SWAP1 POP PUSH1 0x20 DUP3 RETURNDATASIZE PUSH1 0x20 GT PUSH2 0x9A0 JUMPI JUMPDEST DUP2 PUSH2 0x986 PUSH1 0x20 SWAP4 DUP4 PUSH2 0x1E26 JUMP JUMPDEST DUP2 ADD SUB SLT PUSH2 0x283 JUMPI POP PUSH2 0x99A PUSH1 0x20 SWAP2 PUSH2 0x1F85 JUMP JUMPDEST CODESIZE PUSH2 0x95E JUMP JUMPDEST RETURNDATASIZE SWAP2 POP PUSH2 0x979 JUMP JUMPDEST PUSH1 0x40 MLOAD SWAP1 RETURNDATASIZE SWAP1 DUP3 RETURNDATACOPY RETURNDATASIZE SWAP1 REVERT JUMPDEST POP CALLVALUE PUSH2 0x283 JUMPI PUSH1 0x60 CALLDATASIZE PUSH1 0x3 NOT ADD SLT PUSH2 0x283 JUMPI DUP1 PUSH1 0x4 CALLDATALOAD PUSH1 0x24 CALLDATALOAD PUSH1 0x1 PUSH1 0x1 PUSH1 0x40 SHL SUB DUP2 GT PUSH2 0x291 JUMPI PUSH2 0x9E9 SWAP1 CALLDATASIZE SWAP1 PUSH1 0x4 ADD PUSH2 0x1E62 JUMP JUMPDEST SWAP1 PUSH1 0x44 CALLDATALOAD PUSH1 0x1 PUSH1 0x1 PUSH1 0x40 SHL SUB DUP2 GT PUSH2 0xAD9 JUMPI PUSH2 0xA09 SWAP1 CALLDATASIZE SWAP1 PUSH1 0x4 ADD PUSH2 0x1E62 JUMP JUMPDEST PUSH1 0x3 SLOAD PUSH1 0x1 PUSH1 0x1 PUSH1 0xA0 SHL SUB AND DUP1 EXTCODESIZE ISZERO PUSH2 0x5E6 JUMPI DUP5 PUSH1 0x40 MLOAD DUP1 SWAP3 PUSH4 0xA4E18CD7 PUSH1 0xE0 SHL DUP3 MSTORE DUP2 DUP4 DUP2 PUSH2 0xA3E DUP9 DUP12 DUP12 PUSH1 0x4 DUP6 ADD PUSH2 0x1F92 JUMP JUMPDEST SUB SWAP3 GAS CALL SWAP1 DUP2 ISZERO PUSH2 0xADE JUMPI DUP6 SWAP2 PUSH2 0xAC4 JUMPI JUMPDEST POP POP PUSH1 0x4 SLOAD PUSH1 0x1 PUSH1 0x1 PUSH1 0xA0 SHL SUB AND DUP1 EXTCODESIZE ISZERO PUSH2 0x5E6 JUMPI PUSH2 0xA89 SWAP4 DUP6 DUP1 SWAP5 PUSH1 0x40 MLOAD SWAP7 DUP8 SWAP6 DUP7 SWAP5 DUP6 SWAP4 PUSH4 0x38806E31 PUSH1 0xE1 SHL DUP6 MSTORE PUSH1 0x4 DUP6 ADD PUSH2 0x1F92 JUMP JUMPDEST SUB SWAP3 GAS CALL DUP1 ISZERO PUSH2 0x286 JUMPI PUSH2 0xAAF JUMPI JUMPDEST POP PUSH2 0xAA4 PUSH1 0x9 SLOAD PUSH2 0x1FBD JUMP JUMPDEST PUSH1 0x9 SSTORE PUSH2 0x73F PUSH2 0x21C6 JUMP JUMPDEST DUP2 PUSH2 0xAB9 SWAP2 PUSH2 0x1E26 JUMP JUMPDEST PUSH2 0x283 JUMPI DUP1 CODESIZE PUSH2 0xA98 JUMP JUMPDEST DUP2 PUSH2 0xACE SWAP2 PUSH2 0x1E26 JUMP JUMPDEST PUSH2 0xAD9 JUMPI DUP4 CODESIZE PUSH2 0xA50 JUMP JUMPDEST POP POP POP REVERT JUMPDEST PUSH1 0x40 MLOAD RETURNDATASIZE DUP8 DUP3 RETURNDATACOPY RETURNDATASIZE SWAP1 REVERT JUMPDEST POP CALLVALUE PUSH2 0x283 JUMPI DUP1 PUSH1 0x3 NOT CALLDATASIZE ADD SLT PUSH2 0x283 JUMPI PUSH1 0x20 SWAP1 PUSH1 0x40 MLOAD SWAP1 DUP2 MSTORE RETURN JUMPDEST POP CALLVALUE PUSH2 0x283 JUMPI DUP1 PUSH1 0x3 NOT CALLDATASIZE ADD SLT PUSH2 0x283 JUMPI PUSH1 0x20 PUSH1 0x40 MLOAD PUSH32 0x16CEEE8289685DD2A02B9C8AE81D2DF373176CE53519E6284E2A2950D6546FFA DUP2 MSTORE RETURN JUMPDEST POP CALLVALUE PUSH2 0x283 JUMPI DUP1 PUSH1 0x3 NOT CALLDATASIZE ADD SLT PUSH2 0x283 JUMPI PUSH1 0x4 SLOAD PUSH1 0x40 MLOAD PUSH1 0x1 PUSH1 0x1 PUSH1 0xA0 SHL SUB SWAP1 SWAP2 AND DUP2 MSTORE PUSH1 0x20 SWAP1 RETURN JUMPDEST POP CALLVALUE PUSH2 0x283 JUMPI PUSH1 0x20 CALLDATASIZE PUSH1 0x3 NOT ADD SLT PUSH2 0x283 JUMPI PUSH2 0xB83 PUSH2 0x1D09 JUMP JUMPDEST PUSH1 0x2 SLOAD PUSH1 0x40 MLOAD PUSH4 0x6185FA0F PUSH1 0xE0 SHL DUP2 MSTORE PUSH1 0x1 PUSH1 0x1 PUSH1 0xA0 SHL SUB SWAP3 DUP4 AND PUSH1 0x4 DUP3 ADD MSTORE SWAP2 DUP4 SWAP2 DUP4 SWAP2 PUSH1 0x24 SWAP2 DUP4 SWAP2 PUSH1 0x8 SWAP2 SWAP1 SWAP2 SHR AND GAS STATICCALL SWAP1 DUP2 ISZERO PUSH2 0x286 JUMPI DUP3 PUSH2 0xBD6 SWAP4 SWAP3 PUSH2 0xBDA JUMPI JUMPDEST POP POP PUSH1 0x40 MLOAD SWAP2 DUP3 SWAP2 DUP3 PUSH2 0x1D3A JUMP JUMPDEST SUB SWAP1 RETURN JUMPDEST PUSH2 0xBF6 SWAP3 POP RETURNDATASIZE DUP1 SWAP2 DUP4 RETURNDATACOPY PUSH2 0xBEE DUP2 DUP4 PUSH2 0x1E26 JUMP JUMPDEST DUP2 ADD SWAP1 PUSH2 0x1EA9 JUMP JUMPDEST CODESIZE DUP1 PUSH2 0xBC8 JUMP JUMPDEST POP CALLVALUE PUSH2 0x283 JUMPI PUSH1 0x40 CALLDATASIZE PUSH1 0x3 NOT ADD SLT PUSH2 0x283 JUMPI PUSH1 0x40 PUSH2 0xC19 PUSH2 0x1D24 JUMP JUMPDEST SWAP2 PUSH1 0x4 CALLDATALOAD DUP2 MSTORE DUP1 PUSH1 0x20 MSTORE KECCAK256 SWAP1 PUSH1 0x1 DUP1 PUSH1 0xA0 SHL SUB AND PUSH1 0x0 MSTORE PUSH1 0x20 MSTORE PUSH1 0x20 PUSH1 0xFF PUSH1 0x40 PUSH1 0x0 KECCAK256 SLOAD AND PUSH1 0x40 MLOAD SWAP1 ISZERO ISZERO DUP2 MSTORE RETURN JUMPDEST POP CALLVALUE PUSH2 0x283 JUMPI PUSH1 0xC0 CALLDATASIZE PUSH1 0x3 NOT ADD SLT PUSH2 0x283 JUMPI DUP1 PUSH2 0xC63 PUSH2 0x1D09 JUMP JUMPDEST PUSH1 0x44 CALLDATALOAD PUSH1 0x1 PUSH1 0x1 PUSH1 0x40 SHL SUB DUP2 GT PUSH2 0x291 JUMPI PUSH2 0xC82 SWAP1 CALLDATASIZE SWAP1 PUSH1 0x4 ADD PUSH2 0x1E62 JUMP JUMPDEST PUSH1 0x64 CALLDATALOAD PUSH1 0x1 PUSH1 0x1 PUSH1 0x40 SHL SUB DUP2 GT PUSH2 0xAD9 JUMPI PUSH2 0xCA1 SWAP1 CALLDATASIZE SWAP1 PUSH1 0x4 ADD PUSH2 0x1E62 JUMP JUMPDEST SWAP2 PUSH1 0xA4 CALLDATALOAD SWAP2 PUSH1 0x2 DUP4 LT ISZERO PUSH2 0x5E6 JUMPI PUSH2 0xCB7 PUSH2 0x1FEF JUMP JUMPDEST PUSH1 0x6 SLOAD PUSH1 0x1 PUSH1 0x1 PUSH1 0xA0 SHL SUB AND SWAP1 DUP2 EXTCODESIZE ISZERO PUSH2 0xD40 JUMPI DUP6 PUSH2 0xD0F SWAP4 DUP2 SWAP6 PUSH2 0xD21 PUSH1 0x40 MLOAD SWAP9 DUP10 SWAP8 DUP9 SWAP7 DUP8 SWAP6 PUSH4 0x3E822385 PUSH1 0xE1 SHL DUP8 MSTORE PUSH1 0x1 DUP1 PUSH1 0xA0 SHL SUB AND PUSH1 0x4 DUP8 ADD MSTORE PUSH1 0x24 CALLDATALOAD PUSH1 0x24 DUP8 ADD MSTORE PUSH1 0xC0 PUSH1 0x44 DUP8 ADD MSTORE PUSH1 0xC4 DUP7 ADD SWAP1 PUSH2 0x1D97 JUMP JUMPDEST DUP5 DUP2 SUB PUSH1 0x3 NOT ADD PUSH1 0x64 DUP7 ADD MSTORE SWAP1 PUSH2 0x1D97 JUMP JUMPDEST SWAP1 PUSH1 0x84 CALLDATALOAD PUSH1 0x84 DUP5 ADD MSTORE PUSH1 0xA4 DUP4 ADD MSTORE SUB SWAP3 GAS CALL DUP1 ISZERO PUSH2 0x286 JUMPI PUSH2 0x272 JUMPI POP RETURN JUMPDEST DUP6 DUP1 REVERT JUMPDEST POP CALLVALUE PUSH2 0x283 JUMPI DUP1 PUSH1 0x3 NOT CALLDATASIZE ADD SLT PUSH2 0x283 JUMPI PUSH1 0x20 PUSH1 0x40 MLOAD PUSH32 0xA49807205CE4D355092EF5A8A18F56E8913CF4A201FBE287825B095693C21775 DUP2 MSTORE RETURN JUMPDEST POP CALLVALUE PUSH2 0x283 JUMPI DUP1 PUSH1 0x3 NOT CALLDATASIZE ADD SLT PUSH2 0x283 JUMPI PUSH1 0x20 SELFBALANCE PUSH1 0x40 MLOAD SWAP1 DUP2 MSTORE RETURN JUMPDEST POP CALLVALUE PUSH2 0x283 JUMPI DUP1 PUSH1 0x3 NOT CALLDATASIZE ADD SLT PUSH2 0x283 JUMPI PUSH2 0xDB4 PUSH2 0x200C JUMP JUMPDEST PUSH2 0xDBC PUSH2 0x1FEF JUMP JUMPDEST PUSH1 0x1 PUSH1 0xFF NOT PUSH1 0x2 SLOAD AND OR PUSH1 0x2 SSTORE PUSH32 0x62E78CEA01BEE320CD4E420270B5EA74000D11B0C9F74754EBDBFC544B05A258 PUSH1 0x20 PUSH1 0x40 MLOAD CALLER DUP2 MSTORE LOG1 PUSH1 0x3 SLOAD DUP2 SWAP1 PUSH1 0x1 PUSH1 0x1 PUSH1 0xA0 SHL SUB AND DUP1 EXTCODESIZE ISZERO PUSH2 0x293 JUMPI DUP2 DUP1 SWAP2 PUSH1 0x4 PUSH1 0x40 MLOAD DUP1 SWAP5 DUP2 SWAP4 PUSH4 0x8456CB59 PUSH1 0xE0 SHL DUP4 MSTORE GAS CALL DUP1 ISZERO PUSH2 0x286 JUMPI PUSH2 0xEFC JUMPI JUMPDEST POP PUSH1 0x4 SLOAD PUSH1 0x1 PUSH1 0x1 PUSH1 0xA0 SHL SUB AND DUP1 EXTCODESIZE ISZERO PUSH2 0x293 JUMPI DUP2 DUP1 SWAP2 PUSH1 0x4 PUSH1 0x40 MLOAD DUP1 SWAP5 DUP2 SWAP4 PUSH4 0x8456CB59 PUSH1 0xE0 SHL DUP4 MSTORE GAS CALL DUP1 ISZERO PUSH2 0x286 JUMPI PUSH2 0xEE7 JUMPI JUMPDEST POP PUSH1 0x5 SLOAD PUSH1 0x1 PUSH1 0x1 PUSH1 0xA0 SHL SUB AND DUP1 EXTCODESIZE ISZERO PUSH2 0x293 JUMPI DUP2 DUP1 SWAP2 PUSH1 0x4 PUSH1 0x40 MLOAD DUP1 SWAP5 DUP2 SWAP4 PUSH4 0x8456CB59 PUSH1 0xE0 SHL DUP4 MSTORE GAS CALL DUP1 ISZERO PUSH2 0x286 JUMPI PUSH2 0xED2 JUMPI JUMPDEST POP PUSH1 0x6 SLOAD PUSH1 0x1 PUSH1 0x1 PUSH1 0xA0 SHL SUB AND DUP1 EXTCODESIZE ISZERO PUSH2 0x293 JUMPI DUP2 DUP1 SWAP2 PUSH1 0x4 PUSH1 0x40 MLOAD DUP1 SWAP5 DUP2 SWAP4 PUSH4 0x8456CB59 PUSH1 0xE0 SHL DUP4 MSTORE GAS CALL DUP1 ISZERO PUSH2 0x286 JUMPI PUSH2 0x272 JUMPI POP RETURN JUMPDEST DUP2 PUSH2 0xEDC SWAP2 PUSH2 0x1E26 JUMP JUMPDEST PUSH2 0x283 JUMPI DUP1 CODESIZE PUSH2 0xE99 JUMP JUMPDEST DUP2 PUSH2 0xEF1 SWAP2 PUSH2 0x1E26 JUMP JUMPDEST PUSH2 0x283 JUMPI DUP1 CODESIZE PUSH2 0xE62 JUMP JUMPDEST DUP2 PUSH2 0xF06 SWAP2 PUSH2 0x1E26 JUMP JUMPDEST PUSH2 0x283 JUMPI DUP1 CODESIZE PUSH2 0xE2B JUMP JUMPDEST POP CALLVALUE PUSH2 0x283 JUMPI PUSH1 0x20 CALLDATASIZE PUSH1 0x3 NOT ADD SLT PUSH2 0x283 JUMPI PUSH1 0x60 PUSH2 0x220 PUSH1 0x40 MLOAD PUSH2 0xF34 DUP2 PUSH2 0x1DEE JUMP JUMPDEST DUP4 DUP2 MSTORE DUP4 PUSH1 0x20 DUP3 ADD MSTORE DUP4 PUSH1 0x40 DUP3 ADD MSTORE DUP4 DUP4 DUP3 ADD MSTORE DUP4 PUSH1 0x80 DUP3 ADD MSTORE DUP4 PUSH1 0xA0 DUP3 ADD MSTORE DUP4 PUSH1 0xC0 DUP3 ADD MSTORE DUP4 PUSH1 0xE0 DUP3 ADD MSTORE DUP4 PUSH2 0x100 DUP3 ADD MSTORE DUP4 PUSH2 0x120 DUP3 ADD MSTORE DUP4 PUSH2 0x140 DUP3 ADD MSTORE DUP3 PUSH2 0x160 DUP3 ADD MSTORE DUP4 PUSH2 0x180 DUP3 ADD MSTORE DUP4 PUSH2 0x1A0 DUP3 ADD MSTORE DUP4 PUSH2 0x1C0 DUP3 ADD MSTORE DUP4 PUSH2 0x1E0 DUP3 ADD MSTORE DUP3 PUSH2 0x200 DUP3 ADD MSTORE ADD MSTORE PUSH1 0x24 DUP2 PUSH1 0x1 DUP1 PUSH1 0xA0 SHL SUB PUSH1 0x3 SLOAD AND PUSH1 0x40 MLOAD SWAP3 DUP4 DUP1 SWAP3 PUSH4 0x3295E94F PUSH1 0xE1 SHL DUP3 MSTORE PUSH1 0x4 CALLDATALOAD PUSH1 0x4 DUP4 ADD MSTORE GAS STATICCALL SWAP1 DUP2 ISZERO PUSH2 0x286 JUMPI DUP3 SWAP2 PUSH2 0x1112 JUMPI JUMPDEST POP PUSH1 0x40 MLOAD SWAP2 PUSH1 0x20 DUP4 MSTORE DUP2 MLOAD PUSH1 0x20 DUP5 ADD MSTORE PUSH1 0x20 DUP3 ADD MLOAD PUSH1 0x40 DUP5 ADD MSTORE PUSH1 0x1 DUP1 PUSH1 0xA0 SHL SUB PUSH1 0x40 DUP4 ADD MLOAD AND PUSH1 0x60 DUP5 ADD MSTORE PUSH1 0x1 DUP1 PUSH1 0xA0 SHL SUB PUSH1 0x60 DUP4 ADD MLOAD AND PUSH1 0x80 DUP5 ADD MSTORE PUSH1 0x80 DUP3 ADD MLOAD PUSH1 0xA0 DUP5 ADD MSTORE PUSH1 0xA0 DUP3 ADD MLOAD PUSH1 0xC0 DUP5 ADD MSTORE PUSH1 0xC0 DUP3 ADD MLOAD PUSH1 0xE0 DUP5 ADD MSTORE PUSH1 0xE0 DUP3 ADD MLOAD PUSH2 0x100 DUP5 ADD MSTORE PUSH2 0x100 DUP3 ADD MLOAD SWAP1 PUSH1 0x5 DUP3 LT ISZERO PUSH2 0x10FE JUMPI POP DUP3 SWAP2 PUSH2 0xBD6 SWAP2 PUSH2 0x120 DUP5 ADD MSTORE PUSH2 0x120 DUP2 ADD MLOAD PUSH2 0x140 DUP5 ADD MSTORE PUSH2 0x140 DUP2 ADD MLOAD PUSH2 0x160 DUP5 ADD MSTORE PUSH2 0x220 PUSH2 0x10E9 PUSH2 0x1097 PUSH2 0x160 DUP5 ADD MLOAD PUSH2 0x240 PUSH2 0x180 DUP9 ADD MSTORE PUSH2 0x260 DUP8 ADD SWAP1 PUSH2 0x1D97 JUMP JUMPDEST PUSH2 0x180 DUP5 ADD MLOAD ISZERO ISZERO PUSH2 0x1A0 DUP8 ADD MSTORE PUSH2 0x1A0 DUP5 ADD MLOAD ISZERO ISZERO PUSH2 0x1C0 DUP8 ADD MSTORE PUSH1 0x1 DUP1 PUSH1 0xA0 SHL SUB PUSH2 0x1C0 DUP6 ADD MLOAD AND PUSH2 0x1E0 DUP8 ADD MSTORE PUSH2 0x1E0 DUP5 ADD MLOAD PUSH2 0x200 DUP8 ADD MSTORE PUSH2 0x200 DUP5 ADD MLOAD PUSH1 0x1F NOT DUP8 DUP4 SUB ADD DUP5 DUP9 ADD MSTORE PUSH2 0x1D97 JUMP JUMPDEST SWAP2 ADD MLOAD DUP4 DUP3 SUB PUSH1 0x1F NOT ADD PUSH2 0x240 DUP6 ADD MSTORE PUSH2 0x1D97 JUMP JUMPDEST PUSH4 0x4E487B71 PUSH1 0xE0 SHL DUP2 MSTORE PUSH1 0x21 PUSH1 0x4 MSTORE PUSH1 0x24 SWAP1 REVERT JUMPDEST SWAP1 POP RETURNDATASIZE DUP1 DUP4 DUP4 RETURNDATACOPY PUSH2 0x1123 DUP2 DUP4 PUSH2 0x1E26 JUMP JUMPDEST DUP2 ADD SWAP1 PUSH1 0x20 DUP2 DUP4 SUB SLT PUSH2 0x5EA JUMPI DUP1 MLOAD SWAP1 PUSH1 0x1 PUSH1 0x1 PUSH1 0x40 SHL SUB DUP3 GT PUSH2 0x129A JUMPI ADD PUSH2 0x240 DUP2 DUP4 SUB SLT PUSH2 0x5EA JUMPI PUSH1 0x40 MLOAD SWAP2 PUSH2 0x115A DUP4 PUSH2 0x1DEE JUMP JUMPDEST DUP2 MLOAD DUP4 MSTORE PUSH1 0x20 DUP3 ADD MLOAD PUSH1 0x20 DUP5 ADD MSTORE PUSH2 0x1174 PUSH1 0x40 DUP4 ADD PUSH2 0x1F2C JUMP JUMPDEST PUSH1 0x40 DUP5 ADD MSTORE PUSH2 0x1185 PUSH1 0x60 DUP4 ADD PUSH2 0x1F2C JUMP JUMPDEST PUSH1 0x60 DUP5 ADD MSTORE PUSH1 0x80 DUP3 ADD MLOAD PUSH1 0x80 DUP5 ADD MSTORE PUSH1 0xA0 DUP3 ADD MLOAD PUSH1 0xA0 DUP5 ADD MSTORE PUSH1 0xC0 DUP3 ADD MLOAD PUSH1 0xC0 DUP5 ADD MSTORE PUSH1 0xE0 DUP3 ADD MLOAD PUSH1 0xE0 DUP5 ADD MSTORE PUSH2 0x100 DUP3 ADD MLOAD PUSH1 0x5 DUP2 LT ISZERO PUSH2 0x5E6 JUMPI PUSH2 0x100 DUP5 ADD MSTORE PUSH2 0x120 DUP3 ADD MLOAD PUSH2 0x120 DUP5 ADD MSTORE PUSH2 0x140 DUP3 ADD MLOAD PUSH2 0x140 DUP5 ADD MSTORE PUSH2 0x160 DUP3 ADD MLOAD PUSH1 0x1 PUSH1 0x1 PUSH1 0x40 SHL SUB DUP2 GT PUSH2 0x5E6 JUMPI DUP2 PUSH2 0x11FF SWAP2 DUP5 ADD PUSH2 0x1F40 JUMP JUMPDEST PUSH2 0x160 DUP5 ADD MSTORE PUSH2 0x1212 PUSH2 0x180 DUP4 ADD PUSH2 0x1F85 JUMP JUMPDEST PUSH2 0x180 DUP5 ADD MSTORE PUSH2 0x1225 PUSH2 0x1A0 DUP4 ADD PUSH2 0x1F85 JUMP JUMPDEST PUSH2 0x1A0 DUP5 ADD MSTORE PUSH2 0x1238 PUSH2 0x1C0 DUP4 ADD PUSH2 0x1F2C JUMP JUMPDEST PUSH2 0x1C0 DUP5 ADD MSTORE PUSH2 0x1E0 DUP3 ADD MLOAD PUSH2 0x1E0 DUP5 ADD MSTORE PUSH2 0x200 DUP3 ADD MLOAD PUSH1 0x1 PUSH1 0x1 PUSH1 0x40 SHL SUB DUP2 GT PUSH2 0x5E6 JUMPI DUP2 PUSH2 0x126A SWAP2 DUP5 ADD PUSH2 0x1F40 JUMP JUMPDEST PUSH2 0x200 DUP5 ADD MSTORE PUSH2 0x220 DUP3 ADD MLOAD PUSH1 0x1 PUSH1 0x1 PUSH1 0x40 SHL SUB DUP2 GT PUSH2 0x5E6 JUMPI PUSH2 0x128E SWAP3 ADD PUSH2 0x1F40 JUMP JUMPDEST PUSH2 0x220 DUP3 ADD MSTORE CODESIZE PUSH2 0xFD8 JUMP JUMPDEST DUP4 DUP1 REVERT JUMPDEST POP CALLVALUE PUSH2 0x283 JUMPI DUP1 PUSH1 0x3 NOT CALLDATASIZE ADD SLT PUSH2 0x283 JUMPI PUSH1 0x20 PUSH1 0xA SLOAD PUSH1 0x40 MLOAD SWAP1 DUP2 MSTORE RETURN JUMPDEST POP CALLVALUE PUSH2 0x283 JUMPI DUP1 PUSH1 0x3 NOT CALLDATASIZE ADD SLT PUSH2 0x283 JUMPI PUSH1 0x2 SLOAD PUSH1 0x40 MLOAD PUSH1 0x8 SWAP2 SWAP1 SWAP2 SHR PUSH1 0x1 PUSH1 0x1 PUSH1 0xA0 SHL SUB AND DUP2 MSTORE PUSH1 0x20 SWAP1 RETURN JUMPDEST POP CALLVALUE PUSH2 0x283 JUMPI PUSH1 0x20 CALLDATASIZE PUSH1 0x3 NOT ADD SLT PUSH2 0x283 JUMPI PUSH1 0x4 CALLDATALOAD PUSH2 0x1306 PUSH2 0x200C JUMP JUMPDEST SELFBALANCE DUP2 GT PUSH2 0x132E JUMPI DUP2 DUP1 DUP1 DUP1 SWAP4 DUP2 DUP2 ISZERO PUSH2 0x1325 JUMPI JUMPDEST CALLER SWAP1 CALL ISZERO PUSH2 0x9A8 JUMPI DUP1 RETURN JUMPDEST POP PUSH2 0x8FC PUSH2 0x131A JUMP JUMPDEST PUSH1 0x40 MLOAD PUSH3 0x461BCD PUSH1 0xE5 SHL DUP2 MSTORE PUSH1 0x20 PUSH1 0x4 DUP3 ADD MSTORE PUSH1 0x14 PUSH1 0x24 DUP3 ADD MSTORE PUSH20 0x496E73756666696369656E742062616C616E6365 PUSH1 0x60 SHL PUSH1 0x44 DUP3 ADD MSTORE PUSH1 0x64 SWAP1 REVERT JUMPDEST POP CALLVALUE PUSH2 0x283 JUMPI DUP1 PUSH1 0x3 NOT CALLDATASIZE ADD SLT PUSH2 0x283 JUMPI PUSH1 0x20 PUSH1 0xFF PUSH1 0x2 SLOAD AND PUSH1 0x40 MLOAD SWAP1 ISZERO ISZERO DUP2 MSTORE RETURN JUMPDEST POP CALLVALUE PUSH2 0x283 JUMPI DUP1 PUSH1 0x3 NOT CALLDATASIZE ADD SLT PUSH2 0x283 JUMPI PUSH1 0x7 SLOAD PUSH1 0x8 SLOAD PUSH1 0x9 SLOAD PUSH1 0xA SLOAD PUSH1 0x40 DUP1 MLOAD SWAP5 DUP6 MSTORE PUSH1 0x20 DUP6 ADD SWAP4 SWAP1 SWAP4 MSTORE SWAP2 DUP4 ADD MSTORE PUSH1 0x60 DUP3 ADD MSTORE PUSH1 0x80 SWAP1 RETURN JUMPDEST POP CALLVALUE PUSH2 0x283 JUMPI PUSH1 0xA0 CALLDATASIZE PUSH1 0x3 NOT ADD SLT PUSH2 0x283 JUMPI PUSH2 0x13E1 PUSH2 0x1D09 JUMP JUMPDEST PUSH2 0x13E9 PUSH2 0x1D24 JUMP JUMPDEST PUSH1 0x44 CALLDATALOAD PUSH1 0x1 PUSH1 0x1 PUSH1 0xA0 SHL SUB DUP2 AND SWAP3 SWAP2 SWAP1 DUP4 SWAP1 SUB PUSH2 0x129A JUMPI PUSH1 0x64 CALLDATALOAD PUSH1 0x1 PUSH1 0x1 PUSH1 0xA0 SHL SUB DUP2 AND SWAP1 DUP2 SWAP1 SUB PUSH2 0x5E6 JUMPI PUSH1 0x84 CALLDATALOAD PUSH1 0x1 PUSH1 0x1 PUSH1 0xA0 SHL SUB DUP2 AND SWAP2 SWAP1 DUP3 SWAP1 SUB PUSH2 0xD40 JUMPI PUSH2 0x1433 PUSH2 0x200C JUMP JUMPDEST PUSH1 0x1 PUSH1 0x1 PUSH1 0xA0 SHL SUB DUP5 AND SWAP3 DUP4 ISZERO PUSH2 0x1637 JUMPI PUSH1 0x1 PUSH1 0x1 PUSH1 0xA0 SHL SUB AND SWAP5 DUP6 ISZERO PUSH2 0x15F2 JUMPI DUP1 ISZERO PUSH2 0x15AD JUMPI DUP2 ISZERO PUSH2 0x155C JUMPI DUP3 ISZERO PUSH2 0x1517 JUMPI PUSH32 0x9328B8A339026C96335157E9360553F8B14D24D378543F549ABC3F21E9B92C37 SWAP6 PUSH1 0xA0 SWAP6 PUSH1 0x2 SLOAD SWAP1 PUSH2 0x100 PUSH1 0x1 PUSH1 0xA8 SHL SUB SWAP1 PUSH1 0x8 SHL AND SWAP1 PUSH2 0x100 PUSH1 0x1 PUSH1 0xA8 SHL SUB NOT AND OR PUSH1 0x2 SSTORE DUP1 PUSH1 0x1 PUSH1 0x1 PUSH1 0x60 SHL SUB DUP8 SHL PUSH1 0x3 SLOAD AND OR PUSH1 0x3 SSTORE DUP2 PUSH1 0x1 PUSH1 0x1 PUSH1 0x60 SHL SUB DUP8 SHL PUSH1 0x4 SLOAD AND OR PUSH1 0x4 SSTORE DUP3 PUSH1 0x1 PUSH1 0x1 PUSH1 0x60 SHL SUB DUP8 SHL PUSH1 0x5 SLOAD AND OR PUSH1 0x5 SSTORE DUP4 PUSH1 0x1 PUSH1 0x1 PUSH1 0x60 SHL SUB DUP8 SHL PUSH1 0x6 SLOAD AND OR PUSH1 0x6 SSTORE PUSH1 0x40 MLOAD SWAP5 DUP6 MSTORE PUSH1 0x20 DUP6 ADD MSTORE PUSH1 0x40 DUP5 ADD MSTORE PUSH1 0x60 DUP4 ADD MSTORE PUSH1 0x80 DUP3 ADD MSTORE LOG1 DUP1 RETURN JUMPDEST PUSH1 0x40 MLOAD PUSH3 0x461BCD PUSH1 0xE5 SHL DUP2 MSTORE PUSH1 0x20 PUSH1 0x4 DUP3 ADD MSTORE PUSH1 0x1A PUSH1 0x24 DUP3 ADD MSTORE PUSH32 0x496E76616C69642072657075746174696F6E2061646472657373000000000000 PUSH1 0x44 DUP3 ADD MSTORE PUSH1 0x64 SWAP1 REVERT JUMPDEST PUSH1 0x40 MLOAD PUSH3 0x461BCD PUSH1 0xE5 SHL DUP2 MSTORE PUSH1 0x20 PUSH1 0x4 DUP3 ADD MSTORE PUSH1 0x24 DUP1 DUP3 ADD MSTORE PUSH32 0x496E76616C696420737562736372697074696F6E206D616E6167657220616464 PUSH1 0x44 DUP3 ADD MSTORE PUSH4 0x72657373 PUSH1 0xE0 SHL PUSH1 0x64 DUP3 ADD MSTORE PUSH1 0x84 SWAP1 REVERT JUMPDEST PUSH1 0x40 MLOAD PUSH3 0x461BCD PUSH1 0xE5 SHL DUP2 MSTORE PUSH1 0x20 PUSH1 0x4 DUP3 ADD MSTORE PUSH1 0x1B PUSH1 0x24 DUP3 ADD MSTORE PUSH32 0x496E76616C6964206172626974726174696F6E20616464726573730000000000 PUSH1 0x44 DUP3 ADD MSTORE PUSH1 0x64 SWAP1 REVERT JUMPDEST PUSH1 0x40 MLOAD PUSH3 0x461BCD PUSH1 0xE5 SHL DUP2 MSTORE PUSH1 0x20 PUSH1 0x4 DUP3 ADD MSTORE PUSH1 0x1D PUSH1 0x24 DUP3 ADD MSTORE PUSH32 0x496E76616C69642072656E74616C20657363726F772061646472657373000000 PUSH1 0x44 DUP3 ADD MSTORE PUSH1 0x64 SWAP1 REVERT JUMPDEST PUSH1 0x64 PUSH1 0x40 MLOAD PUSH3 0x461BCD PUSH1 0xE5 SHL DUP2 MSTORE PUSH1 0x20 PUSH1 0x4 DUP3 ADD MSTORE PUSH1 0x20 PUSH1 0x24 DUP3 ADD MSTORE PUSH32 0x496E76616C6964206C697374696E672072656769737472792061646472657373 PUSH1 0x44 DUP3 ADD MSTORE REVERT JUMPDEST POP CALLVALUE PUSH2 0x283 JUMPI PUSH1 0x40 CALLDATASIZE PUSH1 0x3 NOT ADD SLT PUSH2 0x283 JUMPI PUSH2 0x1695 PUSH2 0x1D24 JUMP JUMPDEST CALLER PUSH1 0x1 PUSH1 0x1 PUSH1 0xA0 SHL SUB DUP3 AND SUB PUSH2 0x16B1 JUMPI PUSH2 0x427 SWAP1 PUSH1 0x4 CALLDATALOAD PUSH2 0x2144 JUMP JUMPDEST PUSH4 0x334BD919 PUSH1 0xE1 SHL DUP3 MSTORE PUSH1 0x4 DUP3 REVERT JUMPDEST POP CALLVALUE PUSH2 0x283 JUMPI PUSH1 0x40 CALLDATASIZE PUSH1 0x3 NOT ADD SLT PUSH2 0x283 JUMPI PUSH2 0x427 PUSH1 0x4 CALLDATALOAD PUSH2 0x16E0 PUSH2 0x1D24 JUMP JUMPDEST SWAP1 PUSH2 0x16FC PUSH2 0x41D DUP3 PUSH1 0x0 MSTORE PUSH1 0x0 PUSH1 0x20 MSTORE PUSH1 0x1 PUSH1 0x40 PUSH1 0x0 KECCAK256 ADD SLOAD SWAP1 JUMP JUMPDEST PUSH2 0x20B9 JUMP JUMPDEST POP CALLVALUE PUSH2 0x283 JUMPI PUSH1 0x20 CALLDATASIZE PUSH1 0x3 NOT ADD SLT PUSH2 0x283 JUMPI PUSH1 0x3 SLOAD DUP2 SWAP1 PUSH1 0x1 PUSH1 0x1 PUSH1 0xA0 SHL SUB AND DUP1 EXTCODESIZE ISZERO PUSH2 0x293 JUMPI DUP2 DUP1 SWAP2 PUSH1 0x24 PUSH1 0x40 MLOAD DUP1 SWAP5 DUP2 SWAP4 PUSH4 0x24DF1F7 PUSH1 0xE4 SHL DUP4 MSTORE PUSH1 0x4 CALLDATALOAD PUSH1 0x4 DUP5 ADD MSTORE GAS CALL DUP1 ISZERO PUSH2 0x286 JUMPI PUSH2 0x272 JUMPI POP RETURN JUMPDEST POP CALLVALUE PUSH2 0x283 JUMPI PUSH1 0x20 CALLDATASIZE PUSH1 0x3 NOT ADD SLT PUSH2 0x283 JUMPI PUSH1 0x20 PUSH2 0x1783 PUSH1 0x4 CALLDATALOAD PUSH1 0x0 MSTORE PUSH1 0x0 PUSH1 0x20 MSTORE PUSH1 0x1 PUSH1 0x40 PUSH1 0x0 KECCAK256 ADD SLOAD SWAP1 JUMP JUMPDEST PUSH1 0x40 MLOAD SWAP1 DUP2 MSTORE RETURN JUMPDEST POP CALLVALUE PUSH2 0x283 JUMPI DUP1 PUSH1 0x3 NOT CALLDATASIZE ADD SLT PUSH2 0x283 JUMPI PUSH2 0x17A4 PUSH2 0x200C JUMP JUMPDEST PUSH1 0x2 SLOAD PUSH1 0xFF DUP2 AND ISZERO PUSH2 0x18FF JUMPI PUSH1 0xFF NOT AND PUSH1 0x2 SSTORE PUSH32 0x5DB9EE0A495BF2E6FF9C91A7834C1BA4FDD244A5E8AA4E537BD38AEAE4B073AA PUSH1 0x20 PUSH1 0x40 MLOAD CALLER DUP2 MSTORE LOG1 PUSH1 0x3 SLOAD DUP2 SWAP1 PUSH1 0x1 PUSH1 0x1 PUSH1 0xA0 SHL SUB AND DUP1 EXTCODESIZE ISZERO PUSH2 0x293 JUMPI DUP2 DUP1 SWAP2 PUSH1 0x4 PUSH1 0x40 MLOAD DUP1 SWAP5 DUP2 SWAP4 PUSH4 0x1FA5D41D PUSH1 0xE1 SHL DUP4 MSTORE GAS CALL DUP1 ISZERO PUSH2 0x286 JUMPI PUSH2 0x18EA JUMPI JUMPDEST POP PUSH1 0x4 SLOAD PUSH1 0x1 PUSH1 0x1 PUSH1 0xA0 SHL SUB AND DUP1 EXTCODESIZE ISZERO PUSH2 0x293 JUMPI DUP2 DUP1 SWAP2 PUSH1 0x4 PUSH1 0x40 MLOAD DUP1 SWAP5 DUP2 SWAP4 PUSH4 0x1FA5D41D PUSH1 0xE1 SHL DUP4 MSTORE GAS CALL DUP1 ISZERO PUSH2 0x286 JUMPI PUSH2 0x18D5 JUMPI JUMPDEST POP PUSH1 0x5 SLOAD PUSH1 0x1 PUSH1 0x1 PUSH1 0xA0 SHL SUB AND DUP1 EXTCODESIZE ISZERO PUSH2 0x293 JUMPI DUP2 DUP1 SWAP2 PUSH1 0x4 PUSH1 0x40 MLOAD DUP1 SWAP5 DUP2 SWAP4 PUSH4 0x1FA5D41D PUSH1 0xE1 SHL DUP4 MSTORE GAS CALL DUP1 ISZERO PUSH2 0x286 JUMPI PUSH2 0x18C0 JUMPI JUMPDEST POP PUSH1 0x6 SLOAD PUSH1 0x1 PUSH1 0x1 PUSH1 0xA0 SHL SUB AND DUP1 EXTCODESIZE ISZERO PUSH2 0x293 JUMPI DUP2 DUP1 SWAP2 PUSH1 0x4 PUSH1 0x40 MLOAD DUP1 SWAP5 DUP2 SWAP4 PUSH4 0x1FA5D41D PUSH1 0xE1 SHL DUP4 MSTORE GAS CALL DUP1 ISZERO PUSH2 0x286 JUMPI PUSH2 0x272 JUMPI POP RETURN JUMPDEST DUP2 PUSH2 0x18CA SWAP2 PUSH2 0x1E26 JUMP JUMPDEST PUSH2 0x283 JUMPI DUP1 CODESIZE PUSH2 0x1887 JUMP JUMPDEST DUP2 PUSH2 0x18DF SWAP2 PUSH2 0x1E26 JUMP JUMPDEST PUSH2 0x283 JUMPI DUP1 CODESIZE PUSH2 0x1850 JUMP JUMPDEST DUP2 PUSH2 0x18F4 SWAP2 PUSH2 0x1E26 JUMP JUMPDEST PUSH2 0x283 JUMPI DUP1 CODESIZE PUSH2 0x1819 JUMP JUMPDEST PUSH4 0x8DFC202B PUSH1 0xE0 SHL DUP3 MSTORE PUSH1 0x4 DUP3 REVERT JUMPDEST POP CALLVALUE PUSH2 0x283 JUMPI PUSH1 0x20 CALLDATASIZE PUSH1 0x3 NOT ADD SLT PUSH2 0x283 JUMPI DUP1 PUSH1 0x24 SWAP2 PUSH2 0x120 PUSH1 0x40 MLOAD PUSH2 0x1933 DUP2 PUSH2 0x1DBC JUMP JUMPDEST DUP3 DUP2 MSTORE DUP3 PUSH1 0x20 DUP3 ADD MSTORE PUSH1 0x60 PUSH1 0x40 DUP3 ADD MSTORE PUSH1 0x60 DUP1 DUP3 ADD MSTORE DUP3 PUSH1 0x80 DUP3 ADD MSTORE DUP3 PUSH1 0xA0 DUP3 ADD MSTORE DUP3 PUSH1 0xC0 DUP3 ADD MSTORE PUSH1 0x60 PUSH1 0xE0 DUP3 ADD MSTORE DUP3 PUSH2 0x100 DUP3 ADD MSTORE ADD MSTORE DUP1 PUSH1 0x1 DUP1 PUSH1 0xA0 SHL SUB PUSH1 0x2 SLOAD PUSH1 0x8 SHR AND PUSH1 0x40 MLOAD SWAP4 DUP5 DUP1 SWAP3 PUSH4 0x83D13A5 PUSH1 0xE1 SHL DUP3 MSTORE PUSH1 0x4 CALLDATALOAD PUSH1 0x4 DUP4 ADD MSTORE GAS STATICCALL SWAP2 DUP3 ISZERO PUSH2 0x1B5F JUMPI DUP2 SWAP3 PUSH2 0x1A4E JUMPI JUMPDEST DUP3 PUSH1 0x40 MLOAD DUP1 SWAP2 PUSH1 0x20 DUP3 MSTORE DUP1 MLOAD PUSH1 0x20 DUP4 ADD MSTORE PUSH1 0x1 DUP1 PUSH1 0xA0 SHL SUB PUSH1 0x20 DUP3 ADD MLOAD AND PUSH1 0x40 DUP4 ADD MSTORE PUSH2 0x120 PUSH2 0x1A37 PUSH2 0x1A00 PUSH2 0x19EA PUSH1 0x40 DUP6 ADD MLOAD PUSH2 0x140 PUSH1 0x60 DUP9 ADD MSTORE PUSH2 0x160 DUP8 ADD SWAP1 PUSH2 0x1D97 JUMP JUMPDEST PUSH1 0x60 DUP6 ADD MLOAD DUP7 DUP3 SUB PUSH1 0x1F NOT ADD PUSH1 0x80 DUP9 ADD MSTORE PUSH2 0x1D97 JUMP JUMPDEST PUSH1 0x80 DUP5 ADD MLOAD PUSH1 0xA0 DUP7 ADD MSTORE PUSH1 0xA0 DUP5 ADD MLOAD PUSH1 0xC0 DUP7 ADD MSTORE PUSH1 0xC0 DUP5 ADD MLOAD ISZERO ISZERO PUSH1 0xE0 DUP7 ADD MSTORE PUSH1 0xE0 DUP5 ADD MLOAD PUSH1 0x1F NOT DUP7 DUP4 SUB ADD PUSH2 0x100 DUP8 ADD MSTORE PUSH2 0x1D97 JUMP JUMPDEST SWAP2 PUSH2 0x100 DUP2 ADD MLOAD DUP3 DUP6 ADD MSTORE ADD MLOAD PUSH2 0x140 DUP4 ADD MSTORE SUB SWAP1 RETURN JUMPDEST SWAP1 SWAP2 POP RETURNDATASIZE DUP1 DUP4 DUP4 RETURNDATACOPY PUSH2 0x1A60 DUP2 DUP4 PUSH2 0x1E26 JUMP JUMPDEST DUP2 ADD SWAP1 PUSH1 0x20 DUP2 DUP4 SUB SLT PUSH2 0x5EA JUMPI DUP1 MLOAD SWAP1 PUSH1 0x1 PUSH1 0x1 PUSH1 0x40 SHL SUB DUP3 GT PUSH2 0x129A JUMPI ADD SWAP1 PUSH2 0x140 DUP3 DUP3 SUB SLT PUSH2 0x5EA JUMPI PUSH1 0x40 MLOAD SWAP3 PUSH2 0x1A98 DUP5 PUSH2 0x1DBC JUMP JUMPDEST DUP3 MLOAD DUP5 MSTORE PUSH2 0x1AA8 PUSH1 0x20 DUP5 ADD PUSH2 0x1F2C JUMP JUMPDEST PUSH1 0x20 DUP6 ADD MSTORE PUSH1 0x40 DUP4 ADD MLOAD PUSH1 0x1 PUSH1 0x1 PUSH1 0x40 SHL SUB DUP2 GT PUSH2 0x38E JUMPI DUP3 PUSH2 0x1ACC SWAP2 DUP6 ADD PUSH2 0x1F40 JUMP JUMPDEST PUSH1 0x40 DUP6 ADD MSTORE PUSH1 0x60 DUP4 ADD MLOAD PUSH1 0x1 PUSH1 0x1 PUSH1 0x40 SHL SUB DUP2 GT PUSH2 0x38E JUMPI DUP3 PUSH2 0x1AF0 SWAP2 DUP6 ADD PUSH2 0x1F40 JUMP JUMPDEST PUSH1 0x60 DUP6 ADD MSTORE PUSH1 0x80 DUP4 ADD MLOAD PUSH1 0x80 DUP6 ADD MSTORE PUSH1 0xA0 DUP4 ADD MLOAD PUSH1 0xA0 DUP6 ADD MSTORE PUSH2 0x1B15 PUSH1 0xC0 DUP5 ADD PUSH2 0x1F85 JUMP JUMPDEST PUSH1 0xC0 DUP6 ADD MSTORE PUSH1 0xE0 DUP4 ADD MLOAD SWAP1 PUSH1 0x1 PUSH1 0x1 PUSH1 0x40 SHL SUB DUP3 GT PUSH2 0x283 JUMPI POP DUP3 SWAP2 PUSH2 0x1B3F SWAP2 PUSH2 0x120 SWAP5 ADD PUSH2 0x1F40 JUMP JUMPDEST PUSH1 0xE0 DUP5 ADD MSTORE PUSH2 0x100 DUP2 ADD MLOAD PUSH2 0x100 DUP5 ADD MSTORE ADD MLOAD PUSH2 0x120 DUP3 ADD MSTORE CODESIZE DUP1 PUSH2 0x19A3 JUMP JUMPDEST POP PUSH1 0x40 MLOAD SWAP1 RETURNDATASIZE SWAP1 DUP3 RETURNDATACOPY RETURNDATASIZE SWAP1 REVERT JUMPDEST POP CALLVALUE PUSH2 0x283 JUMPI PUSH1 0x20 CALLDATASIZE PUSH1 0x3 NOT ADD SLT PUSH2 0x283 JUMPI PUSH2 0x1B86 PUSH2 0x1D09 JUMP JUMPDEST PUSH1 0x3 SLOAD PUSH1 0x40 MLOAD PUSH4 0xDB8011EF PUSH1 0xE0 SHL DUP2 MSTORE PUSH1 0x1 PUSH1 0x1 PUSH1 0xA0 SHL SUB SWAP3 DUP4 AND PUSH1 0x4 DUP3 ADD MSTORE SWAP2 DUP4 SWAP2 DUP4 SWAP2 PUSH1 0x24 SWAP2 DUP4 SWAP2 AND GAS STATICCALL SWAP1 DUP2 ISZERO PUSH2 0x286 JUMPI DUP3 PUSH2 0xBD6 SWAP4 SWAP3 PUSH2 0xBDA JUMPI POP POP PUSH1 0x40 MLOAD SWAP2 DUP3 SWAP2 DUP3 PUSH2 0x1D3A JUMP JUMPDEST POP PUSH1 0x60 CALLDATASIZE PUSH1 0x3 NOT ADD SLT PUSH2 0x283 JUMPI DUP1 PUSH1 0x4 CALLDATALOAD PUSH1 0x3 DUP2 LT ISZERO PUSH2 0x293 JUMPI PUSH1 0x44 CALLDATALOAD SWAP1 DUP2 ISZERO ISZERO DUP1 SWAP3 SUB PUSH2 0x291 JUMPI PUSH2 0x1C02 PUSH2 0x1FEF JUMP JUMPDEST PUSH1 0x5 SLOAD PUSH1 0x1 PUSH1 0x1 PUSH1 0xA0 SHL SUB AND SWAP2 DUP3 EXTCODESIZE ISZERO PUSH2 0xAD9 JUMPI PUSH1 0x64 DUP5 SWAP3 PUSH1 0x40 MLOAD SWAP5 DUP6 SWAP4 DUP5 SWAP3 PUSH4 0x51CB525 PUSH1 0xE1 SHL DUP5 MSTORE PUSH1 0x4 DUP5 ADD MSTORE PUSH1 0x24 CALLDATALOAD PUSH1 0x24 DUP5 ADD MSTORE PUSH1 0x44 DUP4 ADD MSTORE CALLVALUE SWAP1 GAS CALL DUP1 ISZERO PUSH2 0x286 JUMPI PUSH2 0x272 JUMPI POP RETURN JUMPDEST POP PUSH1 0x20 CALLDATASIZE PUSH1 0x3 NOT ADD SLT PUSH2 0x283 JUMPI PUSH2 0x1C64 PUSH2 0x1FEF JUMP JUMPDEST PUSH1 0x3 SLOAD PUSH1 0x1 PUSH1 0x1 PUSH1 0xA0 SHL SUB AND DUP2 DUP2 EXTCODESIZE ISZERO PUSH2 0x283 JUMPI DUP1 PUSH1 0x24 SWAP3 PUSH1 0x40 MLOAD SWAP4 DUP5 DUP1 SWAP3 PUSH4 0x1669403 PUSH1 0xE2 SHL DUP3 MSTORE PUSH1 0x4 CALLDATALOAD PUSH1 0x4 DUP4 ADD MSTORE CALLVALUE SWAP1 GAS CALL DUP1 ISZERO PUSH2 0x1B5F JUMPI PUSH2 0x1CA6 JUMPI DUP1 RETURN JUMPDEST PUSH2 0x1CAF SWAP2 PUSH2 0x1E26 JUMP JUMPDEST CODESIZE DUP2 DUP1 RETURN JUMPDEST SWAP1 POP CALLVALUE PUSH2 0x38E JUMPI PUSH1 0x20 CALLDATASIZE PUSH1 0x3 NOT ADD SLT PUSH2 0x38E JUMPI PUSH1 0x4 CALLDATALOAD PUSH4 0xFFFFFFFF PUSH1 0xE0 SHL DUP2 AND DUP1 SWAP2 SUB PUSH2 0x5EA JUMPI PUSH1 0x20 SWAP3 POP PUSH4 0x7965DB0B PUSH1 0xE0 SHL DUP2 EQ SWAP1 DUP2 ISZERO PUSH2 0x1CF8 JUMPI JUMPDEST POP ISZERO ISZERO DUP2 MSTORE RETURN JUMPDEST PUSH4 0x1FFC9A7 PUSH1 0xE0 SHL EQ SWAP1 POP CODESIZE PUSH2 0x1CF1 JUMP JUMPDEST PUSH1 0x4 CALLDATALOAD SWAP1 PUSH1 0x1 PUSH1 0x1 PUSH1 0xA0 SHL SUB DUP3 AND DUP3 SUB PUSH2 0x1D1F JUMPI JUMP JUMPDEST PUSH1 0x0 DUP1 REVERT JUMPDEST PUSH1 0x24 CALLDATALOAD SWAP1 PUSH1 0x1 PUSH1 0x1 PUSH1 0xA0 SHL SUB DUP3 AND DUP3 SUB PUSH2 0x1D1F JUMPI JUMP JUMPDEST PUSH1 0x20 PUSH1 0x40 DUP2 DUP4 ADD SWAP3 DUP3 DUP2 MSTORE DUP5 MLOAD DUP1 SWAP5 MSTORE ADD SWAP3 ADD SWAP1 PUSH1 0x0 JUMPDEST DUP2 DUP2 LT PUSH2 0x1D5E JUMPI POP POP POP SWAP1 JUMP JUMPDEST DUP3 MLOAD DUP5 MSTORE PUSH1 0x20 SWAP4 DUP5 ADD SWAP4 SWAP1 SWAP3 ADD SWAP2 PUSH1 0x1 ADD PUSH2 0x1D51 JUMP JUMPDEST PUSH1 0x0 JUMPDEST DUP4 DUP2 LT PUSH2 0x1D87 JUMPI POP POP PUSH1 0x0 SWAP2 ADD MSTORE JUMP JUMPDEST DUP2 DUP2 ADD MLOAD DUP4 DUP3 ADD MSTORE PUSH1 0x20 ADD PUSH2 0x1D77 JUMP JUMPDEST SWAP1 PUSH1 0x20 SWAP2 PUSH2 0x1DB0 DUP2 MLOAD DUP1 SWAP3 DUP2 DUP6 MSTORE DUP6 DUP1 DUP7 ADD SWAP2 ADD PUSH2 0x1D74 JUMP JUMPDEST PUSH1 0x1F ADD PUSH1 0x1F NOT AND ADD ADD SWAP1 JUMP JUMPDEST PUSH2 0x140 DUP2 ADD SWAP1 DUP2 LT PUSH1 0x1 PUSH1 0x1 PUSH1 0x40 SHL SUB DUP3 GT OR PUSH2 0x1DD8 JUMPI PUSH1 0x40 MSTORE JUMP JUMPDEST PUSH4 0x4E487B71 PUSH1 0xE0 SHL PUSH1 0x0 MSTORE PUSH1 0x41 PUSH1 0x4 MSTORE PUSH1 0x24 PUSH1 0x0 REVERT JUMPDEST PUSH2 0x240 DUP2 ADD SWAP1 DUP2 LT PUSH1 0x1 PUSH1 0x1 PUSH1 0x40 SHL SUB DUP3 GT OR PUSH2 0x1DD8 JUMPI PUSH1 0x40 MSTORE JUMP JUMPDEST PUSH2 0x120 DUP2 ADD SWAP1 DUP2 LT PUSH1 0x1 PUSH1 0x1 PUSH1 0x40 SHL SUB DUP3 GT OR PUSH2 0x1DD8 JUMPI PUSH1 0x40 MSTORE JUMP JUMPDEST SWAP1 PUSH1 0x1F DUP1 NOT SWAP2 ADD AND DUP2 ADD SWAP1 DUP2 LT PUSH1 0x1 PUSH1 0x1 PUSH1 0x40 SHL SUB DUP3 GT OR PUSH2 0x1DD8 JUMPI PUSH1 0x40 MSTORE JUMP JUMPDEST PUSH1 0x1 PUSH1 0x1 PUSH1 0x40 SHL SUB DUP2 GT PUSH2 0x1DD8 JUMPI PUSH1 0x1F ADD PUSH1 0x1F NOT AND PUSH1 0x20 ADD SWAP1 JUMP JUMPDEST DUP2 PUSH1 0x1F DUP3 ADD SLT ISZERO PUSH2 0x1D1F JUMPI DUP1 CALLDATALOAD SWAP1 PUSH2 0x1E79 DUP3 PUSH2 0x1E47 JUMP JUMPDEST SWAP3 PUSH2 0x1E87 PUSH1 0x40 MLOAD SWAP5 DUP6 PUSH2 0x1E26 JUMP JUMPDEST DUP3 DUP5 MSTORE PUSH1 0x20 DUP4 DUP4 ADD ADD GT PUSH2 0x1D1F JUMPI DUP2 PUSH1 0x0 SWAP3 PUSH1 0x20 DUP1 SWAP4 ADD DUP4 DUP7 ADD CALLDATACOPY DUP4 ADD ADD MSTORE SWAP1 JUMP JUMPDEST PUSH1 0x20 DUP2 DUP4 SUB SLT PUSH2 0x1D1F JUMPI DUP1 MLOAD SWAP1 PUSH1 0x1 PUSH1 0x1 PUSH1 0x40 SHL SUB DUP3 GT PUSH2 0x1D1F JUMPI ADD SWAP1 DUP1 PUSH1 0x1F DUP4 ADD SLT ISZERO PUSH2 0x1D1F JUMPI DUP2 MLOAD SWAP2 PUSH1 0x1 PUSH1 0x1 PUSH1 0x40 SHL SUB DUP4 GT PUSH2 0x1DD8 JUMPI DUP3 PUSH1 0x5 SHL SWAP1 PUSH1 0x40 MLOAD SWAP4 PUSH2 0x1EF8 PUSH1 0x20 DUP5 ADD DUP7 PUSH2 0x1E26 JUMP JUMPDEST DUP5 MSTORE PUSH1 0x20 DUP1 DUP6 ADD SWAP3 DUP3 ADD ADD SWAP3 DUP4 GT PUSH2 0x1D1F JUMPI PUSH1 0x20 ADD SWAP1 JUMPDEST DUP3 DUP3 LT PUSH2 0x1F1C JUMPI POP POP POP SWAP1 JUMP JUMPDEST DUP2 MLOAD DUP2 MSTORE PUSH1 0x20 SWAP2 DUP3 ADD SWAP2 ADD PUSH2 0x1F0F JUMP JUMPDEST MLOAD SWAP1 PUSH1 0x1 PUSH1 0x1 PUSH1 0xA0 SHL SUB DUP3 AND DUP3 SUB PUSH2 0x1D1F JUMPI JUMP JUMPDEST DUP2 PUSH1 0x1F DUP3 ADD SLT ISZERO PUSH2 0x1D1F JUMPI DUP1 MLOAD PUSH2 0x1F56 DUP2 PUSH2 0x1E47 JUMP JUMPDEST SWAP3 PUSH2 0x1F64 PUSH1 0x40 MLOAD SWAP5 DUP6 PUSH2 0x1E26 JUMP JUMPDEST DUP2 DUP5 MSTORE PUSH1 0x20 DUP3 DUP5 ADD ADD GT PUSH2 0x1D1F JUMPI PUSH2 0x1F82 SWAP2 PUSH1 0x20 DUP1 DUP6 ADD SWAP2 ADD PUSH2 0x1D74 JUMP JUMPDEST SWAP1 JUMP JUMPDEST MLOAD SWAP1 DUP2 ISZERO ISZERO DUP3 SUB PUSH2 0x1D1F JUMPI JUMP JUMPDEST SWAP2 PUSH2 0x1FAF SWAP1 PUSH2 0x1F82 SWAP5 SWAP3 DUP5 MSTORE PUSH1 0x60 PUSH1 0x20 DUP6 ADD MSTORE PUSH1 0x60 DUP5 ADD SWAP1 PUSH2 0x1D97 JUMP JUMPDEST SWAP2 PUSH1 0x40 DUP2 DUP5 SUB SWAP2 ADD MSTORE PUSH2 0x1D97 JUMP JUMPDEST PUSH1 0x0 NOT DUP2 EQ PUSH2 0x1FCC JUMPI PUSH1 0x1 ADD SWAP1 JUMP JUMPDEST PUSH4 0x4E487B71 PUSH1 0xE0 SHL PUSH1 0x0 MSTORE PUSH1 0x11 PUSH1 0x4 MSTORE PUSH1 0x24 PUSH1 0x0 REVERT JUMPDEST SWAP2 SWAP1 DUP3 ADD DUP1 SWAP3 GT PUSH2 0x1FCC JUMPI JUMP JUMPDEST PUSH1 0xFF PUSH1 0x2 SLOAD AND PUSH2 0x1FFB JUMPI JUMP JUMPDEST PUSH4 0xD93C0665 PUSH1 0xE0 SHL PUSH1 0x0 MSTORE PUSH1 0x4 PUSH1 0x0 REVERT JUMPDEST CALLER PUSH1 0x0 SWAP1 DUP2 MSTORE PUSH32 0x7D7FFB7A348E1C6A02869081A26547B49160DD3DF72D1D75A570EB9B698292EC PUSH1 0x20 MSTORE PUSH1 0x40 SWAP1 KECCAK256 SLOAD PUSH1 0xFF AND ISZERO PUSH2 0x2045 JUMPI JUMP JUMPDEST PUSH4 0xE2517D3F PUSH1 0xE0 SHL PUSH1 0x0 MSTORE CALLER PUSH1 0x4 MSTORE PUSH32 0xA49807205CE4D355092EF5A8A18F56E8913CF4A201FBE287825B095693C21775 PUSH1 0x24 MSTORE PUSH1 0x44 PUSH1 0x0 REVERT JUMPDEST PUSH1 0x0 DUP2 DUP2 MSTORE PUSH1 0x20 DUP2 DUP2 MSTORE PUSH1 0x40 DUP1 DUP4 KECCAK256 CALLER DUP5 MSTORE SWAP1 SWAP2 MSTORE SWAP1 KECCAK256 SLOAD PUSH1 0xFF AND ISZERO PUSH2 0x20A1 JUMPI POP JUMP JUMPDEST PUSH4 0xE2517D3F PUSH1 0xE0 SHL PUSH1 0x0 MSTORE CALLER PUSH1 0x4 MSTORE PUSH1 0x24 MSTORE PUSH1 0x44 PUSH1 0x0 REVERT JUMPDEST PUSH1 0x0 DUP2 DUP2 MSTORE PUSH1 0x20 DUP2 DUP2 MSTORE PUSH1 0x40 DUP1 DUP4 KECCAK256 PUSH1 0x1 PUSH1 0x1 PUSH1 0xA0 SHL SUB DUP7 AND DUP5 MSTORE SWAP1 SWAP2 MSTORE SWAP1 KECCAK256 SLOAD PUSH1 0xFF AND PUSH2 0x213D JUMPI PUSH1 0x0 DUP2 DUP2 MSTORE PUSH1 0x20 DUP2 DUP2 MSTORE PUSH1 0x40 DUP1 DUP4 KECCAK256 PUSH1 0x1 PUSH1 0x1 PUSH1 0xA0 SHL SUB SWAP6 SWAP1 SWAP6 AND DUP1 DUP5 MSTORE SWAP5 SWAP1 SWAP2 MSTORE DUP2 KECCAK256 DUP1 SLOAD PUSH1 0xFF NOT AND PUSH1 0x1 OR SWAP1 SSTORE CALLER SWAP3 SWAP2 SWAP1 PUSH32 0x2F8788117E7EFF1D82E926EC794901D17C78024A50270940304540A733656F0D SWAP1 DUP1 LOG4 PUSH1 0x1 SWAP1 JUMP JUMPDEST POP POP PUSH1 0x0 SWAP1 JUMP JUMPDEST PUSH1 0x0 DUP2 DUP2 MSTORE PUSH1 0x20 DUP2 DUP2 MSTORE PUSH1 0x40 DUP1 DUP4 KECCAK256 PUSH1 0x1 PUSH1 0x1 PUSH1 0xA0 SHL SUB DUP7 AND DUP5 MSTORE SWAP1 SWAP2 MSTORE SWAP1 KECCAK256 SLOAD PUSH1 0xFF AND ISZERO PUSH2 0x213D JUMPI PUSH1 0x0 DUP2 DUP2 MSTORE PUSH1 0x20 DUP2 DUP2 MSTORE PUSH1 0x40 DUP1 DUP4 KECCAK256 PUSH1 0x1 PUSH1 0x1 PUSH1 0xA0 SHL SUB SWAP6 SWAP1 SWAP6 AND DUP1 DUP5 MSTORE SWAP5 SWAP1 SWAP2 MSTORE DUP2 KECCAK256 DUP1 SLOAD PUSH1 0xFF NOT AND SWAP1 SSTORE CALLER SWAP3 SWAP2 SWAP1 PUSH32 0xF6391F5C32D9C69D2A47EA670B442974B53935D1EDC7FD64EB21E047A839171B SWAP1 DUP1 LOG4 PUSH1 0x1 SWAP1 JUMP JUMPDEST PUSH1 0x7 SLOAD PUSH1 0x8 SLOAD PUSH1 0x9 SLOAD PUSH1 0xA SLOAD PUSH1 0x40 DUP1 MLOAD SWAP5 DUP6 MSTORE PUSH1 0x20 DUP6 ADD SWAP4 SWAP1 SWAP4 MSTORE SWAP2 DUP4 ADD MSTORE PUSH1 0x60 DUP3 ADD MSTORE PUSH32 0xB071B37BABBCC9E46C3C9012509AEDE8AC4050FBEBF8BC121816082742802CD9 SWAP1 PUSH1 0x80 SWAP1 LOG1 JUMP INVALID LOG2 PUSH5 0x6970667358 0x22 SLT KECCAK256 DUP4 BALANCE 0xC9 GAS RETURNDATACOPY MUL 0x2F 0xCE RETURNDATACOPY CALLCODE EQ 0xC9 0xC1 CALLDATASIZE 0x2A SMOD 0xA7 CREATE2 PUSH28 0xF717B7ADAEA99BDAE03111479F64736F6C634300081C00332F878811 PUSH31 0x7EFF1D82E926EC794901D17C78024A50270940304540A733656F0D7D7FFB7A CALLVALUE DUP15 SHR PUSH11 0x2869081A26547B49160DD RETURNDATASIZE 0xF7 0x2D SAR PUSH22 0xA570EB9B698292ECAD3228B676F7D3CD4284A5443F17 CALL SWAP7 0x2B CALLDATASIZE 0xE4 SWAP2 0xB3 EXP BLOCKHASH 0xB2 BLOCKHASH PC BLOBHASH 0xE5 SWAP8 0xBA PUSH0 0xB5 "},"methodIdentifiers":{"ADMIN_ROLE()":"75b238fc","ARBITRATOR_ROLE()":"9cea0787","DEFAULT_ADMIN_ROLE()":"a217fddf","agreeReturn(uint256)":"24df1f70","arbitration()":"9b732350","createListing(string,string,uint256,uint256,string)":"cc2ee0fc","createRental(uint256,address,uint256,uint256,uint256,uint256)":"bd55cc3a","createReview(address,uint256,string,string,uint256,uint8)":"7d04470a","createSubscription(uint8,uint256,bool)":"0a396a4a","getContractBalance()":"6f9fb98a","getListing(uint256)":"107a274a","getPlatformStatistics()":"5603e860","getRental(uint256)":"652bd29e","getRoleAdmin(bytes32)":"248a9ca3","getTotalListings()":"fbf30c35","getUserListingHistory(address)":"9492e302","getUserRentalHistory(address)":"0fc376a7","getUserReputation(address)":"baccbfdb","grantRole(bytes32,address)":"2f2ff15d","hasPremiumFeature(address,uint256)":"ad36d666","hasRole(bytes32,address)":"91d14854","initializePlatform(address,address,address,address,address)":"49041359","listingRegistry()":"5ebf3e9b","makeDeposit(uint256)":"059a500c","makeDepositWithToken(uint256,address)":"fc78aef1","openDispute(uint256,string,string)":"a4e18cd7","pausePlatform()":"6b78c29b","paused()":"5c975abb","renounceRole(bytes32,address)":"36568abe","rentalEscrow()":"e970a120","reputation()":"c52164c6","revokeRole(bytes32,address)":"d547741f","signContract(uint256,string)":"fea14f5e","subscriptionManager()":"bf158fd2","supportsInterface(bytes4)":"01ffc9a7","totalDisputes()":"c5e4ccc4","totalListings()":"c78b616c","totalRentals()":"dd4b22d1","totalVolume()":"5f81a57c","unpausePlatform()":"1a9ba7eb","withdrawFees(uint256)":"5e318e07"}}}}}