{"contracts/Arbitration.sol":{"Arbitration":{"abi":[{"inputs":[],"stateMutability":"nonpayable","type":"constructor"},{"inputs":[],"name":"AccessControlBadConfirmation","type":"error"},{"inputs":[{"internalType":"address","name":"account","type":"address"},{"internalType":"bytes32","name":"neededRole","type":"bytes32"}],"name":"AccessControlUnauthorizedAccount","type":"error"},{"inputs":[],"name":"EnforcedPause","type":"error"},{"inputs":[],"name":"ExpectedPause","type":"error"},{"inputs":[],"name":"ReentrancyGuardReentrantCall","type":"error"},{"anonymous":false,"inputs":[{"indexed":true,"internalType":"uint256","name":"arbitratorId","type":"uint256"},{"indexed":true,"internalType":"address","name":"rater","type":"address"},{"indexed":false,"internalType":"uint256","name":"rating","type":"uint256"},{"indexed":false,"internalType":"string","name":"feedback","type":"string"}],"name":"ArbitratorRated","type":"event"},{"anonymous":false,"inputs":[{"indexed":true,"internalType":"uint256","name":"arbitratorId","type":"uint256"},{"indexed":true,"internalType":"address","name":"arbitrator","type":"address"},{"indexed":false,"internalType":"string","name":"name","type":"string"},{"indexed":false,"internalType":"string","name":"description","type":"string"},{"indexed":false,"internalType":"uint256","name":"fee","type":"uint256"}],"name":"ArbitratorRegistered","type":"event"},{"anonymous":false,"inputs":[{"indexed":true,"internalType":"uint256","name":"arbitratorId","type":"uint256"},{"indexed":true,"internalType":"address","name":"arbitrator","type":"address"}],"name":"ArbitratorRemoved","type":"event"},{"anonymous":false,"inputs":[{"indexed":true,"internalType":"uint256","name":"disputeId","type":"uint256"},{"indexed":true,"internalType":"uint256","name":"rentalId","type":"uint256"},{"indexed":true,"internalType":"address","name":"arbitrator","type":"address"},{"indexed":false,"internalType":"uint256","name":"deadline","type":"uint256"}],"name":"DisputeAssigned","type":"event"},{"anonymous":false,"inputs":[{"indexed":true,"internalType":"uint256","name":"disputeId","type":"uint256"},{"indexed":true,"internalType":"address","name":"arbitrator","type":"address"},{"indexed":false,"internalType":"bool","name":"resolved","type":"bool"},{"indexed":false,"internalType":"string","name":"resolution","type":"string"}],"name":"DisputeResolved","type":"event"},{"anonymous":false,"inputs":[{"indexed":false,"internalType":"address","name":"account","type":"address"}],"name":"Paused","type":"event"},{"anonymous":false,"inputs":[{"indexed":true,"internalType":"bytes32","name":"role","type":"bytes32"},{"indexed":true,"internalType":"bytes32","name":"previousAdminRole","type":"bytes32"},{"indexed":true,"internalType":"bytes32","name":"newAdminRole","type":"bytes32"}],"name":"RoleAdminChanged","type":"event"},{"anonymous":false,"inputs":[{"indexed":true,"internalType":"bytes32","name":"role","type":"bytes32"},{"indexed":true,"internalType":"address","name":"account","type":"address"},{"indexed":true,"internalType":"address","name":"sender","type":"address"}],"name":"RoleGranted","type":"event"},{"anonymous":false,"inputs":[{"indexed":true,"internalType":"bytes32","name":"role","type":"bytes32"},{"indexed":true,"internalType":"address","name":"account","type":"address"},{"indexed":true,"internalType":"address","name":"sender","type":"address"}],"name":"RoleRevoked","type":"event"},{"anonymous":false,"inputs":[{"indexed":false,"internalType":"address","name":"account","type":"address"}],"name":"Unpaused","type":"event"},{"inputs":[],"name":"ADMIN_ROLE","outputs":[{"internalType":"bytes32","name":"","type":"bytes32"}],"stateMutability":"view","type":"function"},{"inputs":[],"name":"ARBITRATOR_FEE_BPS","outputs":[{"internalType":"uint256","name":"","type":"uint256"}],"stateMutability":"view","type":"function"},{"inputs":[],"name":"ARBITRATOR_ROLE","outputs":[{"internalType":"bytes32","name":"","type":"bytes32"}],"stateMutability":"view","type":"function"},{"inputs":[],"name":"BASIS_POINTS","outputs":[{"internalType":"uint256","name":"","type":"uint256"}],"stateMutability":"view","type":"function"},{"inputs":[],"name":"DEFAULT_ADMIN_ROLE","outputs":[{"internalType":"bytes32","name":"","type":"bytes32"}],"stateMutability":"view","type":"function"},{"inputs":[],"name":"MIN_DISPUTE_AMOUNT","outputs":[{"internalType":"uint256","name":"","type":"uint256"}],"stateMutability":"view","type":"function"},{"inputs":[{"internalType":"address","name":"","type":"address"}],"name":"arbitratorAddressToId","outputs":[{"internalType":"uint256","name":"","type":"uint256"}],"stateMutability":"view","type":"function"},{"inputs":[{"internalType":"uint256","name":"","type":"uint256"},{"internalType":"uint256","name":"","type":"uint256"}],"name":"arbitratorDisputes","outputs":[{"internalType":"uint256","name":"","type":"uint256"}],"stateMutability":"view","type":"function"},{"inputs":[{"internalType":"uint256","name":"","type":"uint256"},{"internalType":"address","name":"","type":"address"}],"name":"arbitratorRatings","outputs":[{"internalType":"uint256","name":"","type":"uint256"}],"stateMutability":"view","type":"function"},{"inputs":[{"internalType":"uint256","name":"","type":"uint256"}],"name":"arbitrators","outputs":[{"internalType":"uint256","name":"arbitratorId","type":"uint256"},{"internalType":"address","name":"arbitrator","type":"address"},{"internalType":"string","name":"name","type":"string"},{"internalType":"string","name":"description","type":"string"},{"internalType":"uint256","name":"fee","type":"uint256"},{"internalType":"uint256","name":"totalDisputes","type":"uint256"},{"internalType":"uint256","name":"resolvedDisputes","type":"uint256"},{"internalType":"uint256","name":"averageRating","type":"uint256"},{"internalType":"bool","name":"isActive","type":"bool"},{"internalType":"uint256","name":"createdAt","type":"uint256"}],"stateMutability":"view","type":"function"},{"inputs":[{"internalType":"uint256","name":"disputeId","type":"uint256"},{"internalType":"uint256","name":"arbitratorId","type":"uint256"}],"name":"assignArbitrator","outputs":[],"stateMutability":"nonpayable","type":"function"},{"inputs":[{"internalType":"uint256","name":"disputeAmount","type":"uint256"},{"internalType":"uint256","name":"arbitratorId","type":"uint256"}],"name":"calculateArbitratorFee","outputs":[{"internalType":"uint256","name":"","type":"uint256"}],"stateMutability":"view","type":"function"},{"inputs":[{"internalType":"uint256","name":"rentalId","type":"uint256"},{"internalType":"string","name":"reason","type":"string"},{"internalType":"string","name":"evidenceIpfsHash","type":"string"}],"name":"createDispute","outputs":[],"stateMutability":"nonpayable","type":"function"},{"inputs":[{"internalType":"uint256","name":"","type":"uint256"}],"name":"disputeCountByArbitrator","outputs":[{"internalType":"uint256","name":"","type":"uint256"}],"stateMutability":"view","type":"function"},{"inputs":[{"internalType":"uint256","name":"","type":"uint256"}],"name":"disputes","outputs":[{"internalType":"uint256","name":"disputeId","type":"uint256"},{"internalType":"uint256","name":"rentalId","type":"uint256"},{"internalType":"address","name":"initiator","type":"address"},{"internalType":"address","name":"arbitrator","type":"address"},{"internalType":"enum Arbitration.DisputeStatus","name":"status","type":"uint8"},{"internalType":"string","name":"reason","type":"string"},{"internalType":"string","name":"evidenceIpfsHash","type":"string"},{"internalType":"string","name":"resolution","type":"string"},{"internalType":"uint256","name":"createdAt","type":"uint256"},{"internalType":"uint256","name":"assignedAt","type":"uint256"},{"internalType":"uint256","name":"resolvedAt","type":"uint256"},{"internalType":"uint256","name":"deadline","type":"uint256"},{"internalType":"uint256","name":"arbitratorFee","type":"uint256"}],"stateMutability":"view","type":"function"},{"inputs":[],"name":"getActiveArbitrators","outputs":[{"internalType":"uint256[]","name":"","type":"uint256[]"}],"stateMutability":"view","type":"function"},{"inputs":[{"internalType":"uint256","name":"arbitratorId","type":"uint256"}],"name":"getArbitrator","outputs":[{"components":[{"internalType":"uint256","name":"arbitratorId","type":"uint256"},{"internalType":"address","name":"arbitrator","type":"address"},{"internalType":"string","name":"name","type":"string"},{"internalType":"string","name":"description","type":"string"},{"internalType":"uint256","name":"fee","type":"uint256"},{"internalType":"uint256","name":"totalDisputes","type":"uint256"},{"internalType":"uint256","name":"resolvedDisputes","type":"uint256"},{"internalType":"uint256","name":"averageRating","type":"uint256"},{"internalType":"bool","name":"isActive","type":"bool"},{"internalType":"uint256","name":"createdAt","type":"uint256"}],"internalType":"struct Arbitration.Arbitrator","name":"","type":"tuple"}],"stateMutability":"view","type":"function"},{"inputs":[{"internalType":"uint256","name":"arbitratorId","type":"uint256"}],"name":"getArbitratorDisputes","outputs":[{"internalType":"uint256[]","name":"","type":"uint256[]"}],"stateMutability":"view","type":"function"},{"inputs":[{"internalType":"uint256","name":"disputeId","type":"uint256"}],"name":"getDispute","outputs":[{"components":[{"internalType":"uint256","name":"disputeId","type":"uint256"},{"internalType":"uint256","name":"rentalId","type":"uint256"},{"internalType":"address","name":"initiator","type":"address"},{"internalType":"address","name":"arbitrator","type":"address"},{"internalType":"enum Arbitration.DisputeStatus","name":"status","type":"uint8"},{"internalType":"string","name":"reason","type":"string"},{"internalType":"string","name":"evidenceIpfsHash","type":"string"},{"internalType":"string","name":"resolution","type":"string"},{"internalType":"uint256","name":"createdAt","type":"uint256"},{"internalType":"uint256","name":"assignedAt","type":"uint256"},{"internalType":"uint256","name":"resolvedAt","type":"uint256"},{"internalType":"uint256","name":"deadline","type":"uint256"},{"internalType":"uint256","name":"arbitratorFee","type":"uint256"}],"internalType":"struct Arbitration.Dispute","name":"","type":"tuple"}],"stateMutability":"view","type":"function"},{"inputs":[{"internalType":"bytes32","name":"role","type":"bytes32"}],"name":"getRoleAdmin","outputs":[{"internalType":"bytes32","name":"","type":"bytes32"}],"stateMutability":"view","type":"function"},{"inputs":[{"internalType":"address","name":"user","type":"address"}],"name":"getUserDisputes","outputs":[{"internalType":"uint256[]","name":"","type":"uint256[]"}],"stateMutability":"view","type":"function"},{"inputs":[{"internalType":"bytes32","name":"role","type":"bytes32"},{"internalType":"address","name":"account","type":"address"}],"name":"grantRole","outputs":[],"stateMutability":"nonpayable","type":"function"},{"inputs":[{"internalType":"bytes32","name":"role","type":"bytes32"},{"internalType":"address","name":"account","type":"address"}],"name":"hasRole","outputs":[{"internalType":"bool","name":"","type":"bool"}],"stateMutability":"view","type":"function"},{"inputs":[],"name":"pause","outputs":[],"stateMutability":"nonpayable","type":"function"},{"inputs":[],"name":"paused","outputs":[{"internalType":"bool","name":"","type":"bool"}],"stateMutability":"view","type":"function"},{"inputs":[{"internalType":"uint256","name":"arbitratorId","type":"uint256"},{"internalType":"uint256","name":"rating","type":"uint256"},{"internalType":"string","name":"feedback","type":"string"}],"name":"rateArbitrator","outputs":[],"stateMutability":"nonpayable","type":"function"},{"inputs":[{"internalType":"string","name":"name","type":"string"},{"internalType":"string","name":"description","type":"string"},{"internalType":"uint256","name":"fee","type":"uint256"}],"name":"registerArbitrator","outputs":[],"stateMutability":"nonpayable","type":"function"},{"inputs":[{"internalType":"uint256","name":"arbitratorId","type":"uint256"}],"name":"removeArbitrator","outputs":[],"stateMutability":"nonpayable","type":"function"},{"inputs":[{"internalType":"bytes32","name":"role","type":"bytes32"},{"internalType":"address","name":"callerConfirmation","type":"address"}],"name":"renounceRole","outputs":[],"stateMutability":"nonpayable","type":"function"},{"inputs":[{"internalType":"uint256","name":"disputeId","type":"uint256"},{"internalType":"bool","name":"resolved","type":"bool"},{"internalType":"string","name":"resolution","type":"string"}],"name":"resolveDispute","outputs":[],"stateMutability":"nonpayable","type":"function"},{"inputs":[{"internalType":"bytes32","name":"role","type":"bytes32"},{"internalType":"address","name":"account","type":"address"}],"name":"revokeRole","outputs":[],"stateMutability":"nonpayable","type":"function"},{"inputs":[{"internalType":"uint256","name":"disputeId","type":"uint256"}],"name":"startDisputeReview","outputs":[],"stateMutability":"nonpayable","type":"function"},{"inputs":[{"internalType":"bytes4","name":"interfaceId","type":"bytes4"}],"name":"supportsInterface","outputs":[{"internalType":"bool","name":"","type":"bool"}],"stateMutability":"view","type":"function"},{"inputs":[],"name":"unpause","outputs":[],"stateMutability":"nonpayable","type":"function"},{"inputs":[{"internalType":"address","name":"","type":"address"},{"internalType":"uint256","name":"","type":"uint256"}],"name":"userDisputes","outputs":[{"internalType":"uint256","name":"","type":"uint256"}],"stateMutability":"view","type":"function"}],"evm":{"bytecode":{"linkReferences":{},"object":"608060405234610030576001805561001633610035565b50610020336100b1565b506040516129db908161014a8239f35b600080fd5b6001600160a01b0381166000908152600080516020612b65833981519152602052604090205460ff166100ab576001600160a01b03166000818152600080516020612b6583398151915260205260408120805460ff19166001179055339190600080516020612b258339815191528180a4600190565b50600090565b6001600160a01b0381166000908152600080516020612b45833981519152602052604090205460ff166100ab576001600160a01b03166000818152600080516020612b4583398151915260205260408120805460ff191660011790553391907fa49807205ce4d355092ef5a8a18f56e8913cf4a201fbe287825b095693c2177590600080516020612b258339815191529080a460019056fe608080604052600436101561001357600080fd5b60003560e01c90816301ffc9a7146121965750806303a4c7a21461215c5780631f4cf031146120a6578063248a9ca3146120715780632840662d14611d63578063299389dc1461186e5780632b364d08146118265780632f2ff15d146117e657806336568abe146117a05780633dc04159146117565780633f4ba83a146116ed5780633ffc00061461154657806340936c5c1461151a5780634dc6c9a6146114f8578063564a565d146113e35780635c975abb146113c0578063632e8176146113a45780637100dc6214610e1557806375b238fc14610dda57806381e25fa914610d9a5780638456cb5914610d40578063891cc99c14610b2057806391d1485414610ad35780639cea078714610a98578063a217fddf14610a7c578063a6430cc0146109b0578063b0197ee414610785578063b2a6ff95146106a2578063bfb0a55b1461062b578063c2cba05a1461052d578063d547741f146104e6578063e1f1c4a7146104c9578063e3a96cbd14610278578063e45d0104146101ff5763e4c2bd18146101a057600080fd5b346101fa5760206127106101f16101b636612408565b60008181526005865260409020600101546101db906001600160a01b03161515612458565b600052600584526004604060002001549061262c565b04604051908152f35b600080fd5b346101fa5760203660031901126101fa576004356000526009602052604060002060405190816020825491828152019160005260206000209060005b8181106102625761025e856102528187038261224d565b6040519182918261241e565b0390f35b825484526020909301926001928301920161023b565b346101fa5760203660031901126101fa57600435600061018060405161029d81612231565b828152826020820152826040820152826060820152826080820152606060a0820152606060c0820152606060e082015282610100820152826101208201528261014082015282610160820152015280600052600760205261030f60018060a01b0360026040600020015416151561250d565b6000526007602052604060002060405161032881612231565b8154815260018201546020820190815260028301546001600160a01b039081166040840190815260038501549182166060850190815292946080850193919290919060a01c60ff1660058110156104b357845261038760048301612357565b60a086019081529361039b60058401612357565b60c087019081526103ae60068501612357565b9060e0880191825260078501549661010089019788526008860154936101208a019485526009870154956101408b01968752600a880154976101608c01988952600b0154986101808c01998a526040519c8d809d602082525190602001525160408d0152600160a01b6001900390511660608c0152600160a01b6001900390511660808b01525160a08a01610442916123fb565b5160c089016101a090526101c0890161045a916122dc565b9051888203601f190160e08a015261047291906122dc565b9051878203601f190161010089015261048b91906122dc565b9451610120870152516101408601525161016085015251610180840152516101a08301520390f35b634e487b7160e01b600052602160045260246000fd5b346101fa5760003660031901126101fa5760206040516127108152f35b346101fa5760403660031901126101fa5761052b6004356105056121ff565b9061052661052182600052600060205260016040600020015490565b6126c8565b6127b1565b005b346101fa5760003660031901126101fa576004546000805b8281106105f557506105568161263f565b90610564604051928361224d565b808252610573601f199161263f565b0136602083013760009160005b818110610595576040518061025e858261241e565b80600052600560205260ff600860406000200154166105b7575b600101610580565b9282518110156105df576105d78185602060019460051b870101526125e3565b9390506105af565b634e487b7160e01b600052603260045260246000fd5b80600052600560205260ff60086040600020015416610617575b600101610545565b906106236001916125e3565b91905061060f565b346101fa5760203660031901126101fa576001600160a01b0361064c6121e9565b166000526008602052604060002060405190816020825491828152019160005260206000209060005b81811061068c5761025e856102528187038261224d565b8254845260209093019260019283019201610675565b346101fa5760203660031901126101fa5760043533600052600660205260406000205460005260056020526106e83360018060a01b0360016040600020015416146124a4565b60008181526007602052604090206002015461070e906001600160a01b0316151561250d565b80600052600760205260ff60036040600020015460a01c1660058110156104b357600161073b9114612552565b600081815260076020526040902060030154610761906001600160a01b03163314612597565b6000908152600760205260409020600301805460ff60a01b1916600160a11b179055005b346101fa5760603660031901126101fa576024356004356044356001600160401b0381116101fa576107bb90369060040161226e565b918160005260056020526107e060018060a01b03600160406000200154161515612458565b6001811015806109a5575b15610960576000828152600a6020908152604080832033845290915290205461091b5781600052600a602052604060002060018060a01b0333166000526020528060406000205581600052600b60205260406000205490600182018092116109055782600052600560205261087760076040600020015484600052600b6020526040600020549061262c565b918183018093116109055780156108ef57807fd2941b1ce542dbe6d3c9d2eb7eca335ae6abe3e143d5d114c4315701bded25f1930484600052600560205260076040600020015583600052600b60205260406000205560405190815260406020820152806108ea339560408301906122dc565b0390a3005b634e487b7160e01b600052601260045260246000fd5b634e487b7160e01b600052601160045260246000fd5b60405162461bcd60e51b815260206004820152601d60248201527f416c726561647920726174656420746869732061726269747261746f720000006044820152606490fd5b60405162461bcd60e51b815260206004820152601e60248201527f526174696e67206d757374206265206265747765656e203120616e64203500006044820152606490fd5b5060058111156107eb565b346101fa5760203660031901126101fa576004356000908152600560205260409020805460018201546001600160a01b0316916109ef60028201612357565b6109fb60038301612357565b916004810154926005820154600683015490610a55600785015493610a47600960ff600889015416970154976040519b8c9b8c5260208c015261014060408c01526101408b01906122dc565b9089820360608b01526122dc565b95608088015260a087015260c086015260e085015215156101008401526101208301520390f35b346101fa5760003660031901126101fa57602060405160008152f35b346101fa5760003660031901126101fa5760206040517f16ceee8289685dd2a02b9c8ae81d2df373176ce53519e6284e2a2950d6546ffa8152f35b346101fa5760403660031901126101fa57610aec6121ff565b600435600052600060205260406000209060018060a01b0316600052602052602060ff604060002054166040519015158152f35b346101fa57610b2e36612408565b610b36612656565b600082815260076020526040902060020154610b5c906001600160a01b0316151561250d565b81600052600760205260ff60036040600020015460a01c1660058110156104b357610b879015612552565b80600052600560205260ff6008604060002001541615610cfb57600081815260056020526040902060010154610bc7906001600160a01b03161515612458565b60008181526005602090815260408083206001015485845260079092529091206003810180546001600160a81b0319166001600160a01b039390931692909217600160a01b1790915542600890910181905562093a80810190811061090557826000526007602052600a60406000200155806000526005602052600460406000200154826000526007602052600b604060002001558060005260056020526005604060002001610c7781546125e3565b9055806000526009602052610c908260406000206125f2565b81600052600760205260016040600020015490600052600560205260018060a01b0360016040600020015416918060005260076020527f7cc89729f08ed54994b7e734d35259d7f61e83915121fcbbff9e19d63d75e4ba6020600a60406000200154604051908152a4005b60405162461bcd60e51b815260206004820152601860248201527f41726269747261746f72206973206e6f742061637469766500000000000000006044820152606490fd5b346101fa5760003660031901126101fa57610d59612656565b610d61612968565b600160ff1960025416176002557f62e78cea01bee320cd4e420270b5ea74000d11b0c9f74754ebdbfc544b05a2586020604051338152a1005b346101fa57610da836612408565b906000526009602052604060002080548210156101fa57602091610dcb916122c4565b90549060031b1c604051908152f35b346101fa5760003660031901126101fa5760206040517fa49807205ce4d355092ef5a8a18f56e8913cf4a201fbe287825b095693c217758152f35b346101fa5760603660031901126101fa576024356001600160401b0381116101fa57610e4590369060040161226e565b6044356001600160401b0381116101fa57610e6490369060040161226e565b610e6c612968565b81511561136657805115611321576003549060018201600355604051610e9181612231565b828152602081019060043582526040810192338452606082019560008752608083016000815260a0840191825260c08401928352602095604051610ed5888261224d565b600080825260e087019190915242610100870152610120860181905261014086018190526101608601819052610180860181905288815260078852604090208551815595516001870155516002860180546001600160a01b03199081166001600160a01b03938416179091559851600387018054909a169116178855519660058810156104b35760009781549060ff60a01b9060a01b169060ff60a01b1916179055518051906001600160401b03821161118c578190610f98600487015461231d565b601f81116112d0575b508690601f831160011461126757899261125c575b50508160011b916000199060031b1c19161760048401555b51805160058401916001600160401b03821161118c578190610ff0845461231d565b601f811161120e575b508690601f83116001146111ab5789926111a0575b50508160011b916000199060031b1c19161790555b6006820160e08201518051906001600160401b03821161118c57611047835461231d565b601f8111611149575b508590601f83116001146110d857936008959383600b94610180946110ca9b9a988d926110cd575b50508160011b916000199060031b1c19161790555b6101008101516007850155610120810151868501556101408101516009850155610160810151600a850155015191015533855252604083206125f2565b80f35b015190508c80611078565b8389528689209190601f1984168a5b818110611132575084610180946110ca9b9a989460089a9894600b9860019510611119575b505050811b01905561108d565b015160001960f88460031b161c191690558c808061110c565b9293896001819287860151815501950193016110e7565b838952868920601f840160051c810191888510611182575b601f0160051c01905b8181106111775750611050565b89815560010161116a565b9091508190611161565b634e487b7160e01b88526041600452602488fd5b01519050888061100e565b848a52878a209250601f1984168a5b898282106111f85750509084600195949392106111df575b505050811b019055611023565b015160001960f88460031b161c191690558880806111d2565b60018596829396860151815501950193016111ba565b909150838952868920601f840160051c810191888510611252575b90601f859493920160051c01905b8181106112445750610ff9565b8a8155849350600101611237565b9091508190611229565b015190508880610fb6565b600487018a52878a209250601f1984168a5b898282106112ba5750509084600195949392106112a1575b505050811b016004840155610fce565b015160001960f88460031b161c19169055888080611291565b6001859682939686015181550195019301611279565b909150600486018952868920601f840160051c810191888510611317575b90601f859493920160051c01905b8181106113095750610fa1565b8a81558493506001016112fc565b90915081906112ee565b60405162461bcd60e51b815260206004820152601d60248201527f45766964656e636520686173682063616e6e6f7420626520656d7074790000006044820152606490fd5b60405162461bcd60e51b8152602060048201526016602482015275526561736f6e2063616e6e6f7420626520656d70747960501b6044820152606490fd5b346101fa5760003660031901126101fa57602060405160648152f35b346101fa5760003660031901126101fa57602060ff600254166040519015158152f35b346101fa5760203660031901126101fa57600435600052600760205260406000208054600182015491600160a01b600190036002820154166003820154916004810161142e90612357565b9261143b60058301612357565b9361144860068401612357565b600784015495600885015492600986015494600a87015496600b0154976040519b8c9b8c5260208c015260408b0152600160a01b60019003811660608b015260808a019060a01c60ff169061149c916123fb565b60a089016101a090526101a089016114b3916122dc565b88810360c08a01526114c4916122dc565b87810360e08901526114d5916122dc565b946101008701526101208601526101408501526101608401526101808301520390f35b346101fa5760003660031901126101fa576020604051662386f26fc100008152f35b346101fa5760203660031901126101fa57600435600052600b6020526020604060002054604051908152f35b346101fa5760203660031901126101fa57600435600061012060405161156b81612215565b828152826020820152606060408201526060808201528260808201528260a08201528260c08201528260e08201528261010082015201528060005260056020526115c660018060a01b03600160406000200154161515612458565b600052600560205260406000206040516115df81612215565b8154815260018201546001600160a01b0316602082019081529161160560028201612357565b6040830190815261161860038301612357565b916060840192835260048101549260808501938452600582015460a0860190815260068301549060c087019182526116bf60078501549360e089019485526116ac600960ff600889015416976101008c0198151589520154976101208b019889526040519b8c9b60208d525160208d015260018060a01b0390511660408c01525161014060608c01526101608b01906122dc565b9051898203601f190160808b01526122dc565b955160a08801525160c08701525160e086015251610100850152511515610120840152516101408301520390f35b346101fa5760003660031901126101fa57611706612656565b60025460ff8116156117455760ff19166002557f5db9ee0a495bf2e6ff9c91a7834c1ba4fdd244a5e8aa4e537bd38aeae4b073aa6020604051338152a1005b638dfc202b60e01b60005260046000fd5b346101fa5760403660031901126101fa5761176f6121e9565b6001600160a01b03166000908152600860205260409020805460243591908210156101fa57602091610dcb916122c4565b346101fa5760403660031901126101fa576117b96121ff565b336001600160a01b038216036117d55761052b906004356127b1565b63334bd91960e11b60005260046000fd5b346101fa5760403660031901126101fa5761052b6004356118056121ff565b9061182161052182600052600060205260016040600020015490565b6128e4565b346101fa5760403660031901126101fa5761183f6121ff565b600435600052600a60205260406000209060018060a01b03166000526020526020604060002054604051908152f35b346101fa5760603660031901126101fa576004356001600160401b0381116101fa5761189e90369060040161226e565b6024356001600160401b0381116101fa576118bd90369060040161226e565b60443591805115611d27576103e88311611cea57336000526006602052604060002054611ca55760045491600183016004556040516118fb81612215565b8381526020810133815260408201848152606083018481526080840188815260a085016000815260c08601916000835260e087019360008552610100880195600187526101208901974289528c6000526005602052604060002099518a5560018060a01b0390511660018a019060018060a01b03166bffffffffffffffffffffffff60a01b8254161790556002890190518051906001600160401b038211611bcc5781906119a9845461231d565b601f8111611c52575b50602090601f8311600114611bed57600092611be2575b50508160011b916000199060031b1c19161790555b51805160038901916001600160401b038211611bcc576119fe835461231d565b601f8111611b84575b50602090601f8311600114611aed579282611ad49b99969360099996937f9c5ff23476fadd8b52890462b7bc7b65f169b3574ce9d1ebb177145d3c8fce9b9f9e9c9996600092611ae2575b50508160011b916000199060031b1c19161790555b516004880155516005870155516006860155516007850155600884019051151560ff801983541691161790555191015533600052600660205284604060002055611ab03361283a565b50611ac6604051936060855260608501906122dc565b9083820360208501526122dc565b9360408201528033940390a3005b015190503880611a52565b90601f1983169184600052816000209260005b818110611b6c57509360099996937f9c5ff23476fadd8b52890462b7bc7b65f169b3574ce9d1ebb177145d3c8fce9b9f9e9c999693600193611ad49f9d9a978411611b53575b505050811b019055611a67565b015160001960f88460031b161c19169055388080611b46565b92936020600181928786015181550195019301611b00565b836000526020600020601f840160051c81019160208510611bc2575b601f0160051c01905b818110611bb65750611a07565b60008155600101611ba9565b9091508190611ba0565b634e487b7160e01b600052604160045260246000fd5b015190508f806119c9565b60008581528281209350601f198516905b818110611c3a5750908460019594939210611c21575b505050811b0190556119de565b015160001960f88460031b161c191690558f8080611c14565b92936020600181928786015181550195019301611bfe565b909150836000526020600020601f840160051c81019160208510611c9b575b90601f859493920160051c01905b818110611c8c57506119b2565b60008155849350600101611c7f565b9091508190611c71565b60405162461bcd60e51b815260206004820152601d60248201527f41726269747261746f7220616c726561647920726567697374657265640000006044820152606490fd5b60405162461bcd60e51b81526020600482015260156024820152744665652063616e6e6f74206578636565642031302560581b6044820152606490fd5b60405162461bcd60e51b81526020600482015260146024820152734e616d652063616e6e6f7420626520656d70747960601b6044820152606490fd5b346101fa5760603660031901126101fa57600435602435908115158092036101fa576044356001600160401b0381116101fa57611da490369060040161226e565b913360005260066020526040600020546000526005602052611dd73360018060a01b0360016040600020015416146124a4565b600082815260076020526040902060020154611dfd906001600160a01b0316151561250d565b81600052600760205260ff60036040600020015460a01c1660058110156104b3576002611e2a9114612552565b600082815260076020526040902060030154611e50906001600160a01b03163314612597565b816000526007602052600a60406000200154421161202c57600082815260076020526040902060038101805460ff60a01b1916600360a01b17905542600982015583516006909101906001600160401b038111611bcc57611eb1825461231d565b601f8111611fe4575b506020601f8211600114611f5d5790807f279a574e61b6d37f46545f470422464b255aeae50b99a8e2eca691fb695cf342949392600091611f52575b508160011b916000199060031b1c19161790555b33600052600660205260406000205460005260056020526006604060002001611f3381546125e3565b905560405190815260406020820152806108ea339560408301906122dc565b905086015187611ef6565b601f1982169083600052806000209160005b818110611fcc57509183917f279a574e61b6d37f46545f470422464b255aeae50b99a8e2eca691fb695cf34296959460019410611fb3575b5050811b019055611f0a565b88015160001960f88460031b161c191690558780611fa7565b9192602060018192868c015181550194019201611f6f565b826000526020600020601f830160051c81019160208410612022575b601f0160051c01905b8181106120165750611eba565b60008155600101612009565b9091508190612000565b60405162461bcd60e51b815260206004820152601960248201527f4469737075746520646561646c696e65206578636565646564000000000000006044820152606490fd5b346101fa5760203660031901126101fa57602061209e600435600052600060205260016040600020015490565b604051908152f35b346101fa5760203660031901126101fa576004356120c2612656565b6000818152600560205260409020600101546120e8906001600160a01b03161515612458565b600081815260056020526040902060088101805460ff1916905560010154612118906001600160a01b0316612703565b506000818152600560205260408120600101546001600160a01b031691907f8f2c47dad40a250f8d700faabc49bde5dc6bed233eeaf1a220870497f3301ed19080a3005b346101fa5760203660031901126101fa576001600160a01b0361217d6121e9565b1660005260066020526020604060002054604051908152f35b346101fa5760203660031901126101fa576004359063ffffffff60e01b82168092036101fa57602091637965db0b60e01b81149081156121d8575b5015158152f35b6301ffc9a760e01b149050836121d1565b600435906001600160a01b03821682036101fa57565b602435906001600160a01b03821682036101fa57565b61014081019081106001600160401b03821117611bcc57604052565b6101a081019081106001600160401b03821117611bcc57604052565b90601f801991011681019081106001600160401b03821117611bcc57604052565b81601f820112156101fa578035906001600160401b038211611bcc57604051926122a2601f8401601f19166020018561224d565b828452602083830101116101fa57816000926020809301838601378301015290565b80548210156105df5760005260206000200190600090565b919082519283825260005b848110612308575050826000602080949584010152601f8019910116010190565b806020809284010151828286010152016122e7565b90600182811c9216801561234d575b602083101461233757565b634e487b7160e01b600052602260045260246000fd5b91607f169161232c565b906040519182600082549261236b8461231d565b80845293600181169081156123d95750600114612392575b506123909250038361224d565b565b90506000929192526020600020906000915b8183106123bd5750509060206123909282010138612383565b60209193508060019154838589010152019101909184926123a4565b90506020925061239094915060ff191682840152151560051b82010138612383565b9060058210156104b35752565b60409060031901126101fa576004359060243590565b602060408183019282815284518094520192019060005b8181106124425750505090565b8251845260209384019390920191600101612435565b1561245f57565b60405162461bcd60e51b815260206004820152601960248201527f41726269747261746f7220646f6573206e6f74206578697374000000000000006044820152606490fd5b156124ab57565b60405162461bcd60e51b815260206004820152603460248201527f4f6e6c79207468652061737369676e65642061726269747261746f722063616e604482015273103832b93337b936903a3434b99030b1ba34b7b760611b6064820152608490fd5b1561251457565b60405162461bcd60e51b8152602060048201526016602482015275111a5cdc1d5d1948191bd95cc81b9bdd08195e1a5cdd60521b6044820152606490fd5b1561255957565b60405162461bcd60e51b8152602060048201526016602482015275496e76616c696420646973707574652073746174757360501b6044820152606490fd5b1561259e57565b60405162461bcd60e51b815260206004820152601c60248201527f4e6f742061737369676e656420746f20746869732064697370757465000000006044820152606490fd5b60001981146109055760010190565b805468010000000000000000811015611bcc57612614916001820181556122c4565b819291549060031b91821b91600019901b1916179055565b8181029291811591840414171561090557565b6001600160401b038111611bcc5760051b60200190565b3360009081527f7d7ffb7a348e1c6a02869081a26547b49160dd3df72d1d75a570eb9b698292ec602052604090205460ff161561268f57565b63e2517d3f60e01b600052336004527fa49807205ce4d355092ef5a8a18f56e8913cf4a201fbe287825b095693c2177560245260446000fd5b60008181526020818152604080832033845290915290205460ff16156126eb5750565b63e2517d3f60e01b6000523360045260245260446000fd5b6001600160a01b0381166000908152600080516020612986833981519152602052604090205460ff16156127ab576001600160a01b0316600081815260008051602061298683398151915260205260408120805460ff191690553391907f16ceee8289685dd2a02b9c8ae81d2df373176ce53519e6284e2a2950d6546ffa907ff6391f5c32d9c69d2a47ea670b442974b53935d1edc7fd64eb21e047a839171b9080a4600190565b50600090565b6000818152602081815260408083206001600160a01b038616845290915290205460ff1615612833576000818152602081815260408083206001600160a01b0395909516808452949091528120805460ff19169055339291907ff6391f5c32d9c69d2a47ea670b442974b53935d1edc7fd64eb21e047a839171b9080a4600190565b5050600090565b6001600160a01b0381166000908152600080516020612986833981519152602052604090205460ff166127ab576001600160a01b0316600081815260008051602061298683398151915260205260408120805460ff191660011790553391907f16ceee8289685dd2a02b9c8ae81d2df373176ce53519e6284e2a2950d6546ffa907f2f8788117e7eff1d82e926ec794901d17c78024a50270940304540a733656f0d9080a4600190565b6000818152602081815260408083206001600160a01b038616845290915290205460ff16612833576000818152602081815260408083206001600160a01b0395909516808452949091528120805460ff19166001179055339291907f2f8788117e7eff1d82e926ec794901d17c78024a50270940304540a733656f0d9080a4600190565b60ff6002541661297457565b63d93c066560e01b60005260046000fdfe124a13b16867194fc8fe1b97be0d668b89ac2a8dd77d418cf4feefa89864a626a26469706673582212200bcc317857f0844b1a001378e0909e2bd6577f38720d5327cd472d40cb12cc7364736f6c634300081c00332f8788117e7eff1d82e926ec794901d17c78024a50270940304540a733656f0d7d7ffb7a348e1c6a02869081a26547b49160dd3df72d1d75a570eb9b698292ecad3228b676f7d3cd4284a5443f17f1962b36e491b30a40b2405849e597ba5fb5","opcodes":"PUSH1 0x80 PUSH1 0x40 MSTORE CALLVALUE PUSH2 0x30 JUMPI PUSH1 0x1 DUP1 SSTORE PUSH2 0x16 CALLER PUSH2 0x35 JUMP JUMPDEST POP PUSH2 0x20 CALLER PUSH2 0xB1 JUMP JUMPDEST POP PUSH1 0x40 MLOAD PUSH2 0x29DB SWAP1 DUP2 PUSH2 0x14A DUP3 CODECOPY RETURN JUMPDEST PUSH1 0x0 DUP1 REVERT JUMPDEST PUSH1 0x1 PUSH1 0x1 PUSH1 0xA0 SHL SUB DUP2 AND PUSH1 0x0 SWAP1 DUP2 MSTORE PUSH1 0x0 DUP1 MLOAD PUSH1 0x20 PUSH2 0x2B65 DUP4 CODECOPY DUP2 MLOAD SWAP2 MSTORE PUSH1 0x20 MSTORE PUSH1 0x40 SWAP1 KECCAK256 SLOAD PUSH1 0xFF AND PUSH2 0xAB JUMPI PUSH1 0x1 PUSH1 0x1 PUSH1 0xA0 SHL SUB AND PUSH1 0x0 DUP2 DUP2 MSTORE PUSH1 0x0 DUP1 MLOAD PUSH1 0x20 PUSH2 0x2B65 DUP4 CODECOPY DUP2 MLOAD SWAP2 MSTORE PUSH1 0x20 MSTORE PUSH1 0x40 DUP2 KECCAK256 DUP1 SLOAD PUSH1 0xFF NOT AND PUSH1 0x1 OR SWAP1 SSTORE CALLER SWAP2 SWAP1 PUSH1 0x0 DUP1 MLOAD PUSH1 0x20 PUSH2 0x2B25 DUP4 CODECOPY DUP2 MLOAD SWAP2 MSTORE DUP2 DUP1 LOG4 PUSH1 0x1 SWAP1 JUMP JUMPDEST POP PUSH1 0x0 SWAP1 JUMP JUMPDEST PUSH1 0x1 PUSH1 0x1 PUSH1 0xA0 SHL SUB DUP2 AND PUSH1 0x0 SWAP1 DUP2 MSTORE PUSH1 0x0 DUP1 MLOAD PUSH1 0x20 PUSH2 0x2B45 DUP4 CODECOPY DUP2 MLOAD SWAP2 MSTORE PUSH1 0x20 MSTORE PUSH1 0x40 SWAP1 KECCAK256 SLOAD PUSH1 0xFF AND PUSH2 0xAB JUMPI PUSH1 0x1 PUSH1 0x1 PUSH1 0xA0 SHL SUB AND PUSH1 0x0 DUP2 DUP2 MSTORE PUSH1 0x0 DUP1 MLOAD PUSH1 0x20 PUSH2 0x2B45 DUP4 CODECOPY DUP2 MLOAD SWAP2 MSTORE PUSH1 0x20 MSTORE PUSH1 0x40 DUP2 KECCAK256 DUP1 SLOAD PUSH1 0xFF NOT AND PUSH1 0x1 OR SWAP1 SSTORE CALLER SWAP2 SWAP1 PUSH32 0xA49807205CE4D355092EF5A8A18F56E8913CF4A201FBE287825B095693C21775 SWAP1 PUSH1 0x0 DUP1 MLOAD PUSH1 0x20 PUSH2 0x2B25 DUP4 CODECOPY DUP2 MLOAD SWAP2 MSTORE SWAP1 DUP1 LOG4 PUSH1 0x1 SWAP1 JUMP INVALID PUSH1 0x80 DUP1 PUSH1 0x40 MSTORE PUSH1 0x4 CALLDATASIZE LT ISZERO PUSH2 0x13 JUMPI PUSH1 0x0 DUP1 REVERT JUMPDEST PUSH1 0x0 CALLDATALOAD PUSH1 0xE0 SHR SWAP1 DUP2 PUSH4 0x1FFC9A7 EQ PUSH2 0x2196 JUMPI POP DUP1 PUSH4 0x3A4C7A2 EQ PUSH2 0x215C JUMPI DUP1 PUSH4 0x1F4CF031 EQ PUSH2 0x20A6 JUMPI DUP1 PUSH4 0x248A9CA3 EQ PUSH2 0x2071 JUMPI DUP1 PUSH4 0x2840662D EQ PUSH2 0x1D63 JUMPI DUP1 PUSH4 0x299389DC EQ PUSH2 0x186E JUMPI DUP1 PUSH4 0x2B364D08 EQ PUSH2 0x1826 JUMPI DUP1 PUSH4 0x2F2FF15D EQ PUSH2 0x17E6 JUMPI DUP1 PUSH4 0x36568ABE EQ PUSH2 0x17A0 JUMPI DUP1 PUSH4 0x3DC04159 EQ PUSH2 0x1756 JUMPI DUP1 PUSH4 0x3F4BA83A EQ PUSH2 0x16ED JUMPI DUP1 PUSH4 0x3FFC0006 EQ PUSH2 0x1546 JUMPI DUP1 PUSH4 0x40936C5C EQ PUSH2 0x151A JUMPI DUP1 PUSH4 0x4DC6C9A6 EQ PUSH2 0x14F8 JUMPI DUP1 PUSH4 0x564A565D EQ PUSH2 0x13E3 JUMPI DUP1 PUSH4 0x5C975ABB EQ PUSH2 0x13C0 JUMPI DUP1 PUSH4 0x632E8176 EQ PUSH2 0x13A4 JUMPI DUP1 PUSH4 0x7100DC62 EQ PUSH2 0xE15 JUMPI DUP1 PUSH4 0x75B238FC EQ PUSH2 0xDDA JUMPI DUP1 PUSH4 0x81E25FA9 EQ PUSH2 0xD9A JUMPI DUP1 PUSH4 0x8456CB59 EQ PUSH2 0xD40 JUMPI DUP1 PUSH4 0x891CC99C EQ PUSH2 0xB20 JUMPI DUP1 PUSH4 0x91D14854 EQ PUSH2 0xAD3 JUMPI DUP1 PUSH4 0x9CEA0787 EQ PUSH2 0xA98 JUMPI DUP1 PUSH4 0xA217FDDF EQ PUSH2 0xA7C JUMPI DUP1 PUSH4 0xA6430CC0 EQ PUSH2 0x9B0 JUMPI DUP1 PUSH4 0xB0197EE4 EQ PUSH2 0x785 JUMPI DUP1 PUSH4 0xB2A6FF95 EQ PUSH2 0x6A2 JUMPI DUP1 PUSH4 0xBFB0A55B EQ PUSH2 0x62B JUMPI DUP1 PUSH4 0xC2CBA05A EQ PUSH2 0x52D JUMPI DUP1 PUSH4 0xD547741F EQ PUSH2 0x4E6 JUMPI DUP1 PUSH4 0xE1F1C4A7 EQ PUSH2 0x4C9 JUMPI DUP1 PUSH4 0xE3A96CBD EQ PUSH2 0x278 JUMPI DUP1 PUSH4 0xE45D0104 EQ PUSH2 0x1FF JUMPI PUSH4 0xE4C2BD18 EQ PUSH2 0x1A0 JUMPI PUSH1 0x0 DUP1 REVERT JUMPDEST CALLVALUE PUSH2 0x1FA JUMPI PUSH1 0x20 PUSH2 0x2710 PUSH2 0x1F1 PUSH2 0x1B6 CALLDATASIZE PUSH2 0x2408 JUMP JUMPDEST PUSH1 0x0 DUP2 DUP2 MSTORE PUSH1 0x5 DUP7 MSTORE PUSH1 0x40 SWAP1 KECCAK256 PUSH1 0x1 ADD SLOAD PUSH2 0x1DB SWAP1 PUSH1 0x1 PUSH1 0x1 PUSH1 0xA0 SHL SUB AND ISZERO ISZERO PUSH2 0x2458 JUMP JUMPDEST PUSH1 0x0 MSTORE PUSH1 0x5 DUP5 MSTORE PUSH1 0x4 PUSH1 0x40 PUSH1 0x0 KECCAK256 ADD SLOAD SWAP1 PUSH2 0x262C JUMP JUMPDEST DIV PUSH1 0x40 MLOAD SWAP1 DUP2 MSTORE RETURN JUMPDEST PUSH1 0x0 DUP1 REVERT JUMPDEST CALLVALUE PUSH2 0x1FA JUMPI PUSH1 0x20 CALLDATASIZE PUSH1 0x3 NOT ADD SLT PUSH2 0x1FA JUMPI PUSH1 0x4 CALLDATALOAD PUSH1 0x0 MSTORE PUSH1 0x9 PUSH1 0x20 MSTORE PUSH1 0x40 PUSH1 0x0 KECCAK256 PUSH1 0x40 MLOAD SWAP1 DUP2 PUSH1 0x20 DUP3 SLOAD SWAP2 DUP3 DUP2 MSTORE ADD SWAP2 PUSH1 0x0 MSTORE PUSH1 0x20 PUSH1 0x0 KECCAK256 SWAP1 PUSH1 0x0 JUMPDEST DUP2 DUP2 LT PUSH2 0x262 JUMPI PUSH2 0x25E DUP6 PUSH2 0x252 DUP2 DUP8 SUB DUP3 PUSH2 0x224D JUMP JUMPDEST PUSH1 0x40 MLOAD SWAP2 DUP3 SWAP2 DUP3 PUSH2 0x241E JUMP JUMPDEST SUB SWAP1 RETURN JUMPDEST DUP3 SLOAD DUP5 MSTORE PUSH1 0x20 SWAP1 SWAP4 ADD SWAP3 PUSH1 0x1 SWAP3 DUP4 ADD SWAP3 ADD PUSH2 0x23B JUMP JUMPDEST CALLVALUE PUSH2 0x1FA JUMPI PUSH1 0x20 CALLDATASIZE PUSH1 0x3 NOT ADD SLT PUSH2 0x1FA JUMPI PUSH1 0x4 CALLDATALOAD PUSH1 0x0 PUSH2 0x180 PUSH1 0x40 MLOAD PUSH2 0x29D DUP2 PUSH2 0x2231 JUMP JUMPDEST DUP3 DUP2 MSTORE DUP3 PUSH1 0x20 DUP3 ADD MSTORE DUP3 PUSH1 0x40 DUP3 ADD MSTORE DUP3 PUSH1 0x60 DUP3 ADD MSTORE DUP3 PUSH1 0x80 DUP3 ADD MSTORE PUSH1 0x60 PUSH1 0xA0 DUP3 ADD MSTORE PUSH1 0x60 PUSH1 0xC0 DUP3 ADD MSTORE PUSH1 0x60 PUSH1 0xE0 DUP3 ADD MSTORE DUP3 PUSH2 0x100 DUP3 ADD MSTORE DUP3 PUSH2 0x120 DUP3 ADD MSTORE DUP3 PUSH2 0x140 DUP3 ADD MSTORE DUP3 PUSH2 0x160 DUP3 ADD MSTORE ADD MSTORE DUP1 PUSH1 0x0 MSTORE PUSH1 0x7 PUSH1 0x20 MSTORE PUSH2 0x30F PUSH1 0x1 DUP1 PUSH1 0xA0 SHL SUB PUSH1 0x2 PUSH1 0x40 PUSH1 0x0 KECCAK256 ADD SLOAD AND ISZERO ISZERO PUSH2 0x250D JUMP JUMPDEST PUSH1 0x0 MSTORE PUSH1 0x7 PUSH1 0x20 MSTORE PUSH1 0x40 PUSH1 0x0 KECCAK256 PUSH1 0x40 MLOAD PUSH2 0x328 DUP2 PUSH2 0x2231 JUMP JUMPDEST DUP2 SLOAD DUP2 MSTORE PUSH1 0x1 DUP3 ADD SLOAD PUSH1 0x20 DUP3 ADD SWAP1 DUP2 MSTORE PUSH1 0x2 DUP4 ADD SLOAD PUSH1 0x1 PUSH1 0x1 PUSH1 0xA0 SHL SUB SWAP1 DUP2 AND PUSH1 0x40 DUP5 ADD SWAP1 DUP2 MSTORE PUSH1 0x3 DUP6 ADD SLOAD SWAP2 DUP3 AND PUSH1 0x60 DUP6 ADD SWAP1 DUP2 MSTORE SWAP3 SWAP5 PUSH1 0x80 DUP6 ADD SWAP4 SWAP2 SWAP3 SWAP1 SWAP2 SWAP1 PUSH1 0xA0 SHR PUSH1 0xFF AND PUSH1 0x5 DUP2 LT ISZERO PUSH2 0x4B3 JUMPI DUP5 MSTORE PUSH2 0x387 PUSH1 0x4 DUP4 ADD PUSH2 0x2357 JUMP JUMPDEST PUSH1 0xA0 DUP7 ADD SWAP1 DUP2 MSTORE SWAP4 PUSH2 0x39B PUSH1 0x5 DUP5 ADD PUSH2 0x2357 JUMP JUMPDEST PUSH1 0xC0 DUP8 ADD SWAP1 DUP2 MSTORE PUSH2 0x3AE PUSH1 0x6 DUP6 ADD PUSH2 0x2357 JUMP JUMPDEST SWAP1 PUSH1 0xE0 DUP9 ADD SWAP2 DUP3 MSTORE PUSH1 0x7 DUP6 ADD SLOAD SWAP7 PUSH2 0x100 DUP10 ADD SWAP8 DUP9 MSTORE PUSH1 0x8 DUP7 ADD SLOAD SWAP4 PUSH2 0x120 DUP11 ADD SWAP5 DUP6 MSTORE PUSH1 0x9 DUP8 ADD SLOAD SWAP6 PUSH2 0x140 DUP12 ADD SWAP7 DUP8 MSTORE PUSH1 0xA DUP9 ADD SLOAD SWAP8 PUSH2 0x160 DUP13 ADD SWAP9 DUP10 MSTORE PUSH1 0xB ADD SLOAD SWAP9 PUSH2 0x180 DUP13 ADD SWAP10 DUP11 MSTORE PUSH1 0x40 MLOAD SWAP13 DUP14 DUP1 SWAP14 PUSH1 0x20 DUP3 MSTORE MLOAD SWAP1 PUSH1 0x20 ADD MSTORE MLOAD PUSH1 0x40 DUP14 ADD MSTORE PUSH1 0x1 PUSH1 0xA0 SHL PUSH1 0x1 SWAP1 SUB SWAP1 MLOAD AND PUSH1 0x60 DUP13 ADD MSTORE PUSH1 0x1 PUSH1 0xA0 SHL PUSH1 0x1 SWAP1 SUB SWAP1 MLOAD AND PUSH1 0x80 DUP12 ADD MSTORE MLOAD PUSH1 0xA0 DUP11 ADD PUSH2 0x442 SWAP2 PUSH2 0x23FB JUMP JUMPDEST MLOAD PUSH1 0xC0 DUP10 ADD PUSH2 0x1A0 SWAP1 MSTORE PUSH2 0x1C0 DUP10 ADD PUSH2 0x45A SWAP2 PUSH2 0x22DC JUMP JUMPDEST SWAP1 MLOAD DUP9 DUP3 SUB PUSH1 0x1F NOT ADD PUSH1 0xE0 DUP11 ADD MSTORE PUSH2 0x472 SWAP2 SWAP1 PUSH2 0x22DC JUMP JUMPDEST SWAP1 MLOAD DUP8 DUP3 SUB PUSH1 0x1F NOT ADD PUSH2 0x100 DUP10 ADD MSTORE PUSH2 0x48B SWAP2 SWAP1 PUSH2 0x22DC JUMP JUMPDEST SWAP5 MLOAD PUSH2 0x120 DUP8 ADD MSTORE MLOAD PUSH2 0x140 DUP7 ADD MSTORE MLOAD PUSH2 0x160 DUP6 ADD MSTORE MLOAD PUSH2 0x180 DUP5 ADD MSTORE MLOAD PUSH2 0x1A0 DUP4 ADD MSTORE SUB SWAP1 RETURN JUMPDEST PUSH4 0x4E487B71 PUSH1 0xE0 SHL PUSH1 0x0 MSTORE PUSH1 0x21 PUSH1 0x4 MSTORE PUSH1 0x24 PUSH1 0x0 REVERT JUMPDEST CALLVALUE PUSH2 0x1FA JUMPI PUSH1 0x0 CALLDATASIZE PUSH1 0x3 NOT ADD SLT PUSH2 0x1FA JUMPI PUSH1 0x20 PUSH1 0x40 MLOAD PUSH2 0x2710 DUP2 MSTORE RETURN JUMPDEST CALLVALUE PUSH2 0x1FA JUMPI PUSH1 0x40 CALLDATASIZE PUSH1 0x3 NOT ADD SLT PUSH2 0x1FA JUMPI PUSH2 0x52B PUSH1 0x4 CALLDATALOAD PUSH2 0x505 PUSH2 0x21FF JUMP JUMPDEST SWAP1 PUSH2 0x526 PUSH2 0x521 DUP3 PUSH1 0x0 MSTORE PUSH1 0x0 PUSH1 0x20 MSTORE PUSH1 0x1 PUSH1 0x40 PUSH1 0x0 KECCAK256 ADD SLOAD SWAP1 JUMP JUMPDEST PUSH2 0x26C8 JUMP JUMPDEST PUSH2 0x27B1 JUMP JUMPDEST STOP JUMPDEST CALLVALUE PUSH2 0x1FA JUMPI PUSH1 0x0 CALLDATASIZE PUSH1 0x3 NOT ADD SLT PUSH2 0x1FA JUMPI PUSH1 0x4 SLOAD PUSH1 0x0 DUP1 JUMPDEST DUP3 DUP2 LT PUSH2 0x5F5 JUMPI POP PUSH2 0x556 DUP2 PUSH2 0x263F JUMP JUMPDEST SWAP1 PUSH2 0x564 PUSH1 0x40 MLOAD SWAP3 DUP4 PUSH2 0x224D JUMP JUMPDEST DUP1 DUP3 MSTORE PUSH2 0x573 PUSH1 0x1F NOT SWAP2 PUSH2 0x263F JUMP JUMPDEST ADD CALLDATASIZE PUSH1 0x20 DUP4 ADD CALLDATACOPY PUSH1 0x0 SWAP2 PUSH1 0x0 JUMPDEST DUP2 DUP2 LT PUSH2 0x595 JUMPI PUSH1 0x40 MLOAD DUP1 PUSH2 0x25E DUP6 DUP3 PUSH2 0x241E JUMP JUMPDEST DUP1 PUSH1 0x0 MSTORE PUSH1 0x5 PUSH1 0x20 MSTORE PUSH1 0xFF PUSH1 0x8 PUSH1 0x40 PUSH1 0x0 KECCAK256 ADD SLOAD AND PUSH2 0x5B7 JUMPI JUMPDEST PUSH1 0x1 ADD PUSH2 0x580 JUMP JUMPDEST SWAP3 DUP3 MLOAD DUP2 LT ISZERO PUSH2 0x5DF JUMPI PUSH2 0x5D7 DUP2 DUP6 PUSH1 0x20 PUSH1 0x1 SWAP5 PUSH1 0x5 SHL DUP8 ADD ADD MSTORE PUSH2 0x25E3 JUMP JUMPDEST SWAP4 SWAP1 POP PUSH2 0x5AF JUMP JUMPDEST PUSH4 0x4E487B71 PUSH1 0xE0 SHL PUSH1 0x0 MSTORE PUSH1 0x32 PUSH1 0x4 MSTORE PUSH1 0x24 PUSH1 0x0 REVERT JUMPDEST DUP1 PUSH1 0x0 MSTORE PUSH1 0x5 PUSH1 0x20 MSTORE PUSH1 0xFF PUSH1 0x8 PUSH1 0x40 PUSH1 0x0 KECCAK256 ADD SLOAD AND PUSH2 0x617 JUMPI JUMPDEST PUSH1 0x1 ADD PUSH2 0x545 JUMP JUMPDEST SWAP1 PUSH2 0x623 PUSH1 0x1 SWAP2 PUSH2 0x25E3 JUMP JUMPDEST SWAP2 SWAP1 POP PUSH2 0x60F JUMP JUMPDEST CALLVALUE PUSH2 0x1FA JUMPI PUSH1 0x20 CALLDATASIZE PUSH1 0x3 NOT ADD SLT PUSH2 0x1FA JUMPI PUSH1 0x1 PUSH1 0x1 PUSH1 0xA0 SHL SUB PUSH2 0x64C PUSH2 0x21E9 JUMP JUMPDEST AND PUSH1 0x0 MSTORE PUSH1 0x8 PUSH1 0x20 MSTORE PUSH1 0x40 PUSH1 0x0 KECCAK256 PUSH1 0x40 MLOAD SWAP1 DUP2 PUSH1 0x20 DUP3 SLOAD SWAP2 DUP3 DUP2 MSTORE ADD SWAP2 PUSH1 0x0 MSTORE PUSH1 0x20 PUSH1 0x0 KECCAK256 SWAP1 PUSH1 0x0 JUMPDEST DUP2 DUP2 LT PUSH2 0x68C JUMPI PUSH2 0x25E DUP6 PUSH2 0x252 DUP2 DUP8 SUB DUP3 PUSH2 0x224D JUMP JUMPDEST DUP3 SLOAD DUP5 MSTORE PUSH1 0x20 SWAP1 SWAP4 ADD SWAP3 PUSH1 0x1 SWAP3 DUP4 ADD SWAP3 ADD PUSH2 0x675 JUMP JUMPDEST CALLVALUE PUSH2 0x1FA JUMPI PUSH1 0x20 CALLDATASIZE PUSH1 0x3 NOT ADD SLT PUSH2 0x1FA JUMPI PUSH1 0x4 CALLDATALOAD CALLER PUSH1 0x0 MSTORE PUSH1 0x6 PUSH1 0x20 MSTORE PUSH1 0x40 PUSH1 0x0 KECCAK256 SLOAD PUSH1 0x0 MSTORE PUSH1 0x5 PUSH1 0x20 MSTORE PUSH2 0x6E8 CALLER PUSH1 0x1 DUP1 PUSH1 0xA0 SHL SUB PUSH1 0x1 PUSH1 0x40 PUSH1 0x0 KECCAK256 ADD SLOAD AND EQ PUSH2 0x24A4 JUMP JUMPDEST PUSH1 0x0 DUP2 DUP2 MSTORE PUSH1 0x7 PUSH1 0x20 MSTORE PUSH1 0x40 SWAP1 KECCAK256 PUSH1 0x2 ADD SLOAD PUSH2 0x70E SWAP1 PUSH1 0x1 PUSH1 0x1 PUSH1 0xA0 SHL SUB AND ISZERO ISZERO PUSH2 0x250D JUMP JUMPDEST DUP1 PUSH1 0x0 MSTORE PUSH1 0x7 PUSH1 0x20 MSTORE PUSH1 0xFF PUSH1 0x3 PUSH1 0x40 PUSH1 0x0 KECCAK256 ADD SLOAD PUSH1 0xA0 SHR AND PUSH1 0x5 DUP2 LT ISZERO PUSH2 0x4B3 JUMPI PUSH1 0x1 PUSH2 0x73B SWAP2 EQ PUSH2 0x2552 JUMP JUMPDEST PUSH1 0x0 DUP2 DUP2 MSTORE PUSH1 0x7 PUSH1 0x20 MSTORE PUSH1 0x40 SWAP1 KECCAK256 PUSH1 0x3 ADD SLOAD PUSH2 0x761 SWAP1 PUSH1 0x1 PUSH1 0x1 PUSH1 0xA0 SHL SUB AND CALLER EQ PUSH2 0x2597 JUMP JUMPDEST PUSH1 0x0 SWAP1 DUP2 MSTORE PUSH1 0x7 PUSH1 0x20 MSTORE PUSH1 0x40 SWAP1 KECCAK256 PUSH1 0x3 ADD DUP1 SLOAD PUSH1 0xFF PUSH1 0xA0 SHL NOT AND PUSH1 0x1 PUSH1 0xA1 SHL OR SWAP1 SSTORE STOP JUMPDEST CALLVALUE PUSH2 0x1FA JUMPI PUSH1 0x60 CALLDATASIZE PUSH1 0x3 NOT ADD SLT PUSH2 0x1FA JUMPI PUSH1 0x24 CALLDATALOAD PUSH1 0x4 CALLDATALOAD PUSH1 0x44 CALLDATALOAD PUSH1 0x1 PUSH1 0x1 PUSH1 0x40 SHL SUB DUP2 GT PUSH2 0x1FA JUMPI PUSH2 0x7BB SWAP1 CALLDATASIZE SWAP1 PUSH1 0x4 ADD PUSH2 0x226E JUMP JUMPDEST SWAP2 DUP2 PUSH1 0x0 MSTORE PUSH1 0x5 PUSH1 0x20 MSTORE PUSH2 0x7E0 PUSH1 0x1 DUP1 PUSH1 0xA0 SHL SUB PUSH1 0x1 PUSH1 0x40 PUSH1 0x0 KECCAK256 ADD SLOAD AND ISZERO ISZERO PUSH2 0x2458 JUMP JUMPDEST PUSH1 0x1 DUP2 LT ISZERO DUP1 PUSH2 0x9A5 JUMPI JUMPDEST ISZERO PUSH2 0x960 JUMPI PUSH1 0x0 DUP3 DUP2 MSTORE PUSH1 0xA PUSH1 0x20 SWAP1 DUP2 MSTORE PUSH1 0x40 DUP1 DUP4 KECCAK256 CALLER DUP5 MSTORE SWAP1 SWAP2 MSTORE SWAP1 KECCAK256 SLOAD PUSH2 0x91B JUMPI DUP2 PUSH1 0x0 MSTORE PUSH1 0xA PUSH1 0x20 MSTORE PUSH1 0x40 PUSH1 0x0 KECCAK256 PUSH1 0x1 DUP1 PUSH1 0xA0 SHL SUB CALLER AND PUSH1 0x0 MSTORE PUSH1 0x20 MSTORE DUP1 PUSH1 0x40 PUSH1 0x0 KECCAK256 SSTORE DUP2 PUSH1 0x0 MSTORE PUSH1 0xB PUSH1 0x20 MSTORE PUSH1 0x40 PUSH1 0x0 KECCAK256 SLOAD SWAP1 PUSH1 0x1 DUP3 ADD DUP1 SWAP3 GT PUSH2 0x905 JUMPI DUP3 PUSH1 0x0 MSTORE PUSH1 0x5 PUSH1 0x20 MSTORE PUSH2 0x877 PUSH1 0x7 PUSH1 0x40 PUSH1 0x0 KECCAK256 ADD SLOAD DUP5 PUSH1 0x0 MSTORE PUSH1 0xB PUSH1 0x20 MSTORE PUSH1 0x40 PUSH1 0x0 KECCAK256 SLOAD SWAP1 PUSH2 0x262C JUMP JUMPDEST SWAP2 DUP2 DUP4 ADD DUP1 SWAP4 GT PUSH2 0x905 JUMPI DUP1 ISZERO PUSH2 0x8EF JUMPI DUP1 PUSH32 0xD2941B1CE542DBE6D3C9D2EB7ECA335AE6ABE3E143D5D114C4315701BDED25F1 SWAP4 DIV DUP5 PUSH1 0x0 MSTORE PUSH1 0x5 PUSH1 0x20 MSTORE PUSH1 0x7 PUSH1 0x40 PUSH1 0x0 KECCAK256 ADD SSTORE DUP4 PUSH1 0x0 MSTORE PUSH1 0xB PUSH1 0x20 MSTORE PUSH1 0x40 PUSH1 0x0 KECCAK256 SSTORE PUSH1 0x40 MLOAD SWAP1 DUP2 MSTORE PUSH1 0x40 PUSH1 0x20 DUP3 ADD MSTORE DUP1 PUSH2 0x8EA CALLER SWAP6 PUSH1 0x40 DUP4 ADD SWAP1 PUSH2 0x22DC JUMP JUMPDEST SUB SWAP1 LOG3 STOP JUMPDEST PUSH4 0x4E487B71 PUSH1 0xE0 SHL PUSH1 0x0 MSTORE PUSH1 0x12 PUSH1 0x4 MSTORE PUSH1 0x24 PUSH1 0x0 REVERT JUMPDEST PUSH4 0x4E487B71 PUSH1 0xE0 SHL PUSH1 0x0 MSTORE PUSH1 0x11 PUSH1 0x4 MSTORE PUSH1 0x24 PUSH1 0x0 REVERT JUMPDEST PUSH1 0x40 MLOAD PUSH3 0x461BCD PUSH1 0xE5 SHL DUP2 MSTORE PUSH1 0x20 PUSH1 0x4 DUP3 ADD MSTORE PUSH1 0x1D PUSH1 0x24 DUP3 ADD MSTORE PUSH32 0x416C726561647920726174656420746869732061726269747261746F72000000 PUSH1 0x44 DUP3 ADD MSTORE PUSH1 0x64 SWAP1 REVERT JUMPDEST PUSH1 0x40 MLOAD PUSH3 0x461BCD PUSH1 0xE5 SHL DUP2 MSTORE PUSH1 0x20 PUSH1 0x4 DUP3 ADD MSTORE PUSH1 0x1E PUSH1 0x24 DUP3 ADD MSTORE PUSH32 0x526174696E67206D757374206265206265747765656E203120616E6420350000 PUSH1 0x44 DUP3 ADD MSTORE PUSH1 0x64 SWAP1 REVERT JUMPDEST POP PUSH1 0x5 DUP2 GT ISZERO PUSH2 0x7EB JUMP JUMPDEST CALLVALUE PUSH2 0x1FA JUMPI PUSH1 0x20 CALLDATASIZE PUSH1 0x3 NOT ADD SLT PUSH2 0x1FA JUMPI PUSH1 0x4 CALLDATALOAD PUSH1 0x0 SWAP1 DUP2 MSTORE PUSH1 0x5 PUSH1 0x20 MSTORE PUSH1 0x40 SWAP1 KECCAK256 DUP1 SLOAD PUSH1 0x1 DUP3 ADD SLOAD PUSH1 0x1 PUSH1 0x1 PUSH1 0xA0 SHL SUB AND SWAP2 PUSH2 0x9EF PUSH1 0x2 DUP3 ADD PUSH2 0x2357 JUMP JUMPDEST PUSH2 0x9FB PUSH1 0x3 DUP4 ADD PUSH2 0x2357 JUMP JUMPDEST SWAP2 PUSH1 0x4 DUP2 ADD SLOAD SWAP3 PUSH1 0x5 DUP3 ADD SLOAD PUSH1 0x6 DUP4 ADD SLOAD SWAP1 PUSH2 0xA55 PUSH1 0x7 DUP6 ADD SLOAD SWAP4 PUSH2 0xA47 PUSH1 0x9 PUSH1 0xFF PUSH1 0x8 DUP10 ADD SLOAD AND SWAP8 ADD SLOAD SWAP8 PUSH1 0x40 MLOAD SWAP12 DUP13 SWAP12 DUP13 MSTORE PUSH1 0x20 DUP13 ADD MSTORE PUSH2 0x140 PUSH1 0x40 DUP13 ADD MSTORE PUSH2 0x140 DUP12 ADD SWAP1 PUSH2 0x22DC JUMP JUMPDEST SWAP1 DUP10 DUP3 SUB PUSH1 0x60 DUP12 ADD MSTORE PUSH2 0x22DC JUMP JUMPDEST SWAP6 PUSH1 0x80 DUP9 ADD MSTORE PUSH1 0xA0 DUP8 ADD MSTORE PUSH1 0xC0 DUP7 ADD MSTORE PUSH1 0xE0 DUP6 ADD MSTORE ISZERO ISZERO PUSH2 0x100 DUP5 ADD MSTORE PUSH2 0x120 DUP4 ADD MSTORE SUB SWAP1 RETURN JUMPDEST CALLVALUE PUSH2 0x1FA JUMPI PUSH1 0x0 CALLDATASIZE PUSH1 0x3 NOT ADD SLT PUSH2 0x1FA JUMPI PUSH1 0x20 PUSH1 0x40 MLOAD PUSH1 0x0 DUP2 MSTORE RETURN JUMPDEST CALLVALUE PUSH2 0x1FA JUMPI PUSH1 0x0 CALLDATASIZE PUSH1 0x3 NOT ADD SLT PUSH2 0x1FA JUMPI PUSH1 0x20 PUSH1 0x40 MLOAD PUSH32 0x16CEEE8289685DD2A02B9C8AE81D2DF373176CE53519E6284E2A2950D6546FFA DUP2 MSTORE RETURN JUMPDEST CALLVALUE PUSH2 0x1FA JUMPI PUSH1 0x40 CALLDATASIZE PUSH1 0x3 NOT ADD SLT PUSH2 0x1FA JUMPI PUSH2 0xAEC PUSH2 0x21FF JUMP JUMPDEST PUSH1 0x4 CALLDATALOAD PUSH1 0x0 MSTORE PUSH1 0x0 PUSH1 0x20 MSTORE PUSH1 0x40 PUSH1 0x0 KECCAK256 SWAP1 PUSH1 0x1 DUP1 PUSH1 0xA0 SHL SUB AND PUSH1 0x0 MSTORE PUSH1 0x20 MSTORE PUSH1 0x20 PUSH1 0xFF PUSH1 0x40 PUSH1 0x0 KECCAK256 SLOAD AND PUSH1 0x40 MLOAD SWAP1 ISZERO ISZERO DUP2 MSTORE RETURN JUMPDEST CALLVALUE PUSH2 0x1FA JUMPI PUSH2 0xB2E CALLDATASIZE PUSH2 0x2408 JUMP JUMPDEST PUSH2 0xB36 PUSH2 0x2656 JUMP JUMPDEST PUSH1 0x0 DUP3 DUP2 MSTORE PUSH1 0x7 PUSH1 0x20 MSTORE PUSH1 0x40 SWAP1 KECCAK256 PUSH1 0x2 ADD SLOAD PUSH2 0xB5C SWAP1 PUSH1 0x1 PUSH1 0x1 PUSH1 0xA0 SHL SUB AND ISZERO ISZERO PUSH2 0x250D JUMP JUMPDEST DUP2 PUSH1 0x0 MSTORE PUSH1 0x7 PUSH1 0x20 MSTORE PUSH1 0xFF PUSH1 0x3 PUSH1 0x40 PUSH1 0x0 KECCAK256 ADD SLOAD PUSH1 0xA0 SHR AND PUSH1 0x5 DUP2 LT ISZERO PUSH2 0x4B3 JUMPI PUSH2 0xB87 SWAP1 ISZERO PUSH2 0x2552 JUMP JUMPDEST DUP1 PUSH1 0x0 MSTORE PUSH1 0x5 PUSH1 0x20 MSTORE PUSH1 0xFF PUSH1 0x8 PUSH1 0x40 PUSH1 0x0 KECCAK256 ADD SLOAD AND ISZERO PUSH2 0xCFB JUMPI PUSH1 0x0 DUP2 DUP2 MSTORE PUSH1 0x5 PUSH1 0x20 MSTORE PUSH1 0x40 SWAP1 KECCAK256 PUSH1 0x1 ADD SLOAD PUSH2 0xBC7 SWAP1 PUSH1 0x1 PUSH1 0x1 PUSH1 0xA0 SHL SUB AND ISZERO ISZERO PUSH2 0x2458 JUMP JUMPDEST PUSH1 0x0 DUP2 DUP2 MSTORE PUSH1 0x5 PUSH1 0x20 SWAP1 DUP2 MSTORE PUSH1 0x40 DUP1 DUP4 KECCAK256 PUSH1 0x1 ADD SLOAD DUP6 DUP5 MSTORE PUSH1 0x7 SWAP1 SWAP3 MSTORE SWAP1 SWAP2 KECCAK256 PUSH1 0x3 DUP2 ADD DUP1 SLOAD PUSH1 0x1 PUSH1 0x1 PUSH1 0xA8 SHL SUB NOT AND PUSH1 0x1 PUSH1 0x1 PUSH1 0xA0 SHL SUB SWAP4 SWAP1 SWAP4 AND SWAP3 SWAP1 SWAP3 OR PUSH1 0x1 PUSH1 0xA0 SHL OR SWAP1 SWAP2 SSTORE TIMESTAMP PUSH1 0x8 SWAP1 SWAP2 ADD DUP2 SWAP1 SSTORE PUSH3 0x93A80 DUP2 ADD SWAP1 DUP2 LT PUSH2 0x905 JUMPI DUP3 PUSH1 0x0 MSTORE PUSH1 0x7 PUSH1 0x20 MSTORE PUSH1 0xA PUSH1 0x40 PUSH1 0x0 KECCAK256 ADD SSTORE DUP1 PUSH1 0x0 MSTORE PUSH1 0x5 PUSH1 0x20 MSTORE PUSH1 0x4 PUSH1 0x40 PUSH1 0x0 KECCAK256 ADD SLOAD DUP3 PUSH1 0x0 MSTORE PUSH1 0x7 PUSH1 0x20 MSTORE PUSH1 0xB PUSH1 0x40 PUSH1 0x0 KECCAK256 ADD SSTORE DUP1 PUSH1 0x0 MSTORE PUSH1 0x5 PUSH1 0x20 MSTORE PUSH1 0x5 PUSH1 0x40 PUSH1 0x0 KECCAK256 ADD PUSH2 0xC77 DUP2 SLOAD PUSH2 0x25E3 JUMP JUMPDEST SWAP1 SSTORE DUP1 PUSH1 0x0 MSTORE PUSH1 0x9 PUSH1 0x20 MSTORE PUSH2 0xC90 DUP3 PUSH1 0x40 PUSH1 0x0 KECCAK256 PUSH2 0x25F2 JUMP JUMPDEST DUP2 PUSH1 0x0 MSTORE PUSH1 0x7 PUSH1 0x20 MSTORE PUSH1 0x1 PUSH1 0x40 PUSH1 0x0 KECCAK256 ADD SLOAD SWAP1 PUSH1 0x0 MSTORE PUSH1 0x5 PUSH1 0x20 MSTORE PUSH1 0x1 DUP1 PUSH1 0xA0 SHL SUB PUSH1 0x1 PUSH1 0x40 PUSH1 0x0 KECCAK256 ADD SLOAD AND SWAP2 DUP1 PUSH1 0x0 MSTORE PUSH1 0x7 PUSH1 0x20 MSTORE PUSH32 0x7CC89729F08ED54994B7E734D35259D7F61E83915121FCBBFF9E19D63D75E4BA PUSH1 0x20 PUSH1 0xA PUSH1 0x40 PUSH1 0x0 KECCAK256 ADD SLOAD PUSH1 0x40 MLOAD SWAP1 DUP2 MSTORE LOG4 STOP JUMPDEST PUSH1 0x40 MLOAD PUSH3 0x461BCD PUSH1 0xE5 SHL DUP2 MSTORE PUSH1 0x20 PUSH1 0x4 DUP3 ADD MSTORE PUSH1 0x18 PUSH1 0x24 DUP3 ADD MSTORE PUSH32 0x41726269747261746F72206973206E6F74206163746976650000000000000000 PUSH1 0x44 DUP3 ADD MSTORE PUSH1 0x64 SWAP1 REVERT JUMPDEST CALLVALUE PUSH2 0x1FA JUMPI PUSH1 0x0 CALLDATASIZE PUSH1 0x3 NOT ADD SLT PUSH2 0x1FA JUMPI PUSH2 0xD59 PUSH2 0x2656 JUMP JUMPDEST PUSH2 0xD61 PUSH2 0x2968 JUMP JUMPDEST PUSH1 0x1 PUSH1 0xFF NOT PUSH1 0x2 SLOAD AND OR PUSH1 0x2 SSTORE PUSH32 0x62E78CEA01BEE320CD4E420270B5EA74000D11B0C9F74754EBDBFC544B05A258 PUSH1 0x20 PUSH1 0x40 MLOAD CALLER DUP2 MSTORE LOG1 STOP JUMPDEST CALLVALUE PUSH2 0x1FA JUMPI PUSH2 0xDA8 CALLDATASIZE PUSH2 0x2408 JUMP JUMPDEST SWAP1 PUSH1 0x0 MSTORE PUSH1 0x9 PUSH1 0x20 MSTORE PUSH1 0x40 PUSH1 0x0 KECCAK256 DUP1 SLOAD DUP3 LT ISZERO PUSH2 0x1FA JUMPI PUSH1 0x20 SWAP2 PUSH2 0xDCB SWAP2 PUSH2 0x22C4 JUMP JUMPDEST SWAP1 SLOAD SWAP1 PUSH1 0x3 SHL SHR PUSH1 0x40 MLOAD SWAP1 DUP2 MSTORE RETURN JUMPDEST CALLVALUE PUSH2 0x1FA JUMPI PUSH1 0x0 CALLDATASIZE PUSH1 0x3 NOT ADD SLT PUSH2 0x1FA JUMPI PUSH1 0x20 PUSH1 0x40 MLOAD PUSH32 0xA49807205CE4D355092EF5A8A18F56E8913CF4A201FBE287825B095693C21775 DUP2 MSTORE RETURN JUMPDEST CALLVALUE PUSH2 0x1FA JUMPI PUSH1 0x60 CALLDATASIZE PUSH1 0x3 NOT ADD SLT PUSH2 0x1FA JUMPI PUSH1 0x24 CALLDATALOAD PUSH1 0x1 PUSH1 0x1 PUSH1 0x40 SHL SUB DUP2 GT PUSH2 0x1FA JUMPI PUSH2 0xE45 SWAP1 CALLDATASIZE SWAP1 PUSH1 0x4 ADD PUSH2 0x226E JUMP JUMPDEST PUSH1 0x44 CALLDATALOAD PUSH1 0x1 PUSH1 0x1 PUSH1 0x40 SHL SUB DUP2 GT PUSH2 0x1FA JUMPI PUSH2 0xE64 SWAP1 CALLDATASIZE SWAP1 PUSH1 0x4 ADD PUSH2 0x226E JUMP JUMPDEST PUSH2 0xE6C PUSH2 0x2968 JUMP JUMPDEST DUP2 MLOAD ISZERO PUSH2 0x1366 JUMPI DUP1 MLOAD ISZERO PUSH2 0x1321 JUMPI PUSH1 0x3 SLOAD SWAP1 PUSH1 0x1 DUP3 ADD PUSH1 0x3 SSTORE PUSH1 0x40 MLOAD PUSH2 0xE91 DUP2 PUSH2 0x2231 JUMP JUMPDEST DUP3 DUP2 MSTORE PUSH1 0x20 DUP2 ADD SWAP1 PUSH1 0x4 CALLDATALOAD DUP3 MSTORE PUSH1 0x40 DUP2 ADD SWAP3 CALLER DUP5 MSTORE PUSH1 0x60 DUP3 ADD SWAP6 PUSH1 0x0 DUP8 MSTORE PUSH1 0x80 DUP4 ADD PUSH1 0x0 DUP2 MSTORE PUSH1 0xA0 DUP5 ADD SWAP2 DUP3 MSTORE PUSH1 0xC0 DUP5 ADD SWAP3 DUP4 MSTORE PUSH1 0x20 SWAP6 PUSH1 0x40 MLOAD PUSH2 0xED5 DUP9 DUP3 PUSH2 0x224D JUMP JUMPDEST PUSH1 0x0 DUP1 DUP3 MSTORE PUSH1 0xE0 DUP8 ADD SWAP2 SWAP1 SWAP2 MSTORE TIMESTAMP PUSH2 0x100 DUP8 ADD MSTORE PUSH2 0x120 DUP7 ADD DUP2 SWAP1 MSTORE PUSH2 0x140 DUP7 ADD DUP2 SWAP1 MSTORE PUSH2 0x160 DUP7 ADD DUP2 SWAP1 MSTORE PUSH2 0x180 DUP7 ADD DUP2 SWAP1 MSTORE DUP9 DUP2 MSTORE PUSH1 0x7 DUP9 MSTORE PUSH1 0x40 SWAP1 KECCAK256 DUP6 MLOAD DUP2 SSTORE SWAP6 MLOAD PUSH1 0x1 DUP8 ADD SSTORE MLOAD PUSH1 0x2 DUP7 ADD DUP1 SLOAD PUSH1 0x1 PUSH1 0x1 PUSH1 0xA0 SHL SUB NOT SWAP1 DUP2 AND PUSH1 0x1 PUSH1 0x1 PUSH1 0xA0 SHL SUB SWAP4 DUP5 AND OR SWAP1 SWAP2 SSTORE SWAP9 MLOAD PUSH1 0x3 DUP8 ADD DUP1 SLOAD SWAP1 SWAP11 AND SWAP2 AND OR DUP9 SSTORE MLOAD SWAP7 PUSH1 0x5 DUP9 LT ISZERO PUSH2 0x4B3 JUMPI PUSH1 0x0 SWAP8 DUP2 SLOAD SWAP1 PUSH1 0xFF PUSH1 0xA0 SHL SWAP1 PUSH1 0xA0 SHL AND SWAP1 PUSH1 0xFF PUSH1 0xA0 SHL NOT AND OR SWAP1 SSTORE MLOAD DUP1 MLOAD SWAP1 PUSH1 0x1 PUSH1 0x1 PUSH1 0x40 SHL SUB DUP3 GT PUSH2 0x118C JUMPI DUP2 SWAP1 PUSH2 0xF98 PUSH1 0x4 DUP8 ADD SLOAD PUSH2 0x231D JUMP JUMPDEST PUSH1 0x1F DUP2 GT PUSH2 0x12D0 JUMPI JUMPDEST POP DUP7 SWAP1 PUSH1 0x1F DUP4 GT PUSH1 0x1 EQ PUSH2 0x1267 JUMPI DUP10 SWAP3 PUSH2 0x125C JUMPI JUMPDEST POP POP DUP2 PUSH1 0x1 SHL SWAP2 PUSH1 0x0 NOT SWAP1 PUSH1 0x3 SHL SHR NOT AND OR PUSH1 0x4 DUP5 ADD SSTORE JUMPDEST MLOAD DUP1 MLOAD PUSH1 0x5 DUP5 ADD SWAP2 PUSH1 0x1 PUSH1 0x1 PUSH1 0x40 SHL SUB DUP3 GT PUSH2 0x118C JUMPI DUP2 SWAP1 PUSH2 0xFF0 DUP5 SLOAD PUSH2 0x231D JUMP JUMPDEST PUSH1 0x1F DUP2 GT PUSH2 0x120E JUMPI JUMPDEST POP DUP7 SWAP1 PUSH1 0x1F DUP4 GT PUSH1 0x1 EQ PUSH2 0x11AB JUMPI DUP10 SWAP3 PUSH2 0x11A0 JUMPI JUMPDEST POP POP DUP2 PUSH1 0x1 SHL SWAP2 PUSH1 0x0 NOT SWAP1 PUSH1 0x3 SHL SHR NOT AND OR SWAP1 SSTORE JUMPDEST PUSH1 0x6 DUP3 ADD PUSH1 0xE0 DUP3 ADD MLOAD DUP1 MLOAD SWAP1 PUSH1 0x1 PUSH1 0x1 PUSH1 0x40 SHL SUB DUP3 GT PUSH2 0x118C JUMPI PUSH2 0x1047 DUP4 SLOAD PUSH2 0x231D JUMP JUMPDEST PUSH1 0x1F DUP2 GT PUSH2 0x1149 JUMPI JUMPDEST POP DUP6 SWAP1 PUSH1 0x1F DUP4 GT PUSH1 0x1 EQ PUSH2 0x10D8 JUMPI SWAP4 PUSH1 0x8 SWAP6 SWAP4 DUP4 PUSH1 0xB SWAP5 PUSH2 0x180 SWAP5 PUSH2 0x10CA SWAP12 SWAP11 SWAP9 DUP14 SWAP3 PUSH2 0x10CD JUMPI JUMPDEST POP POP DUP2 PUSH1 0x1 SHL SWAP2 PUSH1 0x0 NOT SWAP1 PUSH1 0x3 SHL SHR NOT AND OR SWAP1 SSTORE JUMPDEST PUSH2 0x100 DUP2 ADD MLOAD PUSH1 0x7 DUP6 ADD SSTORE PUSH2 0x120 DUP2 ADD MLOAD DUP7 DUP6 ADD SSTORE PUSH2 0x140 DUP2 ADD MLOAD PUSH1 0x9 DUP6 ADD SSTORE PUSH2 0x160 DUP2 ADD MLOAD PUSH1 0xA DUP6 ADD SSTORE ADD MLOAD SWAP2 ADD SSTORE CALLER DUP6 MSTORE MSTORE PUSH1 0x40 DUP4 KECCAK256 PUSH2 0x25F2 JUMP JUMPDEST DUP1 RETURN JUMPDEST ADD MLOAD SWAP1 POP DUP13 DUP1 PUSH2 0x1078 JUMP JUMPDEST DUP4 DUP10 MSTORE DUP7 DUP10 KECCAK256 SWAP2 SWAP1 PUSH1 0x1F NOT DUP5 AND DUP11 JUMPDEST DUP2 DUP2 LT PUSH2 0x1132 JUMPI POP DUP5 PUSH2 0x180 SWAP5 PUSH2 0x10CA SWAP12 SWAP11 SWAP9 SWAP5 PUSH1 0x8 SWAP11 SWAP9 SWAP5 PUSH1 0xB SWAP9 PUSH1 0x1 SWAP6 LT PUSH2 0x1119 JUMPI JUMPDEST POP POP POP DUP2 SHL ADD SWAP1 SSTORE PUSH2 0x108D JUMP JUMPDEST ADD MLOAD PUSH1 0x0 NOT PUSH1 0xF8 DUP5 PUSH1 0x3 SHL AND SHR NOT AND SWAP1 SSTORE DUP13 DUP1 DUP1 PUSH2 0x110C JUMP JUMPDEST SWAP3 SWAP4 DUP10 PUSH1 0x1 DUP2 SWAP3 DUP8 DUP7 ADD MLOAD DUP2 SSTORE ADD SWAP6 ADD SWAP4 ADD PUSH2 0x10E7 JUMP JUMPDEST DUP4 DUP10 MSTORE DUP7 DUP10 KECCAK256 PUSH1 0x1F DUP5 ADD PUSH1 0x5 SHR DUP2 ADD SWAP2 DUP9 DUP6 LT PUSH2 0x1182 JUMPI JUMPDEST PUSH1 0x1F ADD PUSH1 0x5 SHR ADD SWAP1 JUMPDEST DUP2 DUP2 LT PUSH2 0x1177 JUMPI POP PUSH2 0x1050 JUMP JUMPDEST DUP10 DUP2 SSTORE PUSH1 0x1 ADD PUSH2 0x116A JUMP JUMPDEST SWAP1 SWAP2 POP DUP2 SWAP1 PUSH2 0x1161 JUMP JUMPDEST PUSH4 0x4E487B71 PUSH1 0xE0 SHL DUP9 MSTORE PUSH1 0x41 PUSH1 0x4 MSTORE PUSH1 0x24 DUP9 REVERT JUMPDEST ADD MLOAD SWAP1 POP DUP9 DUP1 PUSH2 0x100E JUMP JUMPDEST DUP5 DUP11 MSTORE DUP8 DUP11 KECCAK256 SWAP3 POP PUSH1 0x1F NOT DUP5 AND DUP11 JUMPDEST DUP10 DUP3 DUP3 LT PUSH2 0x11F8 JUMPI POP POP SWAP1 DUP5 PUSH1 0x1 SWAP6 SWAP5 SWAP4 SWAP3 LT PUSH2 0x11DF JUMPI JUMPDEST POP POP POP DUP2 SHL ADD SWAP1 SSTORE PUSH2 0x1023 JUMP JUMPDEST ADD MLOAD PUSH1 0x0 NOT PUSH1 0xF8 DUP5 PUSH1 0x3 SHL AND SHR NOT AND SWAP1 SSTORE DUP9 DUP1 DUP1 PUSH2 0x11D2 JUMP JUMPDEST PUSH1 0x1 DUP6 SWAP7 DUP3 SWAP4 SWAP7 DUP7 ADD MLOAD DUP2 SSTORE ADD SWAP6 ADD SWAP4 ADD PUSH2 0x11BA JUMP JUMPDEST SWAP1 SWAP2 POP DUP4 DUP10 MSTORE DUP7 DUP10 KECCAK256 PUSH1 0x1F DUP5 ADD PUSH1 0x5 SHR DUP2 ADD SWAP2 DUP9 DUP6 LT PUSH2 0x1252 JUMPI JUMPDEST SWAP1 PUSH1 0x1F DUP6 SWAP5 SWAP4 SWAP3 ADD PUSH1 0x5 SHR ADD SWAP1 JUMPDEST DUP2 DUP2 LT PUSH2 0x1244 JUMPI POP PUSH2 0xFF9 JUMP JUMPDEST DUP11 DUP2 SSTORE DUP5 SWAP4 POP PUSH1 0x1 ADD PUSH2 0x1237 JUMP JUMPDEST SWAP1 SWAP2 POP DUP2 SWAP1 PUSH2 0x1229 JUMP JUMPDEST ADD MLOAD SWAP1 POP DUP9 DUP1 PUSH2 0xFB6 JUMP JUMPDEST PUSH1 0x4 DUP8 ADD DUP11 MSTORE DUP8 DUP11 KECCAK256 SWAP3 POP PUSH1 0x1F NOT DUP5 AND DUP11 JUMPDEST DUP10 DUP3 DUP3 LT PUSH2 0x12BA JUMPI POP POP SWAP1 DUP5 PUSH1 0x1 SWAP6 SWAP5 SWAP4 SWAP3 LT PUSH2 0x12A1 JUMPI JUMPDEST POP POP POP DUP2 SHL ADD PUSH1 0x4 DUP5 ADD SSTORE PUSH2 0xFCE JUMP JUMPDEST ADD MLOAD PUSH1 0x0 NOT PUSH1 0xF8 DUP5 PUSH1 0x3 SHL AND SHR NOT AND SWAP1 SSTORE DUP9 DUP1 DUP1 PUSH2 0x1291 JUMP JUMPDEST PUSH1 0x1 DUP6 SWAP7 DUP3 SWAP4 SWAP7 DUP7 ADD MLOAD DUP2 SSTORE ADD SWAP6 ADD SWAP4 ADD PUSH2 0x1279 JUMP JUMPDEST SWAP1 SWAP2 POP PUSH1 0x4 DUP7 ADD DUP10 MSTORE DUP7 DUP10 KECCAK256 PUSH1 0x1F DUP5 ADD PUSH1 0x5 SHR DUP2 ADD SWAP2 DUP9 DUP6 LT PUSH2 0x1317 JUMPI JUMPDEST SWAP1 PUSH1 0x1F DUP6 SWAP5 SWAP4 SWAP3 ADD PUSH1 0x5 SHR ADD SWAP1 JUMPDEST DUP2 DUP2 LT PUSH2 0x1309 JUMPI POP PUSH2 0xFA1 JUMP JUMPDEST DUP11 DUP2 SSTORE DUP5 SWAP4 POP PUSH1 0x1 ADD PUSH2 0x12FC JUMP JUMPDEST SWAP1 SWAP2 POP DUP2 SWAP1 PUSH2 0x12EE JUMP JUMPDEST PUSH1 0x40 MLOAD PUSH3 0x461BCD PUSH1 0xE5 SHL DUP2 MSTORE PUSH1 0x20 PUSH1 0x4 DUP3 ADD MSTORE PUSH1 0x1D PUSH1 0x24 DUP3 ADD MSTORE PUSH32 0x45766964656E636520686173682063616E6E6F7420626520656D707479000000 PUSH1 0x44 DUP3 ADD MSTORE PUSH1 0x64 SWAP1 REVERT JUMPDEST PUSH1 0x40 MLOAD PUSH3 0x461BCD PUSH1 0xE5 SHL DUP2 MSTORE PUSH1 0x20 PUSH1 0x4 DUP3 ADD MSTORE PUSH1 0x16 PUSH1 0x24 DUP3 ADD MSTORE PUSH22 0x526561736F6E2063616E6E6F7420626520656D707479 PUSH1 0x50 SHL PUSH1 0x44 DUP3 ADD MSTORE PUSH1 0x64 SWAP1 REVERT JUMPDEST CALLVALUE PUSH2 0x1FA JUMPI PUSH1 0x0 CALLDATASIZE PUSH1 0x3 NOT ADD SLT PUSH2 0x1FA JUMPI PUSH1 0x20 PUSH1 0x40 MLOAD PUSH1 0x64 DUP2 MSTORE RETURN JUMPDEST CALLVALUE PUSH2 0x1FA JUMPI PUSH1 0x0 CALLDATASIZE PUSH1 0x3 NOT ADD SLT PUSH2 0x1FA JUMPI PUSH1 0x20 PUSH1 0xFF PUSH1 0x2 SLOAD AND PUSH1 0x40 MLOAD SWAP1 ISZERO ISZERO DUP2 MSTORE RETURN JUMPDEST CALLVALUE PUSH2 0x1FA JUMPI PUSH1 0x20 CALLDATASIZE PUSH1 0x3 NOT ADD SLT PUSH2 0x1FA JUMPI PUSH1 0x4 CALLDATALOAD PUSH1 0x0 MSTORE PUSH1 0x7 PUSH1 0x20 MSTORE PUSH1 0x40 PUSH1 0x0 KECCAK256 DUP1 SLOAD PUSH1 0x1 DUP3 ADD SLOAD SWAP2 PUSH1 0x1 PUSH1 0xA0 SHL PUSH1 0x1 SWAP1 SUB PUSH1 0x2 DUP3 ADD SLOAD AND PUSH1 0x3 DUP3 ADD SLOAD SWAP2 PUSH1 0x4 DUP2 ADD PUSH2 0x142E SWAP1 PUSH2 0x2357 JUMP JUMPDEST SWAP3 PUSH2 0x143B PUSH1 0x5 DUP4 ADD PUSH2 0x2357 JUMP JUMPDEST SWAP4 PUSH2 0x1448 PUSH1 0x6 DUP5 ADD PUSH2 0x2357 JUMP JUMPDEST PUSH1 0x7 DUP5 ADD SLOAD SWAP6 PUSH1 0x8 DUP6 ADD SLOAD SWAP3 PUSH1 0x9 DUP7 ADD SLOAD SWAP5 PUSH1 0xA DUP8 ADD SLOAD SWAP7 PUSH1 0xB ADD SLOAD SWAP8 PUSH1 0x40 MLOAD SWAP12 DUP13 SWAP12 DUP13 MSTORE PUSH1 0x20 DUP13 ADD MSTORE PUSH1 0x40 DUP12 ADD MSTORE PUSH1 0x1 PUSH1 0xA0 SHL PUSH1 0x1 SWAP1 SUB DUP2 AND PUSH1 0x60 DUP12 ADD MSTORE PUSH1 0x80 DUP11 ADD SWAP1 PUSH1 0xA0 SHR PUSH1 0xFF AND SWAP1 PUSH2 0x149C SWAP2 PUSH2 0x23FB JUMP JUMPDEST PUSH1 0xA0 DUP10 ADD PUSH2 0x1A0 SWAP1 MSTORE PUSH2 0x1A0 DUP10 ADD PUSH2 0x14B3 SWAP2 PUSH2 0x22DC JUMP JUMPDEST DUP9 DUP2 SUB PUSH1 0xC0 DUP11 ADD MSTORE PUSH2 0x14C4 SWAP2 PUSH2 0x22DC JUMP JUMPDEST DUP8 DUP2 SUB PUSH1 0xE0 DUP10 ADD MSTORE PUSH2 0x14D5 SWAP2 PUSH2 0x22DC JUMP JUMPDEST SWAP5 PUSH2 0x100 DUP8 ADD MSTORE PUSH2 0x120 DUP7 ADD MSTORE PUSH2 0x140 DUP6 ADD MSTORE PUSH2 0x160 DUP5 ADD MSTORE PUSH2 0x180 DUP4 ADD MSTORE SUB SWAP1 RETURN JUMPDEST CALLVALUE PUSH2 0x1FA JUMPI PUSH1 0x0 CALLDATASIZE PUSH1 0x3 NOT ADD SLT PUSH2 0x1FA JUMPI PUSH1 0x20 PUSH1 0x40 MLOAD PUSH7 0x2386F26FC10000 DUP2 MSTORE RETURN JUMPDEST CALLVALUE PUSH2 0x1FA JUMPI PUSH1 0x20 CALLDATASIZE PUSH1 0x3 NOT ADD SLT PUSH2 0x1FA JUMPI PUSH1 0x4 CALLDATALOAD PUSH1 0x0 MSTORE PUSH1 0xB PUSH1 0x20 MSTORE PUSH1 0x20 PUSH1 0x40 PUSH1 0x0 KECCAK256 SLOAD PUSH1 0x40 MLOAD SWAP1 DUP2 MSTORE RETURN JUMPDEST CALLVALUE PUSH2 0x1FA JUMPI PUSH1 0x20 CALLDATASIZE PUSH1 0x3 NOT ADD SLT PUSH2 0x1FA JUMPI PUSH1 0x4 CALLDATALOAD PUSH1 0x0 PUSH2 0x120 PUSH1 0x40 MLOAD PUSH2 0x156B DUP2 PUSH2 0x2215 JUMP JUMPDEST DUP3 DUP2 MSTORE DUP3 PUSH1 0x20 DUP3 ADD MSTORE PUSH1 0x60 PUSH1 0x40 DUP3 ADD MSTORE PUSH1 0x60 DUP1 DUP3 ADD MSTORE DUP3 PUSH1 0x80 DUP3 ADD MSTORE DUP3 PUSH1 0xA0 DUP3 ADD MSTORE DUP3 PUSH1 0xC0 DUP3 ADD MSTORE DUP3 PUSH1 0xE0 DUP3 ADD MSTORE DUP3 PUSH2 0x100 DUP3 ADD MSTORE ADD MSTORE DUP1 PUSH1 0x0 MSTORE PUSH1 0x5 PUSH1 0x20 MSTORE PUSH2 0x15C6 PUSH1 0x1 DUP1 PUSH1 0xA0 SHL SUB PUSH1 0x1 PUSH1 0x40 PUSH1 0x0 KECCAK256 ADD SLOAD AND ISZERO ISZERO PUSH2 0x2458 JUMP JUMPDEST PUSH1 0x0 MSTORE PUSH1 0x5 PUSH1 0x20 MSTORE PUSH1 0x40 PUSH1 0x0 KECCAK256 PUSH1 0x40 MLOAD PUSH2 0x15DF DUP2 PUSH2 0x2215 JUMP JUMPDEST DUP2 SLOAD DUP2 MSTORE PUSH1 0x1 DUP3 ADD SLOAD PUSH1 0x1 PUSH1 0x1 PUSH1 0xA0 SHL SUB AND PUSH1 0x20 DUP3 ADD SWAP1 DUP2 MSTORE SWAP2 PUSH2 0x1605 PUSH1 0x2 DUP3 ADD PUSH2 0x2357 JUMP JUMPDEST PUSH1 0x40 DUP4 ADD SWAP1 DUP2 MSTORE PUSH2 0x1618 PUSH1 0x3 DUP4 ADD PUSH2 0x2357 JUMP JUMPDEST SWAP2 PUSH1 0x60 DUP5 ADD SWAP3 DUP4 MSTORE PUSH1 0x4 DUP2 ADD SLOAD SWAP3 PUSH1 0x80 DUP6 ADD SWAP4 DUP5 MSTORE PUSH1 0x5 DUP3 ADD SLOAD PUSH1 0xA0 DUP7 ADD SWAP1 DUP2 MSTORE PUSH1 0x6 DUP4 ADD SLOAD SWAP1 PUSH1 0xC0 DUP8 ADD SWAP2 DUP3 MSTORE PUSH2 0x16BF PUSH1 0x7 DUP6 ADD SLOAD SWAP4 PUSH1 0xE0 DUP10 ADD SWAP5 DUP6 MSTORE PUSH2 0x16AC PUSH1 0x9 PUSH1 0xFF PUSH1 0x8 DUP10 ADD SLOAD AND SWAP8 PUSH2 0x100 DUP13 ADD SWAP9 ISZERO ISZERO DUP10 MSTORE ADD SLOAD SWAP8 PUSH2 0x120 DUP12 ADD SWAP9 DUP10 MSTORE PUSH1 0x40 MLOAD SWAP12 DUP13 SWAP12 PUSH1 0x20 DUP14 MSTORE MLOAD PUSH1 0x20 DUP14 ADD MSTORE PUSH1 0x1 DUP1 PUSH1 0xA0 SHL SUB SWAP1 MLOAD AND PUSH1 0x40 DUP13 ADD MSTORE MLOAD PUSH2 0x140 PUSH1 0x60 DUP13 ADD MSTORE PUSH2 0x160 DUP12 ADD SWAP1 PUSH2 0x22DC JUMP JUMPDEST SWAP1 MLOAD DUP10 DUP3 SUB PUSH1 0x1F NOT ADD PUSH1 0x80 DUP12 ADD MSTORE PUSH2 0x22DC JUMP JUMPDEST SWAP6 MLOAD PUSH1 0xA0 DUP9 ADD MSTORE MLOAD PUSH1 0xC0 DUP8 ADD MSTORE MLOAD PUSH1 0xE0 DUP7 ADD MSTORE MLOAD PUSH2 0x100 DUP6 ADD MSTORE MLOAD ISZERO ISZERO PUSH2 0x120 DUP5 ADD MSTORE MLOAD PUSH2 0x140 DUP4 ADD MSTORE SUB SWAP1 RETURN JUMPDEST CALLVALUE PUSH2 0x1FA JUMPI PUSH1 0x0 CALLDATASIZE PUSH1 0x3 NOT ADD SLT PUSH2 0x1FA JUMPI PUSH2 0x1706 PUSH2 0x2656 JUMP JUMPDEST PUSH1 0x2 SLOAD PUSH1 0xFF DUP2 AND ISZERO PUSH2 0x1745 JUMPI PUSH1 0xFF NOT AND PUSH1 0x2 SSTORE PUSH32 0x5DB9EE0A495BF2E6FF9C91A7834C1BA4FDD244A5E8AA4E537BD38AEAE4B073AA PUSH1 0x20 PUSH1 0x40 MLOAD CALLER DUP2 MSTORE LOG1 STOP JUMPDEST PUSH4 0x8DFC202B PUSH1 0xE0 SHL PUSH1 0x0 MSTORE PUSH1 0x4 PUSH1 0x0 REVERT JUMPDEST CALLVALUE PUSH2 0x1FA JUMPI PUSH1 0x40 CALLDATASIZE PUSH1 0x3 NOT ADD SLT PUSH2 0x1FA JUMPI PUSH2 0x176F PUSH2 0x21E9 JUMP JUMPDEST PUSH1 0x1 PUSH1 0x1 PUSH1 0xA0 SHL SUB AND PUSH1 0x0 SWAP1 DUP2 MSTORE PUSH1 0x8 PUSH1 0x20 MSTORE PUSH1 0x40 SWAP1 KECCAK256 DUP1 SLOAD PUSH1 0x24 CALLDATALOAD SWAP2 SWAP1 DUP3 LT ISZERO PUSH2 0x1FA JUMPI PUSH1 0x20 SWAP2 PUSH2 0xDCB SWAP2 PUSH2 0x22C4 JUMP JUMPDEST CALLVALUE PUSH2 0x1FA JUMPI PUSH1 0x40 CALLDATASIZE PUSH1 0x3 NOT ADD SLT PUSH2 0x1FA JUMPI PUSH2 0x17B9 PUSH2 0x21FF JUMP JUMPDEST CALLER PUSH1 0x1 PUSH1 0x1 PUSH1 0xA0 SHL SUB DUP3 AND SUB PUSH2 0x17D5 JUMPI PUSH2 0x52B SWAP1 PUSH1 0x4 CALLDATALOAD PUSH2 0x27B1 JUMP JUMPDEST PUSH4 0x334BD919 PUSH1 0xE1 SHL PUSH1 0x0 MSTORE PUSH1 0x4 PUSH1 0x0 REVERT JUMPDEST CALLVALUE PUSH2 0x1FA JUMPI PUSH1 0x40 CALLDATASIZE PUSH1 0x3 NOT ADD SLT PUSH2 0x1FA JUMPI PUSH2 0x52B PUSH1 0x4 CALLDATALOAD PUSH2 0x1805 PUSH2 0x21FF JUMP JUMPDEST SWAP1 PUSH2 0x1821 PUSH2 0x521 DUP3 PUSH1 0x0 MSTORE PUSH1 0x0 PUSH1 0x20 MSTORE PUSH1 0x1 PUSH1 0x40 PUSH1 0x0 KECCAK256 ADD SLOAD SWAP1 JUMP JUMPDEST PUSH2 0x28E4 JUMP JUMPDEST CALLVALUE PUSH2 0x1FA JUMPI PUSH1 0x40 CALLDATASIZE PUSH1 0x3 NOT ADD SLT PUSH2 0x1FA JUMPI PUSH2 0x183F PUSH2 0x21FF JUMP JUMPDEST PUSH1 0x4 CALLDATALOAD PUSH1 0x0 MSTORE PUSH1 0xA PUSH1 0x20 MSTORE PUSH1 0x40 PUSH1 0x0 KECCAK256 SWAP1 PUSH1 0x1 DUP1 PUSH1 0xA0 SHL SUB AND PUSH1 0x0 MSTORE PUSH1 0x20 MSTORE PUSH1 0x20 PUSH1 0x40 PUSH1 0x0 KECCAK256 SLOAD PUSH1 0x40 MLOAD SWAP1 DUP2 MSTORE RETURN JUMPDEST CALLVALUE PUSH2 0x1FA JUMPI PUSH1 0x60 CALLDATASIZE PUSH1 0x3 NOT ADD SLT PUSH2 0x1FA JUMPI PUSH1 0x4 CALLDATALOAD PUSH1 0x1 PUSH1 0x1 PUSH1 0x40 SHL SUB DUP2 GT PUSH2 0x1FA JUMPI PUSH2 0x189E SWAP1 CALLDATASIZE SWAP1 PUSH1 0x4 ADD PUSH2 0x226E JUMP JUMPDEST PUSH1 0x24 CALLDATALOAD PUSH1 0x1 PUSH1 0x1 PUSH1 0x40 SHL SUB DUP2 GT PUSH2 0x1FA JUMPI PUSH2 0x18BD SWAP1 CALLDATASIZE SWAP1 PUSH1 0x4 ADD PUSH2 0x226E JUMP JUMPDEST PUSH1 0x44 CALLDATALOAD SWAP2 DUP1 MLOAD ISZERO PUSH2 0x1D27 JUMPI PUSH2 0x3E8 DUP4 GT PUSH2 0x1CEA JUMPI CALLER PUSH1 0x0 MSTORE PUSH1 0x6 PUSH1 0x20 MSTORE PUSH1 0x40 PUSH1 0x0 KECCAK256 SLOAD PUSH2 0x1CA5 JUMPI PUSH1 0x4 SLOAD SWAP2 PUSH1 0x1 DUP4 ADD PUSH1 0x4 SSTORE PUSH1 0x40 MLOAD PUSH2 0x18FB DUP2 PUSH2 0x2215 JUMP JUMPDEST DUP4 DUP2 MSTORE PUSH1 0x20 DUP2 ADD CALLER DUP2 MSTORE PUSH1 0x40 DUP3 ADD DUP5 DUP2 MSTORE PUSH1 0x60 DUP4 ADD DUP5 DUP2 MSTORE PUSH1 0x80 DUP5 ADD DUP9 DUP2 MSTORE PUSH1 0xA0 DUP6 ADD PUSH1 0x0 DUP2 MSTORE PUSH1 0xC0 DUP7 ADD SWAP2 PUSH1 0x0 DUP4 MSTORE PUSH1 0xE0 DUP8 ADD SWAP4 PUSH1 0x0 DUP6 MSTORE PUSH2 0x100 DUP9 ADD SWAP6 PUSH1 0x1 DUP8 MSTORE PUSH2 0x120 DUP10 ADD SWAP8 TIMESTAMP DUP10 MSTORE DUP13 PUSH1 0x0 MSTORE PUSH1 0x5 PUSH1 0x20 MSTORE PUSH1 0x40 PUSH1 0x0 KECCAK256 SWAP10 MLOAD DUP11 SSTORE PUSH1 0x1 DUP1 PUSH1 0xA0 SHL SUB SWAP1 MLOAD AND PUSH1 0x1 DUP11 ADD SWAP1 PUSH1 0x1 DUP1 PUSH1 0xA0 SHL SUB AND PUSH12 0xFFFFFFFFFFFFFFFFFFFFFFFF PUSH1 0xA0 SHL DUP3 SLOAD AND OR SWAP1 SSTORE PUSH1 0x2 DUP10 ADD SWAP1 MLOAD DUP1 MLOAD SWAP1 PUSH1 0x1 PUSH1 0x1 PUSH1 0x40 SHL SUB DUP3 GT PUSH2 0x1BCC JUMPI DUP2 SWAP1 PUSH2 0x19A9 DUP5 SLOAD PUSH2 0x231D JUMP JUMPDEST PUSH1 0x1F DUP2 GT PUSH2 0x1C52 JUMPI JUMPDEST POP PUSH1 0x20 SWAP1 PUSH1 0x1F DUP4 GT PUSH1 0x1 EQ PUSH2 0x1BED JUMPI PUSH1 0x0 SWAP3 PUSH2 0x1BE2 JUMPI JUMPDEST POP POP DUP2 PUSH1 0x1 SHL SWAP2 PUSH1 0x0 NOT SWAP1 PUSH1 0x3 SHL SHR NOT AND OR SWAP1 SSTORE JUMPDEST MLOAD DUP1 MLOAD PUSH1 0x3 DUP10 ADD SWAP2 PUSH1 0x1 PUSH1 0x1 PUSH1 0x40 SHL SUB DUP3 GT PUSH2 0x1BCC JUMPI PUSH2 0x19FE DUP4 SLOAD PUSH2 0x231D JUMP JUMPDEST PUSH1 0x1F DUP2 GT PUSH2 0x1B84 JUMPI JUMPDEST POP PUSH1 0x20 SWAP1 PUSH1 0x1F DUP4 GT PUSH1 0x1 EQ PUSH2 0x1AED JUMPI SWAP3 DUP3 PUSH2 0x1AD4 SWAP12 SWAP10 SWAP7 SWAP4 PUSH1 0x9 SWAP10 SWAP7 SWAP4 PUSH32 0x9C5FF23476FADD8B52890462B7BC7B65F169B3574CE9D1EBB177145D3C8FCE9B SWAP16 SWAP15 SWAP13 SWAP10 SWAP7 PUSH1 0x0 SWAP3 PUSH2 0x1AE2 JUMPI JUMPDEST POP POP DUP2 PUSH1 0x1 SHL SWAP2 PUSH1 0x0 NOT SWAP1 PUSH1 0x3 SHL SHR NOT AND OR SWAP1 SSTORE JUMPDEST MLOAD PUSH1 0x4 DUP9 ADD SSTORE MLOAD PUSH1 0x5 DUP8 ADD SSTORE MLOAD PUSH1 0x6 DUP7 ADD SSTORE MLOAD PUSH1 0x7 DUP6 ADD SSTORE PUSH1 0x8 DUP5 ADD SWAP1 MLOAD ISZERO ISZERO PUSH1 0xFF DUP1 NOT DUP4 SLOAD AND SWAP2 AND OR SWAP1 SSTORE MLOAD SWAP2 ADD SSTORE CALLER PUSH1 0x0 MSTORE PUSH1 0x6 PUSH1 0x20 MSTORE DUP5 PUSH1 0x40 PUSH1 0x0 KECCAK256 SSTORE PUSH2 0x1AB0 CALLER PUSH2 0x283A JUMP JUMPDEST POP PUSH2 0x1AC6 PUSH1 0x40 MLOAD SWAP4 PUSH1 0x60 DUP6 MSTORE PUSH1 0x60 DUP6 ADD SWAP1 PUSH2 0x22DC JUMP JUMPDEST SWAP1 DUP4 DUP3 SUB PUSH1 0x20 DUP6 ADD MSTORE PUSH2 0x22DC JUMP JUMPDEST SWAP4 PUSH1 0x40 DUP3 ADD MSTORE DUP1 CALLER SWAP5 SUB SWAP1 LOG3 STOP JUMPDEST ADD MLOAD SWAP1 POP CODESIZE DUP1 PUSH2 0x1A52 JUMP JUMPDEST SWAP1 PUSH1 0x1F NOT DUP4 AND SWAP2 DUP5 PUSH1 0x0 MSTORE DUP2 PUSH1 0x0 KECCAK256 SWAP3 PUSH1 0x0 JUMPDEST DUP2 DUP2 LT PUSH2 0x1B6C JUMPI POP SWAP4 PUSH1 0x9 SWAP10 SWAP7 SWAP4 PUSH32 0x9C5FF23476FADD8B52890462B7BC7B65F169B3574CE9D1EBB177145D3C8FCE9B SWAP16 SWAP15 SWAP13 SWAP10 SWAP7 SWAP4 PUSH1 0x1 SWAP4 PUSH2 0x1AD4 SWAP16 SWAP14 SWAP11 SWAP8 DUP5 GT PUSH2 0x1B53 JUMPI JUMPDEST POP POP POP DUP2 SHL ADD SWAP1 SSTORE PUSH2 0x1A67 JUMP JUMPDEST ADD MLOAD PUSH1 0x0 NOT PUSH1 0xF8 DUP5 PUSH1 0x3 SHL AND SHR NOT AND SWAP1 SSTORE CODESIZE DUP1 DUP1 PUSH2 0x1B46 JUMP JUMPDEST SWAP3 SWAP4 PUSH1 0x20 PUSH1 0x1 DUP2 SWAP3 DUP8 DUP7 ADD MLOAD DUP2 SSTORE ADD SWAP6 ADD SWAP4 ADD PUSH2 0x1B00 JUMP JUMPDEST DUP4 PUSH1 0x0 MSTORE PUSH1 0x20 PUSH1 0x0 KECCAK256 PUSH1 0x1F DUP5 ADD PUSH1 0x5 SHR DUP2 ADD SWAP2 PUSH1 0x20 DUP6 LT PUSH2 0x1BC2 JUMPI JUMPDEST PUSH1 0x1F ADD PUSH1 0x5 SHR ADD SWAP1 JUMPDEST DUP2 DUP2 LT PUSH2 0x1BB6 JUMPI POP PUSH2 0x1A07 JUMP JUMPDEST PUSH1 0x0 DUP2 SSTORE PUSH1 0x1 ADD PUSH2 0x1BA9 JUMP JUMPDEST SWAP1 SWAP2 POP DUP2 SWAP1 PUSH2 0x1BA0 JUMP JUMPDEST PUSH4 0x4E487B71 PUSH1 0xE0 SHL PUSH1 0x0 MSTORE PUSH1 0x41 PUSH1 0x4 MSTORE PUSH1 0x24 PUSH1 0x0 REVERT JUMPDEST ADD MLOAD SWAP1 POP DUP16 DUP1 PUSH2 0x19C9 JUMP JUMPDEST PUSH1 0x0 DUP6 DUP2 MSTORE DUP3 DUP2 KECCAK256 SWAP4 POP PUSH1 0x1F NOT DUP6 AND SWAP1 JUMPDEST DUP2 DUP2 LT PUSH2 0x1C3A JUMPI POP SWAP1 DUP5 PUSH1 0x1 SWAP6 SWAP5 SWAP4 SWAP3 LT PUSH2 0x1C21 JUMPI JUMPDEST POP POP POP DUP2 SHL ADD SWAP1 SSTORE PUSH2 0x19DE JUMP JUMPDEST ADD MLOAD PUSH1 0x0 NOT PUSH1 0xF8 DUP5 PUSH1 0x3 SHL AND SHR NOT AND SWAP1 SSTORE DUP16 DUP1 DUP1 PUSH2 0x1C14 JUMP JUMPDEST SWAP3 SWAP4 PUSH1 0x20 PUSH1 0x1 DUP2 SWAP3 DUP8 DUP7 ADD MLOAD DUP2 SSTORE ADD SWAP6 ADD SWAP4 ADD PUSH2 0x1BFE JUMP JUMPDEST SWAP1 SWAP2 POP DUP4 PUSH1 0x0 MSTORE PUSH1 0x20 PUSH1 0x0 KECCAK256 PUSH1 0x1F DUP5 ADD PUSH1 0x5 SHR DUP2 ADD SWAP2 PUSH1 0x20 DUP6 LT PUSH2 0x1C9B JUMPI JUMPDEST SWAP1 PUSH1 0x1F DUP6 SWAP5 SWAP4 SWAP3 ADD PUSH1 0x5 SHR ADD SWAP1 JUMPDEST DUP2 DUP2 LT PUSH2 0x1C8C JUMPI POP PUSH2 0x19B2 JUMP JUMPDEST PUSH1 0x0 DUP2 SSTORE DUP5 SWAP4 POP PUSH1 0x1 ADD PUSH2 0x1C7F JUMP JUMPDEST SWAP1 SWAP2 POP DUP2 SWAP1 PUSH2 0x1C71 JUMP JUMPDEST PUSH1 0x40 MLOAD PUSH3 0x461BCD PUSH1 0xE5 SHL DUP2 MSTORE PUSH1 0x20 PUSH1 0x4 DUP3 ADD MSTORE PUSH1 0x1D PUSH1 0x24 DUP3 ADD MSTORE PUSH32 0x41726269747261746F7220616C72656164792072656769737465726564000000 PUSH1 0x44 DUP3 ADD MSTORE PUSH1 0x64 SWAP1 REVERT JUMPDEST PUSH1 0x40 MLOAD PUSH3 0x461BCD PUSH1 0xE5 SHL DUP2 MSTORE PUSH1 0x20 PUSH1 0x4 DUP3 ADD MSTORE PUSH1 0x15 PUSH1 0x24 DUP3 ADD MSTORE PUSH21 0x4665652063616E6E6F742065786365656420313025 PUSH1 0x58 SHL PUSH1 0x44 DUP3 ADD MSTORE PUSH1 0x64 SWAP1 REVERT JUMPDEST PUSH1 0x40 MLOAD PUSH3 0x461BCD PUSH1 0xE5 SHL DUP2 MSTORE PUSH1 0x20 PUSH1 0x4 DUP3 ADD MSTORE PUSH1 0x14 PUSH1 0x24 DUP3 ADD MSTORE PUSH20 0x4E616D652063616E6E6F7420626520656D707479 PUSH1 0x60 SHL PUSH1 0x44 DUP3 ADD MSTORE PUSH1 0x64 SWAP1 REVERT JUMPDEST CALLVALUE PUSH2 0x1FA JUMPI PUSH1 0x60 CALLDATASIZE PUSH1 0x3 NOT ADD SLT PUSH2 0x1FA JUMPI PUSH1 0x4 CALLDATALOAD PUSH1 0x24 CALLDATALOAD SWAP1 DUP2 ISZERO ISZERO DUP1 SWAP3 SUB PUSH2 0x1FA JUMPI PUSH1 0x44 CALLDATALOAD PUSH1 0x1 PUSH1 0x1 PUSH1 0x40 SHL SUB DUP2 GT PUSH2 0x1FA JUMPI PUSH2 0x1DA4 SWAP1 CALLDATASIZE SWAP1 PUSH1 0x4 ADD PUSH2 0x226E JUMP JUMPDEST SWAP2 CALLER PUSH1 0x0 MSTORE PUSH1 0x6 PUSH1 0x20 MSTORE PUSH1 0x40 PUSH1 0x0 KECCAK256 SLOAD PUSH1 0x0 MSTORE PUSH1 0x5 PUSH1 0x20 MSTORE PUSH2 0x1DD7 CALLER PUSH1 0x1 DUP1 PUSH1 0xA0 SHL SUB PUSH1 0x1 PUSH1 0x40 PUSH1 0x0 KECCAK256 ADD SLOAD AND EQ PUSH2 0x24A4 JUMP JUMPDEST PUSH1 0x0 DUP3 DUP2 MSTORE PUSH1 0x7 PUSH1 0x20 MSTORE PUSH1 0x40 SWAP1 KECCAK256 PUSH1 0x2 ADD SLOAD PUSH2 0x1DFD SWAP1 PUSH1 0x1 PUSH1 0x1 PUSH1 0xA0 SHL SUB AND ISZERO ISZERO PUSH2 0x250D JUMP JUMPDEST DUP2 PUSH1 0x0 MSTORE PUSH1 0x7 PUSH1 0x20 MSTORE PUSH1 0xFF PUSH1 0x3 PUSH1 0x40 PUSH1 0x0 KECCAK256 ADD SLOAD PUSH1 0xA0 SHR AND PUSH1 0x5 DUP2 LT ISZERO PUSH2 0x4B3 JUMPI PUSH1 0x2 PUSH2 0x1E2A SWAP2 EQ PUSH2 0x2552 JUMP JUMPDEST PUSH1 0x0 DUP3 DUP2 MSTORE PUSH1 0x7 PUSH1 0x20 MSTORE PUSH1 0x40 SWAP1 KECCAK256 PUSH1 0x3 ADD SLOAD PUSH2 0x1E50 SWAP1 PUSH1 0x1 PUSH1 0x1 PUSH1 0xA0 SHL SUB AND CALLER EQ PUSH2 0x2597 JUMP JUMPDEST DUP2 PUSH1 0x0 MSTORE PUSH1 0x7 PUSH1 0x20 MSTORE PUSH1 0xA PUSH1 0x40 PUSH1 0x0 KECCAK256 ADD SLOAD TIMESTAMP GT PUSH2 0x202C JUMPI PUSH1 0x0 DUP3 DUP2 MSTORE PUSH1 0x7 PUSH1 0x20 MSTORE PUSH1 0x40 SWAP1 KECCAK256 PUSH1 0x3 DUP2 ADD DUP1 SLOAD PUSH1 0xFF PUSH1 0xA0 SHL NOT AND PUSH1 0x3 PUSH1 0xA0 SHL OR SWAP1 SSTORE TIMESTAMP PUSH1 0x9 DUP3 ADD SSTORE DUP4 MLOAD PUSH1 0x6 SWAP1 SWAP2 ADD SWAP1 PUSH1 0x1 PUSH1 0x1 PUSH1 0x40 SHL SUB DUP2 GT PUSH2 0x1BCC JUMPI PUSH2 0x1EB1 DUP3 SLOAD PUSH2 0x231D JUMP JUMPDEST PUSH1 0x1F DUP2 GT PUSH2 0x1FE4 JUMPI JUMPDEST POP PUSH1 0x20 PUSH1 0x1F DUP3 GT PUSH1 0x1 EQ PUSH2 0x1F5D JUMPI SWAP1 DUP1 PUSH32 0x279A574E61B6D37F46545F470422464B255AEAE50B99A8E2ECA691FB695CF342 SWAP5 SWAP4 SWAP3 PUSH1 0x0 SWAP2 PUSH2 0x1F52 JUMPI JUMPDEST POP DUP2 PUSH1 0x1 SHL SWAP2 PUSH1 0x0 NOT SWAP1 PUSH1 0x3 SHL SHR NOT AND OR SWAP1 SSTORE JUMPDEST CALLER PUSH1 0x0 MSTORE PUSH1 0x6 PUSH1 0x20 MSTORE PUSH1 0x40 PUSH1 0x0 KECCAK256 SLOAD PUSH1 0x0 MSTORE PUSH1 0x5 PUSH1 0x20 MSTORE PUSH1 0x6 PUSH1 0x40 PUSH1 0x0 KECCAK256 ADD PUSH2 0x1F33 DUP2 SLOAD PUSH2 0x25E3 JUMP JUMPDEST SWAP1 SSTORE PUSH1 0x40 MLOAD SWAP1 DUP2 MSTORE PUSH1 0x40 PUSH1 0x20 DUP3 ADD MSTORE DUP1 PUSH2 0x8EA CALLER SWAP6 PUSH1 0x40 DUP4 ADD SWAP1 PUSH2 0x22DC JUMP JUMPDEST SWAP1 POP DUP7 ADD MLOAD DUP8 PUSH2 0x1EF6 JUMP JUMPDEST PUSH1 0x1F NOT DUP3 AND SWAP1 DUP4 PUSH1 0x0 MSTORE DUP1 PUSH1 0x0 KECCAK256 SWAP2 PUSH1 0x0 JUMPDEST DUP2 DUP2 LT PUSH2 0x1FCC JUMPI POP SWAP2 DUP4 SWAP2 PUSH32 0x279A574E61B6D37F46545F470422464B255AEAE50B99A8E2ECA691FB695CF342 SWAP7 SWAP6 SWAP5 PUSH1 0x1 SWAP5 LT PUSH2 0x1FB3 JUMPI JUMPDEST POP POP DUP2 SHL ADD SWAP1 SSTORE PUSH2 0x1F0A JUMP JUMPDEST DUP9 ADD MLOAD PUSH1 0x0 NOT PUSH1 0xF8 DUP5 PUSH1 0x3 SHL AND SHR NOT AND SWAP1 SSTORE DUP8 DUP1 PUSH2 0x1FA7 JUMP JUMPDEST SWAP2 SWAP3 PUSH1 0x20 PUSH1 0x1 DUP2 SWAP3 DUP7 DUP13 ADD MLOAD DUP2 SSTORE ADD SWAP5 ADD SWAP3 ADD PUSH2 0x1F6F JUMP JUMPDEST DUP3 PUSH1 0x0 MSTORE PUSH1 0x20 PUSH1 0x0 KECCAK256 PUSH1 0x1F DUP4 ADD PUSH1 0x5 SHR DUP2 ADD SWAP2 PUSH1 0x20 DUP5 LT PUSH2 0x2022 JUMPI JUMPDEST PUSH1 0x1F ADD PUSH1 0x5 SHR ADD SWAP1 JUMPDEST DUP2 DUP2 LT PUSH2 0x2016 JUMPI POP PUSH2 0x1EBA JUMP JUMPDEST PUSH1 0x0 DUP2 SSTORE PUSH1 0x1 ADD PUSH2 0x2009 JUMP JUMPDEST SWAP1 SWAP2 POP DUP2 SWAP1 PUSH2 0x2000 JUMP JUMPDEST PUSH1 0x40 MLOAD PUSH3 0x461BCD PUSH1 0xE5 SHL DUP2 MSTORE PUSH1 0x20 PUSH1 0x4 DUP3 ADD MSTORE PUSH1 0x19 PUSH1 0x24 DUP3 ADD MSTORE PUSH32 0x4469737075746520646561646C696E6520657863656564656400000000000000 PUSH1 0x44 DUP3 ADD MSTORE PUSH1 0x64 SWAP1 REVERT JUMPDEST CALLVALUE PUSH2 0x1FA JUMPI PUSH1 0x20 CALLDATASIZE PUSH1 0x3 NOT ADD SLT PUSH2 0x1FA JUMPI PUSH1 0x20 PUSH2 0x209E PUSH1 0x4 CALLDATALOAD PUSH1 0x0 MSTORE PUSH1 0x0 PUSH1 0x20 MSTORE PUSH1 0x1 PUSH1 0x40 PUSH1 0x0 KECCAK256 ADD SLOAD SWAP1 JUMP JUMPDEST PUSH1 0x40 MLOAD SWAP1 DUP2 MSTORE RETURN JUMPDEST CALLVALUE PUSH2 0x1FA JUMPI PUSH1 0x20 CALLDATASIZE PUSH1 0x3 NOT ADD SLT PUSH2 0x1FA JUMPI PUSH1 0x4 CALLDATALOAD PUSH2 0x20C2 PUSH2 0x2656 JUMP JUMPDEST PUSH1 0x0 DUP2 DUP2 MSTORE PUSH1 0x5 PUSH1 0x20 MSTORE PUSH1 0x40 SWAP1 KECCAK256 PUSH1 0x1 ADD SLOAD PUSH2 0x20E8 SWAP1 PUSH1 0x1 PUSH1 0x1 PUSH1 0xA0 SHL SUB AND ISZERO ISZERO PUSH2 0x2458 JUMP JUMPDEST PUSH1 0x0 DUP2 DUP2 MSTORE PUSH1 0x5 PUSH1 0x20 MSTORE PUSH1 0x40 SWAP1 KECCAK256 PUSH1 0x8 DUP2 ADD DUP1 SLOAD PUSH1 0xFF NOT AND SWAP1 SSTORE PUSH1 0x1 ADD SLOAD PUSH2 0x2118 SWAP1 PUSH1 0x1 PUSH1 0x1 PUSH1 0xA0 SHL SUB AND PUSH2 0x2703 JUMP JUMPDEST POP PUSH1 0x0 DUP2 DUP2 MSTORE PUSH1 0x5 PUSH1 0x20 MSTORE PUSH1 0x40 DUP2 KECCAK256 PUSH1 0x1 ADD SLOAD PUSH1 0x1 PUSH1 0x1 PUSH1 0xA0 SHL SUB AND SWAP2 SWAP1 PUSH32 0x8F2C47DAD40A250F8D700FAABC49BDE5DC6BED233EEAF1A220870497F3301ED1 SWAP1 DUP1 LOG3 STOP JUMPDEST CALLVALUE PUSH2 0x1FA JUMPI PUSH1 0x20 CALLDATASIZE PUSH1 0x3 NOT ADD SLT PUSH2 0x1FA JUMPI PUSH1 0x1 PUSH1 0x1 PUSH1 0xA0 SHL SUB PUSH2 0x217D PUSH2 0x21E9 JUMP JUMPDEST AND PUSH1 0x0 MSTORE PUSH1 0x6 PUSH1 0x20 MSTORE PUSH1 0x20 PUSH1 0x40 PUSH1 0x0 KECCAK256 SLOAD PUSH1 0x40 MLOAD SWAP1 DUP2 MSTORE RETURN JUMPDEST CALLVALUE PUSH2 0x1FA JUMPI PUSH1 0x20 CALLDATASIZE PUSH1 0x3 NOT ADD SLT PUSH2 0x1FA JUMPI PUSH1 0x4 CALLDATALOAD SWAP1 PUSH4 0xFFFFFFFF PUSH1 0xE0 SHL DUP3 AND DUP1 SWAP3 SUB PUSH2 0x1FA JUMPI PUSH1 0x20 SWAP2 PUSH4 0x7965DB0B PUSH1 0xE0 SHL DUP2 EQ SWAP1 DUP2 ISZERO PUSH2 0x21D8 JUMPI JUMPDEST POP ISZERO ISZERO DUP2 MSTORE RETURN JUMPDEST PUSH4 0x1FFC9A7 PUSH1 0xE0 SHL EQ SWAP1 POP DUP4 PUSH2 0x21D1 JUMP JUMPDEST PUSH1 0x4 CALLDATALOAD SWAP1 PUSH1 0x1 PUSH1 0x1 PUSH1 0xA0 SHL SUB DUP3 AND DUP3 SUB PUSH2 0x1FA JUMPI JUMP JUMPDEST PUSH1 0x24 CALLDATALOAD SWAP1 PUSH1 0x1 PUSH1 0x1 PUSH1 0xA0 SHL SUB DUP3 AND DUP3 SUB PUSH2 0x1FA JUMPI JUMP JUMPDEST PUSH2 0x140 DUP2 ADD SWAP1 DUP2 LT PUSH1 0x1 PUSH1 0x1 PUSH1 0x40 SHL SUB DUP3 GT OR PUSH2 0x1BCC JUMPI PUSH1 0x40 MSTORE JUMP JUMPDEST PUSH2 0x1A0 DUP2 ADD SWAP1 DUP2 LT PUSH1 0x1 PUSH1 0x1 PUSH1 0x40 SHL SUB DUP3 GT OR PUSH2 0x1BCC JUMPI PUSH1 0x40 MSTORE JUMP JUMPDEST SWAP1 PUSH1 0x1F DUP1 NOT SWAP2 ADD AND DUP2 ADD SWAP1 DUP2 LT PUSH1 0x1 PUSH1 0x1 PUSH1 0x40 SHL SUB DUP3 GT OR PUSH2 0x1BCC JUMPI PUSH1 0x40 MSTORE JUMP JUMPDEST DUP2 PUSH1 0x1F DUP3 ADD SLT ISZERO PUSH2 0x1FA JUMPI DUP1 CALLDATALOAD SWAP1 PUSH1 0x1 PUSH1 0x1 PUSH1 0x40 SHL SUB DUP3 GT PUSH2 0x1BCC JUMPI PUSH1 0x40 MLOAD SWAP3 PUSH2 0x22A2 PUSH1 0x1F DUP5 ADD PUSH1 0x1F NOT AND PUSH1 0x20 ADD DUP6 PUSH2 0x224D JUMP JUMPDEST DUP3 DUP5 MSTORE PUSH1 0x20 DUP4 DUP4 ADD ADD GT PUSH2 0x1FA JUMPI DUP2 PUSH1 0x0 SWAP3 PUSH1 0x20 DUP1 SWAP4 ADD DUP4 DUP7 ADD CALLDATACOPY DUP4 ADD ADD MSTORE SWAP1 JUMP JUMPDEST DUP1 SLOAD DUP3 LT ISZERO PUSH2 0x5DF JUMPI PUSH1 0x0 MSTORE PUSH1 0x20 PUSH1 0x0 KECCAK256 ADD SWAP1 PUSH1 0x0 SWAP1 JUMP JUMPDEST SWAP2 SWAP1 DUP3 MLOAD SWAP3 DUP4 DUP3 MSTORE PUSH1 0x0 JUMPDEST DUP5 DUP2 LT PUSH2 0x2308 JUMPI POP POP DUP3 PUSH1 0x0 PUSH1 0x20 DUP1 SWAP5 SWAP6 DUP5 ADD ADD MSTORE PUSH1 0x1F DUP1 NOT SWAP2 ADD AND ADD ADD SWAP1 JUMP JUMPDEST DUP1 PUSH1 0x20 DUP1 SWAP3 DUP5 ADD ADD MLOAD DUP3 DUP3 DUP7 ADD ADD MSTORE ADD PUSH2 0x22E7 JUMP JUMPDEST SWAP1 PUSH1 0x1 DUP3 DUP2 SHR SWAP3 AND DUP1 ISZERO PUSH2 0x234D JUMPI JUMPDEST PUSH1 0x20 DUP4 LT EQ PUSH2 0x2337 JUMPI JUMP JUMPDEST PUSH4 0x4E487B71 PUSH1 0xE0 SHL PUSH1 0x0 MSTORE PUSH1 0x22 PUSH1 0x4 MSTORE PUSH1 0x24 PUSH1 0x0 REVERT JUMPDEST SWAP2 PUSH1 0x7F AND SWAP2 PUSH2 0x232C JUMP JUMPDEST SWAP1 PUSH1 0x40 MLOAD SWAP2 DUP3 PUSH1 0x0 DUP3 SLOAD SWAP3 PUSH2 0x236B DUP5 PUSH2 0x231D JUMP JUMPDEST DUP1 DUP5 MSTORE SWAP4 PUSH1 0x1 DUP2 AND SWAP1 DUP2 ISZERO PUSH2 0x23D9 JUMPI POP PUSH1 0x1 EQ PUSH2 0x2392 JUMPI JUMPDEST POP PUSH2 0x2390 SWAP3 POP SUB DUP4 PUSH2 0x224D JUMP JUMPDEST JUMP JUMPDEST SWAP1 POP PUSH1 0x0 SWAP3 SWAP2 SWAP3 MSTORE PUSH1 0x20 PUSH1 0x0 KECCAK256 SWAP1 PUSH1 0x0 SWAP2 JUMPDEST DUP2 DUP4 LT PUSH2 0x23BD JUMPI POP POP SWAP1 PUSH1 0x20 PUSH2 0x2390 SWAP3 DUP3 ADD ADD CODESIZE PUSH2 0x2383 JUMP JUMPDEST PUSH1 0x20 SWAP2 SWAP4 POP DUP1 PUSH1 0x1 SWAP2 SLOAD DUP4 DUP6 DUP10 ADD ADD MSTORE ADD SWAP2 ADD SWAP1 SWAP2 DUP5 SWAP3 PUSH2 0x23A4 JUMP JUMPDEST SWAP1 POP PUSH1 0x20 SWAP3 POP PUSH2 0x2390 SWAP5 SWAP2 POP PUSH1 0xFF NOT AND DUP3 DUP5 ADD MSTORE ISZERO ISZERO PUSH1 0x5 SHL DUP3 ADD ADD CODESIZE PUSH2 0x2383 JUMP JUMPDEST SWAP1 PUSH1 0x5 DUP3 LT ISZERO PUSH2 0x4B3 JUMPI MSTORE JUMP JUMPDEST PUSH1 0x40 SWAP1 PUSH1 0x3 NOT ADD SLT PUSH2 0x1FA JUMPI PUSH1 0x4 CALLDATALOAD SWAP1 PUSH1 0x24 CALLDATALOAD SWAP1 JUMP JUMPDEST PUSH1 0x20 PUSH1 0x40 DUP2 DUP4 ADD SWAP3 DUP3 DUP2 MSTORE DUP5 MLOAD DUP1 SWAP5 MSTORE ADD SWAP3 ADD SWAP1 PUSH1 0x0 JUMPDEST DUP2 DUP2 LT PUSH2 0x2442 JUMPI POP POP POP SWAP1 JUMP JUMPDEST DUP3 MLOAD DUP5 MSTORE PUSH1 0x20 SWAP4 DUP5 ADD SWAP4 SWAP1 SWAP3 ADD SWAP2 PUSH1 0x1 ADD PUSH2 0x2435 JUMP JUMPDEST ISZERO PUSH2 0x245F JUMPI JUMP JUMPDEST PUSH1 0x40 MLOAD PUSH3 0x461BCD PUSH1 0xE5 SHL DUP2 MSTORE PUSH1 0x20 PUSH1 0x4 DUP3 ADD MSTORE PUSH1 0x19 PUSH1 0x24 DUP3 ADD MSTORE PUSH32 0x41726269747261746F7220646F6573206E6F7420657869737400000000000000 PUSH1 0x44 DUP3 ADD MSTORE PUSH1 0x64 SWAP1 REVERT JUMPDEST ISZERO PUSH2 0x24AB JUMPI JUMP JUMPDEST PUSH1 0x40 MLOAD PUSH3 0x461BCD PUSH1 0xE5 SHL DUP2 MSTORE PUSH1 0x20 PUSH1 0x4 DUP3 ADD MSTORE PUSH1 0x34 PUSH1 0x24 DUP3 ADD MSTORE PUSH32 0x4F6E6C79207468652061737369676E65642061726269747261746F722063616E PUSH1 0x44 DUP3 ADD MSTORE PUSH20 0x103832B93337B936903A3434B99030B1BA34B7B7 PUSH1 0x61 SHL PUSH1 0x64 DUP3 ADD MSTORE PUSH1 0x84 SWAP1 REVERT JUMPDEST ISZERO PUSH2 0x2514 JUMPI JUMP JUMPDEST PUSH1 0x40 MLOAD PUSH3 0x461BCD PUSH1 0xE5 SHL DUP2 MSTORE PUSH1 0x20 PUSH1 0x4 DUP3 ADD MSTORE PUSH1 0x16 PUSH1 0x24 DUP3 ADD MSTORE PUSH22 0x111A5CDC1D5D1948191BD95CC81B9BDD08195E1A5CDD PUSH1 0x52 SHL PUSH1 0x44 DUP3 ADD MSTORE PUSH1 0x64 SWAP1 REVERT JUMPDEST ISZERO PUSH2 0x2559 JUMPI JUMP JUMPDEST PUSH1 0x40 MLOAD PUSH3 0x461BCD PUSH1 0xE5 SHL DUP2 MSTORE PUSH1 0x20 PUSH1 0x4 DUP3 ADD MSTORE PUSH1 0x16 PUSH1 0x24 DUP3 ADD MSTORE PUSH22 0x496E76616C6964206469737075746520737461747573 PUSH1 0x50 SHL PUSH1 0x44 DUP3 ADD MSTORE PUSH1 0x64 SWAP1 REVERT JUMPDEST ISZERO PUSH2 0x259E JUMPI JUMP JUMPDEST PUSH1 0x40 MLOAD PUSH3 0x461BCD PUSH1 0xE5 SHL DUP2 MSTORE PUSH1 0x20 PUSH1 0x4 DUP3 ADD MSTORE PUSH1 0x1C PUSH1 0x24 DUP3 ADD MSTORE PUSH32 0x4E6F742061737369676E656420746F2074686973206469737075746500000000 PUSH1 0x44 DUP3 ADD MSTORE PUSH1 0x64 SWAP1 REVERT JUMPDEST PUSH1 0x0 NOT DUP2 EQ PUSH2 0x905 JUMPI PUSH1 0x1 ADD SWAP1 JUMP JUMPDEST DUP1 SLOAD PUSH9 0x10000000000000000 DUP2 LT ISZERO PUSH2 0x1BCC JUMPI PUSH2 0x2614 SWAP2 PUSH1 0x1 DUP3 ADD DUP2 SSTORE PUSH2 0x22C4 JUMP JUMPDEST DUP2 SWAP3 SWAP2 SLOAD SWAP1 PUSH1 0x3 SHL SWAP2 DUP3 SHL SWAP2 PUSH1 0x0 NOT SWAP1 SHL NOT AND OR SWAP1 SSTORE JUMP JUMPDEST DUP2 DUP2 MUL SWAP3 SWAP2 DUP2 ISZERO SWAP2 DUP5 DIV EQ OR ISZERO PUSH2 0x905 JUMPI JUMP JUMPDEST PUSH1 0x1 PUSH1 0x1 PUSH1 0x40 SHL SUB DUP2 GT PUSH2 0x1BCC JUMPI PUSH1 0x5 SHL PUSH1 0x20 ADD SWAP1 JUMP JUMPDEST CALLER PUSH1 0x0 SWAP1 DUP2 MSTORE PUSH32 0x7D7FFB7A348E1C6A02869081A26547B49160DD3DF72D1D75A570EB9B698292EC PUSH1 0x20 MSTORE PUSH1 0x40 SWAP1 KECCAK256 SLOAD PUSH1 0xFF AND ISZERO PUSH2 0x268F JUMPI JUMP JUMPDEST PUSH4 0xE2517D3F PUSH1 0xE0 SHL PUSH1 0x0 MSTORE CALLER PUSH1 0x4 MSTORE PUSH32 0xA49807205CE4D355092EF5A8A18F56E8913CF4A201FBE287825B095693C21775 PUSH1 0x24 MSTORE PUSH1 0x44 PUSH1 0x0 REVERT JUMPDEST PUSH1 0x0 DUP2 DUP2 MSTORE PUSH1 0x20 DUP2 DUP2 MSTORE PUSH1 0x40 DUP1 DUP4 KECCAK256 CALLER DUP5 MSTORE SWAP1 SWAP2 MSTORE SWAP1 KECCAK256 SLOAD PUSH1 0xFF AND ISZERO PUSH2 0x26EB JUMPI POP JUMP JUMPDEST PUSH4 0xE2517D3F PUSH1 0xE0 SHL PUSH1 0x0 MSTORE CALLER PUSH1 0x4 MSTORE PUSH1 0x24 MSTORE PUSH1 0x44 PUSH1 0x0 REVERT JUMPDEST PUSH1 0x1 PUSH1 0x1 PUSH1 0xA0 SHL SUB DUP2 AND PUSH1 0x0 SWAP1 DUP2 MSTORE PUSH1 0x0 DUP1 MLOAD PUSH1 0x20 PUSH2 0x2986 DUP4 CODECOPY DUP2 MLOAD SWAP2 MSTORE PUSH1 0x20 MSTORE PUSH1 0x40 SWAP1 KECCAK256 SLOAD PUSH1 0xFF AND ISZERO PUSH2 0x27AB JUMPI PUSH1 0x1 PUSH1 0x1 PUSH1 0xA0 SHL SUB AND PUSH1 0x0 DUP2 DUP2 MSTORE PUSH1 0x0 DUP1 MLOAD PUSH1 0x20 PUSH2 0x2986 DUP4 CODECOPY DUP2 MLOAD SWAP2 MSTORE PUSH1 0x20 MSTORE PUSH1 0x40 DUP2 KECCAK256 DUP1 SLOAD PUSH1 0xFF NOT AND SWAP1 SSTORE CALLER SWAP2 SWAP1 PUSH32 0x16CEEE8289685DD2A02B9C8AE81D2DF373176CE53519E6284E2A2950D6546FFA SWAP1 PUSH32 0xF6391F5C32D9C69D2A47EA670B442974B53935D1EDC7FD64EB21E047A839171B SWAP1 DUP1 LOG4 PUSH1 0x1 SWAP1 JUMP JUMPDEST POP PUSH1 0x0 SWAP1 JUMP JUMPDEST PUSH1 0x0 DUP2 DUP2 MSTORE PUSH1 0x20 DUP2 DUP2 MSTORE PUSH1 0x40 DUP1 DUP4 KECCAK256 PUSH1 0x1 PUSH1 0x1 PUSH1 0xA0 SHL SUB DUP7 AND DUP5 MSTORE SWAP1 SWAP2 MSTORE SWAP1 KECCAK256 SLOAD PUSH1 0xFF AND ISZERO PUSH2 0x2833 JUMPI PUSH1 0x0 DUP2 DUP2 MSTORE PUSH1 0x20 DUP2 DUP2 MSTORE PUSH1 0x40 DUP1 DUP4 KECCAK256 PUSH1 0x1 PUSH1 0x1 PUSH1 0xA0 SHL SUB SWAP6 SWAP1 SWAP6 AND DUP1 DUP5 MSTORE SWAP5 SWAP1 SWAP2 MSTORE DUP2 KECCAK256 DUP1 SLOAD PUSH1 0xFF NOT AND SWAP1 SSTORE CALLER SWAP3 SWAP2 SWAP1 PUSH32 0xF6391F5C32D9C69D2A47EA670B442974B53935D1EDC7FD64EB21E047A839171B SWAP1 DUP1 LOG4 PUSH1 0x1 SWAP1 JUMP JUMPDEST POP POP PUSH1 0x0 SWAP1 JUMP JUMPDEST PUSH1 0x1 PUSH1 0x1 PUSH1 0xA0 SHL SUB DUP2 AND PUSH1 0x0 SWAP1 DUP2 MSTORE PUSH1 0x0 DUP1 MLOAD PUSH1 0x20 PUSH2 0x2986 DUP4 CODECOPY DUP2 MLOAD SWAP2 MSTORE PUSH1 0x20 MSTORE PUSH1 0x40 SWAP1 KECCAK256 SLOAD PUSH1 0xFF AND PUSH2 0x27AB JUMPI PUSH1 0x1 PUSH1 0x1 PUSH1 0xA0 SHL SUB AND PUSH1 0x0 DUP2 DUP2 MSTORE PUSH1 0x0 DUP1 MLOAD PUSH1 0x20 PUSH2 0x2986 DUP4 CODECOPY DUP2 MLOAD SWAP2 MSTORE PUSH1 0x20 MSTORE PUSH1 0x40 DUP2 KECCAK256 DUP1 SLOAD PUSH1 0xFF NOT AND PUSH1 0x1 OR SWAP1 SSTORE CALLER SWAP2 SWAP1 PUSH32 0x16CEEE8289685DD2A02B9C8AE81D2DF373176CE53519E6284E2A2950D6546FFA SWAP1 PUSH32 0x2F8788117E7EFF1D82E926EC794901D17C78024A50270940304540A733656F0D SWAP1 DUP1 LOG4 PUSH1 0x1 SWAP1 JUMP JUMPDEST PUSH1 0x0 DUP2 DUP2 MSTORE PUSH1 0x20 DUP2 DUP2 MSTORE PUSH1 0x40 DUP1 DUP4 KECCAK256 PUSH1 0x1 PUSH1 0x1 PUSH1 0xA0 SHL SUB DUP7 AND DUP5 MSTORE SWAP1 SWAP2 MSTORE SWAP1 KECCAK256 SLOAD PUSH1 0xFF AND PUSH2 0x2833 JUMPI PUSH1 0x0 DUP2 DUP2 MSTORE PUSH1 0x20 DUP2 DUP2 MSTORE PUSH1 0x40 DUP1 DUP4 KECCAK256 PUSH1 0x1 PUSH1 0x1 PUSH1 0xA0 SHL SUB SWAP6 SWAP1 SWAP6 AND DUP1 DUP5 MSTORE SWAP5 SWAP1 SWAP2 MSTORE DUP2 KECCAK256 DUP1 SLOAD PUSH1 0xFF NOT AND PUSH1 0x1 OR SWAP1 SSTORE CALLER SWAP3 SWAP2 SWAP1 PUSH32 0x2F8788117E7EFF1D82E926EC794901D17C78024A50270940304540A733656F0D SWAP1 DUP1 LOG4 PUSH1 0x1 SWAP1 JUMP JUMPDEST PUSH1 0xFF PUSH1 0x2 SLOAD AND PUSH2 0x2974 JUMPI JUMP JUMPDEST PUSH4 0xD93C0665 PUSH1 0xE0 SHL PUSH1 0x0 MSTORE PUSH1 0x4 PUSH1 0x0 REVERT INVALID SLT BLOBBASEFEE SGT 0xB1 PUSH9 0x67194FC8FE1B97BE0D PUSH7 0x8B89AC2A8DD77D COINBASE DUP13 DELEGATECALL INVALID 0xEF 0xA8 SWAP9 PUSH5 0xA626A26469 PUSH17 0x6673582212200BCC317857F0844B1A0013 PUSH25 0xE0909E2BD6577F38720D5327CD472D40CB12CC7364736F6C63 NUMBER STOP ADDMOD SHR STOP CALLER 0x2F DUP8 DUP9 GT PUSH31 0x7EFF1D82E926EC794901D17C78024A50270940304540A733656F0D7D7FFB7A CALLVALUE DUP15 SHR PUSH11 0x2869081A26547B49160DD RETURNDATASIZE 0xF7 0x2D SAR PUSH22 0xA570EB9B698292ECAD3228B676F7D3CD4284A5443F17 CALL SWAP7 0x2B CALLDATASIZE 0xE4 SWAP2 0xB3 EXP BLOCKHASH 0xB2 BLOCKHASH PC BLOBHASH 0xE5 SWAP8 0xBA PUSH0 0xB5 "},"methodIdentifiers":{"ADMIN_ROLE()":"75b238fc","ARBITRATOR_FEE_BPS()":"632e8176","ARBITRATOR_ROLE()":"9cea0787","BASIS_POINTS()":"e1f1c4a7","DEFAULT_ADMIN_ROLE()":"a217fddf","MIN_DISPUTE_AMOUNT()":"4dc6c9a6","arbitratorAddressToId(address)":"03a4c7a2","arbitratorDisputes(uint256,uint256)":"81e25fa9","arbitratorRatings(uint256,address)":"2b364d08","arbitrators(uint256)":"a6430cc0","assignArbitrator(uint256,uint256)":"891cc99c","calculateArbitratorFee(uint256,uint256)":"e4c2bd18","createDispute(uint256,string,string)":"7100dc62","disputeCountByArbitrator(uint256)":"40936c5c","disputes(uint256)":"564a565d","getActiveArbitrators()":"c2cba05a","getArbitrator(uint256)":"3ffc0006","getArbitratorDisputes(uint256)":"e45d0104","getDispute(uint256)":"e3a96cbd","getRoleAdmin(bytes32)":"248a9ca3","getUserDisputes(address)":"bfb0a55b","grantRole(bytes32,address)":"2f2ff15d","hasRole(bytes32,address)":"91d14854","pause()":"8456cb59","paused()":"5c975abb","rateArbitrator(uint256,uint256,string)":"b0197ee4","registerArbitrator(string,string,uint256)":"299389dc","removeArbitrator(uint256)":"1f4cf031","renounceRole(bytes32,address)":"36568abe","resolveDispute(uint256,bool,string)":"2840662d","revokeRole(bytes32,address)":"d547741f","startDisputeReview(uint256)":"b2a6ff95","supportsInterface(bytes4)":"01ffc9a7","unpause()":"3f4ba83a","userDisputes(address,uint256)":"3dc04159"}}}}}