{"contracts/SmartRent.sol":{"SmartRent":{"abi":[{"inputs":[],"stateMutability":"nonpayable","type":"constructor"},{"inputs":[],"name":"AccessControlBadConfirmation","type":"error"},{"inputs":[{"internalType":"address","name":"account","type":"address"},{"internalType":"bytes32","name":"neededRole","type":"bytes32"}],"name":"AccessControlUnauthorizedAccount","type":"error"},{"inputs":[],"name":"EnforcedPause","type":"error"},{"inputs":[],"name":"ExpectedPause","type":"error"},{"inputs":[],"name":"ReentrancyGuardReentrantCall","type":"error"},{"anonymous":false,"inputs":[{"indexed":true,"internalType":"uint256","name":"listingId","type":"uint256"},{"indexed":true,"internalType":"address","name":"landlord","type":"address"},{"indexed":false,"internalType":"string","name":"title","type":"string"},{"indexed":false,"internalType":"uint256","name":"pricePerDay","type":"uint256"},{"indexed":false,"internalType":"uint256","name":"deposit","type":"uint256"},{"indexed":false,"internalType":"string","name":"ipfsHash","type":"string"}],"name":"ListingCreated","type":"event"},{"anonymous":false,"inputs":[{"indexed":false,"internalType":"address","name":"account","type":"address"}],"name":"Paused","type":"event"},{"anonymous":false,"inputs":[{"indexed":false,"internalType":"address","name":"listingRegistry","type":"address"},{"indexed":false,"internalType":"address","name":"rentalEscrow","type":"address"},{"indexed":false,"internalType":"address","name":"arbitration","type":"address"},{"indexed":false,"internalType":"address","name":"subscriptionManager","type":"address"},{"indexed":false,"internalType":"address","name":"reputation","type":"address"}],"name":"PlatformInitialized","type":"event"},{"anonymous":false,"inputs":[{"indexed":true,"internalType":"bytes32","name":"role","type":"bytes32"},{"indexed":true,"internalType":"bytes32","name":"previousAdminRole","type":"bytes32"},{"indexed":true,"internalType":"bytes32","name":"newAdminRole","type":"bytes32"}],"name":"RoleAdminChanged","type":"event"},{"anonymous":false,"inputs":[{"indexed":true,"internalType":"bytes32","name":"role","type":"bytes32"},{"indexed":true,"internalType":"address","name":"account","type":"address"},{"indexed":true,"internalType":"address","name":"sender","type":"address"}],"name":"RoleGranted","type":"event"},{"anonymous":false,"inputs":[{"indexed":true,"internalType":"bytes32","name":"role","type":"bytes32"},{"indexed":true,"internalType":"address","name":"account","type":"address"},{"indexed":true,"internalType":"address","name":"sender","type":"address"}],"name":"RoleRevoked","type":"event"},{"anonymous":false,"inputs":[{"indexed":false,"internalType":"uint256","name":"totalListings","type":"uint256"},{"indexed":false,"internalType":"uint256","name":"totalRentals","type":"uint256"},{"indexed":false,"internalType":"uint256","name":"totalDisputes","type":"uint256"},{"indexed":false,"internalType":"uint256","name":"totalVolume","type":"uint256"}],"name":"StatisticsUpdated","type":"event"},{"anonymous":false,"inputs":[{"indexed":false,"internalType":"address","name":"account","type":"address"}],"name":"Unpaused","type":"event"},{"inputs":[],"name":"ADMIN_ROLE","outputs":[{"internalType":"bytes32","name":"","type":"bytes32"}],"stateMutability":"view","type":"function"},{"inputs":[],"name":"ARBITRATOR_ROLE","outputs":[{"internalType":"bytes32","name":"","type":"bytes32"}],"stateMutability":"view","type":"function"},{"inputs":[],"name":"DEFAULT_ADMIN_ROLE","outputs":[{"internalType":"bytes32","name":"","type":"bytes32"}],"stateMutability":"view","type":"function"},{"inputs":[{"internalType":"uint256","name":"rentalId","type":"uint256"}],"name":"agreeReturn","outputs":[],"stateMutability":"nonpayable","type":"function"},{"inputs":[],"name":"arbitration","outputs":[{"internalType":"contract Arbitration","name":"","type":"address"}],"stateMutability":"view","type":"function"},{"inputs":[{"internalType":"string","name":"title","type":"string"},{"internalType":"string","name":"description","type":"string"},{"internalType":"uint256","name":"pricePerDay","type":"uint256"},{"internalType":"uint256","name":"deposit","type":"uint256"},{"internalType":"string","name":"ipfsHash","type":"string"}],"name":"createListing","outputs":[],"stateMutability":"nonpayable","type":"function"},{"inputs":[{"internalType":"uint256","name":"listingId","type":"uint256"},{"internalType":"address","name":"landlord","type":"address"},{"internalType":"uint256","name":"deposit","type":"uint256"},{"internalType":"uint256","name":"totalRent","type":"uint256"},{"internalType":"uint256","name":"startDate","type":"uint256"},{"internalType":"uint256","name":"endDate","type":"uint256"}],"name":"createRental","outputs":[],"stateMutability":"nonpayable","type":"function"},{"inputs":[{"internalType":"address","name":"reviewee","type":"address"},{"internalType":"uint256","name":"rating","type":"uint256"},{"internalType":"string","name":"reviewText","type":"string"},{"internalType":"string","name":"ipfsHash","type":"string"},{"internalType":"uint256","name":"rentalId","type":"uint256"},{"internalType":"enum Reputation.ReviewType","name":"reviewType","type":"uint8"}],"name":"createReview","outputs":[],"stateMutability":"nonpayable","type":"function"},{"inputs":[{"internalType":"enum SubscriptionManager.SubscriptionPlan","name":"plan","type":"uint8"},{"internalType":"uint256","name":"duration","type":"uint256"},{"internalType":"bool","name":"autoRenew","type":"bool"}],"name":"createSubscription","outputs":[],"stateMutability":"payable","type":"function"},{"inputs":[],"name":"getContractBalance","outputs":[{"internalType":"uint256","name":"","type":"uint256"}],"stateMutability":"view","type":"function"},{"inputs":[{"internalType":"uint256","name":"listingId","type":"uint256"}],"name":"getListing","outputs":[{"components":[{"internalType":"uint256","name":"listingId","type":"uint256"},{"internalType":"address","name":"landlord","type":"address"},{"internalType":"string","name":"title","type":"string"},{"internalType":"string","name":"description","type":"string"},{"internalType":"uint256","name":"pricePerDay","type":"uint256"},{"internalType":"uint256","name":"deposit","type":"uint256"},{"internalType":"bool","name":"isActive","type":"bool"},{"internalType":"string","name":"ipfsHash","type":"string"},{"internalType":"uint256","name":"createdAt","type":"uint256"},{"internalType":"uint256","name":"updatedAt","type":"uint256"}],"internalType":"struct ListingRegistry.PropertyListing","name":"","type":"tuple"}],"stateMutability":"view","type":"function"},{"inputs":[],"name":"getPlatformStatistics","outputs":[{"internalType":"uint256","name":"","type":"uint256"},{"internalType":"uint256","name":"","type":"uint256"},{"internalType":"uint256","name":"","type":"uint256"},{"internalType":"uint256","name":"","type":"uint256"}],"stateMutability":"view","type":"function"},{"inputs":[{"internalType":"uint256","name":"rentalId","type":"uint256"}],"name":"getRental","outputs":[{"components":[{"internalType":"uint256","name":"rentalId","type":"uint256"},{"internalType":"uint256","name":"listingId","type":"uint256"},{"internalType":"address","name":"tenant","type":"address"},{"internalType":"address","name":"landlord","type":"address"},{"internalType":"uint256","name":"deposit","type":"uint256"},{"internalType":"uint256","name":"totalRent","type":"uint256"},{"internalType":"uint256","name":"startDate","type":"uint256"},{"internalType":"uint256","name":"endDate","type":"uint256"},{"internalType":"enum RentalEscrow.RentalStatus","name":"status","type":"uint8"},{"internalType":"uint256","name":"createdAt","type":"uint256"},{"internalType":"uint256","name":"updatedAt","type":"uint256"},{"internalType":"string","name":"contractIpfsHash","type":"string"},{"internalType":"bool","name":"tenantSigned","type":"bool"},{"internalType":"bool","name":"landlordSigned","type":"bool"},{"internalType":"address","name":"arbitrator","type":"address"},{"internalType":"uint256","name":"disputeOpenedAt","type":"uint256"},{"internalType":"string","name":"disputeReason","type":"string"},{"internalType":"string","name":"disputeIpfsHash","type":"string"}],"internalType":"struct RentalEscrow.Rental","name":"","type":"tuple"}],"stateMutability":"view","type":"function"},{"inputs":[{"internalType":"bytes32","name":"role","type":"bytes32"}],"name":"getRoleAdmin","outputs":[{"internalType":"bytes32","name":"","type":"bytes32"}],"stateMutability":"view","type":"function"},{"inputs":[{"internalType":"address","name":"user","type":"address"}],"name":"getUserListingHistory","outputs":[{"internalType":"uint256[]","name":"","type":"uint256[]"}],"stateMutability":"view","type":"function"},{"inputs":[{"internalType":"address","name":"user","type":"address"}],"name":"getUserRentalHistory","outputs":[{"internalType":"uint256[]","name":"","type":"uint256[]"}],"stateMutability":"view","type":"function"},{"inputs":[{"internalType":"address","name":"user","type":"address"}],"name":"getUserReputation","outputs":[{"components":[{"internalType":"address","name":"user","type":"address"},{"internalType":"uint256","name":"totalReviews","type":"uint256"},{"internalType":"uint256","name":"totalRatingSum","type":"uint256"},{"internalType":"uint256","name":"reputationScore","type":"uint256"},{"internalType":"uint256","name":"completedRentals","type":"uint256"},{"internalType":"uint256","name":"cancelledRentals","type":"uint256"},{"internalType":"uint256","name":"disputeCount","type":"uint256"},{"internalType":"bool","name":"isVerified","type":"bool"},{"internalType":"uint256","name":"lastUpdated","type":"uint256"}],"internalType":"struct Reputation.UserReputation","name":"","type":"tuple"}],"stateMutability":"view","type":"function"},{"inputs":[{"internalType":"bytes32","name":"role","type":"bytes32"},{"internalType":"address","name":"account","type":"address"}],"name":"grantRole","outputs":[],"stateMutability":"nonpayable","type":"function"},{"inputs":[{"internalType":"address","name":"user","type":"address"},{"internalType":"uint256","name":"feature","type":"uint256"}],"name":"hasPremiumFeature","outputs":[{"internalType":"bool","name":"","type":"bool"}],"stateMutability":"view","type":"function"},{"inputs":[{"internalType":"bytes32","name":"role","type":"bytes32"},{"internalType":"address","name":"account","type":"address"}],"name":"hasRole","outputs":[{"internalType":"bool","name":"","type":"bool"}],"stateMutability":"view","type":"function"},{"inputs":[{"internalType":"address","name":"_listingRegistry","type":"address"},{"internalType":"address payable","name":"_rentalEscrow","type":"address"},{"internalType":"address","name":"_arbitration","type":"address"},{"internalType":"address payable","name":"_subscriptionManager","type":"address"},{"internalType":"address","name":"_reputation","type":"address"}],"name":"initializePlatform","outputs":[],"stateMutability":"nonpayable","type":"function"},{"inputs":[],"name":"listingRegistry","outputs":[{"internalType":"contract ListingRegistry","name":"","type":"address"}],"stateMutability":"view","type":"function"},{"inputs":[{"internalType":"uint256","name":"rentalId","type":"uint256"}],"name":"makeDeposit","outputs":[],"stateMutability":"payable","type":"function"},{"inputs":[{"internalType":"uint256","name":"rentalId","type":"uint256"},{"internalType":"address","name":"token","type":"address"}],"name":"makeDepositWithToken","outputs":[],"stateMutability":"nonpayable","type":"function"},{"inputs":[{"internalType":"uint256","name":"rentalId","type":"uint256"},{"internalType":"string","name":"reason","type":"string"},{"internalType":"string","name":"disputeIpfsHash","type":"string"}],"name":"openDispute","outputs":[],"stateMutability":"nonpayable","type":"function"},{"inputs":[],"name":"pausePlatform","outputs":[],"stateMutability":"nonpayable","type":"function"},{"inputs":[],"name":"paused","outputs":[{"internalType":"bool","name":"","type":"bool"}],"stateMutability":"view","type":"function"},{"inputs":[{"internalType":"bytes32","name":"role","type":"bytes32"},{"internalType":"address","name":"callerConfirmation","type":"address"}],"name":"renounceRole","outputs":[],"stateMutability":"nonpayable","type":"function"},{"inputs":[],"name":"rentalEscrow","outputs":[{"internalType":"contract RentalEscrow","name":"","type":"address"}],"stateMutability":"view","type":"function"},{"inputs":[],"name":"reputation","outputs":[{"internalType":"contract Reputation","name":"","type":"address"}],"stateMutability":"view","type":"function"},{"inputs":[{"internalType":"bytes32","name":"role","type":"bytes32"},{"internalType":"address","name":"account","type":"address"}],"name":"revokeRole","outputs":[],"stateMutability":"nonpayable","type":"function"},{"inputs":[{"internalType":"uint256","name":"rentalId","type":"uint256"},{"internalType":"string","name":"contractIpfsHash","type":"string"}],"name":"signContract","outputs":[],"stateMutability":"nonpayable","type":"function"},{"inputs":[],"name":"subscriptionManager","outputs":[{"internalType":"contract SubscriptionManager","name":"","type":"address"}],"stateMutability":"view","type":"function"},{"inputs":[{"internalType":"bytes4","name":"interfaceId","type":"bytes4"}],"name":"supportsInterface","outputs":[{"internalType":"bool","name":"","type":"bool"}],"stateMutability":"view","type":"function"},{"inputs":[],"name":"totalDisputes","outputs":[{"internalType":"uint256","name":"","type":"uint256"}],"stateMutability":"view","type":"function"},{"inputs":[],"name":"totalListings","outputs":[{"internalType":"uint256","name":"","type":"uint256"}],"stateMutability":"view","type":"function"},{"inputs":[],"name":"totalRentals","outputs":[{"internalType":"uint256","name":"","type":"uint256"}],"stateMutability":"view","type":"function"},{"inputs":[],"name":"totalVolume","outputs":[{"internalType":"uint256","name":"","type":"uint256"}],"stateMutability":"view","type":"function"},{"inputs":[],"name":"unpausePlatform","outputs":[],"stateMutability":"nonpayable","type":"function"},{"inputs":[{"internalType":"uint256","name":"amount","type":"uint256"}],"name":"withdrawFees","outputs":[],"stateMutability":"nonpayable","type":"function"},{"stateMutability":"payable","type":"receive"}],"evm":{"bytecode":{"linkReferences":{},"object":"608060405234610030576001805561001633610035565b50610020336100b1565b506040516121b4908161014a8239f35b600080fd5b6001600160a01b038116600090815260008051602061233e833981519152602052604090205460ff166100ab576001600160a01b0316600081815260008051602061233e83398151915260205260408120805460ff191660011790553391906000805160206122fe8339815191528180a4600190565b50600090565b6001600160a01b038116600090815260008051602061231e833981519152602052604090205460ff166100ab576001600160a01b0316600081815260008051602061231e83398151915260205260408120805460ff191660011790553391907fa49807205ce4d355092ef5a8a18f56e8913cf4a201fbe287825b095693c21775906000805160206122fe8339815191529080a460019056fe608080604052600436101561001d575b50361561001b57600080fd5b005b600090813560e01c90816301ffc9a714611c2057508063059a500c14611bbb5780630a396a4a14611b3e5780630fc376a714611ad8578063107a274a1461187a5780631a9ba7eb146116f7578063248a9ca3146116c157806324df1f701461166d5780632f2ff15d1461162c57806336568abe146115e757806349041359146113335780635603e860146112f95780635c975abb146112d65780635e318e07146112555780635ebf3e9b146112285780635f81a57c1461120a578063652bd29e14610e7d5780636b78c29b14610d075780636f9fb98a14610ceb57806375b238fc14610cb05780637d04470a14610bb457806391d1485414610b695780639492e30214610ad55780639b73235014610aac5780639cea078714610a71578063a217fddf14610a55578063a4e18cd714610920578063ad36d6661461086b578063baccbfdb146106c3578063bd55cc3a146105e8578063bf158fd2146105bf578063c52164c614610596578063c5e4ccc414610578578063c78b616c1461055a578063cc2ee0fc14610393578063d547741f14610349578063dd4b22d11461032b578063e970a12014610302578063fc78aef11461028b5763fea14f5e0361000f573461027857604036600319011261027857806024356001600160401b0381116102885761020f903690600401611dce565b6003546001600160a01b0316803b15610286576102568392918392604051948580948193637f50a7af60e11b83526004356004840152604060248401526044830190611d03565b03925af1801561027b576102675750f35b8161027191611d92565b6102785780f35b80fd5b6040513d84823e3d90fd5b505b50fd5b503461027857604036600319011261027857806102a6611c90565b6102ae611f5b565b6003546001600160a01b031690813b156102865760405163fc78aef160e01b815260048035908201526001600160a01b0390911660248201529082908290604490829084905af1801561027b576102675750f35b50346102785780600319360112610278576003546040516001600160a01b039091168152602090f35b50346102785780600319360112610278576020600854604051908152f35b50346102785760403660031901126102785761038f600435610369611c90565b9061038a61038582600052600060205260016040600020015490565b611fea565b6120b0565b5080f35b50346102785760a0366003190112610278576004356001600160401b038111610556576103c4903690600401611dce565b6024356001600160401b038111610552576103e3903690600401611dce565b9060643590604435846084356001600160401b0381116105565761040b903690600401611dce565b94610414611f5b565b60025460081c6001600160a01b0316803b156105525761047483916104929383604051809681958294633158e5f360e01b845233600485015260c060248501526104628d60c4860190611d03565b84810360031901604486015290611d03565b8a60648401528c60848401526003198382030160a48401528d611d03565b03925af1801561027b57610539575b50506104ae600754611f29565b92836007556104bb612132565b6000198401938411610525579161051f610505927f4bac60dc51a3e92083b5ca70985d572a37b735058b5e86413c4f01c48b3339c594604051948594608086526080860190611d03565b916020850152604084015282810360608401523396611d03565b0390a380f35b634e487b7160e01b86526011600452602486fd5b8161054391611d92565b61054e5784386104a1565b8480fd5b8280fd5b5080fd5b50346102785780600319360112610278576020600754604051908152f35b50346102785780600319360112610278576020600954604051908152f35b50346102785780600319360112610278576006546040516001600160a01b039091168152602090f35b50346102785780600319360112610278576005546040516001600160a01b039091168152602090f35b50346102785760c036600319011261027857610602611c90565b6044358260643592610612611f5b565b6003546001600160a01b031690813b1561055257829160c483926040519485938492635eaae61d60e11b8452600435600485015260018060a01b03166024840152886044840152896064840152608435608484015260a43560a48401525af1801561027b576106ae575b506106a06106988484610690600854611f29565b600855611f4e565b600a54611f4e565b600a556106ab612132565b80f35b816106b891611d92565b61055257823861067c565b5034610278576020366003190112610278576106dd611c75565b816101006040516106ed81611d76565b8281528260208201528260408201528260608201528260808201528260a08201528260c08201528260e0820152015261012060018060a01b03600654169160246040518094819363baccbfdb60e01b835260018060a01b031660048301525afa90811561027b5782916107c4575b610120826101006040519160018060a01b0381511683526020810151602084015260408101516040840152606081015160608401526080810151608084015260a081015160a084015260c081015160c084015260e0810151151560e08401520151610100820152f35b9050610120813d8211610863575b816107e06101209383611d92565b81010312610556576101209150610100604051916107fd83611d76565b61080681611e98565b83526020810151602084015260408101516040840152606081015160608401526080810151608084015260a081015160a084015260c081015160c084015261085060e08201611ef1565b60e084015201516101008201523861075b565b3d91506107d2565b503461027857604036600319011261027857610885611c75565b600554604051638043834960e01b81526001600160a01b0392831660048201526024803590820152929160209184916044918391165afa9081156109145780916108d7575b6020826040519015158152f35b90506020823d60201161090c575b816108f260209383611d92565b810103126102785750610906602091611ef1565b386108ca565b3d91506108e5565b604051903d90823e3d90fd5b503461027857606036600319011261027857806004356024356001600160401b03811161028657610955903690600401611dce565b906044356001600160401b038111610a4557610975903690600401611dce565b6003546001600160a01b0316803b1561054e5784604051809263a4e18cd760e01b82528183816109aa888b8b60048501611efe565b03925af1908115610a4a578591610a30575b50506004546001600160a01b0316803b1561054e576109f593858094604051968795869485936338806e3160e11b855260048501611efe565b03925af1801561027b57610a1b575b50610a10600954611f29565b6009556106ab612132565b81610a2591611d92565b610278578038610a04565b81610a3a91611d92565b610a455783386109bc565b505050fd5b6040513d87823e3d90fd5b5034610278578060031936011261027857602090604051908152f35b503461027857806003193601126102785760206040517f16ceee8289685dd2a02b9c8ae81d2df373176ce53519e6284e2a2950d6546ffa8152f35b50346102785780600319360112610278576004546040516001600160a01b039091168152602090f35b503461027857602036600319011261027857610aef611c75565b600254604051636185fa0f60e01b81526001600160a01b0392831660048201529183918391602491839160089190911c165afa90811561027b5782610b429392610b46575b505060405191829182611ca6565b0390f35b610b6292503d8091833e610b5a8183611d92565b810190611e15565b3880610b34565b5034610278576040366003190112610278576040610b85611c90565b91600435815280602052209060018060a01b0316600052602052602060ff604060002054166040519015158152f35b50346102785760c03660031901126102785780610bcf611c75565b6044356001600160401b03811161028657610bee903690600401611dce565b6064356001600160401b038111610a4557610c0d903690600401611dce565b9160a43591600283101561054e57610c23611f5b565b6006546001600160a01b031690813b15610cac5785610c7b938195610c8d60405198899788968795633e82238560e11b875260018060a01b03166004870152602435602487015260c0604487015260c4860190611d03565b84810360031901606486015290611d03565b90608435608484015260a483015203925af1801561027b576102675750f35b8580fd5b503461027857806003193601126102785760206040517fa49807205ce4d355092ef5a8a18f56e8913cf4a201fbe287825b095693c217758152f35b5034610278578060031936011261027857602047604051908152f35b5034610278578060031936011261027857610d20611f78565b610d28611f5b565b600160ff1960025416176002557f62e78cea01bee320cd4e420270b5ea74000d11b0c9f74754ebdbfc544b05a2586020604051338152a160035481906001600160a01b0316803b1561028857818091600460405180948193638456cb5960e01b83525af1801561027b57610e68575b506004546001600160a01b0316803b1561028857818091600460405180948193638456cb5960e01b83525af1801561027b57610e53575b506005546001600160a01b0316803b1561028857818091600460405180948193638456cb5960e01b83525af1801561027b57610e3e575b506006546001600160a01b0316803b1561028857818091600460405180948193638456cb5960e01b83525af1801561027b576102675750f35b81610e4891611d92565b610278578038610e05565b81610e5d91611d92565b610278578038610dce565b81610e7291611d92565b610278578038610d97565b5034610278576020366003190112610278576060610220604051610ea081611d5a565b83815283602082015283604082015283838201528360808201528360a08201528360c08201528360e08201528361010082015283610120820152836101408201528261016082015283610180820152836101a0820152836101c0820152836101e082015282610200820152015260248160018060a01b036003541660405192838092633295e94f60e11b825260043560048301525afa90811561027b57829161107e575b506040519160208352815160208401526020820151604084015260018060a01b03604083015116606084015260018060a01b036060830151166080840152608082015160a084015260a082015160c084015260c082015160e084015260e082015161010084015261010082015190600582101561106a57508291610b4291610120840152610120810151610140840152610140810151610160840152610220611055611003610160840151610240610180880152610260870190611d03565b61018084015115156101a08701526101a084015115156101c087015260018060a01b036101c0850151166101e08701526101e0840151610200870152610200840151601f198783030184880152611d03565b910151838203601f1901610240850152611d03565b634e487b7160e01b81526021600452602490fd5b90503d8083833e61108f8183611d92565b810190602081830312610552578051906001600160401b03821161120657016102408183031261055257604051916110c683611d5a565b81518352602082015160208401526110e060408301611e98565b60408401526110f160608301611e98565b60608401526080820151608084015260a082015160a084015260c082015160c084015260e082015160e0840152610100820151600581101561054e576101008401526101208201516101208401526101408201516101408401526101608201516001600160401b03811161054e578161116b918401611eac565b61016084015261117e6101808301611ef1565b6101808401526111916101a08301611ef1565b6101a08401526111a46101c08301611e98565b6101c08401526101e08201516101e08401526102008201516001600160401b03811161054e57816111d6918401611eac565b6102008401526102208201516001600160401b03811161054e576111fa9201611eac565b61022082015238610f44565b8380fd5b50346102785780600319360112610278576020600a54604051908152f35b503461027857806003193601126102785760025460405160089190911c6001600160a01b03168152602090f35b503461027857602036600319011261027857600435611272611f78565b47811161129a578180808093818115611291575b3390f1156109145780f35b506108fc611286565b60405162461bcd60e51b8152602060048201526014602482015273496e73756666696369656e742062616c616e636560601b6044820152606490fd5b5034610278578060031936011261027857602060ff600254166040519015158152f35b5034610278578060031936011261027857600754600854600954600a54604080519485526020850193909352918301526060820152608090f35b50346102785760a03660031901126102785761134d611c75565b611355611c90565b6044356001600160a01b038116929190839003611206576064356001600160a01b0381169081900361054e576084356001600160a01b0381169190829003610cac5761139f611f78565b6001600160a01b0384169283156115a3576001600160a01b031694851561155e5780156115195781156114c8578215611483577f9328b8a339026c96335157e9360553f8b14d24d378543f549abc3f21e9b92c379560a09560025490610100600160a81b039060081b1690610100600160a81b03191617600255806001600160601b03871b6003541617600355816001600160601b03871b6004541617600455826001600160601b03871b6005541617600555836001600160601b03871b60065416176006556040519485526020850152604084015260608301526080820152a180f35b60405162461bcd60e51b815260206004820152601a60248201527f496e76616c69642072657075746174696f6e20616464726573730000000000006044820152606490fd5b60405162461bcd60e51b8152602060048201526024808201527f496e76616c696420737562736372697074696f6e206d616e61676572206164646044820152637265737360e01b6064820152608490fd5b60405162461bcd60e51b815260206004820152601b60248201527f496e76616c6964206172626974726174696f6e206164647265737300000000006044820152606490fd5b60405162461bcd60e51b815260206004820152601d60248201527f496e76616c69642072656e74616c20657363726f7720616464726573730000006044820152606490fd5b606460405162461bcd60e51b815260206004820152602060248201527f496e76616c6964206c697374696e6720726567697374727920616464726573736044820152fd5b503461027857604036600319011261027857611601611c90565b336001600160a01b0382160361161d5761038f906004356120b0565b63334bd91960e11b8252600482fd5b50346102785760403660031901126102785761038f60043561164c611c90565b9061166861038582600052600060205260016040600020015490565b612025565b50346102785760203660031901126102785760035481906001600160a01b0316803b156102885781809160246040518094819363024df1f760e41b835260043560048401525af1801561027b576102675750f35b50346102785760203660031901126102785760206116ef600435600052600060205260016040600020015490565b604051908152f35b5034610278578060031936011261027857611710611f78565b60025460ff81161561186b5760ff19166002557f5db9ee0a495bf2e6ff9c91a7834c1ba4fdd244a5e8aa4e537bd38aeae4b073aa6020604051338152a160035481906001600160a01b0316803b1561028857818091600460405180948193631fa5d41d60e11b83525af1801561027b57611856575b506004546001600160a01b0316803b1561028857818091600460405180948193631fa5d41d60e11b83525af1801561027b57611841575b506005546001600160a01b0316803b1561028857818091600460405180948193631fa5d41d60e11b83525af1801561027b5761182c575b506006546001600160a01b0316803b1561028857818091600460405180948193631fa5d41d60e11b83525af1801561027b576102675750f35b8161183691611d92565b6102785780386117f3565b8161184b91611d92565b6102785780386117bc565b8161186091611d92565b610278578038611785565b638dfc202b60e01b8252600482fd5b5034610278576020366003190112610278578060249161012060405161189f81611d28565b828152826020820152606060408201526060808201528260808201528260a08201528260c0820152606060e08201528261010082015201528060018060a01b0360025460081c166040519384809263083d13a560e11b825260043560048301525afa918215611acb5781926119ba575b826040518091602082528051602083015260018060a01b0360208201511660408301526101206119a361196c61195660408501516101406060880152610160870190611d03565b6060850151868203601f19016080880152611d03565b608084015160a086015260a084015160c086015260c0840151151560e086015260e0840151601f1986830301610100870152611d03565b916101008101518285015201516101408301520390f35b9091503d8083833e6119cc8183611d92565b810190602081830312610552578051906001600160401b038211611206570190610140828203126105525760405192611a0484611d28565b82518452611a1460208401611e98565b602085015260408301516001600160401b0381116105565782611a38918501611eac565b604085015260608301516001600160401b0381116105565782611a5c918501611eac565b60608501526080830151608085015260a083015160a0850152611a8160c08401611ef1565b60c085015260e0830151906001600160401b03821161027857508291611aab916101209401611eac565b60e08401526101008101516101008401520151610120820152388061190f565b50604051903d90823e3d90fd5b503461027857602036600319011261027857611af2611c75565b60035460405163db8011ef60e01b81526001600160a01b03928316600482015291839183916024918391165afa90811561027b5782610b429392610b4657505060405191829182611ca6565b50606036600319011261027857806004356003811015610288576044359081151580920361028657611b6e611f5b565b6005546001600160a01b031691823b15610a455760648492604051948593849263051cb52560e11b845260048401526024356024840152604483015234905af1801561027b576102675750f35b50602036600319011261027857611bd0611f5b565b6003546001600160a01b031681813b15610278578060249260405193848092630166940360e21b8252600435600483015234905af18015611acb57611c125780f35b611c1b91611d92565b388180f35b9050346105565760203660031901126105565760043563ffffffff60e01b81168091036105525760209250637965db0b60e01b8114908115611c64575b5015158152f35b6301ffc9a760e01b14905038611c5d565b600435906001600160a01b0382168203611c8b57565b600080fd5b602435906001600160a01b0382168203611c8b57565b602060408183019282815284518094520192019060005b818110611cca5750505090565b8251845260209384019390920191600101611cbd565b60005b838110611cf35750506000910152565b8181015183820152602001611ce3565b90602091611d1c81518092818552858086019101611ce0565b601f01601f1916010190565b61014081019081106001600160401b03821117611d4457604052565b634e487b7160e01b600052604160045260246000fd5b61024081019081106001600160401b03821117611d4457604052565b61012081019081106001600160401b03821117611d4457604052565b90601f801991011681019081106001600160401b03821117611d4457604052565b6001600160401b038111611d4457601f01601f191660200190565b81601f82011215611c8b57803590611de582611db3565b92611df36040519485611d92565b82845260208383010111611c8b57816000926020809301838601378301015290565b602081830312611c8b578051906001600160401b038211611c8b57019080601f83011215611c8b578151916001600160401b038311611d44578260051b9060405193611e646020840186611d92565b8452602080850192820101928311611c8b57602001905b828210611e885750505090565b8151815260209182019101611e7b565b51906001600160a01b0382168203611c8b57565b81601f82011215611c8b578051611ec281611db3565b92611ed06040519485611d92565b81845260208284010111611c8b57611eee9160208085019101611ce0565b90565b51908115158203611c8b57565b91611f1b90611eee94928452606060208501526060840190611d03565b916040818403910152611d03565b6000198114611f385760010190565b634e487b7160e01b600052601160045260246000fd5b91908201809211611f3857565b60ff60025416611f6757565b63d93c066560e01b60005260046000fd5b3360009081527f7d7ffb7a348e1c6a02869081a26547b49160dd3df72d1d75a570eb9b698292ec602052604090205460ff1615611fb157565b63e2517d3f60e01b600052336004527fa49807205ce4d355092ef5a8a18f56e8913cf4a201fbe287825b095693c2177560245260446000fd5b60008181526020818152604080832033845290915290205460ff161561200d5750565b63e2517d3f60e01b6000523360045260245260446000fd5b6000818152602081815260408083206001600160a01b038616845290915290205460ff166120a9576000818152602081815260408083206001600160a01b0395909516808452949091528120805460ff19166001179055339291907f2f8788117e7eff1d82e926ec794901d17c78024a50270940304540a733656f0d9080a4600190565b5050600090565b6000818152602081815260408083206001600160a01b038616845290915290205460ff16156120a9576000818152602081815260408083206001600160a01b0395909516808452949091528120805460ff19169055339291907ff6391f5c32d9c69d2a47ea670b442974b53935d1edc7fd64eb21e047a839171b9080a4600190565b600754600854600954600a546040805194855260208501939093529183015260608201527fb071b37babbcc9e46c3c9012509aede8ac4050fbebf8bc121816082742802cd990608090a156fea2646970667358221220d5a58e761adf798fbe22817ac3a01b749e5a80eb0cebd9668a7e55f39942a80a64736f6c634300081c00332f8788117e7eff1d82e926ec794901d17c78024a50270940304540a733656f0d7d7ffb7a348e1c6a02869081a26547b49160dd3df72d1d75a570eb9b698292ecad3228b676f7d3cd4284a5443f17f1962b36e491b30a40b2405849e597ba5fb5","opcodes":"PUSH1 0x80 PUSH1 0x40 MSTORE CALLVALUE PUSH2 0x30 JUMPI PUSH1 0x1 DUP1 SSTORE PUSH2 0x16 CALLER PUSH2 0x35 JUMP JUMPDEST POP PUSH2 0x20 CALLER PUSH2 0xB1 JUMP JUMPDEST POP PUSH1 0x40 MLOAD PUSH2 0x21B4 SWAP1 DUP2 PUSH2 0x14A DUP3 CODECOPY RETURN JUMPDEST PUSH1 0x0 DUP1 REVERT JUMPDEST PUSH1 0x1 PUSH1 0x1 PUSH1 0xA0 SHL SUB DUP2 AND PUSH1 0x0 SWAP1 DUP2 MSTORE PUSH1 0x0 DUP1 MLOAD PUSH1 0x20 PUSH2 0x233E DUP4 CODECOPY DUP2 MLOAD SWAP2 MSTORE PUSH1 0x20 MSTORE PUSH1 0x40 SWAP1 KECCAK256 SLOAD PUSH1 0xFF AND PUSH2 0xAB JUMPI PUSH1 0x1 PUSH1 0x1 PUSH1 0xA0 SHL SUB AND PUSH1 0x0 DUP2 DUP2 MSTORE PUSH1 0x0 DUP1 MLOAD PUSH1 0x20 PUSH2 0x233E DUP4 CODECOPY DUP2 MLOAD SWAP2 MSTORE PUSH1 0x20 MSTORE PUSH1 0x40 DUP2 KECCAK256 DUP1 SLOAD PUSH1 0xFF NOT AND PUSH1 0x1 OR SWAP1 SSTORE CALLER SWAP2 SWAP1 PUSH1 0x0 DUP1 MLOAD PUSH1 0x20 PUSH2 0x22FE DUP4 CODECOPY DUP2 MLOAD SWAP2 MSTORE DUP2 DUP1 LOG4 PUSH1 0x1 SWAP1 JUMP JUMPDEST POP PUSH1 0x0 SWAP1 JUMP JUMPDEST PUSH1 0x1 PUSH1 0x1 PUSH1 0xA0 SHL SUB DUP2 AND PUSH1 0x0 SWAP1 DUP2 MSTORE PUSH1 0x0 DUP1 MLOAD PUSH1 0x20 PUSH2 0x231E DUP4 CODECOPY DUP2 MLOAD SWAP2 MSTORE PUSH1 0x20 MSTORE PUSH1 0x40 SWAP1 KECCAK256 SLOAD PUSH1 0xFF AND PUSH2 0xAB JUMPI PUSH1 0x1 PUSH1 0x1 PUSH1 0xA0 SHL SUB AND PUSH1 0x0 DUP2 DUP2 MSTORE PUSH1 0x0 DUP1 MLOAD PUSH1 0x20 PUSH2 0x231E DUP4 CODECOPY DUP2 MLOAD SWAP2 MSTORE PUSH1 0x20 MSTORE PUSH1 0x40 DUP2 KECCAK256 DUP1 SLOAD PUSH1 0xFF NOT AND PUSH1 0x1 OR SWAP1 SSTORE CALLER SWAP2 SWAP1 PUSH32 0xA49807205CE4D355092EF5A8A18F56E8913CF4A201FBE287825B095693C21775 SWAP1 PUSH1 0x0 DUP1 MLOAD PUSH1 0x20 PUSH2 0x22FE DUP4 CODECOPY DUP2 MLOAD SWAP2 MSTORE SWAP1 DUP1 LOG4 PUSH1 0x1 SWAP1 JUMP INVALID PUSH1 0x80 DUP1 PUSH1 0x40 MSTORE PUSH1 0x4 CALLDATASIZE LT ISZERO PUSH2 0x1D JUMPI JUMPDEST POP CALLDATASIZE ISZERO PUSH2 0x1B JUMPI PUSH1 0x0 DUP1 REVERT JUMPDEST STOP JUMPDEST PUSH1 0x0 SWAP1 DUP2 CALLDATALOAD PUSH1 0xE0 SHR SWAP1 DUP2 PUSH4 0x1FFC9A7 EQ PUSH2 0x1C20 JUMPI POP DUP1 PUSH4 0x59A500C EQ PUSH2 0x1BBB JUMPI DUP1 PUSH4 0xA396A4A EQ PUSH2 0x1B3E JUMPI DUP1 PUSH4 0xFC376A7 EQ PUSH2 0x1AD8 JUMPI DUP1 PUSH4 0x107A274A EQ PUSH2 0x187A JUMPI DUP1 PUSH4 0x1A9BA7EB EQ PUSH2 0x16F7 JUMPI DUP1 PUSH4 0x248A9CA3 EQ PUSH2 0x16C1 JUMPI DUP1 PUSH4 0x24DF1F70 EQ PUSH2 0x166D JUMPI DUP1 PUSH4 0x2F2FF15D EQ PUSH2 0x162C JUMPI DUP1 PUSH4 0x36568ABE EQ PUSH2 0x15E7 JUMPI DUP1 PUSH4 0x49041359 EQ PUSH2 0x1333 JUMPI DUP1 PUSH4 0x5603E860 EQ PUSH2 0x12F9 JUMPI DUP1 PUSH4 0x5C975ABB EQ PUSH2 0x12D6 JUMPI DUP1 PUSH4 0x5E318E07 EQ PUSH2 0x1255 JUMPI DUP1 PUSH4 0x5EBF3E9B EQ PUSH2 0x1228 JUMPI DUP1 PUSH4 0x5F81A57C EQ PUSH2 0x120A JUMPI DUP1 PUSH4 0x652BD29E EQ PUSH2 0xE7D JUMPI DUP1 PUSH4 0x6B78C29B EQ PUSH2 0xD07 JUMPI DUP1 PUSH4 0x6F9FB98A EQ PUSH2 0xCEB JUMPI DUP1 PUSH4 0x75B238FC EQ PUSH2 0xCB0 JUMPI DUP1 PUSH4 0x7D04470A EQ PUSH2 0xBB4 JUMPI DUP1 PUSH4 0x91D14854 EQ PUSH2 0xB69 JUMPI DUP1 PUSH4 0x9492E302 EQ PUSH2 0xAD5 JUMPI DUP1 PUSH4 0x9B732350 EQ PUSH2 0xAAC JUMPI DUP1 PUSH4 0x9CEA0787 EQ PUSH2 0xA71 JUMPI DUP1 PUSH4 0xA217FDDF EQ PUSH2 0xA55 JUMPI DUP1 PUSH4 0xA4E18CD7 EQ PUSH2 0x920 JUMPI DUP1 PUSH4 0xAD36D666 EQ PUSH2 0x86B JUMPI DUP1 PUSH4 0xBACCBFDB EQ PUSH2 0x6C3 JUMPI DUP1 PUSH4 0xBD55CC3A EQ PUSH2 0x5E8 JUMPI DUP1 PUSH4 0xBF158FD2 EQ PUSH2 0x5BF JUMPI DUP1 PUSH4 0xC52164C6 EQ PUSH2 0x596 JUMPI DUP1 PUSH4 0xC5E4CCC4 EQ PUSH2 0x578 JUMPI DUP1 PUSH4 0xC78B616C EQ PUSH2 0x55A JUMPI DUP1 PUSH4 0xCC2EE0FC EQ PUSH2 0x393 JUMPI DUP1 PUSH4 0xD547741F EQ PUSH2 0x349 JUMPI DUP1 PUSH4 0xDD4B22D1 EQ PUSH2 0x32B JUMPI DUP1 PUSH4 0xE970A120 EQ PUSH2 0x302 JUMPI DUP1 PUSH4 0xFC78AEF1 EQ PUSH2 0x28B JUMPI PUSH4 0xFEA14F5E SUB PUSH2 0xF JUMPI CALLVALUE PUSH2 0x278 JUMPI PUSH1 0x40 CALLDATASIZE PUSH1 0x3 NOT ADD SLT PUSH2 0x278 JUMPI DUP1 PUSH1 0x24 CALLDATALOAD PUSH1 0x1 PUSH1 0x1 PUSH1 0x40 SHL SUB DUP2 GT PUSH2 0x288 JUMPI PUSH2 0x20F SWAP1 CALLDATASIZE SWAP1 PUSH1 0x4 ADD PUSH2 0x1DCE JUMP JUMPDEST PUSH1 0x3 SLOAD PUSH1 0x1 PUSH1 0x1 PUSH1 0xA0 SHL SUB AND DUP1 EXTCODESIZE ISZERO PUSH2 0x286 JUMPI PUSH2 0x256 DUP4 SWAP3 SWAP2 DUP4 SWAP3 PUSH1 0x40 MLOAD SWAP5 DUP6 DUP1 SWAP5 DUP2 SWAP4 PUSH4 0x7F50A7AF PUSH1 0xE1 SHL DUP4 MSTORE PUSH1 0x4 CALLDATALOAD PUSH1 0x4 DUP5 ADD MSTORE PUSH1 0x40 PUSH1 0x24 DUP5 ADD MSTORE PUSH1 0x44 DUP4 ADD SWAP1 PUSH2 0x1D03 JUMP JUMPDEST SUB SWAP3 GAS CALL DUP1 ISZERO PUSH2 0x27B JUMPI PUSH2 0x267 JUMPI POP RETURN JUMPDEST DUP2 PUSH2 0x271 SWAP2 PUSH2 0x1D92 JUMP JUMPDEST PUSH2 0x278 JUMPI DUP1 RETURN JUMPDEST DUP1 REVERT JUMPDEST PUSH1 0x40 MLOAD RETURNDATASIZE DUP5 DUP3 RETURNDATACOPY RETURNDATASIZE SWAP1 REVERT JUMPDEST POP JUMPDEST POP REVERT JUMPDEST POP CALLVALUE PUSH2 0x278 JUMPI PUSH1 0x40 CALLDATASIZE PUSH1 0x3 NOT ADD SLT PUSH2 0x278 JUMPI DUP1 PUSH2 0x2A6 PUSH2 0x1C90 JUMP JUMPDEST PUSH2 0x2AE PUSH2 0x1F5B JUMP JUMPDEST PUSH1 0x3 SLOAD PUSH1 0x1 PUSH1 0x1 PUSH1 0xA0 SHL SUB AND SWAP1 DUP2 EXTCODESIZE ISZERO PUSH2 0x286 JUMPI PUSH1 0x40 MLOAD PUSH4 0xFC78AEF1 PUSH1 0xE0 SHL DUP2 MSTORE PUSH1 0x4 DUP1 CALLDATALOAD SWAP1 DUP3 ADD MSTORE PUSH1 0x1 PUSH1 0x1 PUSH1 0xA0 SHL SUB SWAP1 SWAP2 AND PUSH1 0x24 DUP3 ADD MSTORE SWAP1 DUP3 SWAP1 DUP3 SWAP1 PUSH1 0x44 SWAP1 DUP3 SWAP1 DUP5 SWAP1 GAS CALL DUP1 ISZERO PUSH2 0x27B JUMPI PUSH2 0x267 JUMPI POP RETURN JUMPDEST POP CALLVALUE PUSH2 0x278 JUMPI DUP1 PUSH1 0x3 NOT CALLDATASIZE ADD SLT PUSH2 0x278 JUMPI PUSH1 0x3 SLOAD PUSH1 0x40 MLOAD PUSH1 0x1 PUSH1 0x1 PUSH1 0xA0 SHL SUB SWAP1 SWAP2 AND DUP2 MSTORE PUSH1 0x20 SWAP1 RETURN JUMPDEST POP CALLVALUE PUSH2 0x278 JUMPI DUP1 PUSH1 0x3 NOT CALLDATASIZE ADD SLT PUSH2 0x278 JUMPI PUSH1 0x20 PUSH1 0x8 SLOAD PUSH1 0x40 MLOAD SWAP1 DUP2 MSTORE RETURN JUMPDEST POP CALLVALUE PUSH2 0x278 JUMPI PUSH1 0x40 CALLDATASIZE PUSH1 0x3 NOT ADD SLT PUSH2 0x278 JUMPI PUSH2 0x38F PUSH1 0x4 CALLDATALOAD PUSH2 0x369 PUSH2 0x1C90 JUMP JUMPDEST SWAP1 PUSH2 0x38A PUSH2 0x385 DUP3 PUSH1 0x0 MSTORE PUSH1 0x0 PUSH1 0x20 MSTORE PUSH1 0x1 PUSH1 0x40 PUSH1 0x0 KECCAK256 ADD SLOAD SWAP1 JUMP JUMPDEST PUSH2 0x1FEA JUMP JUMPDEST PUSH2 0x20B0 JUMP JUMPDEST POP DUP1 RETURN JUMPDEST POP CALLVALUE PUSH2 0x278 JUMPI PUSH1 0xA0 CALLDATASIZE PUSH1 0x3 NOT ADD SLT PUSH2 0x278 JUMPI PUSH1 0x4 CALLDATALOAD PUSH1 0x1 PUSH1 0x1 PUSH1 0x40 SHL SUB DUP2 GT PUSH2 0x556 JUMPI PUSH2 0x3C4 SWAP1 CALLDATASIZE SWAP1 PUSH1 0x4 ADD PUSH2 0x1DCE JUMP JUMPDEST PUSH1 0x24 CALLDATALOAD PUSH1 0x1 PUSH1 0x1 PUSH1 0x40 SHL SUB DUP2 GT PUSH2 0x552 JUMPI PUSH2 0x3E3 SWAP1 CALLDATASIZE SWAP1 PUSH1 0x4 ADD PUSH2 0x1DCE JUMP JUMPDEST SWAP1 PUSH1 0x64 CALLDATALOAD SWAP1 PUSH1 0x44 CALLDATALOAD DUP5 PUSH1 0x84 CALLDATALOAD PUSH1 0x1 PUSH1 0x1 PUSH1 0x40 SHL SUB DUP2 GT PUSH2 0x556 JUMPI PUSH2 0x40B SWAP1 CALLDATASIZE SWAP1 PUSH1 0x4 ADD PUSH2 0x1DCE JUMP JUMPDEST SWAP5 PUSH2 0x414 PUSH2 0x1F5B JUMP JUMPDEST PUSH1 0x2 SLOAD PUSH1 0x8 SHR PUSH1 0x1 PUSH1 0x1 PUSH1 0xA0 SHL SUB AND DUP1 EXTCODESIZE ISZERO PUSH2 0x552 JUMPI PUSH2 0x474 DUP4 SWAP2 PUSH2 0x492 SWAP4 DUP4 PUSH1 0x40 MLOAD DUP1 SWAP7 DUP2 SWAP6 DUP3 SWAP5 PUSH4 0x3158E5F3 PUSH1 0xE0 SHL DUP5 MSTORE CALLER PUSH1 0x4 DUP6 ADD MSTORE PUSH1 0xC0 PUSH1 0x24 DUP6 ADD MSTORE PUSH2 0x462 DUP14 PUSH1 0xC4 DUP7 ADD SWAP1 PUSH2 0x1D03 JUMP JUMPDEST DUP5 DUP2 SUB PUSH1 0x3 NOT ADD PUSH1 0x44 DUP7 ADD MSTORE SWAP1 PUSH2 0x1D03 JUMP JUMPDEST DUP11 PUSH1 0x64 DUP5 ADD MSTORE DUP13 PUSH1 0x84 DUP5 ADD MSTORE PUSH1 0x3 NOT DUP4 DUP3 SUB ADD PUSH1 0xA4 DUP5 ADD MSTORE DUP14 PUSH2 0x1D03 JUMP JUMPDEST SUB SWAP3 GAS CALL DUP1 ISZERO PUSH2 0x27B JUMPI PUSH2 0x539 JUMPI JUMPDEST POP POP PUSH2 0x4AE PUSH1 0x7 SLOAD PUSH2 0x1F29 JUMP JUMPDEST SWAP3 DUP4 PUSH1 0x7 SSTORE PUSH2 0x4BB PUSH2 0x2132 JUMP JUMPDEST PUSH1 0x0 NOT DUP5 ADD SWAP4 DUP5 GT PUSH2 0x525 JUMPI SWAP2 PUSH2 0x51F PUSH2 0x505 SWAP3 PUSH32 0x4BAC60DC51A3E92083B5CA70985D572A37B735058B5E86413C4F01C48B3339C5 SWAP5 PUSH1 0x40 MLOAD SWAP5 DUP6 SWAP5 PUSH1 0x80 DUP7 MSTORE PUSH1 0x80 DUP7 ADD SWAP1 PUSH2 0x1D03 JUMP JUMPDEST SWAP2 PUSH1 0x20 DUP6 ADD MSTORE PUSH1 0x40 DUP5 ADD MSTORE DUP3 DUP2 SUB PUSH1 0x60 DUP5 ADD MSTORE CALLER SWAP7 PUSH2 0x1D03 JUMP JUMPDEST SUB SWAP1 LOG3 DUP1 RETURN JUMPDEST PUSH4 0x4E487B71 PUSH1 0xE0 SHL DUP7 MSTORE PUSH1 0x11 PUSH1 0x4 MSTORE PUSH1 0x24 DUP7 REVERT JUMPDEST DUP2 PUSH2 0x543 SWAP2 PUSH2 0x1D92 JUMP JUMPDEST PUSH2 0x54E JUMPI DUP5 CODESIZE PUSH2 0x4A1 JUMP JUMPDEST DUP5 DUP1 REVERT JUMPDEST DUP3 DUP1 REVERT JUMPDEST POP DUP1 REVERT JUMPDEST POP CALLVALUE PUSH2 0x278 JUMPI DUP1 PUSH1 0x3 NOT CALLDATASIZE ADD SLT PUSH2 0x278 JUMPI PUSH1 0x20 PUSH1 0x7 SLOAD PUSH1 0x40 MLOAD SWAP1 DUP2 MSTORE RETURN JUMPDEST POP CALLVALUE PUSH2 0x278 JUMPI DUP1 PUSH1 0x3 NOT CALLDATASIZE ADD SLT PUSH2 0x278 JUMPI PUSH1 0x20 PUSH1 0x9 SLOAD PUSH1 0x40 MLOAD SWAP1 DUP2 MSTORE RETURN JUMPDEST POP CALLVALUE PUSH2 0x278 JUMPI DUP1 PUSH1 0x3 NOT CALLDATASIZE ADD SLT PUSH2 0x278 JUMPI PUSH1 0x6 SLOAD PUSH1 0x40 MLOAD PUSH1 0x1 PUSH1 0x1 PUSH1 0xA0 SHL SUB SWAP1 SWAP2 AND DUP2 MSTORE PUSH1 0x20 SWAP1 RETURN JUMPDEST POP CALLVALUE PUSH2 0x278 JUMPI DUP1 PUSH1 0x3 NOT CALLDATASIZE ADD SLT PUSH2 0x278 JUMPI PUSH1 0x5 SLOAD PUSH1 0x40 MLOAD PUSH1 0x1 PUSH1 0x1 PUSH1 0xA0 SHL SUB SWAP1 SWAP2 AND DUP2 MSTORE PUSH1 0x20 SWAP1 RETURN JUMPDEST POP CALLVALUE PUSH2 0x278 JUMPI PUSH1 0xC0 CALLDATASIZE PUSH1 0x3 NOT ADD SLT PUSH2 0x278 JUMPI PUSH2 0x602 PUSH2 0x1C90 JUMP JUMPDEST PUSH1 0x44 CALLDATALOAD DUP3 PUSH1 0x64 CALLDATALOAD SWAP3 PUSH2 0x612 PUSH2 0x1F5B JUMP JUMPDEST PUSH1 0x3 SLOAD PUSH1 0x1 PUSH1 0x1 PUSH1 0xA0 SHL SUB AND SWAP1 DUP2 EXTCODESIZE ISZERO PUSH2 0x552 JUMPI DUP3 SWAP2 PUSH1 0xC4 DUP4 SWAP3 PUSH1 0x40 MLOAD SWAP5 DUP6 SWAP4 DUP5 SWAP3 PUSH4 0x5EAAE61D PUSH1 0xE1 SHL DUP5 MSTORE PUSH1 0x4 CALLDATALOAD PUSH1 0x4 DUP6 ADD MSTORE PUSH1 0x1 DUP1 PUSH1 0xA0 SHL SUB AND PUSH1 0x24 DUP5 ADD MSTORE DUP9 PUSH1 0x44 DUP5 ADD MSTORE DUP10 PUSH1 0x64 DUP5 ADD MSTORE PUSH1 0x84 CALLDATALOAD PUSH1 0x84 DUP5 ADD MSTORE PUSH1 0xA4 CALLDATALOAD PUSH1 0xA4 DUP5 ADD MSTORE GAS CALL DUP1 ISZERO PUSH2 0x27B JUMPI PUSH2 0x6AE JUMPI JUMPDEST POP PUSH2 0x6A0 PUSH2 0x698 DUP5 DUP5 PUSH2 0x690 PUSH1 0x8 SLOAD PUSH2 0x1F29 JUMP JUMPDEST PUSH1 0x8 SSTORE PUSH2 0x1F4E JUMP JUMPDEST PUSH1 0xA SLOAD PUSH2 0x1F4E JUMP JUMPDEST PUSH1 0xA SSTORE PUSH2 0x6AB PUSH2 0x2132 JUMP JUMPDEST DUP1 RETURN JUMPDEST DUP2 PUSH2 0x6B8 SWAP2 PUSH2 0x1D92 JUMP JUMPDEST PUSH2 0x552 JUMPI DUP3 CODESIZE PUSH2 0x67C JUMP JUMPDEST POP CALLVALUE PUSH2 0x278 JUMPI PUSH1 0x20 CALLDATASIZE PUSH1 0x3 NOT ADD SLT PUSH2 0x278 JUMPI PUSH2 0x6DD PUSH2 0x1C75 JUMP JUMPDEST DUP2 PUSH2 0x100 PUSH1 0x40 MLOAD PUSH2 0x6ED DUP2 PUSH2 0x1D76 JUMP JUMPDEST DUP3 DUP2 MSTORE DUP3 PUSH1 0x20 DUP3 ADD MSTORE DUP3 PUSH1 0x40 DUP3 ADD MSTORE DUP3 PUSH1 0x60 DUP3 ADD MSTORE DUP3 PUSH1 0x80 DUP3 ADD MSTORE DUP3 PUSH1 0xA0 DUP3 ADD MSTORE DUP3 PUSH1 0xC0 DUP3 ADD MSTORE DUP3 PUSH1 0xE0 DUP3 ADD MSTORE ADD MSTORE PUSH2 0x120 PUSH1 0x1 DUP1 PUSH1 0xA0 SHL SUB PUSH1 0x6 SLOAD AND SWAP2 PUSH1 0x24 PUSH1 0x40 MLOAD DUP1 SWAP5 DUP2 SWAP4 PUSH4 0xBACCBFDB PUSH1 0xE0 SHL DUP4 MSTORE PUSH1 0x1 DUP1 PUSH1 0xA0 SHL SUB AND PUSH1 0x4 DUP4 ADD MSTORE GAS STATICCALL SWAP1 DUP2 ISZERO PUSH2 0x27B JUMPI DUP3 SWAP2 PUSH2 0x7C4 JUMPI JUMPDEST PUSH2 0x120 DUP3 PUSH2 0x100 PUSH1 0x40 MLOAD SWAP2 PUSH1 0x1 DUP1 PUSH1 0xA0 SHL SUB DUP2 MLOAD AND DUP4 MSTORE PUSH1 0x20 DUP2 ADD MLOAD PUSH1 0x20 DUP5 ADD MSTORE PUSH1 0x40 DUP2 ADD MLOAD PUSH1 0x40 DUP5 ADD MSTORE PUSH1 0x60 DUP2 ADD MLOAD PUSH1 0x60 DUP5 ADD MSTORE PUSH1 0x80 DUP2 ADD MLOAD PUSH1 0x80 DUP5 ADD MSTORE PUSH1 0xA0 DUP2 ADD MLOAD PUSH1 0xA0 DUP5 ADD MSTORE PUSH1 0xC0 DUP2 ADD MLOAD PUSH1 0xC0 DUP5 ADD MSTORE PUSH1 0xE0 DUP2 ADD MLOAD ISZERO ISZERO PUSH1 0xE0 DUP5 ADD MSTORE ADD MLOAD PUSH2 0x100 DUP3 ADD MSTORE RETURN JUMPDEST SWAP1 POP PUSH2 0x120 DUP2 RETURNDATASIZE DUP3 GT PUSH2 0x863 JUMPI JUMPDEST DUP2 PUSH2 0x7E0 PUSH2 0x120 SWAP4 DUP4 PUSH2 0x1D92 JUMP JUMPDEST DUP2 ADD SUB SLT PUSH2 0x556 JUMPI PUSH2 0x120 SWAP2 POP PUSH2 0x100 PUSH1 0x40 MLOAD SWAP2 PUSH2 0x7FD DUP4 PUSH2 0x1D76 JUMP JUMPDEST PUSH2 0x806 DUP2 PUSH2 0x1E98 JUMP JUMPDEST DUP4 MSTORE PUSH1 0x20 DUP2 ADD MLOAD PUSH1 0x20 DUP5 ADD MSTORE PUSH1 0x40 DUP2 ADD MLOAD PUSH1 0x40 DUP5 ADD MSTORE PUSH1 0x60 DUP2 ADD MLOAD PUSH1 0x60 DUP5 ADD MSTORE PUSH1 0x80 DUP2 ADD MLOAD PUSH1 0x80 DUP5 ADD MSTORE PUSH1 0xA0 DUP2 ADD MLOAD PUSH1 0xA0 DUP5 ADD MSTORE PUSH1 0xC0 DUP2 ADD MLOAD PUSH1 0xC0 DUP5 ADD MSTORE PUSH2 0x850 PUSH1 0xE0 DUP3 ADD PUSH2 0x1EF1 JUMP JUMPDEST PUSH1 0xE0 DUP5 ADD MSTORE ADD MLOAD PUSH2 0x100 DUP3 ADD MSTORE CODESIZE PUSH2 0x75B JUMP JUMPDEST RETURNDATASIZE SWAP2 POP PUSH2 0x7D2 JUMP JUMPDEST POP CALLVALUE PUSH2 0x278 JUMPI PUSH1 0x40 CALLDATASIZE PUSH1 0x3 NOT ADD SLT PUSH2 0x278 JUMPI PUSH2 0x885 PUSH2 0x1C75 JUMP JUMPDEST PUSH1 0x5 SLOAD PUSH1 0x40 MLOAD PUSH4 0x80438349 PUSH1 0xE0 SHL DUP2 MSTORE PUSH1 0x1 PUSH1 0x1 PUSH1 0xA0 SHL SUB SWAP3 DUP4 AND PUSH1 0x4 DUP3 ADD MSTORE PUSH1 0x24 DUP1 CALLDATALOAD SWAP1 DUP3 ADD MSTORE SWAP3 SWAP2 PUSH1 0x20 SWAP2 DUP5 SWAP2 PUSH1 0x44 SWAP2 DUP4 SWAP2 AND GAS STATICCALL SWAP1 DUP2 ISZERO PUSH2 0x914 JUMPI DUP1 SWAP2 PUSH2 0x8D7 JUMPI JUMPDEST PUSH1 0x20 DUP3 PUSH1 0x40 MLOAD SWAP1 ISZERO ISZERO DUP2 MSTORE RETURN JUMPDEST SWAP1 POP PUSH1 0x20 DUP3 RETURNDATASIZE PUSH1 0x20 GT PUSH2 0x90C JUMPI JUMPDEST DUP2 PUSH2 0x8F2 PUSH1 0x20 SWAP4 DUP4 PUSH2 0x1D92 JUMP JUMPDEST DUP2 ADD SUB SLT PUSH2 0x278 JUMPI POP PUSH2 0x906 PUSH1 0x20 SWAP2 PUSH2 0x1EF1 JUMP JUMPDEST CODESIZE PUSH2 0x8CA JUMP JUMPDEST RETURNDATASIZE SWAP2 POP PUSH2 0x8E5 JUMP JUMPDEST PUSH1 0x40 MLOAD SWAP1 RETURNDATASIZE SWAP1 DUP3 RETURNDATACOPY RETURNDATASIZE SWAP1 REVERT JUMPDEST POP CALLVALUE PUSH2 0x278 JUMPI PUSH1 0x60 CALLDATASIZE PUSH1 0x3 NOT ADD SLT PUSH2 0x278 JUMPI DUP1 PUSH1 0x4 CALLDATALOAD PUSH1 0x24 CALLDATALOAD PUSH1 0x1 PUSH1 0x1 PUSH1 0x40 SHL SUB DUP2 GT PUSH2 0x286 JUMPI PUSH2 0x955 SWAP1 CALLDATASIZE SWAP1 PUSH1 0x4 ADD PUSH2 0x1DCE JUMP JUMPDEST SWAP1 PUSH1 0x44 CALLDATALOAD PUSH1 0x1 PUSH1 0x1 PUSH1 0x40 SHL SUB DUP2 GT PUSH2 0xA45 JUMPI PUSH2 0x975 SWAP1 CALLDATASIZE SWAP1 PUSH1 0x4 ADD PUSH2 0x1DCE JUMP JUMPDEST PUSH1 0x3 SLOAD PUSH1 0x1 PUSH1 0x1 PUSH1 0xA0 SHL SUB AND DUP1 EXTCODESIZE ISZERO PUSH2 0x54E JUMPI DUP5 PUSH1 0x40 MLOAD DUP1 SWAP3 PUSH4 0xA4E18CD7 PUSH1 0xE0 SHL DUP3 MSTORE DUP2 DUP4 DUP2 PUSH2 0x9AA DUP9 DUP12 DUP12 PUSH1 0x4 DUP6 ADD PUSH2 0x1EFE JUMP JUMPDEST SUB SWAP3 GAS CALL SWAP1 DUP2 ISZERO PUSH2 0xA4A JUMPI DUP6 SWAP2 PUSH2 0xA30 JUMPI JUMPDEST POP POP PUSH1 0x4 SLOAD PUSH1 0x1 PUSH1 0x1 PUSH1 0xA0 SHL SUB AND DUP1 EXTCODESIZE ISZERO PUSH2 0x54E JUMPI PUSH2 0x9F5 SWAP4 DUP6 DUP1 SWAP5 PUSH1 0x40 MLOAD SWAP7 DUP8 SWAP6 DUP7 SWAP5 DUP6 SWAP4 PUSH4 0x38806E31 PUSH1 0xE1 SHL DUP6 MSTORE PUSH1 0x4 DUP6 ADD PUSH2 0x1EFE JUMP JUMPDEST SUB SWAP3 GAS CALL DUP1 ISZERO PUSH2 0x27B JUMPI PUSH2 0xA1B JUMPI JUMPDEST POP PUSH2 0xA10 PUSH1 0x9 SLOAD PUSH2 0x1F29 JUMP JUMPDEST PUSH1 0x9 SSTORE PUSH2 0x6AB PUSH2 0x2132 JUMP JUMPDEST DUP2 PUSH2 0xA25 SWAP2 PUSH2 0x1D92 JUMP JUMPDEST PUSH2 0x278 JUMPI DUP1 CODESIZE PUSH2 0xA04 JUMP JUMPDEST DUP2 PUSH2 0xA3A SWAP2 PUSH2 0x1D92 JUMP JUMPDEST PUSH2 0xA45 JUMPI DUP4 CODESIZE PUSH2 0x9BC JUMP JUMPDEST POP POP POP REVERT JUMPDEST PUSH1 0x40 MLOAD RETURNDATASIZE DUP8 DUP3 RETURNDATACOPY RETURNDATASIZE SWAP1 REVERT JUMPDEST POP CALLVALUE PUSH2 0x278 JUMPI DUP1 PUSH1 0x3 NOT CALLDATASIZE ADD SLT PUSH2 0x278 JUMPI PUSH1 0x20 SWAP1 PUSH1 0x40 MLOAD SWAP1 DUP2 MSTORE RETURN JUMPDEST POP CALLVALUE PUSH2 0x278 JUMPI DUP1 PUSH1 0x3 NOT CALLDATASIZE ADD SLT PUSH2 0x278 JUMPI PUSH1 0x20 PUSH1 0x40 MLOAD PUSH32 0x16CEEE8289685DD2A02B9C8AE81D2DF373176CE53519E6284E2A2950D6546FFA DUP2 MSTORE RETURN JUMPDEST POP CALLVALUE PUSH2 0x278 JUMPI DUP1 PUSH1 0x3 NOT CALLDATASIZE ADD SLT PUSH2 0x278 JUMPI PUSH1 0x4 SLOAD PUSH1 0x40 MLOAD PUSH1 0x1 PUSH1 0x1 PUSH1 0xA0 SHL SUB SWAP1 SWAP2 AND DUP2 MSTORE PUSH1 0x20 SWAP1 RETURN JUMPDEST POP CALLVALUE PUSH2 0x278 JUMPI PUSH1 0x20 CALLDATASIZE PUSH1 0x3 NOT ADD SLT PUSH2 0x278 JUMPI PUSH2 0xAEF PUSH2 0x1C75 JUMP JUMPDEST PUSH1 0x2 SLOAD PUSH1 0x40 MLOAD PUSH4 0x6185FA0F PUSH1 0xE0 SHL DUP2 MSTORE PUSH1 0x1 PUSH1 0x1 PUSH1 0xA0 SHL SUB SWAP3 DUP4 AND PUSH1 0x4 DUP3 ADD MSTORE SWAP2 DUP4 SWAP2 DUP4 SWAP2 PUSH1 0x24 SWAP2 DUP4 SWAP2 PUSH1 0x8 SWAP2 SWAP1 SWAP2 SHR AND GAS STATICCALL SWAP1 DUP2 ISZERO PUSH2 0x27B JUMPI DUP3 PUSH2 0xB42 SWAP4 SWAP3 PUSH2 0xB46 JUMPI JUMPDEST POP POP PUSH1 0x40 MLOAD SWAP2 DUP3 SWAP2 DUP3 PUSH2 0x1CA6 JUMP JUMPDEST SUB SWAP1 RETURN JUMPDEST PUSH2 0xB62 SWAP3 POP RETURNDATASIZE DUP1 SWAP2 DUP4 RETURNDATACOPY PUSH2 0xB5A DUP2 DUP4 PUSH2 0x1D92 JUMP JUMPDEST DUP2 ADD SWAP1 PUSH2 0x1E15 JUMP JUMPDEST CODESIZE DUP1 PUSH2 0xB34 JUMP JUMPDEST POP CALLVALUE PUSH2 0x278 JUMPI PUSH1 0x40 CALLDATASIZE PUSH1 0x3 NOT ADD SLT PUSH2 0x278 JUMPI PUSH1 0x40 PUSH2 0xB85 PUSH2 0x1C90 JUMP JUMPDEST SWAP2 PUSH1 0x4 CALLDATALOAD DUP2 MSTORE DUP1 PUSH1 0x20 MSTORE KECCAK256 SWAP1 PUSH1 0x1 DUP1 PUSH1 0xA0 SHL SUB AND PUSH1 0x0 MSTORE PUSH1 0x20 MSTORE PUSH1 0x20 PUSH1 0xFF PUSH1 0x40 PUSH1 0x0 KECCAK256 SLOAD AND PUSH1 0x40 MLOAD SWAP1 ISZERO ISZERO DUP2 MSTORE RETURN JUMPDEST POP CALLVALUE PUSH2 0x278 JUMPI PUSH1 0xC0 CALLDATASIZE PUSH1 0x3 NOT ADD SLT PUSH2 0x278 JUMPI DUP1 PUSH2 0xBCF PUSH2 0x1C75 JUMP JUMPDEST PUSH1 0x44 CALLDATALOAD PUSH1 0x1 PUSH1 0x1 PUSH1 0x40 SHL SUB DUP2 GT PUSH2 0x286 JUMPI PUSH2 0xBEE SWAP1 CALLDATASIZE SWAP1 PUSH1 0x4 ADD PUSH2 0x1DCE JUMP JUMPDEST PUSH1 0x64 CALLDATALOAD PUSH1 0x1 PUSH1 0x1 PUSH1 0x40 SHL SUB DUP2 GT PUSH2 0xA45 JUMPI PUSH2 0xC0D SWAP1 CALLDATASIZE SWAP1 PUSH1 0x4 ADD PUSH2 0x1DCE JUMP JUMPDEST SWAP2 PUSH1 0xA4 CALLDATALOAD SWAP2 PUSH1 0x2 DUP4 LT ISZERO PUSH2 0x54E JUMPI PUSH2 0xC23 PUSH2 0x1F5B JUMP JUMPDEST PUSH1 0x6 SLOAD PUSH1 0x1 PUSH1 0x1 PUSH1 0xA0 SHL SUB AND SWAP1 DUP2 EXTCODESIZE ISZERO PUSH2 0xCAC JUMPI DUP6 PUSH2 0xC7B SWAP4 DUP2 SWAP6 PUSH2 0xC8D PUSH1 0x40 MLOAD SWAP9 DUP10 SWAP8 DUP9 SWAP7 DUP8 SWAP6 PUSH4 0x3E822385 PUSH1 0xE1 SHL DUP8 MSTORE PUSH1 0x1 DUP1 PUSH1 0xA0 SHL SUB AND PUSH1 0x4 DUP8 ADD MSTORE PUSH1 0x24 CALLDATALOAD PUSH1 0x24 DUP8 ADD MSTORE PUSH1 0xC0 PUSH1 0x44 DUP8 ADD MSTORE PUSH1 0xC4 DUP7 ADD SWAP1 PUSH2 0x1D03 JUMP JUMPDEST DUP5 DUP2 SUB PUSH1 0x3 NOT ADD PUSH1 0x64 DUP7 ADD MSTORE SWAP1 PUSH2 0x1D03 JUMP JUMPDEST SWAP1 PUSH1 0x84 CALLDATALOAD PUSH1 0x84 DUP5 ADD MSTORE PUSH1 0xA4 DUP4 ADD MSTORE SUB SWAP3 GAS CALL DUP1 ISZERO PUSH2 0x27B JUMPI PUSH2 0x267 JUMPI POP RETURN JUMPDEST DUP6 DUP1 REVERT JUMPDEST POP CALLVALUE PUSH2 0x278 JUMPI DUP1 PUSH1 0x3 NOT CALLDATASIZE ADD SLT PUSH2 0x278 JUMPI PUSH1 0x20 PUSH1 0x40 MLOAD PUSH32 0xA49807205CE4D355092EF5A8A18F56E8913CF4A201FBE287825B095693C21775 DUP2 MSTORE RETURN JUMPDEST POP CALLVALUE PUSH2 0x278 JUMPI DUP1 PUSH1 0x3 NOT CALLDATASIZE ADD SLT PUSH2 0x278 JUMPI PUSH1 0x20 SELFBALANCE PUSH1 0x40 MLOAD SWAP1 DUP2 MSTORE RETURN JUMPDEST POP CALLVALUE PUSH2 0x278 JUMPI DUP1 PUSH1 0x3 NOT CALLDATASIZE ADD SLT PUSH2 0x278 JUMPI PUSH2 0xD20 PUSH2 0x1F78 JUMP JUMPDEST PUSH2 0xD28 PUSH2 0x1F5B JUMP JUMPDEST PUSH1 0x1 PUSH1 0xFF NOT PUSH1 0x2 SLOAD AND OR PUSH1 0x2 SSTORE PUSH32 0x62E78CEA01BEE320CD4E420270B5EA74000D11B0C9F74754EBDBFC544B05A258 PUSH1 0x20 PUSH1 0x40 MLOAD CALLER DUP2 MSTORE LOG1 PUSH1 0x3 SLOAD DUP2 SWAP1 PUSH1 0x1 PUSH1 0x1 PUSH1 0xA0 SHL SUB AND DUP1 EXTCODESIZE ISZERO PUSH2 0x288 JUMPI DUP2 DUP1 SWAP2 PUSH1 0x4 PUSH1 0x40 MLOAD DUP1 SWAP5 DUP2 SWAP4 PUSH4 0x8456CB59 PUSH1 0xE0 SHL DUP4 MSTORE GAS CALL DUP1 ISZERO PUSH2 0x27B JUMPI PUSH2 0xE68 JUMPI JUMPDEST POP PUSH1 0x4 SLOAD PUSH1 0x1 PUSH1 0x1 PUSH1 0xA0 SHL SUB AND DUP1 EXTCODESIZE ISZERO PUSH2 0x288 JUMPI DUP2 DUP1 SWAP2 PUSH1 0x4 PUSH1 0x40 MLOAD DUP1 SWAP5 DUP2 SWAP4 PUSH4 0x8456CB59 PUSH1 0xE0 SHL DUP4 MSTORE GAS CALL DUP1 ISZERO PUSH2 0x27B JUMPI PUSH2 0xE53 JUMPI JUMPDEST POP PUSH1 0x5 SLOAD PUSH1 0x1 PUSH1 0x1 PUSH1 0xA0 SHL SUB AND DUP1 EXTCODESIZE ISZERO PUSH2 0x288 JUMPI DUP2 DUP1 SWAP2 PUSH1 0x4 PUSH1 0x40 MLOAD DUP1 SWAP5 DUP2 SWAP4 PUSH4 0x8456CB59 PUSH1 0xE0 SHL DUP4 MSTORE GAS CALL DUP1 ISZERO PUSH2 0x27B JUMPI PUSH2 0xE3E JUMPI JUMPDEST POP PUSH1 0x6 SLOAD PUSH1 0x1 PUSH1 0x1 PUSH1 0xA0 SHL SUB AND DUP1 EXTCODESIZE ISZERO PUSH2 0x288 JUMPI DUP2 DUP1 SWAP2 PUSH1 0x4 PUSH1 0x40 MLOAD DUP1 SWAP5 DUP2 SWAP4 PUSH4 0x8456CB59 PUSH1 0xE0 SHL DUP4 MSTORE GAS CALL DUP1 ISZERO PUSH2 0x27B JUMPI PUSH2 0x267 JUMPI POP RETURN JUMPDEST DUP2 PUSH2 0xE48 SWAP2 PUSH2 0x1D92 JUMP JUMPDEST PUSH2 0x278 JUMPI DUP1 CODESIZE PUSH2 0xE05 JUMP JUMPDEST DUP2 PUSH2 0xE5D SWAP2 PUSH2 0x1D92 JUMP JUMPDEST PUSH2 0x278 JUMPI DUP1 CODESIZE PUSH2 0xDCE JUMP JUMPDEST DUP2 PUSH2 0xE72 SWAP2 PUSH2 0x1D92 JUMP JUMPDEST PUSH2 0x278 JUMPI DUP1 CODESIZE PUSH2 0xD97 JUMP JUMPDEST POP CALLVALUE PUSH2 0x278 JUMPI PUSH1 0x20 CALLDATASIZE PUSH1 0x3 NOT ADD SLT PUSH2 0x278 JUMPI PUSH1 0x60 PUSH2 0x220 PUSH1 0x40 MLOAD PUSH2 0xEA0 DUP2 PUSH2 0x1D5A JUMP JUMPDEST DUP4 DUP2 MSTORE DUP4 PUSH1 0x20 DUP3 ADD MSTORE DUP4 PUSH1 0x40 DUP3 ADD MSTORE DUP4 DUP4 DUP3 ADD MSTORE DUP4 PUSH1 0x80 DUP3 ADD MSTORE DUP4 PUSH1 0xA0 DUP3 ADD MSTORE DUP4 PUSH1 0xC0 DUP3 ADD MSTORE DUP4 PUSH1 0xE0 DUP3 ADD MSTORE DUP4 PUSH2 0x100 DUP3 ADD MSTORE DUP4 PUSH2 0x120 DUP3 ADD MSTORE DUP4 PUSH2 0x140 DUP3 ADD MSTORE DUP3 PUSH2 0x160 DUP3 ADD MSTORE DUP4 PUSH2 0x180 DUP3 ADD MSTORE DUP4 PUSH2 0x1A0 DUP3 ADD MSTORE DUP4 PUSH2 0x1C0 DUP3 ADD MSTORE DUP4 PUSH2 0x1E0 DUP3 ADD MSTORE DUP3 PUSH2 0x200 DUP3 ADD MSTORE ADD MSTORE PUSH1 0x24 DUP2 PUSH1 0x1 DUP1 PUSH1 0xA0 SHL SUB PUSH1 0x3 SLOAD AND PUSH1 0x40 MLOAD SWAP3 DUP4 DUP1 SWAP3 PUSH4 0x3295E94F PUSH1 0xE1 SHL DUP3 MSTORE PUSH1 0x4 CALLDATALOAD PUSH1 0x4 DUP4 ADD MSTORE GAS STATICCALL SWAP1 DUP2 ISZERO PUSH2 0x27B JUMPI DUP3 SWAP2 PUSH2 0x107E JUMPI JUMPDEST POP PUSH1 0x40 MLOAD SWAP2 PUSH1 0x20 DUP4 MSTORE DUP2 MLOAD PUSH1 0x20 DUP5 ADD MSTORE PUSH1 0x20 DUP3 ADD MLOAD PUSH1 0x40 DUP5 ADD MSTORE PUSH1 0x1 DUP1 PUSH1 0xA0 SHL SUB PUSH1 0x40 DUP4 ADD MLOAD AND PUSH1 0x60 DUP5 ADD MSTORE PUSH1 0x1 DUP1 PUSH1 0xA0 SHL SUB PUSH1 0x60 DUP4 ADD MLOAD AND PUSH1 0x80 DUP5 ADD MSTORE PUSH1 0x80 DUP3 ADD MLOAD PUSH1 0xA0 DUP5 ADD MSTORE PUSH1 0xA0 DUP3 ADD MLOAD PUSH1 0xC0 DUP5 ADD MSTORE PUSH1 0xC0 DUP3 ADD MLOAD PUSH1 0xE0 DUP5 ADD MSTORE PUSH1 0xE0 DUP3 ADD MLOAD PUSH2 0x100 DUP5 ADD MSTORE PUSH2 0x100 DUP3 ADD MLOAD SWAP1 PUSH1 0x5 DUP3 LT ISZERO PUSH2 0x106A JUMPI POP DUP3 SWAP2 PUSH2 0xB42 SWAP2 PUSH2 0x120 DUP5 ADD MSTORE PUSH2 0x120 DUP2 ADD MLOAD PUSH2 0x140 DUP5 ADD MSTORE PUSH2 0x140 DUP2 ADD MLOAD PUSH2 0x160 DUP5 ADD MSTORE PUSH2 0x220 PUSH2 0x1055 PUSH2 0x1003 PUSH2 0x160 DUP5 ADD MLOAD PUSH2 0x240 PUSH2 0x180 DUP9 ADD MSTORE PUSH2 0x260 DUP8 ADD SWAP1 PUSH2 0x1D03 JUMP JUMPDEST PUSH2 0x180 DUP5 ADD MLOAD ISZERO ISZERO PUSH2 0x1A0 DUP8 ADD MSTORE PUSH2 0x1A0 DUP5 ADD MLOAD ISZERO ISZERO PUSH2 0x1C0 DUP8 ADD MSTORE PUSH1 0x1 DUP1 PUSH1 0xA0 SHL SUB PUSH2 0x1C0 DUP6 ADD MLOAD AND PUSH2 0x1E0 DUP8 ADD MSTORE PUSH2 0x1E0 DUP5 ADD MLOAD PUSH2 0x200 DUP8 ADD MSTORE PUSH2 0x200 DUP5 ADD MLOAD PUSH1 0x1F NOT DUP8 DUP4 SUB ADD DUP5 DUP9 ADD MSTORE PUSH2 0x1D03 JUMP JUMPDEST SWAP2 ADD MLOAD DUP4 DUP3 SUB PUSH1 0x1F NOT ADD PUSH2 0x240 DUP6 ADD MSTORE PUSH2 0x1D03 JUMP JUMPDEST PUSH4 0x4E487B71 PUSH1 0xE0 SHL DUP2 MSTORE PUSH1 0x21 PUSH1 0x4 MSTORE PUSH1 0x24 SWAP1 REVERT JUMPDEST SWAP1 POP RETURNDATASIZE DUP1 DUP4 DUP4 RETURNDATACOPY PUSH2 0x108F DUP2 DUP4 PUSH2 0x1D92 JUMP JUMPDEST DUP2 ADD SWAP1 PUSH1 0x20 DUP2 DUP4 SUB SLT PUSH2 0x552 JUMPI DUP1 MLOAD SWAP1 PUSH1 0x1 PUSH1 0x1 PUSH1 0x40 SHL SUB DUP3 GT PUSH2 0x1206 JUMPI ADD PUSH2 0x240 DUP2 DUP4 SUB SLT PUSH2 0x552 JUMPI PUSH1 0x40 MLOAD SWAP2 PUSH2 0x10C6 DUP4 PUSH2 0x1D5A JUMP JUMPDEST DUP2 MLOAD DUP4 MSTORE PUSH1 0x20 DUP3 ADD MLOAD PUSH1 0x20 DUP5 ADD MSTORE PUSH2 0x10E0 PUSH1 0x40 DUP4 ADD PUSH2 0x1E98 JUMP JUMPDEST PUSH1 0x40 DUP5 ADD MSTORE PUSH2 0x10F1 PUSH1 0x60 DUP4 ADD PUSH2 0x1E98 JUMP JUMPDEST PUSH1 0x60 DUP5 ADD MSTORE PUSH1 0x80 DUP3 ADD MLOAD PUSH1 0x80 DUP5 ADD MSTORE PUSH1 0xA0 DUP3 ADD MLOAD PUSH1 0xA0 DUP5 ADD MSTORE PUSH1 0xC0 DUP3 ADD MLOAD PUSH1 0xC0 DUP5 ADD MSTORE PUSH1 0xE0 DUP3 ADD MLOAD PUSH1 0xE0 DUP5 ADD MSTORE PUSH2 0x100 DUP3 ADD MLOAD PUSH1 0x5 DUP2 LT ISZERO PUSH2 0x54E JUMPI PUSH2 0x100 DUP5 ADD MSTORE PUSH2 0x120 DUP3 ADD MLOAD PUSH2 0x120 DUP5 ADD MSTORE PUSH2 0x140 DUP3 ADD MLOAD PUSH2 0x140 DUP5 ADD MSTORE PUSH2 0x160 DUP3 ADD MLOAD PUSH1 0x1 PUSH1 0x1 PUSH1 0x40 SHL SUB DUP2 GT PUSH2 0x54E JUMPI DUP2 PUSH2 0x116B SWAP2 DUP5 ADD PUSH2 0x1EAC JUMP JUMPDEST PUSH2 0x160 DUP5 ADD MSTORE PUSH2 0x117E PUSH2 0x180 DUP4 ADD PUSH2 0x1EF1 JUMP JUMPDEST PUSH2 0x180 DUP5 ADD MSTORE PUSH2 0x1191 PUSH2 0x1A0 DUP4 ADD PUSH2 0x1EF1 JUMP JUMPDEST PUSH2 0x1A0 DUP5 ADD MSTORE PUSH2 0x11A4 PUSH2 0x1C0 DUP4 ADD PUSH2 0x1E98 JUMP JUMPDEST PUSH2 0x1C0 DUP5 ADD MSTORE PUSH2 0x1E0 DUP3 ADD MLOAD PUSH2 0x1E0 DUP5 ADD MSTORE PUSH2 0x200 DUP3 ADD MLOAD PUSH1 0x1 PUSH1 0x1 PUSH1 0x40 SHL SUB DUP2 GT PUSH2 0x54E JUMPI DUP2 PUSH2 0x11D6 SWAP2 DUP5 ADD PUSH2 0x1EAC JUMP JUMPDEST PUSH2 0x200 DUP5 ADD MSTORE PUSH2 0x220 DUP3 ADD MLOAD PUSH1 0x1 PUSH1 0x1 PUSH1 0x40 SHL SUB DUP2 GT PUSH2 0x54E JUMPI PUSH2 0x11FA SWAP3 ADD PUSH2 0x1EAC JUMP JUMPDEST PUSH2 0x220 DUP3 ADD MSTORE CODESIZE PUSH2 0xF44 JUMP JUMPDEST DUP4 DUP1 REVERT JUMPDEST POP CALLVALUE PUSH2 0x278 JUMPI DUP1 PUSH1 0x3 NOT CALLDATASIZE ADD SLT PUSH2 0x278 JUMPI PUSH1 0x20 PUSH1 0xA SLOAD PUSH1 0x40 MLOAD SWAP1 DUP2 MSTORE RETURN JUMPDEST POP CALLVALUE PUSH2 0x278 JUMPI DUP1 PUSH1 0x3 NOT CALLDATASIZE ADD SLT PUSH2 0x278 JUMPI PUSH1 0x2 SLOAD PUSH1 0x40 MLOAD PUSH1 0x8 SWAP2 SWAP1 SWAP2 SHR PUSH1 0x1 PUSH1 0x1 PUSH1 0xA0 SHL SUB AND DUP2 MSTORE PUSH1 0x20 SWAP1 RETURN JUMPDEST POP CALLVALUE PUSH2 0x278 JUMPI PUSH1 0x20 CALLDATASIZE PUSH1 0x3 NOT ADD SLT PUSH2 0x278 JUMPI PUSH1 0x4 CALLDATALOAD PUSH2 0x1272 PUSH2 0x1F78 JUMP JUMPDEST SELFBALANCE DUP2 GT PUSH2 0x129A JUMPI DUP2 DUP1 DUP1 DUP1 SWAP4 DUP2 DUP2 ISZERO PUSH2 0x1291 JUMPI JUMPDEST CALLER SWAP1 CALL ISZERO PUSH2 0x914 JUMPI DUP1 RETURN JUMPDEST POP PUSH2 0x8FC PUSH2 0x1286 JUMP JUMPDEST PUSH1 0x40 MLOAD PUSH3 0x461BCD PUSH1 0xE5 SHL DUP2 MSTORE PUSH1 0x20 PUSH1 0x4 DUP3 ADD MSTORE PUSH1 0x14 PUSH1 0x24 DUP3 ADD MSTORE PUSH20 0x496E73756666696369656E742062616C616E6365 PUSH1 0x60 SHL PUSH1 0x44 DUP3 ADD MSTORE PUSH1 0x64 SWAP1 REVERT JUMPDEST POP CALLVALUE PUSH2 0x278 JUMPI DUP1 PUSH1 0x3 NOT CALLDATASIZE ADD SLT PUSH2 0x278 JUMPI PUSH1 0x20 PUSH1 0xFF PUSH1 0x2 SLOAD AND PUSH1 0x40 MLOAD SWAP1 ISZERO ISZERO DUP2 MSTORE RETURN JUMPDEST POP CALLVALUE PUSH2 0x278 JUMPI DUP1 PUSH1 0x3 NOT CALLDATASIZE ADD SLT PUSH2 0x278 JUMPI PUSH1 0x7 SLOAD PUSH1 0x8 SLOAD PUSH1 0x9 SLOAD PUSH1 0xA SLOAD PUSH1 0x40 DUP1 MLOAD SWAP5 DUP6 MSTORE PUSH1 0x20 DUP6 ADD SWAP4 SWAP1 SWAP4 MSTORE SWAP2 DUP4 ADD MSTORE PUSH1 0x60 DUP3 ADD MSTORE PUSH1 0x80 SWAP1 RETURN JUMPDEST POP CALLVALUE PUSH2 0x278 JUMPI PUSH1 0xA0 CALLDATASIZE PUSH1 0x3 NOT ADD SLT PUSH2 0x278 JUMPI PUSH2 0x134D PUSH2 0x1C75 JUMP JUMPDEST PUSH2 0x1355 PUSH2 0x1C90 JUMP JUMPDEST PUSH1 0x44 CALLDATALOAD PUSH1 0x1 PUSH1 0x1 PUSH1 0xA0 SHL SUB DUP2 AND SWAP3 SWAP2 SWAP1 DUP4 SWAP1 SUB PUSH2 0x1206 JUMPI PUSH1 0x64 CALLDATALOAD PUSH1 0x1 PUSH1 0x1 PUSH1 0xA0 SHL SUB DUP2 AND SWAP1 DUP2 SWAP1 SUB PUSH2 0x54E JUMPI PUSH1 0x84 CALLDATALOAD PUSH1 0x1 PUSH1 0x1 PUSH1 0xA0 SHL SUB DUP2 AND SWAP2 SWAP1 DUP3 SWAP1 SUB PUSH2 0xCAC JUMPI PUSH2 0x139F PUSH2 0x1F78 JUMP JUMPDEST PUSH1 0x1 PUSH1 0x1 PUSH1 0xA0 SHL SUB DUP5 AND SWAP3 DUP4 ISZERO PUSH2 0x15A3 JUMPI PUSH1 0x1 PUSH1 0x1 PUSH1 0xA0 SHL SUB AND SWAP5 DUP6 ISZERO PUSH2 0x155E JUMPI DUP1 ISZERO PUSH2 0x1519 JUMPI DUP2 ISZERO PUSH2 0x14C8 JUMPI DUP3 ISZERO PUSH2 0x1483 JUMPI PUSH32 0x9328B8A339026C96335157E9360553F8B14D24D378543F549ABC3F21E9B92C37 SWAP6 PUSH1 0xA0 SWAP6 PUSH1 0x2 SLOAD SWAP1 PUSH2 0x100 PUSH1 0x1 PUSH1 0xA8 SHL SUB SWAP1 PUSH1 0x8 SHL AND SWAP1 PUSH2 0x100 PUSH1 0x1 PUSH1 0xA8 SHL SUB NOT AND OR PUSH1 0x2 SSTORE DUP1 PUSH1 0x1 PUSH1 0x1 PUSH1 0x60 SHL SUB DUP8 SHL PUSH1 0x3 SLOAD AND OR PUSH1 0x3 SSTORE DUP2 PUSH1 0x1 PUSH1 0x1 PUSH1 0x60 SHL SUB DUP8 SHL PUSH1 0x4 SLOAD AND OR PUSH1 0x4 SSTORE DUP3 PUSH1 0x1 PUSH1 0x1 PUSH1 0x60 SHL SUB DUP8 SHL PUSH1 0x5 SLOAD AND OR PUSH1 0x5 SSTORE DUP4 PUSH1 0x1 PUSH1 0x1 PUSH1 0x60 SHL SUB DUP8 SHL PUSH1 0x6 SLOAD AND OR PUSH1 0x6 SSTORE PUSH1 0x40 MLOAD SWAP5 DUP6 MSTORE PUSH1 0x20 DUP6 ADD MSTORE PUSH1 0x40 DUP5 ADD MSTORE PUSH1 0x60 DUP4 ADD MSTORE PUSH1 0x80 DUP3 ADD MSTORE LOG1 DUP1 RETURN JUMPDEST PUSH1 0x40 MLOAD PUSH3 0x461BCD PUSH1 0xE5 SHL DUP2 MSTORE PUSH1 0x20 PUSH1 0x4 DUP3 ADD MSTORE PUSH1 0x1A PUSH1 0x24 DUP3 ADD MSTORE PUSH32 0x496E76616C69642072657075746174696F6E2061646472657373000000000000 PUSH1 0x44 DUP3 ADD MSTORE PUSH1 0x64 SWAP1 REVERT JUMPDEST PUSH1 0x40 MLOAD PUSH3 0x461BCD PUSH1 0xE5 SHL DUP2 MSTORE PUSH1 0x20 PUSH1 0x4 DUP3 ADD MSTORE PUSH1 0x24 DUP1 DUP3 ADD MSTORE PUSH32 0x496E76616C696420737562736372697074696F6E206D616E6167657220616464 PUSH1 0x44 DUP3 ADD MSTORE PUSH4 0x72657373 PUSH1 0xE0 SHL PUSH1 0x64 DUP3 ADD MSTORE PUSH1 0x84 SWAP1 REVERT JUMPDEST PUSH1 0x40 MLOAD PUSH3 0x461BCD PUSH1 0xE5 SHL DUP2 MSTORE PUSH1 0x20 PUSH1 0x4 DUP3 ADD MSTORE PUSH1 0x1B PUSH1 0x24 DUP3 ADD MSTORE PUSH32 0x496E76616C6964206172626974726174696F6E20616464726573730000000000 PUSH1 0x44 DUP3 ADD MSTORE PUSH1 0x64 SWAP1 REVERT JUMPDEST PUSH1 0x40 MLOAD PUSH3 0x461BCD PUSH1 0xE5 SHL DUP2 MSTORE PUSH1 0x20 PUSH1 0x4 DUP3 ADD MSTORE PUSH1 0x1D PUSH1 0x24 DUP3 ADD MSTORE PUSH32 0x496E76616C69642072656E74616C20657363726F772061646472657373000000 PUSH1 0x44 DUP3 ADD MSTORE PUSH1 0x64 SWAP1 REVERT JUMPDEST PUSH1 0x64 PUSH1 0x40 MLOAD PUSH3 0x461BCD PUSH1 0xE5 SHL DUP2 MSTORE PUSH1 0x20 PUSH1 0x4 DUP3 ADD MSTORE PUSH1 0x20 PUSH1 0x24 DUP3 ADD MSTORE PUSH32 0x496E76616C6964206C697374696E672072656769737472792061646472657373 PUSH1 0x44 DUP3 ADD MSTORE REVERT JUMPDEST POP CALLVALUE PUSH2 0x278 JUMPI PUSH1 0x40 CALLDATASIZE PUSH1 0x3 NOT ADD SLT PUSH2 0x278 JUMPI PUSH2 0x1601 PUSH2 0x1C90 JUMP JUMPDEST CALLER PUSH1 0x1 PUSH1 0x1 PUSH1 0xA0 SHL SUB DUP3 AND SUB PUSH2 0x161D JUMPI PUSH2 0x38F SWAP1 PUSH1 0x4 CALLDATALOAD PUSH2 0x20B0 JUMP JUMPDEST PUSH4 0x334BD919 PUSH1 0xE1 SHL DUP3 MSTORE PUSH1 0x4 DUP3 REVERT JUMPDEST POP CALLVALUE PUSH2 0x278 JUMPI PUSH1 0x40 CALLDATASIZE PUSH1 0x3 NOT ADD SLT PUSH2 0x278 JUMPI PUSH2 0x38F PUSH1 0x4 CALLDATALOAD PUSH2 0x164C PUSH2 0x1C90 JUMP JUMPDEST SWAP1 PUSH2 0x1668 PUSH2 0x385 DUP3 PUSH1 0x0 MSTORE PUSH1 0x0 PUSH1 0x20 MSTORE PUSH1 0x1 PUSH1 0x40 PUSH1 0x0 KECCAK256 ADD SLOAD SWAP1 JUMP JUMPDEST PUSH2 0x2025 JUMP JUMPDEST POP CALLVALUE PUSH2 0x278 JUMPI PUSH1 0x20 CALLDATASIZE PUSH1 0x3 NOT ADD SLT PUSH2 0x278 JUMPI PUSH1 0x3 SLOAD DUP2 SWAP1 PUSH1 0x1 PUSH1 0x1 PUSH1 0xA0 SHL SUB AND DUP1 EXTCODESIZE ISZERO PUSH2 0x288 JUMPI DUP2 DUP1 SWAP2 PUSH1 0x24 PUSH1 0x40 MLOAD DUP1 SWAP5 DUP2 SWAP4 PUSH4 0x24DF1F7 PUSH1 0xE4 SHL DUP4 MSTORE PUSH1 0x4 CALLDATALOAD PUSH1 0x4 DUP5 ADD MSTORE GAS CALL DUP1 ISZERO PUSH2 0x27B JUMPI PUSH2 0x267 JUMPI POP RETURN JUMPDEST POP CALLVALUE PUSH2 0x278 JUMPI PUSH1 0x20 CALLDATASIZE PUSH1 0x3 NOT ADD SLT PUSH2 0x278 JUMPI PUSH1 0x20 PUSH2 0x16EF PUSH1 0x4 CALLDATALOAD PUSH1 0x0 MSTORE PUSH1 0x0 PUSH1 0x20 MSTORE PUSH1 0x1 PUSH1 0x40 PUSH1 0x0 KECCAK256 ADD SLOAD SWAP1 JUMP JUMPDEST PUSH1 0x40 MLOAD SWAP1 DUP2 MSTORE RETURN JUMPDEST POP CALLVALUE PUSH2 0x278 JUMPI DUP1 PUSH1 0x3 NOT CALLDATASIZE ADD SLT PUSH2 0x278 JUMPI PUSH2 0x1710 PUSH2 0x1F78 JUMP JUMPDEST PUSH1 0x2 SLOAD PUSH1 0xFF DUP2 AND ISZERO PUSH2 0x186B JUMPI PUSH1 0xFF NOT AND PUSH1 0x2 SSTORE PUSH32 0x5DB9EE0A495BF2E6FF9C91A7834C1BA4FDD244A5E8AA4E537BD38AEAE4B073AA PUSH1 0x20 PUSH1 0x40 MLOAD CALLER DUP2 MSTORE LOG1 PUSH1 0x3 SLOAD DUP2 SWAP1 PUSH1 0x1 PUSH1 0x1 PUSH1 0xA0 SHL SUB AND DUP1 EXTCODESIZE ISZERO PUSH2 0x288 JUMPI DUP2 DUP1 SWAP2 PUSH1 0x4 PUSH1 0x40 MLOAD DUP1 SWAP5 DUP2 SWAP4 PUSH4 0x1FA5D41D PUSH1 0xE1 SHL DUP4 MSTORE GAS CALL DUP1 ISZERO PUSH2 0x27B JUMPI PUSH2 0x1856 JUMPI JUMPDEST POP PUSH1 0x4 SLOAD PUSH1 0x1 PUSH1 0x1 PUSH1 0xA0 SHL SUB AND DUP1 EXTCODESIZE ISZERO PUSH2 0x288 JUMPI DUP2 DUP1 SWAP2 PUSH1 0x4 PUSH1 0x40 MLOAD DUP1 SWAP5 DUP2 SWAP4 PUSH4 0x1FA5D41D PUSH1 0xE1 SHL DUP4 MSTORE GAS CALL DUP1 ISZERO PUSH2 0x27B JUMPI PUSH2 0x1841 JUMPI JUMPDEST POP PUSH1 0x5 SLOAD PUSH1 0x1 PUSH1 0x1 PUSH1 0xA0 SHL SUB AND DUP1 EXTCODESIZE ISZERO PUSH2 0x288 JUMPI DUP2 DUP1 SWAP2 PUSH1 0x4 PUSH1 0x40 MLOAD DUP1 SWAP5 DUP2 SWAP4 PUSH4 0x1FA5D41D PUSH1 0xE1 SHL DUP4 MSTORE GAS CALL DUP1 ISZERO PUSH2 0x27B JUMPI PUSH2 0x182C JUMPI JUMPDEST POP PUSH1 0x6 SLOAD PUSH1 0x1 PUSH1 0x1 PUSH1 0xA0 SHL SUB AND DUP1 EXTCODESIZE ISZERO PUSH2 0x288 JUMPI DUP2 DUP1 SWAP2 PUSH1 0x4 PUSH1 0x40 MLOAD DUP1 SWAP5 DUP2 SWAP4 PUSH4 0x1FA5D41D PUSH1 0xE1 SHL DUP4 MSTORE GAS CALL DUP1 ISZERO PUSH2 0x27B JUMPI PUSH2 0x267 JUMPI POP RETURN JUMPDEST DUP2 PUSH2 0x1836 SWAP2 PUSH2 0x1D92 JUMP JUMPDEST PUSH2 0x278 JUMPI DUP1 CODESIZE PUSH2 0x17F3 JUMP JUMPDEST DUP2 PUSH2 0x184B SWAP2 PUSH2 0x1D92 JUMP JUMPDEST PUSH2 0x278 JUMPI DUP1 CODESIZE PUSH2 0x17BC JUMP JUMPDEST DUP2 PUSH2 0x1860 SWAP2 PUSH2 0x1D92 JUMP JUMPDEST PUSH2 0x278 JUMPI DUP1 CODESIZE PUSH2 0x1785 JUMP JUMPDEST PUSH4 0x8DFC202B PUSH1 0xE0 SHL DUP3 MSTORE PUSH1 0x4 DUP3 REVERT JUMPDEST POP CALLVALUE PUSH2 0x278 JUMPI PUSH1 0x20 CALLDATASIZE PUSH1 0x3 NOT ADD SLT PUSH2 0x278 JUMPI DUP1 PUSH1 0x24 SWAP2 PUSH2 0x120 PUSH1 0x40 MLOAD PUSH2 0x189F DUP2 PUSH2 0x1D28 JUMP JUMPDEST DUP3 DUP2 MSTORE DUP3 PUSH1 0x20 DUP3 ADD MSTORE PUSH1 0x60 PUSH1 0x40 DUP3 ADD MSTORE PUSH1 0x60 DUP1 DUP3 ADD MSTORE DUP3 PUSH1 0x80 DUP3 ADD MSTORE DUP3 PUSH1 0xA0 DUP3 ADD MSTORE DUP3 PUSH1 0xC0 DUP3 ADD MSTORE PUSH1 0x60 PUSH1 0xE0 DUP3 ADD MSTORE DUP3 PUSH2 0x100 DUP3 ADD MSTORE ADD MSTORE DUP1 PUSH1 0x1 DUP1 PUSH1 0xA0 SHL SUB PUSH1 0x2 SLOAD PUSH1 0x8 SHR AND PUSH1 0x40 MLOAD SWAP4 DUP5 DUP1 SWAP3 PUSH4 0x83D13A5 PUSH1 0xE1 SHL DUP3 MSTORE PUSH1 0x4 CALLDATALOAD PUSH1 0x4 DUP4 ADD MSTORE GAS STATICCALL SWAP2 DUP3 ISZERO PUSH2 0x1ACB JUMPI DUP2 SWAP3 PUSH2 0x19BA JUMPI JUMPDEST DUP3 PUSH1 0x40 MLOAD DUP1 SWAP2 PUSH1 0x20 DUP3 MSTORE DUP1 MLOAD PUSH1 0x20 DUP4 ADD MSTORE PUSH1 0x1 DUP1 PUSH1 0xA0 SHL SUB PUSH1 0x20 DUP3 ADD MLOAD AND PUSH1 0x40 DUP4 ADD MSTORE PUSH2 0x120 PUSH2 0x19A3 PUSH2 0x196C PUSH2 0x1956 PUSH1 0x40 DUP6 ADD MLOAD PUSH2 0x140 PUSH1 0x60 DUP9 ADD MSTORE PUSH2 0x160 DUP8 ADD SWAP1 PUSH2 0x1D03 JUMP JUMPDEST PUSH1 0x60 DUP6 ADD MLOAD DUP7 DUP3 SUB PUSH1 0x1F NOT ADD PUSH1 0x80 DUP9 ADD MSTORE PUSH2 0x1D03 JUMP JUMPDEST PUSH1 0x80 DUP5 ADD MLOAD PUSH1 0xA0 DUP7 ADD MSTORE PUSH1 0xA0 DUP5 ADD MLOAD PUSH1 0xC0 DUP7 ADD MSTORE PUSH1 0xC0 DUP5 ADD MLOAD ISZERO ISZERO PUSH1 0xE0 DUP7 ADD MSTORE PUSH1 0xE0 DUP5 ADD MLOAD PUSH1 0x1F NOT DUP7 DUP4 SUB ADD PUSH2 0x100 DUP8 ADD MSTORE PUSH2 0x1D03 JUMP JUMPDEST SWAP2 PUSH2 0x100 DUP2 ADD MLOAD DUP3 DUP6 ADD MSTORE ADD MLOAD PUSH2 0x140 DUP4 ADD MSTORE SUB SWAP1 RETURN JUMPDEST SWAP1 SWAP2 POP RETURNDATASIZE DUP1 DUP4 DUP4 RETURNDATACOPY PUSH2 0x19CC DUP2 DUP4 PUSH2 0x1D92 JUMP JUMPDEST DUP2 ADD SWAP1 PUSH1 0x20 DUP2 DUP4 SUB SLT PUSH2 0x552 JUMPI DUP1 MLOAD SWAP1 PUSH1 0x1 PUSH1 0x1 PUSH1 0x40 SHL SUB DUP3 GT PUSH2 0x1206 JUMPI ADD SWAP1 PUSH2 0x140 DUP3 DUP3 SUB SLT PUSH2 0x552 JUMPI PUSH1 0x40 MLOAD SWAP3 PUSH2 0x1A04 DUP5 PUSH2 0x1D28 JUMP JUMPDEST DUP3 MLOAD DUP5 MSTORE PUSH2 0x1A14 PUSH1 0x20 DUP5 ADD PUSH2 0x1E98 JUMP JUMPDEST PUSH1 0x20 DUP6 ADD MSTORE PUSH1 0x40 DUP4 ADD MLOAD PUSH1 0x1 PUSH1 0x1 PUSH1 0x40 SHL SUB DUP2 GT PUSH2 0x556 JUMPI DUP3 PUSH2 0x1A38 SWAP2 DUP6 ADD PUSH2 0x1EAC JUMP JUMPDEST PUSH1 0x40 DUP6 ADD MSTORE PUSH1 0x60 DUP4 ADD MLOAD PUSH1 0x1 PUSH1 0x1 PUSH1 0x40 SHL SUB DUP2 GT PUSH2 0x556 JUMPI DUP3 PUSH2 0x1A5C SWAP2 DUP6 ADD PUSH2 0x1EAC JUMP JUMPDEST PUSH1 0x60 DUP6 ADD MSTORE PUSH1 0x80 DUP4 ADD MLOAD PUSH1 0x80 DUP6 ADD MSTORE PUSH1 0xA0 DUP4 ADD MLOAD PUSH1 0xA0 DUP6 ADD MSTORE PUSH2 0x1A81 PUSH1 0xC0 DUP5 ADD PUSH2 0x1EF1 JUMP JUMPDEST PUSH1 0xC0 DUP6 ADD MSTORE PUSH1 0xE0 DUP4 ADD MLOAD SWAP1 PUSH1 0x1 PUSH1 0x1 PUSH1 0x40 SHL SUB DUP3 GT PUSH2 0x278 JUMPI POP DUP3 SWAP2 PUSH2 0x1AAB SWAP2 PUSH2 0x120 SWAP5 ADD PUSH2 0x1EAC JUMP JUMPDEST PUSH1 0xE0 DUP5 ADD MSTORE PUSH2 0x100 DUP2 ADD MLOAD PUSH2 0x100 DUP5 ADD MSTORE ADD MLOAD PUSH2 0x120 DUP3 ADD MSTORE CODESIZE DUP1 PUSH2 0x190F JUMP JUMPDEST POP PUSH1 0x40 MLOAD SWAP1 RETURNDATASIZE SWAP1 DUP3 RETURNDATACOPY RETURNDATASIZE SWAP1 REVERT JUMPDEST POP CALLVALUE PUSH2 0x278 JUMPI PUSH1 0x20 CALLDATASIZE PUSH1 0x3 NOT ADD SLT PUSH2 0x278 JUMPI PUSH2 0x1AF2 PUSH2 0x1C75 JUMP JUMPDEST PUSH1 0x3 SLOAD PUSH1 0x40 MLOAD PUSH4 0xDB8011EF PUSH1 0xE0 SHL DUP2 MSTORE PUSH1 0x1 PUSH1 0x1 PUSH1 0xA0 SHL SUB SWAP3 DUP4 AND PUSH1 0x4 DUP3 ADD MSTORE SWAP2 DUP4 SWAP2 DUP4 SWAP2 PUSH1 0x24 SWAP2 DUP4 SWAP2 AND GAS STATICCALL SWAP1 DUP2 ISZERO PUSH2 0x27B JUMPI DUP3 PUSH2 0xB42 SWAP4 SWAP3 PUSH2 0xB46 JUMPI POP POP PUSH1 0x40 MLOAD SWAP2 DUP3 SWAP2 DUP3 PUSH2 0x1CA6 JUMP JUMPDEST POP PUSH1 0x60 CALLDATASIZE PUSH1 0x3 NOT ADD SLT PUSH2 0x278 JUMPI DUP1 PUSH1 0x4 CALLDATALOAD PUSH1 0x3 DUP2 LT ISZERO PUSH2 0x288 JUMPI PUSH1 0x44 CALLDATALOAD SWAP1 DUP2 ISZERO ISZERO DUP1 SWAP3 SUB PUSH2 0x286 JUMPI PUSH2 0x1B6E PUSH2 0x1F5B JUMP JUMPDEST PUSH1 0x5 SLOAD PUSH1 0x1 PUSH1 0x1 PUSH1 0xA0 SHL SUB AND SWAP2 DUP3 EXTCODESIZE ISZERO PUSH2 0xA45 JUMPI PUSH1 0x64 DUP5 SWAP3 PUSH1 0x40 MLOAD SWAP5 DUP6 SWAP4 DUP5 SWAP3 PUSH4 0x51CB525 PUSH1 0xE1 SHL DUP5 MSTORE PUSH1 0x4 DUP5 ADD MSTORE PUSH1 0x24 CALLDATALOAD PUSH1 0x24 DUP5 ADD MSTORE PUSH1 0x44 DUP4 ADD MSTORE CALLVALUE SWAP1 GAS CALL DUP1 ISZERO PUSH2 0x27B JUMPI PUSH2 0x267 JUMPI POP RETURN JUMPDEST POP PUSH1 0x20 CALLDATASIZE PUSH1 0x3 NOT ADD SLT PUSH2 0x278 JUMPI PUSH2 0x1BD0 PUSH2 0x1F5B JUMP JUMPDEST PUSH1 0x3 SLOAD PUSH1 0x1 PUSH1 0x1 PUSH1 0xA0 SHL SUB AND DUP2 DUP2 EXTCODESIZE ISZERO PUSH2 0x278 JUMPI DUP1 PUSH1 0x24 SWAP3 PUSH1 0x40 MLOAD SWAP4 DUP5 DUP1 SWAP3 PUSH4 0x1669403 PUSH1 0xE2 SHL DUP3 MSTORE PUSH1 0x4 CALLDATALOAD PUSH1 0x4 DUP4 ADD MSTORE CALLVALUE SWAP1 GAS CALL DUP1 ISZERO PUSH2 0x1ACB JUMPI PUSH2 0x1C12 JUMPI DUP1 RETURN JUMPDEST PUSH2 0x1C1B SWAP2 PUSH2 0x1D92 JUMP JUMPDEST CODESIZE DUP2 DUP1 RETURN JUMPDEST SWAP1 POP CALLVALUE PUSH2 0x556 JUMPI PUSH1 0x20 CALLDATASIZE PUSH1 0x3 NOT ADD SLT PUSH2 0x556 JUMPI PUSH1 0x4 CALLDATALOAD PUSH4 0xFFFFFFFF PUSH1 0xE0 SHL DUP2 AND DUP1 SWAP2 SUB PUSH2 0x552 JUMPI PUSH1 0x20 SWAP3 POP PUSH4 0x7965DB0B PUSH1 0xE0 SHL DUP2 EQ SWAP1 DUP2 ISZERO PUSH2 0x1C64 JUMPI JUMPDEST POP ISZERO ISZERO DUP2 MSTORE RETURN JUMPDEST PUSH4 0x1FFC9A7 PUSH1 0xE0 SHL EQ SWAP1 POP CODESIZE PUSH2 0x1C5D JUMP JUMPDEST PUSH1 0x4 CALLDATALOAD SWAP1 PUSH1 0x1 PUSH1 0x1 PUSH1 0xA0 SHL SUB DUP3 AND DUP3 SUB PUSH2 0x1C8B JUMPI JUMP JUMPDEST PUSH1 0x0 DUP1 REVERT JUMPDEST PUSH1 0x24 CALLDATALOAD SWAP1 PUSH1 0x1 PUSH1 0x1 PUSH1 0xA0 SHL SUB DUP3 AND DUP3 SUB PUSH2 0x1C8B JUMPI JUMP JUMPDEST PUSH1 0x20 PUSH1 0x40 DUP2 DUP4 ADD SWAP3 DUP3 DUP2 MSTORE DUP5 MLOAD DUP1 SWAP5 MSTORE ADD SWAP3 ADD SWAP1 PUSH1 0x0 JUMPDEST DUP2 DUP2 LT PUSH2 0x1CCA JUMPI POP POP POP SWAP1 JUMP JUMPDEST DUP3 MLOAD DUP5 MSTORE PUSH1 0x20 SWAP4 DUP5 ADD SWAP4 SWAP1 SWAP3 ADD SWAP2 PUSH1 0x1 ADD PUSH2 0x1CBD JUMP JUMPDEST PUSH1 0x0 JUMPDEST DUP4 DUP2 LT PUSH2 0x1CF3 JUMPI POP POP PUSH1 0x0 SWAP2 ADD MSTORE JUMP JUMPDEST DUP2 DUP2 ADD MLOAD DUP4 DUP3 ADD MSTORE PUSH1 0x20 ADD PUSH2 0x1CE3 JUMP JUMPDEST SWAP1 PUSH1 0x20 SWAP2 PUSH2 0x1D1C DUP2 MLOAD DUP1 SWAP3 DUP2 DUP6 MSTORE DUP6 DUP1 DUP7 ADD SWAP2 ADD PUSH2 0x1CE0 JUMP JUMPDEST PUSH1 0x1F ADD PUSH1 0x1F NOT AND ADD ADD SWAP1 JUMP JUMPDEST PUSH2 0x140 DUP2 ADD SWAP1 DUP2 LT PUSH1 0x1 PUSH1 0x1 PUSH1 0x40 SHL SUB DUP3 GT OR PUSH2 0x1D44 JUMPI PUSH1 0x40 MSTORE JUMP JUMPDEST PUSH4 0x4E487B71 PUSH1 0xE0 SHL PUSH1 0x0 MSTORE PUSH1 0x41 PUSH1 0x4 MSTORE PUSH1 0x24 PUSH1 0x0 REVERT JUMPDEST PUSH2 0x240 DUP2 ADD SWAP1 DUP2 LT PUSH1 0x1 PUSH1 0x1 PUSH1 0x40 SHL SUB DUP3 GT OR PUSH2 0x1D44 JUMPI PUSH1 0x40 MSTORE JUMP JUMPDEST PUSH2 0x120 DUP2 ADD SWAP1 DUP2 LT PUSH1 0x1 PUSH1 0x1 PUSH1 0x40 SHL SUB DUP3 GT OR PUSH2 0x1D44 JUMPI PUSH1 0x40 MSTORE JUMP JUMPDEST SWAP1 PUSH1 0x1F DUP1 NOT SWAP2 ADD AND DUP2 ADD SWAP1 DUP2 LT PUSH1 0x1 PUSH1 0x1 PUSH1 0x40 SHL SUB DUP3 GT OR PUSH2 0x1D44 JUMPI PUSH1 0x40 MSTORE JUMP JUMPDEST PUSH1 0x1 PUSH1 0x1 PUSH1 0x40 SHL SUB DUP2 GT PUSH2 0x1D44 JUMPI PUSH1 0x1F ADD PUSH1 0x1F NOT AND PUSH1 0x20 ADD SWAP1 JUMP JUMPDEST DUP2 PUSH1 0x1F DUP3 ADD SLT ISZERO PUSH2 0x1C8B JUMPI DUP1 CALLDATALOAD SWAP1 PUSH2 0x1DE5 DUP3 PUSH2 0x1DB3 JUMP JUMPDEST SWAP3 PUSH2 0x1DF3 PUSH1 0x40 MLOAD SWAP5 DUP6 PUSH2 0x1D92 JUMP JUMPDEST DUP3 DUP5 MSTORE PUSH1 0x20 DUP4 DUP4 ADD ADD GT PUSH2 0x1C8B JUMPI DUP2 PUSH1 0x0 SWAP3 PUSH1 0x20 DUP1 SWAP4 ADD DUP4 DUP7 ADD CALLDATACOPY DUP4 ADD ADD MSTORE SWAP1 JUMP JUMPDEST PUSH1 0x20 DUP2 DUP4 SUB SLT PUSH2 0x1C8B JUMPI DUP1 MLOAD SWAP1 PUSH1 0x1 PUSH1 0x1 PUSH1 0x40 SHL SUB DUP3 GT PUSH2 0x1C8B JUMPI ADD SWAP1 DUP1 PUSH1 0x1F DUP4 ADD SLT ISZERO PUSH2 0x1C8B JUMPI DUP2 MLOAD SWAP2 PUSH1 0x1 PUSH1 0x1 PUSH1 0x40 SHL SUB DUP4 GT PUSH2 0x1D44 JUMPI DUP3 PUSH1 0x5 SHL SWAP1 PUSH1 0x40 MLOAD SWAP4 PUSH2 0x1E64 PUSH1 0x20 DUP5 ADD DUP7 PUSH2 0x1D92 JUMP JUMPDEST DUP5 MSTORE PUSH1 0x20 DUP1 DUP6 ADD SWAP3 DUP3 ADD ADD SWAP3 DUP4 GT PUSH2 0x1C8B JUMPI PUSH1 0x20 ADD SWAP1 JUMPDEST DUP3 DUP3 LT PUSH2 0x1E88 JUMPI POP POP POP SWAP1 JUMP JUMPDEST DUP2 MLOAD DUP2 MSTORE PUSH1 0x20 SWAP2 DUP3 ADD SWAP2 ADD PUSH2 0x1E7B JUMP JUMPDEST MLOAD SWAP1 PUSH1 0x1 PUSH1 0x1 PUSH1 0xA0 SHL SUB DUP3 AND DUP3 SUB PUSH2 0x1C8B JUMPI JUMP JUMPDEST DUP2 PUSH1 0x1F DUP3 ADD SLT ISZERO PUSH2 0x1C8B JUMPI DUP1 MLOAD PUSH2 0x1EC2 DUP2 PUSH2 0x1DB3 JUMP JUMPDEST SWAP3 PUSH2 0x1ED0 PUSH1 0x40 MLOAD SWAP5 DUP6 PUSH2 0x1D92 JUMP JUMPDEST DUP2 DUP5 MSTORE PUSH1 0x20 DUP3 DUP5 ADD ADD GT PUSH2 0x1C8B JUMPI PUSH2 0x1EEE SWAP2 PUSH1 0x20 DUP1 DUP6 ADD SWAP2 ADD PUSH2 0x1CE0 JUMP JUMPDEST SWAP1 JUMP JUMPDEST MLOAD SWAP1 DUP2 ISZERO ISZERO DUP3 SUB PUSH2 0x1C8B JUMPI JUMP JUMPDEST SWAP2 PUSH2 0x1F1B SWAP1 PUSH2 0x1EEE SWAP5 SWAP3 DUP5 MSTORE PUSH1 0x60 PUSH1 0x20 DUP6 ADD MSTORE PUSH1 0x60 DUP5 ADD SWAP1 PUSH2 0x1D03 JUMP JUMPDEST SWAP2 PUSH1 0x40 DUP2 DUP5 SUB SWAP2 ADD MSTORE PUSH2 0x1D03 JUMP JUMPDEST PUSH1 0x0 NOT DUP2 EQ PUSH2 0x1F38 JUMPI PUSH1 0x1 ADD SWAP1 JUMP JUMPDEST PUSH4 0x4E487B71 PUSH1 0xE0 SHL PUSH1 0x0 MSTORE PUSH1 0x11 PUSH1 0x4 MSTORE PUSH1 0x24 PUSH1 0x0 REVERT JUMPDEST SWAP2 SWAP1 DUP3 ADD DUP1 SWAP3 GT PUSH2 0x1F38 JUMPI JUMP JUMPDEST PUSH1 0xFF PUSH1 0x2 SLOAD AND PUSH2 0x1F67 JUMPI JUMP JUMPDEST PUSH4 0xD93C0665 PUSH1 0xE0 SHL PUSH1 0x0 MSTORE PUSH1 0x4 PUSH1 0x0 REVERT JUMPDEST CALLER PUSH1 0x0 SWAP1 DUP2 MSTORE PUSH32 0x7D7FFB7A348E1C6A02869081A26547B49160DD3DF72D1D75A570EB9B698292EC PUSH1 0x20 MSTORE PUSH1 0x40 SWAP1 KECCAK256 SLOAD PUSH1 0xFF AND ISZERO PUSH2 0x1FB1 JUMPI JUMP JUMPDEST PUSH4 0xE2517D3F PUSH1 0xE0 SHL PUSH1 0x0 MSTORE CALLER PUSH1 0x4 MSTORE PUSH32 0xA49807205CE4D355092EF5A8A18F56E8913CF4A201FBE287825B095693C21775 PUSH1 0x24 MSTORE PUSH1 0x44 PUSH1 0x0 REVERT JUMPDEST PUSH1 0x0 DUP2 DUP2 MSTORE PUSH1 0x20 DUP2 DUP2 MSTORE PUSH1 0x40 DUP1 DUP4 KECCAK256 CALLER DUP5 MSTORE SWAP1 SWAP2 MSTORE SWAP1 KECCAK256 SLOAD PUSH1 0xFF AND ISZERO PUSH2 0x200D JUMPI POP JUMP JUMPDEST PUSH4 0xE2517D3F PUSH1 0xE0 SHL PUSH1 0x0 MSTORE CALLER PUSH1 0x4 MSTORE PUSH1 0x24 MSTORE PUSH1 0x44 PUSH1 0x0 REVERT JUMPDEST PUSH1 0x0 DUP2 DUP2 MSTORE PUSH1 0x20 DUP2 DUP2 MSTORE PUSH1 0x40 DUP1 DUP4 KECCAK256 PUSH1 0x1 PUSH1 0x1 PUSH1 0xA0 SHL SUB DUP7 AND DUP5 MSTORE SWAP1 SWAP2 MSTORE SWAP1 KECCAK256 SLOAD PUSH1 0xFF AND PUSH2 0x20A9 JUMPI PUSH1 0x0 DUP2 DUP2 MSTORE PUSH1 0x20 DUP2 DUP2 MSTORE PUSH1 0x40 DUP1 DUP4 KECCAK256 PUSH1 0x1 PUSH1 0x1 PUSH1 0xA0 SHL SUB SWAP6 SWAP1 SWAP6 AND DUP1 DUP5 MSTORE SWAP5 SWAP1 SWAP2 MSTORE DUP2 KECCAK256 DUP1 SLOAD PUSH1 0xFF NOT AND PUSH1 0x1 OR SWAP1 SSTORE CALLER SWAP3 SWAP2 SWAP1 PUSH32 0x2F8788117E7EFF1D82E926EC794901D17C78024A50270940304540A733656F0D SWAP1 DUP1 LOG4 PUSH1 0x1 SWAP1 JUMP JUMPDEST POP POP PUSH1 0x0 SWAP1 JUMP JUMPDEST PUSH1 0x0 DUP2 DUP2 MSTORE PUSH1 0x20 DUP2 DUP2 MSTORE PUSH1 0x40 DUP1 DUP4 KECCAK256 PUSH1 0x1 PUSH1 0x1 PUSH1 0xA0 SHL SUB DUP7 AND DUP5 MSTORE SWAP1 SWAP2 MSTORE SWAP1 KECCAK256 SLOAD PUSH1 0xFF AND ISZERO PUSH2 0x20A9 JUMPI PUSH1 0x0 DUP2 DUP2 MSTORE PUSH1 0x20 DUP2 DUP2 MSTORE PUSH1 0x40 DUP1 DUP4 KECCAK256 PUSH1 0x1 PUSH1 0x1 PUSH1 0xA0 SHL SUB SWAP6 SWAP1 SWAP6 AND DUP1 DUP5 MSTORE SWAP5 SWAP1 SWAP2 MSTORE DUP2 KECCAK256 DUP1 SLOAD PUSH1 0xFF NOT AND SWAP1 SSTORE CALLER SWAP3 SWAP2 SWAP1 PUSH32 0xF6391F5C32D9C69D2A47EA670B442974B53935D1EDC7FD64EB21E047A839171B SWAP1 DUP1 LOG4 PUSH1 0x1 SWAP1 JUMP JUMPDEST PUSH1 0x7 SLOAD PUSH1 0x8 SLOAD PUSH1 0x9 SLOAD PUSH1 0xA SLOAD PUSH1 0x40 DUP1 MLOAD SWAP5 DUP6 MSTORE PUSH1 0x20 DUP6 ADD SWAP4 SWAP1 SWAP4 MSTORE SWAP2 DUP4 ADD MSTORE PUSH1 0x60 DUP3 ADD MSTORE PUSH32 0xB071B37BABBCC9E46C3C9012509AEDE8AC4050FBEBF8BC121816082742802CD9 SWAP1 PUSH1 0x80 SWAP1 LOG1 JUMP INVALID LOG2 PUSH5 0x6970667358 0x22 SLT KECCAK256 0xD5 0xA5 DUP15 PUSH23 0x1ADF798FBE22817AC3A01B749E5A80EB0CEBD9668A7E55 RETURN SWAP10 TIMESTAMP 0xA8 EXP PUSH5 0x736F6C6343 STOP ADDMOD SHR STOP CALLER 0x2F DUP8 DUP9 GT PUSH31 0x7EFF1D82E926EC794901D17C78024A50270940304540A733656F0D7D7FFB7A CALLVALUE DUP15 SHR PUSH11 0x2869081A26547B49160DD RETURNDATASIZE 0xF7 0x2D SAR PUSH22 0xA570EB9B698292ECAD3228B676F7D3CD4284A5443F17 CALL SWAP7 0x2B CALLDATASIZE 0xE4 SWAP2 0xB3 EXP BLOCKHASH 0xB2 BLOCKHASH PC BLOBHASH 0xE5 SWAP8 0xBA PUSH0 0xB5 "},"methodIdentifiers":{"ADMIN_ROLE()":"75b238fc","ARBITRATOR_ROLE()":"9cea0787","DEFAULT_ADMIN_ROLE()":"a217fddf","agreeReturn(uint256)":"24df1f70","arbitration()":"9b732350","createListing(string,string,uint256,uint256,string)":"cc2ee0fc","createRental(uint256,address,uint256,uint256,uint256,uint256)":"bd55cc3a","createReview(address,uint256,string,string,uint256,uint8)":"7d04470a","createSubscription(uint8,uint256,bool)":"0a396a4a","getContractBalance()":"6f9fb98a","getListing(uint256)":"107a274a","getPlatformStatistics()":"5603e860","getRental(uint256)":"652bd29e","getRoleAdmin(bytes32)":"248a9ca3","getUserListingHistory(address)":"9492e302","getUserRentalHistory(address)":"0fc376a7","getUserReputation(address)":"baccbfdb","grantRole(bytes32,address)":"2f2ff15d","hasPremiumFeature(address,uint256)":"ad36d666","hasRole(bytes32,address)":"91d14854","initializePlatform(address,address,address,address,address)":"49041359","listingRegistry()":"5ebf3e9b","makeDeposit(uint256)":"059a500c","makeDepositWithToken(uint256,address)":"fc78aef1","openDispute(uint256,string,string)":"a4e18cd7","pausePlatform()":"6b78c29b","paused()":"5c975abb","renounceRole(bytes32,address)":"36568abe","rentalEscrow()":"e970a120","reputation()":"c52164c6","revokeRole(bytes32,address)":"d547741f","signContract(uint256,string)":"fea14f5e","subscriptionManager()":"bf158fd2","supportsInterface(bytes4)":"01ffc9a7","totalDisputes()":"c5e4ccc4","totalListings()":"c78b616c","totalRentals()":"dd4b22d1","totalVolume()":"5f81a57c","unpausePlatform()":"1a9ba7eb","withdrawFees(uint256)":"5e318e07"}}}}}