{"contracts/Counter.sol":{"Counter":{"abi":[{"inputs":[],"name":"increment","outputs":[],"stateMutability":"nonpayable","type":"function"},{"inputs":[],"name":"number","outputs":[{"internalType":"uint256","name":"","type":"uint256"}],"stateMutability":"view","type":"function"},{"inputs":[{"internalType":"uint256","name":"newNumber","type":"uint256"}],"name":"setNumber","outputs":[],"stateMutability":"nonpayable","type":"function"}],"evm":{"bytecode":{"linkReferences":{},"object":"6080806040523460135760df908160198239f35b600080fdfe6080806040526004361015601257600080fd5b60003560e01c9081633fb5c1cb1460925781638381f58a146079575063d09de08a14603c57600080fd5b3460745760003660031901126074576000546000198114605e57600101600055005b634e487b7160e01b600052601160045260246000fd5b600080fd5b3460745760003660031901126074576020906000548152f35b34607457602036600319011260745760043560005500fea2646970667358221220dd2ef7235fd05fcf675f8e309145e8135a76e51dcdf8af8fae07620291189f3d64736f6c634300081c0033","opcodes":"PUSH1 0x80 DUP1 PUSH1 0x40 MSTORE CALLVALUE PUSH1 0x13 JUMPI PUSH1 0xDF SWAP1 DUP2 PUSH1 0x19 DUP3 CODECOPY RETURN JUMPDEST PUSH1 0x0 DUP1 REVERT INVALID PUSH1 0x80 DUP1 PUSH1 0x40 MSTORE PUSH1 0x4 CALLDATASIZE LT ISZERO PUSH1 0x12 JUMPI PUSH1 0x0 DUP1 REVERT JUMPDEST PUSH1 0x0 CALLDATALOAD PUSH1 0xE0 SHR SWAP1 DUP2 PUSH4 0x3FB5C1CB EQ PUSH1 0x92 JUMPI DUP2 PUSH4 0x8381F58A EQ PUSH1 0x79 JUMPI POP PUSH4 0xD09DE08A EQ PUSH1 0x3C JUMPI PUSH1 0x0 DUP1 REVERT JUMPDEST CALLVALUE PUSH1 0x74 JUMPI PUSH1 0x0 CALLDATASIZE PUSH1 0x3 NOT ADD SLT PUSH1 0x74 JUMPI PUSH1 0x0 SLOAD PUSH1 0x0 NOT DUP2 EQ PUSH1 0x5E JUMPI PUSH1 0x1 ADD PUSH1 0x0 SSTORE STOP JUMPDEST PUSH4 0x4E487B71 PUSH1 0xE0 SHL PUSH1 0x0 MSTORE PUSH1 0x11 PUSH1 0x4 MSTORE PUSH1 0x24 PUSH1 0x0 REVERT JUMPDEST PUSH1 0x0 DUP1 REVERT JUMPDEST CALLVALUE PUSH1 0x74 JUMPI PUSH1 0x0 CALLDATASIZE PUSH1 0x3 NOT ADD SLT PUSH1 0x74 JUMPI PUSH1 0x20 SWAP1 PUSH1 0x0 SLOAD DUP2 MSTORE RETURN JUMPDEST CALLVALUE PUSH1 0x74 JUMPI PUSH1 0x20 CALLDATASIZE PUSH1 0x3 NOT ADD SLT PUSH1 0x74 JUMPI PUSH1 0x4 CALLDATALOAD PUSH1 0x0 SSTORE STOP INVALID LOG2 PUSH5 0x6970667358 0x22 SLT KECCAK256 0xDD 0x2E 0xF7 0x23 PUSH0 0xD0 PUSH0 0xCF PUSH8 0x5F8E309145E8135A PUSH23 0xE51DCDF8AF8FAE07620291189F3D64736F6C634300081C STOP CALLER "},"methodIdentifiers":{"increment()":"d09de08a","number()":"8381f58a","setNumber(uint256)":"3fb5c1cb"}}}}}