{"contracts/SubscriptionManager.sol":{"SubscriptionManager":{"abi":[{"inputs":[],"stateMutability":"nonpayable","type":"constructor"},{"inputs":[],"name":"AccessControlBadConfirmation","type":"error"},{"inputs":[{"internalType":"address","name":"account","type":"address"},{"internalType":"bytes32","name":"neededRole","type":"bytes32"}],"name":"AccessControlUnauthorizedAccount","type":"error"},{"inputs":[],"name":"EnforcedPause","type":"error"},{"inputs":[],"name":"ExpectedPause","type":"error"},{"inputs":[],"name":"ReentrancyGuardReentrantCall","type":"error"},{"anonymous":false,"inputs":[{"indexed":false,"internalType":"address","name":"account","type":"address"}],"name":"Paused","type":"event"},{"anonymous":false,"inputs":[{"indexed":false,"internalType":"enum SubscriptionManager.SubscriptionPlan","name":"plan","type":"uint8"},{"indexed":false,"internalType":"uint256","name":"monthlyPrice","type":"uint256"},{"indexed":false,"internalType":"uint256","name":"yearlyPrice","type":"uint256"}],"name":"PlanUpdated","type":"event"},{"anonymous":false,"inputs":[{"indexed":true,"internalType":"bytes32","name":"role","type":"bytes32"},{"indexed":true,"internalType":"bytes32","name":"previousAdminRole","type":"bytes32"},{"indexed":true,"internalType":"bytes32","name":"newAdminRole","type":"bytes32"}],"name":"RoleAdminChanged","type":"event"},{"anonymous":false,"inputs":[{"indexed":true,"internalType":"bytes32","name":"role","type":"bytes32"},{"indexed":true,"internalType":"address","name":"account","type":"address"},{"indexed":true,"internalType":"address","name":"sender","type":"address"}],"name":"RoleGranted","type":"event"},{"anonymous":false,"inputs":[{"indexed":true,"internalType":"bytes32","name":"role","type":"bytes32"},{"indexed":true,"internalType":"address","name":"account","type":"address"},{"indexed":true,"internalType":"address","name":"sender","type":"address"}],"name":"RoleRevoked","type":"event"},{"anonymous":false,"inputs":[{"indexed":true,"internalType":"uint256","name":"subscriptionId","type":"uint256"},{"indexed":true,"internalType":"address","name":"subscriber","type":"address"}],"name":"SubscriptionCancelled","type":"event"},{"anonymous":false,"inputs":[{"indexed":true,"internalType":"uint256","name":"subscriptionId","type":"uint256"},{"indexed":true,"internalType":"address","name":"subscriber","type":"address"},{"indexed":false,"internalType":"enum SubscriptionManager.SubscriptionPlan","name":"plan","type":"uint8"},{"indexed":false,"internalType":"uint256","name":"duration","type":"uint256"},{"indexed":false,"internalType":"uint256","name":"price","type":"uint256"},{"indexed":false,"internalType":"uint256","name":"expiresAt","type":"uint256"}],"name":"SubscriptionCreated","type":"event"},{"anonymous":false,"inputs":[{"indexed":true,"internalType":"uint256","name":"subscriptionId","type":"uint256"},{"indexed":true,"internalType":"address","name":"subscriber","type":"address"},{"indexed":false,"internalType":"uint256","name":"newExpiresAt","type":"uint256"}],"name":"SubscriptionRenewed","type":"event"},{"anonymous":false,"inputs":[{"indexed":false,"internalType":"address","name":"account","type":"address"}],"name":"Unpaused","type":"event"},{"inputs":[],"name":"ADMIN_ROLE","outputs":[{"internalType":"bytes32","name":"","type":"bytes32"}],"stateMutability":"view","type":"function"},{"inputs":[],"name":"DEFAULT_ADMIN_ROLE","outputs":[{"internalType":"bytes32","name":"","type":"bytes32"}],"stateMutability":"view","type":"function"},{"inputs":[],"name":"PREMIUM_MONTHLY_PRICE","outputs":[{"internalType":"uint256","name":"","type":"uint256"}],"stateMutability":"view","type":"function"},{"inputs":[],"name":"PRO_MONTHLY_PRICE","outputs":[{"internalType":"uint256","name":"","type":"uint256"}],"stateMutability":"view","type":"function"},{"inputs":[],"name":"YEARLY_DISCOUNT_BPS","outputs":[{"internalType":"uint256","name":"","type":"uint256"}],"stateMutability":"view","type":"function"},{"inputs":[{"internalType":"enum SubscriptionManager.SubscriptionPlan","name":"plan","type":"uint8"},{"internalType":"uint256","name":"duration","type":"uint256"}],"name":"calculatePrice","outputs":[{"internalType":"uint256","name":"","type":"uint256"}],"stateMutability":"view","type":"function"},{"inputs":[{"internalType":"uint256","name":"subscriptionId","type":"uint256"}],"name":"cancelSubscription","outputs":[],"stateMutability":"nonpayable","type":"function"},{"inputs":[{"internalType":"enum SubscriptionManager.SubscriptionPlan","name":"plan","type":"uint8"},{"internalType":"uint256","name":"duration","type":"uint256"},{"internalType":"bool","name":"autoRenew","type":"bool"}],"name":"createSubscription","outputs":[],"stateMutability":"payable","type":"function"},{"inputs":[],"name":"getContractBalance","outputs":[{"internalType":"uint256","name":"","type":"uint256"}],"stateMutability":"view","type":"function"},{"inputs":[{"internalType":"enum SubscriptionManager.SubscriptionPlan","name":"plan","type":"uint8"}],"name":"getPlanFeatures","outputs":[{"internalType":"uint256","name":"","type":"uint256"}],"stateMutability":"view","type":"function"},{"inputs":[{"internalType":"bytes32","name":"role","type":"bytes32"}],"name":"getRoleAdmin","outputs":[{"internalType":"bytes32","name":"","type":"bytes32"}],"stateMutability":"view","type":"function"},{"inputs":[{"internalType":"uint256","name":"subscriptionId","type":"uint256"}],"name":"getSubscription","outputs":[{"components":[{"internalType":"uint256","name":"subscriptionId","type":"uint256"},{"internalType":"address","name":"subscriber","type":"address"},{"internalType":"enum SubscriptionManager.SubscriptionPlan","name":"plan","type":"uint8"},{"internalType":"uint256","name":"createdAt","type":"uint256"},{"internalType":"uint256","name":"expiresAt","type":"uint256"},{"internalType":"bool","name":"isActive","type":"bool"},{"internalType":"bool","name":"autoRenew","type":"bool"},{"internalType":"uint256","name":"totalPaid","type":"uint256"}],"internalType":"struct SubscriptionManager.Subscription","name":"","type":"tuple"}],"stateMutability":"view","type":"function"},{"inputs":[{"internalType":"address","name":"user","type":"address"}],"name":"getUserPlan","outputs":[{"internalType":"enum SubscriptionManager.SubscriptionPlan","name":"","type":"uint8"}],"stateMutability":"view","type":"function"},{"inputs":[{"internalType":"address","name":"user","type":"address"}],"name":"getUserSubscriptions","outputs":[{"internalType":"uint256[]","name":"","type":"uint256[]"}],"stateMutability":"view","type":"function"},{"inputs":[{"internalType":"bytes32","name":"role","type":"bytes32"},{"internalType":"address","name":"account","type":"address"}],"name":"grantRole","outputs":[],"stateMutability":"nonpayable","type":"function"},{"inputs":[{"internalType":"address","name":"user","type":"address"}],"name":"hasActiveSubscription","outputs":[{"internalType":"bool","name":"","type":"bool"}],"stateMutability":"view","type":"function"},{"inputs":[{"internalType":"address","name":"user","type":"address"},{"internalType":"uint256","name":"feature","type":"uint256"}],"name":"hasFeature","outputs":[{"internalType":"bool","name":"","type":"bool"}],"stateMutability":"view","type":"function"},{"inputs":[{"internalType":"bytes32","name":"role","type":"bytes32"},{"internalType":"address","name":"account","type":"address"}],"name":"hasRole","outputs":[{"internalType":"bool","name":"","type":"bool"}],"stateMutability":"view","type":"function"},{"inputs":[],"name":"pause","outputs":[],"stateMutability":"nonpayable","type":"function"},{"inputs":[],"name":"paused","outputs":[{"internalType":"bool","name":"","type":"bool"}],"stateMutability":"view","type":"function"},{"inputs":[{"internalType":"enum SubscriptionManager.SubscriptionPlan","name":"","type":"uint8"}],"name":"planFeatures","outputs":[{"internalType":"uint256","name":"","type":"uint256"}],"stateMutability":"view","type":"function"},{"inputs":[{"internalType":"enum SubscriptionManager.SubscriptionPlan","name":"","type":"uint8"}],"name":"planPrices","outputs":[{"internalType":"uint256","name":"","type":"uint256"}],"stateMutability":"view","type":"function"},{"inputs":[{"internalType":"uint256","name":"subscriptionId","type":"uint256"}],"name":"processAutoRenewal","outputs":[],"stateMutability":"nonpayable","type":"function"},{"inputs":[{"internalType":"uint256","name":"subscriptionId","type":"uint256"},{"internalType":"uint256","name":"duration","type":"uint256"}],"name":"renewSubscription","outputs":[],"stateMutability":"payable","type":"function"},{"inputs":[{"internalType":"bytes32","name":"role","type":"bytes32"},{"internalType":"address","name":"callerConfirmation","type":"address"}],"name":"renounceRole","outputs":[],"stateMutability":"nonpayable","type":"function"},{"inputs":[{"internalType":"bytes32","name":"role","type":"bytes32"},{"internalType":"address","name":"account","type":"address"}],"name":"revokeRole","outputs":[],"stateMutability":"nonpayable","type":"function"},{"inputs":[{"internalType":"uint256","name":"","type":"uint256"}],"name":"subscriptions","outputs":[{"internalType":"uint256","name":"subscriptionId","type":"uint256"},{"internalType":"address","name":"subscriber","type":"address"},{"internalType":"enum SubscriptionManager.SubscriptionPlan","name":"plan","type":"uint8"},{"internalType":"uint256","name":"createdAt","type":"uint256"},{"internalType":"uint256","name":"expiresAt","type":"uint256"},{"internalType":"bool","name":"isActive","type":"bool"},{"internalType":"bool","name":"autoRenew","type":"bool"},{"internalType":"uint256","name":"totalPaid","type":"uint256"}],"stateMutability":"view","type":"function"},{"inputs":[{"internalType":"bytes4","name":"interfaceId","type":"bytes4"}],"name":"supportsInterface","outputs":[{"internalType":"bool","name":"","type":"bool"}],"stateMutability":"view","type":"function"},{"inputs":[{"internalType":"uint256","name":"subscriptionId","type":"uint256"}],"name":"toggleAutoRenewal","outputs":[],"stateMutability":"nonpayable","type":"function"},{"inputs":[],"name":"unpause","outputs":[],"stateMutability":"nonpayable","type":"function"},{"inputs":[{"internalType":"enum SubscriptionManager.SubscriptionPlan","name":"plan","type":"uint8"},{"internalType":"uint256","name":"features","type":"uint256"}],"name":"updatePlanFeatures","outputs":[],"stateMutability":"nonpayable","type":"function"},{"inputs":[{"internalType":"enum SubscriptionManager.SubscriptionPlan","name":"plan","type":"uint8"},{"internalType":"uint256","name":"monthlyPrice","type":"uint256"}],"name":"updatePlanPricing","outputs":[],"stateMutability":"nonpayable","type":"function"},{"inputs":[{"internalType":"address","name":"","type":"address"}],"name":"userActiveSubscription","outputs":[{"internalType":"uint256","name":"","type":"uint256"}],"stateMutability":"view","type":"function"},{"inputs":[{"internalType":"address","name":"","type":"address"},{"internalType":"uint256","name":"","type":"uint256"}],"name":"userSubscriptions","outputs":[{"internalType":"uint256","name":"","type":"uint256"}],"stateMutability":"view","type":"function"},{"inputs":[{"internalType":"uint256","name":"amount","type":"uint256"}],"name":"withdraw","outputs":[],"stateMutability":"nonpayable","type":"function"},{"stateMutability":"payable","type":"receive"}],"evm":{"bytecode":{"linkReferences":{},"object":"6080604052346100ff576001805561001633610104565b5061002033610180565b506801a055690d9db800007fb39221ace053465ec3453ce2b36430bd138b997ecea25c1043da0c366812b828556802b5e3af16b18800007fb7c774451310d1be4108bc180d1b52823cb0ee0274a6c0081bcaf94f115fb96d55600860205260007f5eff886ea0ce6ca488a3d6e336d6c0f75f46d19b42c06ce5ee98e42c96d256c781905560077fad67d757c34507f157cacfa2e3153e9f260a2244f30428821be7be64587ac55f5560029052601f7f6add646517a5b0f6793cd5891b7937d28a5b2981a5d88ebc7cd776088fea9041556040516119ae90816102198239f35b600080fd5b6001600160a01b0381166000908152600080516020611c07833981519152602052604090205460ff1661017a576001600160a01b03166000818152600080516020611c0783398151915260205260408120805460ff19166001179055339190600080516020611bc78339815191528180a4600190565b50600090565b6001600160a01b0381166000908152600080516020611be7833981519152602052604090205460ff1661017a576001600160a01b03166000818152600080516020611be783398151915260205260408120805460ff191660011790553391907fa49807205ce4d355092ef5a8a18f56e8913cf4a201fbe287825b095693c2177590600080516020611bc78339815191529080a460019056fe608080604052600436101561001d575b50361561001b57600080fd5b005b60003560e01c90816301ffc9a7146111ea575080630200a21a1461111e5780630a396a4a14610e265780632123508314610d57578063248a9ca314610d2a5780632d5bbf6014610c995780632e1a7d4d14610c0d5780632e6ca58814610b285780632f2ff15d14610ae857806336568abe14610aa25780633ca99916146104815780633f4ba83a14610a3957806346edacac14610a185780635c975abb146109f55780635ec403341461088f578063632ddc38146106e65780636e8bc608146106c35780636f9fb98a146106a7578063758fcb4a1461068a57806375b238fc1461064f57806380438349146106285780638456cb59146105ce57806391d14854146105815780639e26d4be1461055d578063a217fddf14610541578063b33187e714610519578063bb46613c146104df578063bebe4a57146104b2578063c8514d5814610481578063c95d6edc14610428578063c9638c7a14610404578063ce9d814414610374578063d547741f1461032f578063dc311dd3146101e25763e1076d15146101ab573861000f565b346101dd5760203660031901126101dd5760206101ce6101c961127f565b6116be565b6101db604051809261125c565bf35b600080fd5b346101dd5760203660031901126101dd57600435600060e0604051610206816113cb565b8281528260208201528260408201528260608201528260808201528260a08201528260c0820152015280600052600460205261025360018060a01b03600160406000200154161515611450565b6000526004602052610100604060002060405190610270826113cb565b8054825260018101546001600160a01b038116602084019081529160408401916102a09060a01c60ff16836113e8565b6002810154606085019081526003820154906080860191825261030b600484015494600560a089019560ff88161515875260ff60c08b019860081c161515885201549660e089019788526040519851895260018060a01b03905116602089015251604088019061125c565b51606086015251608085015251151560a084015251151560c08301525160e0820152f35b346101dd5760403660031901126101dd5761001b60043561034e611295565b9061036f61036a82600052600060205260016040600020015490565b6117f8565b6118f6565b346101dd5760203660031901126101dd5761001b6004358060005260046020526103af60018060a01b036001604060002001541633146113f4565b6000818152600460205260409020600101546103d5906001600160a01b03161515611450565b600090815260046020819052604090912001805461ff00198116600891821c60ff161590911b61ff0016179055565b346101dd5760003660031901126101dd5760206040516801a055690d9db800008152f35b346101dd5760403660031901126101dd5761044161127f565b6001600160a01b03166000908152600660205260409020805460243591908210156101dd57602091610472916112dd565b90549060031b1c604051908152f35b346101dd5760203660031901126101dd5760043560038110156101dd576104a96020916112c4565b54604051908152f35b346101dd5760203660031901126101dd5760206104d56104d061127f565b611607565b6040519015158152f35b346101dd5760203660031901126101dd576001600160a01b0361050061127f565b1660005260056020526020604060002054604051908152f35b346101dd5760203660031901126101dd5760043560038110156101dd576104a96020916112ab565b346101dd5760003660031901126101dd57602060405160008152f35b346101dd5760003660031901126101dd5760206040516802b5e3af16b18800008152f35b346101dd5760403660031901126101dd5761059a611295565b600435600052600060205260406000209060018060a01b0316600052602052602060ff604060002054166040519015158152f35b346101dd5760003660031901126101dd576105e7611786565b6105ef611855565b600160ff1960025416176002557f62e78cea01bee320cd4e420270b5ea74000d11b0c9f74754ebdbfc544b05a2586020604051338152a1005b346101dd5760403660031901126101dd5760206104d561064661127f565b6024359061152b565b346101dd5760003660031901126101dd5760206040517fa49807205ce4d355092ef5a8a18f56e8913cf4a201fbe287825b095693c217758152f35b346101dd5760003660031901126101dd5760206040516107d08152f35b346101dd5760003660031901126101dd57602047604051908152f35b346101dd576106e36106d43661123d565b91906106de611786565b6112c4565b55005b346101dd5760203660031901126101dd57600435610702611786565b600081815260046020526040902060010154610728906001600160a01b03161515611450565b80600052600460205260ff60046040600020015460081c161561084a5780600052600460205261076260ff6004604060002001541661149c565b806000526004602052600360406000200154421061080557806000526004602052600360406000200180549062278d0082018092116107ef5755600081815260046020908152604091829020600181015460039091015492519283526001600160a01b031692917f970c5bf2d1a1ad3de4ebd5b746400b020cc4dd6d43d466985f2801d86fb170999190a3005b634e487b7160e01b600052601160045260246000fd5b60405162461bcd60e51b815260206004820152601c60248201527f537562736372697074696f6e206e6f74206578706972656420796574000000006044820152606490fd5b60405162461bcd60e51b815260206004820152601860248201527f4175746f2d72656e6577616c206e6f7420656e61626c656400000000000000006044820152606490fd5b60403660031901126101dd576004356024356108a9611833565b8160005260046020526108cd60018060a01b036001604060002001541633146113f4565b6000828152600460205260409020600101546108f3906001600160a01b03161515611450565b6001811015806109ea575b6109079061130b565b81600052600460205261092460ff6004604060002001541661149c565b8160005260046020526109458160ff60016040600020015460a01c166114e8565b9061095282341015611368565b62278d0081029080820462278d0014901517156107ef5782600052600460205261098560036040600020019182546113be565b90558160005260046020526109a360056040600020019182546113be565b9055806000526004602052600360406000200154906040519182527f970c5bf2d1a1ad3de4ebd5b746400b020cc4dd6d43d466985f2801d86fb1709960203393a360018055005b50600c8111156108fe565b346101dd5760003660031901126101dd57602060ff600254166040519015158152f35b346101dd576020610a31610a2b3661123d565b906114e8565b604051908152f35b346101dd5760003660031901126101dd57610a52611786565b60025460ff811615610a915760ff19166002557f5db9ee0a495bf2e6ff9c91a7834c1ba4fdd244a5e8aa4e537bd38aeae4b073aa6020604051338152a1005b638dfc202b60e01b60005260046000fd5b346101dd5760403660031901126101dd57610abb611295565b336001600160a01b03821603610ad75761001b906004356118f6565b63334bd91960e11b60005260046000fd5b346101dd5760403660031901126101dd5761001b600435610b07611295565b90610b2361036a82600052600060205260016040600020015490565b611872565b346101dd5760203660031901126101dd576001600160a01b03610b4961127f565b1660005260066020526040600020604051908160208254918281520190819260005260206000209060005b818110610bf757505050829003601f01601f1916820167ffffffffffffffff811183821017610be157604081815260208083528451908301819052919283929183019160005b818110610bc8575050500390f35b8251845285945060209384019390920191600101610bba565b634e487b7160e01b600052604160045260246000fd5b8254845260209093019260019283019201610b74565b346101dd5760203660031901126101dd57600435610c29611786565b478111610c5d57600080808093818115610c54575b3390f115610c4857005b6040513d6000823e3d90fd5b506108fc610c3e565b60405162461bcd60e51b8152602060048201526014602482015273496e73756666696369656e742062616c616e636560601b6044820152606490fd5b346101dd5760203660031901126101dd576004356000526004602052610100604060002080549060ff6001820154916002810154600382015490610d04600560048501549401549560405197885260018060a01b038116602089015285604089019160a01c1661125c565b60608601526080850152818116151560a085015260081c16151560c083015260e0820152f35b346101dd5760203660031901126101dd576020610a31600435600052600060205260016040600020015490565b346101dd5760203660031901126101dd57600435806000526004602052610d8f60018060a01b036001604060002001541633146113f4565b600081815260046020526040902060010154610db5906001600160a01b03161515611450565b806000526004602052610dd260ff6004604060002001541661149c565b6000818152600460208181526040808420909201805461ffff1916905533808452600590915290822082905591907f533734a768f070673b823079652464b7e002bb51cdf15e3108209f397425225f9080a3005b60603660031901126101dd5760043560038110156101dd5760243590604435918215158093036101dd57610e58611833565b610e60611855565b60009282156110d9576001821015806110ce575b610e7d9061130b565b3384526005602052604084205461107d57610e9882846114e8565b610ea481341015611368565b600354926001840160035562278d00810281810462278d00148215171561106957610ecf90426113be565b928660405191610ede836113cb565b86835260208301903382526040840191610ef88a846113e8565b60608501428152608086019189835260a08701946001865260c08801948552604060e08901978b89528d815260046020522097518855600188019160018060a01b03905116825491516003811015611054576001600160a81b03199092161760a09190911b60ff60a01b161790555160028601555160038501559051600484018054925161ffff1990931691151560ff169190911791151560081b61ff0016919091179055600590519101553386526005602052836040872055338652600660205260408620805490680100000000000000008210156110405790610fe2916001820181556112dd565b81549060031b9086821b91600019901b1916179055611004604051809661125c565b6020850152604084015260608301527fd2aa549d5e1f5308abc8a82896e581aa47f5031f29e901af73e1c38928fde33260803393a36001805580f35b634e487b7160e01b88526041600452602488fd5b50634e487b7160e01b8f52602160045260248ffd5b634e487b7160e01b87526011600452602487fd5b60405162461bcd60e51b8152602060048201526024808201527f5573657220616c726561647920686173206163746976652073756273637269706044820152633a34b7b760e11b6064820152608490fd5b50600c821115610e74565b60405162461bcd60e51b815260206004820152601d60248201527f43616e6e6f742073756273637269626520746f206672656520706c616e0000006044820152606490fd5b346101dd5761112c3661123d565b611134611786565b8061113e836112ab565b5560009061114b836112ab565b5491600c830292808404600c14901517156111c2576107d083028381046107d014841517156111d657612710900483039283116111c2577f7f1d53317eaa3c7ba4a141735afa753a267faa0d47395a12ab844cd10b55d01d60608585856111b5604051809461125c565b60208301526040820152a1005b634e487b7160e01b81526011600452602490fd5b634e487b7160e01b82526011600452602482fd5b346101dd5760203660031901126101dd576004359063ffffffff60e01b82168092036101dd57602091637965db0b60e01b811490811561122c575b5015158152f35b6301ffc9a760e01b14905083611225565b60409060031901126101dd5760043560038110156101dd579060243590565b9060038210156112695752565b634e487b7160e01b600052602160045260246000fd5b600435906001600160a01b03821682036101dd57565b602435906001600160a01b03821682036101dd57565b6003811015611269576000526007602052604060002090565b6003811015611269576000526008602052604060002090565b80548210156112f55760005260206000200190600090565b634e487b7160e01b600052603260045260246000fd5b1561131257565b60405162461bcd60e51b815260206004820152602860248201527f4475726174696f6e206d757374206265206265747765656e203120616e64203160448201526732206d6f6e74687360c01b6064820152608490fd5b1561136f57565b60405162461bcd60e51b8152602060048201526014602482015273125b9cdd59999a58da595b9d081c185e5b595b9d60621b6044820152606490fd5b818102929181159184041417156107ef57565b919082018092116107ef57565b610100810190811067ffffffffffffffff821117610be157604052565b60038210156112695752565b156113fb57565b60405162461bcd60e51b815260206004820152602760248201527f4f6e6c7920737562736372696265722063616e20706572666f726d20746869736044820152661030b1ba34b7b760c91b6064820152608490fd5b1561145757565b60405162461bcd60e51b815260206004820152601b60248201527f537562736372697074696f6e20646f6573206e6f7420657869737400000000006044820152606490fd5b156114a357565b60405162461bcd60e51b815260206004820152601a60248201527f537562736372697074696f6e206973206e6f74206163746976650000000000006044820152606490fd5b6114fd826114f7600c936112ab565b546113ab565b91146115065790565b6107d081028181046107d014821517156107ef57612710900481039081116107ef5790565b6001600160a01b031660009081526005602052604090205480156115f65760005260046020526040600020604051611562816113cb565b8154815260018201546001600160a01b03811660208301526040820192906115909060a01c60ff16846113e8565b6002810154606083015260038101549081608084015260048101549260e0600560ff8616159360ff8515978860a087015260081c16151560c08501520154910152916115fd575b506115f657516003811015611269576115ef906112c4565b5416151590565b5050600090565b90504211386115d7565b6001600160a01b031660009081526005602052604090205480156116b8576000526004602052604060002060405161163e816113cb565b8154815260018201546001600160a01b03811660208301526116699060a01c60ff16604083016113e8565b6002820154606082015260038201549081608082015260e0600560048501549460ff8087161515968760a087015260081c16151560c08501520154910152816116b0575090565b905042111590565b50600090565b6001600160a01b031660009081526005602052604090205480156116b857600052600460205260406000206040516116f5816113cb565b8154815260018201546001600160a01b03811660208301526040820192906117239060a01c60ff16846113e8565b6002810154606083015260038101549081608084015260048101549260e0600560ff8616159360ff8515978860a087015260081c16151560c085015201549101529161177c575b506116b8575160038110156112695790565b905042113861176a565b3360009081527f7d7ffb7a348e1c6a02869081a26547b49160dd3df72d1d75a570eb9b698292ec602052604090205460ff16156117bf57565b63e2517d3f60e01b600052336004527fa49807205ce4d355092ef5a8a18f56e8913cf4a201fbe287825b095693c2177560245260446000fd5b60008181526020818152604080832033845290915290205460ff161561181b5750565b63e2517d3f60e01b6000523360045260245260446000fd5b600260015414611844576002600155565b633ee5aeb560e01b60005260046000fd5b60ff6002541661186157565b63d93c066560e01b60005260046000fd5b6000818152602081815260408083206001600160a01b038616845290915290205460ff166115f6576000818152602081815260408083206001600160a01b0395909516808452949091528120805460ff19166001179055339291907f2f8788117e7eff1d82e926ec794901d17c78024a50270940304540a733656f0d9080a4600190565b6000818152602081815260408083206001600160a01b038616845290915290205460ff16156115f6576000818152602081815260408083206001600160a01b0395909516808452949091528120805460ff19169055339291907ff6391f5c32d9c69d2a47ea670b442974b53935d1edc7fd64eb21e047a839171b9080a460019056fea264697066735822122056eb09af1e25f8c400e1cc2d2523e1b8bc14f14da78e0eee5d626ba52f9cbaf064736f6c634300081c00332f8788117e7eff1d82e926ec794901d17c78024a50270940304540a733656f0d7d7ffb7a348e1c6a02869081a26547b49160dd3df72d1d75a570eb9b698292ecad3228b676f7d3cd4284a5443f17f1962b36e491b30a40b2405849e597ba5fb5","opcodes":"PUSH1 0x80 PUSH1 0x40 MSTORE CALLVALUE PUSH2 0xFF JUMPI PUSH1 0x1 DUP1 SSTORE PUSH2 0x16 CALLER PUSH2 0x104 JUMP JUMPDEST POP PUSH2 0x20 CALLER PUSH2 0x180 JUMP JUMPDEST POP PUSH9 0x1A055690D9DB80000 PUSH32 0xB39221ACE053465EC3453CE2B36430BD138B997ECEA25C1043DA0C366812B828 SSTORE PUSH9 0x2B5E3AF16B1880000 PUSH32 0xB7C774451310D1BE4108BC180D1B52823CB0EE0274A6C0081BCAF94F115FB96D SSTORE PUSH1 0x8 PUSH1 0x20 MSTORE PUSH1 0x0 PUSH32 0x5EFF886EA0CE6CA488A3D6E336D6C0F75F46D19B42C06CE5EE98E42C96D256C7 DUP2 SWAP1 SSTORE PUSH1 0x7 PUSH32 0xAD67D757C34507F157CACFA2E3153E9F260A2244F30428821BE7BE64587AC55F SSTORE PUSH1 0x2 SWAP1 MSTORE PUSH1 0x1F PUSH32 0x6ADD646517A5B0F6793CD5891B7937D28A5B2981A5D88EBC7CD776088FEA9041 SSTORE PUSH1 0x40 MLOAD PUSH2 0x19AE SWAP1 DUP2 PUSH2 0x219 DUP3 CODECOPY RETURN JUMPDEST PUSH1 0x0 DUP1 REVERT JUMPDEST PUSH1 0x1 PUSH1 0x1 PUSH1 0xA0 SHL SUB DUP2 AND PUSH1 0x0 SWAP1 DUP2 MSTORE PUSH1 0x0 DUP1 MLOAD PUSH1 0x20 PUSH2 0x1C07 DUP4 CODECOPY DUP2 MLOAD SWAP2 MSTORE PUSH1 0x20 MSTORE PUSH1 0x40 SWAP1 KECCAK256 SLOAD PUSH1 0xFF AND PUSH2 0x17A JUMPI PUSH1 0x1 PUSH1 0x1 PUSH1 0xA0 SHL SUB AND PUSH1 0x0 DUP2 DUP2 MSTORE PUSH1 0x0 DUP1 MLOAD PUSH1 0x20 PUSH2 0x1C07 DUP4 CODECOPY DUP2 MLOAD SWAP2 MSTORE PUSH1 0x20 MSTORE PUSH1 0x40 DUP2 KECCAK256 DUP1 SLOAD PUSH1 0xFF NOT AND PUSH1 0x1 OR SWAP1 SSTORE CALLER SWAP2 SWAP1 PUSH1 0x0 DUP1 MLOAD PUSH1 0x20 PUSH2 0x1BC7 DUP4 CODECOPY DUP2 MLOAD SWAP2 MSTORE DUP2 DUP1 LOG4 PUSH1 0x1 SWAP1 JUMP JUMPDEST POP PUSH1 0x0 SWAP1 JUMP JUMPDEST PUSH1 0x1 PUSH1 0x1 PUSH1 0xA0 SHL SUB DUP2 AND PUSH1 0x0 SWAP1 DUP2 MSTORE PUSH1 0x0 DUP1 MLOAD PUSH1 0x20 PUSH2 0x1BE7 DUP4 CODECOPY DUP2 MLOAD SWAP2 MSTORE PUSH1 0x20 MSTORE PUSH1 0x40 SWAP1 KECCAK256 SLOAD PUSH1 0xFF AND PUSH2 0x17A JUMPI PUSH1 0x1 PUSH1 0x1 PUSH1 0xA0 SHL SUB AND PUSH1 0x0 DUP2 DUP2 MSTORE PUSH1 0x0 DUP1 MLOAD PUSH1 0x20 PUSH2 0x1BE7 DUP4 CODECOPY DUP2 MLOAD SWAP2 MSTORE PUSH1 0x20 MSTORE PUSH1 0x40 DUP2 KECCAK256 DUP1 SLOAD PUSH1 0xFF NOT AND PUSH1 0x1 OR SWAP1 SSTORE CALLER SWAP2 SWAP1 PUSH32 0xA49807205CE4D355092EF5A8A18F56E8913CF4A201FBE287825B095693C21775 SWAP1 PUSH1 0x0 DUP1 MLOAD PUSH1 0x20 PUSH2 0x1BC7 DUP4 CODECOPY DUP2 MLOAD SWAP2 MSTORE SWAP1 DUP1 LOG4 PUSH1 0x1 SWAP1 JUMP INVALID PUSH1 0x80 DUP1 PUSH1 0x40 MSTORE PUSH1 0x4 CALLDATASIZE LT ISZERO PUSH2 0x1D JUMPI JUMPDEST POP CALLDATASIZE ISZERO PUSH2 0x1B JUMPI PUSH1 0x0 DUP1 REVERT JUMPDEST STOP JUMPDEST PUSH1 0x0 CALLDATALOAD PUSH1 0xE0 SHR SWAP1 DUP2 PUSH4 0x1FFC9A7 EQ PUSH2 0x11EA JUMPI POP DUP1 PUSH4 0x200A21A EQ PUSH2 0x111E JUMPI DUP1 PUSH4 0xA396A4A EQ PUSH2 0xE26 JUMPI DUP1 PUSH4 0x21235083 EQ PUSH2 0xD57 JUMPI DUP1 PUSH4 0x248A9CA3 EQ PUSH2 0xD2A JUMPI DUP1 PUSH4 0x2D5BBF60 EQ PUSH2 0xC99 JUMPI DUP1 PUSH4 0x2E1A7D4D EQ PUSH2 0xC0D JUMPI DUP1 PUSH4 0x2E6CA588 EQ PUSH2 0xB28 JUMPI DUP1 PUSH4 0x2F2FF15D EQ PUSH2 0xAE8 JUMPI DUP1 PUSH4 0x36568ABE EQ PUSH2 0xAA2 JUMPI DUP1 PUSH4 0x3CA99916 EQ PUSH2 0x481 JUMPI DUP1 PUSH4 0x3F4BA83A EQ PUSH2 0xA39 JUMPI DUP1 PUSH4 0x46EDACAC EQ PUSH2 0xA18 JUMPI DUP1 PUSH4 0x5C975ABB EQ PUSH2 0x9F5 JUMPI DUP1 PUSH4 0x5EC40334 EQ PUSH2 0x88F JUMPI DUP1 PUSH4 0x632DDC38 EQ PUSH2 0x6E6 JUMPI DUP1 PUSH4 0x6E8BC608 EQ PUSH2 0x6C3 JUMPI DUP1 PUSH4 0x6F9FB98A EQ PUSH2 0x6A7 JUMPI DUP1 PUSH4 0x758FCB4A EQ PUSH2 0x68A JUMPI DUP1 PUSH4 0x75B238FC EQ PUSH2 0x64F JUMPI DUP1 PUSH4 0x80438349 EQ PUSH2 0x628 JUMPI DUP1 PUSH4 0x8456CB59 EQ PUSH2 0x5CE JUMPI DUP1 PUSH4 0x91D14854 EQ PUSH2 0x581 JUMPI DUP1 PUSH4 0x9E26D4BE EQ PUSH2 0x55D JUMPI DUP1 PUSH4 0xA217FDDF EQ PUSH2 0x541 JUMPI DUP1 PUSH4 0xB33187E7 EQ PUSH2 0x519 JUMPI DUP1 PUSH4 0xBB46613C EQ PUSH2 0x4DF JUMPI DUP1 PUSH4 0xBEBE4A57 EQ PUSH2 0x4B2 JUMPI DUP1 PUSH4 0xC8514D58 EQ PUSH2 0x481 JUMPI DUP1 PUSH4 0xC95D6EDC EQ PUSH2 0x428 JUMPI DUP1 PUSH4 0xC9638C7A EQ PUSH2 0x404 JUMPI DUP1 PUSH4 0xCE9D8144 EQ PUSH2 0x374 JUMPI DUP1 PUSH4 0xD547741F EQ PUSH2 0x32F JUMPI DUP1 PUSH4 0xDC311DD3 EQ PUSH2 0x1E2 JUMPI PUSH4 0xE1076D15 EQ PUSH2 0x1AB JUMPI CODESIZE PUSH2 0xF JUMP JUMPDEST CALLVALUE PUSH2 0x1DD JUMPI PUSH1 0x20 CALLDATASIZE PUSH1 0x3 NOT ADD SLT PUSH2 0x1DD JUMPI PUSH1 0x20 PUSH2 0x1CE PUSH2 0x1C9 PUSH2 0x127F JUMP JUMPDEST PUSH2 0x16BE JUMP JUMPDEST PUSH2 0x1DB PUSH1 0x40 MLOAD DUP1 SWAP3 PUSH2 0x125C JUMP JUMPDEST RETURN JUMPDEST PUSH1 0x0 DUP1 REVERT JUMPDEST CALLVALUE PUSH2 0x1DD JUMPI PUSH1 0x20 CALLDATASIZE PUSH1 0x3 NOT ADD SLT PUSH2 0x1DD JUMPI PUSH1 0x4 CALLDATALOAD PUSH1 0x0 PUSH1 0xE0 PUSH1 0x40 MLOAD PUSH2 0x206 DUP2 PUSH2 0x13CB JUMP JUMPDEST DUP3 DUP2 MSTORE DUP3 PUSH1 0x20 DUP3 ADD MSTORE DUP3 PUSH1 0x40 DUP3 ADD MSTORE DUP3 PUSH1 0x60 DUP3 ADD MSTORE DUP3 PUSH1 0x80 DUP3 ADD MSTORE DUP3 PUSH1 0xA0 DUP3 ADD MSTORE DUP3 PUSH1 0xC0 DUP3 ADD MSTORE ADD MSTORE DUP1 PUSH1 0x0 MSTORE PUSH1 0x4 PUSH1 0x20 MSTORE PUSH2 0x253 PUSH1 0x1 DUP1 PUSH1 0xA0 SHL SUB PUSH1 0x1 PUSH1 0x40 PUSH1 0x0 KECCAK256 ADD SLOAD AND ISZERO ISZERO PUSH2 0x1450 JUMP JUMPDEST PUSH1 0x0 MSTORE PUSH1 0x4 PUSH1 0x20 MSTORE PUSH2 0x100 PUSH1 0x40 PUSH1 0x0 KECCAK256 PUSH1 0x40 MLOAD SWAP1 PUSH2 0x270 DUP3 PUSH2 0x13CB JUMP JUMPDEST DUP1 SLOAD DUP3 MSTORE PUSH1 0x1 DUP2 ADD SLOAD PUSH1 0x1 PUSH1 0x1 PUSH1 0xA0 SHL SUB DUP2 AND PUSH1 0x20 DUP5 ADD SWAP1 DUP2 MSTORE SWAP2 PUSH1 0x40 DUP5 ADD SWAP2 PUSH2 0x2A0 SWAP1 PUSH1 0xA0 SHR PUSH1 0xFF AND DUP4 PUSH2 0x13E8 JUMP JUMPDEST PUSH1 0x2 DUP2 ADD SLOAD PUSH1 0x60 DUP6 ADD SWAP1 DUP2 MSTORE PUSH1 0x3 DUP3 ADD SLOAD SWAP1 PUSH1 0x80 DUP7 ADD SWAP2 DUP3 MSTORE PUSH2 0x30B PUSH1 0x4 DUP5 ADD SLOAD SWAP5 PUSH1 0x5 PUSH1 0xA0 DUP10 ADD SWAP6 PUSH1 0xFF DUP9 AND ISZERO ISZERO DUP8 MSTORE PUSH1 0xFF PUSH1 0xC0 DUP12 ADD SWAP9 PUSH1 0x8 SHR AND ISZERO ISZERO DUP9 MSTORE ADD SLOAD SWAP7 PUSH1 0xE0 DUP10 ADD SWAP8 DUP9 MSTORE PUSH1 0x40 MLOAD SWAP9 MLOAD DUP10 MSTORE PUSH1 0x1 DUP1 PUSH1 0xA0 SHL SUB SWAP1 MLOAD AND PUSH1 0x20 DUP10 ADD MSTORE MLOAD PUSH1 0x40 DUP9 ADD SWAP1 PUSH2 0x125C JUMP JUMPDEST MLOAD PUSH1 0x60 DUP7 ADD MSTORE MLOAD PUSH1 0x80 DUP6 ADD MSTORE MLOAD ISZERO ISZERO PUSH1 0xA0 DUP5 ADD MSTORE MLOAD ISZERO ISZERO PUSH1 0xC0 DUP4 ADD MSTORE MLOAD PUSH1 0xE0 DUP3 ADD MSTORE RETURN JUMPDEST CALLVALUE PUSH2 0x1DD JUMPI PUSH1 0x40 CALLDATASIZE PUSH1 0x3 NOT ADD SLT PUSH2 0x1DD JUMPI PUSH2 0x1B PUSH1 0x4 CALLDATALOAD PUSH2 0x34E PUSH2 0x1295 JUMP JUMPDEST SWAP1 PUSH2 0x36F PUSH2 0x36A DUP3 PUSH1 0x0 MSTORE PUSH1 0x0 PUSH1 0x20 MSTORE PUSH1 0x1 PUSH1 0x40 PUSH1 0x0 KECCAK256 ADD SLOAD SWAP1 JUMP JUMPDEST PUSH2 0x17F8 JUMP JUMPDEST PUSH2 0x18F6 JUMP JUMPDEST CALLVALUE PUSH2 0x1DD JUMPI PUSH1 0x20 CALLDATASIZE PUSH1 0x3 NOT ADD SLT PUSH2 0x1DD JUMPI PUSH2 0x1B PUSH1 0x4 CALLDATALOAD DUP1 PUSH1 0x0 MSTORE PUSH1 0x4 PUSH1 0x20 MSTORE PUSH2 0x3AF PUSH1 0x1 DUP1 PUSH1 0xA0 SHL SUB PUSH1 0x1 PUSH1 0x40 PUSH1 0x0 KECCAK256 ADD SLOAD AND CALLER EQ PUSH2 0x13F4 JUMP JUMPDEST PUSH1 0x0 DUP2 DUP2 MSTORE PUSH1 0x4 PUSH1 0x20 MSTORE PUSH1 0x40 SWAP1 KECCAK256 PUSH1 0x1 ADD SLOAD PUSH2 0x3D5 SWAP1 PUSH1 0x1 PUSH1 0x1 PUSH1 0xA0 SHL SUB AND ISZERO ISZERO PUSH2 0x1450 JUMP JUMPDEST PUSH1 0x0 SWAP1 DUP2 MSTORE PUSH1 0x4 PUSH1 0x20 DUP2 SWAP1 MSTORE PUSH1 0x40 SWAP1 SWAP2 KECCAK256 ADD DUP1 SLOAD PUSH2 0xFF00 NOT DUP2 AND PUSH1 0x8 SWAP2 DUP3 SHR PUSH1 0xFF AND ISZERO SWAP1 SWAP2 SHL PUSH2 0xFF00 AND OR SWAP1 SSTORE JUMP JUMPDEST CALLVALUE PUSH2 0x1DD JUMPI PUSH1 0x0 CALLDATASIZE PUSH1 0x3 NOT ADD SLT PUSH2 0x1DD JUMPI PUSH1 0x20 PUSH1 0x40 MLOAD PUSH9 0x1A055690D9DB80000 DUP2 MSTORE RETURN JUMPDEST CALLVALUE PUSH2 0x1DD JUMPI PUSH1 0x40 CALLDATASIZE PUSH1 0x3 NOT ADD SLT PUSH2 0x1DD JUMPI PUSH2 0x441 PUSH2 0x127F JUMP JUMPDEST PUSH1 0x1 PUSH1 0x1 PUSH1 0xA0 SHL SUB AND PUSH1 0x0 SWAP1 DUP2 MSTORE PUSH1 0x6 PUSH1 0x20 MSTORE PUSH1 0x40 SWAP1 KECCAK256 DUP1 SLOAD PUSH1 0x24 CALLDATALOAD SWAP2 SWAP1 DUP3 LT ISZERO PUSH2 0x1DD JUMPI PUSH1 0x20 SWAP2 PUSH2 0x472 SWAP2 PUSH2 0x12DD JUMP JUMPDEST SWAP1 SLOAD SWAP1 PUSH1 0x3 SHL SHR PUSH1 0x40 MLOAD SWAP1 DUP2 MSTORE RETURN JUMPDEST CALLVALUE PUSH2 0x1DD JUMPI PUSH1 0x20 CALLDATASIZE PUSH1 0x3 NOT ADD SLT PUSH2 0x1DD JUMPI PUSH1 0x4 CALLDATALOAD PUSH1 0x3 DUP2 LT ISZERO PUSH2 0x1DD JUMPI PUSH2 0x4A9 PUSH1 0x20 SWAP2 PUSH2 0x12C4 JUMP JUMPDEST SLOAD PUSH1 0x40 MLOAD SWAP1 DUP2 MSTORE RETURN JUMPDEST CALLVALUE PUSH2 0x1DD JUMPI PUSH1 0x20 CALLDATASIZE PUSH1 0x3 NOT ADD SLT PUSH2 0x1DD JUMPI PUSH1 0x20 PUSH2 0x4D5 PUSH2 0x4D0 PUSH2 0x127F JUMP JUMPDEST PUSH2 0x1607 JUMP JUMPDEST PUSH1 0x40 MLOAD SWAP1 ISZERO ISZERO DUP2 MSTORE RETURN JUMPDEST CALLVALUE PUSH2 0x1DD JUMPI PUSH1 0x20 CALLDATASIZE PUSH1 0x3 NOT ADD SLT PUSH2 0x1DD JUMPI PUSH1 0x1 PUSH1 0x1 PUSH1 0xA0 SHL SUB PUSH2 0x500 PUSH2 0x127F JUMP JUMPDEST AND PUSH1 0x0 MSTORE PUSH1 0x5 PUSH1 0x20 MSTORE PUSH1 0x20 PUSH1 0x40 PUSH1 0x0 KECCAK256 SLOAD PUSH1 0x40 MLOAD SWAP1 DUP2 MSTORE RETURN JUMPDEST CALLVALUE PUSH2 0x1DD JUMPI PUSH1 0x20 CALLDATASIZE PUSH1 0x3 NOT ADD SLT PUSH2 0x1DD JUMPI PUSH1 0x4 CALLDATALOAD PUSH1 0x3 DUP2 LT ISZERO PUSH2 0x1DD JUMPI PUSH2 0x4A9 PUSH1 0x20 SWAP2 PUSH2 0x12AB JUMP JUMPDEST CALLVALUE PUSH2 0x1DD JUMPI PUSH1 0x0 CALLDATASIZE PUSH1 0x3 NOT ADD SLT PUSH2 0x1DD JUMPI PUSH1 0x20 PUSH1 0x40 MLOAD PUSH1 0x0 DUP2 MSTORE RETURN JUMPDEST CALLVALUE PUSH2 0x1DD JUMPI PUSH1 0x0 CALLDATASIZE PUSH1 0x3 NOT ADD SLT PUSH2 0x1DD JUMPI PUSH1 0x20 PUSH1 0x40 MLOAD PUSH9 0x2B5E3AF16B1880000 DUP2 MSTORE RETURN JUMPDEST CALLVALUE PUSH2 0x1DD JUMPI PUSH1 0x40 CALLDATASIZE PUSH1 0x3 NOT ADD SLT PUSH2 0x1DD JUMPI PUSH2 0x59A PUSH2 0x1295 JUMP JUMPDEST PUSH1 0x4 CALLDATALOAD PUSH1 0x0 MSTORE PUSH1 0x0 PUSH1 0x20 MSTORE PUSH1 0x40 PUSH1 0x0 KECCAK256 SWAP1 PUSH1 0x1 DUP1 PUSH1 0xA0 SHL SUB AND PUSH1 0x0 MSTORE PUSH1 0x20 MSTORE PUSH1 0x20 PUSH1 0xFF PUSH1 0x40 PUSH1 0x0 KECCAK256 SLOAD AND PUSH1 0x40 MLOAD SWAP1 ISZERO ISZERO DUP2 MSTORE RETURN JUMPDEST CALLVALUE PUSH2 0x1DD JUMPI PUSH1 0x0 CALLDATASIZE PUSH1 0x3 NOT ADD SLT PUSH2 0x1DD JUMPI PUSH2 0x5E7 PUSH2 0x1786 JUMP JUMPDEST PUSH2 0x5EF PUSH2 0x1855 JUMP JUMPDEST PUSH1 0x1 PUSH1 0xFF NOT PUSH1 0x2 SLOAD AND OR PUSH1 0x2 SSTORE PUSH32 0x62E78CEA01BEE320CD4E420270B5EA74000D11B0C9F74754EBDBFC544B05A258 PUSH1 0x20 PUSH1 0x40 MLOAD CALLER DUP2 MSTORE LOG1 STOP JUMPDEST CALLVALUE PUSH2 0x1DD JUMPI PUSH1 0x40 CALLDATASIZE PUSH1 0x3 NOT ADD SLT PUSH2 0x1DD JUMPI PUSH1 0x20 PUSH2 0x4D5 PUSH2 0x646 PUSH2 0x127F JUMP JUMPDEST PUSH1 0x24 CALLDATALOAD SWAP1 PUSH2 0x152B JUMP JUMPDEST CALLVALUE PUSH2 0x1DD JUMPI PUSH1 0x0 CALLDATASIZE PUSH1 0x3 NOT ADD SLT PUSH2 0x1DD JUMPI PUSH1 0x20 PUSH1 0x40 MLOAD PUSH32 0xA49807205CE4D355092EF5A8A18F56E8913CF4A201FBE287825B095693C21775 DUP2 MSTORE RETURN JUMPDEST CALLVALUE PUSH2 0x1DD JUMPI PUSH1 0x0 CALLDATASIZE PUSH1 0x3 NOT ADD SLT PUSH2 0x1DD JUMPI PUSH1 0x20 PUSH1 0x40 MLOAD PUSH2 0x7D0 DUP2 MSTORE RETURN JUMPDEST CALLVALUE PUSH2 0x1DD JUMPI PUSH1 0x0 CALLDATASIZE PUSH1 0x3 NOT ADD SLT PUSH2 0x1DD JUMPI PUSH1 0x20 SELFBALANCE PUSH1 0x40 MLOAD SWAP1 DUP2 MSTORE RETURN JUMPDEST CALLVALUE PUSH2 0x1DD JUMPI PUSH2 0x6E3 PUSH2 0x6D4 CALLDATASIZE PUSH2 0x123D JUMP JUMPDEST SWAP2 SWAP1 PUSH2 0x6DE PUSH2 0x1786 JUMP JUMPDEST PUSH2 0x12C4 JUMP JUMPDEST SSTORE STOP JUMPDEST CALLVALUE PUSH2 0x1DD JUMPI PUSH1 0x20 CALLDATASIZE PUSH1 0x3 NOT ADD SLT PUSH2 0x1DD JUMPI PUSH1 0x4 CALLDATALOAD PUSH2 0x702 PUSH2 0x1786 JUMP JUMPDEST PUSH1 0x0 DUP2 DUP2 MSTORE PUSH1 0x4 PUSH1 0x20 MSTORE PUSH1 0x40 SWAP1 KECCAK256 PUSH1 0x1 ADD SLOAD PUSH2 0x728 SWAP1 PUSH1 0x1 PUSH1 0x1 PUSH1 0xA0 SHL SUB AND ISZERO ISZERO PUSH2 0x1450 JUMP JUMPDEST DUP1 PUSH1 0x0 MSTORE PUSH1 0x4 PUSH1 0x20 MSTORE PUSH1 0xFF PUSH1 0x4 PUSH1 0x40 PUSH1 0x0 KECCAK256 ADD SLOAD PUSH1 0x8 SHR AND ISZERO PUSH2 0x84A JUMPI DUP1 PUSH1 0x0 MSTORE PUSH1 0x4 PUSH1 0x20 MSTORE PUSH2 0x762 PUSH1 0xFF PUSH1 0x4 PUSH1 0x40 PUSH1 0x0 KECCAK256 ADD SLOAD AND PUSH2 0x149C JUMP JUMPDEST DUP1 PUSH1 0x0 MSTORE PUSH1 0x4 PUSH1 0x20 MSTORE PUSH1 0x3 PUSH1 0x40 PUSH1 0x0 KECCAK256 ADD SLOAD TIMESTAMP LT PUSH2 0x805 JUMPI DUP1 PUSH1 0x0 MSTORE PUSH1 0x4 PUSH1 0x20 MSTORE PUSH1 0x3 PUSH1 0x40 PUSH1 0x0 KECCAK256 ADD DUP1 SLOAD SWAP1 PUSH3 0x278D00 DUP3 ADD DUP1 SWAP3 GT PUSH2 0x7EF JUMPI SSTORE PUSH1 0x0 DUP2 DUP2 MSTORE PUSH1 0x4 PUSH1 0x20 SWAP1 DUP2 MSTORE PUSH1 0x40 SWAP2 DUP3 SWAP1 KECCAK256 PUSH1 0x1 DUP2 ADD SLOAD PUSH1 0x3 SWAP1 SWAP2 ADD SLOAD SWAP3 MLOAD SWAP3 DUP4 MSTORE PUSH1 0x1 PUSH1 0x1 PUSH1 0xA0 SHL SUB AND SWAP3 SWAP2 PUSH32 0x970C5BF2D1A1AD3DE4EBD5B746400B020CC4DD6D43D466985F2801D86FB17099 SWAP2 SWAP1 LOG3 STOP JUMPDEST PUSH4 0x4E487B71 PUSH1 0xE0 SHL PUSH1 0x0 MSTORE PUSH1 0x11 PUSH1 0x4 MSTORE PUSH1 0x24 PUSH1 0x0 REVERT JUMPDEST PUSH1 0x40 MLOAD PUSH3 0x461BCD PUSH1 0xE5 SHL DUP2 MSTORE PUSH1 0x20 PUSH1 0x4 DUP3 ADD MSTORE PUSH1 0x1C PUSH1 0x24 DUP3 ADD MSTORE PUSH32 0x537562736372697074696F6E206E6F7420657870697265642079657400000000 PUSH1 0x44 DUP3 ADD MSTORE PUSH1 0x64 SWAP1 REVERT JUMPDEST PUSH1 0x40 MLOAD PUSH3 0x461BCD PUSH1 0xE5 SHL DUP2 MSTORE PUSH1 0x20 PUSH1 0x4 DUP3 ADD MSTORE PUSH1 0x18 PUSH1 0x24 DUP3 ADD MSTORE PUSH32 0x4175746F2D72656E6577616C206E6F7420656E61626C65640000000000000000 PUSH1 0x44 DUP3 ADD MSTORE PUSH1 0x64 SWAP1 REVERT JUMPDEST PUSH1 0x40 CALLDATASIZE PUSH1 0x3 NOT ADD SLT PUSH2 0x1DD JUMPI PUSH1 0x4 CALLDATALOAD PUSH1 0x24 CALLDATALOAD PUSH2 0x8A9 PUSH2 0x1833 JUMP JUMPDEST DUP2 PUSH1 0x0 MSTORE PUSH1 0x4 PUSH1 0x20 MSTORE PUSH2 0x8CD PUSH1 0x1 DUP1 PUSH1 0xA0 SHL SUB PUSH1 0x1 PUSH1 0x40 PUSH1 0x0 KECCAK256 ADD SLOAD AND CALLER EQ PUSH2 0x13F4 JUMP JUMPDEST PUSH1 0x0 DUP3 DUP2 MSTORE PUSH1 0x4 PUSH1 0x20 MSTORE PUSH1 0x40 SWAP1 KECCAK256 PUSH1 0x1 ADD SLOAD PUSH2 0x8F3 SWAP1 PUSH1 0x1 PUSH1 0x1 PUSH1 0xA0 SHL SUB AND ISZERO ISZERO PUSH2 0x1450 JUMP JUMPDEST PUSH1 0x1 DUP2 LT ISZERO DUP1 PUSH2 0x9EA JUMPI JUMPDEST PUSH2 0x907 SWAP1 PUSH2 0x130B JUMP JUMPDEST DUP2 PUSH1 0x0 MSTORE PUSH1 0x4 PUSH1 0x20 MSTORE PUSH2 0x924 PUSH1 0xFF PUSH1 0x4 PUSH1 0x40 PUSH1 0x0 KECCAK256 ADD SLOAD AND PUSH2 0x149C JUMP JUMPDEST DUP2 PUSH1 0x0 MSTORE PUSH1 0x4 PUSH1 0x20 MSTORE PUSH2 0x945 DUP2 PUSH1 0xFF PUSH1 0x1 PUSH1 0x40 PUSH1 0x0 KECCAK256 ADD SLOAD PUSH1 0xA0 SHR AND PUSH2 0x14E8 JUMP JUMPDEST SWAP1 PUSH2 0x952 DUP3 CALLVALUE LT ISZERO PUSH2 0x1368 JUMP JUMPDEST PUSH3 0x278D00 DUP2 MUL SWAP1 DUP1 DUP3 DIV PUSH3 0x278D00 EQ SWAP1 ISZERO OR ISZERO PUSH2 0x7EF JUMPI DUP3 PUSH1 0x0 MSTORE PUSH1 0x4 PUSH1 0x20 MSTORE PUSH2 0x985 PUSH1 0x3 PUSH1 0x40 PUSH1 0x0 KECCAK256 ADD SWAP2 DUP3 SLOAD PUSH2 0x13BE JUMP JUMPDEST SWAP1 SSTORE DUP2 PUSH1 0x0 MSTORE PUSH1 0x4 PUSH1 0x20 MSTORE PUSH2 0x9A3 PUSH1 0x5 PUSH1 0x40 PUSH1 0x0 KECCAK256 ADD SWAP2 DUP3 SLOAD PUSH2 0x13BE JUMP JUMPDEST SWAP1 SSTORE DUP1 PUSH1 0x0 MSTORE PUSH1 0x4 PUSH1 0x20 MSTORE PUSH1 0x3 PUSH1 0x40 PUSH1 0x0 KECCAK256 ADD SLOAD SWAP1 PUSH1 0x40 MLOAD SWAP2 DUP3 MSTORE PUSH32 0x970C5BF2D1A1AD3DE4EBD5B746400B020CC4DD6D43D466985F2801D86FB17099 PUSH1 0x20 CALLER SWAP4 LOG3 PUSH1 0x1 DUP1 SSTORE STOP JUMPDEST POP PUSH1 0xC DUP2 GT ISZERO PUSH2 0x8FE JUMP JUMPDEST CALLVALUE PUSH2 0x1DD JUMPI PUSH1 0x0 CALLDATASIZE PUSH1 0x3 NOT ADD SLT PUSH2 0x1DD JUMPI PUSH1 0x20 PUSH1 0xFF PUSH1 0x2 SLOAD AND PUSH1 0x40 MLOAD SWAP1 ISZERO ISZERO DUP2 MSTORE RETURN JUMPDEST CALLVALUE PUSH2 0x1DD JUMPI PUSH1 0x20 PUSH2 0xA31 PUSH2 0xA2B CALLDATASIZE PUSH2 0x123D JUMP JUMPDEST SWAP1 PUSH2 0x14E8 JUMP JUMPDEST PUSH1 0x40 MLOAD SWAP1 DUP2 MSTORE RETURN JUMPDEST CALLVALUE PUSH2 0x1DD JUMPI PUSH1 0x0 CALLDATASIZE PUSH1 0x3 NOT ADD SLT PUSH2 0x1DD JUMPI PUSH2 0xA52 PUSH2 0x1786 JUMP JUMPDEST PUSH1 0x2 SLOAD PUSH1 0xFF DUP2 AND ISZERO PUSH2 0xA91 JUMPI PUSH1 0xFF NOT AND PUSH1 0x2 SSTORE PUSH32 0x5DB9EE0A495BF2E6FF9C91A7834C1BA4FDD244A5E8AA4E537BD38AEAE4B073AA PUSH1 0x20 PUSH1 0x40 MLOAD CALLER DUP2 MSTORE LOG1 STOP JUMPDEST PUSH4 0x8DFC202B PUSH1 0xE0 SHL PUSH1 0x0 MSTORE PUSH1 0x4 PUSH1 0x0 REVERT JUMPDEST CALLVALUE PUSH2 0x1DD JUMPI PUSH1 0x40 CALLDATASIZE PUSH1 0x3 NOT ADD SLT PUSH2 0x1DD JUMPI PUSH2 0xABB PUSH2 0x1295 JUMP JUMPDEST CALLER PUSH1 0x1 PUSH1 0x1 PUSH1 0xA0 SHL SUB DUP3 AND SUB PUSH2 0xAD7 JUMPI PUSH2 0x1B SWAP1 PUSH1 0x4 CALLDATALOAD PUSH2 0x18F6 JUMP JUMPDEST PUSH4 0x334BD919 PUSH1 0xE1 SHL PUSH1 0x0 MSTORE PUSH1 0x4 PUSH1 0x0 REVERT JUMPDEST CALLVALUE PUSH2 0x1DD JUMPI PUSH1 0x40 CALLDATASIZE PUSH1 0x3 NOT ADD SLT PUSH2 0x1DD JUMPI PUSH2 0x1B PUSH1 0x4 CALLDATALOAD PUSH2 0xB07 PUSH2 0x1295 JUMP JUMPDEST SWAP1 PUSH2 0xB23 PUSH2 0x36A DUP3 PUSH1 0x0 MSTORE PUSH1 0x0 PUSH1 0x20 MSTORE PUSH1 0x1 PUSH1 0x40 PUSH1 0x0 KECCAK256 ADD SLOAD SWAP1 JUMP JUMPDEST PUSH2 0x1872 JUMP JUMPDEST CALLVALUE PUSH2 0x1DD JUMPI PUSH1 0x20 CALLDATASIZE PUSH1 0x3 NOT ADD SLT PUSH2 0x1DD JUMPI PUSH1 0x1 PUSH1 0x1 PUSH1 0xA0 SHL SUB PUSH2 0xB49 PUSH2 0x127F JUMP JUMPDEST AND PUSH1 0x0 MSTORE PUSH1 0x6 PUSH1 0x20 MSTORE PUSH1 0x40 PUSH1 0x0 KECCAK256 PUSH1 0x40 MLOAD SWAP1 DUP2 PUSH1 0x20 DUP3 SLOAD SWAP2 DUP3 DUP2 MSTORE ADD SWAP1 DUP2 SWAP3 PUSH1 0x0 MSTORE PUSH1 0x20 PUSH1 0x0 KECCAK256 SWAP1 PUSH1 0x0 JUMPDEST DUP2 DUP2 LT PUSH2 0xBF7 JUMPI POP POP POP DUP3 SWAP1 SUB PUSH1 0x1F ADD PUSH1 0x1F NOT AND DUP3 ADD PUSH8 0xFFFFFFFFFFFFFFFF DUP2 GT DUP4 DUP3 LT OR PUSH2 0xBE1 JUMPI PUSH1 0x40 DUP2 DUP2 MSTORE PUSH1 0x20 DUP1 DUP4 MSTORE DUP5 MLOAD SWAP1 DUP4 ADD DUP2 SWAP1 MSTORE SWAP2 SWAP3 DUP4 SWAP3 SWAP2 DUP4 ADD SWAP2 PUSH1 0x0 JUMPDEST DUP2 DUP2 LT PUSH2 0xBC8 JUMPI POP POP POP SUB SWAP1 RETURN JUMPDEST DUP3 MLOAD DUP5 MSTORE DUP6 SWAP5 POP PUSH1 0x20 SWAP4 DUP5 ADD SWAP4 SWAP1 SWAP3 ADD SWAP2 PUSH1 0x1 ADD PUSH2 0xBBA JUMP JUMPDEST PUSH4 0x4E487B71 PUSH1 0xE0 SHL PUSH1 0x0 MSTORE PUSH1 0x41 PUSH1 0x4 MSTORE PUSH1 0x24 PUSH1 0x0 REVERT JUMPDEST DUP3 SLOAD DUP5 MSTORE PUSH1 0x20 SWAP1 SWAP4 ADD SWAP3 PUSH1 0x1 SWAP3 DUP4 ADD SWAP3 ADD PUSH2 0xB74 JUMP JUMPDEST CALLVALUE PUSH2 0x1DD JUMPI PUSH1 0x20 CALLDATASIZE PUSH1 0x3 NOT ADD SLT PUSH2 0x1DD JUMPI PUSH1 0x4 CALLDATALOAD PUSH2 0xC29 PUSH2 0x1786 JUMP JUMPDEST SELFBALANCE DUP2 GT PUSH2 0xC5D JUMPI PUSH1 0x0 DUP1 DUP1 DUP1 SWAP4 DUP2 DUP2 ISZERO PUSH2 0xC54 JUMPI JUMPDEST CALLER SWAP1 CALL ISZERO PUSH2 0xC48 JUMPI STOP JUMPDEST PUSH1 0x40 MLOAD RETURNDATASIZE PUSH1 0x0 DUP3 RETURNDATACOPY RETURNDATASIZE SWAP1 REVERT JUMPDEST POP PUSH2 0x8FC PUSH2 0xC3E JUMP JUMPDEST PUSH1 0x40 MLOAD PUSH3 0x461BCD PUSH1 0xE5 SHL DUP2 MSTORE PUSH1 0x20 PUSH1 0x4 DUP3 ADD MSTORE PUSH1 0x14 PUSH1 0x24 DUP3 ADD MSTORE PUSH20 0x496E73756666696369656E742062616C616E6365 PUSH1 0x60 SHL PUSH1 0x44 DUP3 ADD MSTORE PUSH1 0x64 SWAP1 REVERT JUMPDEST CALLVALUE PUSH2 0x1DD JUMPI PUSH1 0x20 CALLDATASIZE PUSH1 0x3 NOT ADD SLT PUSH2 0x1DD JUMPI PUSH1 0x4 CALLDATALOAD PUSH1 0x0 MSTORE PUSH1 0x4 PUSH1 0x20 MSTORE PUSH2 0x100 PUSH1 0x40 PUSH1 0x0 KECCAK256 DUP1 SLOAD SWAP1 PUSH1 0xFF PUSH1 0x1 DUP3 ADD SLOAD SWAP2 PUSH1 0x2 DUP2 ADD SLOAD PUSH1 0x3 DUP3 ADD SLOAD SWAP1 PUSH2 0xD04 PUSH1 0x5 PUSH1 0x4 DUP6 ADD SLOAD SWAP5 ADD SLOAD SWAP6 PUSH1 0x40 MLOAD SWAP8 DUP9 MSTORE PUSH1 0x1 DUP1 PUSH1 0xA0 SHL SUB DUP2 AND PUSH1 0x20 DUP10 ADD MSTORE DUP6 PUSH1 0x40 DUP10 ADD SWAP2 PUSH1 0xA0 SHR AND PUSH2 0x125C JUMP JUMPDEST PUSH1 0x60 DUP7 ADD MSTORE PUSH1 0x80 DUP6 ADD MSTORE DUP2 DUP2 AND ISZERO ISZERO PUSH1 0xA0 DUP6 ADD MSTORE PUSH1 0x8 SHR AND ISZERO ISZERO PUSH1 0xC0 DUP4 ADD MSTORE PUSH1 0xE0 DUP3 ADD MSTORE RETURN JUMPDEST CALLVALUE PUSH2 0x1DD JUMPI PUSH1 0x20 CALLDATASIZE PUSH1 0x3 NOT ADD SLT PUSH2 0x1DD JUMPI PUSH1 0x20 PUSH2 0xA31 PUSH1 0x4 CALLDATALOAD PUSH1 0x0 MSTORE PUSH1 0x0 PUSH1 0x20 MSTORE PUSH1 0x1 PUSH1 0x40 PUSH1 0x0 KECCAK256 ADD SLOAD SWAP1 JUMP JUMPDEST CALLVALUE PUSH2 0x1DD JUMPI PUSH1 0x20 CALLDATASIZE PUSH1 0x3 NOT ADD SLT PUSH2 0x1DD JUMPI PUSH1 0x4 CALLDATALOAD DUP1 PUSH1 0x0 MSTORE PUSH1 0x4 PUSH1 0x20 MSTORE PUSH2 0xD8F PUSH1 0x1 DUP1 PUSH1 0xA0 SHL SUB PUSH1 0x1 PUSH1 0x40 PUSH1 0x0 KECCAK256 ADD SLOAD AND CALLER EQ PUSH2 0x13F4 JUMP JUMPDEST PUSH1 0x0 DUP2 DUP2 MSTORE PUSH1 0x4 PUSH1 0x20 MSTORE PUSH1 0x40 SWAP1 KECCAK256 PUSH1 0x1 ADD SLOAD PUSH2 0xDB5 SWAP1 PUSH1 0x1 PUSH1 0x1 PUSH1 0xA0 SHL SUB AND ISZERO ISZERO PUSH2 0x1450 JUMP JUMPDEST DUP1 PUSH1 0x0 MSTORE PUSH1 0x4 PUSH1 0x20 MSTORE PUSH2 0xDD2 PUSH1 0xFF PUSH1 0x4 PUSH1 0x40 PUSH1 0x0 KECCAK256 ADD SLOAD AND PUSH2 0x149C JUMP JUMPDEST PUSH1 0x0 DUP2 DUP2 MSTORE PUSH1 0x4 PUSH1 0x20 DUP2 DUP2 MSTORE PUSH1 0x40 DUP1 DUP5 KECCAK256 SWAP1 SWAP3 ADD DUP1 SLOAD PUSH2 0xFFFF NOT AND SWAP1 SSTORE CALLER DUP1 DUP5 MSTORE PUSH1 0x5 SWAP1 SWAP2 MSTORE SWAP1 DUP3 KECCAK256 DUP3 SWAP1 SSTORE SWAP2 SWAP1 PUSH32 0x533734A768F070673B823079652464B7E002BB51CDF15E3108209F397425225F SWAP1 DUP1 LOG3 STOP JUMPDEST PUSH1 0x60 CALLDATASIZE PUSH1 0x3 NOT ADD SLT PUSH2 0x1DD JUMPI PUSH1 0x4 CALLDATALOAD PUSH1 0x3 DUP2 LT ISZERO PUSH2 0x1DD JUMPI PUSH1 0x24 CALLDATALOAD SWAP1 PUSH1 0x44 CALLDATALOAD SWAP2 DUP3 ISZERO ISZERO DUP1 SWAP4 SUB PUSH2 0x1DD JUMPI PUSH2 0xE58 PUSH2 0x1833 JUMP JUMPDEST PUSH2 0xE60 PUSH2 0x1855 JUMP JUMPDEST PUSH1 0x0 SWAP3 DUP3 ISZERO PUSH2 0x10D9 JUMPI PUSH1 0x1 DUP3 LT ISZERO DUP1 PUSH2 0x10CE JUMPI JUMPDEST PUSH2 0xE7D SWAP1 PUSH2 0x130B JUMP JUMPDEST CALLER DUP5 MSTORE PUSH1 0x5 PUSH1 0x20 MSTORE PUSH1 0x40 DUP5 KECCAK256 SLOAD PUSH2 0x107D JUMPI PUSH2 0xE98 DUP3 DUP5 PUSH2 0x14E8 JUMP JUMPDEST PUSH2 0xEA4 DUP2 CALLVALUE LT ISZERO PUSH2 0x1368 JUMP JUMPDEST PUSH1 0x3 SLOAD SWAP3 PUSH1 0x1 DUP5 ADD PUSH1 0x3 SSTORE PUSH3 0x278D00 DUP2 MUL DUP2 DUP2 DIV PUSH3 0x278D00 EQ DUP3 ISZERO OR ISZERO PUSH2 0x1069 JUMPI PUSH2 0xECF SWAP1 TIMESTAMP PUSH2 0x13BE JUMP JUMPDEST SWAP3 DUP7 PUSH1 0x40 MLOAD SWAP2 PUSH2 0xEDE DUP4 PUSH2 0x13CB JUMP JUMPDEST DUP7 DUP4 MSTORE PUSH1 0x20 DUP4 ADD SWAP1 CALLER DUP3 MSTORE PUSH1 0x40 DUP5 ADD SWAP2 PUSH2 0xEF8 DUP11 DUP5 PUSH2 0x13E8 JUMP JUMPDEST PUSH1 0x60 DUP6 ADD TIMESTAMP DUP2 MSTORE PUSH1 0x80 DUP7 ADD SWAP2 DUP10 DUP4 MSTORE PUSH1 0xA0 DUP8 ADD SWAP5 PUSH1 0x1 DUP7 MSTORE PUSH1 0xC0 DUP9 ADD SWAP5 DUP6 MSTORE PUSH1 0x40 PUSH1 0xE0 DUP10 ADD SWAP8 DUP12 DUP10 MSTORE DUP14 DUP2 MSTORE PUSH1 0x4 PUSH1 0x20 MSTORE KECCAK256 SWAP8 MLOAD DUP9 SSTORE PUSH1 0x1 DUP9 ADD SWAP2 PUSH1 0x1 DUP1 PUSH1 0xA0 SHL SUB SWAP1 MLOAD AND DUP3 SLOAD SWAP2 MLOAD PUSH1 0x3 DUP2 LT ISZERO PUSH2 0x1054 JUMPI PUSH1 0x1 PUSH1 0x1 PUSH1 0xA8 SHL SUB NOT SWAP1 SWAP3 AND OR PUSH1 0xA0 SWAP2 SWAP1 SWAP2 SHL PUSH1 0xFF PUSH1 0xA0 SHL AND OR SWAP1 SSTORE MLOAD PUSH1 0x2 DUP7 ADD SSTORE MLOAD PUSH1 0x3 DUP6 ADD SSTORE SWAP1 MLOAD PUSH1 0x4 DUP5 ADD DUP1 SLOAD SWAP3 MLOAD PUSH2 0xFFFF NOT SWAP1 SWAP4 AND SWAP2 ISZERO ISZERO PUSH1 0xFF AND SWAP2 SWAP1 SWAP2 OR SWAP2 ISZERO ISZERO PUSH1 0x8 SHL PUSH2 0xFF00 AND SWAP2 SWAP1 SWAP2 OR SWAP1 SSTORE PUSH1 0x5 SWAP1 MLOAD SWAP2 ADD SSTORE CALLER DUP7 MSTORE PUSH1 0x5 PUSH1 0x20 MSTORE DUP4 PUSH1 0x40 DUP8 KECCAK256 SSTORE CALLER DUP7 MSTORE PUSH1 0x6 PUSH1 0x20 MSTORE PUSH1 0x40 DUP7 KECCAK256 DUP1 SLOAD SWAP1 PUSH9 0x10000000000000000 DUP3 LT ISZERO PUSH2 0x1040 JUMPI SWAP1 PUSH2 0xFE2 SWAP2 PUSH1 0x1 DUP3 ADD DUP2 SSTORE PUSH2 0x12DD JUMP JUMPDEST DUP2 SLOAD SWAP1 PUSH1 0x3 SHL SWAP1 DUP7 DUP3 SHL SWAP2 PUSH1 0x0 NOT SWAP1 SHL NOT AND OR SWAP1 SSTORE PUSH2 0x1004 PUSH1 0x40 MLOAD DUP1 SWAP7 PUSH2 0x125C JUMP JUMPDEST PUSH1 0x20 DUP6 ADD MSTORE PUSH1 0x40 DUP5 ADD MSTORE PUSH1 0x60 DUP4 ADD MSTORE PUSH32 0xD2AA549D5E1F5308ABC8A82896E581AA47F5031F29E901AF73E1C38928FDE332 PUSH1 0x80 CALLER SWAP4 LOG3 PUSH1 0x1 DUP1 SSTORE DUP1 RETURN JUMPDEST PUSH4 0x4E487B71 PUSH1 0xE0 SHL DUP9 MSTORE PUSH1 0x41 PUSH1 0x4 MSTORE PUSH1 0x24 DUP9 REVERT JUMPDEST POP PUSH4 0x4E487B71 PUSH1 0xE0 SHL DUP16 MSTORE PUSH1 0x21 PUSH1 0x4 MSTORE PUSH1 0x24 DUP16 REVERT JUMPDEST PUSH4 0x4E487B71 PUSH1 0xE0 SHL DUP8 MSTORE PUSH1 0x11 PUSH1 0x4 MSTORE PUSH1 0x24 DUP8 REVERT JUMPDEST PUSH1 0x40 MLOAD PUSH3 0x461BCD PUSH1 0xE5 SHL DUP2 MSTORE PUSH1 0x20 PUSH1 0x4 DUP3 ADD MSTORE PUSH1 0x24 DUP1 DUP3 ADD MSTORE PUSH32 0x5573657220616C72656164792068617320616374697665207375627363726970 PUSH1 0x44 DUP3 ADD MSTORE PUSH4 0x3A34B7B7 PUSH1 0xE1 SHL PUSH1 0x64 DUP3 ADD MSTORE PUSH1 0x84 SWAP1 REVERT JUMPDEST POP PUSH1 0xC DUP3 GT ISZERO PUSH2 0xE74 JUMP JUMPDEST PUSH1 0x40 MLOAD PUSH3 0x461BCD PUSH1 0xE5 SHL DUP2 MSTORE PUSH1 0x20 PUSH1 0x4 DUP3 ADD MSTORE PUSH1 0x1D PUSH1 0x24 DUP3 ADD MSTORE PUSH32 0x43616E6E6F742073756273637269626520746F206672656520706C616E000000 PUSH1 0x44 DUP3 ADD MSTORE PUSH1 0x64 SWAP1 REVERT JUMPDEST CALLVALUE PUSH2 0x1DD JUMPI PUSH2 0x112C CALLDATASIZE PUSH2 0x123D JUMP JUMPDEST PUSH2 0x1134 PUSH2 0x1786 JUMP JUMPDEST DUP1 PUSH2 0x113E DUP4 PUSH2 0x12AB JUMP JUMPDEST SSTORE PUSH1 0x0 SWAP1 PUSH2 0x114B DUP4 PUSH2 0x12AB JUMP JUMPDEST SLOAD SWAP2 PUSH1 0xC DUP4 MUL SWAP3 DUP1 DUP5 DIV PUSH1 0xC EQ SWAP1 ISZERO OR ISZERO PUSH2 0x11C2 JUMPI PUSH2 0x7D0 DUP4 MUL DUP4 DUP2 DIV PUSH2 0x7D0 EQ DUP5 ISZERO OR ISZERO PUSH2 0x11D6 JUMPI PUSH2 0x2710 SWAP1 DIV DUP4 SUB SWAP3 DUP4 GT PUSH2 0x11C2 JUMPI PUSH32 0x7F1D53317EAA3C7BA4A141735AFA753A267FAA0D47395A12AB844CD10B55D01D PUSH1 0x60 DUP6 DUP6 DUP6 PUSH2 0x11B5 PUSH1 0x40 MLOAD DUP1 SWAP5 PUSH2 0x125C JUMP JUMPDEST PUSH1 0x20 DUP4 ADD MSTORE PUSH1 0x40 DUP3 ADD MSTORE LOG1 STOP JUMPDEST PUSH4 0x4E487B71 PUSH1 0xE0 SHL DUP2 MSTORE PUSH1 0x11 PUSH1 0x4 MSTORE PUSH1 0x24 SWAP1 REVERT JUMPDEST PUSH4 0x4E487B71 PUSH1 0xE0 SHL DUP3 MSTORE PUSH1 0x11 PUSH1 0x4 MSTORE PUSH1 0x24 DUP3 REVERT JUMPDEST CALLVALUE PUSH2 0x1DD JUMPI PUSH1 0x20 CALLDATASIZE PUSH1 0x3 NOT ADD SLT PUSH2 0x1DD JUMPI PUSH1 0x4 CALLDATALOAD SWAP1 PUSH4 0xFFFFFFFF PUSH1 0xE0 SHL DUP3 AND DUP1 SWAP3 SUB PUSH2 0x1DD JUMPI PUSH1 0x20 SWAP2 PUSH4 0x7965DB0B PUSH1 0xE0 SHL DUP2 EQ SWAP1 DUP2 ISZERO PUSH2 0x122C JUMPI JUMPDEST POP ISZERO ISZERO DUP2 MSTORE RETURN JUMPDEST PUSH4 0x1FFC9A7 PUSH1 0xE0 SHL EQ SWAP1 POP DUP4 PUSH2 0x1225 JUMP JUMPDEST PUSH1 0x40 SWAP1 PUSH1 0x3 NOT ADD SLT PUSH2 0x1DD JUMPI PUSH1 0x4 CALLDATALOAD PUSH1 0x3 DUP2 LT ISZERO PUSH2 0x1DD JUMPI SWAP1 PUSH1 0x24 CALLDATALOAD SWAP1 JUMP JUMPDEST SWAP1 PUSH1 0x3 DUP3 LT ISZERO PUSH2 0x1269 JUMPI MSTORE JUMP JUMPDEST PUSH4 0x4E487B71 PUSH1 0xE0 SHL PUSH1 0x0 MSTORE PUSH1 0x21 PUSH1 0x4 MSTORE PUSH1 0x24 PUSH1 0x0 REVERT JUMPDEST PUSH1 0x4 CALLDATALOAD SWAP1 PUSH1 0x1 PUSH1 0x1 PUSH1 0xA0 SHL SUB DUP3 AND DUP3 SUB PUSH2 0x1DD JUMPI JUMP JUMPDEST PUSH1 0x24 CALLDATALOAD SWAP1 PUSH1 0x1 PUSH1 0x1 PUSH1 0xA0 SHL SUB DUP3 AND DUP3 SUB PUSH2 0x1DD JUMPI JUMP JUMPDEST PUSH1 0x3 DUP2 LT ISZERO PUSH2 0x1269 JUMPI PUSH1 0x0 MSTORE PUSH1 0x7 PUSH1 0x20 MSTORE PUSH1 0x40 PUSH1 0x0 KECCAK256 SWAP1 JUMP JUMPDEST PUSH1 0x3 DUP2 LT ISZERO PUSH2 0x1269 JUMPI PUSH1 0x0 MSTORE PUSH1 0x8 PUSH1 0x20 MSTORE PUSH1 0x40 PUSH1 0x0 KECCAK256 SWAP1 JUMP JUMPDEST DUP1 SLOAD DUP3 LT ISZERO PUSH2 0x12F5 JUMPI PUSH1 0x0 MSTORE PUSH1 0x20 PUSH1 0x0 KECCAK256 ADD SWAP1 PUSH1 0x0 SWAP1 JUMP JUMPDEST PUSH4 0x4E487B71 PUSH1 0xE0 SHL PUSH1 0x0 MSTORE PUSH1 0x32 PUSH1 0x4 MSTORE PUSH1 0x24 PUSH1 0x0 REVERT JUMPDEST ISZERO PUSH2 0x1312 JUMPI JUMP JUMPDEST PUSH1 0x40 MLOAD PUSH3 0x461BCD PUSH1 0xE5 SHL DUP2 MSTORE PUSH1 0x20 PUSH1 0x4 DUP3 ADD MSTORE PUSH1 0x28 PUSH1 0x24 DUP3 ADD MSTORE PUSH32 0x4475726174696F6E206D757374206265206265747765656E203120616E642031 PUSH1 0x44 DUP3 ADD MSTORE PUSH8 0x32206D6F6E746873 PUSH1 0xC0 SHL PUSH1 0x64 DUP3 ADD MSTORE PUSH1 0x84 SWAP1 REVERT JUMPDEST ISZERO PUSH2 0x136F JUMPI JUMP JUMPDEST PUSH1 0x40 MLOAD PUSH3 0x461BCD PUSH1 0xE5 SHL DUP2 MSTORE PUSH1 0x20 PUSH1 0x4 DUP3 ADD MSTORE PUSH1 0x14 PUSH1 0x24 DUP3 ADD MSTORE PUSH20 0x125B9CDD59999A58DA595B9D081C185E5B595B9D PUSH1 0x62 SHL PUSH1 0x44 DUP3 ADD MSTORE PUSH1 0x64 SWAP1 REVERT JUMPDEST DUP2 DUP2 MUL SWAP3 SWAP2 DUP2 ISZERO SWAP2 DUP5 DIV EQ OR ISZERO PUSH2 0x7EF JUMPI JUMP JUMPDEST SWAP2 SWAP1 DUP3 ADD DUP1 SWAP3 GT PUSH2 0x7EF JUMPI JUMP JUMPDEST PUSH2 0x100 DUP2 ADD SWAP1 DUP2 LT PUSH8 0xFFFFFFFFFFFFFFFF DUP3 GT OR PUSH2 0xBE1 JUMPI PUSH1 0x40 MSTORE JUMP JUMPDEST PUSH1 0x3 DUP3 LT ISZERO PUSH2 0x1269 JUMPI MSTORE JUMP JUMPDEST ISZERO PUSH2 0x13FB JUMPI JUMP JUMPDEST PUSH1 0x40 MLOAD PUSH3 0x461BCD PUSH1 0xE5 SHL DUP2 MSTORE PUSH1 0x20 PUSH1 0x4 DUP3 ADD MSTORE PUSH1 0x27 PUSH1 0x24 DUP3 ADD MSTORE PUSH32 0x4F6E6C7920737562736372696265722063616E20706572666F726D2074686973 PUSH1 0x44 DUP3 ADD MSTORE PUSH7 0x1030B1BA34B7B7 PUSH1 0xC9 SHL PUSH1 0x64 DUP3 ADD MSTORE PUSH1 0x84 SWAP1 REVERT JUMPDEST ISZERO PUSH2 0x1457 JUMPI JUMP JUMPDEST PUSH1 0x40 MLOAD PUSH3 0x461BCD PUSH1 0xE5 SHL DUP2 MSTORE PUSH1 0x20 PUSH1 0x4 DUP3 ADD MSTORE PUSH1 0x1B PUSH1 0x24 DUP3 ADD MSTORE PUSH32 0x537562736372697074696F6E20646F6573206E6F742065786973740000000000 PUSH1 0x44 DUP3 ADD MSTORE PUSH1 0x64 SWAP1 REVERT JUMPDEST ISZERO PUSH2 0x14A3 JUMPI JUMP JUMPDEST PUSH1 0x40 MLOAD PUSH3 0x461BCD PUSH1 0xE5 SHL DUP2 MSTORE PUSH1 0x20 PUSH1 0x4 DUP3 ADD MSTORE PUSH1 0x1A PUSH1 0x24 DUP3 ADD MSTORE PUSH32 0x537562736372697074696F6E206973206E6F7420616374697665000000000000 PUSH1 0x44 DUP3 ADD MSTORE PUSH1 0x64 SWAP1 REVERT JUMPDEST PUSH2 0x14FD DUP3 PUSH2 0x14F7 PUSH1 0xC SWAP4 PUSH2 0x12AB JUMP JUMPDEST SLOAD PUSH2 0x13AB JUMP JUMPDEST SWAP2 EQ PUSH2 0x1506 JUMPI SWAP1 JUMP JUMPDEST PUSH2 0x7D0 DUP2 MUL DUP2 DUP2 DIV PUSH2 0x7D0 EQ DUP3 ISZERO OR ISZERO PUSH2 0x7EF JUMPI PUSH2 0x2710 SWAP1 DIV DUP2 SUB SWAP1 DUP2 GT PUSH2 0x7EF JUMPI SWAP1 JUMP JUMPDEST PUSH1 0x1 PUSH1 0x1 PUSH1 0xA0 SHL SUB AND PUSH1 0x0 SWAP1 DUP2 MSTORE PUSH1 0x5 PUSH1 0x20 MSTORE PUSH1 0x40 SWAP1 KECCAK256 SLOAD DUP1 ISZERO PUSH2 0x15F6 JUMPI PUSH1 0x0 MSTORE PUSH1 0x4 PUSH1 0x20 MSTORE PUSH1 0x40 PUSH1 0x0 KECCAK256 PUSH1 0x40 MLOAD PUSH2 0x1562 DUP2 PUSH2 0x13CB JUMP JUMPDEST DUP2 SLOAD DUP2 MSTORE PUSH1 0x1 DUP3 ADD SLOAD PUSH1 0x1 PUSH1 0x1 PUSH1 0xA0 SHL SUB DUP2 AND PUSH1 0x20 DUP4 ADD MSTORE PUSH1 0x40 DUP3 ADD SWAP3 SWAP1 PUSH2 0x1590 SWAP1 PUSH1 0xA0 SHR PUSH1 0xFF AND DUP5 PUSH2 0x13E8 JUMP JUMPDEST PUSH1 0x2 DUP2 ADD SLOAD PUSH1 0x60 DUP4 ADD MSTORE PUSH1 0x3 DUP2 ADD SLOAD SWAP1 DUP2 PUSH1 0x80 DUP5 ADD MSTORE PUSH1 0x4 DUP2 ADD SLOAD SWAP3 PUSH1 0xE0 PUSH1 0x5 PUSH1 0xFF DUP7 AND ISZERO SWAP4 PUSH1 0xFF DUP6 ISZERO SWAP8 DUP9 PUSH1 0xA0 DUP8 ADD MSTORE PUSH1 0x8 SHR AND ISZERO ISZERO PUSH1 0xC0 DUP6 ADD MSTORE ADD SLOAD SWAP2 ADD MSTORE SWAP2 PUSH2 0x15FD JUMPI JUMPDEST POP PUSH2 0x15F6 JUMPI MLOAD PUSH1 0x3 DUP2 LT ISZERO PUSH2 0x1269 JUMPI PUSH2 0x15EF SWAP1 PUSH2 0x12C4 JUMP JUMPDEST SLOAD AND ISZERO ISZERO SWAP1 JUMP JUMPDEST POP POP PUSH1 0x0 SWAP1 JUMP JUMPDEST SWAP1 POP TIMESTAMP GT CODESIZE PUSH2 0x15D7 JUMP JUMPDEST PUSH1 0x1 PUSH1 0x1 PUSH1 0xA0 SHL SUB AND PUSH1 0x0 SWAP1 DUP2 MSTORE PUSH1 0x5 PUSH1 0x20 MSTORE PUSH1 0x40 SWAP1 KECCAK256 SLOAD DUP1 ISZERO PUSH2 0x16B8 JUMPI PUSH1 0x0 MSTORE PUSH1 0x4 PUSH1 0x20 MSTORE PUSH1 0x40 PUSH1 0x0 KECCAK256 PUSH1 0x40 MLOAD PUSH2 0x163E DUP2 PUSH2 0x13CB JUMP JUMPDEST DUP2 SLOAD DUP2 MSTORE PUSH1 0x1 DUP3 ADD SLOAD PUSH1 0x1 PUSH1 0x1 PUSH1 0xA0 SHL SUB DUP2 AND PUSH1 0x20 DUP4 ADD MSTORE PUSH2 0x1669 SWAP1 PUSH1 0xA0 SHR PUSH1 0xFF AND PUSH1 0x40 DUP4 ADD PUSH2 0x13E8 JUMP JUMPDEST PUSH1 0x2 DUP3 ADD SLOAD PUSH1 0x60 DUP3 ADD MSTORE PUSH1 0x3 DUP3 ADD SLOAD SWAP1 DUP2 PUSH1 0x80 DUP3 ADD MSTORE PUSH1 0xE0 PUSH1 0x5 PUSH1 0x4 DUP6 ADD SLOAD SWAP5 PUSH1 0xFF DUP1 DUP8 AND ISZERO ISZERO SWAP7 DUP8 PUSH1 0xA0 DUP8 ADD MSTORE PUSH1 0x8 SHR AND ISZERO ISZERO PUSH1 0xC0 DUP6 ADD MSTORE ADD SLOAD SWAP2 ADD MSTORE DUP2 PUSH2 0x16B0 JUMPI POP SWAP1 JUMP JUMPDEST SWAP1 POP TIMESTAMP GT ISZERO SWAP1 JUMP JUMPDEST POP PUSH1 0x0 SWAP1 JUMP JUMPDEST PUSH1 0x1 PUSH1 0x1 PUSH1 0xA0 SHL SUB AND PUSH1 0x0 SWAP1 DUP2 MSTORE PUSH1 0x5 PUSH1 0x20 MSTORE PUSH1 0x40 SWAP1 KECCAK256 SLOAD DUP1 ISZERO PUSH2 0x16B8 JUMPI PUSH1 0x0 MSTORE PUSH1 0x4 PUSH1 0x20 MSTORE PUSH1 0x40 PUSH1 0x0 KECCAK256 PUSH1 0x40 MLOAD PUSH2 0x16F5 DUP2 PUSH2 0x13CB JUMP JUMPDEST DUP2 SLOAD DUP2 MSTORE PUSH1 0x1 DUP3 ADD SLOAD PUSH1 0x1 PUSH1 0x1 PUSH1 0xA0 SHL SUB DUP2 AND PUSH1 0x20 DUP4 ADD MSTORE PUSH1 0x40 DUP3 ADD SWAP3 SWAP1 PUSH2 0x1723 SWAP1 PUSH1 0xA0 SHR PUSH1 0xFF AND DUP5 PUSH2 0x13E8 JUMP JUMPDEST PUSH1 0x2 DUP2 ADD SLOAD PUSH1 0x60 DUP4 ADD MSTORE PUSH1 0x3 DUP2 ADD SLOAD SWAP1 DUP2 PUSH1 0x80 DUP5 ADD MSTORE PUSH1 0x4 DUP2 ADD SLOAD SWAP3 PUSH1 0xE0 PUSH1 0x5 PUSH1 0xFF DUP7 AND ISZERO SWAP4 PUSH1 0xFF DUP6 ISZERO SWAP8 DUP9 PUSH1 0xA0 DUP8 ADD MSTORE PUSH1 0x8 SHR AND ISZERO ISZERO PUSH1 0xC0 DUP6 ADD MSTORE ADD SLOAD SWAP2 ADD MSTORE SWAP2 PUSH2 0x177C JUMPI JUMPDEST POP PUSH2 0x16B8 JUMPI MLOAD PUSH1 0x3 DUP2 LT ISZERO PUSH2 0x1269 JUMPI SWAP1 JUMP JUMPDEST SWAP1 POP TIMESTAMP GT CODESIZE PUSH2 0x176A JUMP JUMPDEST CALLER PUSH1 0x0 SWAP1 DUP2 MSTORE PUSH32 0x7D7FFB7A348E1C6A02869081A26547B49160DD3DF72D1D75A570EB9B698292EC PUSH1 0x20 MSTORE PUSH1 0x40 SWAP1 KECCAK256 SLOAD PUSH1 0xFF AND ISZERO PUSH2 0x17BF JUMPI JUMP JUMPDEST PUSH4 0xE2517D3F PUSH1 0xE0 SHL PUSH1 0x0 MSTORE CALLER PUSH1 0x4 MSTORE PUSH32 0xA49807205CE4D355092EF5A8A18F56E8913CF4A201FBE287825B095693C21775 PUSH1 0x24 MSTORE PUSH1 0x44 PUSH1 0x0 REVERT JUMPDEST PUSH1 0x0 DUP2 DUP2 MSTORE PUSH1 0x20 DUP2 DUP2 MSTORE PUSH1 0x40 DUP1 DUP4 KECCAK256 CALLER DUP5 MSTORE SWAP1 SWAP2 MSTORE SWAP1 KECCAK256 SLOAD PUSH1 0xFF AND ISZERO PUSH2 0x181B JUMPI POP JUMP JUMPDEST PUSH4 0xE2517D3F PUSH1 0xE0 SHL PUSH1 0x0 MSTORE CALLER PUSH1 0x4 MSTORE PUSH1 0x24 MSTORE PUSH1 0x44 PUSH1 0x0 REVERT JUMPDEST PUSH1 0x2 PUSH1 0x1 SLOAD EQ PUSH2 0x1844 JUMPI PUSH1 0x2 PUSH1 0x1 SSTORE JUMP JUMPDEST PUSH4 0x3EE5AEB5 PUSH1 0xE0 SHL PUSH1 0x0 MSTORE PUSH1 0x4 PUSH1 0x0 REVERT JUMPDEST PUSH1 0xFF PUSH1 0x2 SLOAD AND PUSH2 0x1861 JUMPI JUMP JUMPDEST PUSH4 0xD93C0665 PUSH1 0xE0 SHL PUSH1 0x0 MSTORE PUSH1 0x4 PUSH1 0x0 REVERT JUMPDEST PUSH1 0x0 DUP2 DUP2 MSTORE PUSH1 0x20 DUP2 DUP2 MSTORE PUSH1 0x40 DUP1 DUP4 KECCAK256 PUSH1 0x1 PUSH1 0x1 PUSH1 0xA0 SHL SUB DUP7 AND DUP5 MSTORE SWAP1 SWAP2 MSTORE SWAP1 KECCAK256 SLOAD PUSH1 0xFF AND PUSH2 0x15F6 JUMPI PUSH1 0x0 DUP2 DUP2 MSTORE PUSH1 0x20 DUP2 DUP2 MSTORE PUSH1 0x40 DUP1 DUP4 KECCAK256 PUSH1 0x1 PUSH1 0x1 PUSH1 0xA0 SHL SUB SWAP6 SWAP1 SWAP6 AND DUP1 DUP5 MSTORE SWAP5 SWAP1 SWAP2 MSTORE DUP2 KECCAK256 DUP1 SLOAD PUSH1 0xFF NOT AND PUSH1 0x1 OR SWAP1 SSTORE CALLER SWAP3 SWAP2 SWAP1 PUSH32 0x2F8788117E7EFF1D82E926EC794901D17C78024A50270940304540A733656F0D SWAP1 DUP1 LOG4 PUSH1 0x1 SWAP1 JUMP JUMPDEST PUSH1 0x0 DUP2 DUP2 MSTORE PUSH1 0x20 DUP2 DUP2 MSTORE PUSH1 0x40 DUP1 DUP4 KECCAK256 PUSH1 0x1 PUSH1 0x1 PUSH1 0xA0 SHL SUB DUP7 AND DUP5 MSTORE SWAP1 SWAP2 MSTORE SWAP1 KECCAK256 SLOAD PUSH1 0xFF AND ISZERO PUSH2 0x15F6 JUMPI PUSH1 0x0 DUP2 DUP2 MSTORE PUSH1 0x20 DUP2 DUP2 MSTORE PUSH1 0x40 DUP1 DUP4 KECCAK256 PUSH1 0x1 PUSH1 0x1 PUSH1 0xA0 SHL SUB SWAP6 SWAP1 SWAP6 AND DUP1 DUP5 MSTORE SWAP5 SWAP1 SWAP2 MSTORE DUP2 KECCAK256 DUP1 SLOAD PUSH1 0xFF NOT AND SWAP1 SSTORE CALLER SWAP3 SWAP2 SWAP1 PUSH32 0xF6391F5C32D9C69D2A47EA670B442974B53935D1EDC7FD64EB21E047A839171B SWAP1 DUP1 LOG4 PUSH1 0x1 SWAP1 JUMP INVALID LOG2 PUSH5 0x6970667358 0x22 SLT KECCAK256 JUMP 0xEB MULMOD 0xAF 0x1E 0x25 0xF8 0xC4 STOP 0xE1 0xCC 0x2D 0x25 0x23 0xE1 0xB8 0xBC EQ CALL 0x4D 0xA7 DUP15 0xE 0xEE TSTORE PUSH3 0x6BA52F SWAP13 0xBA CREATE PUSH5 0x736F6C6343 STOP ADDMOD SHR STOP CALLER 0x2F DUP8 DUP9 GT PUSH31 0x7EFF1D82E926EC794901D17C78024A50270940304540A733656F0D7D7FFB7A CALLVALUE DUP15 SHR PUSH11 0x2869081A26547B49160DD RETURNDATASIZE 0xF7 0x2D SAR PUSH22 0xA570EB9B698292ECAD3228B676F7D3CD4284A5443F17 CALL SWAP7 0x2B CALLDATASIZE 0xE4 SWAP2 0xB3 EXP BLOCKHASH 0xB2 BLOCKHASH PC BLOBHASH 0xE5 SWAP8 0xBA PUSH0 0xB5 "},"methodIdentifiers":{"ADMIN_ROLE()":"75b238fc","DEFAULT_ADMIN_ROLE()":"a217fddf","PREMIUM_MONTHLY_PRICE()":"9e26d4be","PRO_MONTHLY_PRICE()":"c9638c7a","YEARLY_DISCOUNT_BPS()":"758fcb4a","calculatePrice(uint8,uint256)":"46edacac","cancelSubscription(uint256)":"21235083","createSubscription(uint8,uint256,bool)":"0a396a4a","getContractBalance()":"6f9fb98a","getPlanFeatures(uint8)":"c8514d58","getRoleAdmin(bytes32)":"248a9ca3","getSubscription(uint256)":"dc311dd3","getUserPlan(address)":"e1076d15","getUserSubscriptions(address)":"2e6ca588","grantRole(bytes32,address)":"2f2ff15d","hasActiveSubscription(address)":"bebe4a57","hasFeature(address,uint256)":"80438349","hasRole(bytes32,address)":"91d14854","pause()":"8456cb59","paused()":"5c975abb","planFeatures(uint8)":"3ca99916","planPrices(uint8)":"b33187e7","processAutoRenewal(uint256)":"632ddc38","renewSubscription(uint256,uint256)":"5ec40334","renounceRole(bytes32,address)":"36568abe","revokeRole(bytes32,address)":"d547741f","subscriptions(uint256)":"2d5bbf60","supportsInterface(bytes4)":"01ffc9a7","toggleAutoRenewal(uint256)":"ce9d8144","unpause()":"3f4ba83a","updatePlanFeatures(uint8,uint256)":"6e8bc608","updatePlanPricing(uint8,uint256)":"0200a21a","userActiveSubscription(address)":"bb46613c","userSubscriptions(address,uint256)":"c95d6edc","withdraw(uint256)":"2e1a7d4d"}}}}}