{
  "_format": "hh-sol-artifact-1",
  "contractName": "ListingRegistry",
  "sourceName": "contracts/ListingRegistry.sol",
  "abi": [
    {
      "inputs": [],
      "stateMutability": "nonpayable",
      "type": "constructor"
    },
    {
      "inputs": [],
      "name": "AccessControlBadConfirmation",
      "type": "error"
    },
    {
      "inputs": [
        {
          "internalType": "address",
          "name": "account",
          "type": "address"
        },
        {
          "internalType": "bytes32",
          "name": "neededRole",
          "type": "bytes32"
        }
      ],
      "name": "AccessControlUnauthorizedAccount",
      "type": "error"
    },
    {
      "inputs": [],
      "name": "ReentrancyGuardReentrantCall",
      "type": "error"
    },
    {
      "anonymous": false,
      "inputs": [
        {
          "indexed": true,
          "internalType": "uint256",
          "name": "listingId",
          "type": "uint256"
        },
        {
          "indexed": true,
          "internalType": "address",
          "name": "landlord",
          "type": "address"
        },
        {
          "indexed": false,
          "internalType": "string",
          "name": "title",
          "type": "string"
        },
        {
          "indexed": false,
          "internalType": "uint256",
          "name": "pricePerDay",
          "type": "uint256"
        },
        {
          "indexed": false,
          "internalType": "uint256",
          "name": "deposit",
          "type": "uint256"
        },
        {
          "indexed": false,
          "internalType": "string",
          "name": "ipfsHash",
          "type": "string"
        }
      ],
      "name": "ListingCreated",
      "type": "event"
    },
    {
      "anonymous": false,
      "inputs": [
        {
          "indexed": true,
          "internalType": "uint256",
          "name": "listingId",
          "type": "uint256"
        },
        {
          "indexed": false,
          "internalType": "bool",
          "name": "isActive",
          "type": "bool"
        }
      ],
      "name": "ListingStatusChanged",
      "type": "event"
    },
    {
      "anonymous": false,
      "inputs": [
        {
          "indexed": true,
          "internalType": "uint256",
          "name": "listingId",
          "type": "uint256"
        },
        {
          "indexed": false,
          "internalType": "string",
          "name": "title",
          "type": "string"
        },
        {
          "indexed": false,
          "internalType": "uint256",
          "name": "pricePerDay",
          "type": "uint256"
        },
        {
          "indexed": false,
          "internalType": "uint256",
          "name": "deposit",
          "type": "uint256"
        },
        {
          "indexed": false,
          "internalType": "string",
          "name": "ipfsHash",
          "type": "string"
        }
      ],
      "name": "ListingUpdated",
      "type": "event"
    },
    {
      "anonymous": false,
      "inputs": [
        {
          "indexed": true,
          "internalType": "bytes32",
          "name": "role",
          "type": "bytes32"
        },
        {
          "indexed": true,
          "internalType": "bytes32",
          "name": "previousAdminRole",
          "type": "bytes32"
        },
        {
          "indexed": true,
          "internalType": "bytes32",
          "name": "newAdminRole",
          "type": "bytes32"
        }
      ],
      "name": "RoleAdminChanged",
      "type": "event"
    },
    {
      "anonymous": false,
      "inputs": [
        {
          "indexed": true,
          "internalType": "bytes32",
          "name": "role",
          "type": "bytes32"
        },
        {
          "indexed": true,
          "internalType": "address",
          "name": "account",
          "type": "address"
        },
        {
          "indexed": true,
          "internalType": "address",
          "name": "sender",
          "type": "address"
        }
      ],
      "name": "RoleGranted",
      "type": "event"
    },
    {
      "anonymous": false,
      "inputs": [
        {
          "indexed": true,
          "internalType": "bytes32",
          "name": "role",
          "type": "bytes32"
        },
        {
          "indexed": true,
          "internalType": "address",
          "name": "account",
          "type": "address"
        },
        {
          "indexed": true,
          "internalType": "address",
          "name": "sender",
          "type": "address"
        }
      ],
      "name": "RoleRevoked",
      "type": "event"
    },
    {
      "inputs": [],
      "name": "ADMIN_ROLE",
      "outputs": [
        {
          "internalType": "bytes32",
          "name": "",
          "type": "bytes32"
        }
      ],
      "stateMutability": "view",
      "type": "function"
    },
    {
      "inputs": [],
      "name": "ARBITRATOR_ROLE",
      "outputs": [
        {
          "internalType": "bytes32",
          "name": "",
          "type": "bytes32"
        }
      ],
      "stateMutability": "view",
      "type": "function"
    },
    {
      "inputs": [],
      "name": "BASIS_POINTS",
      "outputs": [
        {
          "internalType": "uint256",
          "name": "",
          "type": "uint256"
        }
      ],
      "stateMutability": "view",
      "type": "function"
    },
    {
      "inputs": [],
      "name": "DEFAULT_ADMIN_ROLE",
      "outputs": [
        {
          "internalType": "bytes32",
          "name": "",
          "type": "bytes32"
        }
      ],
      "stateMutability": "view",
      "type": "function"
    },
    {
      "inputs": [],
      "name": "PLATFORM_FEE_BPS",
      "outputs": [
        {
          "internalType": "uint256",
          "name": "",
          "type": "uint256"
        }
      ],
      "stateMutability": "view",
      "type": "function"
    },
    {
      "inputs": [
        {
          "internalType": "uint256",
          "name": "amount",
          "type": "uint256"
        }
      ],
      "name": "calculatePlatformFee",
      "outputs": [
        {
          "internalType": "uint256",
          "name": "",
          "type": "uint256"
        }
      ],
      "stateMutability": "pure",
      "type": "function"
    },
    {
      "inputs": [
        {
          "internalType": "string",
          "name": "title",
          "type": "string"
        },
        {
          "internalType": "string",
          "name": "description",
          "type": "string"
        },
        {
          "internalType": "uint256",
          "name": "pricePerDay",
          "type": "uint256"
        },
        {
          "internalType": "uint256",
          "name": "deposit",
          "type": "uint256"
        },
        {
          "internalType": "string",
          "name": "ipfsHash",
          "type": "string"
        }
      ],
      "name": "createListing",
      "outputs": [],
      "stateMutability": "nonpayable",
      "type": "function"
    },
    {
      "inputs": [
        {
          "internalType": "uint256",
          "name": "listingId",
          "type": "uint256"
        }
      ],
      "name": "emergencyDeactivateListing",
      "outputs": [],
      "stateMutability": "nonpayable",
      "type": "function"
    },
    {
      "inputs": [],
      "name": "getActiveListingsCount",
      "outputs": [
        {
          "internalType": "uint256",
          "name": "",
          "type": "uint256"
        }
      ],
      "stateMutability": "view",
      "type": "function"
    },
    {
      "inputs": [
        {
          "internalType": "address",
          "name": "landlord",
          "type": "address"
        }
      ],
      "name": "getLandlordListings",
      "outputs": [
        {
          "internalType": "uint256[]",
          "name": "",
          "type": "uint256[]"
        }
      ],
      "stateMutability": "view",
      "type": "function"
    },
    {
      "inputs": [
        {
          "internalType": "uint256",
          "name": "listingId",
          "type": "uint256"
        }
      ],
      "name": "getListing",
      "outputs": [
        {
          "components": [
            {
              "internalType": "uint256",
              "name": "listingId",
              "type": "uint256"
            },
            {
              "internalType": "address",
              "name": "landlord",
              "type": "address"
            },
            {
              "internalType": "string",
              "name": "title",
              "type": "string"
            },
            {
              "internalType": "string",
              "name": "description",
              "type": "string"
            },
            {
              "internalType": "uint256",
              "name": "pricePerDay",
              "type": "uint256"
            },
            {
              "internalType": "uint256",
              "name": "deposit",
              "type": "uint256"
            },
            {
              "internalType": "bool",
              "name": "isActive",
              "type": "bool"
            },
            {
              "internalType": "string",
              "name": "ipfsHash",
              "type": "string"
            },
            {
              "internalType": "uint256",
              "name": "createdAt",
              "type": "uint256"
            },
            {
              "internalType": "uint256",
              "name": "updatedAt",
              "type": "uint256"
            }
          ],
          "internalType": "struct ListingRegistry.PropertyListing",
          "name": "",
          "type": "tuple"
        }
      ],
      "stateMutability": "view",
      "type": "function"
    },
    {
      "inputs": [
        {
          "internalType": "bytes32",
          "name": "role",
          "type": "bytes32"
        }
      ],
      "name": "getRoleAdmin",
      "outputs": [
        {
          "internalType": "bytes32",
          "name": "",
          "type": "bytes32"
        }
      ],
      "stateMutability": "view",
      "type": "function"
    },
    {
      "inputs": [],
      "name": "getTotalListings",
      "outputs": [
        {
          "internalType": "uint256",
          "name": "",
          "type": "uint256"
        }
      ],
      "stateMutability": "view",
      "type": "function"
    },
    {
      "inputs": [
        {
          "internalType": "bytes32",
          "name": "role",
          "type": "bytes32"
        },
        {
          "internalType": "address",
          "name": "account",
          "type": "address"
        }
      ],
      "name": "grantRole",
      "outputs": [],
      "stateMutability": "nonpayable",
      "type": "function"
    },
    {
      "inputs": [
        {
          "internalType": "bytes32",
          "name": "role",
          "type": "bytes32"
        },
        {
          "internalType": "address",
          "name": "account",
          "type": "address"
        }
      ],
      "name": "hasRole",
      "outputs": [
        {
          "internalType": "bool",
          "name": "",
          "type": "bool"
        }
      ],
      "stateMutability": "view",
      "type": "function"
    },
    {
      "inputs": [
        {
          "internalType": "address",
          "name": "",
          "type": "address"
        },
        {
          "internalType": "uint256",
          "name": "",
          "type": "uint256"
        }
      ],
      "name": "landlordListings",
      "outputs": [
        {
          "internalType": "uint256",
          "name": "",
          "type": "uint256"
        }
      ],
      "stateMutability": "view",
      "type": "function"
    },
    {
      "inputs": [
        {
          "internalType": "uint256",
          "name": "",
          "type": "uint256"
        }
      ],
      "name": "listings",
      "outputs": [
        {
          "internalType": "uint256",
          "name": "listingId",
          "type": "uint256"
        },
        {
          "internalType": "address",
          "name": "landlord",
          "type": "address"
        },
        {
          "internalType": "string",
          "name": "title",
          "type": "string"
        },
        {
          "internalType": "string",
          "name": "description",
          "type": "string"
        },
        {
          "internalType": "uint256",
          "name": "pricePerDay",
          "type": "uint256"
        },
        {
          "internalType": "uint256",
          "name": "deposit",
          "type": "uint256"
        },
        {
          "internalType": "bool",
          "name": "isActive",
          "type": "bool"
        },
        {
          "internalType": "string",
          "name": "ipfsHash",
          "type": "string"
        },
        {
          "internalType": "uint256",
          "name": "createdAt",
          "type": "uint256"
        },
        {
          "internalType": "uint256",
          "name": "updatedAt",
          "type": "uint256"
        }
      ],
      "stateMutability": "view",
      "type": "function"
    },
    {
      "inputs": [
        {
          "internalType": "bytes32",
          "name": "role",
          "type": "bytes32"
        },
        {
          "internalType": "address",
          "name": "callerConfirmation",
          "type": "address"
        }
      ],
      "name": "renounceRole",
      "outputs": [],
      "stateMutability": "nonpayable",
      "type": "function"
    },
    {
      "inputs": [
        {
          "internalType": "bytes32",
          "name": "role",
          "type": "bytes32"
        },
        {
          "internalType": "address",
          "name": "account",
          "type": "address"
        }
      ],
      "name": "revokeRole",
      "outputs": [],
      "stateMutability": "nonpayable",
      "type": "function"
    },
    {
      "inputs": [
        {
          "internalType": "bytes4",
          "name": "interfaceId",
          "type": "bytes4"
        }
      ],
      "name": "supportsInterface",
      "outputs": [
        {
          "internalType": "bool",
          "name": "",
          "type": "bool"
        }
      ],
      "stateMutability": "view",
      "type": "function"
    },
    {
      "inputs": [
        {
          "internalType": "uint256",
          "name": "listingId",
          "type": "uint256"
        }
      ],
      "name": "toggleListingStatus",
      "outputs": [],
      "stateMutability": "nonpayable",
      "type": "function"
    },
    {
      "inputs": [
        {
          "internalType": "uint256",
          "name": "listingId",
          "type": "uint256"
        },
        {
          "internalType": "string",
          "name": "title",
          "type": "string"
        },
        {
          "internalType": "string",
          "name": "description",
          "type": "string"
        },
        {
          "internalType": "uint256",
          "name": "pricePerDay",
          "type": "uint256"
        },
        {
          "internalType": "uint256",
          "name": "deposit",
          "type": "uint256"
        },
        {
          "internalType": "string",
          "name": "ipfsHash",
          "type": "string"
        }
      ],
      "name": "updateListing",
      "outputs": [],
      "stateMutability": "nonpayable",
      "type": "function"
    },
    {
      "inputs": [
        {
          "internalType": "string",
          "name": "",
          "type": "string"
        }
      ],
      "name": "usedIpfsHashes",
      "outputs": [
        {
          "internalType": "bool",
          "name": "",
          "type": "bool"
        }
      ],
      "stateMutability": "view",
      "type": "function"
    }
  ],
  "bytecode": "0x608060405234610030576001805561001633610035565b50610020336100b1565b50604051611bd8908161014a8239f35b600080fd5b6001600160a01b0381166000908152600080516020611d62833981519152602052604090205460ff166100ab576001600160a01b03166000818152600080516020611d6283398151915260205260408120805460ff19166001179055339190600080516020611d228339815191528180a4600190565b50600090565b6001600160a01b0381166000908152600080516020611d42833981519152602052604090205460ff166100ab576001600160a01b03166000818152600080516020611d4283398151915260205260408120805460ff191660011790553391907fa49807205ce4d355092ef5a8a18f56e8913cf4a201fbe287825b095693c2177590600080516020611d228339815191529080a460019056fe608080604052600436101561001357600080fd5b60003560e01c90816301ffc9a7146115ff575080630cbab4f7146115c9578063107a274a146113d8578063248a9ca3146113a35780632da386c3146113425780632f2ff15d1461130257806336568abe146112bc578063539aa77f146112a05780636185fa0f146111e657806375b238fc146111ab5780637b55927c1461113457806382442f321461104357806391d1485414610ff65780639cea078714610fbb578063a217fddf14610f9f578063a2303a9514610eec578063cc2ee0fc14610915578063d1bf4ba3146108bc578063d547741f14610875578063dac73ca81461025e578063de74e57b1461015c578063e1f1c4a71461013f5763fbf30c351461011c57600080fd5b3461013a57600036600319011261013a576020600254604051908152f35b600080fd5b3461013a57600036600319011261013a5760206040516127108152f35b3461013a57602036600319011261013a5760043560005260036020526040600020805460018060a01b03600183015416916040516101a8816101a181600286016117c1565b03826116b6565b61024d6040516101bf816101a181600388016117c1565b600484015490600585015460ff6006870154169061022e604051936101f2856101eb8160078d016117c1565b03866116b6565b610220600960088b01549a0154986040519c8d9c8d5260208d015261014060408d01526101408c0190611675565b908a820360608c0152611675565b93608089015260a0880152151560c087015285820360e0870152611675565b916101008401526101208301520390f35b3461013a5760c036600319011261013a576004356024356001600160401b03811161013a576102919036906004016116d7565b906044356001600160401b03811161013a576102b19036906004016116d7565b608435926064359160a4356001600160401b03811161013a576102d89036906004016116d7565b906102e1611b80565b84600052600360205261030560018060a01b03600160406000200154163314611889565b60008581526003602052604090206001015461032b906001600160a01b03161515611844565b610336841515611928565b610341861515611974565b61034d835115156119c0565b8460005260036020526101a16103706007604060002001604051928380926117c1565b60208151910120825160208401918183200361077b575b5050846000526003602052600260406000200183516001600160401b0381116105ec576103b48254611787565b601f8111610733575b50806020601f82116001146106d0576000916106c5575b508160011b916000199060031b1c19161790555b8460005260036020526003604060002001908051906001600160401b0382116105ec5781906104178454611787565b601f8111610672575b50602090601f831160011461060d57600092610602575b50508160011b916000199060031b1c19161790555b60008481526003602052604090206004810184905560058101869055815195906007016001600160401b0387116105ec576104878154611787565b601f81116105a4575b50602096601f81116001146105195790816105059493927f07985a1e6e6edaecafc400e6e6d91da0671856a98301c4887755f1eb11d942f0989960009161050e575b508160011b916000199060031b1c19161790555b8660005260036020524260096040600020015560405194859485611a04565b0390a260018055005b90508401518a6104d2565b601f19811682600052886000209060005b81811061058c5750916001917f07985a1e6e6edaecafc400e6e6d91da0671856a98301c4887755f1eb11d942f0999a826105059897969510610573575b5050811b0190556104e6565b86015160001960f88460031b161c191690558a80610567565b868b0151835560209a8b019a6001909301920161052a565b816000526020600020601f890160051c81019160208a106105e2575b601f0160051c01905b8181106105d65750610490565b600081556001016105c9565b90915081906105c0565b634e487b7160e01b600052604160045260246000fd5b015190508880610437565b60008581528281209350601f198516905b81811061065a5750908460019594939210610641575b505050811b01905561044c565b015160001960f88460031b161c19169055888080610634565b9293602060018192878601518155019501930161061e565b909150836000526020600020601f840160051c810191602085106106bb575b90601f859493920160051c01905b8181106106ac5750610420565b6000815584935060010161069f565b9091508190610691565b9050850151896103d4565b60008481528181209250601f198416905b81811061071b57509083600194939210610702575b5050811b0190556103e8565b87015160001960f88460031b161c1916905589806106f6565b9192602060018192868c0151815501940192016106e1565b826000526020600020601f830160051c81019160208410610771575b601f0160051c01905b81811061076557506103bd565b60008155600101610758565b909150819061074f565b60ff6107a59160206040518261079382948389611652565b810160058152030190205416156118e3565b8560005260036020526007604060002001604051906000908054906107c982611787565b916001811690811561085d5750600114610827575b505091816020809385600561080b97520301902060ff198154169055604051809381928751928391611652565b81016005815203019020600160ff198254161790558680610387565b90915060005260206000206000905b82821061084957505081018160206107de565b600181602092548487015201910190610836565b60ff19168552505080151502820190508160206107de565b3461013a57604036600319011261013a576108ba60043561089461172d565b906108b56108b082600052600060205260016040600020015490565b611a38565b611afe565b005b3461013a57604036600319011261013a576108d5611743565b6001600160a01b031660009081526004602052604090208054602435919082101561013a5760209161090691611759565b90549060031b1c604051908152f35b3461013a5760a036600319011261013a576004356001600160401b03811161013a576109459036906004016116d7565b6024356001600160401b03811161013a576109649036906004016116d7565b6044356064356084356001600160401b03811161013a576109899036906004016116d7565b91610992611b80565b825115610ea7576040516109b660ff85519260208181890195610793818389611652565b6109c1821515611928565b6109cc831515611974565b6109d8865115156119c0565b600254946001860160025585604051916109f18361169a565b818352602083019033825260408401908a8252606085019081526080850187815260a086019089825260c08701926001845260e08801948c86526101008901964288526101208a0198428a526000526003602052604060002099518a5560018a019060018060a01b039051166bffffffffffffffffffffffff60a01b8254161790556002890190518051906001600160401b0382116105ec578190610a968454611787565b601f8111610e54575b50602090601f8311600114610def57600092610de4575b50508160011b916000199060031b1c19161790555b51805160038901916001600160401b0382116105ec57610aeb8354611787565b601f8111610d9c575b50602090601f8311600114610d2e57610b4e96959493929160009183610d23575b50508160011b916000199060031b1c19161790555b516004880155516005870155511515600686019060ff801983541691151516179055565b51805160078501916001600160401b0382116105ec57610b6e8354611787565b601f8111610cdb575b50602090601f8311600114610c6f576009959493929160009183610c64575b50508160011b916000199060031b1c19161790555b51600884015551910155336000526004602052604060002093845494680100000000000000008610156105ec576020610c5b93610c1288610c389460017f4bac60dc51a3e92083b5ca70985d572a37b735058b5e86413c4f01c48b3339c59b018155611759565b81549060031b908b821b91600019901b1916179055604051809381928651928391611652565b81016005815203019020600160ff19825416179055604051938493339885611a04565b0390a360018055005b015190508d80610b96565b90601f1983169184600052816000209260005b818110610cc357509160019391856009999897969410610caa575b505050811b019055610bab565b015160001960f88460031b161c191690558d8080610c9d565b92936020600181928786015181550195019301610c82565b836000526020600020601f840160051c81019160208510610d19575b601f0160051c01905b818110610d0d5750610b77565b60008155600101610d00565b9091508190610cf7565b015190503880610b15565b90601f1983169184600052816000209260005b818110610d845750916001939185610b4e9a999897969410610d6b575b505050811b019055610b2a565b015160001960f88460031b161c19169055388080610d5e565b92936020600181928786015181550195019301610d41565b836000526020600020601f840160051c81019160208510610dda575b601f0160051c01905b818110610dce5750610af4565b60008155600101610dc1565b9091508190610db8565b015190503880610ab6565b60008581528281209350601f198516905b818110610e3c5750908460019594939210610e23575b505050811b019055610acb565b015160001960f88460031b161c19169055388080610e16565b92936020600181928786015181550195019301610e00565b909150836000526020600020601f840160051c81019160208510610e9d575b90601f859493920160051c01905b818110610e8e5750610a9f565b60008155849350600101610e81565b9091508190610e73565b60405162461bcd60e51b815260206004820152601960248201527f4950465320686173682063616e6e6f7420626520656d707479000000000000006044820152606490fd5b3461013a57602036600319011261013a57600435806000526003602052610f2460018060a01b03600160406000200154163314611889565b600081815260036020526040902060010154610f4a906001600160a01b03161515611844565b600081815260036020908152604091829020600601805460ff808216151660ff199091168117909155915191151582527f5405ffe1bf594545c72c69e618533af514ff9456a73ea6ac30b47e0b301be00191a2005b3461013a57600036600319011261013a57602060405160008152f35b3461013a57600036600319011261013a5760206040517f16ceee8289685dd2a02b9c8ae81d2df373176ce53519e6284e2a2950d6546ffa8152f35b3461013a57604036600319011261013a5761100f61172d565b600435600052600060205260406000209060018060a01b0316600052602052602060ff604060002054166040519015158152f35b3461013a57602036600319011261013a573360009081527f7d7ffb7a348e1c6a02869081a26547b49160dd3df72d1d75a570eb9b698292ec60205260409020546004359060ff16156110fb576000818152600360205260409020600101546110b5906001600160a01b03161515611844565b806000526003602052600660406000200160ff1981541690557f5405ffe1bf594545c72c69e618533af514ff9456a73ea6ac30b47e0b301be001602060405160008152a2005b63e2517d3f60e01b600052336004527fa49807205ce4d355092ef5a8a18f56e8913cf4a201fbe287825b095693c2177560245260446000fd5b3461013a57600036600319011261013a5760025460009060005b81811061116057602083604051908152f35b80600052600360205260ff60066040600020015416611182575b60010161114e565b916000198114611195576001019161117a565b634e487b7160e01b600052601160045260246000fd5b3461013a57600036600319011261013a5760206040517fa49807205ce4d355092ef5a8a18f56e8913cf4a201fbe287825b095693c217758152f35b3461013a57602036600319011261013a576001600160a01b03611207611743565b16600052600460205260406000206040518060208354918281520190819360005260206000209060005b81811061128a57505050816112479103826116b6565b6040519182916020830190602084525180915260408301919060005b818110611271575050500390f35b8251845285945060209384019390920191600101611263565b8254845260209093019260019283019201611231565b3461013a57600036600319011261013a57602060405160c88152f35b3461013a57604036600319011261013a576112d561172d565b336001600160a01b038216036112f1576108ba90600435611afe565b63334bd91960e11b60005260046000fd5b3461013a57604036600319011261013a576108ba60043561132161172d565b9061133d6108b082600052600060205260016040600020015490565b611a73565b3461013a57602036600319011261013a576004356001600160401b03811161013a5760ff61138d602061137a819436906004016116d7565b8160405193828580945193849201611652565b8101600581520301902054166040519015158152f35b3461013a57602036600319011261013a5760206113d0600435600052600060205260016040600020015490565b604051908152f35b3461013a57602036600319011261013a5760043560006101206040516113fd8161169a565b828152826020820152606060408201526060808201528260808201528260a08201528260c0820152606060e082015282610100820152015280600052600360205261145960018060a01b03600160406000200154161515611844565b60005260036020526020604060002060405180916114768261169a565b8054825260018101546001600160a01b031684830190815260405190916115b691906114b0826114a981600285016117c1565b03836116b6565b60408501918252604051916114d3836114cc81600386016117c1565b03846116b6565b606086019283526004820154926080870193845261158e60058401549160a0890192835261157b60ff6006870154169460c08b01951515865260096040519761152a8961152381600785016117c1565b038a6116b6565b60e08d0198895261010060088201549d019c8d520154996101208d019a8b526040518e819f9e829f83525191015260018060a01b0390511660408d01525161014060608d01526101608c0190611675565b90518a8203601f190160808c0152611675565b935160a08901525160c088015251151560e087015251858203601f1901610100870152611675565b9151610120840152516101408301520390f35b3461013a57602036600319011261013a5760043560c881029080820460c814901517156111955760209061271060405191048152f35b3461013a57602036600319011261013a576004359063ffffffff60e01b821680920361013a57602091637965db0b60e01b8114908115611641575b5015158152f35b6301ffc9a760e01b1490508361163a565b60005b8381106116655750506000910152565b8181015183820152602001611655565b9060209161168e81518092818552858086019101611652565b601f01601f1916010190565b61014081019081106001600160401b038211176105ec57604052565b90601f801991011681019081106001600160401b038211176105ec57604052565b81601f8201121561013a578035906001600160401b0382116105ec576040519261170b601f8401601f1916602001856116b6565b8284526020838301011161013a57816000926020809301838601378301015290565b602435906001600160a01b038216820361013a57565b600435906001600160a01b038216820361013a57565b80548210156117715760005260206000200190600090565b634e487b7160e01b600052603260045260246000fd5b90600182811c921680156117b7575b60208310146117a157565b634e487b7160e01b600052602260045260246000fd5b91607f1691611796565b600092918154916117d183611787565b808352926001811690811561182757506001146117ed57505050565b60009081526020812093945091925b83831061180d575060209250010190565b6001816020929493945483858701015201910191906117fc565b915050602093945060ff929192191683830152151560051b010190565b1561184b57565b60405162461bcd60e51b8152602060048201526016602482015275131a5cdd1a5b99c8191bd95cc81b9bdd08195e1a5cdd60521b6044820152606490fd5b1561189057565b60405162461bcd60e51b815260206004820152602560248201527f4f6e6c79206c616e646c6f72642063616e20706572666f726d2074686973206160448201526431ba34b7b760d91b6064820152608490fd5b156118ea57565b60405162461bcd60e51b815260206004820152601660248201527512541194c81a185cda08185b1c9958591e481d5cd95960521b6044820152606490fd5b1561192f57565b60405162461bcd60e51b815260206004820152601c60248201527f5072696365206d7573742062652067726561746572207468616e2030000000006044820152606490fd5b1561197b57565b60405162461bcd60e51b815260206004820152601e60248201527f4465706f736974206d7573742062652067726561746572207468616e203000006044820152606490fd5b156119c757565b60405162461bcd60e51b81526020600482015260156024820152745469746c652063616e6e6f7420626520656d70747960581b6044820152606490fd5b9092611a1d611a35959394608084526080840190611675565b93602083015260408201526060818403910152611675565b90565b60008181526020818152604080832033845290915290205460ff1615611a5b5750565b63e2517d3f60e01b6000523360045260245260446000fd5b6000818152602081815260408083206001600160a01b038616845290915290205460ff16611af7576000818152602081815260408083206001600160a01b0395909516808452949091528120805460ff19166001179055339291907f2f8788117e7eff1d82e926ec794901d17c78024a50270940304540a733656f0d9080a4600190565b5050600090565b6000818152602081815260408083206001600160a01b038616845290915290205460ff1615611af7576000818152602081815260408083206001600160a01b0395909516808452949091528120805460ff19169055339291907ff6391f5c32d9c69d2a47ea670b442974b53935d1edc7fd64eb21e047a839171b9080a4600190565b600260015414611b91576002600155565b633ee5aeb560e01b60005260046000fdfea2646970667358221220218da4e9da1c4753b030c998d10914548447628d57b79314dcac2549d28d4adb64736f6c634300081c00332f8788117e7eff1d82e926ec794901d17c78024a50270940304540a733656f0d7d7ffb7a348e1c6a02869081a26547b49160dd3df72d1d75a570eb9b698292ecad3228b676f7d3cd4284a5443f17f1962b36e491b30a40b2405849e597ba5fb5",
  "linkReferences": {},
  "deployedLinkReferences": {}
}