{
  "_format": "hh-sol-artifact-1",
  "contractName": "SubscriptionManager",
  "sourceName": "contracts/SubscriptionManager.sol",
  "abi": [
    {
      "inputs": [],
      "stateMutability": "nonpayable",
      "type": "constructor"
    },
    {
      "inputs": [],
      "name": "AccessControlBadConfirmation",
      "type": "error"
    },
    {
      "inputs": [
        {
          "internalType": "address",
          "name": "account",
          "type": "address"
        },
        {
          "internalType": "bytes32",
          "name": "neededRole",
          "type": "bytes32"
        }
      ],
      "name": "AccessControlUnauthorizedAccount",
      "type": "error"
    },
    {
      "inputs": [],
      "name": "EnforcedPause",
      "type": "error"
    },
    {
      "inputs": [],
      "name": "ExpectedPause",
      "type": "error"
    },
    {
      "inputs": [],
      "name": "ReentrancyGuardReentrantCall",
      "type": "error"
    },
    {
      "anonymous": false,
      "inputs": [
        {
          "indexed": false,
          "internalType": "address",
          "name": "account",
          "type": "address"
        }
      ],
      "name": "Paused",
      "type": "event"
    },
    {
      "anonymous": false,
      "inputs": [
        {
          "indexed": false,
          "internalType": "enum SubscriptionManager.SubscriptionPlan",
          "name": "plan",
          "type": "uint8"
        },
        {
          "indexed": false,
          "internalType": "uint256",
          "name": "monthlyPrice",
          "type": "uint256"
        },
        {
          "indexed": false,
          "internalType": "uint256",
          "name": "yearlyPrice",
          "type": "uint256"
        }
      ],
      "name": "PlanUpdated",
      "type": "event"
    },
    {
      "anonymous": false,
      "inputs": [
        {
          "indexed": true,
          "internalType": "bytes32",
          "name": "role",
          "type": "bytes32"
        },
        {
          "indexed": true,
          "internalType": "bytes32",
          "name": "previousAdminRole",
          "type": "bytes32"
        },
        {
          "indexed": true,
          "internalType": "bytes32",
          "name": "newAdminRole",
          "type": "bytes32"
        }
      ],
      "name": "RoleAdminChanged",
      "type": "event"
    },
    {
      "anonymous": false,
      "inputs": [
        {
          "indexed": true,
          "internalType": "bytes32",
          "name": "role",
          "type": "bytes32"
        },
        {
          "indexed": true,
          "internalType": "address",
          "name": "account",
          "type": "address"
        },
        {
          "indexed": true,
          "internalType": "address",
          "name": "sender",
          "type": "address"
        }
      ],
      "name": "RoleGranted",
      "type": "event"
    },
    {
      "anonymous": false,
      "inputs": [
        {
          "indexed": true,
          "internalType": "bytes32",
          "name": "role",
          "type": "bytes32"
        },
        {
          "indexed": true,
          "internalType": "address",
          "name": "account",
          "type": "address"
        },
        {
          "indexed": true,
          "internalType": "address",
          "name": "sender",
          "type": "address"
        }
      ],
      "name": "RoleRevoked",
      "type": "event"
    },
    {
      "anonymous": false,
      "inputs": [
        {
          "indexed": true,
          "internalType": "uint256",
          "name": "subscriptionId",
          "type": "uint256"
        },
        {
          "indexed": true,
          "internalType": "address",
          "name": "subscriber",
          "type": "address"
        }
      ],
      "name": "SubscriptionCancelled",
      "type": "event"
    },
    {
      "anonymous": false,
      "inputs": [
        {
          "indexed": true,
          "internalType": "uint256",
          "name": "subscriptionId",
          "type": "uint256"
        },
        {
          "indexed": true,
          "internalType": "address",
          "name": "subscriber",
          "type": "address"
        },
        {
          "indexed": false,
          "internalType": "enum SubscriptionManager.SubscriptionPlan",
          "name": "plan",
          "type": "uint8"
        },
        {
          "indexed": false,
          "internalType": "uint256",
          "name": "duration",
          "type": "uint256"
        },
        {
          "indexed": false,
          "internalType": "uint256",
          "name": "price",
          "type": "uint256"
        },
        {
          "indexed": false,
          "internalType": "uint256",
          "name": "expiresAt",
          "type": "uint256"
        }
      ],
      "name": "SubscriptionCreated",
      "type": "event"
    },
    {
      "anonymous": false,
      "inputs": [
        {
          "indexed": true,
          "internalType": "uint256",
          "name": "subscriptionId",
          "type": "uint256"
        },
        {
          "indexed": true,
          "internalType": "address",
          "name": "subscriber",
          "type": "address"
        },
        {
          "indexed": false,
          "internalType": "uint256",
          "name": "newExpiresAt",
          "type": "uint256"
        }
      ],
      "name": "SubscriptionRenewed",
      "type": "event"
    },
    {
      "anonymous": false,
      "inputs": [
        {
          "indexed": false,
          "internalType": "address",
          "name": "account",
          "type": "address"
        }
      ],
      "name": "Unpaused",
      "type": "event"
    },
    {
      "inputs": [],
      "name": "ADMIN_ROLE",
      "outputs": [
        {
          "internalType": "bytes32",
          "name": "",
          "type": "bytes32"
        }
      ],
      "stateMutability": "view",
      "type": "function"
    },
    {
      "inputs": [],
      "name": "DEFAULT_ADMIN_ROLE",
      "outputs": [
        {
          "internalType": "bytes32",
          "name": "",
          "type": "bytes32"
        }
      ],
      "stateMutability": "view",
      "type": "function"
    },
    {
      "inputs": [],
      "name": "PREMIUM_MONTHLY_PRICE",
      "outputs": [
        {
          "internalType": "uint256",
          "name": "",
          "type": "uint256"
        }
      ],
      "stateMutability": "view",
      "type": "function"
    },
    {
      "inputs": [],
      "name": "PRO_MONTHLY_PRICE",
      "outputs": [
        {
          "internalType": "uint256",
          "name": "",
          "type": "uint256"
        }
      ],
      "stateMutability": "view",
      "type": "function"
    },
    {
      "inputs": [],
      "name": "YEARLY_DISCOUNT_BPS",
      "outputs": [
        {
          "internalType": "uint256",
          "name": "",
          "type": "uint256"
        }
      ],
      "stateMutability": "view",
      "type": "function"
    },
    {
      "inputs": [
        {
          "internalType": "enum SubscriptionManager.SubscriptionPlan",
          "name": "plan",
          "type": "uint8"
        },
        {
          "internalType": "uint256",
          "name": "duration",
          "type": "uint256"
        }
      ],
      "name": "calculatePrice",
      "outputs": [
        {
          "internalType": "uint256",
          "name": "",
          "type": "uint256"
        }
      ],
      "stateMutability": "view",
      "type": "function"
    },
    {
      "inputs": [
        {
          "internalType": "uint256",
          "name": "subscriptionId",
          "type": "uint256"
        }
      ],
      "name": "cancelSubscription",
      "outputs": [],
      "stateMutability": "nonpayable",
      "type": "function"
    },
    {
      "inputs": [
        {
          "internalType": "enum SubscriptionManager.SubscriptionPlan",
          "name": "plan",
          "type": "uint8"
        },
        {
          "internalType": "uint256",
          "name": "duration",
          "type": "uint256"
        },
        {
          "internalType": "bool",
          "name": "autoRenew",
          "type": "bool"
        }
      ],
      "name": "createSubscription",
      "outputs": [],
      "stateMutability": "payable",
      "type": "function"
    },
    {
      "inputs": [],
      "name": "getContractBalance",
      "outputs": [
        {
          "internalType": "uint256",
          "name": "",
          "type": "uint256"
        }
      ],
      "stateMutability": "view",
      "type": "function"
    },
    {
      "inputs": [
        {
          "internalType": "enum SubscriptionManager.SubscriptionPlan",
          "name": "plan",
          "type": "uint8"
        }
      ],
      "name": "getPlanFeatures",
      "outputs": [
        {
          "internalType": "uint256",
          "name": "",
          "type": "uint256"
        }
      ],
      "stateMutability": "view",
      "type": "function"
    },
    {
      "inputs": [
        {
          "internalType": "bytes32",
          "name": "role",
          "type": "bytes32"
        }
      ],
      "name": "getRoleAdmin",
      "outputs": [
        {
          "internalType": "bytes32",
          "name": "",
          "type": "bytes32"
        }
      ],
      "stateMutability": "view",
      "type": "function"
    },
    {
      "inputs": [
        {
          "internalType": "uint256",
          "name": "subscriptionId",
          "type": "uint256"
        }
      ],
      "name": "getSubscription",
      "outputs": [
        {
          "components": [
            {
              "internalType": "uint256",
              "name": "subscriptionId",
              "type": "uint256"
            },
            {
              "internalType": "address",
              "name": "subscriber",
              "type": "address"
            },
            {
              "internalType": "enum SubscriptionManager.SubscriptionPlan",
              "name": "plan",
              "type": "uint8"
            },
            {
              "internalType": "uint256",
              "name": "createdAt",
              "type": "uint256"
            },
            {
              "internalType": "uint256",
              "name": "expiresAt",
              "type": "uint256"
            },
            {
              "internalType": "bool",
              "name": "isActive",
              "type": "bool"
            },
            {
              "internalType": "bool",
              "name": "autoRenew",
              "type": "bool"
            },
            {
              "internalType": "uint256",
              "name": "totalPaid",
              "type": "uint256"
            }
          ],
          "internalType": "struct SubscriptionManager.Subscription",
          "name": "",
          "type": "tuple"
        }
      ],
      "stateMutability": "view",
      "type": "function"
    },
    {
      "inputs": [
        {
          "internalType": "address",
          "name": "user",
          "type": "address"
        }
      ],
      "name": "getUserPlan",
      "outputs": [
        {
          "internalType": "enum SubscriptionManager.SubscriptionPlan",
          "name": "",
          "type": "uint8"
        }
      ],
      "stateMutability": "view",
      "type": "function"
    },
    {
      "inputs": [
        {
          "internalType": "address",
          "name": "user",
          "type": "address"
        }
      ],
      "name": "getUserSubscriptions",
      "outputs": [
        {
          "internalType": "uint256[]",
          "name": "",
          "type": "uint256[]"
        }
      ],
      "stateMutability": "view",
      "type": "function"
    },
    {
      "inputs": [
        {
          "internalType": "bytes32",
          "name": "role",
          "type": "bytes32"
        },
        {
          "internalType": "address",
          "name": "account",
          "type": "address"
        }
      ],
      "name": "grantRole",
      "outputs": [],
      "stateMutability": "nonpayable",
      "type": "function"
    },
    {
      "inputs": [
        {
          "internalType": "address",
          "name": "user",
          "type": "address"
        }
      ],
      "name": "hasActiveSubscription",
      "outputs": [
        {
          "internalType": "bool",
          "name": "",
          "type": "bool"
        }
      ],
      "stateMutability": "view",
      "type": "function"
    },
    {
      "inputs": [
        {
          "internalType": "address",
          "name": "user",
          "type": "address"
        },
        {
          "internalType": "uint256",
          "name": "feature",
          "type": "uint256"
        }
      ],
      "name": "hasFeature",
      "outputs": [
        {
          "internalType": "bool",
          "name": "",
          "type": "bool"
        }
      ],
      "stateMutability": "view",
      "type": "function"
    },
    {
      "inputs": [
        {
          "internalType": "bytes32",
          "name": "role",
          "type": "bytes32"
        },
        {
          "internalType": "address",
          "name": "account",
          "type": "address"
        }
      ],
      "name": "hasRole",
      "outputs": [
        {
          "internalType": "bool",
          "name": "",
          "type": "bool"
        }
      ],
      "stateMutability": "view",
      "type": "function"
    },
    {
      "inputs": [],
      "name": "pause",
      "outputs": [],
      "stateMutability": "nonpayable",
      "type": "function"
    },
    {
      "inputs": [],
      "name": "paused",
      "outputs": [
        {
          "internalType": "bool",
          "name": "",
          "type": "bool"
        }
      ],
      "stateMutability": "view",
      "type": "function"
    },
    {
      "inputs": [
        {
          "internalType": "enum SubscriptionManager.SubscriptionPlan",
          "name": "",
          "type": "uint8"
        }
      ],
      "name": "planFeatures",
      "outputs": [
        {
          "internalType": "uint256",
          "name": "",
          "type": "uint256"
        }
      ],
      "stateMutability": "view",
      "type": "function"
    },
    {
      "inputs": [
        {
          "internalType": "enum SubscriptionManager.SubscriptionPlan",
          "name": "",
          "type": "uint8"
        }
      ],
      "name": "planPrices",
      "outputs": [
        {
          "internalType": "uint256",
          "name": "",
          "type": "uint256"
        }
      ],
      "stateMutability": "view",
      "type": "function"
    },
    {
      "inputs": [
        {
          "internalType": "uint256",
          "name": "subscriptionId",
          "type": "uint256"
        }
      ],
      "name": "processAutoRenewal",
      "outputs": [],
      "stateMutability": "nonpayable",
      "type": "function"
    },
    {
      "inputs": [
        {
          "internalType": "uint256",
          "name": "subscriptionId",
          "type": "uint256"
        },
        {
          "internalType": "uint256",
          "name": "duration",
          "type": "uint256"
        }
      ],
      "name": "renewSubscription",
      "outputs": [],
      "stateMutability": "payable",
      "type": "function"
    },
    {
      "inputs": [
        {
          "internalType": "bytes32",
          "name": "role",
          "type": "bytes32"
        },
        {
          "internalType": "address",
          "name": "callerConfirmation",
          "type": "address"
        }
      ],
      "name": "renounceRole",
      "outputs": [],
      "stateMutability": "nonpayable",
      "type": "function"
    },
    {
      "inputs": [
        {
          "internalType": "bytes32",
          "name": "role",
          "type": "bytes32"
        },
        {
          "internalType": "address",
          "name": "account",
          "type": "address"
        }
      ],
      "name": "revokeRole",
      "outputs": [],
      "stateMutability": "nonpayable",
      "type": "function"
    },
    {
      "inputs": [
        {
          "internalType": "uint256",
          "name": "",
          "type": "uint256"
        }
      ],
      "name": "subscriptions",
      "outputs": [
        {
          "internalType": "uint256",
          "name": "subscriptionId",
          "type": "uint256"
        },
        {
          "internalType": "address",
          "name": "subscriber",
          "type": "address"
        },
        {
          "internalType": "enum SubscriptionManager.SubscriptionPlan",
          "name": "plan",
          "type": "uint8"
        },
        {
          "internalType": "uint256",
          "name": "createdAt",
          "type": "uint256"
        },
        {
          "internalType": "uint256",
          "name": "expiresAt",
          "type": "uint256"
        },
        {
          "internalType": "bool",
          "name": "isActive",
          "type": "bool"
        },
        {
          "internalType": "bool",
          "name": "autoRenew",
          "type": "bool"
        },
        {
          "internalType": "uint256",
          "name": "totalPaid",
          "type": "uint256"
        }
      ],
      "stateMutability": "view",
      "type": "function"
    },
    {
      "inputs": [
        {
          "internalType": "bytes4",
          "name": "interfaceId",
          "type": "bytes4"
        }
      ],
      "name": "supportsInterface",
      "outputs": [
        {
          "internalType": "bool",
          "name": "",
          "type": "bool"
        }
      ],
      "stateMutability": "view",
      "type": "function"
    },
    {
      "inputs": [
        {
          "internalType": "uint256",
          "name": "subscriptionId",
          "type": "uint256"
        }
      ],
      "name": "toggleAutoRenewal",
      "outputs": [],
      "stateMutability": "nonpayable",
      "type": "function"
    },
    {
      "inputs": [],
      "name": "unpause",
      "outputs": [],
      "stateMutability": "nonpayable",
      "type": "function"
    },
    {
      "inputs": [
        {
          "internalType": "enum SubscriptionManager.SubscriptionPlan",
          "name": "plan",
          "type": "uint8"
        },
        {
          "internalType": "uint256",
          "name": "features",
          "type": "uint256"
        }
      ],
      "name": "updatePlanFeatures",
      "outputs": [],
      "stateMutability": "nonpayable",
      "type": "function"
    },
    {
      "inputs": [
        {
          "internalType": "enum SubscriptionManager.SubscriptionPlan",
          "name": "plan",
          "type": "uint8"
        },
        {
          "internalType": "uint256",
          "name": "monthlyPrice",
          "type": "uint256"
        }
      ],
      "name": "updatePlanPricing",
      "outputs": [],
      "stateMutability": "nonpayable",
      "type": "function"
    },
    {
      "inputs": [
        {
          "internalType": "address",
          "name": "",
          "type": "address"
        }
      ],
      "name": "userActiveSubscription",
      "outputs": [
        {
          "internalType": "uint256",
          "name": "",
          "type": "uint256"
        }
      ],
      "stateMutability": "view",
      "type": "function"
    },
    {
      "inputs": [
        {
          "internalType": "address",
          "name": "",
          "type": "address"
        },
        {
          "internalType": "uint256",
          "name": "",
          "type": "uint256"
        }
      ],
      "name": "userSubscriptions",
      "outputs": [
        {
          "internalType": "uint256",
          "name": "",
          "type": "uint256"
        }
      ],
      "stateMutability": "view",
      "type": "function"
    },
    {
      "inputs": [
        {
          "internalType": "uint256",
          "name": "amount",
          "type": "uint256"
        }
      ],
      "name": "withdraw",
      "outputs": [],
      "stateMutability": "nonpayable",
      "type": "function"
    },
    {
      "stateMutability": "payable",
      "type": "receive"
    }
  ],
  "bytecode": "0x6080604052346100ff576001805561001633610104565b5061002033610180565b506801a055690d9db800007fb39221ace053465ec3453ce2b36430bd138b997ecea25c1043da0c366812b828556802b5e3af16b18800007fb7c774451310d1be4108bc180d1b52823cb0ee0274a6c0081bcaf94f115fb96d55600860205260007f5eff886ea0ce6ca488a3d6e336d6c0f75f46d19b42c06ce5ee98e42c96d256c781905560077fad67d757c34507f157cacfa2e3153e9f260a2244f30428821be7be64587ac55f5560029052601f7f6add646517a5b0f6793cd5891b7937d28a5b2981a5d88ebc7cd776088fea9041556040516119ae90816102198239f35b600080fd5b6001600160a01b0381166000908152600080516020611c07833981519152602052604090205460ff1661017a576001600160a01b03166000818152600080516020611c0783398151915260205260408120805460ff19166001179055339190600080516020611bc78339815191528180a4600190565b50600090565b6001600160a01b0381166000908152600080516020611be7833981519152602052604090205460ff1661017a576001600160a01b03166000818152600080516020611be783398151915260205260408120805460ff191660011790553391907fa49807205ce4d355092ef5a8a18f56e8913cf4a201fbe287825b095693c2177590600080516020611bc78339815191529080a460019056fe608080604052600436101561001d575b50361561001b57600080fd5b005b60003560e01c90816301ffc9a7146111ea575080630200a21a1461111e5780630a396a4a14610e265780632123508314610d57578063248a9ca314610d2a5780632d5bbf6014610c995780632e1a7d4d14610c0d5780632e6ca58814610b285780632f2ff15d14610ae857806336568abe14610aa25780633ca99916146104815780633f4ba83a14610a3957806346edacac14610a185780635c975abb146109f55780635ec403341461088f578063632ddc38146106e65780636e8bc608146106c35780636f9fb98a146106a7578063758fcb4a1461068a57806375b238fc1461064f57806380438349146106285780638456cb59146105ce57806391d14854146105815780639e26d4be1461055d578063a217fddf14610541578063b33187e714610519578063bb46613c146104df578063bebe4a57146104b2578063c8514d5814610481578063c95d6edc14610428578063c9638c7a14610404578063ce9d814414610374578063d547741f1461032f578063dc311dd3146101e25763e1076d15146101ab573861000f565b346101dd5760203660031901126101dd5760206101ce6101c961127f565b6116be565b6101db604051809261125c565bf35b600080fd5b346101dd5760203660031901126101dd57600435600060e0604051610206816113cb565b8281528260208201528260408201528260608201528260808201528260a08201528260c0820152015280600052600460205261025360018060a01b03600160406000200154161515611450565b6000526004602052610100604060002060405190610270826113cb565b8054825260018101546001600160a01b038116602084019081529160408401916102a09060a01c60ff16836113e8565b6002810154606085019081526003820154906080860191825261030b600484015494600560a089019560ff88161515875260ff60c08b019860081c161515885201549660e089019788526040519851895260018060a01b03905116602089015251604088019061125c565b51606086015251608085015251151560a084015251151560c08301525160e0820152f35b346101dd5760403660031901126101dd5761001b60043561034e611295565b9061036f61036a82600052600060205260016040600020015490565b6117f8565b6118f6565b346101dd5760203660031901126101dd5761001b6004358060005260046020526103af60018060a01b036001604060002001541633146113f4565b6000818152600460205260409020600101546103d5906001600160a01b03161515611450565b600090815260046020819052604090912001805461ff00198116600891821c60ff161590911b61ff0016179055565b346101dd5760003660031901126101dd5760206040516801a055690d9db800008152f35b346101dd5760403660031901126101dd5761044161127f565b6001600160a01b03166000908152600660205260409020805460243591908210156101dd57602091610472916112dd565b90549060031b1c604051908152f35b346101dd5760203660031901126101dd5760043560038110156101dd576104a96020916112c4565b54604051908152f35b346101dd5760203660031901126101dd5760206104d56104d061127f565b611607565b6040519015158152f35b346101dd5760203660031901126101dd576001600160a01b0361050061127f565b1660005260056020526020604060002054604051908152f35b346101dd5760203660031901126101dd5760043560038110156101dd576104a96020916112ab565b346101dd5760003660031901126101dd57602060405160008152f35b346101dd5760003660031901126101dd5760206040516802b5e3af16b18800008152f35b346101dd5760403660031901126101dd5761059a611295565b600435600052600060205260406000209060018060a01b0316600052602052602060ff604060002054166040519015158152f35b346101dd5760003660031901126101dd576105e7611786565b6105ef611855565b600160ff1960025416176002557f62e78cea01bee320cd4e420270b5ea74000d11b0c9f74754ebdbfc544b05a2586020604051338152a1005b346101dd5760403660031901126101dd5760206104d561064661127f565b6024359061152b565b346101dd5760003660031901126101dd5760206040517fa49807205ce4d355092ef5a8a18f56e8913cf4a201fbe287825b095693c217758152f35b346101dd5760003660031901126101dd5760206040516107d08152f35b346101dd5760003660031901126101dd57602047604051908152f35b346101dd576106e36106d43661123d565b91906106de611786565b6112c4565b55005b346101dd5760203660031901126101dd57600435610702611786565b600081815260046020526040902060010154610728906001600160a01b03161515611450565b80600052600460205260ff60046040600020015460081c161561084a5780600052600460205261076260ff6004604060002001541661149c565b806000526004602052600360406000200154421061080557806000526004602052600360406000200180549062278d0082018092116107ef5755600081815260046020908152604091829020600181015460039091015492519283526001600160a01b031692917f970c5bf2d1a1ad3de4ebd5b746400b020cc4dd6d43d466985f2801d86fb170999190a3005b634e487b7160e01b600052601160045260246000fd5b60405162461bcd60e51b815260206004820152601c60248201527f537562736372697074696f6e206e6f74206578706972656420796574000000006044820152606490fd5b60405162461bcd60e51b815260206004820152601860248201527f4175746f2d72656e6577616c206e6f7420656e61626c656400000000000000006044820152606490fd5b60403660031901126101dd576004356024356108a9611833565b8160005260046020526108cd60018060a01b036001604060002001541633146113f4565b6000828152600460205260409020600101546108f3906001600160a01b03161515611450565b6001811015806109ea575b6109079061130b565b81600052600460205261092460ff6004604060002001541661149c565b8160005260046020526109458160ff60016040600020015460a01c166114e8565b9061095282341015611368565b62278d0081029080820462278d0014901517156107ef5782600052600460205261098560036040600020019182546113be565b90558160005260046020526109a360056040600020019182546113be565b9055806000526004602052600360406000200154906040519182527f970c5bf2d1a1ad3de4ebd5b746400b020cc4dd6d43d466985f2801d86fb1709960203393a360018055005b50600c8111156108fe565b346101dd5760003660031901126101dd57602060ff600254166040519015158152f35b346101dd576020610a31610a2b3661123d565b906114e8565b604051908152f35b346101dd5760003660031901126101dd57610a52611786565b60025460ff811615610a915760ff19166002557f5db9ee0a495bf2e6ff9c91a7834c1ba4fdd244a5e8aa4e537bd38aeae4b073aa6020604051338152a1005b638dfc202b60e01b60005260046000fd5b346101dd5760403660031901126101dd57610abb611295565b336001600160a01b03821603610ad75761001b906004356118f6565b63334bd91960e11b60005260046000fd5b346101dd5760403660031901126101dd5761001b600435610b07611295565b90610b2361036a82600052600060205260016040600020015490565b611872565b346101dd5760203660031901126101dd576001600160a01b03610b4961127f565b1660005260066020526040600020604051908160208254918281520190819260005260206000209060005b818110610bf757505050829003601f01601f1916820167ffffffffffffffff811183821017610be157604081815260208083528451908301819052919283929183019160005b818110610bc8575050500390f35b8251845285945060209384019390920191600101610bba565b634e487b7160e01b600052604160045260246000fd5b8254845260209093019260019283019201610b74565b346101dd5760203660031901126101dd57600435610c29611786565b478111610c5d57600080808093818115610c54575b3390f115610c4857005b6040513d6000823e3d90fd5b506108fc610c3e565b60405162461bcd60e51b8152602060048201526014602482015273496e73756666696369656e742062616c616e636560601b6044820152606490fd5b346101dd5760203660031901126101dd576004356000526004602052610100604060002080549060ff6001820154916002810154600382015490610d04600560048501549401549560405197885260018060a01b038116602089015285604089019160a01c1661125c565b60608601526080850152818116151560a085015260081c16151560c083015260e0820152f35b346101dd5760203660031901126101dd576020610a31600435600052600060205260016040600020015490565b346101dd5760203660031901126101dd57600435806000526004602052610d8f60018060a01b036001604060002001541633146113f4565b600081815260046020526040902060010154610db5906001600160a01b03161515611450565b806000526004602052610dd260ff6004604060002001541661149c565b6000818152600460208181526040808420909201805461ffff1916905533808452600590915290822082905591907f533734a768f070673b823079652464b7e002bb51cdf15e3108209f397425225f9080a3005b60603660031901126101dd5760043560038110156101dd5760243590604435918215158093036101dd57610e58611833565b610e60611855565b60009282156110d9576001821015806110ce575b610e7d9061130b565b3384526005602052604084205461107d57610e9882846114e8565b610ea481341015611368565b600354926001840160035562278d00810281810462278d00148215171561106957610ecf90426113be565b928660405191610ede836113cb565b86835260208301903382526040840191610ef88a846113e8565b60608501428152608086019189835260a08701946001865260c08801948552604060e08901978b89528d815260046020522097518855600188019160018060a01b03905116825491516003811015611054576001600160a81b03199092161760a09190911b60ff60a01b161790555160028601555160038501559051600484018054925161ffff1990931691151560ff169190911791151560081b61ff0016919091179055600590519101553386526005602052836040872055338652600660205260408620805490680100000000000000008210156110405790610fe2916001820181556112dd565b81549060031b9086821b91600019901b1916179055611004604051809661125c565b6020850152604084015260608301527fd2aa549d5e1f5308abc8a82896e581aa47f5031f29e901af73e1c38928fde33260803393a36001805580f35b634e487b7160e01b88526041600452602488fd5b50634e487b7160e01b8f52602160045260248ffd5b634e487b7160e01b87526011600452602487fd5b60405162461bcd60e51b8152602060048201526024808201527f5573657220616c726561647920686173206163746976652073756273637269706044820152633a34b7b760e11b6064820152608490fd5b50600c821115610e74565b60405162461bcd60e51b815260206004820152601d60248201527f43616e6e6f742073756273637269626520746f206672656520706c616e0000006044820152606490fd5b346101dd5761112c3661123d565b611134611786565b8061113e836112ab565b5560009061114b836112ab565b5491600c830292808404600c14901517156111c2576107d083028381046107d014841517156111d657612710900483039283116111c2577f7f1d53317eaa3c7ba4a141735afa753a267faa0d47395a12ab844cd10b55d01d60608585856111b5604051809461125c565b60208301526040820152a1005b634e487b7160e01b81526011600452602490fd5b634e487b7160e01b82526011600452602482fd5b346101dd5760203660031901126101dd576004359063ffffffff60e01b82168092036101dd57602091637965db0b60e01b811490811561122c575b5015158152f35b6301ffc9a760e01b14905083611225565b60409060031901126101dd5760043560038110156101dd579060243590565b9060038210156112695752565b634e487b7160e01b600052602160045260246000fd5b600435906001600160a01b03821682036101dd57565b602435906001600160a01b03821682036101dd57565b6003811015611269576000526007602052604060002090565b6003811015611269576000526008602052604060002090565b80548210156112f55760005260206000200190600090565b634e487b7160e01b600052603260045260246000fd5b1561131257565b60405162461bcd60e51b815260206004820152602860248201527f4475726174696f6e206d757374206265206265747765656e203120616e64203160448201526732206d6f6e74687360c01b6064820152608490fd5b1561136f57565b60405162461bcd60e51b8152602060048201526014602482015273125b9cdd59999a58da595b9d081c185e5b595b9d60621b6044820152606490fd5b818102929181159184041417156107ef57565b919082018092116107ef57565b610100810190811067ffffffffffffffff821117610be157604052565b60038210156112695752565b156113fb57565b60405162461bcd60e51b815260206004820152602760248201527f4f6e6c7920737562736372696265722063616e20706572666f726d20746869736044820152661030b1ba34b7b760c91b6064820152608490fd5b1561145757565b60405162461bcd60e51b815260206004820152601b60248201527f537562736372697074696f6e20646f6573206e6f7420657869737400000000006044820152606490fd5b156114a357565b60405162461bcd60e51b815260206004820152601a60248201527f537562736372697074696f6e206973206e6f74206163746976650000000000006044820152606490fd5b6114fd826114f7600c936112ab565b546113ab565b91146115065790565b6107d081028181046107d014821517156107ef57612710900481039081116107ef5790565b6001600160a01b031660009081526005602052604090205480156115f65760005260046020526040600020604051611562816113cb565b8154815260018201546001600160a01b03811660208301526040820192906115909060a01c60ff16846113e8565b6002810154606083015260038101549081608084015260048101549260e0600560ff8616159360ff8515978860a087015260081c16151560c08501520154910152916115fd575b506115f657516003811015611269576115ef906112c4565b5416151590565b5050600090565b90504211386115d7565b6001600160a01b031660009081526005602052604090205480156116b8576000526004602052604060002060405161163e816113cb565b8154815260018201546001600160a01b03811660208301526116699060a01c60ff16604083016113e8565b6002820154606082015260038201549081608082015260e0600560048501549460ff8087161515968760a087015260081c16151560c08501520154910152816116b0575090565b905042111590565b50600090565b6001600160a01b031660009081526005602052604090205480156116b857600052600460205260406000206040516116f5816113cb565b8154815260018201546001600160a01b03811660208301526040820192906117239060a01c60ff16846113e8565b6002810154606083015260038101549081608084015260048101549260e0600560ff8616159360ff8515978860a087015260081c16151560c085015201549101529161177c575b506116b8575160038110156112695790565b905042113861176a565b3360009081527f7d7ffb7a348e1c6a02869081a26547b49160dd3df72d1d75a570eb9b698292ec602052604090205460ff16156117bf57565b63e2517d3f60e01b600052336004527fa49807205ce4d355092ef5a8a18f56e8913cf4a201fbe287825b095693c2177560245260446000fd5b60008181526020818152604080832033845290915290205460ff161561181b5750565b63e2517d3f60e01b6000523360045260245260446000fd5b600260015414611844576002600155565b633ee5aeb560e01b60005260046000fd5b60ff6002541661186157565b63d93c066560e01b60005260046000fd5b6000818152602081815260408083206001600160a01b038616845290915290205460ff166115f6576000818152602081815260408083206001600160a01b0395909516808452949091528120805460ff19166001179055339291907f2f8788117e7eff1d82e926ec794901d17c78024a50270940304540a733656f0d9080a4600190565b6000818152602081815260408083206001600160a01b038616845290915290205460ff16156115f6576000818152602081815260408083206001600160a01b0395909516808452949091528120805460ff19169055339291907ff6391f5c32d9c69d2a47ea670b442974b53935d1edc7fd64eb21e047a839171b9080a460019056fea2646970667358221220d120771389205f36d97e1bc1114a7ba189c97492e5ece53c1502df239c32c2cc64736f6c634300081c00332f8788117e7eff1d82e926ec794901d17c78024a50270940304540a733656f0d7d7ffb7a348e1c6a02869081a26547b49160dd3df72d1d75a570eb9b698292ecad3228b676f7d3cd4284a5443f17f1962b36e491b30a40b2405849e597ba5fb5",
  "linkReferences": {},
  "deployedLinkReferences": {}
}