{
  "_format": "hh-sol-artifact-1",
  "contractName": "RentalEscrow",
  "sourceName": "contracts/RentalEscrow.sol",
  "abi": [
    {
      "inputs": [],
      "stateMutability": "nonpayable",
      "type": "constructor"
    },
    {
      "inputs": [],
      "name": "AccessControlBadConfirmation",
      "type": "error"
    },
    {
      "inputs": [
        {
          "internalType": "address",
          "name": "account",
          "type": "address"
        },
        {
          "internalType": "bytes32",
          "name": "neededRole",
          "type": "bytes32"
        }
      ],
      "name": "AccessControlUnauthorizedAccount",
      "type": "error"
    },
    {
      "inputs": [],
      "name": "EnforcedPause",
      "type": "error"
    },
    {
      "inputs": [],
      "name": "ExpectedPause",
      "type": "error"
    },
    {
      "inputs": [],
      "name": "ReentrancyGuardReentrantCall",
      "type": "error"
    },
    {
      "inputs": [
        {
          "internalType": "address",
          "name": "token",
          "type": "address"
        }
      ],
      "name": "SafeERC20FailedOperation",
      "type": "error"
    },
    {
      "anonymous": false,
      "inputs": [
        {
          "indexed": true,
          "internalType": "uint256",
          "name": "rentalId",
          "type": "uint256"
        },
        {
          "indexed": true,
          "internalType": "address",
          "name": "tenant",
          "type": "address"
        },
        {
          "indexed": false,
          "internalType": "uint256",
          "name": "amount",
          "type": "uint256"
        }
      ],
      "name": "DepositMade",
      "type": "event"
    },
    {
      "anonymous": false,
      "inputs": [
        {
          "indexed": true,
          "internalType": "uint256",
          "name": "rentalId",
          "type": "uint256"
        },
        {
          "indexed": true,
          "internalType": "address",
          "name": "initiator",
          "type": "address"
        },
        {
          "indexed": false,
          "internalType": "string",
          "name": "reason",
          "type": "string"
        },
        {
          "indexed": false,
          "internalType": "string",
          "name": "ipfsHash",
          "type": "string"
        }
      ],
      "name": "DisputeOpened",
      "type": "event"
    },
    {
      "anonymous": false,
      "inputs": [
        {
          "indexed": true,
          "internalType": "uint256",
          "name": "rentalId",
          "type": "uint256"
        },
        {
          "indexed": true,
          "internalType": "address",
          "name": "arbitrator",
          "type": "address"
        },
        {
          "indexed": false,
          "internalType": "uint256",
          "name": "tenantRefund",
          "type": "uint256"
        },
        {
          "indexed": false,
          "internalType": "uint256",
          "name": "landlordRefund",
          "type": "uint256"
        },
        {
          "indexed": false,
          "internalType": "uint256",
          "name": "platformFee",
          "type": "uint256"
        }
      ],
      "name": "DisputeResolved",
      "type": "event"
    },
    {
      "anonymous": false,
      "inputs": [
        {
          "indexed": false,
          "internalType": "address",
          "name": "account",
          "type": "address"
        }
      ],
      "name": "Paused",
      "type": "event"
    },
    {
      "anonymous": false,
      "inputs": [
        {
          "indexed": true,
          "internalType": "uint256",
          "name": "rentalId",
          "type": "uint256"
        },
        {
          "indexed": true,
          "internalType": "address",
          "name": "tenant",
          "type": "address"
        },
        {
          "indexed": false,
          "internalType": "uint256",
          "name": "amount",
          "type": "uint256"
        }
      ],
      "name": "PaymentMade",
      "type": "event"
    },
    {
      "anonymous": false,
      "inputs": [
        {
          "indexed": true,
          "internalType": "uint256",
          "name": "rentalId",
          "type": "uint256"
        },
        {
          "indexed": true,
          "internalType": "address",
          "name": "recipient",
          "type": "address"
        },
        {
          "indexed": false,
          "internalType": "uint256",
          "name": "amount",
          "type": "uint256"
        }
      ],
      "name": "RefundProcessed",
      "type": "event"
    },
    {
      "anonymous": false,
      "inputs": [
        {
          "indexed": true,
          "internalType": "uint256",
          "name": "rentalId",
          "type": "uint256"
        },
        {
          "indexed": true,
          "internalType": "uint256",
          "name": "listingId",
          "type": "uint256"
        },
        {
          "indexed": true,
          "internalType": "address",
          "name": "tenant",
          "type": "address"
        },
        {
          "indexed": false,
          "internalType": "address",
          "name": "landlord",
          "type": "address"
        },
        {
          "indexed": false,
          "internalType": "uint256",
          "name": "deposit",
          "type": "uint256"
        },
        {
          "indexed": false,
          "internalType": "uint256",
          "name": "totalRent",
          "type": "uint256"
        },
        {
          "indexed": false,
          "internalType": "uint256",
          "name": "startDate",
          "type": "uint256"
        },
        {
          "indexed": false,
          "internalType": "uint256",
          "name": "endDate",
          "type": "uint256"
        }
      ],
      "name": "RentalCreated",
      "type": "event"
    },
    {
      "anonymous": false,
      "inputs": [
        {
          "indexed": true,
          "internalType": "bytes32",
          "name": "role",
          "type": "bytes32"
        },
        {
          "indexed": true,
          "internalType": "bytes32",
          "name": "previousAdminRole",
          "type": "bytes32"
        },
        {
          "indexed": true,
          "internalType": "bytes32",
          "name": "newAdminRole",
          "type": "bytes32"
        }
      ],
      "name": "RoleAdminChanged",
      "type": "event"
    },
    {
      "anonymous": false,
      "inputs": [
        {
          "indexed": true,
          "internalType": "bytes32",
          "name": "role",
          "type": "bytes32"
        },
        {
          "indexed": true,
          "internalType": "address",
          "name": "account",
          "type": "address"
        },
        {
          "indexed": true,
          "internalType": "address",
          "name": "sender",
          "type": "address"
        }
      ],
      "name": "RoleGranted",
      "type": "event"
    },
    {
      "anonymous": false,
      "inputs": [
        {
          "indexed": true,
          "internalType": "bytes32",
          "name": "role",
          "type": "bytes32"
        },
        {
          "indexed": true,
          "internalType": "address",
          "name": "account",
          "type": "address"
        },
        {
          "indexed": true,
          "internalType": "address",
          "name": "sender",
          "type": "address"
        }
      ],
      "name": "RoleRevoked",
      "type": "event"
    },
    {
      "anonymous": false,
      "inputs": [
        {
          "indexed": false,
          "internalType": "address",
          "name": "account",
          "type": "address"
        }
      ],
      "name": "Unpaused",
      "type": "event"
    },
    {
      "inputs": [],
      "name": "ADMIN_ROLE",
      "outputs": [
        {
          "internalType": "bytes32",
          "name": "",
          "type": "bytes32"
        }
      ],
      "stateMutability": "view",
      "type": "function"
    },
    {
      "inputs": [],
      "name": "ARBITRATOR_ROLE",
      "outputs": [
        {
          "internalType": "bytes32",
          "name": "",
          "type": "bytes32"
        }
      ],
      "stateMutability": "view",
      "type": "function"
    },
    {
      "inputs": [],
      "name": "BASIS_POINTS",
      "outputs": [
        {
          "internalType": "uint256",
          "name": "",
          "type": "uint256"
        }
      ],
      "stateMutability": "view",
      "type": "function"
    },
    {
      "inputs": [],
      "name": "DEFAULT_ADMIN_ROLE",
      "outputs": [
        {
          "internalType": "bytes32",
          "name": "",
          "type": "bytes32"
        }
      ],
      "stateMutability": "view",
      "type": "function"
    },
    {
      "inputs": [],
      "name": "DISPUTE_COOLDOWN",
      "outputs": [
        {
          "internalType": "uint256",
          "name": "",
          "type": "uint256"
        }
      ],
      "stateMutability": "view",
      "type": "function"
    },
    {
      "inputs": [],
      "name": "DISPUTE_TIMEOUT",
      "outputs": [
        {
          "internalType": "uint256",
          "name": "",
          "type": "uint256"
        }
      ],
      "stateMutability": "view",
      "type": "function"
    },
    {
      "inputs": [],
      "name": "MAX_DISPUTES_PER_USER",
      "outputs": [
        {
          "internalType": "uint256",
          "name": "",
          "type": "uint256"
        }
      ],
      "stateMutability": "view",
      "type": "function"
    },
    {
      "inputs": [],
      "name": "PLATFORM_FEE_BPS",
      "outputs": [
        {
          "internalType": "uint256",
          "name": "",
          "type": "uint256"
        }
      ],
      "stateMutability": "view",
      "type": "function"
    },
    {
      "inputs": [
        {
          "internalType": "uint256",
          "name": "rentalId",
          "type": "uint256"
        }
      ],
      "name": "agreeReturn",
      "outputs": [],
      "stateMutability": "nonpayable",
      "type": "function"
    },
    {
      "inputs": [
        {
          "internalType": "uint256",
          "name": "listingId",
          "type": "uint256"
        },
        {
          "internalType": "address",
          "name": "landlord",
          "type": "address"
        },
        {
          "internalType": "uint256",
          "name": "deposit",
          "type": "uint256"
        },
        {
          "internalType": "uint256",
          "name": "totalRent",
          "type": "uint256"
        },
        {
          "internalType": "uint256",
          "name": "startDate",
          "type": "uint256"
        },
        {
          "internalType": "uint256",
          "name": "endDate",
          "type": "uint256"
        }
      ],
      "name": "createRental",
      "outputs": [],
      "stateMutability": "nonpayable",
      "type": "function"
    },
    {
      "inputs": [],
      "name": "getContractBalance",
      "outputs": [
        {
          "internalType": "uint256",
          "name": "",
          "type": "uint256"
        }
      ],
      "stateMutability": "view",
      "type": "function"
    },
    {
      "inputs": [
        {
          "internalType": "address",
          "name": "landlord",
          "type": "address"
        }
      ],
      "name": "getLandlordRentals",
      "outputs": [
        {
          "internalType": "uint256[]",
          "name": "",
          "type": "uint256[]"
        }
      ],
      "stateMutability": "view",
      "type": "function"
    },
    {
      "inputs": [
        {
          "internalType": "uint256",
          "name": "rentalId",
          "type": "uint256"
        }
      ],
      "name": "getRental",
      "outputs": [
        {
          "components": [
            {
              "internalType": "uint256",
              "name": "rentalId",
              "type": "uint256"
            },
            {
              "internalType": "uint256",
              "name": "listingId",
              "type": "uint256"
            },
            {
              "internalType": "address",
              "name": "tenant",
              "type": "address"
            },
            {
              "internalType": "address",
              "name": "landlord",
              "type": "address"
            },
            {
              "internalType": "uint256",
              "name": "deposit",
              "type": "uint256"
            },
            {
              "internalType": "uint256",
              "name": "totalRent",
              "type": "uint256"
            },
            {
              "internalType": "uint256",
              "name": "startDate",
              "type": "uint256"
            },
            {
              "internalType": "uint256",
              "name": "endDate",
              "type": "uint256"
            },
            {
              "internalType": "enum RentalEscrow.RentalStatus",
              "name": "status",
              "type": "uint8"
            },
            {
              "internalType": "uint256",
              "name": "createdAt",
              "type": "uint256"
            },
            {
              "internalType": "uint256",
              "name": "updatedAt",
              "type": "uint256"
            },
            {
              "internalType": "string",
              "name": "contractIpfsHash",
              "type": "string"
            },
            {
              "internalType": "bool",
              "name": "tenantSigned",
              "type": "bool"
            },
            {
              "internalType": "bool",
              "name": "landlordSigned",
              "type": "bool"
            },
            {
              "internalType": "address",
              "name": "arbitrator",
              "type": "address"
            },
            {
              "internalType": "uint256",
              "name": "disputeOpenedAt",
              "type": "uint256"
            },
            {
              "internalType": "string",
              "name": "disputeReason",
              "type": "string"
            },
            {
              "internalType": "string",
              "name": "disputeIpfsHash",
              "type": "string"
            }
          ],
          "internalType": "struct RentalEscrow.Rental",
          "name": "",
          "type": "tuple"
        }
      ],
      "stateMutability": "view",
      "type": "function"
    },
    {
      "inputs": [
        {
          "internalType": "bytes32",
          "name": "role",
          "type": "bytes32"
        }
      ],
      "name": "getRoleAdmin",
      "outputs": [
        {
          "internalType": "bytes32",
          "name": "",
          "type": "bytes32"
        }
      ],
      "stateMutability": "view",
      "type": "function"
    },
    {
      "inputs": [
        {
          "internalType": "address",
          "name": "tenant",
          "type": "address"
        }
      ],
      "name": "getTenantRentals",
      "outputs": [
        {
          "internalType": "uint256[]",
          "name": "",
          "type": "uint256[]"
        }
      ],
      "stateMutability": "view",
      "type": "function"
    },
    {
      "inputs": [
        {
          "internalType": "bytes32",
          "name": "role",
          "type": "bytes32"
        },
        {
          "internalType": "address",
          "name": "account",
          "type": "address"
        }
      ],
      "name": "grantRole",
      "outputs": [],
      "stateMutability": "nonpayable",
      "type": "function"
    },
    {
      "inputs": [
        {
          "internalType": "bytes32",
          "name": "role",
          "type": "bytes32"
        },
        {
          "internalType": "address",
          "name": "account",
          "type": "address"
        }
      ],
      "name": "hasRole",
      "outputs": [
        {
          "internalType": "bool",
          "name": "",
          "type": "bool"
        }
      ],
      "stateMutability": "view",
      "type": "function"
    },
    {
      "inputs": [
        {
          "internalType": "address",
          "name": "",
          "type": "address"
        },
        {
          "internalType": "uint256",
          "name": "",
          "type": "uint256"
        }
      ],
      "name": "landlordRentals",
      "outputs": [
        {
          "internalType": "uint256",
          "name": "",
          "type": "uint256"
        }
      ],
      "stateMutability": "view",
      "type": "function"
    },
    {
      "inputs": [
        {
          "internalType": "address",
          "name": "",
          "type": "address"
        }
      ],
      "name": "lastDisputeTime",
      "outputs": [
        {
          "internalType": "uint256",
          "name": "",
          "type": "uint256"
        }
      ],
      "stateMutability": "view",
      "type": "function"
    },
    {
      "inputs": [
        {
          "internalType": "uint256",
          "name": "rentalId",
          "type": "uint256"
        }
      ],
      "name": "makeDeposit",
      "outputs": [],
      "stateMutability": "payable",
      "type": "function"
    },
    {
      "inputs": [
        {
          "internalType": "uint256",
          "name": "rentalId",
          "type": "uint256"
        },
        {
          "internalType": "address",
          "name": "token",
          "type": "address"
        }
      ],
      "name": "makeDepositWithToken",
      "outputs": [],
      "stateMutability": "nonpayable",
      "type": "function"
    },
    {
      "inputs": [
        {
          "internalType": "uint256",
          "name": "rentalId",
          "type": "uint256"
        },
        {
          "internalType": "string",
          "name": "reason",
          "type": "string"
        },
        {
          "internalType": "string",
          "name": "disputeIpfsHash",
          "type": "string"
        }
      ],
      "name": "openDispute",
      "outputs": [],
      "stateMutability": "nonpayable",
      "type": "function"
    },
    {
      "inputs": [],
      "name": "pause",
      "outputs": [],
      "stateMutability": "nonpayable",
      "type": "function"
    },
    {
      "inputs": [],
      "name": "paused",
      "outputs": [
        {
          "internalType": "bool",
          "name": "",
          "type": "bool"
        }
      ],
      "stateMutability": "view",
      "type": "function"
    },
    {
      "inputs": [
        {
          "internalType": "bytes32",
          "name": "role",
          "type": "bytes32"
        },
        {
          "internalType": "address",
          "name": "callerConfirmation",
          "type": "address"
        }
      ],
      "name": "renounceRole",
      "outputs": [],
      "stateMutability": "nonpayable",
      "type": "function"
    },
    {
      "inputs": [
        {
          "internalType": "uint256",
          "name": "",
          "type": "uint256"
        }
      ],
      "name": "rentals",
      "outputs": [
        {
          "internalType": "uint256",
          "name": "rentalId",
          "type": "uint256"
        },
        {
          "internalType": "uint256",
          "name": "listingId",
          "type": "uint256"
        },
        {
          "internalType": "address",
          "name": "tenant",
          "type": "address"
        },
        {
          "internalType": "address",
          "name": "landlord",
          "type": "address"
        },
        {
          "internalType": "uint256",
          "name": "deposit",
          "type": "uint256"
        },
        {
          "internalType": "uint256",
          "name": "totalRent",
          "type": "uint256"
        },
        {
          "internalType": "uint256",
          "name": "startDate",
          "type": "uint256"
        },
        {
          "internalType": "uint256",
          "name": "endDate",
          "type": "uint256"
        },
        {
          "internalType": "enum RentalEscrow.RentalStatus",
          "name": "status",
          "type": "uint8"
        },
        {
          "internalType": "uint256",
          "name": "createdAt",
          "type": "uint256"
        },
        {
          "internalType": "uint256",
          "name": "updatedAt",
          "type": "uint256"
        },
        {
          "internalType": "string",
          "name": "contractIpfsHash",
          "type": "string"
        },
        {
          "internalType": "bool",
          "name": "tenantSigned",
          "type": "bool"
        },
        {
          "internalType": "bool",
          "name": "landlordSigned",
          "type": "bool"
        },
        {
          "internalType": "address",
          "name": "arbitrator",
          "type": "address"
        },
        {
          "internalType": "uint256",
          "name": "disputeOpenedAt",
          "type": "uint256"
        },
        {
          "internalType": "string",
          "name": "disputeReason",
          "type": "string"
        },
        {
          "internalType": "string",
          "name": "disputeIpfsHash",
          "type": "string"
        }
      ],
      "stateMutability": "view",
      "type": "function"
    },
    {
      "inputs": [
        {
          "internalType": "uint256",
          "name": "rentalId",
          "type": "uint256"
        },
        {
          "internalType": "uint256",
          "name": "tenantRefund",
          "type": "uint256"
        },
        {
          "internalType": "uint256",
          "name": "landlordRefund",
          "type": "uint256"
        },
        {
          "internalType": "uint256",
          "name": "platformFee",
          "type": "uint256"
        }
      ],
      "name": "resolveDispute",
      "outputs": [],
      "stateMutability": "nonpayable",
      "type": "function"
    },
    {
      "inputs": [
        {
          "internalType": "bytes32",
          "name": "role",
          "type": "bytes32"
        },
        {
          "internalType": "address",
          "name": "account",
          "type": "address"
        }
      ],
      "name": "revokeRole",
      "outputs": [],
      "stateMutability": "nonpayable",
      "type": "function"
    },
    {
      "inputs": [
        {
          "internalType": "uint256",
          "name": "rentalId",
          "type": "uint256"
        },
        {
          "internalType": "string",
          "name": "contractIpfsHash",
          "type": "string"
        }
      ],
      "name": "signContract",
      "outputs": [],
      "stateMutability": "nonpayable",
      "type": "function"
    },
    {
      "inputs": [
        {
          "internalType": "bytes4",
          "name": "interfaceId",
          "type": "bytes4"
        }
      ],
      "name": "supportsInterface",
      "outputs": [
        {
          "internalType": "bool",
          "name": "",
          "type": "bool"
        }
      ],
      "stateMutability": "view",
      "type": "function"
    },
    {
      "inputs": [
        {
          "internalType": "address",
          "name": "",
          "type": "address"
        },
        {
          "internalType": "uint256",
          "name": "",
          "type": "uint256"
        }
      ],
      "name": "tenantRentals",
      "outputs": [
        {
          "internalType": "uint256",
          "name": "",
          "type": "uint256"
        }
      ],
      "stateMutability": "view",
      "type": "function"
    },
    {
      "inputs": [],
      "name": "unpause",
      "outputs": [],
      "stateMutability": "nonpayable",
      "type": "function"
    },
    {
      "inputs": [
        {
          "internalType": "address",
          "name": "",
          "type": "address"
        }
      ],
      "name": "userDisputeCount",
      "outputs": [
        {
          "internalType": "uint256",
          "name": "",
          "type": "uint256"
        }
      ],
      "stateMutability": "view",
      "type": "function"
    },
    {
      "stateMutability": "payable",
      "type": "receive"
    }
  ],
  "bytecode": "0x608060405234610030576001805561001633610035565b50610020336100b1565b50604051612a76908161014a8239f35b600080fd5b6001600160a01b0381166000908152600080516020612c00833981519152602052604090205460ff166100ab576001600160a01b03166000818152600080516020612c0083398151915260205260408120805460ff19166001179055339190600080516020612bc08339815191528180a4600190565b50600090565b6001600160a01b0381166000908152600080516020612be0833981519152602052604090205460ff166100ab576001600160a01b03166000818152600080516020612be083398151915260205260408120805460ff191660011790553391907fa49807205ce4d355092ef5a8a18f56e8913cf4a201fbe287825b095693c2177590600080516020612bc08339815191529080a460019056fe60a080604052600436101561001d575b50361561001b57600080fd5b005b60003560e01c90816301ffc9a71461241e57508063059a500c146122d757806316670bcd14611fe95780631a2920b714611f9f5780631b0779a614611f28578063248a9ca314611ef357806324df1f7014611c515780632f2ff15d14611c1157806336568abe14611bcb5780633f4ba83a14611b62578063486265c614611b445780634f27049614611b26578063539aa77f14611b0a5780635c975abb14611ae7578063652bd29e146117f05780636f9fb98a146117d457806370efb5cb146117b857806375b238fc1461177d5780637607d62f146117245780638456cb59146116ca57806391d148541461167d5780639cea078714611642578063a217fddf14611626578063a4e18cd714611129578063af94a1d114610f97578063bd55cc3a14610783578063c4a83a0e14610749578063d547741f14610704578063db8011ef1461067d578063e1f1c4a714610660578063e92487a214610626578063fc78aef1146104815763fea14f5e14610195573861000f565b3461047c57604036600319011261047c5760043560243567ffffffffffffffff811161047c576101c9903690600401612592565b81600052600460205260018060a01b036002604060002001541633148015610459575b6101f5906127a8565b60008281526004602052604090206002015461021b906001600160a01b031615156126c7565b805115610414576000828152600460205260409020600201546001600160a01b031633036103d157816000526004602052600c604060002001600160ff198254161790555b81600052600460205261027a600b604060002001546125e9565b15610298575b50600052600460205242600a60406000200155600080f35b90806000526004602052600b604060002001825167ffffffffffffffff81116103bb576102c582546125e9565b601f8111610373575b506020601f821160011461030e5781929394600092610303575b50508160011b916000199060031b1c19161790555b38610280565b0151905038806102e8565b601f1982169083600052806000209160005b81811061035b57509583600195969710610342575b505050811b0190556102fd565b015160001960f88460031b161c19169055388080610335565b9192602060018192868b015181550194019201610320565b826000526020600020601f830160051c810191602084106103b1575b601f0160051c01905b8181106103a557506102ce565b60008155600101610398565b909150819061038f565b634e487b7160e01b600052604160045260246000fd5b8160005260046020523360018060a01b03600360406000200154160361026057816000526004602052600c60406000200161010061ff0019825416179055610260565b60405162461bcd60e51b815260206004820152601d60248201527f436f6e747261637420686173682063616e6e6f7420626520656d7074790000006044820152606490fd5b506000828152600460205260409020600301546001600160a01b031633146101ec565b600080fd5b3461047c57604036600319011261047c5760043561049d612487565b6104a5612847565b6104ad612869565b6000828152600460205260409020600201546104d3906001600160a01b031615156126c7565b81600052600460205260ff600860406000200154166005811015610610576104fb901561270b565b81600052600460205261051f60018060a01b0360026040600020015416331461274f565b60018060a01b0316908060005260046020526004604060002001549160206000604051828101906323b872dd60e01b825233602482015230604482015286606482015260648152610571608482612570565b519082855af115610604576000513d6105fb5750803b155b6105e7575060008181526004602090815260409182902060088101805460ff1916600117905542600a90910155905192835233927f377ef0adce1eae318afaad309c3b0f6c378fa1a294064deccda8d15ad28858eb9190a360018055005b635274afe760e01b60005260045260246000fd5b60011415610589565b6040513d6000823e3d90fd5b634e487b7160e01b600052602160045260246000fd5b3461047c57602036600319011261047c576001600160a01b03610647612471565b1660005260086020526020604060002054604051908152f35b3461047c57600036600319011261047c5760206040516127108152f35b3461047c57602036600319011261047c576001600160a01b0361069e612471565b166000526005602052604060002060405190816020825491828152019160005260206000209060005b8181106106ee576106ea856106de81870382612570565b604051918291826124cb565b0390f35b82548452602090930192600192830192016106c7565b3461047c57604036600319011261047c5761001b600435610723612487565b9061074461073f82600052600060205260016040600020015490565b6128f8565b6129be565b3461047c57602036600319011261047c576001600160a01b0361076a612471565b1660005260076020526020604060002054604051908152f35b3461047c5760c036600319011261047c5761079c612487565b6107a4612869565b6001600160a01b03811615610f52576001600160a01b0381163314610f0d5760443515610ec85760643515610e7957426084351115610e355760843560a4351115610de657600354600181016003556040519161080083612553565b818352600435602084015233604084015260018060a01b0381166060840152604435608084015260643560a084015260843560c084015260a43560e08401526000610100840152426101208401524261014084015260206040516108648282612570565b60008152610160850152600061018085015260006101a085015260006101c085015260006101e085015260405161089b8282612570565b600081526102008501526040516108b28282612570565b600080825261022086019190915283815260048083526040918290208651815560208701516001820155918601516002830180546001600160a01b039283166001600160a01b031991821617909155606088015160038501805491909316911617905560808601519082015560a085015160058083019190915560c0860151600683015560e086015160078301556101008601519591908610156106105760009560ff801960088401541691161760088201556101208201516009820155610140820151600a82015561016082015180519067ffffffffffffffff8211610d105781906109a2600b8501546125e9565b601f8111610d98575b508590601f8311600114610d2f578992610d24575b50508160011b916000199060031b1c191617600b8201555b610180820151600c820180546101a08501516101c08601516001600160b01b031990921660ff941515949094169390931792151560081b61ff00169290921760109290921b62010000600160b01b03169190911790556101e0820151600d82015561020082015180519067ffffffffffffffff8211610d1057610a5e600e8401546125e9565b601f8111610cca575b508490601f8311600114610c5b5791806102209492600f948b92610c50575b50508160011b916000199060031b1c191617600e8201555b0191015180519067ffffffffffffffff8211610c3c578190610ac084546125e9565b601f8111610bee575b508490601f8311600114610b8b578892610b80575b50508160011b916000199060031b1c19161790555b33845260058152610b07836040862061280d565b6001600160a01b03821684526006815260408420610b2690849061280d565b6040519160018060a01b03168252604435908201526064356040820152608435606082015260a435608082015233917f229258a771d14caf9825a172307f3bc56fe459b2b2dd838e6761f73d620c0e3c60a060043593a480f35b015190508780610ade565b8489528589209250601f198416895b87828210610bd8575050908460019594939210610bbf575b505050811b019055610af3565b015160001960f88460031b161c19169055878080610bb2565b6001859682939686015181550195019301610b9a565b909150838852848820601f840160051c810191868510610c32575b90601f859493920160051c01905b818110610c245750610ac9565b898155849350600101610c17565b9091508190610c09565b634e487b7160e01b87526041600452602487fd5b015190508a80610a86565b600e840189528589209190601f1984168a5b88828210610cb4575050926001928592600f96610220989610610c9b575b505050811b01600e820155610a9e565b015160001960f88460031b161c191690558a8080610c8b565b6001859682939686015181550195019301610c6d565b600e84018952858920601f840160051c810191878510610d06575b601f0160051c01905b818110610cfb5750610a67565b898155600101610cee565b9091508190610ce5565b634e487b7160e01b88526041600452602488fd5b0151905088806109c0565b600b85018a52868a209250601f1984168a5b88828210610d82575050908460019594939210610d69575b505050811b01600b8201556109d8565b015160001960f88460031b161c19169055888080610d59565b6001859682939686015181550195019301610d41565b909150600b84018952858920601f840160051c8101878510610ddf575b90849392915b601f830160051c82018110610dd15750506109ab565b8b8155859450600101610dbb565b5080610db5565b60405162461bcd60e51b815260206004820152602160248201527f456e642064617465206d757374206265206166746572207374617274206461746044820152606560f81b6064820152608490fd5b606460405162461bcd60e51b815260206004820152602060248201527f53746172742064617465206d75737420626520696e20746865206675747572656044820152fd5b60405162461bcd60e51b815260206004820152602160248201527f546f74616c2072656e74206d7573742062652067726561746572207468616e206044820152600360fc1b6064820152608490fd5b60405162461bcd60e51b815260206004820152601e60248201527f4465706f736974206d7573742062652067726561746572207468616e203000006044820152606490fd5b60405162461bcd60e51b815260206004820152601960248201527f43616e6e6f742072656e742066726f6d20796f757273656c66000000000000006044820152606490fd5b60405162461bcd60e51b815260206004820152601860248201527f496e76616c6964206c616e646c6f7264206164647265737300000000000000006044820152606490fd5b3461047c57602036600319011261047c5760043560005260046020526040600020805490600181015481600160a01b60019003600282015416600160a01b60019003600383015416600483015460058401546006850154600786015490600887015460ff1692600988015494600a89015496600b8a0161101690612623565b98600c8b01549b600d8c01549b600e0161102f90612623565b9d600f0161103c90612623565b9e604051608052608051526080516020015260805160400152608051606001526080516080015260805160a0015260805160c0015260805160e001526080516101000161108891612505565b60805161012001526080516101400152608051610160016102409052608051610240016110b491612512565b9160ff8116151560805161018001528060081c60ff1615156080516101a00152600160a01b600190039060101c166080516101c001526080516101e001526080518103608051610200015261110891612512565b90608051820360805161022001526080519161112391612512565b03608051f35b3461047c57606036600319011261047c5760043560243567ffffffffffffffff811161047c5761115d903690600401612592565b9060443567ffffffffffffffff811161047c5761117e903690600401612592565b9181600052600460205260018060a01b036002604060002001541633148015611603575b6111ab906127a8565b6000828152600460205260409020600201546111d1906001600160a01b031615156126c7565b81600052600460205260ff6008604060002001541660058110156106105760016111fb911461270b565b8051156115be573360005260076020526003604060002054101561156e5733600052600860205260406000205462278d0081018091116113a757421061152957600082815260046020526040902060088101805460ff1916600317905542600d8201558151600e9091019067ffffffffffffffff81116103bb5761127f82546125e9565b601f81116114e1575b50806020601f821160011461147e57600091611473575b508160011b916000199060031b1c19161790555b816000526004602052600f604060002001835167ffffffffffffffff81116103bb576112df82546125e9565b601f811161142b575b50806020601f82116001146113c8576000916113bd575b508160011b916000199060031b1c19161790555b81600052600460205242600a6040600020015533600052600760205260406000209081549060001982146113a7577f607b09069631c824b2e94f350229e8d8f1fb173ac7f18f4efadf29350cc2eb9392600161139393019055336000526008602052426040600020556113a2604051928392604084526040840190612512565b82810360208401523396612512565b0390a3005b634e487b7160e01b600052601160045260246000fd5b9050850151866112ff565b60008481528181209250601f198416905b818110611413575090836001949392106113fa575b5050811b019055611313565b87015160001960f88460031b161c1916905586806113ee565b9192602060018192868c0151815501940192016113d9565b826000526020600020601f830160051c81019160208410611469575b601f0160051c01905b81811061145d57506112e8565b60008155600101611450565b9091508190611447565b90508301518661129f565b60008481528181209250601f198416905b8181106114c9575090836001949392106114b0575b5050811b0190556112b3565b85015160001960f88460031b161c1916905586806114a4565b9192602060018192868a01518155019401920161148f565b826000526020600020601f830160051c8101916020841061151f575b601f0160051c01905b8181106115135750611288565b60008155600101611506565b90915081906114fd565b60405162461bcd60e51b815260206004820152601860248201527f4469737075746520636f6f6c646f776e206e6f74206d657400000000000000006044820152606490fd5b60405162461bcd60e51b815260206004820152602260248201527f4d6178696d756d20646973707574657320706572207573657220657863656564604482015261195960f21b6064820152608490fd5b60405162461bcd60e51b815260206004820152601e60248201527f4469737075746520726561736f6e2063616e6e6f7420626520656d70747900006044820152606490fd5b506000828152600460205260409020600301546001600160a01b031633146111a2565b3461047c57600036600319011261047c57602060405160008152f35b3461047c57600036600319011261047c5760206040517f16ceee8289685dd2a02b9c8ae81d2df373176ce53519e6284e2a2950d6546ffa8152f35b3461047c57604036600319011261047c57611696612487565b600435600052600060205260406000209060018060a01b0316600052602052602060ff604060002054166040519015158152f35b3461047c57600036600319011261047c576116e3612886565b6116eb612869565b600160ff1960025416176002557f62e78cea01bee320cd4e420270b5ea74000d11b0c9f74754ebdbfc544b05a2586020604051338152a1005b3461047c57604036600319011261047c5761173d612471565b6001600160a01b031660009081526005602052604090208054602435919082101561047c5760209161176e9161249d565b90549060031b1c604051908152f35b3461047c57600036600319011261047c5760206040517fa49807205ce4d355092ef5a8a18f56e8913cf4a201fbe287825b095693c217758152f35b3461047c57600036600319011261047c57602060405160038152f35b3461047c57600036600319011261047c57602047604051908152f35b3461047c57602036600319011261047c57600435606061022060405161181581612553565b60008152600060208201526000604082015260008382015260006080820152600060a0820152600060c0820152600060e082015260006101008201526000610120820152600061014082015282610160820152600061018082015260006101a082015260006101c082015260006101e08201528261020082015201528060005260046020526118b560018060a01b036002604060002001541615156126c7565b600052600460205260406000206040516118ce81612553565b815481526001820154602082015260028201546001600160a01b03908116604083015260038301541660608201526004820154608082015260058083015460a0830152600683015460c0830152600783015460e0830152600883015460ff16929083101561061057600f6119c3916106ea946101008501526009810154610120850152600a810154610140850152611968600b8201612623565b610160850152600c81015460ff8082161515610180870152600882901c1615156101a086015260101c6001600160a01b03166101c0850152600d8101546101e08501526119b7600e8201612623565b61020085015201612623565b61022082015260405191829160208352805160208401526020810151604084015260018060a01b03604082015116606084015260018060a01b036060820151166080840152608081015160a084015260a081015160c084015260c081015160e084015260e0810151610100840152611a45610100820151610120850190612505565b610120810151610140840152610140810151610160840152610220611ad2611a80610160840151610240610180880152610260870190612512565b61018084015115156101a08701526101a084015115156101c087015260018060a01b036101c0850151166101e08701526101e0840151610200870152610200840151601f198783030184880152612512565b910151838203601f1901610240850152612512565b3461047c57600036600319011261047c57602060ff600254166040519015158152f35b3461047c57600036600319011261047c57602060405160c88152f35b3461047c57600036600319011261047c57602060405162278d008152f35b3461047c57600036600319011261047c57602060405162093a808152f35b3461047c57600036600319011261047c57611b7b612886565b60025460ff811615611bba5760ff19166002557f5db9ee0a495bf2e6ff9c91a7834c1ba4fdd244a5e8aa4e537bd38aeae4b073aa6020604051338152a1005b638dfc202b60e01b60005260046000fd5b3461047c57604036600319011261047c57611be4612487565b336001600160a01b03821603611c005761001b906004356129be565b63334bd91960e11b60005260046000fd5b3461047c57604036600319011261047c5761001b600435611c30612487565b90611c4c61073f82600052600060205260016040600020015490565b612933565b3461047c57602036600319011261047c5760043580600052600460205260018060a01b036002604060002001541633148015611ed0575b611c91906127a8565b600081815260046020526040902060020154611cb7906001600160a01b031615156126c7565b80600052600460205260ff600860406000200154166005811015610610576001611ce1911461270b565b80600052600460205260ff600c604060002001541680611eb2575b15611e5b578060005260046020526007604060002001544210611e1657600081815260046020819052604090912060088101805460ff1916600217905542600a82015501549060c880830290831584830490911417156113a7576127109004808303928084116113a75760008080868194878352600460205260018060a01b036002604085200154169087849114611e0d575bf1156106045780158015611de7575b50508060005260046020527f79ff6a60b3e21b3630b207e2a7b0b50b69b197d3d7ca776108ed2afb8fbac8dc602060018060a01b036002604060002001541693604051908152a3005b600080809381938290611e04575b3090f115610604578280611d9e565b506108fc611df5565b506108fc611d8f565b60405162461bcd60e51b815260206004820152601760248201527f52656e74616c20706572696f64206e6f7420656e6465640000000000000000006044820152606490fd5b60405162461bcd60e51b815260206004820152602960248201527f426f74682070617274696573206d757374207369676e2074686520636f6e74726044820152681858dd08199a5c9cdd60ba1b6064820152608490fd5b5080600052600460205260ff600c6040600020015460081c16611cfc565b506000818152600460205260409020600301546001600160a01b03163314611c88565b3461047c57602036600319011261047c576020611f20600435600052600060205260016040600020015490565b604051908152f35b3461047c57602036600319011261047c576001600160a01b03611f49612471565b166000526006602052604060002060405190816020825491828152019160005260206000209060005b818110611f89576106ea856106de81870382612570565b8254845260209093019260019283019201611f72565b3461047c57604036600319011261047c57611fb8612471565b6001600160a01b031660009081526006602052604090208054602435919082101561047c5760209161176e9161249d565b3461047c57608036600319011261047c573360009081527f124a13b16867194fc8fe1b97be0d668b89ac2a8dd77d418cf4feefa89864a62660205260409020546024359060043590606435906044359060ff1680156122b1575b1561225c5760008381526004602052604090206002015461206e906001600160a01b031615156126c7565b82600052600460205260ff600860406000200154166005811015610610576003612098911461270b565b6120ab826120a6838761279b565b61279b565b8360005260046020526004604060002001541061220b57600083815260046020819052604090912060088101805460ff1916909217909155600c8101805462010000600160b01b0319163360101b62010000600160b01b031617905542600a9091015583801580156121ce575b50508080158015612191575b5050818015801561216a575b5050604051938452602084015260408301527ff2b306c6988ab9d9ba081e4ded2e7c9fbc64fc27639527f2b7bf0bb19194ea9260603393a3005b600090612188575b600080809381933090f115610604578185612130565b506108fc612172565b60008080938193888352600460205260018060a01b036003604085200154169083906121c5575bf115610604578085612124565b506108fc6121b8565b60008080938193888352600460205260018060a01b03600260408520015416908390612202575bf115610604578385612118565b506108fc6121f5565b60405162461bcd60e51b815260206004820152602360248201527f546f74616c20726566756e647320657863656564206465706f73697420616d6f6044820152621d5b9d60ea1b6064820152608490fd5b60405162461bcd60e51b815260206004820152602760248201527f4f6e6c792061726269747261746f722063616e20706572666f726d20746869736044820152661030b1ba34b7b760c91b6064820152608490fd5b506000838152600460205260409020600c015460101c6001600160a01b03163314612043565b602036600319011261047c576004356122ee612847565b6122f6612869565b60008181526004602052604090206002015461231c906001600160a01b031615156126c7565b80600052600460205260ff60086040600020015416600581101561061057612344901561270b565b80600052600460205261236860018060a01b0360026040600020015416331461274f565b80600052600460205260046040600020015434106123d95760008181526004602090815260409182902060088101805460ff1916600117905542600a9091015590513481523392917f377ef0adce1eae318afaad309c3b0f6c378fa1a294064deccda8d15ad28858eb91a360018055005b60405162461bcd60e51b815260206004820152601b60248201527f496e73756666696369656e74206465706f73697420616d6f756e7400000000006044820152606490fd5b3461047c57602036600319011261047c576004359063ffffffff60e01b821680920361047c57602091637965db0b60e01b8114908115612460575b5015158152f35b6301ffc9a760e01b14905083612459565b600435906001600160a01b038216820361047c57565b602435906001600160a01b038216820361047c57565b80548210156124b55760005260206000200190600090565b634e487b7160e01b600052603260045260246000fd5b602060408183019282815284518094520192019060005b8181106124ef5750505090565b82518452602093840193909201916001016124e2565b9060058210156106105752565b919082519283825260005b84811061253e575050826000602080949584010152601f8019910116010190565b8060208092840101518282860101520161251d565b610240810190811067ffffffffffffffff8211176103bb57604052565b90601f8019910116810190811067ffffffffffffffff8211176103bb57604052565b81601f8201121561047c5780359067ffffffffffffffff82116103bb57604051926125c7601f8401601f191660200185612570565b8284526020838301011161047c57816000926020809301838601378301015290565b90600182811c92168015612619575b602083101461260357565b634e487b7160e01b600052602260045260246000fd5b91607f16916125f8565b9060405191826000825492612637846125e9565b80845293600181169081156126a5575060011461265e575b5061265c92500383612570565b565b90506000929192526020600020906000915b81831061268957505090602061265c928201013861264f565b6020919350806001915483858901015201910190918492612670565b90506020925061265c94915060ff191682840152151560051b8201013861264f565b156126ce57565b60405162461bcd60e51b815260206004820152601560248201527414995b9d185b08191bd95cc81b9bdd08195e1a5cdd605a1b6044820152606490fd5b1561271257565b60405162461bcd60e51b8152602060048201526015602482015274496e76616c69642072656e74616c2073746174757360581b6044820152606490fd5b1561275657565b60405162461bcd60e51b815260206004820152601c60248201527f4f6e6c792074656e616e742063616e206d616b65206465706f736974000000006044820152606490fd5b919082018092116113a757565b156127af57565b60405162461bcd60e51b815260206004820152603060248201527f4f6e6c792072656e74616c207061727469636970616e74732063616e2070657260448201526f3337b936903a3434b99030b1ba34b7b760811b6064820152608490fd5b8054680100000000000000008110156103bb5761282f9160018201815561249d565b819291549060031b91821b91600019901b1916179055565b600260015414612858576002600155565b633ee5aeb560e01b60005260046000fd5b60ff6002541661287557565b63d93c066560e01b60005260046000fd5b3360009081527f7d7ffb7a348e1c6a02869081a26547b49160dd3df72d1d75a570eb9b698292ec602052604090205460ff16156128bf57565b63e2517d3f60e01b600052336004527fa49807205ce4d355092ef5a8a18f56e8913cf4a201fbe287825b095693c2177560245260446000fd5b60008181526020818152604080832033845290915290205460ff161561291b5750565b63e2517d3f60e01b6000523360045260245260446000fd5b6000818152602081815260408083206001600160a01b038616845290915290205460ff166129b7576000818152602081815260408083206001600160a01b0395909516808452949091528120805460ff19166001179055339291907f2f8788117e7eff1d82e926ec794901d17c78024a50270940304540a733656f0d9080a4600190565b5050600090565b6000818152602081815260408083206001600160a01b038616845290915290205460ff16156129b7576000818152602081815260408083206001600160a01b0395909516808452949091528120805460ff19169055339291907ff6391f5c32d9c69d2a47ea670b442974b53935d1edc7fd64eb21e047a839171b9080a460019056fea26469706673582212200d202461f73d98397b8967ed281e8844284e850abff8d1bfeddb4ed8c553b88f64736f6c634300081c00332f8788117e7eff1d82e926ec794901d17c78024a50270940304540a733656f0d7d7ffb7a348e1c6a02869081a26547b49160dd3df72d1d75a570eb9b698292ecad3228b676f7d3cd4284a5443f17f1962b36e491b30a40b2405849e597ba5fb5",
  "linkReferences": {},
  "deployedLinkReferences": {}
}