{
  "_format": "hh-sol-artifact-1",
  "contractName": "SmartRent",
  "sourceName": "contracts/SmartRent.sol",
  "abi": [
    {
      "inputs": [],
      "stateMutability": "nonpayable",
      "type": "constructor"
    },
    {
      "inputs": [],
      "name": "AccessControlBadConfirmation",
      "type": "error"
    },
    {
      "inputs": [
        {
          "internalType": "address",
          "name": "account",
          "type": "address"
        },
        {
          "internalType": "bytes32",
          "name": "neededRole",
          "type": "bytes32"
        }
      ],
      "name": "AccessControlUnauthorizedAccount",
      "type": "error"
    },
    {
      "inputs": [],
      "name": "EnforcedPause",
      "type": "error"
    },
    {
      "inputs": [],
      "name": "ExpectedPause",
      "type": "error"
    },
    {
      "inputs": [],
      "name": "ReentrancyGuardReentrantCall",
      "type": "error"
    },
    {
      "anonymous": false,
      "inputs": [
        {
          "indexed": false,
          "internalType": "address",
          "name": "account",
          "type": "address"
        }
      ],
      "name": "Paused",
      "type": "event"
    },
    {
      "anonymous": false,
      "inputs": [
        {
          "indexed": false,
          "internalType": "address",
          "name": "listingRegistry",
          "type": "address"
        },
        {
          "indexed": false,
          "internalType": "address",
          "name": "rentalEscrow",
          "type": "address"
        },
        {
          "indexed": false,
          "internalType": "address",
          "name": "arbitration",
          "type": "address"
        },
        {
          "indexed": false,
          "internalType": "address",
          "name": "subscriptionManager",
          "type": "address"
        },
        {
          "indexed": false,
          "internalType": "address",
          "name": "reputation",
          "type": "address"
        }
      ],
      "name": "PlatformInitialized",
      "type": "event"
    },
    {
      "anonymous": false,
      "inputs": [
        {
          "indexed": true,
          "internalType": "bytes32",
          "name": "role",
          "type": "bytes32"
        },
        {
          "indexed": true,
          "internalType": "bytes32",
          "name": "previousAdminRole",
          "type": "bytes32"
        },
        {
          "indexed": true,
          "internalType": "bytes32",
          "name": "newAdminRole",
          "type": "bytes32"
        }
      ],
      "name": "RoleAdminChanged",
      "type": "event"
    },
    {
      "anonymous": false,
      "inputs": [
        {
          "indexed": true,
          "internalType": "bytes32",
          "name": "role",
          "type": "bytes32"
        },
        {
          "indexed": true,
          "internalType": "address",
          "name": "account",
          "type": "address"
        },
        {
          "indexed": true,
          "internalType": "address",
          "name": "sender",
          "type": "address"
        }
      ],
      "name": "RoleGranted",
      "type": "event"
    },
    {
      "anonymous": false,
      "inputs": [
        {
          "indexed": true,
          "internalType": "bytes32",
          "name": "role",
          "type": "bytes32"
        },
        {
          "indexed": true,
          "internalType": "address",
          "name": "account",
          "type": "address"
        },
        {
          "indexed": true,
          "internalType": "address",
          "name": "sender",
          "type": "address"
        }
      ],
      "name": "RoleRevoked",
      "type": "event"
    },
    {
      "anonymous": false,
      "inputs": [
        {
          "indexed": false,
          "internalType": "uint256",
          "name": "totalListings",
          "type": "uint256"
        },
        {
          "indexed": false,
          "internalType": "uint256",
          "name": "totalRentals",
          "type": "uint256"
        },
        {
          "indexed": false,
          "internalType": "uint256",
          "name": "totalDisputes",
          "type": "uint256"
        },
        {
          "indexed": false,
          "internalType": "uint256",
          "name": "totalVolume",
          "type": "uint256"
        }
      ],
      "name": "StatisticsUpdated",
      "type": "event"
    },
    {
      "anonymous": false,
      "inputs": [
        {
          "indexed": false,
          "internalType": "address",
          "name": "account",
          "type": "address"
        }
      ],
      "name": "Unpaused",
      "type": "event"
    },
    {
      "inputs": [],
      "name": "ADMIN_ROLE",
      "outputs": [
        {
          "internalType": "bytes32",
          "name": "",
          "type": "bytes32"
        }
      ],
      "stateMutability": "view",
      "type": "function"
    },
    {
      "inputs": [],
      "name": "ARBITRATOR_ROLE",
      "outputs": [
        {
          "internalType": "bytes32",
          "name": "",
          "type": "bytes32"
        }
      ],
      "stateMutability": "view",
      "type": "function"
    },
    {
      "inputs": [],
      "name": "DEFAULT_ADMIN_ROLE",
      "outputs": [
        {
          "internalType": "bytes32",
          "name": "",
          "type": "bytes32"
        }
      ],
      "stateMutability": "view",
      "type": "function"
    },
    {
      "inputs": [
        {
          "internalType": "uint256",
          "name": "rentalId",
          "type": "uint256"
        }
      ],
      "name": "agreeReturn",
      "outputs": [],
      "stateMutability": "nonpayable",
      "type": "function"
    },
    {
      "inputs": [],
      "name": "arbitration",
      "outputs": [
        {
          "internalType": "contract Arbitration",
          "name": "",
          "type": "address"
        }
      ],
      "stateMutability": "view",
      "type": "function"
    },
    {
      "inputs": [
        {
          "internalType": "string",
          "name": "title",
          "type": "string"
        },
        {
          "internalType": "string",
          "name": "description",
          "type": "string"
        },
        {
          "internalType": "uint256",
          "name": "pricePerDay",
          "type": "uint256"
        },
        {
          "internalType": "uint256",
          "name": "deposit",
          "type": "uint256"
        },
        {
          "internalType": "string",
          "name": "ipfsHash",
          "type": "string"
        }
      ],
      "name": "createListing",
      "outputs": [],
      "stateMutability": "nonpayable",
      "type": "function"
    },
    {
      "inputs": [
        {
          "internalType": "uint256",
          "name": "listingId",
          "type": "uint256"
        },
        {
          "internalType": "address",
          "name": "landlord",
          "type": "address"
        },
        {
          "internalType": "uint256",
          "name": "deposit",
          "type": "uint256"
        },
        {
          "internalType": "uint256",
          "name": "totalRent",
          "type": "uint256"
        },
        {
          "internalType": "uint256",
          "name": "startDate",
          "type": "uint256"
        },
        {
          "internalType": "uint256",
          "name": "endDate",
          "type": "uint256"
        }
      ],
      "name": "createRental",
      "outputs": [],
      "stateMutability": "nonpayable",
      "type": "function"
    },
    {
      "inputs": [
        {
          "internalType": "address",
          "name": "reviewee",
          "type": "address"
        },
        {
          "internalType": "uint256",
          "name": "rating",
          "type": "uint256"
        },
        {
          "internalType": "string",
          "name": "reviewText",
          "type": "string"
        },
        {
          "internalType": "string",
          "name": "ipfsHash",
          "type": "string"
        },
        {
          "internalType": "uint256",
          "name": "rentalId",
          "type": "uint256"
        },
        {
          "internalType": "enum Reputation.ReviewType",
          "name": "reviewType",
          "type": "uint8"
        }
      ],
      "name": "createReview",
      "outputs": [],
      "stateMutability": "nonpayable",
      "type": "function"
    },
    {
      "inputs": [
        {
          "internalType": "enum SubscriptionManager.SubscriptionPlan",
          "name": "plan",
          "type": "uint8"
        },
        {
          "internalType": "uint256",
          "name": "duration",
          "type": "uint256"
        },
        {
          "internalType": "bool",
          "name": "autoRenew",
          "type": "bool"
        }
      ],
      "name": "createSubscription",
      "outputs": [],
      "stateMutability": "payable",
      "type": "function"
    },
    {
      "inputs": [],
      "name": "getContractBalance",
      "outputs": [
        {
          "internalType": "uint256",
          "name": "",
          "type": "uint256"
        }
      ],
      "stateMutability": "view",
      "type": "function"
    },
    {
      "inputs": [
        {
          "internalType": "uint256",
          "name": "listingId",
          "type": "uint256"
        }
      ],
      "name": "getListing",
      "outputs": [
        {
          "components": [
            {
              "internalType": "uint256",
              "name": "listingId",
              "type": "uint256"
            },
            {
              "internalType": "address",
              "name": "landlord",
              "type": "address"
            },
            {
              "internalType": "string",
              "name": "title",
              "type": "string"
            },
            {
              "internalType": "string",
              "name": "description",
              "type": "string"
            },
            {
              "internalType": "uint256",
              "name": "pricePerDay",
              "type": "uint256"
            },
            {
              "internalType": "uint256",
              "name": "deposit",
              "type": "uint256"
            },
            {
              "internalType": "bool",
              "name": "isActive",
              "type": "bool"
            },
            {
              "internalType": "string",
              "name": "ipfsHash",
              "type": "string"
            },
            {
              "internalType": "uint256",
              "name": "createdAt",
              "type": "uint256"
            },
            {
              "internalType": "uint256",
              "name": "updatedAt",
              "type": "uint256"
            }
          ],
          "internalType": "struct ListingRegistry.PropertyListing",
          "name": "",
          "type": "tuple"
        }
      ],
      "stateMutability": "view",
      "type": "function"
    },
    {
      "inputs": [],
      "name": "getPlatformStatistics",
      "outputs": [
        {
          "internalType": "uint256",
          "name": "",
          "type": "uint256"
        },
        {
          "internalType": "uint256",
          "name": "",
          "type": "uint256"
        },
        {
          "internalType": "uint256",
          "name": "",
          "type": "uint256"
        },
        {
          "internalType": "uint256",
          "name": "",
          "type": "uint256"
        }
      ],
      "stateMutability": "view",
      "type": "function"
    },
    {
      "inputs": [
        {
          "internalType": "uint256",
          "name": "rentalId",
          "type": "uint256"
        }
      ],
      "name": "getRental",
      "outputs": [
        {
          "components": [
            {
              "internalType": "uint256",
              "name": "rentalId",
              "type": "uint256"
            },
            {
              "internalType": "uint256",
              "name": "listingId",
              "type": "uint256"
            },
            {
              "internalType": "address",
              "name": "tenant",
              "type": "address"
            },
            {
              "internalType": "address",
              "name": "landlord",
              "type": "address"
            },
            {
              "internalType": "uint256",
              "name": "deposit",
              "type": "uint256"
            },
            {
              "internalType": "uint256",
              "name": "totalRent",
              "type": "uint256"
            },
            {
              "internalType": "uint256",
              "name": "startDate",
              "type": "uint256"
            },
            {
              "internalType": "uint256",
              "name": "endDate",
              "type": "uint256"
            },
            {
              "internalType": "enum RentalEscrow.RentalStatus",
              "name": "status",
              "type": "uint8"
            },
            {
              "internalType": "uint256",
              "name": "createdAt",
              "type": "uint256"
            },
            {
              "internalType": "uint256",
              "name": "updatedAt",
              "type": "uint256"
            },
            {
              "internalType": "string",
              "name": "contractIpfsHash",
              "type": "string"
            },
            {
              "internalType": "bool",
              "name": "tenantSigned",
              "type": "bool"
            },
            {
              "internalType": "bool",
              "name": "landlordSigned",
              "type": "bool"
            },
            {
              "internalType": "address",
              "name": "arbitrator",
              "type": "address"
            },
            {
              "internalType": "uint256",
              "name": "disputeOpenedAt",
              "type": "uint256"
            },
            {
              "internalType": "string",
              "name": "disputeReason",
              "type": "string"
            },
            {
              "internalType": "string",
              "name": "disputeIpfsHash",
              "type": "string"
            }
          ],
          "internalType": "struct RentalEscrow.Rental",
          "name": "",
          "type": "tuple"
        }
      ],
      "stateMutability": "view",
      "type": "function"
    },
    {
      "inputs": [
        {
          "internalType": "bytes32",
          "name": "role",
          "type": "bytes32"
        }
      ],
      "name": "getRoleAdmin",
      "outputs": [
        {
          "internalType": "bytes32",
          "name": "",
          "type": "bytes32"
        }
      ],
      "stateMutability": "view",
      "type": "function"
    },
    {
      "inputs": [
        {
          "internalType": "address",
          "name": "user",
          "type": "address"
        }
      ],
      "name": "getUserListingHistory",
      "outputs": [
        {
          "internalType": "uint256[]",
          "name": "",
          "type": "uint256[]"
        }
      ],
      "stateMutability": "view",
      "type": "function"
    },
    {
      "inputs": [
        {
          "internalType": "address",
          "name": "user",
          "type": "address"
        }
      ],
      "name": "getUserRentalHistory",
      "outputs": [
        {
          "internalType": "uint256[]",
          "name": "",
          "type": "uint256[]"
        }
      ],
      "stateMutability": "view",
      "type": "function"
    },
    {
      "inputs": [
        {
          "internalType": "address",
          "name": "user",
          "type": "address"
        }
      ],
      "name": "getUserReputation",
      "outputs": [
        {
          "components": [
            {
              "internalType": "address",
              "name": "user",
              "type": "address"
            },
            {
              "internalType": "uint256",
              "name": "totalReviews",
              "type": "uint256"
            },
            {
              "internalType": "uint256",
              "name": "totalRatingSum",
              "type": "uint256"
            },
            {
              "internalType": "uint256",
              "name": "reputationScore",
              "type": "uint256"
            },
            {
              "internalType": "uint256",
              "name": "completedRentals",
              "type": "uint256"
            },
            {
              "internalType": "uint256",
              "name": "cancelledRentals",
              "type": "uint256"
            },
            {
              "internalType": "uint256",
              "name": "disputeCount",
              "type": "uint256"
            },
            {
              "internalType": "bool",
              "name": "isVerified",
              "type": "bool"
            },
            {
              "internalType": "uint256",
              "name": "lastUpdated",
              "type": "uint256"
            }
          ],
          "internalType": "struct Reputation.UserReputation",
          "name": "",
          "type": "tuple"
        }
      ],
      "stateMutability": "view",
      "type": "function"
    },
    {
      "inputs": [
        {
          "internalType": "bytes32",
          "name": "role",
          "type": "bytes32"
        },
        {
          "internalType": "address",
          "name": "account",
          "type": "address"
        }
      ],
      "name": "grantRole",
      "outputs": [],
      "stateMutability": "nonpayable",
      "type": "function"
    },
    {
      "inputs": [
        {
          "internalType": "address",
          "name": "user",
          "type": "address"
        },
        {
          "internalType": "uint256",
          "name": "feature",
          "type": "uint256"
        }
      ],
      "name": "hasPremiumFeature",
      "outputs": [
        {
          "internalType": "bool",
          "name": "",
          "type": "bool"
        }
      ],
      "stateMutability": "view",
      "type": "function"
    },
    {
      "inputs": [
        {
          "internalType": "bytes32",
          "name": "role",
          "type": "bytes32"
        },
        {
          "internalType": "address",
          "name": "account",
          "type": "address"
        }
      ],
      "name": "hasRole",
      "outputs": [
        {
          "internalType": "bool",
          "name": "",
          "type": "bool"
        }
      ],
      "stateMutability": "view",
      "type": "function"
    },
    {
      "inputs": [
        {
          "internalType": "address",
          "name": "_listingRegistry",
          "type": "address"
        },
        {
          "internalType": "address payable",
          "name": "_rentalEscrow",
          "type": "address"
        },
        {
          "internalType": "address",
          "name": "_arbitration",
          "type": "address"
        },
        {
          "internalType": "address payable",
          "name": "_subscriptionManager",
          "type": "address"
        },
        {
          "internalType": "address",
          "name": "_reputation",
          "type": "address"
        }
      ],
      "name": "initializePlatform",
      "outputs": [],
      "stateMutability": "nonpayable",
      "type": "function"
    },
    {
      "inputs": [],
      "name": "listingRegistry",
      "outputs": [
        {
          "internalType": "contract ListingRegistry",
          "name": "",
          "type": "address"
        }
      ],
      "stateMutability": "view",
      "type": "function"
    },
    {
      "inputs": [
        {
          "internalType": "uint256",
          "name": "rentalId",
          "type": "uint256"
        }
      ],
      "name": "makeDeposit",
      "outputs": [],
      "stateMutability": "payable",
      "type": "function"
    },
    {
      "inputs": [
        {
          "internalType": "uint256",
          "name": "rentalId",
          "type": "uint256"
        },
        {
          "internalType": "address",
          "name": "token",
          "type": "address"
        }
      ],
      "name": "makeDepositWithToken",
      "outputs": [],
      "stateMutability": "nonpayable",
      "type": "function"
    },
    {
      "inputs": [
        {
          "internalType": "uint256",
          "name": "rentalId",
          "type": "uint256"
        },
        {
          "internalType": "string",
          "name": "reason",
          "type": "string"
        },
        {
          "internalType": "string",
          "name": "disputeIpfsHash",
          "type": "string"
        }
      ],
      "name": "openDispute",
      "outputs": [],
      "stateMutability": "nonpayable",
      "type": "function"
    },
    {
      "inputs": [],
      "name": "pausePlatform",
      "outputs": [],
      "stateMutability": "nonpayable",
      "type": "function"
    },
    {
      "inputs": [],
      "name": "paused",
      "outputs": [
        {
          "internalType": "bool",
          "name": "",
          "type": "bool"
        }
      ],
      "stateMutability": "view",
      "type": "function"
    },
    {
      "inputs": [
        {
          "internalType": "bytes32",
          "name": "role",
          "type": "bytes32"
        },
        {
          "internalType": "address",
          "name": "callerConfirmation",
          "type": "address"
        }
      ],
      "name": "renounceRole",
      "outputs": [],
      "stateMutability": "nonpayable",
      "type": "function"
    },
    {
      "inputs": [],
      "name": "rentalEscrow",
      "outputs": [
        {
          "internalType": "contract RentalEscrow",
          "name": "",
          "type": "address"
        }
      ],
      "stateMutability": "view",
      "type": "function"
    },
    {
      "inputs": [],
      "name": "reputation",
      "outputs": [
        {
          "internalType": "contract Reputation",
          "name": "",
          "type": "address"
        }
      ],
      "stateMutability": "view",
      "type": "function"
    },
    {
      "inputs": [
        {
          "internalType": "bytes32",
          "name": "role",
          "type": "bytes32"
        },
        {
          "internalType": "address",
          "name": "account",
          "type": "address"
        }
      ],
      "name": "revokeRole",
      "outputs": [],
      "stateMutability": "nonpayable",
      "type": "function"
    },
    {
      "inputs": [
        {
          "internalType": "uint256",
          "name": "rentalId",
          "type": "uint256"
        },
        {
          "internalType": "string",
          "name": "contractIpfsHash",
          "type": "string"
        }
      ],
      "name": "signContract",
      "outputs": [],
      "stateMutability": "nonpayable",
      "type": "function"
    },
    {
      "inputs": [],
      "name": "subscriptionManager",
      "outputs": [
        {
          "internalType": "contract SubscriptionManager",
          "name": "",
          "type": "address"
        }
      ],
      "stateMutability": "view",
      "type": "function"
    },
    {
      "inputs": [
        {
          "internalType": "bytes4",
          "name": "interfaceId",
          "type": "bytes4"
        }
      ],
      "name": "supportsInterface",
      "outputs": [
        {
          "internalType": "bool",
          "name": "",
          "type": "bool"
        }
      ],
      "stateMutability": "view",
      "type": "function"
    },
    {
      "inputs": [],
      "name": "totalDisputes",
      "outputs": [
        {
          "internalType": "uint256",
          "name": "",
          "type": "uint256"
        }
      ],
      "stateMutability": "view",
      "type": "function"
    },
    {
      "inputs": [],
      "name": "totalListings",
      "outputs": [
        {
          "internalType": "uint256",
          "name": "",
          "type": "uint256"
        }
      ],
      "stateMutability": "view",
      "type": "function"
    },
    {
      "inputs": [],
      "name": "totalRentals",
      "outputs": [
        {
          "internalType": "uint256",
          "name": "",
          "type": "uint256"
        }
      ],
      "stateMutability": "view",
      "type": "function"
    },
    {
      "inputs": [],
      "name": "totalVolume",
      "outputs": [
        {
          "internalType": "uint256",
          "name": "",
          "type": "uint256"
        }
      ],
      "stateMutability": "view",
      "type": "function"
    },
    {
      "inputs": [],
      "name": "unpausePlatform",
      "outputs": [],
      "stateMutability": "nonpayable",
      "type": "function"
    },
    {
      "inputs": [
        {
          "internalType": "uint256",
          "name": "amount",
          "type": "uint256"
        }
      ],
      "name": "withdrawFees",
      "outputs": [],
      "stateMutability": "nonpayable",
      "type": "function"
    },
    {
      "stateMutability": "payable",
      "type": "receive"
    }
  ],
  "bytecode": "0x608060405234610030576001805561001633610035565b50610020336100b1565b50604051612129908161014a8239f35b600080fd5b6001600160a01b03811660009081526000805160206122b3833981519152602052604090205460ff166100ab576001600160a01b031660008181526000805160206122b383398151915260205260408120805460ff191660011790553391906000805160206122738339815191528180a4600190565b50600090565b6001600160a01b0381166000908152600080516020612293833981519152602052604090205460ff166100ab576001600160a01b0316600081815260008051602061229383398151915260205260408120805460ff191660011790553391907fa49807205ce4d355092ef5a8a18f56e8913cf4a201fbe287825b095693c21775906000805160206122738339815191529080a460019056fe608080604052600436101561001d575b50361561001b57600080fd5b005b600090813560e01c90816301ffc9a714611b9557508063059a500c14611b305780630a396a4a14611ab35780630fc376a714611a4d578063107a274a146117ef5780631a9ba7eb1461166c578063248a9ca31461163657806324df1f70146115e25780632f2ff15d146115a157806336568abe1461155c57806349041359146112a85780635603e8601461126e5780635c975abb1461124b5780635e318e07146111ca5780635ebf3e9b1461119d5780635f81a57c1461117f578063652bd29e14610df25780636b78c29b14610c7c5780636f9fb98a14610c6057806375b238fc14610c255780637d04470a14610b2957806391d1485414610ade5780639492e30214610a4a5780639b73235014610a215780639cea0787146109e6578063a217fddf146109ca578063a4e18cd71461089a578063ad36d666146107e5578063baccbfdb14610639578063bd55cc3a1461055d578063bf158fd214610534578063c52164c61461050b578063c5e4ccc4146104ed578063c78b616c146104cf578063cc2ee0fc14610393578063d547741f14610349578063dd4b22d11461032b578063e970a12014610302578063fc78aef11461028b5763fea14f5e0361000f573461027857604036600319011261027857806024356001600160401b0381116102885761020f903690600401611d43565b6003546001600160a01b0316803b15610286576102568392918392604051948580948193637f50a7af60e11b83526004356004840152604060248401526044830190611c78565b03925af1801561027b576102675750f35b8161027191611d07565b6102785780f35b80fd5b6040513d84823e3d90fd5b505b50fd5b503461027857604036600319011261027857806102a6611c05565b6102ae611ed0565b6003546001600160a01b031690813b156102865760405163fc78aef160e01b815260048035908201526001600160a01b0390911660248201529082908290604490829084905af1801561027b576102675750f35b50346102785780600319360112610278576003546040516001600160a01b039091168152602090f35b50346102785780600319360112610278576020600854604051908152f35b50346102785760403660031901126102785761038f600435610369611c05565b9061038a61038582600052600060205260016040600020015490565b611f5f565b612025565b5080f35b50346102785760a036600319011261027857806004356001600160401b038111610288576103c5903690600401611d43565b6024356001600160401b038111610286576103e4903690600401611d43565b6084356001600160401b0381116104ca57610403903690600401611d43565b9061040c611ed0565b60025460081c6001600160a01b0316803b156104c657610454856104669561048882966040519889978896879563330bb83f60e21b875260a0600488015260a4870190611c78565b85810360031901602487015290611c78565b9060443560448501526064356064850152600319848303016084850152611c78565b03925af1801561027b576104b1575b506104a3600754611e9e565b6007556104ae6120a7565b80f35b816104bb91611d07565b610278578038610497565b8480fd5b505050fd5b50346102785780600319360112610278576020600754604051908152f35b50346102785780600319360112610278576020600954604051908152f35b50346102785780600319360112610278576006546040516001600160a01b039091168152602090f35b50346102785780600319360112610278576005546040516001600160a01b039091168152602090f35b50346102785760c036600319011261027857610577611c05565b6044358260643592610587611ed0565b6003546001600160a01b031690813b1561063557829160c483926040519485938492635eaae61d60e11b8452600435600485015260018060a01b03166024840152886044840152896064840152608435608484015260a43560a48401525af1801561027b57610620575b5061061561060d8484610605600854611e9e565b600855611ec3565b600a54611ec3565b600a556104ae6120a7565b8161062a91611d07565b6106355782386105f1565b8280fd5b503461027857602036600319011261027857610653611bea565b8161010060405161066381611ceb565b8281528260208201528260408201528260608201528260808201528260a08201528260c08201528260e0820152015261012060018060a01b03600654169160246040518094819363baccbfdb60e01b835260018060a01b031660048301525afa90811561027b57829161073a575b610120826101006040519160018060a01b0381511683526020810151602084015260408101516040840152606081015160608401526080810151608084015260a081015160a084015260c081015160c084015260e0810151151560e08401520151610100820152f35b9050610120813d82116107dd575b816107566101209383611d07565b810103126107d95761012091506101006040519161077383611ceb565b61077c81611e0d565b83526020810151602084015260408101516040840152606081015160608401526080810151608084015260a081015160a084015260c081015160c08401526107c660e08201611e66565b60e08401520151610100820152386106d1565b5080fd5b3d9150610748565b5034610278576040366003190112610278576107ff611bea565b600554604051638043834960e01b81526001600160a01b0392831660048201526024803590820152929160209184916044918391165afa90811561088e578091610851575b6020826040519015158152f35b90506020823d602011610886575b8161086c60209383611d07565b810103126102785750610880602091611e66565b38610844565b3d915061085f565b604051903d90823e3d90fd5b503461027857606036600319011261027857806004356024356001600160401b038111610286576108cf903690600401611d43565b906044356001600160401b0381116104ca576108ef903690600401611d43565b6003546001600160a01b0316803b156104c65784604051809263a4e18cd760e01b8252818381610924888b8b60048501611e73565b03925af19081156109bf5785916109aa575b50506004546001600160a01b0316803b156104c65761096f93858094604051968795869485936338806e3160e11b855260048501611e73565b03925af1801561027b57610995575b5061098a600954611e9e565b6009556104ae6120a7565b8161099f91611d07565b61027857803861097e565b816109b491611d07565b6104ca578338610936565b6040513d87823e3d90fd5b5034610278578060031936011261027857602090604051908152f35b503461027857806003193601126102785760206040517f16ceee8289685dd2a02b9c8ae81d2df373176ce53519e6284e2a2950d6546ffa8152f35b50346102785780600319360112610278576004546040516001600160a01b039091168152602090f35b503461027857602036600319011261027857610a64611bea565b600254604051636185fa0f60e01b81526001600160a01b0392831660048201529183918391602491839160089190911c165afa90811561027b5782610ab79392610abb575b505060405191829182611c1b565b0390f35b610ad792503d8091833e610acf8183611d07565b810190611d8a565b3880610aa9565b5034610278576040366003190112610278576040610afa611c05565b91600435815280602052209060018060a01b0316600052602052602060ff604060002054166040519015158152f35b50346102785760c03660031901126102785780610b44611bea565b6044356001600160401b03811161028657610b63903690600401611d43565b6064356001600160401b0381116104ca57610b82903690600401611d43565b9160a4359160028310156104c657610b98611ed0565b6006546001600160a01b031690813b15610c215785610bf0938195610c0260405198899788968795633e82238560e11b875260018060a01b03166004870152602435602487015260c0604487015260c4860190611c78565b84810360031901606486015290611c78565b90608435608484015260a483015203925af1801561027b576102675750f35b8580fd5b503461027857806003193601126102785760206040517fa49807205ce4d355092ef5a8a18f56e8913cf4a201fbe287825b095693c217758152f35b5034610278578060031936011261027857602047604051908152f35b5034610278578060031936011261027857610c95611eed565b610c9d611ed0565b600160ff1960025416176002557f62e78cea01bee320cd4e420270b5ea74000d11b0c9f74754ebdbfc544b05a2586020604051338152a160035481906001600160a01b0316803b1561028857818091600460405180948193638456cb5960e01b83525af1801561027b57610ddd575b506004546001600160a01b0316803b1561028857818091600460405180948193638456cb5960e01b83525af1801561027b57610dc8575b506005546001600160a01b0316803b1561028857818091600460405180948193638456cb5960e01b83525af1801561027b57610db3575b506006546001600160a01b0316803b1561028857818091600460405180948193638456cb5960e01b83525af1801561027b576102675750f35b81610dbd91611d07565b610278578038610d7a565b81610dd291611d07565b610278578038610d43565b81610de791611d07565b610278578038610d0c565b5034610278576020366003190112610278576060610220604051610e1581611ccf565b83815283602082015283604082015283838201528360808201528360a08201528360c08201528360e08201528361010082015283610120820152836101408201528261016082015283610180820152836101a0820152836101c0820152836101e082015282610200820152015260248160018060a01b036003541660405192838092633295e94f60e11b825260043560048301525afa90811561027b578291610ff3575b506040519160208352815160208401526020820151604084015260018060a01b03604083015116606084015260018060a01b036060830151166080840152608082015160a084015260a082015160c084015260c082015160e084015260e0820151610100840152610100820151906005821015610fdf57508291610ab791610120840152610120810151610140840152610140810151610160840152610220610fca610f78610160840151610240610180880152610260870190611c78565b61018084015115156101a08701526101a084015115156101c087015260018060a01b036101c0850151166101e08701526101e0840151610200870152610200840151601f198783030184880152611c78565b910151838203601f1901610240850152611c78565b634e487b7160e01b81526021600452602490fd5b90503d8083833e6110048183611d07565b810190602081830312610635578051906001600160401b03821161117b570161024081830312610635576040519161103b83611ccf565b815183526020820151602084015261105560408301611e0d565b604084015261106660608301611e0d565b60608401526080820151608084015260a082015160a084015260c082015160c084015260e082015160e084015261010082015160058110156104c6576101008401526101208201516101208401526101408201516101408401526101608201516001600160401b0381116104c657816110e0918401611e21565b6101608401526110f36101808301611e66565b6101808401526111066101a08301611e66565b6101a08401526111196101c08301611e0d565b6101c08401526101e08201516101e08401526102008201516001600160401b0381116104c6578161114b918401611e21565b6102008401526102208201516001600160401b0381116104c65761116f9201611e21565b61022082015238610eb9565b8380fd5b50346102785780600319360112610278576020600a54604051908152f35b503461027857806003193601126102785760025460405160089190911c6001600160a01b03168152602090f35b5034610278576020366003190112610278576004356111e7611eed565b47811161120f578180808093818115611206575b3390f11561088e5780f35b506108fc6111fb565b60405162461bcd60e51b8152602060048201526014602482015273496e73756666696369656e742062616c616e636560601b6044820152606490fd5b5034610278578060031936011261027857602060ff600254166040519015158152f35b5034610278578060031936011261027857600754600854600954600a54604080519485526020850193909352918301526060820152608090f35b50346102785760a0366003190112610278576112c2611bea565b6112ca611c05565b6044356001600160a01b03811692919083900361117b576064356001600160a01b038116908190036104c6576084356001600160a01b0381169190829003610c2157611314611eed565b6001600160a01b038416928315611518576001600160a01b03169485156114d357801561148e57811561143d5782156113f8577f9328b8a339026c96335157e9360553f8b14d24d378543f549abc3f21e9b92c379560a09560025490610100600160a81b039060081b1690610100600160a81b03191617600255806001600160601b03871b6003541617600355816001600160601b03871b6004541617600455826001600160601b03871b6005541617600555836001600160601b03871b60065416176006556040519485526020850152604084015260608301526080820152a180f35b60405162461bcd60e51b815260206004820152601a60248201527f496e76616c69642072657075746174696f6e20616464726573730000000000006044820152606490fd5b60405162461bcd60e51b8152602060048201526024808201527f496e76616c696420737562736372697074696f6e206d616e61676572206164646044820152637265737360e01b6064820152608490fd5b60405162461bcd60e51b815260206004820152601b60248201527f496e76616c6964206172626974726174696f6e206164647265737300000000006044820152606490fd5b60405162461bcd60e51b815260206004820152601d60248201527f496e76616c69642072656e74616c20657363726f7720616464726573730000006044820152606490fd5b606460405162461bcd60e51b815260206004820152602060248201527f496e76616c6964206c697374696e6720726567697374727920616464726573736044820152fd5b503461027857604036600319011261027857611576611c05565b336001600160a01b038216036115925761038f90600435612025565b63334bd91960e11b8252600482fd5b50346102785760403660031901126102785761038f6004356115c1611c05565b906115dd61038582600052600060205260016040600020015490565b611f9a565b50346102785760203660031901126102785760035481906001600160a01b0316803b156102885781809160246040518094819363024df1f760e41b835260043560048401525af1801561027b576102675750f35b5034610278576020366003190112610278576020611664600435600052600060205260016040600020015490565b604051908152f35b5034610278578060031936011261027857611685611eed565b60025460ff8116156117e05760ff19166002557f5db9ee0a495bf2e6ff9c91a7834c1ba4fdd244a5e8aa4e537bd38aeae4b073aa6020604051338152a160035481906001600160a01b0316803b1561028857818091600460405180948193631fa5d41d60e11b83525af1801561027b576117cb575b506004546001600160a01b0316803b1561028857818091600460405180948193631fa5d41d60e11b83525af1801561027b576117b6575b506005546001600160a01b0316803b1561028857818091600460405180948193631fa5d41d60e11b83525af1801561027b576117a1575b506006546001600160a01b0316803b1561028857818091600460405180948193631fa5d41d60e11b83525af1801561027b576102675750f35b816117ab91611d07565b610278578038611768565b816117c091611d07565b610278578038611731565b816117d591611d07565b6102785780386116fa565b638dfc202b60e01b8252600482fd5b5034610278576020366003190112610278578060249161012060405161181481611c9d565b828152826020820152606060408201526060808201528260808201528260a08201528260c0820152606060e08201528261010082015201528060018060a01b0360025460081c166040519384809263083d13a560e11b825260043560048301525afa918215611a4057819261192f575b826040518091602082528051602083015260018060a01b0360208201511660408301526101206119186118e16118cb60408501516101406060880152610160870190611c78565b6060850151868203601f19016080880152611c78565b608084015160a086015260a084015160c086015260c0840151151560e086015260e0840151601f1986830301610100870152611c78565b916101008101518285015201516101408301520390f35b9091503d8083833e6119418183611d07565b810190602081830312610635578051906001600160401b03821161117b57019061014082820312610635576040519261197984611c9d565b8251845261198960208401611e0d565b602085015260408301516001600160401b0381116107d957826119ad918501611e21565b604085015260608301516001600160401b0381116107d957826119d1918501611e21565b60608501526080830151608085015260a083015160a08501526119f660c08401611e66565b60c085015260e0830151906001600160401b03821161027857508291611a20916101209401611e21565b60e084015261010081015161010084015201516101208201523880611884565b50604051903d90823e3d90fd5b503461027857602036600319011261027857611a67611bea565b60035460405163db8011ef60e01b81526001600160a01b03928316600482015291839183916024918391165afa90811561027b5782610ab79392610abb57505060405191829182611c1b565b50606036600319011261027857806004356003811015610288576044359081151580920361028657611ae3611ed0565b6005546001600160a01b031691823b156104ca5760648492604051948593849263051cb52560e11b845260048401526024356024840152604483015234905af1801561027b576102675750f35b50602036600319011261027857611b45611ed0565b6003546001600160a01b031681813b15610278578060249260405193848092630166940360e21b8252600435600483015234905af18015611a4057611b875780f35b611b9091611d07565b388180f35b9050346107d95760203660031901126107d95760043563ffffffff60e01b81168091036106355760209250637965db0b60e01b8114908115611bd9575b5015158152f35b6301ffc9a760e01b14905038611bd2565b600435906001600160a01b0382168203611c0057565b600080fd5b602435906001600160a01b0382168203611c0057565b602060408183019282815284518094520192019060005b818110611c3f5750505090565b8251845260209384019390920191600101611c32565b60005b838110611c685750506000910152565b8181015183820152602001611c58565b90602091611c9181518092818552858086019101611c55565b601f01601f1916010190565b61014081019081106001600160401b03821117611cb957604052565b634e487b7160e01b600052604160045260246000fd5b61024081019081106001600160401b03821117611cb957604052565b61012081019081106001600160401b03821117611cb957604052565b90601f801991011681019081106001600160401b03821117611cb957604052565b6001600160401b038111611cb957601f01601f191660200190565b81601f82011215611c0057803590611d5a82611d28565b92611d686040519485611d07565b82845260208383010111611c0057816000926020809301838601378301015290565b602081830312611c00578051906001600160401b038211611c0057019080601f83011215611c00578151916001600160401b038311611cb9578260051b9060405193611dd96020840186611d07565b8452602080850192820101928311611c0057602001905b828210611dfd5750505090565b8151815260209182019101611df0565b51906001600160a01b0382168203611c0057565b81601f82011215611c00578051611e3781611d28565b92611e456040519485611d07565b81845260208284010111611c0057611e639160208085019101611c55565b90565b51908115158203611c0057565b91611e9090611e6394928452606060208501526060840190611c78565b916040818403910152611c78565b6000198114611ead5760010190565b634e487b7160e01b600052601160045260246000fd5b91908201809211611ead57565b60ff60025416611edc57565b63d93c066560e01b60005260046000fd5b3360009081527f7d7ffb7a348e1c6a02869081a26547b49160dd3df72d1d75a570eb9b698292ec602052604090205460ff1615611f2657565b63e2517d3f60e01b600052336004527fa49807205ce4d355092ef5a8a18f56e8913cf4a201fbe287825b095693c2177560245260446000fd5b60008181526020818152604080832033845290915290205460ff1615611f825750565b63e2517d3f60e01b6000523360045260245260446000fd5b6000818152602081815260408083206001600160a01b038616845290915290205460ff1661201e576000818152602081815260408083206001600160a01b0395909516808452949091528120805460ff19166001179055339291907f2f8788117e7eff1d82e926ec794901d17c78024a50270940304540a733656f0d9080a4600190565b5050600090565b6000818152602081815260408083206001600160a01b038616845290915290205460ff161561201e576000818152602081815260408083206001600160a01b0395909516808452949091528120805460ff19169055339291907ff6391f5c32d9c69d2a47ea670b442974b53935d1edc7fd64eb21e047a839171b9080a4600190565b600754600854600954600a546040805194855260208501939093529183015260608201527fb071b37babbcc9e46c3c9012509aede8ac4050fbebf8bc121816082742802cd990608090a156fea264697066735822122016c0dc5dba7ac19932fd087606ca9ecd159788c39b6aa1de103e969fafcf923364736f6c634300081c00332f8788117e7eff1d82e926ec794901d17c78024a50270940304540a733656f0d7d7ffb7a348e1c6a02869081a26547b49160dd3df72d1d75a570eb9b698292ecad3228b676f7d3cd4284a5443f17f1962b36e491b30a40b2405849e597ba5fb5",
  "linkReferences": {},
  "deployedLinkReferences": {}
}