{
  "_format": "hh-sol-artifact-1",
  "contractName": "SmartRent",
  "sourceName": "contracts/SmartRent.sol",
  "abi": [
    {
      "inputs": [],
      "stateMutability": "nonpayable",
      "type": "constructor"
    },
    {
      "inputs": [],
      "name": "AccessControlBadConfirmation",
      "type": "error"
    },
    {
      "inputs": [
        {
          "internalType": "address",
          "name": "account",
          "type": "address"
        },
        {
          "internalType": "bytes32",
          "name": "neededRole",
          "type": "bytes32"
        }
      ],
      "name": "AccessControlUnauthorizedAccount",
      "type": "error"
    },
    {
      "inputs": [],
      "name": "EnforcedPause",
      "type": "error"
    },
    {
      "inputs": [],
      "name": "ExpectedPause",
      "type": "error"
    },
    {
      "inputs": [],
      "name": "ReentrancyGuardReentrantCall",
      "type": "error"
    },
    {
      "anonymous": false,
      "inputs": [
        {
          "indexed": true,
          "internalType": "uint256",
          "name": "listingId",
          "type": "uint256"
        },
        {
          "indexed": true,
          "internalType": "address",
          "name": "landlord",
          "type": "address"
        },
        {
          "indexed": false,
          "internalType": "string",
          "name": "title",
          "type": "string"
        },
        {
          "indexed": false,
          "internalType": "uint256",
          "name": "pricePerDay",
          "type": "uint256"
        },
        {
          "indexed": false,
          "internalType": "uint256",
          "name": "deposit",
          "type": "uint256"
        },
        {
          "indexed": false,
          "internalType": "string",
          "name": "ipfsHash",
          "type": "string"
        }
      ],
      "name": "ListingCreated",
      "type": "event"
    },
    {
      "anonymous": false,
      "inputs": [
        {
          "indexed": false,
          "internalType": "address",
          "name": "account",
          "type": "address"
        }
      ],
      "name": "Paused",
      "type": "event"
    },
    {
      "anonymous": false,
      "inputs": [
        {
          "indexed": false,
          "internalType": "address",
          "name": "listingRegistry",
          "type": "address"
        },
        {
          "indexed": false,
          "internalType": "address",
          "name": "rentalEscrow",
          "type": "address"
        },
        {
          "indexed": false,
          "internalType": "address",
          "name": "arbitration",
          "type": "address"
        },
        {
          "indexed": false,
          "internalType": "address",
          "name": "subscriptionManager",
          "type": "address"
        },
        {
          "indexed": false,
          "internalType": "address",
          "name": "reputation",
          "type": "address"
        }
      ],
      "name": "PlatformInitialized",
      "type": "event"
    },
    {
      "anonymous": false,
      "inputs": [
        {
          "indexed": true,
          "internalType": "bytes32",
          "name": "role",
          "type": "bytes32"
        },
        {
          "indexed": true,
          "internalType": "bytes32",
          "name": "previousAdminRole",
          "type": "bytes32"
        },
        {
          "indexed": true,
          "internalType": "bytes32",
          "name": "newAdminRole",
          "type": "bytes32"
        }
      ],
      "name": "RoleAdminChanged",
      "type": "event"
    },
    {
      "anonymous": false,
      "inputs": [
        {
          "indexed": true,
          "internalType": "bytes32",
          "name": "role",
          "type": "bytes32"
        },
        {
          "indexed": true,
          "internalType": "address",
          "name": "account",
          "type": "address"
        },
        {
          "indexed": true,
          "internalType": "address",
          "name": "sender",
          "type": "address"
        }
      ],
      "name": "RoleGranted",
      "type": "event"
    },
    {
      "anonymous": false,
      "inputs": [
        {
          "indexed": true,
          "internalType": "bytes32",
          "name": "role",
          "type": "bytes32"
        },
        {
          "indexed": true,
          "internalType": "address",
          "name": "account",
          "type": "address"
        },
        {
          "indexed": true,
          "internalType": "address",
          "name": "sender",
          "type": "address"
        }
      ],
      "name": "RoleRevoked",
      "type": "event"
    },
    {
      "anonymous": false,
      "inputs": [
        {
          "indexed": false,
          "internalType": "uint256",
          "name": "totalListings",
          "type": "uint256"
        },
        {
          "indexed": false,
          "internalType": "uint256",
          "name": "totalRentals",
          "type": "uint256"
        },
        {
          "indexed": false,
          "internalType": "uint256",
          "name": "totalDisputes",
          "type": "uint256"
        },
        {
          "indexed": false,
          "internalType": "uint256",
          "name": "totalVolume",
          "type": "uint256"
        }
      ],
      "name": "StatisticsUpdated",
      "type": "event"
    },
    {
      "anonymous": false,
      "inputs": [
        {
          "indexed": false,
          "internalType": "address",
          "name": "account",
          "type": "address"
        }
      ],
      "name": "Unpaused",
      "type": "event"
    },
    {
      "inputs": [],
      "name": "ADMIN_ROLE",
      "outputs": [
        {
          "internalType": "bytes32",
          "name": "",
          "type": "bytes32"
        }
      ],
      "stateMutability": "view",
      "type": "function"
    },
    {
      "inputs": [],
      "name": "ARBITRATOR_ROLE",
      "outputs": [
        {
          "internalType": "bytes32",
          "name": "",
          "type": "bytes32"
        }
      ],
      "stateMutability": "view",
      "type": "function"
    },
    {
      "inputs": [],
      "name": "DEFAULT_ADMIN_ROLE",
      "outputs": [
        {
          "internalType": "bytes32",
          "name": "",
          "type": "bytes32"
        }
      ],
      "stateMutability": "view",
      "type": "function"
    },
    {
      "inputs": [
        {
          "internalType": "uint256",
          "name": "rentalId",
          "type": "uint256"
        }
      ],
      "name": "agreeReturn",
      "outputs": [],
      "stateMutability": "nonpayable",
      "type": "function"
    },
    {
      "inputs": [],
      "name": "arbitration",
      "outputs": [
        {
          "internalType": "contract Arbitration",
          "name": "",
          "type": "address"
        }
      ],
      "stateMutability": "view",
      "type": "function"
    },
    {
      "inputs": [
        {
          "internalType": "string",
          "name": "title",
          "type": "string"
        },
        {
          "internalType": "string",
          "name": "description",
          "type": "string"
        },
        {
          "internalType": "uint256",
          "name": "pricePerDay",
          "type": "uint256"
        },
        {
          "internalType": "uint256",
          "name": "deposit",
          "type": "uint256"
        },
        {
          "internalType": "string",
          "name": "ipfsHash",
          "type": "string"
        }
      ],
      "name": "createListing",
      "outputs": [],
      "stateMutability": "nonpayable",
      "type": "function"
    },
    {
      "inputs": [
        {
          "internalType": "uint256",
          "name": "listingId",
          "type": "uint256"
        },
        {
          "internalType": "address",
          "name": "landlord",
          "type": "address"
        },
        {
          "internalType": "uint256",
          "name": "deposit",
          "type": "uint256"
        },
        {
          "internalType": "uint256",
          "name": "totalRent",
          "type": "uint256"
        },
        {
          "internalType": "uint256",
          "name": "startDate",
          "type": "uint256"
        },
        {
          "internalType": "uint256",
          "name": "endDate",
          "type": "uint256"
        }
      ],
      "name": "createRental",
      "outputs": [],
      "stateMutability": "nonpayable",
      "type": "function"
    },
    {
      "inputs": [
        {
          "internalType": "address",
          "name": "reviewee",
          "type": "address"
        },
        {
          "internalType": "uint256",
          "name": "rating",
          "type": "uint256"
        },
        {
          "internalType": "string",
          "name": "reviewText",
          "type": "string"
        },
        {
          "internalType": "string",
          "name": "ipfsHash",
          "type": "string"
        },
        {
          "internalType": "uint256",
          "name": "rentalId",
          "type": "uint256"
        },
        {
          "internalType": "enum Reputation.ReviewType",
          "name": "reviewType",
          "type": "uint8"
        }
      ],
      "name": "createReview",
      "outputs": [],
      "stateMutability": "nonpayable",
      "type": "function"
    },
    {
      "inputs": [
        {
          "internalType": "enum SubscriptionManager.SubscriptionPlan",
          "name": "plan",
          "type": "uint8"
        },
        {
          "internalType": "uint256",
          "name": "duration",
          "type": "uint256"
        },
        {
          "internalType": "bool",
          "name": "autoRenew",
          "type": "bool"
        }
      ],
      "name": "createSubscription",
      "outputs": [],
      "stateMutability": "payable",
      "type": "function"
    },
    {
      "inputs": [],
      "name": "getContractBalance",
      "outputs": [
        {
          "internalType": "uint256",
          "name": "",
          "type": "uint256"
        }
      ],
      "stateMutability": "view",
      "type": "function"
    },
    {
      "inputs": [
        {
          "internalType": "uint256",
          "name": "listingId",
          "type": "uint256"
        }
      ],
      "name": "getListing",
      "outputs": [
        {
          "components": [
            {
              "internalType": "uint256",
              "name": "listingId",
              "type": "uint256"
            },
            {
              "internalType": "address",
              "name": "landlord",
              "type": "address"
            },
            {
              "internalType": "string",
              "name": "title",
              "type": "string"
            },
            {
              "internalType": "string",
              "name": "description",
              "type": "string"
            },
            {
              "internalType": "uint256",
              "name": "pricePerDay",
              "type": "uint256"
            },
            {
              "internalType": "uint256",
              "name": "deposit",
              "type": "uint256"
            },
            {
              "internalType": "bool",
              "name": "isActive",
              "type": "bool"
            },
            {
              "internalType": "string",
              "name": "ipfsHash",
              "type": "string"
            },
            {
              "internalType": "uint256",
              "name": "createdAt",
              "type": "uint256"
            },
            {
              "internalType": "uint256",
              "name": "updatedAt",
              "type": "uint256"
            }
          ],
          "internalType": "struct ListingRegistry.PropertyListing",
          "name": "",
          "type": "tuple"
        }
      ],
      "stateMutability": "view",
      "type": "function"
    },
    {
      "inputs": [],
      "name": "getPlatformStatistics",
      "outputs": [
        {
          "internalType": "uint256",
          "name": "",
          "type": "uint256"
        },
        {
          "internalType": "uint256",
          "name": "",
          "type": "uint256"
        },
        {
          "internalType": "uint256",
          "name": "",
          "type": "uint256"
        },
        {
          "internalType": "uint256",
          "name": "",
          "type": "uint256"
        }
      ],
      "stateMutability": "view",
      "type": "function"
    },
    {
      "inputs": [
        {
          "internalType": "uint256",
          "name": "rentalId",
          "type": "uint256"
        }
      ],
      "name": "getRental",
      "outputs": [
        {
          "components": [
            {
              "internalType": "uint256",
              "name": "rentalId",
              "type": "uint256"
            },
            {
              "internalType": "uint256",
              "name": "listingId",
              "type": "uint256"
            },
            {
              "internalType": "address",
              "name": "tenant",
              "type": "address"
            },
            {
              "internalType": "address",
              "name": "landlord",
              "type": "address"
            },
            {
              "internalType": "uint256",
              "name": "deposit",
              "type": "uint256"
            },
            {
              "internalType": "uint256",
              "name": "totalRent",
              "type": "uint256"
            },
            {
              "internalType": "uint256",
              "name": "startDate",
              "type": "uint256"
            },
            {
              "internalType": "uint256",
              "name": "endDate",
              "type": "uint256"
            },
            {
              "internalType": "enum RentalEscrow.RentalStatus",
              "name": "status",
              "type": "uint8"
            },
            {
              "internalType": "uint256",
              "name": "createdAt",
              "type": "uint256"
            },
            {
              "internalType": "uint256",
              "name": "updatedAt",
              "type": "uint256"
            },
            {
              "internalType": "string",
              "name": "contractIpfsHash",
              "type": "string"
            },
            {
              "internalType": "bool",
              "name": "tenantSigned",
              "type": "bool"
            },
            {
              "internalType": "bool",
              "name": "landlordSigned",
              "type": "bool"
            },
            {
              "internalType": "address",
              "name": "arbitrator",
              "type": "address"
            },
            {
              "internalType": "uint256",
              "name": "disputeOpenedAt",
              "type": "uint256"
            },
            {
              "internalType": "string",
              "name": "disputeReason",
              "type": "string"
            },
            {
              "internalType": "string",
              "name": "disputeIpfsHash",
              "type": "string"
            }
          ],
          "internalType": "struct RentalEscrow.Rental",
          "name": "",
          "type": "tuple"
        }
      ],
      "stateMutability": "view",
      "type": "function"
    },
    {
      "inputs": [
        {
          "internalType": "bytes32",
          "name": "role",
          "type": "bytes32"
        }
      ],
      "name": "getRoleAdmin",
      "outputs": [
        {
          "internalType": "bytes32",
          "name": "",
          "type": "bytes32"
        }
      ],
      "stateMutability": "view",
      "type": "function"
    },
    {
      "inputs": [
        {
          "internalType": "address",
          "name": "user",
          "type": "address"
        }
      ],
      "name": "getUserListingHistory",
      "outputs": [
        {
          "internalType": "uint256[]",
          "name": "",
          "type": "uint256[]"
        }
      ],
      "stateMutability": "view",
      "type": "function"
    },
    {
      "inputs": [
        {
          "internalType": "address",
          "name": "user",
          "type": "address"
        }
      ],
      "name": "getUserRentalHistory",
      "outputs": [
        {
          "internalType": "uint256[]",
          "name": "",
          "type": "uint256[]"
        }
      ],
      "stateMutability": "view",
      "type": "function"
    },
    {
      "inputs": [
        {
          "internalType": "address",
          "name": "user",
          "type": "address"
        }
      ],
      "name": "getUserReputation",
      "outputs": [
        {
          "components": [
            {
              "internalType": "address",
              "name": "user",
              "type": "address"
            },
            {
              "internalType": "uint256",
              "name": "totalReviews",
              "type": "uint256"
            },
            {
              "internalType": "uint256",
              "name": "totalRatingSum",
              "type": "uint256"
            },
            {
              "internalType": "uint256",
              "name": "reputationScore",
              "type": "uint256"
            },
            {
              "internalType": "uint256",
              "name": "completedRentals",
              "type": "uint256"
            },
            {
              "internalType": "uint256",
              "name": "cancelledRentals",
              "type": "uint256"
            },
            {
              "internalType": "uint256",
              "name": "disputeCount",
              "type": "uint256"
            },
            {
              "internalType": "bool",
              "name": "isVerified",
              "type": "bool"
            },
            {
              "internalType": "uint256",
              "name": "lastUpdated",
              "type": "uint256"
            }
          ],
          "internalType": "struct Reputation.UserReputation",
          "name": "",
          "type": "tuple"
        }
      ],
      "stateMutability": "view",
      "type": "function"
    },
    {
      "inputs": [
        {
          "internalType": "bytes32",
          "name": "role",
          "type": "bytes32"
        },
        {
          "internalType": "address",
          "name": "account",
          "type": "address"
        }
      ],
      "name": "grantRole",
      "outputs": [],
      "stateMutability": "nonpayable",
      "type": "function"
    },
    {
      "inputs": [
        {
          "internalType": "address",
          "name": "user",
          "type": "address"
        },
        {
          "internalType": "uint256",
          "name": "feature",
          "type": "uint256"
        }
      ],
      "name": "hasPremiumFeature",
      "outputs": [
        {
          "internalType": "bool",
          "name": "",
          "type": "bool"
        }
      ],
      "stateMutability": "view",
      "type": "function"
    },
    {
      "inputs": [
        {
          "internalType": "bytes32",
          "name": "role",
          "type": "bytes32"
        },
        {
          "internalType": "address",
          "name": "account",
          "type": "address"
        }
      ],
      "name": "hasRole",
      "outputs": [
        {
          "internalType": "bool",
          "name": "",
          "type": "bool"
        }
      ],
      "stateMutability": "view",
      "type": "function"
    },
    {
      "inputs": [
        {
          "internalType": "address",
          "name": "_listingRegistry",
          "type": "address"
        },
        {
          "internalType": "address payable",
          "name": "_rentalEscrow",
          "type": "address"
        },
        {
          "internalType": "address",
          "name": "_arbitration",
          "type": "address"
        },
        {
          "internalType": "address payable",
          "name": "_subscriptionManager",
          "type": "address"
        },
        {
          "internalType": "address",
          "name": "_reputation",
          "type": "address"
        }
      ],
      "name": "initializePlatform",
      "outputs": [],
      "stateMutability": "nonpayable",
      "type": "function"
    },
    {
      "inputs": [],
      "name": "listingRegistry",
      "outputs": [
        {
          "internalType": "contract ListingRegistry",
          "name": "",
          "type": "address"
        }
      ],
      "stateMutability": "view",
      "type": "function"
    },
    {
      "inputs": [
        {
          "internalType": "uint256",
          "name": "rentalId",
          "type": "uint256"
        }
      ],
      "name": "makeDeposit",
      "outputs": [],
      "stateMutability": "payable",
      "type": "function"
    },
    {
      "inputs": [
        {
          "internalType": "uint256",
          "name": "rentalId",
          "type": "uint256"
        },
        {
          "internalType": "address",
          "name": "token",
          "type": "address"
        }
      ],
      "name": "makeDepositWithToken",
      "outputs": [],
      "stateMutability": "nonpayable",
      "type": "function"
    },
    {
      "inputs": [
        {
          "internalType": "uint256",
          "name": "rentalId",
          "type": "uint256"
        },
        {
          "internalType": "string",
          "name": "reason",
          "type": "string"
        },
        {
          "internalType": "string",
          "name": "disputeIpfsHash",
          "type": "string"
        }
      ],
      "name": "openDispute",
      "outputs": [],
      "stateMutability": "nonpayable",
      "type": "function"
    },
    {
      "inputs": [],
      "name": "pausePlatform",
      "outputs": [],
      "stateMutability": "nonpayable",
      "type": "function"
    },
    {
      "inputs": [],
      "name": "paused",
      "outputs": [
        {
          "internalType": "bool",
          "name": "",
          "type": "bool"
        }
      ],
      "stateMutability": "view",
      "type": "function"
    },
    {
      "inputs": [
        {
          "internalType": "bytes32",
          "name": "role",
          "type": "bytes32"
        },
        {
          "internalType": "address",
          "name": "callerConfirmation",
          "type": "address"
        }
      ],
      "name": "renounceRole",
      "outputs": [],
      "stateMutability": "nonpayable",
      "type": "function"
    },
    {
      "inputs": [],
      "name": "rentalEscrow",
      "outputs": [
        {
          "internalType": "contract RentalEscrow",
          "name": "",
          "type": "address"
        }
      ],
      "stateMutability": "view",
      "type": "function"
    },
    {
      "inputs": [],
      "name": "reputation",
      "outputs": [
        {
          "internalType": "contract Reputation",
          "name": "",
          "type": "address"
        }
      ],
      "stateMutability": "view",
      "type": "function"
    },
    {
      "inputs": [
        {
          "internalType": "bytes32",
          "name": "role",
          "type": "bytes32"
        },
        {
          "internalType": "address",
          "name": "account",
          "type": "address"
        }
      ],
      "name": "revokeRole",
      "outputs": [],
      "stateMutability": "nonpayable",
      "type": "function"
    },
    {
      "inputs": [
        {
          "internalType": "uint256",
          "name": "rentalId",
          "type": "uint256"
        },
        {
          "internalType": "string",
          "name": "contractIpfsHash",
          "type": "string"
        }
      ],
      "name": "signContract",
      "outputs": [],
      "stateMutability": "nonpayable",
      "type": "function"
    },
    {
      "inputs": [],
      "name": "subscriptionManager",
      "outputs": [
        {
          "internalType": "contract SubscriptionManager",
          "name": "",
          "type": "address"
        }
      ],
      "stateMutability": "view",
      "type": "function"
    },
    {
      "inputs": [
        {
          "internalType": "bytes4",
          "name": "interfaceId",
          "type": "bytes4"
        }
      ],
      "name": "supportsInterface",
      "outputs": [
        {
          "internalType": "bool",
          "name": "",
          "type": "bool"
        }
      ],
      "stateMutability": "view",
      "type": "function"
    },
    {
      "inputs": [],
      "name": "totalDisputes",
      "outputs": [
        {
          "internalType": "uint256",
          "name": "",
          "type": "uint256"
        }
      ],
      "stateMutability": "view",
      "type": "function"
    },
    {
      "inputs": [],
      "name": "totalListings",
      "outputs": [
        {
          "internalType": "uint256",
          "name": "",
          "type": "uint256"
        }
      ],
      "stateMutability": "view",
      "type": "function"
    },
    {
      "inputs": [],
      "name": "totalRentals",
      "outputs": [
        {
          "internalType": "uint256",
          "name": "",
          "type": "uint256"
        }
      ],
      "stateMutability": "view",
      "type": "function"
    },
    {
      "inputs": [],
      "name": "totalVolume",
      "outputs": [
        {
          "internalType": "uint256",
          "name": "",
          "type": "uint256"
        }
      ],
      "stateMutability": "view",
      "type": "function"
    },
    {
      "inputs": [],
      "name": "unpausePlatform",
      "outputs": [],
      "stateMutability": "nonpayable",
      "type": "function"
    },
    {
      "inputs": [
        {
          "internalType": "uint256",
          "name": "amount",
          "type": "uint256"
        }
      ],
      "name": "withdrawFees",
      "outputs": [],
      "stateMutability": "nonpayable",
      "type": "function"
    },
    {
      "stateMutability": "payable",
      "type": "receive"
    }
  ],
  "bytecode": "0x608060405234610030576001805561001633610035565b50610020336100b1565b506040516121b4908161014a8239f35b600080fd5b6001600160a01b038116600090815260008051602061233e833981519152602052604090205460ff166100ab576001600160a01b0316600081815260008051602061233e83398151915260205260408120805460ff191660011790553391906000805160206122fe8339815191528180a4600190565b50600090565b6001600160a01b038116600090815260008051602061231e833981519152602052604090205460ff166100ab576001600160a01b0316600081815260008051602061231e83398151915260205260408120805460ff191660011790553391907fa49807205ce4d355092ef5a8a18f56e8913cf4a201fbe287825b095693c21775906000805160206122fe8339815191529080a460019056fe608080604052600436101561001d575b50361561001b57600080fd5b005b600090813560e01c90816301ffc9a714611c2057508063059a500c14611bbb5780630a396a4a14611b3e5780630fc376a714611ad8578063107a274a1461187a5780631a9ba7eb146116f7578063248a9ca3146116c157806324df1f701461166d5780632f2ff15d1461162c57806336568abe146115e757806349041359146113335780635603e860146112f95780635c975abb146112d65780635e318e07146112555780635ebf3e9b146112285780635f81a57c1461120a578063652bd29e14610e7d5780636b78c29b14610d075780636f9fb98a14610ceb57806375b238fc14610cb05780637d04470a14610bb457806391d1485414610b695780639492e30214610ad55780639b73235014610aac5780639cea078714610a71578063a217fddf14610a55578063a4e18cd714610920578063ad36d6661461086b578063baccbfdb146106c3578063bd55cc3a146105e8578063bf158fd2146105bf578063c52164c614610596578063c5e4ccc414610578578063c78b616c1461055a578063cc2ee0fc14610393578063d547741f14610349578063dd4b22d11461032b578063e970a12014610302578063fc78aef11461028b5763fea14f5e0361000f573461027857604036600319011261027857806024356001600160401b0381116102885761020f903690600401611dce565b6003546001600160a01b0316803b15610286576102568392918392604051948580948193637f50a7af60e11b83526004356004840152604060248401526044830190611d03565b03925af1801561027b576102675750f35b8161027191611d92565b6102785780f35b80fd5b6040513d84823e3d90fd5b505b50fd5b503461027857604036600319011261027857806102a6611c90565b6102ae611f5b565b6003546001600160a01b031690813b156102865760405163fc78aef160e01b815260048035908201526001600160a01b0390911660248201529082908290604490829084905af1801561027b576102675750f35b50346102785780600319360112610278576003546040516001600160a01b039091168152602090f35b50346102785780600319360112610278576020600854604051908152f35b50346102785760403660031901126102785761038f600435610369611c90565b9061038a61038582600052600060205260016040600020015490565b611fea565b6120b0565b5080f35b50346102785760a0366003190112610278576004356001600160401b038111610556576103c4903690600401611dce565b6024356001600160401b038111610552576103e3903690600401611dce565b9060643590604435846084356001600160401b0381116105565761040b903690600401611dce565b94610414611f5b565b60025460081c6001600160a01b0316803b156105525761047483916104929383604051809681958294633158e5f360e01b845233600485015260c060248501526104628d60c4860190611d03565b84810360031901604486015290611d03565b8a60648401528c60848401526003198382030160a48401528d611d03565b03925af1801561027b57610539575b50506104ae600754611f29565b92836007556104bb612132565b6000198401938411610525579161051f610505927f4bac60dc51a3e92083b5ca70985d572a37b735058b5e86413c4f01c48b3339c594604051948594608086526080860190611d03565b916020850152604084015282810360608401523396611d03565b0390a380f35b634e487b7160e01b86526011600452602486fd5b8161054391611d92565b61054e5784386104a1565b8480fd5b8280fd5b5080fd5b50346102785780600319360112610278576020600754604051908152f35b50346102785780600319360112610278576020600954604051908152f35b50346102785780600319360112610278576006546040516001600160a01b039091168152602090f35b50346102785780600319360112610278576005546040516001600160a01b039091168152602090f35b50346102785760c036600319011261027857610602611c90565b6044358260643592610612611f5b565b6003546001600160a01b031690813b1561055257829160c483926040519485938492635eaae61d60e11b8452600435600485015260018060a01b03166024840152886044840152896064840152608435608484015260a43560a48401525af1801561027b576106ae575b506106a06106988484610690600854611f29565b600855611f4e565b600a54611f4e565b600a556106ab612132565b80f35b816106b891611d92565b61055257823861067c565b5034610278576020366003190112610278576106dd611c75565b816101006040516106ed81611d76565b8281528260208201528260408201528260608201528260808201528260a08201528260c08201528260e0820152015261012060018060a01b03600654169160246040518094819363baccbfdb60e01b835260018060a01b031660048301525afa90811561027b5782916107c4575b610120826101006040519160018060a01b0381511683526020810151602084015260408101516040840152606081015160608401526080810151608084015260a081015160a084015260c081015160c084015260e0810151151560e08401520151610100820152f35b9050610120813d8211610863575b816107e06101209383611d92565b81010312610556576101209150610100604051916107fd83611d76565b61080681611e98565b83526020810151602084015260408101516040840152606081015160608401526080810151608084015260a081015160a084015260c081015160c084015261085060e08201611ef1565b60e084015201516101008201523861075b565b3d91506107d2565b503461027857604036600319011261027857610885611c75565b600554604051638043834960e01b81526001600160a01b0392831660048201526024803590820152929160209184916044918391165afa9081156109145780916108d7575b6020826040519015158152f35b90506020823d60201161090c575b816108f260209383611d92565b810103126102785750610906602091611ef1565b386108ca565b3d91506108e5565b604051903d90823e3d90fd5b503461027857606036600319011261027857806004356024356001600160401b03811161028657610955903690600401611dce565b906044356001600160401b038111610a4557610975903690600401611dce565b6003546001600160a01b0316803b1561054e5784604051809263a4e18cd760e01b82528183816109aa888b8b60048501611efe565b03925af1908115610a4a578591610a30575b50506004546001600160a01b0316803b1561054e576109f593858094604051968795869485936338806e3160e11b855260048501611efe565b03925af1801561027b57610a1b575b50610a10600954611f29565b6009556106ab612132565b81610a2591611d92565b610278578038610a04565b81610a3a91611d92565b610a455783386109bc565b505050fd5b6040513d87823e3d90fd5b5034610278578060031936011261027857602090604051908152f35b503461027857806003193601126102785760206040517f16ceee8289685dd2a02b9c8ae81d2df373176ce53519e6284e2a2950d6546ffa8152f35b50346102785780600319360112610278576004546040516001600160a01b039091168152602090f35b503461027857602036600319011261027857610aef611c75565b600254604051636185fa0f60e01b81526001600160a01b0392831660048201529183918391602491839160089190911c165afa90811561027b5782610b429392610b46575b505060405191829182611ca6565b0390f35b610b6292503d8091833e610b5a8183611d92565b810190611e15565b3880610b34565b5034610278576040366003190112610278576040610b85611c90565b91600435815280602052209060018060a01b0316600052602052602060ff604060002054166040519015158152f35b50346102785760c03660031901126102785780610bcf611c75565b6044356001600160401b03811161028657610bee903690600401611dce565b6064356001600160401b038111610a4557610c0d903690600401611dce565b9160a43591600283101561054e57610c23611f5b565b6006546001600160a01b031690813b15610cac5785610c7b938195610c8d60405198899788968795633e82238560e11b875260018060a01b03166004870152602435602487015260c0604487015260c4860190611d03565b84810360031901606486015290611d03565b90608435608484015260a483015203925af1801561027b576102675750f35b8580fd5b503461027857806003193601126102785760206040517fa49807205ce4d355092ef5a8a18f56e8913cf4a201fbe287825b095693c217758152f35b5034610278578060031936011261027857602047604051908152f35b5034610278578060031936011261027857610d20611f78565b610d28611f5b565b600160ff1960025416176002557f62e78cea01bee320cd4e420270b5ea74000d11b0c9f74754ebdbfc544b05a2586020604051338152a160035481906001600160a01b0316803b1561028857818091600460405180948193638456cb5960e01b83525af1801561027b57610e68575b506004546001600160a01b0316803b1561028857818091600460405180948193638456cb5960e01b83525af1801561027b57610e53575b506005546001600160a01b0316803b1561028857818091600460405180948193638456cb5960e01b83525af1801561027b57610e3e575b506006546001600160a01b0316803b1561028857818091600460405180948193638456cb5960e01b83525af1801561027b576102675750f35b81610e4891611d92565b610278578038610e05565b81610e5d91611d92565b610278578038610dce565b81610e7291611d92565b610278578038610d97565b5034610278576020366003190112610278576060610220604051610ea081611d5a565b83815283602082015283604082015283838201528360808201528360a08201528360c08201528360e08201528361010082015283610120820152836101408201528261016082015283610180820152836101a0820152836101c0820152836101e082015282610200820152015260248160018060a01b036003541660405192838092633295e94f60e11b825260043560048301525afa90811561027b57829161107e575b506040519160208352815160208401526020820151604084015260018060a01b03604083015116606084015260018060a01b036060830151166080840152608082015160a084015260a082015160c084015260c082015160e084015260e082015161010084015261010082015190600582101561106a57508291610b4291610120840152610120810151610140840152610140810151610160840152610220611055611003610160840151610240610180880152610260870190611d03565b61018084015115156101a08701526101a084015115156101c087015260018060a01b036101c0850151166101e08701526101e0840151610200870152610200840151601f198783030184880152611d03565b910151838203601f1901610240850152611d03565b634e487b7160e01b81526021600452602490fd5b90503d8083833e61108f8183611d92565b810190602081830312610552578051906001600160401b03821161120657016102408183031261055257604051916110c683611d5a565b81518352602082015160208401526110e060408301611e98565b60408401526110f160608301611e98565b60608401526080820151608084015260a082015160a084015260c082015160c084015260e082015160e0840152610100820151600581101561054e576101008401526101208201516101208401526101408201516101408401526101608201516001600160401b03811161054e578161116b918401611eac565b61016084015261117e6101808301611ef1565b6101808401526111916101a08301611ef1565b6101a08401526111a46101c08301611e98565b6101c08401526101e08201516101e08401526102008201516001600160401b03811161054e57816111d6918401611eac565b6102008401526102208201516001600160401b03811161054e576111fa9201611eac565b61022082015238610f44565b8380fd5b50346102785780600319360112610278576020600a54604051908152f35b503461027857806003193601126102785760025460405160089190911c6001600160a01b03168152602090f35b503461027857602036600319011261027857600435611272611f78565b47811161129a578180808093818115611291575b3390f1156109145780f35b506108fc611286565b60405162461bcd60e51b8152602060048201526014602482015273496e73756666696369656e742062616c616e636560601b6044820152606490fd5b5034610278578060031936011261027857602060ff600254166040519015158152f35b5034610278578060031936011261027857600754600854600954600a54604080519485526020850193909352918301526060820152608090f35b50346102785760a03660031901126102785761134d611c75565b611355611c90565b6044356001600160a01b038116929190839003611206576064356001600160a01b0381169081900361054e576084356001600160a01b0381169190829003610cac5761139f611f78565b6001600160a01b0384169283156115a3576001600160a01b031694851561155e5780156115195781156114c8578215611483577f9328b8a339026c96335157e9360553f8b14d24d378543f549abc3f21e9b92c379560a09560025490610100600160a81b039060081b1690610100600160a81b03191617600255806001600160601b03871b6003541617600355816001600160601b03871b6004541617600455826001600160601b03871b6005541617600555836001600160601b03871b60065416176006556040519485526020850152604084015260608301526080820152a180f35b60405162461bcd60e51b815260206004820152601a60248201527f496e76616c69642072657075746174696f6e20616464726573730000000000006044820152606490fd5b60405162461bcd60e51b8152602060048201526024808201527f496e76616c696420737562736372697074696f6e206d616e61676572206164646044820152637265737360e01b6064820152608490fd5b60405162461bcd60e51b815260206004820152601b60248201527f496e76616c6964206172626974726174696f6e206164647265737300000000006044820152606490fd5b60405162461bcd60e51b815260206004820152601d60248201527f496e76616c69642072656e74616c20657363726f7720616464726573730000006044820152606490fd5b606460405162461bcd60e51b815260206004820152602060248201527f496e76616c6964206c697374696e6720726567697374727920616464726573736044820152fd5b503461027857604036600319011261027857611601611c90565b336001600160a01b0382160361161d5761038f906004356120b0565b63334bd91960e11b8252600482fd5b50346102785760403660031901126102785761038f60043561164c611c90565b9061166861038582600052600060205260016040600020015490565b612025565b50346102785760203660031901126102785760035481906001600160a01b0316803b156102885781809160246040518094819363024df1f760e41b835260043560048401525af1801561027b576102675750f35b50346102785760203660031901126102785760206116ef600435600052600060205260016040600020015490565b604051908152f35b5034610278578060031936011261027857611710611f78565b60025460ff81161561186b5760ff19166002557f5db9ee0a495bf2e6ff9c91a7834c1ba4fdd244a5e8aa4e537bd38aeae4b073aa6020604051338152a160035481906001600160a01b0316803b1561028857818091600460405180948193631fa5d41d60e11b83525af1801561027b57611856575b506004546001600160a01b0316803b1561028857818091600460405180948193631fa5d41d60e11b83525af1801561027b57611841575b506005546001600160a01b0316803b1561028857818091600460405180948193631fa5d41d60e11b83525af1801561027b5761182c575b506006546001600160a01b0316803b1561028857818091600460405180948193631fa5d41d60e11b83525af1801561027b576102675750f35b8161183691611d92565b6102785780386117f3565b8161184b91611d92565b6102785780386117bc565b8161186091611d92565b610278578038611785565b638dfc202b60e01b8252600482fd5b5034610278576020366003190112610278578060249161012060405161189f81611d28565b828152826020820152606060408201526060808201528260808201528260a08201528260c0820152606060e08201528261010082015201528060018060a01b0360025460081c166040519384809263083d13a560e11b825260043560048301525afa918215611acb5781926119ba575b826040518091602082528051602083015260018060a01b0360208201511660408301526101206119a361196c61195660408501516101406060880152610160870190611d03565b6060850151868203601f19016080880152611d03565b608084015160a086015260a084015160c086015260c0840151151560e086015260e0840151601f1986830301610100870152611d03565b916101008101518285015201516101408301520390f35b9091503d8083833e6119cc8183611d92565b810190602081830312610552578051906001600160401b038211611206570190610140828203126105525760405192611a0484611d28565b82518452611a1460208401611e98565b602085015260408301516001600160401b0381116105565782611a38918501611eac565b604085015260608301516001600160401b0381116105565782611a5c918501611eac565b60608501526080830151608085015260a083015160a0850152611a8160c08401611ef1565b60c085015260e0830151906001600160401b03821161027857508291611aab916101209401611eac565b60e08401526101008101516101008401520151610120820152388061190f565b50604051903d90823e3d90fd5b503461027857602036600319011261027857611af2611c75565b60035460405163db8011ef60e01b81526001600160a01b03928316600482015291839183916024918391165afa90811561027b5782610b429392610b4657505060405191829182611ca6565b50606036600319011261027857806004356003811015610288576044359081151580920361028657611b6e611f5b565b6005546001600160a01b031691823b15610a455760648492604051948593849263051cb52560e11b845260048401526024356024840152604483015234905af1801561027b576102675750f35b50602036600319011261027857611bd0611f5b565b6003546001600160a01b031681813b15610278578060249260405193848092630166940360e21b8252600435600483015234905af18015611acb57611c125780f35b611c1b91611d92565b388180f35b9050346105565760203660031901126105565760043563ffffffff60e01b81168091036105525760209250637965db0b60e01b8114908115611c64575b5015158152f35b6301ffc9a760e01b14905038611c5d565b600435906001600160a01b0382168203611c8b57565b600080fd5b602435906001600160a01b0382168203611c8b57565b602060408183019282815284518094520192019060005b818110611cca5750505090565b8251845260209384019390920191600101611cbd565b60005b838110611cf35750506000910152565b8181015183820152602001611ce3565b90602091611d1c81518092818552858086019101611ce0565b601f01601f1916010190565b61014081019081106001600160401b03821117611d4457604052565b634e487b7160e01b600052604160045260246000fd5b61024081019081106001600160401b03821117611d4457604052565b61012081019081106001600160401b03821117611d4457604052565b90601f801991011681019081106001600160401b03821117611d4457604052565b6001600160401b038111611d4457601f01601f191660200190565b81601f82011215611c8b57803590611de582611db3565b92611df36040519485611d92565b82845260208383010111611c8b57816000926020809301838601378301015290565b602081830312611c8b578051906001600160401b038211611c8b57019080601f83011215611c8b578151916001600160401b038311611d44578260051b9060405193611e646020840186611d92565b8452602080850192820101928311611c8b57602001905b828210611e885750505090565b8151815260209182019101611e7b565b51906001600160a01b0382168203611c8b57565b81601f82011215611c8b578051611ec281611db3565b92611ed06040519485611d92565b81845260208284010111611c8b57611eee9160208085019101611ce0565b90565b51908115158203611c8b57565b91611f1b90611eee94928452606060208501526060840190611d03565b916040818403910152611d03565b6000198114611f385760010190565b634e487b7160e01b600052601160045260246000fd5b91908201809211611f3857565b60ff60025416611f6757565b63d93c066560e01b60005260046000fd5b3360009081527f7d7ffb7a348e1c6a02869081a26547b49160dd3df72d1d75a570eb9b698292ec602052604090205460ff1615611fb157565b63e2517d3f60e01b600052336004527fa49807205ce4d355092ef5a8a18f56e8913cf4a201fbe287825b095693c2177560245260446000fd5b60008181526020818152604080832033845290915290205460ff161561200d5750565b63e2517d3f60e01b6000523360045260245260446000fd5b6000818152602081815260408083206001600160a01b038616845290915290205460ff166120a9576000818152602081815260408083206001600160a01b0395909516808452949091528120805460ff19166001179055339291907f2f8788117e7eff1d82e926ec794901d17c78024a50270940304540a733656f0d9080a4600190565b5050600090565b6000818152602081815260408083206001600160a01b038616845290915290205460ff16156120a9576000818152602081815260408083206001600160a01b0395909516808452949091528120805460ff19169055339291907ff6391f5c32d9c69d2a47ea670b442974b53935d1edc7fd64eb21e047a839171b9080a4600190565b600754600854600954600a546040805194855260208501939093529183015260608201527fb071b37babbcc9e46c3c9012509aede8ac4050fbebf8bc121816082742802cd990608090a156fea2646970667358221220d5a58e761adf798fbe22817ac3a01b749e5a80eb0cebd9668a7e55f39942a80a64736f6c634300081c00332f8788117e7eff1d82e926ec794901d17c78024a50270940304540a733656f0d7d7ffb7a348e1c6a02869081a26547b49160dd3df72d1d75a570eb9b698292ecad3228b676f7d3cd4284a5443f17f1962b36e491b30a40b2405849e597ba5fb5",
  "linkReferences": {},
  "deployedLinkReferences": {}
}