{
  "_format": "hh-sol-artifact-1",
  "contractName": "SmartRent",
  "sourceName": "contracts/SmartRent.sol",
  "abi": [
    {
      "inputs": [],
      "stateMutability": "nonpayable",
      "type": "constructor"
    },
    {
      "inputs": [],
      "name": "AccessControlBadConfirmation",
      "type": "error"
    },
    {
      "inputs": [
        {
          "internalType": "address",
          "name": "account",
          "type": "address"
        },
        {
          "internalType": "bytes32",
          "name": "neededRole",
          "type": "bytes32"
        }
      ],
      "name": "AccessControlUnauthorizedAccount",
      "type": "error"
    },
    {
      "inputs": [],
      "name": "EnforcedPause",
      "type": "error"
    },
    {
      "inputs": [],
      "name": "ExpectedPause",
      "type": "error"
    },
    {
      "inputs": [],
      "name": "ReentrancyGuardReentrantCall",
      "type": "error"
    },
    {
      "anonymous": false,
      "inputs": [
        {
          "indexed": true,
          "internalType": "uint256",
          "name": "listingId",
          "type": "uint256"
        },
        {
          "indexed": true,
          "internalType": "address",
          "name": "landlord",
          "type": "address"
        },
        {
          "indexed": false,
          "internalType": "string",
          "name": "title",
          "type": "string"
        },
        {
          "indexed": false,
          "internalType": "uint256",
          "name": "pricePerDay",
          "type": "uint256"
        },
        {
          "indexed": false,
          "internalType": "uint256",
          "name": "deposit",
          "type": "uint256"
        },
        {
          "indexed": false,
          "internalType": "string",
          "name": "ipfsHash",
          "type": "string"
        }
      ],
      "name": "ListingCreated",
      "type": "event"
    },
    {
      "anonymous": false,
      "inputs": [
        {
          "indexed": false,
          "internalType": "address",
          "name": "account",
          "type": "address"
        }
      ],
      "name": "Paused",
      "type": "event"
    },
    {
      "anonymous": false,
      "inputs": [
        {
          "indexed": false,
          "internalType": "address",
          "name": "listingRegistry",
          "type": "address"
        },
        {
          "indexed": false,
          "internalType": "address",
          "name": "rentalEscrow",
          "type": "address"
        },
        {
          "indexed": false,
          "internalType": "address",
          "name": "arbitration",
          "type": "address"
        },
        {
          "indexed": false,
          "internalType": "address",
          "name": "subscriptionManager",
          "type": "address"
        },
        {
          "indexed": false,
          "internalType": "address",
          "name": "reputation",
          "type": "address"
        }
      ],
      "name": "PlatformInitialized",
      "type": "event"
    },
    {
      "anonymous": false,
      "inputs": [
        {
          "indexed": true,
          "internalType": "bytes32",
          "name": "role",
          "type": "bytes32"
        },
        {
          "indexed": true,
          "internalType": "bytes32",
          "name": "previousAdminRole",
          "type": "bytes32"
        },
        {
          "indexed": true,
          "internalType": "bytes32",
          "name": "newAdminRole",
          "type": "bytes32"
        }
      ],
      "name": "RoleAdminChanged",
      "type": "event"
    },
    {
      "anonymous": false,
      "inputs": [
        {
          "indexed": true,
          "internalType": "bytes32",
          "name": "role",
          "type": "bytes32"
        },
        {
          "indexed": true,
          "internalType": "address",
          "name": "account",
          "type": "address"
        },
        {
          "indexed": true,
          "internalType": "address",
          "name": "sender",
          "type": "address"
        }
      ],
      "name": "RoleGranted",
      "type": "event"
    },
    {
      "anonymous": false,
      "inputs": [
        {
          "indexed": true,
          "internalType": "bytes32",
          "name": "role",
          "type": "bytes32"
        },
        {
          "indexed": true,
          "internalType": "address",
          "name": "account",
          "type": "address"
        },
        {
          "indexed": true,
          "internalType": "address",
          "name": "sender",
          "type": "address"
        }
      ],
      "name": "RoleRevoked",
      "type": "event"
    },
    {
      "anonymous": false,
      "inputs": [
        {
          "indexed": false,
          "internalType": "uint256",
          "name": "totalListings",
          "type": "uint256"
        },
        {
          "indexed": false,
          "internalType": "uint256",
          "name": "totalRentals",
          "type": "uint256"
        },
        {
          "indexed": false,
          "internalType": "uint256",
          "name": "totalDisputes",
          "type": "uint256"
        },
        {
          "indexed": false,
          "internalType": "uint256",
          "name": "totalVolume",
          "type": "uint256"
        }
      ],
      "name": "StatisticsUpdated",
      "type": "event"
    },
    {
      "anonymous": false,
      "inputs": [
        {
          "indexed": false,
          "internalType": "address",
          "name": "account",
          "type": "address"
        }
      ],
      "name": "Unpaused",
      "type": "event"
    },
    {
      "inputs": [],
      "name": "ADMIN_ROLE",
      "outputs": [
        {
          "internalType": "bytes32",
          "name": "",
          "type": "bytes32"
        }
      ],
      "stateMutability": "view",
      "type": "function"
    },
    {
      "inputs": [],
      "name": "ARBITRATOR_ROLE",
      "outputs": [
        {
          "internalType": "bytes32",
          "name": "",
          "type": "bytes32"
        }
      ],
      "stateMutability": "view",
      "type": "function"
    },
    {
      "inputs": [],
      "name": "DEFAULT_ADMIN_ROLE",
      "outputs": [
        {
          "internalType": "bytes32",
          "name": "",
          "type": "bytes32"
        }
      ],
      "stateMutability": "view",
      "type": "function"
    },
    {
      "inputs": [
        {
          "internalType": "uint256",
          "name": "rentalId",
          "type": "uint256"
        }
      ],
      "name": "agreeReturn",
      "outputs": [],
      "stateMutability": "nonpayable",
      "type": "function"
    },
    {
      "inputs": [],
      "name": "arbitration",
      "outputs": [
        {
          "internalType": "contract Arbitration",
          "name": "",
          "type": "address"
        }
      ],
      "stateMutability": "view",
      "type": "function"
    },
    {
      "inputs": [
        {
          "internalType": "string",
          "name": "title",
          "type": "string"
        },
        {
          "internalType": "string",
          "name": "description",
          "type": "string"
        },
        {
          "internalType": "uint256",
          "name": "pricePerDay",
          "type": "uint256"
        },
        {
          "internalType": "uint256",
          "name": "deposit",
          "type": "uint256"
        },
        {
          "internalType": "string",
          "name": "ipfsHash",
          "type": "string"
        }
      ],
      "name": "createListing",
      "outputs": [],
      "stateMutability": "nonpayable",
      "type": "function"
    },
    {
      "inputs": [
        {
          "internalType": "uint256",
          "name": "listingId",
          "type": "uint256"
        },
        {
          "internalType": "address",
          "name": "landlord",
          "type": "address"
        },
        {
          "internalType": "uint256",
          "name": "deposit",
          "type": "uint256"
        },
        {
          "internalType": "uint256",
          "name": "totalRent",
          "type": "uint256"
        },
        {
          "internalType": "uint256",
          "name": "startDate",
          "type": "uint256"
        },
        {
          "internalType": "uint256",
          "name": "endDate",
          "type": "uint256"
        }
      ],
      "name": "createRental",
      "outputs": [],
      "stateMutability": "nonpayable",
      "type": "function"
    },
    {
      "inputs": [
        {
          "internalType": "address",
          "name": "reviewee",
          "type": "address"
        },
        {
          "internalType": "uint256",
          "name": "rating",
          "type": "uint256"
        },
        {
          "internalType": "string",
          "name": "reviewText",
          "type": "string"
        },
        {
          "internalType": "string",
          "name": "ipfsHash",
          "type": "string"
        },
        {
          "internalType": "uint256",
          "name": "rentalId",
          "type": "uint256"
        },
        {
          "internalType": "enum Reputation.ReviewType",
          "name": "reviewType",
          "type": "uint8"
        }
      ],
      "name": "createReview",
      "outputs": [],
      "stateMutability": "nonpayable",
      "type": "function"
    },
    {
      "inputs": [
        {
          "internalType": "enum SubscriptionManager.SubscriptionPlan",
          "name": "plan",
          "type": "uint8"
        },
        {
          "internalType": "uint256",
          "name": "duration",
          "type": "uint256"
        },
        {
          "internalType": "bool",
          "name": "autoRenew",
          "type": "bool"
        }
      ],
      "name": "createSubscription",
      "outputs": [],
      "stateMutability": "payable",
      "type": "function"
    },
    {
      "inputs": [],
      "name": "getContractBalance",
      "outputs": [
        {
          "internalType": "uint256",
          "name": "",
          "type": "uint256"
        }
      ],
      "stateMutability": "view",
      "type": "function"
    },
    {
      "inputs": [
        {
          "internalType": "uint256",
          "name": "listingId",
          "type": "uint256"
        }
      ],
      "name": "getListing",
      "outputs": [
        {
          "components": [
            {
              "internalType": "uint256",
              "name": "listingId",
              "type": "uint256"
            },
            {
              "internalType": "address",
              "name": "landlord",
              "type": "address"
            },
            {
              "internalType": "string",
              "name": "title",
              "type": "string"
            },
            {
              "internalType": "string",
              "name": "description",
              "type": "string"
            },
            {
              "internalType": "uint256",
              "name": "pricePerDay",
              "type": "uint256"
            },
            {
              "internalType": "uint256",
              "name": "deposit",
              "type": "uint256"
            },
            {
              "internalType": "bool",
              "name": "isActive",
              "type": "bool"
            },
            {
              "internalType": "string",
              "name": "ipfsHash",
              "type": "string"
            },
            {
              "internalType": "uint256",
              "name": "createdAt",
              "type": "uint256"
            },
            {
              "internalType": "uint256",
              "name": "updatedAt",
              "type": "uint256"
            }
          ],
          "internalType": "struct ListingRegistry.PropertyListing",
          "name": "",
          "type": "tuple"
        }
      ],
      "stateMutability": "view",
      "type": "function"
    },
    {
      "inputs": [],
      "name": "getPlatformStatistics",
      "outputs": [
        {
          "internalType": "uint256",
          "name": "",
          "type": "uint256"
        },
        {
          "internalType": "uint256",
          "name": "",
          "type": "uint256"
        },
        {
          "internalType": "uint256",
          "name": "",
          "type": "uint256"
        },
        {
          "internalType": "uint256",
          "name": "",
          "type": "uint256"
        }
      ],
      "stateMutability": "view",
      "type": "function"
    },
    {
      "inputs": [
        {
          "internalType": "uint256",
          "name": "rentalId",
          "type": "uint256"
        }
      ],
      "name": "getRental",
      "outputs": [
        {
          "components": [
            {
              "internalType": "uint256",
              "name": "rentalId",
              "type": "uint256"
            },
            {
              "internalType": "uint256",
              "name": "listingId",
              "type": "uint256"
            },
            {
              "internalType": "address",
              "name": "tenant",
              "type": "address"
            },
            {
              "internalType": "address",
              "name": "landlord",
              "type": "address"
            },
            {
              "internalType": "uint256",
              "name": "deposit",
              "type": "uint256"
            },
            {
              "internalType": "uint256",
              "name": "totalRent",
              "type": "uint256"
            },
            {
              "internalType": "uint256",
              "name": "startDate",
              "type": "uint256"
            },
            {
              "internalType": "uint256",
              "name": "endDate",
              "type": "uint256"
            },
            {
              "internalType": "enum RentalEscrow.RentalStatus",
              "name": "status",
              "type": "uint8"
            },
            {
              "internalType": "uint256",
              "name": "createdAt",
              "type": "uint256"
            },
            {
              "internalType": "uint256",
              "name": "updatedAt",
              "type": "uint256"
            },
            {
              "internalType": "string",
              "name": "contractIpfsHash",
              "type": "string"
            },
            {
              "internalType": "bool",
              "name": "tenantSigned",
              "type": "bool"
            },
            {
              "internalType": "bool",
              "name": "landlordSigned",
              "type": "bool"
            },
            {
              "internalType": "address",
              "name": "arbitrator",
              "type": "address"
            },
            {
              "internalType": "uint256",
              "name": "disputeOpenedAt",
              "type": "uint256"
            },
            {
              "internalType": "string",
              "name": "disputeReason",
              "type": "string"
            },
            {
              "internalType": "string",
              "name": "disputeIpfsHash",
              "type": "string"
            }
          ],
          "internalType": "struct RentalEscrow.Rental",
          "name": "",
          "type": "tuple"
        }
      ],
      "stateMutability": "view",
      "type": "function"
    },
    {
      "inputs": [
        {
          "internalType": "bytes32",
          "name": "role",
          "type": "bytes32"
        }
      ],
      "name": "getRoleAdmin",
      "outputs": [
        {
          "internalType": "bytes32",
          "name": "",
          "type": "bytes32"
        }
      ],
      "stateMutability": "view",
      "type": "function"
    },
    {
      "inputs": [],
      "name": "getTotalListings",
      "outputs": [
        {
          "internalType": "uint256",
          "name": "",
          "type": "uint256"
        }
      ],
      "stateMutability": "view",
      "type": "function"
    },
    {
      "inputs": [
        {
          "internalType": "address",
          "name": "user",
          "type": "address"
        }
      ],
      "name": "getUserListingHistory",
      "outputs": [
        {
          "internalType": "uint256[]",
          "name": "",
          "type": "uint256[]"
        }
      ],
      "stateMutability": "view",
      "type": "function"
    },
    {
      "inputs": [
        {
          "internalType": "address",
          "name": "user",
          "type": "address"
        }
      ],
      "name": "getUserRentalHistory",
      "outputs": [
        {
          "internalType": "uint256[]",
          "name": "",
          "type": "uint256[]"
        }
      ],
      "stateMutability": "view",
      "type": "function"
    },
    {
      "inputs": [
        {
          "internalType": "address",
          "name": "user",
          "type": "address"
        }
      ],
      "name": "getUserReputation",
      "outputs": [
        {
          "components": [
            {
              "internalType": "address",
              "name": "user",
              "type": "address"
            },
            {
              "internalType": "uint256",
              "name": "totalReviews",
              "type": "uint256"
            },
            {
              "internalType": "uint256",
              "name": "totalRatingSum",
              "type": "uint256"
            },
            {
              "internalType": "uint256",
              "name": "reputationScore",
              "type": "uint256"
            },
            {
              "internalType": "uint256",
              "name": "completedRentals",
              "type": "uint256"
            },
            {
              "internalType": "uint256",
              "name": "cancelledRentals",
              "type": "uint256"
            },
            {
              "internalType": "uint256",
              "name": "disputeCount",
              "type": "uint256"
            },
            {
              "internalType": "bool",
              "name": "isVerified",
              "type": "bool"
            },
            {
              "internalType": "uint256",
              "name": "lastUpdated",
              "type": "uint256"
            }
          ],
          "internalType": "struct Reputation.UserReputation",
          "name": "",
          "type": "tuple"
        }
      ],
      "stateMutability": "view",
      "type": "function"
    },
    {
      "inputs": [
        {
          "internalType": "bytes32",
          "name": "role",
          "type": "bytes32"
        },
        {
          "internalType": "address",
          "name": "account",
          "type": "address"
        }
      ],
      "name": "grantRole",
      "outputs": [],
      "stateMutability": "nonpayable",
      "type": "function"
    },
    {
      "inputs": [
        {
          "internalType": "address",
          "name": "user",
          "type": "address"
        },
        {
          "internalType": "uint256",
          "name": "feature",
          "type": "uint256"
        }
      ],
      "name": "hasPremiumFeature",
      "outputs": [
        {
          "internalType": "bool",
          "name": "",
          "type": "bool"
        }
      ],
      "stateMutability": "view",
      "type": "function"
    },
    {
      "inputs": [
        {
          "internalType": "bytes32",
          "name": "role",
          "type": "bytes32"
        },
        {
          "internalType": "address",
          "name": "account",
          "type": "address"
        }
      ],
      "name": "hasRole",
      "outputs": [
        {
          "internalType": "bool",
          "name": "",
          "type": "bool"
        }
      ],
      "stateMutability": "view",
      "type": "function"
    },
    {
      "inputs": [
        {
          "internalType": "address",
          "name": "_listingRegistry",
          "type": "address"
        },
        {
          "internalType": "address payable",
          "name": "_rentalEscrow",
          "type": "address"
        },
        {
          "internalType": "address",
          "name": "_arbitration",
          "type": "address"
        },
        {
          "internalType": "address payable",
          "name": "_subscriptionManager",
          "type": "address"
        },
        {
          "internalType": "address",
          "name": "_reputation",
          "type": "address"
        }
      ],
      "name": "initializePlatform",
      "outputs": [],
      "stateMutability": "nonpayable",
      "type": "function"
    },
    {
      "inputs": [],
      "name": "listingRegistry",
      "outputs": [
        {
          "internalType": "contract ListingRegistry",
          "name": "",
          "type": "address"
        }
      ],
      "stateMutability": "view",
      "type": "function"
    },
    {
      "inputs": [
        {
          "internalType": "uint256",
          "name": "rentalId",
          "type": "uint256"
        }
      ],
      "name": "makeDeposit",
      "outputs": [],
      "stateMutability": "payable",
      "type": "function"
    },
    {
      "inputs": [
        {
          "internalType": "uint256",
          "name": "rentalId",
          "type": "uint256"
        },
        {
          "internalType": "address",
          "name": "token",
          "type": "address"
        }
      ],
      "name": "makeDepositWithToken",
      "outputs": [],
      "stateMutability": "nonpayable",
      "type": "function"
    },
    {
      "inputs": [
        {
          "internalType": "uint256",
          "name": "rentalId",
          "type": "uint256"
        },
        {
          "internalType": "string",
          "name": "reason",
          "type": "string"
        },
        {
          "internalType": "string",
          "name": "disputeIpfsHash",
          "type": "string"
        }
      ],
      "name": "openDispute",
      "outputs": [],
      "stateMutability": "nonpayable",
      "type": "function"
    },
    {
      "inputs": [],
      "name": "pausePlatform",
      "outputs": [],
      "stateMutability": "nonpayable",
      "type": "function"
    },
    {
      "inputs": [],
      "name": "paused",
      "outputs": [
        {
          "internalType": "bool",
          "name": "",
          "type": "bool"
        }
      ],
      "stateMutability": "view",
      "type": "function"
    },
    {
      "inputs": [
        {
          "internalType": "bytes32",
          "name": "role",
          "type": "bytes32"
        },
        {
          "internalType": "address",
          "name": "callerConfirmation",
          "type": "address"
        }
      ],
      "name": "renounceRole",
      "outputs": [],
      "stateMutability": "nonpayable",
      "type": "function"
    },
    {
      "inputs": [],
      "name": "rentalEscrow",
      "outputs": [
        {
          "internalType": "contract RentalEscrow",
          "name": "",
          "type": "address"
        }
      ],
      "stateMutability": "view",
      "type": "function"
    },
    {
      "inputs": [],
      "name": "reputation",
      "outputs": [
        {
          "internalType": "contract Reputation",
          "name": "",
          "type": "address"
        }
      ],
      "stateMutability": "view",
      "type": "function"
    },
    {
      "inputs": [
        {
          "internalType": "bytes32",
          "name": "role",
          "type": "bytes32"
        },
        {
          "internalType": "address",
          "name": "account",
          "type": "address"
        }
      ],
      "name": "revokeRole",
      "outputs": [],
      "stateMutability": "nonpayable",
      "type": "function"
    },
    {
      "inputs": [
        {
          "internalType": "uint256",
          "name": "rentalId",
          "type": "uint256"
        },
        {
          "internalType": "string",
          "name": "contractIpfsHash",
          "type": "string"
        }
      ],
      "name": "signContract",
      "outputs": [],
      "stateMutability": "nonpayable",
      "type": "function"
    },
    {
      "inputs": [],
      "name": "subscriptionManager",
      "outputs": [
        {
          "internalType": "contract SubscriptionManager",
          "name": "",
          "type": "address"
        }
      ],
      "stateMutability": "view",
      "type": "function"
    },
    {
      "inputs": [
        {
          "internalType": "bytes4",
          "name": "interfaceId",
          "type": "bytes4"
        }
      ],
      "name": "supportsInterface",
      "outputs": [
        {
          "internalType": "bool",
          "name": "",
          "type": "bool"
        }
      ],
      "stateMutability": "view",
      "type": "function"
    },
    {
      "inputs": [],
      "name": "totalDisputes",
      "outputs": [
        {
          "internalType": "uint256",
          "name": "",
          "type": "uint256"
        }
      ],
      "stateMutability": "view",
      "type": "function"
    },
    {
      "inputs": [],
      "name": "totalListings",
      "outputs": [
        {
          "internalType": "uint256",
          "name": "",
          "type": "uint256"
        }
      ],
      "stateMutability": "view",
      "type": "function"
    },
    {
      "inputs": [],
      "name": "totalRentals",
      "outputs": [
        {
          "internalType": "uint256",
          "name": "",
          "type": "uint256"
        }
      ],
      "stateMutability": "view",
      "type": "function"
    },
    {
      "inputs": [],
      "name": "totalVolume",
      "outputs": [
        {
          "internalType": "uint256",
          "name": "",
          "type": "uint256"
        }
      ],
      "stateMutability": "view",
      "type": "function"
    },
    {
      "inputs": [],
      "name": "unpausePlatform",
      "outputs": [],
      "stateMutability": "nonpayable",
      "type": "function"
    },
    {
      "inputs": [
        {
          "internalType": "uint256",
          "name": "amount",
          "type": "uint256"
        }
      ],
      "name": "withdrawFees",
      "outputs": [],
      "stateMutability": "nonpayable",
      "type": "function"
    },
    {
      "stateMutability": "payable",
      "type": "receive"
    }
  ],
  "bytecode": "0x608060405234610030576001805561001633610035565b50610020336100b1565b50604051612248908161014a8239f35b600080fd5b6001600160a01b03811660009081526000805160206123d2833981519152602052604090205460ff166100ab576001600160a01b031660008181526000805160206123d283398151915260205260408120805460ff191660011790553391906000805160206123928339815191528180a4600190565b50600090565b6001600160a01b03811660009081526000805160206123b2833981519152602052604090205460ff166100ab576001600160a01b031660008181526000805160206123b283398151915260205260408120805460ff191660011790553391907fa49807205ce4d355092ef5a8a18f56e8913cf4a201fbe287825b095693c21775906000805160206123928339815191529080a460019056fe608080604052600436101561001d575b50361561001b57600080fd5b005b600090813560e01c90816301ffc9a714611cb457508063059a500c14611c4f5780630a396a4a14611bd25780630fc376a714611b6c578063107a274a1461190e5780631a9ba7eb1461178b578063248a9ca31461175557806324df1f70146117015780632f2ff15d146116c057806336568abe1461167b57806349041359146113c75780635603e8601461138d5780635c975abb1461136a5780635e318e07146112e95780635ebf3e9b146112bc5780635f81a57c1461129e578063652bd29e14610f115780636b78c29b14610d9b5780636f9fb98a14610d7f57806375b238fc14610d445780637d04470a14610c4857806391d1485414610bfd5780639492e30214610b695780639b73235014610b405780639cea078714610b05578063a217fddf14610ae9578063a4e18cd7146109b4578063ad36d666146108ff578063baccbfdb14610757578063bd55cc3a1461067c578063bf158fd214610653578063c52164c61461062a578063c5e4ccc41461060c578063c78b616c146105ee578063cc2ee0fc1461042b578063d547741f146103e1578063dd4b22d1146103c3578063e970a1201461039a578063fbf30c351461030d578063fc78aef1146102965763fea14f5e0361000f573461028357604036600319011261028357806024356001600160401b0381116102935761021a903690600401611e62565b6003546001600160a01b0316803b15610291576102618392918392604051948580948193637f50a7af60e11b83526004356004840152604060248401526044830190611d97565b03925af18015610286576102725750f35b8161027c91611e26565b6102835780f35b80fd5b6040513d84823e3d90fd5b505b50fd5b503461028357604036600319011261028357806102b1611d24565b6102b9611fef565b6003546001600160a01b031690813b156102915760405163fc78aef160e01b815260048035908201526001600160a01b0390911660248201529082908290604490829084905af18015610286576102725750f35b503461028357806003193601126102835760025460405163fbf30c3560e01b8152906020908290600490829060081c6001600160a01b03165afa908115610286578291610360575b602082604051908152f35b90506020813d602011610392575b8161037b60209383611e26565b8101031261038e57602091505138610355565b5080fd5b3d915061036e565b50346102835780600319360112610283576003546040516001600160a01b039091168152602090f35b50346102835780600319360112610283576020600854604051908152f35b503461028357604036600319011261028357610427600435610401611d24565b9061042261041d82600052600060205260016040600020015490565b61207e565b612144565b5080f35b50346102835760a0366003190112610283576004356001600160401b03811161038e5761045c903690600401611e62565b6024356001600160401b0381116105ea5761047b903690600401611e62565b9060643590604435846084356001600160401b03811161038e576104a3903690600401611e62565b946104ac611fef565b60025460081c6001600160a01b0316803b156105ea5761050c839161052a9383604051809681958294633158e5f360e01b845233600485015260c060248501526104fa8d60c4860190611d97565b84810360031901604486015290611d97565b8a60648401528c60848401526003198382030160a48401528d611d97565b03925af18015610286576105d1575b5050610546600754611fbd565b92836007556105536121c6565b60001984019384116105bd57916105b761059d927f4bac60dc51a3e92083b5ca70985d572a37b735058b5e86413c4f01c48b3339c594604051948594608086526080860190611d97565b916020850152604084015282810360608401523396611d97565b0390a380f35b634e487b7160e01b86526011600452602486fd5b816105db91611e26565b6105e6578438610539565b8480fd5b8280fd5b50346102835780600319360112610283576020600754604051908152f35b50346102835780600319360112610283576020600954604051908152f35b50346102835780600319360112610283576006546040516001600160a01b039091168152602090f35b50346102835780600319360112610283576005546040516001600160a01b039091168152602090f35b50346102835760c036600319011261028357610696611d24565b60443582606435926106a6611fef565b6003546001600160a01b031690813b156105ea57829160c483926040519485938492635eaae61d60e11b8452600435600485015260018060a01b03166024840152886044840152896064840152608435608484015260a43560a48401525af1801561028657610742575b5061073461072c8484610724600854611fbd565b600855611fe2565b600a54611fe2565b600a5561073f6121c6565b80f35b8161074c91611e26565b6105ea578238610710565b503461028357602036600319011261028357610771611d09565b8161010060405161078181611e0a565b8281528260208201528260408201528260608201528260808201528260a08201528260c08201528260e0820152015261012060018060a01b03600654169160246040518094819363baccbfdb60e01b835260018060a01b031660048301525afa908115610286578291610858575b610120826101006040519160018060a01b0381511683526020810151602084015260408101516040840152606081015160608401526080810151608084015260a081015160a084015260c081015160c084015260e0810151151560e08401520151610100820152f35b9050610120813d82116108f7575b816108746101209383611e26565b8101031261038e5761012091506101006040519161089183611e0a565b61089a81611f2c565b83526020810151602084015260408101516040840152606081015160608401526080810151608084015260a081015160a084015260c081015160c08401526108e460e08201611f85565b60e08401520151610100820152386107ef565b3d9150610866565b503461028357604036600319011261028357610919611d09565b600554604051638043834960e01b81526001600160a01b0392831660048201526024803590820152929160209184916044918391165afa9081156109a857809161096b575b6020826040519015158152f35b90506020823d6020116109a0575b8161098660209383611e26565b81010312610283575061099a602091611f85565b3861095e565b3d9150610979565b604051903d90823e3d90fd5b503461028357606036600319011261028357806004356024356001600160401b038111610291576109e9903690600401611e62565b906044356001600160401b038111610ad957610a09903690600401611e62565b6003546001600160a01b0316803b156105e65784604051809263a4e18cd760e01b8252818381610a3e888b8b60048501611f92565b03925af1908115610ade578591610ac4575b50506004546001600160a01b0316803b156105e657610a8993858094604051968795869485936338806e3160e11b855260048501611f92565b03925af1801561028657610aaf575b50610aa4600954611fbd565b60095561073f6121c6565b81610ab991611e26565b610283578038610a98565b81610ace91611e26565b610ad9578338610a50565b505050fd5b6040513d87823e3d90fd5b5034610283578060031936011261028357602090604051908152f35b503461028357806003193601126102835760206040517f16ceee8289685dd2a02b9c8ae81d2df373176ce53519e6284e2a2950d6546ffa8152f35b50346102835780600319360112610283576004546040516001600160a01b039091168152602090f35b503461028357602036600319011261028357610b83611d09565b600254604051636185fa0f60e01b81526001600160a01b0392831660048201529183918391602491839160089190911c165afa9081156102865782610bd69392610bda575b505060405191829182611d3a565b0390f35b610bf692503d8091833e610bee8183611e26565b810190611ea9565b3880610bc8565b5034610283576040366003190112610283576040610c19611d24565b91600435815280602052209060018060a01b0316600052602052602060ff604060002054166040519015158152f35b50346102835760c03660031901126102835780610c63611d09565b6044356001600160401b03811161029157610c82903690600401611e62565b6064356001600160401b038111610ad957610ca1903690600401611e62565b9160a4359160028310156105e657610cb7611fef565b6006546001600160a01b031690813b15610d405785610d0f938195610d2160405198899788968795633e82238560e11b875260018060a01b03166004870152602435602487015260c0604487015260c4860190611d97565b84810360031901606486015290611d97565b90608435608484015260a483015203925af18015610286576102725750f35b8580fd5b503461028357806003193601126102835760206040517fa49807205ce4d355092ef5a8a18f56e8913cf4a201fbe287825b095693c217758152f35b5034610283578060031936011261028357602047604051908152f35b5034610283578060031936011261028357610db461200c565b610dbc611fef565b600160ff1960025416176002557f62e78cea01bee320cd4e420270b5ea74000d11b0c9f74754ebdbfc544b05a2586020604051338152a160035481906001600160a01b0316803b1561029357818091600460405180948193638456cb5960e01b83525af1801561028657610efc575b506004546001600160a01b0316803b1561029357818091600460405180948193638456cb5960e01b83525af1801561028657610ee7575b506005546001600160a01b0316803b1561029357818091600460405180948193638456cb5960e01b83525af1801561028657610ed2575b506006546001600160a01b0316803b1561029357818091600460405180948193638456cb5960e01b83525af18015610286576102725750f35b81610edc91611e26565b610283578038610e99565b81610ef191611e26565b610283578038610e62565b81610f0691611e26565b610283578038610e2b565b5034610283576020366003190112610283576060610220604051610f3481611dee565b83815283602082015283604082015283838201528360808201528360a08201528360c08201528360e08201528361010082015283610120820152836101408201528261016082015283610180820152836101a0820152836101c0820152836101e082015282610200820152015260248160018060a01b036003541660405192838092633295e94f60e11b825260043560048301525afa908115610286578291611112575b506040519160208352815160208401526020820151604084015260018060a01b03604083015116606084015260018060a01b036060830151166080840152608082015160a084015260a082015160c084015260c082015160e084015260e08201516101008401526101008201519060058210156110fe57508291610bd6916101208401526101208101516101408401526101408101516101608401526102206110e9611097610160840151610240610180880152610260870190611d97565b61018084015115156101a08701526101a084015115156101c087015260018060a01b036101c0850151166101e08701526101e0840151610200870152610200840151601f198783030184880152611d97565b910151838203601f1901610240850152611d97565b634e487b7160e01b81526021600452602490fd5b90503d8083833e6111238183611e26565b8101906020818303126105ea578051906001600160401b03821161129a5701610240818303126105ea576040519161115a83611dee565b815183526020820151602084015261117460408301611f2c565b604084015261118560608301611f2c565b60608401526080820151608084015260a082015160a084015260c082015160c084015260e082015160e084015261010082015160058110156105e6576101008401526101208201516101208401526101408201516101408401526101608201516001600160401b0381116105e657816111ff918401611f40565b6101608401526112126101808301611f85565b6101808401526112256101a08301611f85565b6101a08401526112386101c08301611f2c565b6101c08401526101e08201516101e08401526102008201516001600160401b0381116105e6578161126a918401611f40565b6102008401526102208201516001600160401b0381116105e65761128e9201611f40565b61022082015238610fd8565b8380fd5b50346102835780600319360112610283576020600a54604051908152f35b503461028357806003193601126102835760025460405160089190911c6001600160a01b03168152602090f35b50346102835760203660031901126102835760043561130661200c565b47811161132e578180808093818115611325575b3390f1156109a85780f35b506108fc61131a565b60405162461bcd60e51b8152602060048201526014602482015273496e73756666696369656e742062616c616e636560601b6044820152606490fd5b5034610283578060031936011261028357602060ff600254166040519015158152f35b5034610283578060031936011261028357600754600854600954600a54604080519485526020850193909352918301526060820152608090f35b50346102835760a0366003190112610283576113e1611d09565b6113e9611d24565b6044356001600160a01b03811692919083900361129a576064356001600160a01b038116908190036105e6576084356001600160a01b0381169190829003610d405761143361200c565b6001600160a01b038416928315611637576001600160a01b03169485156115f25780156115ad57811561155c578215611517577f9328b8a339026c96335157e9360553f8b14d24d378543f549abc3f21e9b92c379560a09560025490610100600160a81b039060081b1690610100600160a81b03191617600255806001600160601b03871b6003541617600355816001600160601b03871b6004541617600455826001600160601b03871b6005541617600555836001600160601b03871b60065416176006556040519485526020850152604084015260608301526080820152a180f35b60405162461bcd60e51b815260206004820152601a60248201527f496e76616c69642072657075746174696f6e20616464726573730000000000006044820152606490fd5b60405162461bcd60e51b8152602060048201526024808201527f496e76616c696420737562736372697074696f6e206d616e61676572206164646044820152637265737360e01b6064820152608490fd5b60405162461bcd60e51b815260206004820152601b60248201527f496e76616c6964206172626974726174696f6e206164647265737300000000006044820152606490fd5b60405162461bcd60e51b815260206004820152601d60248201527f496e76616c69642072656e74616c20657363726f7720616464726573730000006044820152606490fd5b606460405162461bcd60e51b815260206004820152602060248201527f496e76616c6964206c697374696e6720726567697374727920616464726573736044820152fd5b503461028357604036600319011261028357611695611d24565b336001600160a01b038216036116b15761042790600435612144565b63334bd91960e11b8252600482fd5b5034610283576040366003190112610283576104276004356116e0611d24565b906116fc61041d82600052600060205260016040600020015490565b6120b9565b50346102835760203660031901126102835760035481906001600160a01b0316803b156102935781809160246040518094819363024df1f760e41b835260043560048401525af18015610286576102725750f35b5034610283576020366003190112610283576020611783600435600052600060205260016040600020015490565b604051908152f35b50346102835780600319360112610283576117a461200c565b60025460ff8116156118ff5760ff19166002557f5db9ee0a495bf2e6ff9c91a7834c1ba4fdd244a5e8aa4e537bd38aeae4b073aa6020604051338152a160035481906001600160a01b0316803b1561029357818091600460405180948193631fa5d41d60e11b83525af18015610286576118ea575b506004546001600160a01b0316803b1561029357818091600460405180948193631fa5d41d60e11b83525af18015610286576118d5575b506005546001600160a01b0316803b1561029357818091600460405180948193631fa5d41d60e11b83525af18015610286576118c0575b506006546001600160a01b0316803b1561029357818091600460405180948193631fa5d41d60e11b83525af18015610286576102725750f35b816118ca91611e26565b610283578038611887565b816118df91611e26565b610283578038611850565b816118f491611e26565b610283578038611819565b638dfc202b60e01b8252600482fd5b5034610283576020366003190112610283578060249161012060405161193381611dbc565b828152826020820152606060408201526060808201528260808201528260a08201528260c0820152606060e08201528261010082015201528060018060a01b0360025460081c166040519384809263083d13a560e11b825260043560048301525afa918215611b5f578192611a4e575b826040518091602082528051602083015260018060a01b036020820151166040830152610120611a37611a006119ea60408501516101406060880152610160870190611d97565b6060850151868203601f19016080880152611d97565b608084015160a086015260a084015160c086015260c0840151151560e086015260e0840151601f1986830301610100870152611d97565b916101008101518285015201516101408301520390f35b9091503d8083833e611a608183611e26565b8101906020818303126105ea578051906001600160401b03821161129a570190610140828203126105ea5760405192611a9884611dbc565b82518452611aa860208401611f2c565b602085015260408301516001600160401b03811161038e5782611acc918501611f40565b604085015260608301516001600160401b03811161038e5782611af0918501611f40565b60608501526080830151608085015260a083015160a0850152611b1560c08401611f85565b60c085015260e0830151906001600160401b03821161028357508291611b3f916101209401611f40565b60e0840152610100810151610100840152015161012082015238806119a3565b50604051903d90823e3d90fd5b503461028357602036600319011261028357611b86611d09565b60035460405163db8011ef60e01b81526001600160a01b03928316600482015291839183916024918391165afa9081156102865782610bd69392610bda57505060405191829182611d3a565b50606036600319011261028357806004356003811015610293576044359081151580920361029157611c02611fef565b6005546001600160a01b031691823b15610ad95760648492604051948593849263051cb52560e11b845260048401526024356024840152604483015234905af18015610286576102725750f35b50602036600319011261028357611c64611fef565b6003546001600160a01b031681813b15610283578060249260405193848092630166940360e21b8252600435600483015234905af18015611b5f57611ca65780f35b611caf91611e26565b388180f35b90503461038e57602036600319011261038e5760043563ffffffff60e01b81168091036105ea5760209250637965db0b60e01b8114908115611cf8575b5015158152f35b6301ffc9a760e01b14905038611cf1565b600435906001600160a01b0382168203611d1f57565b600080fd5b602435906001600160a01b0382168203611d1f57565b602060408183019282815284518094520192019060005b818110611d5e5750505090565b8251845260209384019390920191600101611d51565b60005b838110611d875750506000910152565b8181015183820152602001611d77565b90602091611db081518092818552858086019101611d74565b601f01601f1916010190565b61014081019081106001600160401b03821117611dd857604052565b634e487b7160e01b600052604160045260246000fd5b61024081019081106001600160401b03821117611dd857604052565b61012081019081106001600160401b03821117611dd857604052565b90601f801991011681019081106001600160401b03821117611dd857604052565b6001600160401b038111611dd857601f01601f191660200190565b81601f82011215611d1f57803590611e7982611e47565b92611e876040519485611e26565b82845260208383010111611d1f57816000926020809301838601378301015290565b602081830312611d1f578051906001600160401b038211611d1f57019080601f83011215611d1f578151916001600160401b038311611dd8578260051b9060405193611ef86020840186611e26565b8452602080850192820101928311611d1f57602001905b828210611f1c5750505090565b8151815260209182019101611f0f565b51906001600160a01b0382168203611d1f57565b81601f82011215611d1f578051611f5681611e47565b92611f646040519485611e26565b81845260208284010111611d1f57611f829160208085019101611d74565b90565b51908115158203611d1f57565b91611faf90611f8294928452606060208501526060840190611d97565b916040818403910152611d97565b6000198114611fcc5760010190565b634e487b7160e01b600052601160045260246000fd5b91908201809211611fcc57565b60ff60025416611ffb57565b63d93c066560e01b60005260046000fd5b3360009081527f7d7ffb7a348e1c6a02869081a26547b49160dd3df72d1d75a570eb9b698292ec602052604090205460ff161561204557565b63e2517d3f60e01b600052336004527fa49807205ce4d355092ef5a8a18f56e8913cf4a201fbe287825b095693c2177560245260446000fd5b60008181526020818152604080832033845290915290205460ff16156120a15750565b63e2517d3f60e01b6000523360045260245260446000fd5b6000818152602081815260408083206001600160a01b038616845290915290205460ff1661213d576000818152602081815260408083206001600160a01b0395909516808452949091528120805460ff19166001179055339291907f2f8788117e7eff1d82e926ec794901d17c78024a50270940304540a733656f0d9080a4600190565b5050600090565b6000818152602081815260408083206001600160a01b038616845290915290205460ff161561213d576000818152602081815260408083206001600160a01b0395909516808452949091528120805460ff19169055339291907ff6391f5c32d9c69d2a47ea670b442974b53935d1edc7fd64eb21e047a839171b9080a4600190565b600754600854600954600a546040805194855260208501939093529183015260608201527fb071b37babbcc9e46c3c9012509aede8ac4050fbebf8bc121816082742802cd990608090a156fea26469706673582212208331c95a3e022fce3ef214c9c1362a07a7f57bf717b7adaea99bdae03111479f64736f6c634300081c00332f8788117e7eff1d82e926ec794901d17c78024a50270940304540a733656f0d7d7ffb7a348e1c6a02869081a26547b49160dd3df72d1d75a570eb9b698292ecad3228b676f7d3cd4284a5443f17f1962b36e491b30a40b2405849e597ba5fb5",
  "linkReferences": {},
  "deployedLinkReferences": {}
}