{
  "_format": "hh-sol-artifact-1",
  "contractName": "Reputation",
  "sourceName": "contracts/Reputation.sol",
  "abi": [
    {
      "inputs": [],
      "stateMutability": "nonpayable",
      "type": "constructor"
    },
    {
      "inputs": [],
      "name": "AccessControlBadConfirmation",
      "type": "error"
    },
    {
      "inputs": [
        {
          "internalType": "address",
          "name": "account",
          "type": "address"
        },
        {
          "internalType": "bytes32",
          "name": "neededRole",
          "type": "bytes32"
        }
      ],
      "name": "AccessControlUnauthorizedAccount",
      "type": "error"
    },
    {
      "inputs": [],
      "name": "EnforcedPause",
      "type": "error"
    },
    {
      "inputs": [],
      "name": "ExpectedPause",
      "type": "error"
    },
    {
      "inputs": [],
      "name": "ReentrancyGuardReentrantCall",
      "type": "error"
    },
    {
      "anonymous": false,
      "inputs": [
        {
          "indexed": false,
          "internalType": "address",
          "name": "account",
          "type": "address"
        }
      ],
      "name": "Paused",
      "type": "event"
    },
    {
      "anonymous": false,
      "inputs": [
        {
          "indexed": true,
          "internalType": "address",
          "name": "user",
          "type": "address"
        },
        {
          "indexed": false,
          "internalType": "uint256",
          "name": "newReputationScore",
          "type": "uint256"
        },
        {
          "indexed": false,
          "internalType": "uint256",
          "name": "totalReviews",
          "type": "uint256"
        }
      ],
      "name": "ReputationUpdated",
      "type": "event"
    },
    {
      "anonymous": false,
      "inputs": [
        {
          "indexed": true,
          "internalType": "uint256",
          "name": "reviewId",
          "type": "uint256"
        },
        {
          "indexed": true,
          "internalType": "address",
          "name": "reviewer",
          "type": "address"
        },
        {
          "indexed": true,
          "internalType": "address",
          "name": "reviewee",
          "type": "address"
        },
        {
          "indexed": false,
          "internalType": "uint256",
          "name": "rating",
          "type": "uint256"
        },
        {
          "indexed": false,
          "internalType": "string",
          "name": "review",
          "type": "string"
        },
        {
          "indexed": false,
          "internalType": "string",
          "name": "ipfsHash",
          "type": "string"
        },
        {
          "indexed": false,
          "internalType": "uint256",
          "name": "rentalId",
          "type": "uint256"
        }
      ],
      "name": "ReviewCreated",
      "type": "event"
    },
    {
      "anonymous": false,
      "inputs": [
        {
          "indexed": true,
          "internalType": "uint256",
          "name": "reviewId",
          "type": "uint256"
        },
        {
          "indexed": true,
          "internalType": "address",
          "name": "reviewer",
          "type": "address"
        },
        {
          "indexed": true,
          "internalType": "address",
          "name": "reviewee",
          "type": "address"
        }
      ],
      "name": "ReviewDeleted",
      "type": "event"
    },
    {
      "anonymous": false,
      "inputs": [
        {
          "indexed": true,
          "internalType": "uint256",
          "name": "reviewId",
          "type": "uint256"
        },
        {
          "indexed": false,
          "internalType": "uint256",
          "name": "newRating",
          "type": "uint256"
        },
        {
          "indexed": false,
          "internalType": "string",
          "name": "newReview",
          "type": "string"
        }
      ],
      "name": "ReviewUpdated",
      "type": "event"
    },
    {
      "anonymous": false,
      "inputs": [
        {
          "indexed": true,
          "internalType": "bytes32",
          "name": "role",
          "type": "bytes32"
        },
        {
          "indexed": true,
          "internalType": "bytes32",
          "name": "previousAdminRole",
          "type": "bytes32"
        },
        {
          "indexed": true,
          "internalType": "bytes32",
          "name": "newAdminRole",
          "type": "bytes32"
        }
      ],
      "name": "RoleAdminChanged",
      "type": "event"
    },
    {
      "anonymous": false,
      "inputs": [
        {
          "indexed": true,
          "internalType": "bytes32",
          "name": "role",
          "type": "bytes32"
        },
        {
          "indexed": true,
          "internalType": "address",
          "name": "account",
          "type": "address"
        },
        {
          "indexed": true,
          "internalType": "address",
          "name": "sender",
          "type": "address"
        }
      ],
      "name": "RoleGranted",
      "type": "event"
    },
    {
      "anonymous": false,
      "inputs": [
        {
          "indexed": true,
          "internalType": "bytes32",
          "name": "role",
          "type": "bytes32"
        },
        {
          "indexed": true,
          "internalType": "address",
          "name": "account",
          "type": "address"
        },
        {
          "indexed": true,
          "internalType": "address",
          "name": "sender",
          "type": "address"
        }
      ],
      "name": "RoleRevoked",
      "type": "event"
    },
    {
      "anonymous": false,
      "inputs": [
        {
          "indexed": false,
          "internalType": "address",
          "name": "account",
          "type": "address"
        }
      ],
      "name": "Unpaused",
      "type": "event"
    },
    {
      "inputs": [],
      "name": "ADMIN_ROLE",
      "outputs": [
        {
          "internalType": "bytes32",
          "name": "",
          "type": "bytes32"
        }
      ],
      "stateMutability": "view",
      "type": "function"
    },
    {
      "inputs": [],
      "name": "ARBITRATOR_ROLE",
      "outputs": [
        {
          "internalType": "bytes32",
          "name": "",
          "type": "bytes32"
        }
      ],
      "stateMutability": "view",
      "type": "function"
    },
    {
      "inputs": [],
      "name": "DEFAULT_ADMIN_ROLE",
      "outputs": [
        {
          "internalType": "bytes32",
          "name": "",
          "type": "bytes32"
        }
      ],
      "stateMutability": "view",
      "type": "function"
    },
    {
      "inputs": [],
      "name": "EXCELLENT_THRESHOLD",
      "outputs": [
        {
          "internalType": "uint256",
          "name": "",
          "type": "uint256"
        }
      ],
      "stateMutability": "view",
      "type": "function"
    },
    {
      "inputs": [],
      "name": "FAIR_THRESHOLD",
      "outputs": [
        {
          "internalType": "uint256",
          "name": "",
          "type": "uint256"
        }
      ],
      "stateMutability": "view",
      "type": "function"
    },
    {
      "inputs": [],
      "name": "GOOD_THRESHOLD",
      "outputs": [
        {
          "internalType": "uint256",
          "name": "",
          "type": "uint256"
        }
      ],
      "stateMutability": "view",
      "type": "function"
    },
    {
      "inputs": [],
      "name": "MAX_RATING",
      "outputs": [
        {
          "internalType": "uint256",
          "name": "",
          "type": "uint256"
        }
      ],
      "stateMutability": "view",
      "type": "function"
    },
    {
      "inputs": [],
      "name": "MIN_RATING",
      "outputs": [
        {
          "internalType": "uint256",
          "name": "",
          "type": "uint256"
        }
      ],
      "stateMutability": "view",
      "type": "function"
    },
    {
      "inputs": [],
      "name": "RATING_DECIMALS",
      "outputs": [
        {
          "internalType": "uint256",
          "name": "",
          "type": "uint256"
        }
      ],
      "stateMutability": "view",
      "type": "function"
    },
    {
      "inputs": [
        {
          "internalType": "address",
          "name": "reviewer",
          "type": "address"
        },
        {
          "internalType": "address",
          "name": "reviewee",
          "type": "address"
        },
        {
          "internalType": "uint256",
          "name": "rentalId",
          "type": "uint256"
        }
      ],
      "name": "canReview",
      "outputs": [
        {
          "internalType": "bool",
          "name": "",
          "type": "bool"
        }
      ],
      "stateMutability": "view",
      "type": "function"
    },
    {
      "inputs": [
        {
          "internalType": "address",
          "name": "reviewee",
          "type": "address"
        },
        {
          "internalType": "uint256",
          "name": "rating",
          "type": "uint256"
        },
        {
          "internalType": "string",
          "name": "review",
          "type": "string"
        },
        {
          "internalType": "string",
          "name": "ipfsHash",
          "type": "string"
        },
        {
          "internalType": "uint256",
          "name": "rentalId",
          "type": "uint256"
        },
        {
          "internalType": "enum Reputation.ReviewType",
          "name": "reviewType",
          "type": "uint8"
        }
      ],
      "name": "createReview",
      "outputs": [],
      "stateMutability": "nonpayable",
      "type": "function"
    },
    {
      "inputs": [
        {
          "internalType": "uint256",
          "name": "reviewId",
          "type": "uint256"
        }
      ],
      "name": "deleteReview",
      "outputs": [],
      "stateMutability": "nonpayable",
      "type": "function"
    },
    {
      "inputs": [
        {
          "internalType": "uint256",
          "name": "score",
          "type": "uint256"
        }
      ],
      "name": "getReputationLevel",
      "outputs": [
        {
          "internalType": "string",
          "name": "",
          "type": "string"
        }
      ],
      "stateMutability": "pure",
      "type": "function"
    },
    {
      "inputs": [
        {
          "internalType": "uint256",
          "name": "reviewId",
          "type": "uint256"
        }
      ],
      "name": "getReview",
      "outputs": [
        {
          "components": [
            {
              "internalType": "uint256",
              "name": "reviewId",
              "type": "uint256"
            },
            {
              "internalType": "address",
              "name": "reviewer",
              "type": "address"
            },
            {
              "internalType": "address",
              "name": "reviewee",
              "type": "address"
            },
            {
              "internalType": "uint256",
              "name": "rating",
              "type": "uint256"
            },
            {
              "internalType": "string",
              "name": "review",
              "type": "string"
            },
            {
              "internalType": "string",
              "name": "ipfsHash",
              "type": "string"
            },
            {
              "internalType": "uint256",
              "name": "rentalId",
              "type": "uint256"
            },
            {
              "internalType": "enum Reputation.ReviewType",
              "name": "reviewType",
              "type": "uint8"
            },
            {
              "internalType": "uint256",
              "name": "createdAt",
              "type": "uint256"
            },
            {
              "internalType": "uint256",
              "name": "updatedAt",
              "type": "uint256"
            },
            {
              "internalType": "bool",
              "name": "isDeleted",
              "type": "bool"
            }
          ],
          "internalType": "struct Reputation.Review",
          "name": "",
          "type": "tuple"
        }
      ],
      "stateMutability": "view",
      "type": "function"
    },
    {
      "inputs": [
        {
          "internalType": "bytes32",
          "name": "role",
          "type": "bytes32"
        }
      ],
      "name": "getRoleAdmin",
      "outputs": [
        {
          "internalType": "bytes32",
          "name": "",
          "type": "bytes32"
        }
      ],
      "stateMutability": "view",
      "type": "function"
    },
    {
      "inputs": [
        {
          "internalType": "address",
          "name": "user",
          "type": "address"
        }
      ],
      "name": "getUserReceivedReviews",
      "outputs": [
        {
          "internalType": "uint256[]",
          "name": "",
          "type": "uint256[]"
        }
      ],
      "stateMutability": "view",
      "type": "function"
    },
    {
      "inputs": [
        {
          "internalType": "address",
          "name": "user",
          "type": "address"
        }
      ],
      "name": "getUserReputation",
      "outputs": [
        {
          "components": [
            {
              "internalType": "address",
              "name": "user",
              "type": "address"
            },
            {
              "internalType": "uint256",
              "name": "totalReviews",
              "type": "uint256"
            },
            {
              "internalType": "uint256",
              "name": "totalRatingSum",
              "type": "uint256"
            },
            {
              "internalType": "uint256",
              "name": "reputationScore",
              "type": "uint256"
            },
            {
              "internalType": "uint256",
              "name": "completedRentals",
              "type": "uint256"
            },
            {
              "internalType": "uint256",
              "name": "cancelledRentals",
              "type": "uint256"
            },
            {
              "internalType": "uint256",
              "name": "disputeCount",
              "type": "uint256"
            },
            {
              "internalType": "bool",
              "name": "isVerified",
              "type": "bool"
            },
            {
              "internalType": "uint256",
              "name": "lastUpdated",
              "type": "uint256"
            }
          ],
          "internalType": "struct Reputation.UserReputation",
          "name": "",
          "type": "tuple"
        }
      ],
      "stateMutability": "view",
      "type": "function"
    },
    {
      "inputs": [
        {
          "internalType": "address",
          "name": "user",
          "type": "address"
        }
      ],
      "name": "getUserReviews",
      "outputs": [
        {
          "internalType": "uint256[]",
          "name": "",
          "type": "uint256[]"
        }
      ],
      "stateMutability": "view",
      "type": "function"
    },
    {
      "inputs": [
        {
          "internalType": "bytes32",
          "name": "role",
          "type": "bytes32"
        },
        {
          "internalType": "address",
          "name": "account",
          "type": "address"
        }
      ],
      "name": "grantRole",
      "outputs": [],
      "stateMutability": "nonpayable",
      "type": "function"
    },
    {
      "inputs": [
        {
          "internalType": "bytes32",
          "name": "role",
          "type": "bytes32"
        },
        {
          "internalType": "address",
          "name": "account",
          "type": "address"
        }
      ],
      "name": "hasRole",
      "outputs": [
        {
          "internalType": "bool",
          "name": "",
          "type": "bool"
        }
      ],
      "stateMutability": "view",
      "type": "function"
    },
    {
      "inputs": [],
      "name": "pause",
      "outputs": [],
      "stateMutability": "nonpayable",
      "type": "function"
    },
    {
      "inputs": [],
      "name": "paused",
      "outputs": [
        {
          "internalType": "bool",
          "name": "",
          "type": "bool"
        }
      ],
      "stateMutability": "view",
      "type": "function"
    },
    {
      "inputs": [
        {
          "internalType": "bytes32",
          "name": "role",
          "type": "bytes32"
        },
        {
          "internalType": "address",
          "name": "callerConfirmation",
          "type": "address"
        }
      ],
      "name": "renounceRole",
      "outputs": [],
      "stateMutability": "nonpayable",
      "type": "function"
    },
    {
      "inputs": [
        {
          "internalType": "uint256",
          "name": "",
          "type": "uint256"
        }
      ],
      "name": "rentalReviews",
      "outputs": [
        {
          "internalType": "uint256",
          "name": "",
          "type": "uint256"
        }
      ],
      "stateMutability": "view",
      "type": "function"
    },
    {
      "inputs": [
        {
          "internalType": "uint256",
          "name": "",
          "type": "uint256"
        }
      ],
      "name": "reviews",
      "outputs": [
        {
          "internalType": "uint256",
          "name": "reviewId",
          "type": "uint256"
        },
        {
          "internalType": "address",
          "name": "reviewer",
          "type": "address"
        },
        {
          "internalType": "address",
          "name": "reviewee",
          "type": "address"
        },
        {
          "internalType": "uint256",
          "name": "rating",
          "type": "uint256"
        },
        {
          "internalType": "string",
          "name": "review",
          "type": "string"
        },
        {
          "internalType": "string",
          "name": "ipfsHash",
          "type": "string"
        },
        {
          "internalType": "uint256",
          "name": "rentalId",
          "type": "uint256"
        },
        {
          "internalType": "enum Reputation.ReviewType",
          "name": "reviewType",
          "type": "uint8"
        },
        {
          "internalType": "uint256",
          "name": "createdAt",
          "type": "uint256"
        },
        {
          "internalType": "uint256",
          "name": "updatedAt",
          "type": "uint256"
        },
        {
          "internalType": "bool",
          "name": "isDeleted",
          "type": "bool"
        }
      ],
      "stateMutability": "view",
      "type": "function"
    },
    {
      "inputs": [
        {
          "internalType": "bytes32",
          "name": "role",
          "type": "bytes32"
        },
        {
          "internalType": "address",
          "name": "account",
          "type": "address"
        }
      ],
      "name": "revokeRole",
      "outputs": [],
      "stateMutability": "nonpayable",
      "type": "function"
    },
    {
      "inputs": [
        {
          "internalType": "bytes4",
          "name": "interfaceId",
          "type": "bytes4"
        }
      ],
      "name": "supportsInterface",
      "outputs": [
        {
          "internalType": "bool",
          "name": "",
          "type": "bool"
        }
      ],
      "stateMutability": "view",
      "type": "function"
    },
    {
      "inputs": [],
      "name": "unpause",
      "outputs": [],
      "stateMutability": "nonpayable",
      "type": "function"
    },
    {
      "inputs": [
        {
          "internalType": "address",
          "name": "user",
          "type": "address"
        },
        {
          "internalType": "bool",
          "name": "completed",
          "type": "bool"
        },
        {
          "internalType": "bool",
          "name": "cancelled",
          "type": "bool"
        },
        {
          "internalType": "bool",
          "name": "hadDispute",
          "type": "bool"
        }
      ],
      "name": "updateRentalStats",
      "outputs": [],
      "stateMutability": "nonpayable",
      "type": "function"
    },
    {
      "inputs": [
        {
          "internalType": "uint256",
          "name": "reviewId",
          "type": "uint256"
        },
        {
          "internalType": "uint256",
          "name": "newRating",
          "type": "uint256"
        },
        {
          "internalType": "string",
          "name": "newReview",
          "type": "string"
        }
      ],
      "name": "updateReview",
      "outputs": [],
      "stateMutability": "nonpayable",
      "type": "function"
    },
    {
      "inputs": [
        {
          "internalType": "address",
          "name": "",
          "type": "address"
        },
        {
          "internalType": "uint256",
          "name": "",
          "type": "uint256"
        }
      ],
      "name": "userReceivedReviews",
      "outputs": [
        {
          "internalType": "uint256",
          "name": "",
          "type": "uint256"
        }
      ],
      "stateMutability": "view",
      "type": "function"
    },
    {
      "inputs": [
        {
          "internalType": "address",
          "name": "",
          "type": "address"
        }
      ],
      "name": "userReputations",
      "outputs": [
        {
          "internalType": "address",
          "name": "user",
          "type": "address"
        },
        {
          "internalType": "uint256",
          "name": "totalReviews",
          "type": "uint256"
        },
        {
          "internalType": "uint256",
          "name": "totalRatingSum",
          "type": "uint256"
        },
        {
          "internalType": "uint256",
          "name": "reputationScore",
          "type": "uint256"
        },
        {
          "internalType": "uint256",
          "name": "completedRentals",
          "type": "uint256"
        },
        {
          "internalType": "uint256",
          "name": "cancelledRentals",
          "type": "uint256"
        },
        {
          "internalType": "uint256",
          "name": "disputeCount",
          "type": "uint256"
        },
        {
          "internalType": "bool",
          "name": "isVerified",
          "type": "bool"
        },
        {
          "internalType": "uint256",
          "name": "lastUpdated",
          "type": "uint256"
        }
      ],
      "stateMutability": "view",
      "type": "function"
    },
    {
      "inputs": [
        {
          "internalType": "address",
          "name": "",
          "type": "address"
        },
        {
          "internalType": "uint256",
          "name": "",
          "type": "uint256"
        }
      ],
      "name": "userReviews",
      "outputs": [
        {
          "internalType": "uint256",
          "name": "",
          "type": "uint256"
        }
      ],
      "stateMutability": "view",
      "type": "function"
    },
    {
      "inputs": [
        {
          "internalType": "address",
          "name": "",
          "type": "address"
        },
        {
          "internalType": "address",
          "name": "",
          "type": "address"
        }
      ],
      "name": "userToUserReviews",
      "outputs": [
        {
          "internalType": "uint256",
          "name": "",
          "type": "uint256"
        }
      ],
      "stateMutability": "view",
      "type": "function"
    },
    {
      "inputs": [
        {
          "internalType": "address",
          "name": "user",
          "type": "address"
        }
      ],
      "name": "verifyUser",
      "outputs": [],
      "stateMutability": "nonpayable",
      "type": "function"
    }
  ],
  "bytecode": "0x608060405234610030576001805561001633610035565b50610020336100b1565b506040516121d2908161014a8239f35b600080fd5b6001600160a01b038116600090815260008051602061235c833981519152602052604090205460ff166100ab576001600160a01b0316600081815260008051602061235c83398151915260205260408120805460ff1916600117905533919060008051602061231c8339815191528180a4600190565b50600090565b6001600160a01b038116600090815260008051602061233c833981519152602052604090205460ff166100ab576001600160a01b0316600081815260008051602061233c83398151915260205260408120805460ff191660011790553391907fa49807205ce4d355092ef5a8a18f56e8913cf4a201fbe287825b095693c217759060008051602061231c8339815191529080a460019056fe608080604052600436101561001357600080fd5b60003560e01c90816301ffc9a71461185857508063096d085b14611807578063175a3b41146114da57806318d0e8b2146114635780631cc76632146113e05780631f4ac12914611396578063248a9ca3146113615780632f2ff15d1461132157806336568abe146112db5780633f4ba83a14611272578063402bda091461123b5780634d813120146111eb5780635c975abb146111c857806373a469c6146111ac57806375b238fc14611171578063799ead1a146111385780637d04470a14610afc5780637ffdecb214610ae05780638456cb5914610a8657806391d1485414610a3957806394e113ea14610a1d578063990581b6146108365780639cea0787146107fb578063a217fddf146107df578063baccbfdb146106b0578063bb0e4ea214610694578063cae7be331461063b578063cfdb38821461060f578063d547741f146105c8578063d71e489014610421578063e47aad6f14610369578063e83ddcea1461027e578063efd67e5314610261578063f8b11691146101c25763fb3b8bb6146101a057600080fd5b346101bd5760003660031901126101bd57602060405161015e8152f35b600080fd5b346101bd5760203660031901126101bd576001600160a01b036101e36118ab565b166000526005602052610120604060002060018060a01b0381541690600181015490600281015460038201546004830154600584015491600685015493600860ff60078801541696015496604051988952602089015260408801526060870152608086015260a085015260c0840152151560e0830152610100820152f35b346101bd5760003660031901126101bd5760206040516101c28152f35b346101bd5760203660031901126101bd5760043560005260046020526020604060002080549060018060a01b0360018201541660018060a01b03600283015416916003810154926103516102d460048401611a7a565b946103416102e460058601611a7a565b61033360068701549860ff6007890154169460088901549760ff600a60098c01549b0154169a6040519e8f9e8f908152015260408d015260608c015261016060808c01526101608b01906119f2565b9089820360a08b01526119f2565b9560c088015260e0870190611a33565b61010085015261012084015215156101408301520390f35b346101bd5760803660031901126101bd576103826118ab565b6024359081151582036101bd5760443580151581036101bd576064359182151583036101bd576103b0611fc5565b6001600160a01b031660009081526005602052604090209261040c575b6103f7575b6103e2575b600842910155600080f35b600681016103f08154611dc5565b90556103d7565b600582016104058154611dc5565b90556103d2565b6004830161041a8154611dc5565b90556103cd565b346101bd5760203660031901126101bd5760043580600052600460205261045960018060a01b03600160406000200154163314611b1e565b60008181526004602052604090206001015461047f906001600160a01b03161515611b78565b80600052600460205260ff600a604060002001541661058a5780600052600460205260086040600020015462093a8081018091116105745742116105255760008181526004602052604090206002810154600a8201805460ff19166001179055426009909201919091556001600160a01b0316906104fc82611dd4565b33907fcba1f68eabaac61fcaf42545ed99760691895ab3e492d427fbe2e9c4b8d4422e600080a4005b60405162461bcd60e51b815260206004820152602160248201527f43616e6e6f742064656c657465207265766965772061667465722037206461796044820152607360f81b6064820152608490fd5b634e487b7160e01b600052601160045260246000fd5b60405162461bcd60e51b815260206004820152601660248201527514995d9a595dc8185b1c9958591e4819195b195d195960521b6044820152606490fd5b346101bd5760403660031901126101bd5761060d6004356105e76118c1565b9061060861060382600052600060205260016040600020015490565b612037565b6120fd565b005b346101bd5760203660031901126101bd5760043560005260096020526020604060002054604051908152f35b346101bd5760403660031901126101bd576106546118ab565b6001600160a01b03166000908152600760205260409020805460243591908210156101bd57602091610685916119c4565b90549060031b1c604051908152f35b346101bd5760003660031901126101bd57602060405160018152f35b346101bd5760203660031901126101bd576106c96118ab565b60006101006040516106da816118f4565b8281528260208201528260408201528260608201528260808201528260a08201528260c08201528260e0820152015260018060a01b03166000526005602052610120604060002060405161072d816118f4565b60018060a01b03825416918282526001810154602083019081526002820154604084019081526003830154606085019081526004840154906080860191825260058501549260a0870193845260068601549460c08801958652610100600860ff60078a0154169860e08b019915158a52015498019788526040519889525160208901525160408801525160608701525160808601525160a08501525160c084015251151560e083015251610100820152f35b346101bd5760003660031901126101bd57602060405160008152f35b346101bd5760003660031901126101bd5760206040517f16ceee8289685dd2a02b9c8ae81d2df373176ce53519e6284e2a2950d6546ffa8152f35b346101bd5760203660031901126101bd57600435600061014060405161085b816118d7565b82815282602082015282604082015282606082015260606080820152606060a08201528260c08201528260e0820152826101008201528261012082015201528060005260046020526108be60018060a01b03600160406000200154161515611b78565b60005260046020526040806000208151906108d8826118d7565b8054825260018101546001600160a01b03908116602084019081526002830154909116848401908152600383015460608501908152919391928291610a02906109ef61092660048501611a7a565b608086019081526109dc61093c60058701611a7a565b9160a0880192835260068701549960c089019a8b5260ff6007890154169561096860e08b019788611d7f565b60ff600a60088b01549a6101008d019b8c5261012060098201549d019c8d520154169a61014081019b15158c528e519e8f9e8f926020845251602084015260018060a01b0390511691015260018060a01b0390511660608d01525160808c01525161016060a08c01526101808b01906119f2565b9051898203601f190160c08b01526119f2565b955160e088015251610100870190611a33565b51610120850152516101408401525115156101608301520390f35b346101bd5760003660031901126101bd57602060405160058152f35b346101bd5760403660031901126101bd57610a526118c1565b600435600052600060205260406000209060018060a01b0316600052602052602060ff604060002054166040519015158152f35b346101bd5760003660031901126101bd57610a9f611fc5565b610aa761217f565b600160ff1960025416176002557f62e78cea01bee320cd4e420270b5ea74000d11b0c9f74754ebdbfc544b05a2586020604051338152a1005b346101bd5760003660031901126101bd57602060405160fa8152f35b346101bd5760c03660031901126101bd57610b156118ab565b60243560443567ffffffffffffffff81116101bd57610b38903690600401611933565b9060643567ffffffffffffffff81116101bd57610b59903690600401611933565b9160843591600260a43510156101bd57600260015414611127576002600155610b8061217f565b60018110158061111c575b610b9490611bbc565b6001600160a01b038516933385146110de57610bb283511515611c08565b841561109957336000526008602052604060002085600052602052604060002054158015611064575b1561100c57600354926001840160035560405196610bf8886118d7565b848852846020890198338a526040810199898b52606082019a878c526080830186815260a0840188815260c08501918c835260e086019e8f60a435610c3c91611d7f565b426101008801818152610120890191825260006101408a018181529a815260046020819052604090912099518a55975160018a0180546001600160a01b03199081166001600160a01b0393841617909155975160028b018054909916911617909655905160038801559051805191958701919067ffffffffffffffff8211610f33578190610cca8454611a40565b601f8111610fb9575b50602090601f8311600114610f5457600092610f49575b50508160011b916000199060031b1c19161790555b518051600586019167ffffffffffffffff8211610f33578190610d228454611a40565b601f8111610ee0575b50602090601f8311600114610e7b57600092610e70575b50508160011b916000199060031b1c19161790555b516006840155600783019b519b60028d1015610e5a5760009c60ff198254169060ff16179055516008830155516009820155600a019051151560ff198254169060ff161790553388526006602052846040892090610db491611d8b565b8688526007602052846040892090610dcb91611d8b565b3388526008602052604088208789526020528460408920558588526009602052846040892055610dfa90611dd4565b604051928352602083016080905260808301610e15916119f2565b8281036040840152610e26916119f2565b926060820152803393037f9e76763611771f3afe7e3dd368fa69ffd4ca0e410affc556ce0d953ddf6ae4c791a46001805580f35b634e487b7160e01b600052602160045260246000fd5b015190503880610d42565b60008581528281209350601f198516905b818110610ec85750908460019594939210610eaf575b505050811b019055610d57565b015160001960f88460031b161c19169055388080610ea2565b92936020600181928786015181550195019301610e8c565b909150836000526020600020601f840160051c81019160208510610f29575b90601f859493920160051c01905b818110610f1a5750610d2b565b60008155849350600101610f0d565b9091508190610eff565b634e487b7160e01b600052604160045260246000fd5b015190503880610cea565b60008581528281209350601f198516905b818110610fa15750908460019594939210610f88575b505050811b019055610cff565b015160001960f88460031b161c19169055388080610f7b565b92936020600181928786015181550195019301610f65565b909150836000526020600020601f840160051c81019160208510611002575b90601f859493920160051c01905b818110610ff35750610cd3565b60008155849350600101610fe6565b9091508190610fd8565b60405162461bcd60e51b815260206004820152602a60248201527f416c72656164792072657669657765642074686973207573657220666f7220746044820152691a1a5cc81c995b9d185b60b21b6064820152608490fd5b503360005260086020526040600020856000526020526040600020546000526004602052836006604060002001541415610bdb565b60405162461bcd60e51b815260206004820152601860248201527f496e76616c6964207265766965776565206164647265737300000000000000006044820152606490fd5b60405162461bcd60e51b815260206004820152601660248201527521b0b73737ba103932bb34b2bb903cb7bab939b2b63360511b6044820152606490fd5b506005811115610b8b565b633ee5aeb560e01b60005260046000fd5b346101bd5760603660031901126101bd5760206111676111566118ab565b61115e6118c1565b60443591611cfc565b6040519015158152f35b346101bd5760003660031901126101bd5760206040517fa49807205ce4d355092ef5a8a18f56e8913cf4a201fbe287825b095693c217758152f35b346101bd5760003660031901126101bd57602060405160028152f35b346101bd5760003660031901126101bd57602060ff600254166040519015158152f35b346101bd5760203660031901126101bd576112046118ab565b61120c611fc5565b6001600160a01b0316600090815260056020526040902060078101805460ff1916600117905542600890910155005b346101bd5760203660031901126101bd5761126e61125a600435611c54565b6040519182916020835260208301906119f2565b0390f35b346101bd5760003660031901126101bd5761128b611fc5565b60025460ff8116156112ca5760ff19166002557f5db9ee0a495bf2e6ff9c91a7834c1ba4fdd244a5e8aa4e537bd38aeae4b073aa6020604051338152a1005b638dfc202b60e01b60005260046000fd5b346101bd5760403660031901126101bd576112f46118c1565b336001600160a01b038216036113105761060d906004356120fd565b63334bd91960e11b60005260046000fd5b346101bd5760403660031901126101bd5761060d6004356113406118c1565b9061135c61060382600052600060205260016040600020015490565b612072565b346101bd5760203660031901126101bd57602061138e600435600052600060205260016040600020015490565b604051908152f35b346101bd5760403660031901126101bd576113af6118ab565b6001600160a01b03166000908152600660205260409020805460243591908210156101bd57602091610685916119c4565b346101bd5760203660031901126101bd576001600160a01b036114016118ab565b166000526007602052604060002060405190816020825491828152019160005260206000209060005b81811061144d5761126e8561144181870382611911565b6040519182918261198a565b825484526020909301926001928301920161142a565b346101bd5760203660031901126101bd576001600160a01b036114846118ab565b166000526006602052604060002060405190816020825491828152019160005260206000209060005b8181106114c45761126e8561144181870382611911565b82548452602090930192600192830192016114ad565b346101bd5760603660031901126101bd5760243560043560443567ffffffffffffffff81116101bd57611511903690600401611933565b81600052600460205261153560018060a01b03600160406000200154163314611b1e565b60008281526004602052604090206001015461155b906001600160a01b03161515611b78565b6001831015806117fc575b61156f90611bbc565b81600052600460205260ff600a60406000200154166117c35761159481511515611c08565b81600052600460205260086040600020015462093a808101809111610574574211611774576000828152600460208190526040909120600281015460038201869055835195926001600160a01b03909116910167ffffffffffffffff8611610f33576116008154611a40565b601f811161172c575b50602095601f81116001146116a257908161167693927fe6bca0b1ae68aa3c3101325a30603b90848b1cb037d020c24548cc433db5e6619798600091611697575b508160011b916000199060031b1c19161790555b85600052600460205242600960406000200155611dd4565b61169260405192839283526040602084015260408301906119f2565b0390a2005b90508601518961164a565b601f19811682600052876000209060005b8181106117145750916001917fe6bca0b1ae68aa3c3101325a30603b90848b1cb037d020c24548cc433db5e661989982611676979695106116fb575b5050811b01905561165e565b88015160001960f88460031b161c1916905589806116ef565b878a015183556020998a0199600190930192016116b3565b816000526020600020601f880160051c8101916020891061176a575b601f0160051c01905b81811061175e5750611609565b60008155600101611751565b9091508190611748565b60405162461bcd60e51b815260206004820152602160248201527f43616e6e6f7420757064617465207265766965772061667465722037206461796044820152607360f81b6064820152608490fd5b60405162461bcd60e51b815260206004820152601160248201527014995d9a595dc81a5cc819195b195d1959607a1b6044820152606490fd5b506005831115611566565b346101bd5760403660031901126101bd576118206118ab565b6118286118c1565b6001600160a01b039182166000908152600860209081526040808320949093168252928352819020549051908152f35b346101bd5760203660031901126101bd576004359063ffffffff60e01b82168092036101bd57602091637965db0b60e01b811490811561189a575b5015158152f35b6301ffc9a760e01b14905083611893565b600435906001600160a01b03821682036101bd57565b602435906001600160a01b03821682036101bd57565b610160810190811067ffffffffffffffff821117610f3357604052565b610120810190811067ffffffffffffffff821117610f3357604052565b90601f8019910116810190811067ffffffffffffffff821117610f3357604052565b81601f820112156101bd5780359067ffffffffffffffff8211610f335760405192611968601f8401601f191660200185611911565b828452602083830101116101bd57816000926020809301838601378301015290565b602060408183019282815284518094520192019060005b8181106119ae5750505090565b82518452602093840193909201916001016119a1565b80548210156119dc5760005260206000200190600090565b634e487b7160e01b600052603260045260246000fd5b919082519283825260005b848110611a1e575050826000602080949584010152601f8019910116010190565b806020809284010151828286010152016119fd565b906002821015610e5a5752565b90600182811c92168015611a70575b6020831014611a5a57565b634e487b7160e01b600052602260045260246000fd5b91607f1691611a4f565b9060405191826000825492611a8e84611a40565b8084529360018116908115611afc5750600114611ab5575b50611ab392500383611911565b565b90506000929192526020600020906000915b818310611ae0575050906020611ab39282010138611aa6565b6020919350806001915483858901015201910190918492611ac7565b905060209250611ab394915060ff191682840152151560051b82010138611aa6565b15611b2557565b60405162461bcd60e51b815260206004820152602560248201527f4f6e6c792072657669657765722063616e20706572666f726d2074686973206160448201526431ba34b7b760d91b6064820152608490fd5b15611b7f57565b60405162461bcd60e51b815260206004820152601560248201527414995d9a595dc8191bd95cc81b9bdd08195e1a5cdd605a1b6044820152606490fd5b15611bc357565b60405162461bcd60e51b815260206004820152601e60248201527f526174696e67206d757374206265206265747765656e203120616e64203500006044820152606490fd5b15611c0f57565b60405162461bcd60e51b815260206004820152601b60248201527f52657669657720746578742063616e6e6f7420626520656d70747900000000006044820152606490fd5b6101c28110611c855750604051611c6c604082611911565b6009815268115e18d95b1b195b9d60ba1b602082015290565b61015e8110611cb15750604051611c9d604082611911565b600481526311dbdbd960e21b602082015290565b60fa11611cda57604051611cc6604082611911565b60048152632330b4b960e11b602082015290565b604051611ce8604082611911565b60048152632837b7b960e11b602082015290565b6001600160a01b039081169082168114611d7757806000526008602052604060002060018060a01b038316600052602052604060002054611d3f57505050600190565b600052600860205260406000209060018060a01b03166000526020526040600020546000526004602052600660406000200154141590565b505050600090565b6002821015610e5a5752565b805468010000000000000000811015610f3357611dad916001820181556119c4565b819291549060031b91821b91600019901b1916179055565b60001981146105745760010190565b6001600160a01b03166000818152600560205260408120909290918391825b826000526007602052604060002054811015611f0857826000526007602052611e208160406000206119c4565b90549060031b1c60005260046020526040600020604051611e40816118d7565b8154815260018201546001600160a01b03908116602083015260028301541660408201526003820154606082019081529160ff90600a90611e8360048201611a7a565b6080850152611e9460058201611a7a565b60a0850152600681015460c0850152611eb68360078301541660e08601611d7f565b6008810154610100850152600981015461012085015201541615906101408215910152611ee7575b50600101611df3565b9593909551810180911161057457611f0160019194611dc5565b9590611ede565b5093909290801580611f915783600284015581600184015560648402938085046064149015171561057457611f7b576003604092827f5b88a2e3fc1a53234357ab78c104df11c33ccfa79886793654565ad70b8afb6e9504828201555b42600882015501549082519182526020820152a2565b634e487b7160e01b600052601260045260246000fd5b507f5b88a2e3fc1a53234357ab78c104df11c33ccfa79886793654565ad70b8afb6e92506003826000826040950155611f65565b3360009081527f7d7ffb7a348e1c6a02869081a26547b49160dd3df72d1d75a570eb9b698292ec602052604090205460ff1615611ffe57565b63e2517d3f60e01b600052336004527fa49807205ce4d355092ef5a8a18f56e8913cf4a201fbe287825b095693c2177560245260446000fd5b60008181526020818152604080832033845290915290205460ff161561205a5750565b63e2517d3f60e01b6000523360045260245260446000fd5b6000818152602081815260408083206001600160a01b038616845290915290205460ff166120f6576000818152602081815260408083206001600160a01b0395909516808452949091528120805460ff19166001179055339291907f2f8788117e7eff1d82e926ec794901d17c78024a50270940304540a733656f0d9080a4600190565b5050600090565b6000818152602081815260408083206001600160a01b038616845290915290205460ff16156120f6576000818152602081815260408083206001600160a01b0395909516808452949091528120805460ff19169055339291907ff6391f5c32d9c69d2a47ea670b442974b53935d1edc7fd64eb21e047a839171b9080a4600190565b60ff6002541661218b57565b63d93c066560e01b60005260046000fdfea264697066735822122075f6a4f259a3bd8c7c3a3e4504b3c9d57579d4b901bc6e8db033a08a498c386b64736f6c634300081c00332f8788117e7eff1d82e926ec794901d17c78024a50270940304540a733656f0d7d7ffb7a348e1c6a02869081a26547b49160dd3df72d1d75a570eb9b698292ecad3228b676f7d3cd4284a5443f17f1962b36e491b30a40b2405849e597ba5fb5",
  "linkReferences": {},
  "deployedLinkReferences": {}
}