{
  "_format": "hh-sol-artifact-1",
  "contractName": "Counter",
  "sourceName": "contracts/Counter.sol",
  "abi": [
    {
      "inputs": [],
      "name": "increment",
      "outputs": [],
      "stateMutability": "nonpayable",
      "type": "function"
    },
    {
      "inputs": [],
      "name": "number",
      "outputs": [
        {
          "internalType": "uint256",
          "name": "",
          "type": "uint256"
        }
      ],
      "stateMutability": "view",
      "type": "function"
    },
    {
      "inputs": [
        {
          "internalType": "uint256",
          "name": "newNumber",
          "type": "uint256"
        }
      ],
      "name": "setNumber",
      "outputs": [],
      "stateMutability": "nonpayable",
      "type": "function"
    }
  ],
  "bytecode": "0x6080806040523460135760df908160198239f35b600080fdfe6080806040526004361015601257600080fd5b60003560e01c9081633fb5c1cb1460925781638381f58a146079575063d09de08a14603c57600080fd5b3460745760003660031901126074576000546000198114605e57600101600055005b634e487b7160e01b600052601160045260246000fd5b600080fd5b3460745760003660031901126074576020906000548152f35b34607457602036600319011260745760043560005500fea2646970667358221220dd2ef7235fd05fcf675f8e309145e8135a76e51dcdf8af8fae07620291189f3d64736f6c634300081c0033",
  "linkReferences": {},
  "deployedLinkReferences": {}
}